{"abi":[{"type":"function","name":"getBorrowingFeeFloor","inputs":[],"outputs":[{"name":"","type":"uint256","internalType":"uint256"}],"stateMutability":"view"},{"type":"function","name":"getCCR","inputs":[],"outputs":[{"name":"","type":"uint256","internalType":"uint256"}],"stateMutability":"view"},{"type":"function","name":"getMCR","inputs":[],"outputs":[{"name":"","type":"uint256","internalType":"uint256"}],"stateMutability":"view"},{"type":"function","name":"getMinNetDebt","inputs":[],"outputs":[{"name":"","type":"uint256","internalType":"uint256"}],"stateMutability":"view"},{"type":"function","name":"getRedemptionFeeFloor","inputs":[],"outputs":[{"name":"","type":"uint256","internalType":"uint256"}],"stateMutability":"view"},{"type":"function","name":"getUSDSGasCompensation","inputs":[],"outputs":[{"name":"","type":"uint256","internalType":"uint256"}],"stateMutability":"view"},{"type":"function","name":"isOwner","inputs":[],"outputs":[{"name":"","type":"bool","internalType":"bool"}],"stateMutability":"view"},{"type":"function","name":"owner","inputs":[],"outputs":[{"name":"","type":"address","internalType":"address"}],"stateMutability":"view"},{"type":"function","name":"setBorrowingFeeFloor","inputs":[{"name":"_value","type":"uint256","internalType":"uint256"}],"outputs":[],"stateMutability":"nonpayable"},{"type":"function","name":"setCCR","inputs":[{"name":"_value","type":"uint256","internalType":"uint256"}],"outputs":[],"stateMutability":"nonpayable"},{"type":"function","name":"setConfigs","inputs":[{"name":"_timelock","type":"address","internalType":"address"},{"name":"_mcr","type":"uint256","internalType":"uint256"},{"name":"_ccr","type":"uint256","internalType":"uint256"},{"name":"_USDSGasCompensation","type":"uint256","internalType":"uint256"},{"name":"_minNetDebt","type":"uint256","internalType":"uint256"},{"name":"_borrowingFeeFloor","type":"uint256","internalType":"uint256"},{"name":"_redemptionFeeFloor","type":"uint256","internalType":"uint256"}],"outputs":[],"stateMutability":"nonpayable"},{"type":"function","name":"setMCR","inputs":[{"name":"_value","type":"uint256","internalType":"uint256"}],"outputs":[],"stateMutability":"nonpayable"},{"type":"function","name":"setMinNetDebt","inputs":[{"name":"_value","type":"uint256","internalType":"uint256"}],"outputs":[],"stateMutability":"nonpayable"},{"type":"function","name":"setRedemptionFeeFloor","inputs":[{"name":"_value","type":"uint256","internalType":"uint256"}],"outputs":[],"stateMutability":"nonpayable"},{"type":"function","name":"setUSDSGasCompensation","inputs":[{"name":"_value","type":"uint256","internalType":"uint256"}],"outputs":[],"stateMutability":"nonpayable"},{"type":"event","name":"BorrowingFeeFloorChanged","inputs":[{"name":"_o","type":"uint256","indexed":false,"internalType":"uint256"},{"name":"_n","type":"uint256","indexed":false,"internalType":"uint256"}],"anonymous":false},{"type":"event","name":"CCR_Changed","inputs":[{"name":"_o","type":"uint256","indexed":false,"internalType":"uint256"},{"name":"_n","type":"uint256","indexed":false,"internalType":"uint256"}],"anonymous":false},{"type":"event","name":"MCR_Changed","inputs":[{"name":"_o","type":"uint256","indexed":false,"internalType":"uint256"},{"name":"_n","type":"uint256","indexed":false,"internalType":"uint256"}],"anonymous":false},{"type":"event","name":"MinNetDebtChanged","inputs":[{"name":"_o","type":"uint256","indexed":false,"internalType":"uint256"},{"name":"_n","type":"uint256","indexed":false,"internalType":"uint256"}],"anonymous":false},{"type":"event","name":"OwnershipTransferred","inputs":[{"name":"previousOwner","type":"address","indexed":true,"internalType":"address"},{"name":"newOwner","type":"address","indexed":true,"internalType":"address"}],"anonymous":false},{"type":"event","name":"RedemptionFeeFloorChanged","inputs":[{"name":"_o","type":"uint256","indexed":false,"internalType":"uint256"},{"name":"_n","type":"uint256","indexed":false,"internalType":"uint256"}],"anonymous":false},{"type":"event","name":"USDSGasCompensationChanged","inputs":[{"name":"_o","type":"uint256","indexed":false,"internalType":"uint256"},{"name":"_n","type":"uint256","indexed":false,"internalType":"uint256"}],"anonymous":false}],"bytecode":{"object":"0x608060405234801561001057600080fd5b50600080546001600160a01b0319163390811782556040519091907f8be0079c531659141344cd1fd0a4f28419497f9722a3daafe3b4186f6b6457e0908290a36109128061005f6000396000f3fe608060405234801561001057600080fd5b50600436106100c55760003560e01c80631549b76d146100ca57806325ee537e146100e45780632e2465f814610130578063385a128f1461014d5780634139ad601461016a578063438d641a1461018757806344936b10146101a45780635e9e3212146101ac5780636030cc8c146101b45780638abf30b3146101d15780638da5cb5b146101d95780638f32d59b146101fd578063bb40952214610219578063c4dc70d314610221578063deea414314610229575b600080fd5b6100d2610246565b60408051918252519081900360200190f35b61012e600480360360e08110156100fa57600080fd5b506001600160a01b038135169060208101359060408101359060608101359060808101359060a08101359060c0013561024c565b005b61012e6004803603602081101561014657600080fd5b5035610310565b61012e6004803603602081101561016357600080fd5b5035610369565b61012e6004803603602081101561018057600080fd5b50356103bf565b61012e6004803603602081101561019d57600080fd5b5035610415565b6100d261046b565b6100d2610471565b61012e600480360360208110156101ca57600080fd5b5035610477565b6100d26104cd565b6101e16104d3565b604080516001600160a01b039092168252519081900360200190f35b6102056104e2565b604080519115158252519081900360200190f35b6100d26104f3565b6100d26104f9565b61012e6004803603602081101561023f57600080fd5b50356104ff565b60035490565b6102546104e2565b6102a5576040805162461bcd60e51b815260206004820181905260248201527f4f776e61626c653a2063616c6c6572206973206e6f7420746865206f776e6572604482015290519081900360640190fd5b6102ae87610555565b600780546001600160a01b0319166001600160a01b0389161790556102d2856105d8565b6102db8661066e565b6102e48461071e565b6102ed83610765565b6102f6826107eb565b6102ff81610832565b610307610879565b50505050505050565b6007546001600160a01b0316331461035d576040805162461bcd60e51b815260206004820152601b60248201526000805160206108c4833981519152604482015290519081900360640190fd5b610366816107eb565b50565b6007546001600160a01b031633146103b6576040805162461bcd60e51b815260206004820152601b60248201526000805160206108c4833981519152604482015290519081900360640190fd5b6103668161066e565b6007546001600160a01b0316331461040c576040805162461bcd60e51b815260206004820152601b60248201526000805160206108c4833981519152604482015290519081900360640190fd5b610366816105d8565b6007546001600160a01b03163314610462576040805162461bcd60e51b815260206004820152601b60248201526000805160206108c4833981519152604482015290519081900360640190fd5b61036681610765565b60015490565b60055490565b6007546001600160a01b031633146104c4576040805162461bcd60e51b815260206004820152601b60248201526000805160206108c4833981519152604482015290519081900360640190fd5b61036681610832565b60065490565b6000546001600160a01b031690565b6000546001600160a01b0316331490565b60025490565b60045490565b6007546001600160a01b0316331461054c576040805162461bcd60e51b815260206004820152601b60248201526000805160206108c4833981519152604482015290519081900360640190fd5b6103668161071e565b6001600160a01b038116610598576040805162461bcd60e51b81526020600482015260056024820152641830b2323960d91b604482015290519081900360640190fd5b803b806105d4576040805162461bcd60e51b815260206004820152600560248201526430636f646560d81b604482015290519081900360640190fd5b5050565b6001548111610627576040805162461bcd60e51b815260206004820152601660248201527529bcb9ba32b6a9ba30ba329d1021a1a9101f1026a1a960511b604482015290519081900360640190fd5b6002805490829055604080518281526020810184905281517f3ec40a32028fd52f7f01b6903f93694c15797919eb66ea06cfdd447f73208ccb929181900390910190a15050565b670de0b6b3a764000081118015610686575060025481105b6106d7576040805162461bcd60e51b815260206004820152601d60248201527f53797374656d53746174653a2031303025203c204d4352203c20434352000000604482015290519081900360640190fd5b6001805490829055604080518281526020810184905281517f71f9506549f80f8467074cf2f8c6e652aa730dc46b4c2bf5134c4e7bdd821481929181900390910190a15050565b6003805490829055604080518281526020810184905281517f9be221579dd93d1539f1966b02aa80f0d329cfb723e0ab2c748cdcd4bec1ac44929181900390910190a15050565b600081116107a45760405162461bcd60e51b81526004018080602001828103825260228152602001806108e46022913960400191505060405180910390fd5b6004805490829055604080518281526020810184905281517f794abdbe21b3b4556467be6af2b2d5e75ae16613bd128dbd47c3727bd52b4b55929181900390910190a15050565b6005805490829055604080518281526020810184905281517fd9497bdb2df1266d0aea6a2f7c18fb95c33b49b294c98cf2cea07ae1640f40be929181900390910190a15050565b6006805490829055604080518281526020810184905281517fbb07ced1b1536afc600a5d97cba6e4b294731026286cddc33b98cb2d18569ab7929181900390910190a15050565b600080546040516001600160a01b03909116907f8be0079c531659141344cd1fd0a4f28419497f9722a3daafe3b4186f6b6457e0908390a3600080546001600160a01b031916905556fe43616c6c6572206973206e6f742066726f6d2074696d656c6f636b000000000053797374656d53746174653a204d696e206e65742064656274206d757374203e2030a164736f6c634300060b000a","linkReferences":{}},"methodIdentifiers":{"getBorrowingFeeFloor()":"5e9e3212","getCCR()":"bb409522","getMCR()":"44936b10","getMinNetDebt()":"c4dc70d3","getRedemptionFeeFloor()":"8abf30b3","getUSDSGasCompensation()":"1549b76d","isOwner()":"8f32d59b","owner()":"8da5cb5b","setBorrowingFeeFloor(uint256)":"2e2465f8","setCCR(uint256)":"4139ad60","setConfigs(address,uint256,uint256,uint256,uint256,uint256,uint256)":"25ee537e","setMCR(uint256)":"385a128f","setMinNetDebt(uint256)":"438d641a","setRedemptionFeeFloor(uint256)":"6030cc8c","setUSDSGasCompensation(uint256)":"deea4143"},"storageLayout":{"storage":[{"astId":299,"contract":"src/SystemState.sol:SystemState","label":"_owner","offset":0,"slot":"0","type":"t_address"},{"astId":10651,"contract":"src/SystemState.sol:SystemState","label":"mcr","offset":0,"slot":"1","type":"t_uint256"},{"astId":10653,"contract":"src/SystemState.sol:SystemState","label":"ccr","offset":0,"slot":"2","type":"t_uint256"},{"astId":10655,"contract":"src/SystemState.sol:SystemState","label":"USDSGasCompensation","offset":0,"slot":"3","type":"t_uint256"},{"astId":10657,"contract":"src/SystemState.sol:SystemState","label":"minNetDebt","offset":0,"slot":"4","type":"t_uint256"},{"astId":10659,"contract":"src/SystemState.sol:SystemState","label":"borrowingFeeFloor","offset":0,"slot":"5","type":"t_uint256"},{"astId":10661,"contract":"src/SystemState.sol:SystemState","label":"redemptionFeeFloor","offset":0,"slot":"6","type":"t_uint256"},{"astId":10663,"contract":"src/SystemState.sol:SystemState","label":"timeLock","offset":0,"slot":"7","type":"t_address"}],"types":{"t_address":{"encoding":"inplace","label":"address","numberOfBytes":"20"},"t_uint256":{"encoding":"inplace","label":"uint256","numberOfBytes":"32"}}},"id":6}