{"abi":[{"type":"function","name":"DECIMAL_PRECISION","inputs":[],"outputs":[{"name":"","type":"uint256","internalType":"uint256"}],"stateMutability":"view"},{"type":"function","name":"PERCENT_DIVISOR","inputs":[],"outputs":[{"name":"","type":"uint256","internalType":"uint256"}],"stateMutability":"view"},{"type":"function","name":"_100pct","inputs":[],"outputs":[{"name":"","type":"uint256","internalType":"uint256"}],"stateMutability":"view"},{"type":"function","name":"activePool","inputs":[],"outputs":[{"name":"","type":"address","internalType":"contract IActivePool"}],"stateMutability":"view"},{"type":"function","name":"defaultPool","inputs":[],"outputs":[{"name":"","type":"address","internalType":"contract IDefaultPool"}],"stateMutability":"view"},{"type":"function","name":"getEntireSystemColl","inputs":[],"outputs":[{"name":"entireSystemColl","type":"uint256","internalType":"uint256"}],"stateMutability":"view"},{"type":"function","name":"getEntireSystemDebt","inputs":[],"outputs":[{"name":"entireSystemDebt","type":"uint256","internalType":"uint256"}],"stateMutability":"view"},{"type":"function","name":"priceFeed","inputs":[],"outputs":[{"name":"","type":"address","internalType":"contract IPriceFeed"}],"stateMutability":"view"},{"type":"function","name":"systemState","inputs":[],"outputs":[{"name":"","type":"address","internalType":"contract ISystemState"}],"stateMutability":"view"},{"type":"function","name":"timeLock","inputs":[],"outputs":[{"name":"","type":"address","internalType":"address"}],"stateMutability":"view"}],"bytecode":{"object":"0x608060405234801561001057600080fd5b506103a6806100206000396000f3fe608060405234801561001057600080fd5b506004361061008e5760003560e01c80633cc74225146100935780634870dd9a146100b757806372fe25aa146100d1578063741bef1a146100d9578063795d26c3146100e15780637f7dde4a146100e9578063887105d3146100f1578063991292e3146100f9578063a20baee6146100d1578063d085835a14610101575b600080fd5b61009b610109565b604080516001600160a01b039092168252519081900360200190f35b6100bf610118565b60408051918252519081900360200190f35b6100bf61011d565b61009b610129565b6100bf610138565b61009b610245565b6100bf610254565b61009b61031c565b61009b61032b565b6002546001600160a01b031681565b60c881565b670de0b6b3a764000081565b6003546001600160a01b031681565b600080600160009054906101000a90046001600160a01b03166001600160a01b0316635227d6a86040518163ffffffff1660e01b815260040160206040518083038186803b15801561018957600080fd5b505afa15801561019d573d6000803e3d6000fd5b505050506040513d60208110156101b357600080fd5b505160025460408051630a44fad560e31b815290519293506000926001600160a01b0390921691635227d6a891600480820192602092909190829003018186803b15801561020057600080fd5b505afa158015610214573d6000803e3d6000fd5b505050506040513d602081101561022a57600080fd5b5051905061023e828263ffffffff61033a16565b9250505090565b6001546001600160a01b031681565b600080600160009054906101000a90046001600160a01b03166001600160a01b03166378a619de6040518163ffffffff1660e01b815260040160206040518083038186803b1580156102a557600080fd5b505afa1580156102b9573d6000803e3d6000fd5b505050506040513d60208110156102cf57600080fd5b505160025460408051633c530cef60e11b815290519293506000926001600160a01b03909216916378a619de91600480820192602092909190829003018186803b15801561020057600080fd5b6004546001600160a01b031681565b6000546001600160a01b031681565b600082820183811015610392576040805162461bcd60e51b815260206004820152601b60248201527a536166654d6174683a206164646974696f6e206f766572666c6f7760281b604482015290519081900360640190fd5b939250505056fea164736f6c634300060b000a","linkReferences":{}},"methodIdentifiers":{"DECIMAL_PRECISION()":"a20baee6","PERCENT_DIVISOR()":"4870dd9a","_100pct()":"72fe25aa","activePool()":"7f7dde4a","defaultPool()":"3cc74225","getEntireSystemColl()":"887105d3","getEntireSystemDebt()":"795d26c3","priceFeed()":"741bef1a","systemState()":"991292e3","timeLock()":"d085835a"},"storageLayout":{"storage":[{"astId":216,"contract":"src/Dependencies/LiquityBase.sol:LiquityBase","label":"timeLock","offset":0,"slot":"0","type":"t_address"},{"astId":218,"contract":"src/Dependencies/LiquityBase.sol:LiquityBase","label":"activePool","offset":0,"slot":"1","type":"t_contract(IActivePool)10936"},{"astId":220,"contract":"src/Dependencies/LiquityBase.sol:LiquityBase","label":"defaultPool","offset":0,"slot":"2","type":"t_contract(IDefaultPool)11019"},{"astId":223,"contract":"src/Dependencies/LiquityBase.sol:LiquityBase","label":"priceFeed","offset":0,"slot":"3","type":"t_contract(IPriceFeed)11122"},{"astId":225,"contract":"src/Dependencies/LiquityBase.sol:LiquityBase","label":"systemState","offset":0,"slot":"4","type":"t_contract(ISystemState)11899"}],"types":{"t_address":{"encoding":"inplace","label":"address","numberOfBytes":"20"},"t_contract(IActivePool)10936":{"encoding":"inplace","label":"contract IActivePool","numberOfBytes":"20"},"t_contract(IDefaultPool)11019":{"encoding":"inplace","label":"contract IDefaultPool","numberOfBytes":"20"},"t_contract(IPriceFeed)11122":{"encoding":"inplace","label":"contract IPriceFeed","numberOfBytes":"20"},"t_contract(ISystemState)11899":{"encoding":"inplace","label":"contract ISystemState","numberOfBytes":"20"}}},"id":4}