{"abi":[{"type":"receive","stateMutability":"payable"},{"type":"function","name":"NAME","inputs":[],"outputs":[{"name":"","type":"string","internalType":"string"}],"stateMutability":"view"},{"type":"function","name":"borrowerOperationsAddress","inputs":[],"outputs":[{"name":"","type":"address","internalType":"address"}],"stateMutability":"view"},{"type":"function","name":"decreaseUSDSDebt","inputs":[{"name":"_amount","type":"uint256","internalType":"uint256"}],"outputs":[],"stateMutability":"nonpayable"},{"type":"function","name":"defaultPoolAddress","inputs":[],"outputs":[{"name":"","type":"address","internalType":"address"}],"stateMutability":"view"},{"type":"function","name":"getBNB","inputs":[],"outputs":[{"name":"","type":"uint256","internalType":"uint256"}],"stateMutability":"view"},{"type":"function","name":"getUSDSDebt","inputs":[],"outputs":[{"name":"","type":"uint256","internalType":"uint256"}],"stateMutability":"view"},{"type":"function","name":"increaseUSDSDebt","inputs":[{"name":"_amount","type":"uint256","internalType":"uint256"}],"outputs":[],"stateMutability":"nonpayable"},{"type":"function","name":"isOwner","inputs":[],"outputs":[{"name":"","type":"bool","internalType":"bool"}],"stateMutability":"view"},{"type":"function","name":"owner","inputs":[],"outputs":[{"name":"","type":"address","internalType":"address"}],"stateMutability":"view"},{"type":"function","name":"sendBNB","inputs":[{"name":"_account","type":"address","internalType":"address"},{"name":"_amount","type":"uint256","internalType":"uint256"}],"outputs":[],"stateMutability":"nonpayable"},{"type":"function","name":"setAddresses","inputs":[{"name":"_borrowerOperationsAddress","type":"address","internalType":"address"},{"name":"_troveManagerAddress","type":"address","internalType":"address"},{"name":"_stabilityPoolAddress","type":"address","internalType":"address"},{"name":"_defaultPoolAddress","type":"address","internalType":"address"}],"outputs":[],"stateMutability":"nonpayable"},{"type":"function","name":"stabilityPoolAddress","inputs":[],"outputs":[{"name":"","type":"address","internalType":"address"}],"stateMutability":"view"},{"type":"function","name":"troveManagerAddress","inputs":[],"outputs":[{"name":"","type":"address","internalType":"address"}],"stateMutability":"view"},{"type":"event","name":"ActivePoolAddressChanged","inputs":[{"name":"_newActivePoolAddress","type":"address","indexed":false,"internalType":"address"}],"anonymous":false},{"type":"event","name":"ActivePoolBNBBalanceUpdated","inputs":[{"name":"_BNB","type":"uint256","indexed":false,"internalType":"uint256"}],"anonymous":false},{"type":"event","name":"ActivePoolUSDSDebtUpdated","inputs":[{"name":"_USDSDebt","type":"uint256","indexed":false,"internalType":"uint256"}],"anonymous":false},{"type":"event","name":"BNBBalanceUpdated","inputs":[{"name":"_newBalance","type":"uint256","indexed":false,"internalType":"uint256"}],"anonymous":false},{"type":"event","name":"BorrowerOperationsAddressChanged","inputs":[{"name":"_newBorrowerOperationsAddress","type":"address","indexed":false,"internalType":"address"}],"anonymous":false},{"type":"event","name":"DefaultPoolAddressChanged","inputs":[{"name":"_newDefaultPoolAddress","type":"address","indexed":false,"internalType":"address"}],"anonymous":false},{"type":"event","name":"EtherSent","inputs":[{"name":"_to","type":"address","indexed":false,"internalType":"address"},{"name":"_amount","type":"uint256","indexed":false,"internalType":"uint256"}],"anonymous":false},{"type":"event","name":"OwnershipTransferred","inputs":[{"name":"previousOwner","type":"address","indexed":true,"internalType":"address"},{"name":"newOwner","type":"address","indexed":true,"internalType":"address"}],"anonymous":false},{"type":"event","name":"StabilityPoolAddressChanged","inputs":[{"name":"_newStabilityPoolAddress","type":"address","indexed":false,"internalType":"address"}],"anonymous":false},{"type":"event","name":"TroveManagerAddressChanged","inputs":[{"name":"_newTroveManagerAddress","type":"address","indexed":false,"internalType":"address"}],"anonymous":false},{"type":"event","name":"USDSBalanceUpdated","inputs":[{"name":"_newBalance","type":"uint256","indexed":false,"internalType":"uint256"}],"anonymous":false}],"bytecode":{"object":"0x608060405234801561001057600080fd5b50600080546001600160a01b0319163390811782556040519091907f8be0079c531659141344cd1fd0a4f28419497f9722a3daafe3b4186f6b6457e0908290a3610b4e8061005f6000396000f3fe6080604052600436106100a65760003560e01c80630b622ab2146100f25780634a945f8d146101235780635227d6a8146101705780635a4d28bb1461019757806378a619de146101ac5780638da5cb5b146101c15780638f32d59b146101d6578063a3f4df7e146101ff578063a569c37014610289578063aac1846f146102c2578063b7f8cf9b146102d7578063cda07294146102ec578063fb3dd0e214610316576100ed565b366100ed576100b3610340565b6005546100c6903463ffffffff6103a016565b60058190556040805191825251600080516020610b228339815191529181900360200190a1005b600080fd5b3480156100fe57600080fd5b506101076103ff565b604080516001600160a01b039092168252519081900360200190f35b34801561012f57600080fd5b5061016e6004803603608081101561014657600080fd5b506001600160a01b03813581169160208101358216916040820135811691606001351661040e565b005b34801561017c57600080fd5b506101856105c7565b60408051918252519081900360200190f35b3480156101a357600080fd5b506101076105cd565b3480156101b857600080fd5b506101856105dc565b3480156101cd57600080fd5b506101076105e2565b3480156101e257600080fd5b506101eb6105f1565b604080519115158252519081900360200190f35b34801561020b57600080fd5b50610214610602565b6040805160208082528351818301528351919283929083019185019080838360005b8381101561024e578181015183820152602001610236565b50505050905090810190601f16801561027b5780820380516001836020036101000a031916815260200191505b509250505060405180910390f35b34801561029557600080fd5b5061016e600480360360408110156102ac57600080fd5b506001600160a01b038135169060200135610628565b3480156102ce57600080fd5b50610107610757565b3480156102e357600080fd5b50610107610766565b3480156102f857600080fd5b5061016e6004803603602081101561030f57600080fd5b5035610775565b34801561032257600080fd5b5061016e6004803603602081101561033957600080fd5b50356107ca565b6001546001600160a01b031633148061036357506004546001600160a01b031633145b61039e5760405162461bcd60e51b8152600401808060200182810382526031815260200180610af16031913960400191505060405180910390fd5b565b6000828201838110156103f8576040805162461bcd60e51b815260206004820152601b60248201527a536166654d6174683a206164646974696f6e206f766572666c6f7760281b604482015290519081900360640190fd5b9392505050565b6003546001600160a01b031681565b6104166105f1565b610467576040805162461bcd60e51b815260206004820181905260248201527f4f776e61626c653a2063616c6c6572206973206e6f7420746865206f776e6572604482015290519081900360640190fd5b610470846107e5565b610479836107e5565b610482826107e5565b61048b816107e5565b600180546001600160a01b038087166001600160a01b031992831681179093556002805487831690841617905560038054868316908416179055600480549185169190921617905560408051918252517f3ca631ffcd2a9b5d9ae18543fc82f58eb4ca33af9e6ab01b7a8e95331e6ed9859181900360200190a1604080516001600160a01b038516815290517f143219c9e69b09e07e095fcc889b43d8f46ca892bba65f08dc3a0050869a56789181900360200190a1604080516001600160a01b038416815290517f82966d27eea39b038ee0fa30cd16532bb24f6e65d31cb58fb227aa5766cdcc7f9181900360200190a1604080516001600160a01b038316815290517f5ee0cae2f063ed938bb55046f6a932fb6ae792bf43624806bb90abe68a50be9b9181900360200190a16105c1610868565b50505050565b60065490565b6002546001600160a01b031681565b60055490565b6000546001600160a01b031690565b6000546001600160a01b0316331490565b6040518060400160405280600a8152602001691058dd1a5d99541bdbdb60b21b81525081565b6106306108b2565b600554610643908263ffffffff61092516565b60058190556040805191825251600080516020610b228339815191529181900360200190a1604080516001600160a01b03841681526020810183905281517f6109e2559dfa766aaec7118351d48a523f0a4157f49c8d68749c8ac41318ad12929181900390910190a16040516000906001600160a01b0384169083908381818185875af1925050503d80600081146106f7576040519150601f19603f3d011682016040523d82523d6000602084013e6106fc565b606091505b5050905080610752576040805162461bcd60e51b815260206004820152601e60248201527f416374697665506f6f6c3a2073656e64696e6720424e42206661696c65640000604482015290519081900360640190fd5b505050565b6004546001600160a01b031681565b6001546001600160a01b031681565b61077d610967565b600654610790908263ffffffff6103a016565b600681905560408051918252517fbc398e39069a80a89956f6a20ec917435b7edcf07e2be1a9ac3a27b39dfcb8df9181900360200190a150565b6107d26108b2565b600654610790908263ffffffff61092516565b6001600160a01b038116610828576040805162461bcd60e51b81526020600482015260056024820152641830b2323960d91b604482015290519081900360640190fd5b803b80610864576040805162461bcd60e51b815260206004820152600560248201526430636f646560d81b604482015290519081900360640190fd5b5050565b600080546040516001600160a01b03909116907f8be0079c531659141344cd1fd0a4f28419497f9722a3daafe3b4186f6b6457e0908390a3600080546001600160a01b0319169055565b6001546001600160a01b03163314806108d557506002546001600160a01b031633145b806108ea57506003546001600160a01b031633145b61039e5760405162461bcd60e51b8152600401808060200182810382526053815260200180610a9e6053913960600191505060405180910390fd5b60006103f883836040518060400160405280601e81526020017f536166654d6174683a207375627472616374696f6e206f766572666c6f7700008152506109c5565b6001546001600160a01b031633148061098a57506002546001600160a01b031633145b61039e5760405162461bcd60e51b8152600401808060200182810382526041815260200180610a5d6041913960600191505060405180910390fd5b60008184841115610a545760405162461bcd60e51b81526004018080602001828103825283818151815260200191508051906020019080838360005b83811015610a19578181015183820152602001610a01565b50505050905090810190601f168015610a465780820380516001836020036101000a031916815260200191505b509250505060405180910390fd5b50505090039056fe416374697665506f6f6c3a2043616c6c6572206973206e65697468657220426f72726f7765724f7065726174696f6e73206e6f722054726f76654d616e61676572416374697665506f6f6c3a2043616c6c6572206973206e65697468657220426f72726f7765724f7065726174696f6e73206e6f722054726f76654d616e61676572206e6f722053746162696c697479506f6f6c416374697665506f6f6c3a2043616c6c6572206973206e65697468657220424f206e6f722044656661756c7420506f6f6c5dd47c142c5e2369f88079cbf010bd26b721065bf43cc3a482ebbd54697ce230a164736f6c634300060b000a","linkReferences":{}},"methodIdentifiers":{"NAME()":"a3f4df7e","borrowerOperationsAddress()":"b7f8cf9b","decreaseUSDSDebt(uint256)":"fb3dd0e2","defaultPoolAddress()":"aac1846f","getBNB()":"78a619de","getUSDSDebt()":"5227d6a8","increaseUSDSDebt(uint256)":"cda07294","isOwner()":"8f32d59b","owner()":"8da5cb5b","sendBNB(address,uint256)":"a569c370","setAddresses(address,address,address,address)":"4a945f8d","stabilityPoolAddress()":"0b622ab2","troveManagerAddress()":"5a4d28bb"},"id":4}