{"abi":[{"type":"function","name":"DECIMAL_PRECISION","inputs":[],"outputs":[{"name":"","type":"uint256","internalType":"uint256"}],"stateMutability":"view"}],"bytecode":{"object":"0x6080604052348015600f57600080fd5b50605e8061001e6000396000f3fe6080604052348015600f57600080fd5b506004361060285760003560e01c8063a20baee614602d575b600080fd5b60336045565b60408051918252519081900360200190f35b670de0b6b3a76400008156fea164736f6c634300060b000a","linkReferences":{}},"deployedBytecode":{"object":"0x6080604052348015600f57600080fd5b506004361060285760003560e01c8063a20baee614602d575b600080fd5b60336045565b60408051918252519081900360200190f35b670de0b6b3a76400008156fea164736f6c634300060b000a","linkReferences":{}},"methodIdentifiers":{"DECIMAL_PRECISION()":"a20baee6"},"storageLayout":{"storage":[],"types":{}},"id":0}