{"abi":[{"type":"receive","stateMutability":"payable"},{"type":"function","name":"NAME","inputs":[],"outputs":[{"name":"","type":"string","internalType":"string"}],"stateMutability":"view"},{"type":"function","name":"activePoolAddress","inputs":[],"outputs":[{"name":"","type":"address","internalType":"address"}],"stateMutability":"view"},{"type":"function","name":"decreaseUSDSDebt","inputs":[{"name":"_amount","type":"uint256","internalType":"uint256"}],"outputs":[],"stateMutability":"nonpayable"},{"type":"function","name":"getBNB","inputs":[],"outputs":[{"name":"","type":"uint256","internalType":"uint256"}],"stateMutability":"view"},{"type":"function","name":"getUSDSDebt","inputs":[],"outputs":[{"name":"","type":"uint256","internalType":"uint256"}],"stateMutability":"view"},{"type":"function","name":"increaseUSDSDebt","inputs":[{"name":"_amount","type":"uint256","internalType":"uint256"}],"outputs":[],"stateMutability":"nonpayable"},{"type":"function","name":"isOwner","inputs":[],"outputs":[{"name":"","type":"bool","internalType":"bool"}],"stateMutability":"view"},{"type":"function","name":"owner","inputs":[],"outputs":[{"name":"","type":"address","internalType":"address"}],"stateMutability":"view"},{"type":"function","name":"sendBNBToActivePool","inputs":[{"name":"_amount","type":"uint256","internalType":"uint256"}],"outputs":[],"stateMutability":"nonpayable"},{"type":"function","name":"setAddresses","inputs":[{"name":"_troveManagerAddress","type":"address","internalType":"address"},{"name":"_activePoolAddress","type":"address","internalType":"address"}],"outputs":[],"stateMutability":"nonpayable"},{"type":"function","name":"troveManagerAddress","inputs":[],"outputs":[{"name":"","type":"address","internalType":"address"}],"stateMutability":"view"},{"type":"function","name":"unprotectedIncreaseUSDSDebt","inputs":[{"name":"_amount","type":"uint256","internalType":"uint256"}],"outputs":[],"stateMutability":"nonpayable"},{"type":"function","name":"unprotectedPayable","inputs":[],"outputs":[],"stateMutability":"payable"},{"type":"event","name":"ActivePoolAddressChanged","inputs":[{"name":"_newActivePoolAddress","type":"address","indexed":false,"internalType":"address"}],"anonymous":false},{"type":"event","name":"BNBBalanceUpdated","inputs":[{"name":"_newBalance","type":"uint256","indexed":false,"internalType":"uint256"}],"anonymous":false},{"type":"event","name":"DefaultPoolAddressChanged","inputs":[{"name":"_newDefaultPoolAddress","type":"address","indexed":false,"internalType":"address"}],"anonymous":false},{"type":"event","name":"DefaultPoolBNBBalanceUpdated","inputs":[{"name":"_BNB","type":"uint256","indexed":false,"internalType":"uint256"}],"anonymous":false},{"type":"event","name":"DefaultPoolUSDSDebtUpdated","inputs":[{"name":"_USDSDebt","type":"uint256","indexed":false,"internalType":"uint256"}],"anonymous":false},{"type":"event","name":"EtherSent","inputs":[{"name":"_to","type":"address","indexed":false,"internalType":"address"},{"name":"_amount","type":"uint256","indexed":false,"internalType":"uint256"}],"anonymous":false},{"type":"event","name":"OwnershipTransferred","inputs":[{"name":"previousOwner","type":"address","indexed":true,"internalType":"address"},{"name":"newOwner","type":"address","indexed":true,"internalType":"address"}],"anonymous":false},{"type":"event","name":"StabilityPoolAddressChanged","inputs":[{"name":"_newStabilityPoolAddress","type":"address","indexed":false,"internalType":"address"}],"anonymous":false},{"type":"event","name":"TroveManagerAddressChanged","inputs":[{"name":"_newTroveManagerAddress","type":"address","indexed":false,"internalType":"address"}],"anonymous":false},{"type":"event","name":"USDSBalanceUpdated","inputs":[{"name":"_newBalance","type":"uint256","indexed":false,"internalType":"uint256"}],"anonymous":false}],"bytecode":{"object":"0x608060405234801561001057600080fd5b50600080546001600160a01b0319163390811782556040519091907f8be0079c531659141344cd1fd0a4f28419497f9722a3daafe3b4186f6b6457e0908290a36109a28061005f6000396000f3fe6080604052600436106100a65760003560e01c806306fc5daf146100f257806312b00d661461011e5780635227d6a8146101485780635a4d28bb1461016f57806378a619de146101a05780638da5cb5b146101b55780638f32d59b146101ca57806390107afe146101f3578063a3f4df7e1461022e578063b08bc722146102b8578063cda07294146102cd578063f3af7c3b146102f7578063fb3dd0e2146102ff576100ed565b366100ed576100b3610329565b6003546100c6903463ffffffff61037416565b6003819055604080519182525160008051602061094b8339815191529181900360200190a1005b600080fd5b3480156100fe57600080fd5b5061011c6004803603602081101561011557600080fd5b50356103d3565b005b34801561012a57600080fd5b5061011c6004803603602081101561014157600080fd5b5035610511565b34801561015457600080fd5b5061015d61052a565b60408051918252519081900360200190f35b34801561017b57600080fd5b50610184610530565b604080516001600160a01b039092168252519081900360200190f35b3480156101ac57600080fd5b5061015d61053f565b3480156101c157600080fd5b50610184610545565b3480156101d657600080fd5b506101df610554565b604080519115158252519081900360200190f35b3480156101ff57600080fd5b5061011c6004803603604081101561021657600080fd5b506001600160a01b0381358116916020013516610565565b34801561023a57600080fd5b50610243610678565b6040805160208082528351818301528351919283929083019185019080838360005b8381101561027d578181015183820152602001610265565b50505050905090810190601f1680156102aa5780820380516001836020036101000a031916815260200191505b509250505060405180910390f35b3480156102c457600080fd5b5061018461069f565b3480156102d957600080fd5b5061011c600480360360208110156102f057600080fd5b50356106ae565b61011c610703565b34801561030b57600080fd5b5061011c6004803603602081101561032257600080fd5b503561071b565b6002546001600160a01b031633146103725760405162461bcd60e51b81526004018080602001828103825260298152602001806109226029913960400191505060405180910390fd5b565b6000828201838110156103cc576040805162461bcd60e51b815260206004820152601b60248201527a536166654d6174683a206164646974696f6e206f766572666c6f7760281b604482015290519081900360640190fd5b9392505050565b6103db610736565b6002546003546001600160a01b03909116906103fd908363ffffffff61077f16565b6003819055604080519182525160008051602061094b8339815191529181900360200190a1604080516001600160a01b03831681526020810184905281517f6109e2559dfa766aaec7118351d48a523f0a4157f49c8d68749c8ac41318ad12929181900390910190a16040516000906001600160a01b0383169084908381818185875af1925050503d80600081146104b1576040519150601f19603f3d011682016040523d82523d6000602084013e6104b6565b606091505b505090508061050c576040805162461bcd60e51b815260206004820152601f60248201527f44656661756c74506f6f6c3a2073656e64696e6720424e42206661696c656400604482015290519081900360640190fd5b505050565b600454610524908263ffffffff61037416565b60045550565b60045490565b6001546001600160a01b031681565b60035490565b6000546001600160a01b031690565b6000546001600160a01b0316331490565b61056d610554565b6105be576040805162461bcd60e51b815260206004820181905260248201527f4f776e61626c653a2063616c6c6572206973206e6f7420746865206f776e6572604482015290519081900360640190fd5b6105c7826107c1565b6105d0816107c1565b600180546001600160a01b038085166001600160a01b03199283168117909355600280549185169190921617905560408051918252517f143219c9e69b09e07e095fcc889b43d8f46ca892bba65f08dc3a0050869a56789181900360200190a1604080516001600160a01b038316815290517f78f058b189175430c48dc02699e3a0031ea4ff781536dc2fab847de4babdd8829181900360200190a1610674610840565b5050565b6040518060400160405280600b81526020016a111959985d5b1d141bdbdb60aa1b81525081565b6002546001600160a01b031681565b6106b6610736565b6004546106c9908263ffffffff61037416565b600481905560408051918252517f9428422e3efdda387dc314f3fbe5f88b0a4493ea2d54864fcb1d9d444367ef2d9181900360200190a150565b600354610716903463ffffffff61037416565b600355565b610723610736565b6004546106c9908263ffffffff61077f16565b6001546001600160a01b031633146103725760405162461bcd60e51b815260040180806020018281038252602b81526020018061096b602b913960400191505060405180910390fd5b60006103cc83836040518060400160405280601e81526020017f536166654d6174683a207375627472616374696f6e206f766572666c6f77000081525061088a565b6001600160a01b038116610804576040805162461bcd60e51b81526020600482015260056024820152641830b2323960d91b604482015290519081900360640190fd5b803b80610674576040805162461bcd60e51b815260206004820152600560248201526430636f646560d81b604482015290519081900360640190fd5b600080546040516001600160a01b03909116907f8be0079c531659141344cd1fd0a4f28419497f9722a3daafe3b4186f6b6457e0908390a3600080546001600160a01b0319169055565b600081848411156109195760405162461bcd60e51b81526004018080602001828103825283818151815260200191508051906020019080838360005b838110156108de5781810151838201526020016108c6565b50505050905090810190601f16801561090b5780820380516001836020036101000a031916815260200191505b509250505060405180910390fd5b50505090039056fe44656661756c74506f6f6c3a2043616c6c6572206973206e6f742074686520416374697665506f6f6c27ae709ad75e8d69a904ad98b784a5b900c949599a52380a7d6d6663c5528bc244656661756c74506f6f6c3a2043616c6c6572206973206e6f74207468652054726f76654d616e61676572a164736f6c634300060b000a","linkReferences":{}},"methodIdentifiers":{"NAME()":"a3f4df7e","activePoolAddress()":"b08bc722","decreaseUSDSDebt(uint256)":"fb3dd0e2","getBNB()":"78a619de","getUSDSDebt()":"5227d6a8","increaseUSDSDebt(uint256)":"cda07294","isOwner()":"8f32d59b","owner()":"8da5cb5b","sendBNBToActivePool(uint256)":"06fc5daf","setAddresses(address,address)":"90107afe","troveManagerAddress()":"5a4d28bb","unprotectedIncreaseUSDSDebt(uint256)":"12b00d66","unprotectedPayable()":"f3af7c3b"},"id":81}