{"abi":[{"type":"constructor","inputs":[{"name":"_borrowerOperations","type":"address","internalType":"contract IBorrowerOperations"}],"stateMutability":"nonpayable"},{"type":"function","name":"addColl","inputs":[{"name":"_upperHint","type":"address","internalType":"address"},{"name":"_lowerHint","type":"address","internalType":"address"},{"name":"priceFeedUpdateData","type":"bytes[]","internalType":"bytes[]"}],"outputs":[],"stateMutability":"payable"},{"type":"function","name":"adjustTrove","inputs":[{"name":"adjustParam","type":"tuple","internalType":"struct IBorrowerOperations.AdjustTroveParam","components":[{"name":"collWithdrawal","type":"uint256","internalType":"uint256"},{"name":"USDSChange","type":"uint256","internalType":"uint256"},{"name":"isDebtIncrease","type":"bool","internalType":"bool"},{"name":"upperHint","type":"address","internalType":"address"},{"name":"lowerHint","type":"address","internalType":"address"},{"name":"maxFeePercentage","type":"uint256","internalType":"uint256"}]},{"name":"priceFeedUpdateData","type":"bytes[]","internalType":"bytes[]"}],"outputs":[],"stateMutability":"payable"},{"type":"function","name":"claimCollateral","inputs":[],"outputs":[],"stateMutability":"nonpayable"},{"type":"function","name":"closeTrove","inputs":[{"name":"priceFeedUpdateData","type":"bytes[]","internalType":"bytes[]"}],"outputs":[],"stateMutability":"nonpayable"},{"type":"function","name":"openTrove","inputs":[{"name":"_maxFee","type":"uint256","internalType":"uint256"},{"name":"_USDSAmount","type":"uint256","internalType":"uint256"},{"name":"_upperHint","type":"address","internalType":"address"},{"name":"_lowerHint","type":"address","internalType":"address"},{"name":"priceFeedUpdateData","type":"bytes[]","internalType":"bytes[]"}],"outputs":[],"stateMutability":"payable"},{"type":"function","name":"repayUSDS","inputs":[{"name":"_amount","type":"uint256","internalType":"uint256"},{"name":"_upperHint","type":"address","internalType":"address"},{"name":"_lowerHint","type":"address","internalType":"address"},{"name":"priceFeedUpdateData","type":"bytes[]","internalType":"bytes[]"}],"outputs":[],"stateMutability":"nonpayable"},{"type":"function","name":"withdrawColl","inputs":[{"name":"_amount","type":"uint256","internalType":"uint256"},{"name":"_upperHint","type":"address","internalType":"address"},{"name":"_lowerHint","type":"address","internalType":"address"},{"name":"priceFeedUpdateData","type":"bytes[]","internalType":"bytes[]"}],"outputs":[],"stateMutability":"nonpayable"},{"type":"function","name":"withdrawUSDS","inputs":[{"name":"_maxFee","type":"uint256","internalType":"uint256"},{"name":"_amount","type":"uint256","internalType":"uint256"},{"name":"_upperHint","type":"address","internalType":"address"},{"name":"_lowerHint","type":"address","internalType":"address"},{"name":"priceFeedUpdateData","type":"bytes[]","internalType":"bytes[]"}],"outputs":[],"stateMutability":"nonpayable"}],"bytecode":{"object":"0x60a060405234801561001057600080fd5b50604051610b70380380610b7083398101604081905261002f916100a8565b610041816001600160e01b0361005616565b60601b6001600160601b031916608052610114565b6001600160a01b0381166100855760405162461bcd60e51b815260040161007c906100d6565b60405180910390fd5b803b806100a45760405162461bcd60e51b815260040161007c906100f5565b5050565b6000602082840312156100b9578081fd5b81516001600160a01b03811681146100cf578182fd5b9392505050565b6020808252600590820152641830b2323960d91b604082015260600190565b60208082526005908201526430636f646560d81b604082015260600190565b60805160601c610a1c6101546000398061015752806101e3528061023c52806102c6528061034f52806103df528061046352806104f55250610a1c6000f3fe60806040526004361061006b5760003560e01c80631e503ead146100705780632322cd68146100855780636f0b0c1c146100a5578063739987d7146100ba578063b120dbd4146100cd578063df9bf27a146100ed578063e129d8e01461010d578063f1f3097414610120575b600080fd5b61008361007e3660046105a7565b610140565b005b34801561009157600080fd5b506100836100a03660046106f4565b6101cc565b3480156100b157600080fd5b5061008361023a565b6100836100c8366004610646565b6102af565b3480156100d957600080fd5b506100836100e8366004610764565b610338565b3480156100f957600080fd5b50610083610108366004610607565b6103c8565b61008361011b366004610764565b61044c565b34801561012c57600080fd5b5061008361013b3660046106f4565b6104de565b604051631e503ead60e01b81526001600160a01b037f00000000000000000000000000000000000000000000000000000000000000001690631e503ead903490610194908890889088908890600401610894565b6000604051808303818588803b1580156101ad57600080fd5b505af11580156101c1573d6000803e3d6000fd5b505050505050505050565b60405163046459ad60e31b81526001600160a01b037f00000000000000000000000000000000000000000000000000000000000000001690632322cd6890610220908890889088908890889060040161094d565b600060405180830381600087803b1580156101ad57600080fd5b7f00000000000000000000000000000000000000000000000000000000000000006001600160a01b0316636f0b0c1c6040518163ffffffff1660e01b8152600401600060405180830381600087803b15801561029557600080fd5b505af11580156102a9573d6000803e3d6000fd5b50505050565b60405163739987d760e01b81526001600160a01b037f0000000000000000000000000000000000000000000000000000000000000000169063739987d7903490610301908790879087906004016108e7565b6000604051808303818588803b15801561031a57600080fd5b505af115801561032e573d6000803e3d6000fd5b5050505050505050565b604051632c4836f560e21b81526001600160a01b037f0000000000000000000000000000000000000000000000000000000000000000169063b120dbd49061038e9089908990899089908990899060040161098b565b600060405180830381600087803b1580156103a857600080fd5b505af11580156103bc573d6000803e3d6000fd5b50505050505050505050565b604051636fcdf93d60e11b81526001600160a01b037f0000000000000000000000000000000000000000000000000000000000000000169063df9bf27a9061041690859085906004016108cb565b600060405180830381600087803b15801561043057600080fd5b505af1158015610444573d6000803e3d6000fd5b505050505050565b6040516307094ec760e51b81526001600160a01b037f0000000000000000000000000000000000000000000000000000000000000000169063e129d8e09034906104a4908a908a908a908a908a908a9060040161098b565b6000604051808303818588803b1580156104bd57600080fd5b505af11580156104d1573d6000803e3d6000fd5b5050505050505050505050565b604051633c7cc25d60e21b81526001600160a01b037f0000000000000000000000000000000000000000000000000000000000000000169063f1f3097490610220908890889088908890889060040161094d565b80356001600160a01b038116811461054957600080fd5b92915050565b60008083601f840112610560578182fd5b5081356001600160401b03811115610576578182fd5b602083019150836020808302850101111561059057600080fd5b9250929050565b8035801515811461054957600080fd5b600080600080606085870312156105bc578384fd5b6105c68686610532565b93506105d58660208701610532565b925060408501356001600160401b038111156105ef578283fd5b6105fb8782880161054f565b95989497509550505050565b60008060208385031215610619578182fd5b82356001600160401b0381111561062e578283fd5b61063a8582860161054f565b90969095509350505050565b600080600083850360e081121561065b578384fd5b60c0811215610668578384fd5b5061067360c06109d1565b843581526020850135602082015261068e8660408701610597565b60408201526106a08660608701610532565b60608201526106b28660808701610532565b608082015260a08581013590820152925060c08401356001600160401b038111156106db578283fd5b6106e78682870161054f565b9497909650939450505050565b60008060008060006080868803121561070b578081fd5b85359450602086013561071d816109f7565b9350604086013561072d816109f7565b925060608601356001600160401b03811115610747578182fd5b6107538882890161054f565b969995985093965092949392505050565b60008060008060008060a0878903121561077c578081fd5b86359550602087013594506107948860408901610532565b93506107a38860608901610532565b925060808701356001600160401b038111156107bd578182fd5b6107c989828a0161054f565b979a9699509497509295939492505050565b8183526020808401936000918085028201810184845b8781101561085d57848303601f19018952813536889003601e19018112610816578687fd5b87018035906001600160401b0382111561082e578788fd5b81360389131561083c578788fd5b610849858388840161086a565b9a86019a94505050908301906001016107f1565b5090979650505050505050565b60008284528282602086013780602084860101526020601f19601f85011685010190509392505050565b6001600160a01b038581168252841660208201526060604082018190526000906108c190830184866107db565b9695505050505050565b6000602082526108df6020830184866107db565b949350505050565b60008451825260208501516020830152604085015115156040830152606085015160018060a01b038082166060850152806080880151166080850152505060a085015160a083015260e060c083015261094460e0830184866107db565b95945050505050565b8581526001600160a01b0385811660208301528416604082015260806060820181905260009061098090830184866107db565b979650505050505050565b868152602081018690526001600160a01b0385811660408301528416606082015260a0608082018190526000906109c590830184866107db565b98975050505050505050565b6040518181016001600160401b03811182821017156109ef57600080fd5b604052919050565b6001600160a01b0381168114610a0c57600080fd5b5056fea164736f6c634300060b000a","linkReferences":{}},"methodIdentifiers":{"addColl(address,address,bytes[])":"1e503ead","adjustTrove((uint256,uint256,bool,address,address,uint256),bytes[])":"739987d7","claimCollateral()":"6f0b0c1c","closeTrove(bytes[])":"df9bf27a","openTrove(uint256,uint256,address,address,bytes[])":"e129d8e0","repayUSDS(uint256,address,address,bytes[])":"2322cd68","withdrawColl(uint256,address,address,bytes[])":"f1f30974","withdrawUSDS(uint256,uint256,address,address,bytes[])":"b120dbd4"},"id":63}