{"abi":[{"type":"function","name":"priceFeedAddress","inputs":[],"outputs":[{"name":"","type":"address","internalType":"address"}],"stateMutability":"view"},{"type":"function","name":"setPriceFeedAddress","inputs":[{"name":"_priceFeedAddress","type":"address","internalType":"address"}],"outputs":[],"stateMutability":"nonpayable"},{"type":"function","name":"setSortedTrovesAddress","inputs":[{"name":"_sortedTrovesAddress","type":"address","internalType":"address"}],"outputs":[],"stateMutability":"nonpayable"},{"type":"function","name":"setTroveManagerAddress","inputs":[{"name":"_troveManagerAddress","type":"address","internalType":"address"}],"outputs":[],"stateMutability":"nonpayable"},{"type":"function","name":"sortedTrovesAddress","inputs":[],"outputs":[{"name":"","type":"address","internalType":"address"}],"stateMutability":"view"},{"type":"function","name":"sortedTroves_findInsertPosition","inputs":[{"name":"_NICR","type":"uint256","internalType":"uint256"},{"name":"_prevId","type":"address","internalType":"address"},{"name":"_nextId","type":"address","internalType":"address"}],"outputs":[{"name":"","type":"address","internalType":"address"},{"name":"","type":"address","internalType":"address"}],"stateMutability":"nonpayable"},{"type":"function","name":"troveManagerAddress","inputs":[],"outputs":[{"name":"","type":"address","internalType":"address"}],"stateMutability":"view"},{"type":"function","name":"troveManager_getCurrentICR","inputs":[{"name":"_address","type":"address","internalType":"address"},{"name":"_price","type":"uint256","internalType":"uint256"}],"outputs":[{"name":"","type":"uint256","internalType":"uint256"}],"stateMutability":"nonpayable"}],"bytecode":{"object":"0x608060405234801561001057600080fd5b5061039d806100206000396000f3fe608060405234801561001057600080fd5b50600436106100775760003560e01c8062cf5db41461007c5780632caffa81146100a45780635a4d28bb146100c8578063a06dec71146100d0578063ced2027c146100f6578063dcc6710f1461011c578063e0abca0b14610176578063f4f9e5461461017e575b600080fd5b6100a26004803603602081101561009257600080fd5b50356001600160a01b03166101bc565b005b6100ac6101e8565b604080516001600160a01b039092168252519081900360200190f35b6100ac6101f7565b6100a2600480360360208110156100e657600080fd5b50356001600160a01b0316610206565b6100a26004803603602081101561010c57600080fd5b50356001600160a01b0316610232565b6101506004803603606081101561013257600080fd5b508035906001600160a01b036020820135811691604001351661025e565b604080516001600160a01b03938416815291909216602082015281519081900390910190f35b6100ac6102f9565b6101aa6004803603604081101561019457600080fd5b506001600160a01b038135169060200135610308565b60408051918252519081900360200190f35b600580546001600160a01b039092166001600160a01b0319928316811790915560048054909216179055565b6003546001600160a01b031681565b6001546001600160a01b031681565b600180546001600160a01b039092166001600160a01b0319928316811790915560028054909216179055565b600180546001600160a01b039092166001600160a01b0319928316811790915560008054909216179055565b6002546040805163105a603760e21b8152600481018690526001600160a01b03858116602483015284811660448301528251600094859492169263416980dc926064808301939192829003018186803b1580156102ba57600080fd5b505afa1580156102ce573d6000803e3d6000fd5b505050506040513d60408110156102e457600080fd5b50805160209091015190969095509350505050565b6005546001600160a01b031681565b6000805460408051630d293c7160e41b81526001600160a01b038681166004830152602482018690529151919092169163d293c710916044808301926020929190829003018186803b15801561035d57600080fd5b505afa158015610371573d6000803e3d6000fd5b505050506040513d602081101561038757600080fd5b5051939250505056fea164736f6c634300060b000a","linkReferences":{}},"methodIdentifiers":{"priceFeedAddress()":"e0abca0b","setPriceFeedAddress(address)":"00cf5db4","setSortedTrovesAddress(address)":"a06dec71","setTroveManagerAddress(address)":"ced2027c","sortedTrovesAddress()":"2caffa81","sortedTroves_findInsertPosition(uint256,address,address)":"dcc6710f","troveManagerAddress()":"5a4d28bb","troveManager_getCurrentICR(address,uint256)":"f4f9e546"},"id":84}