{"abi":[{"type":"receive","stateMutability":"payable"},{"type":"function","name":"DECIMAL_PRECISION","inputs":[],"outputs":[{"name":"","type":"uint256","internalType":"uint256"}],"stateMutability":"view"},{"type":"function","name":"F_BNB","inputs":[],"outputs":[{"name":"","type":"uint256","internalType":"uint256"}],"stateMutability":"view"},{"type":"function","name":"F_SABLE","inputs":[],"outputs":[{"name":"","type":"uint256","internalType":"uint256"}],"stateMutability":"view"},{"type":"function","name":"F_USDS","inputs":[],"outputs":[{"name":"","type":"uint256","internalType":"uint256"}],"stateMutability":"view"},{"type":"function","name":"NAME","inputs":[],"outputs":[{"name":"","type":"string","internalType":"string"}],"stateMutability":"view"},{"type":"function","name":"activePoolAddress","inputs":[],"outputs":[{"name":"","type":"address","internalType":"address"}],"stateMutability":"view"},{"type":"function","name":"borrowerOperationsAddress","inputs":[],"outputs":[{"name":"","type":"address","internalType":"address"}],"stateMutability":"view"},{"type":"function","name":"getPendingBNBGain","inputs":[{"name":"_user","type":"address","internalType":"address"}],"outputs":[{"name":"","type":"uint256","internalType":"uint256"}],"stateMutability":"view"},{"type":"function","name":"getPendingSABLEGain","inputs":[{"name":"_user","type":"address","internalType":"address"}],"outputs":[{"name":"","type":"uint256","internalType":"uint256"}],"stateMutability":"view"},{"type":"function","name":"getPendingUSDSGain","inputs":[{"name":"_user","type":"address","internalType":"address"}],"outputs":[{"name":"","type":"uint256","internalType":"uint256"}],"stateMutability":"view"},{"type":"function","name":"increaseF_BNB","inputs":[{"name":"_BNBFee","type":"uint256","internalType":"uint256"}],"outputs":[],"stateMutability":"nonpayable"},{"type":"function","name":"increaseF_SABLE","inputs":[{"name":"_SABLEGain","type":"uint256","internalType":"uint256"}],"outputs":[],"stateMutability":"nonpayable"},{"type":"function","name":"increaseF_USDS","inputs":[{"name":"_USDSFee","type":"uint256","internalType":"uint256"}],"outputs":[],"stateMutability":"nonpayable"},{"type":"function","name":"initialized","inputs":[],"outputs":[{"name":"","type":"bool","internalType":"bool"}],"stateMutability":"view"},{"type":"function","name":"isOwner","inputs":[],"outputs":[{"name":"","type":"bool","internalType":"bool"}],"stateMutability":"view"},{"type":"function","name":"owner","inputs":[],"outputs":[{"name":"","type":"address","internalType":"address"}],"stateMutability":"view"},{"type":"function","name":"renounceOwnership","inputs":[],"outputs":[],"stateMutability":"nonpayable"},{"type":"function","name":"sableLPToken","inputs":[],"outputs":[{"name":"","type":"address","internalType":"contract ISableLPToken"}],"stateMutability":"view"},{"type":"function","name":"sableRewarder","inputs":[],"outputs":[{"name":"","type":"address","internalType":"contract ISableRewarder"}],"stateMutability":"view"},{"type":"function","name":"sableRewarderAddress","inputs":[],"outputs":[{"name":"","type":"address","internalType":"address"}],"stateMutability":"view"},{"type":"function","name":"sableToken","inputs":[],"outputs":[{"name":"","type":"address","internalType":"contract ISABLEToken"}],"stateMutability":"view"},{"type":"function","name":"setAddresses","inputs":[{"name":"_sableTokenAddress","type":"address","internalType":"address"},{"name":"_usdsTokenAddress","type":"address","internalType":"address"},{"name":"_troveManagerAddress","type":"address","internalType":"address"},{"name":"_borrowerOperationsAddress","type":"address","internalType":"address"},{"name":"_sableRewarderAddress","type":"address","internalType":"address"},{"name":"_activePoolAddress","type":"address","internalType":"address"}],"outputs":[],"stateMutability":"nonpayable"},{"type":"function","name":"setSableLPAddress","inputs":[{"name":"_sableLPTokenAddress","type":"address","internalType":"address"}],"outputs":[],"stateMutability":"nonpayable"},{"type":"function","name":"snapshots","inputs":[{"name":"","type":"address","internalType":"address"}],"outputs":[{"name":"F_BNB_Snapshot","type":"uint256","internalType":"uint256"},{"name":"F_USDS_Snapshot","type":"uint256","internalType":"uint256"},{"name":"F_SABLE_Snapshot","type":"uint256","internalType":"uint256"}],"stateMutability":"view"},{"type":"function","name":"stake","inputs":[{"name":"_sableLPAmount","type":"uint256","internalType":"uint256"}],"outputs":[],"stateMutability":"nonpayable"},{"type":"function","name":"stakes","inputs":[{"name":"","type":"address","internalType":"address"}],"outputs":[{"name":"","type":"uint256","internalType":"uint256"}],"stateMutability":"view"},{"type":"function","name":"totalSableLPStaked","inputs":[],"outputs":[{"name":"","type":"uint256","internalType":"uint256"}],"stateMutability":"view"},{"type":"function","name":"troveManagerAddress","inputs":[],"outputs":[{"name":"","type":"address","internalType":"address"}],"stateMutability":"view"},{"type":"function","name":"unstake","inputs":[{"name":"_sableLPAmount","type":"uint256","internalType":"uint256"}],"outputs":[],"stateMutability":"nonpayable"},{"type":"function","name":"usdsToken","inputs":[],"outputs":[{"name":"","type":"address","internalType":"contract IUSDSToken"}],"stateMutability":"view"},{"type":"event","name":"ActivePoolAddressSet","inputs":[{"name":"_activePoolAddress","type":"address","indexed":false,"internalType":"address"}],"anonymous":false},{"type":"event","name":"BorrowerOperationsAddressSet","inputs":[{"name":"_borrowerOperationsAddress","type":"address","indexed":false,"internalType":"address"}],"anonymous":false},{"type":"event","name":"EtherSent","inputs":[{"name":"_account","type":"address","indexed":false,"internalType":"address"},{"name":"_amount","type":"uint256","indexed":false,"internalType":"uint256"}],"anonymous":false},{"type":"event","name":"F_BNBUpdated","inputs":[{"name":"_F_BNB","type":"uint256","indexed":false,"internalType":"uint256"}],"anonymous":false},{"type":"event","name":"F_SABLEUpdated","inputs":[{"name":"_F_SABLE","type":"uint256","indexed":false,"internalType":"uint256"}],"anonymous":false},{"type":"event","name":"F_USDSUpdated","inputs":[{"name":"_F_USDS","type":"uint256","indexed":false,"internalType":"uint256"}],"anonymous":false},{"type":"event","name":"OwnershipTransferred","inputs":[{"name":"previousOwner","type":"address","indexed":true,"internalType":"address"},{"name":"newOwner","type":"address","indexed":true,"internalType":"address"}],"anonymous":false},{"type":"event","name":"SABLETokenAddressSet","inputs":[{"name":"_sableTokenAddress","type":"address","indexed":false,"internalType":"address"}],"anonymous":false},{"type":"event","name":"SableLPTokenAddressSet","inputs":[{"name":"_sableLPTokenAddress","type":"address","indexed":false,"internalType":"address"}],"anonymous":false},{"type":"event","name":"SableRewarderAddressSet","inputs":[{"name":"_sableRewarderAddress","type":"address","indexed":false,"internalType":"address"}],"anonymous":false},{"type":"event","name":"StakeChanged","inputs":[{"name":"staker","type":"address","indexed":true,"internalType":"address"},{"name":"newStake","type":"uint256","indexed":false,"internalType":"uint256"}],"anonymous":false},{"type":"event","name":"StakerSnapshotsUpdated","inputs":[{"name":"_staker","type":"address","indexed":false,"internalType":"address"},{"name":"_F_BNB","type":"uint256","indexed":false,"internalType":"uint256"},{"name":"_F_USDS","type":"uint256","indexed":false,"internalType":"uint256"},{"name":"_F_SABLE","type":"uint256","indexed":false,"internalType":"uint256"}],"anonymous":false},{"type":"event","name":"StakingGainsWithdrawn","inputs":[{"name":"staker","type":"address","indexed":true,"internalType":"address"},{"name":"USDSGain","type":"uint256","indexed":false,"internalType":"uint256"},{"name":"BNBGain","type":"uint256","indexed":false,"internalType":"uint256"},{"name":"SABLEGain","type":"uint256","indexed":false,"internalType":"uint256"}],"anonymous":false},{"type":"event","name":"TotalSableLPStakedUpdated","inputs":[{"name":"_totalSableLPStaked","type":"uint256","indexed":false,"internalType":"uint256"}],"anonymous":false},{"type":"event","name":"TroveManagerAddressSet","inputs":[{"name":"_troveManager","type":"address","indexed":false,"internalType":"address"}],"anonymous":false},{"type":"event","name":"USDSTokenAddressSet","inputs":[{"name":"_usdsTokenAddress","type":"address","indexed":false,"internalType":"address"}],"anonymous":false}],"bytecode":{"object":"0x608060405234801561001057600080fd5b50600080546001600160a01b0319163390811782556040519091907f8be0079c531659141344cd1fd0a4f28419497f9722a3daafe3b4186f6b6457e0908290a3611b9e8061005f6000396000f3fe6080604052600436106101615760003560e01c806301c5acfa14610175578063040629191461019f578063076286dd146101e4578063158ef93e146101f9578063159add2b1461022257806316934fc4146102375780631ff96d961461026a5780632e17de781461027f57806334b3081f146102a95780633b2f0e4e146102fa5780634e08fc231461032b5780635a4d28bb1461034057806366ce0dd3146103555780636940e61b1461036a5780636cfb6bf91461039d578063715018a6146103f85780638a72f31c1461040d5780638da5cb5b146104225780638f32d59b14610437578063a20baee61461044c578063a3f4df7e14610461578063a694fc3a146104eb578063b08bc72214610515578063b7701d281461052a578063b7f8cf9b1461055d578063bf07b89f14610572578063c4340a9c146105a5578063d014d393146105cf578063f130222e146105e4578063f8f8d1741461060e57610170565b366101705761016e610623565b005b600080fd5b34801561018157600080fd5b5061016e6004803603602081101561019857600080fd5b503561066e565b3480156101ab57600080fd5b506101d2600480360360208110156101c257600080fd5b50356001600160a01b03166106fd565b60408051918252519081900360200190f35b3480156101f057600080fd5b506101d261070e565b34801561020557600080fd5b5061020e610714565b604080519115158252519081900360200190f35b34801561022e57600080fd5b506101d2610724565b34801561024357600080fd5b506101d26004803603602081101561025a57600080fd5b50356001600160a01b031661072a565b34801561027657600080fd5b506101d261073c565b34801561028b57600080fd5b5061016e600480360360208110156102a257600080fd5b5035610742565b3480156102b557600080fd5b506102dc600480360360208110156102cc57600080fd5b50356001600160a01b0316610a59565b60408051938452602084019290925282820152519081900360600190f35b34801561030657600080fd5b5061030f610a7a565b604080516001600160a01b039092168252519081900360200190f35b34801561033757600080fd5b506101d2610a89565b34801561034c57600080fd5b5061030f610a8f565b34801561036157600080fd5b5061030f610a9e565b34801561037657600080fd5b5061016e6004803603602081101561038d57600080fd5b50356001600160a01b0316610aad565b3480156103a957600080fd5b5061016e600480360360c08110156103c057600080fd5b506001600160a01b038135811691602081013582169160408201358116916060810135821691608082013581169160a0013516610b64565b34801561040457600080fd5b5061016e610db6565b34801561041957600080fd5b5061030f610e05565b34801561042e57600080fd5b5061030f610e14565b34801561044357600080fd5b5061020e610e23565b34801561045857600080fd5b506101d2610e34565b34801561046d57600080fd5b50610476610e40565b6040805160208082528351818301528351919283929083019185019080838360005b838110156104b0578181015183820152602001610498565b50505050905090810190601f1680156104dd5780820380516001836020036101000a031916815260200191505b509250505060405180910390f35b3480156104f757600080fd5b5061016e6004803603602081101561050e57600080fd5b5035610e68565b34801561052157600080fd5b5061030f611178565b34801561053657600080fd5b506101d26004803603602081101561054d57600080fd5b50356001600160a01b0316611187565b34801561056957600080fd5b5061030f611192565b34801561057e57600080fd5b506101d26004803603602081101561059557600080fd5b50356001600160a01b03166111a1565b3480156105b157600080fd5b5061016e600480360360208110156105c857600080fd5b50356111ac565b3480156105db57600080fd5b5061030f61122f565b3480156105f057600080fd5b5061016e6004803603602081101561060757600080fd5b503561123e565b34801561061a57600080fd5b5061030f6112c1565b600e546001600160a01b0316331461066c5760405162461bcd60e51b8152600401808060200182810382526026815260200180611adc6026913960400191505060405180910390fd5b565b6106766112d0565b600254600090156106af576002546106ac906106a084670de0b6b3a764000063ffffffff61131916565b9063ffffffff61137916565b90505b6003546106c2908263ffffffff6113b816565b600381905560408051918252517fe782915c63633ff4492f98b491c2c46efa665a65ce9421d3cbe73bf3bf9693b39181900360200190a15050565b600061070882611410565b92915050565b60025481565b600e54600160a01b900460ff1681565b60035481565b60016020526000908152604090205481565b60055481565b61074a611480565b600a60009054906101000a90046001600160a01b03166001600160a01b031663284f997e6040518163ffffffff1660e01b8152600401600060405180830381600087803b15801561079a57600080fd5b505af11580156107ae573d6000803e3d6000fd5b50503360009081526001602052604090205491506107cd9050816114de565b60006107d833611520565b905060006107e533611560565b905060006107f233611410565b90506107fd336115a3565b841561091757600061080f8686611628565b90506000610823868363ffffffff61163e16565b33600090815260016020526040902081905560025490915061084b908363ffffffff61163e16565b600281905560408051918252516000805160206119dd8339815191529181900360200190a16009546040805163a9059cbb60e01b81523360048201526024810185905290516001600160a01b039092169163a9059cbb916044808201926020929091908290030181600087803b1580156108c457600080fd5b505af11580156108d8573d6000803e3d6000fd5b505050506040513d60208110156108ee57600080fd5b50506040805182815290513391600080516020611b02833981519152919081900360200190a250505b604080518381526020810185905280820183905290513391600080516020611b22833981519152919081900360600190a26008546040805163a9059cbb60e01b81523360048201526024810185905290516001600160a01b039092169163a9059cbb916044808201926020929091908290030181600087803b15801561099c57600080fd5b505af11580156109b0573d6000803e3d6000fd5b505050506040513d60208110156109c657600080fd5b50506007546040805163a9059cbb60e01b81523360048201526024810184905290516001600160a01b039092169163a9059cbb916044808201926020929091908290030181600087803b158015610a1c57600080fd5b505af1158015610a30573d6000803e3d6000fd5b505050506040513d6020811015610a4657600080fd5b50610a52905083611680565b5050505050565b60066020526000908152604090208054600182015460029092015490919083565b6007546001600160a01b031681565b60045481565b600b546001600160a01b031681565b6009546001600160a01b031681565b610ab5610e23565b610af4576040805162461bcd60e51b81526020600482018190526024820152600080516020611a8c833981519152604482015290519081900360640190fd5b610afd81611746565b600980546001600160a01b0383166001600160a01b0319909116811790915560408051918252517ffde375099357dfce91e8913bff8feb82bf63cfa1b99190869bbadba72474baf79181900360200190a150600e805460ff60a01b1916600160a01b179055565b610b6c610e23565b610bab576040805162461bcd60e51b81526020600482018190526024820152600080516020611a8c833981519152604482015290519081900360640190fd5b610bb486611746565b610bbd85611746565b610bc684611746565b610bcf83611746565b610bd882611746565b610be181611746565b600780546001600160a01b038089166001600160a01b0319928316811790935560088054898316908416179055600a80548683169084168117909155600b8054898416908516179055600c8054888416908516179055600d805484169091179055600e80549185169190921617905560408051918252517f7700f0eb06f19e6adeeb6c3b2d98cca07b6d2c9a3b95f49808f71e205d24e74c9181900360200190a1604080516001600160a01b038716815290517f31303e2672d8b1b42b759a4c208b8e7175da3f98afcdb73fb541845b895bbaf39181900360200190a1604080516001600160a01b038616815290517f41097dcc1f7cbd663d822443d7972f05b04f71918b30fe9fc59dd6e42e2280609181900360200190a1604080516001600160a01b038516815290517f5962f8af633c4df1ab230096f773a514ee5adf7785c621ecdcdb764cb7f6e3919181900360200190a1604080516001600160a01b038416815290517f8bda47e8cacd33c57aa0aa4a08e101e912101571441d75b01e3b7c04d60c97659181900360200190a1604080516001600160a01b038316815290517f8f6a6e7d20a3233e0a79883272259ffbd7a243734e397bc2b4642c79d7fa8a6d9181900360200190a1505050505050565b610dbe610e23565b610dfd576040805162461bcd60e51b81526020600482018190526024820152600080516020611a8c833981519152604482015290519081900360640190fd5b61066c6117c5565b600a546001600160a01b031681565b6000546001600160a01b031690565b6000546001600160a01b0316331490565b670de0b6b3a764000081565b6040518060400160405280600c81526020016b5361626c655374616b696e6760a01b81525081565b610e70611480565b610e798161180f565b600a60009054906101000a90046001600160a01b03166001600160a01b031663284f997e6040518163ffffffff1660e01b8152600401600060405180830381600087803b158015610ec957600080fd5b505af1158015610edd573d6000803e3d6000fd5b5050336000908152600160205260408120549250905080808315610f1d57610f0433611520565b9250610f0f33611560565b9150610f1a33611410565b90505b610f26336115a3565b6000610f38858763ffffffff6113b816565b336000908152600160205260409020819055600254909150610f60908763ffffffff6113b816565b600281905560408051918252516000805160206119dd8339815191529181900360200190a1600954604080516323b872dd60e01b81523360048201523060248201526044810189905290516001600160a01b03909216916323b872dd916064808201926020929091908290030181600087803b158015610fdf57600080fd5b505af1158015610ff3573d6000803e3d6000fd5b505050506040513d602081101561100957600080fd5b50506040805182815290513391600080516020611b02833981519152919081900360200190a2604080518481526020810186905280820184905290513391600080516020611b22833981519152919081900360600190a28415611170576008546040805163a9059cbb60e01b81523360048201526024810186905290516001600160a01b039092169163a9059cbb916044808201926020929091908290030181600087803b1580156110ba57600080fd5b505af11580156110ce573d6000803e3d6000fd5b505050506040513d60208110156110e457600080fd5b50506007546040805163a9059cbb60e01b81523360048201526024810185905290516001600160a01b039092169163a9059cbb916044808201926020929091908290030181600087803b15801561113a57600080fd5b505af115801561114e573d6000803e3d6000fd5b505050506040513d602081101561116457600080fd5b50611170905084611680565b505050505050565b600e546001600160a01b031681565b600061070882611560565b600c546001600160a01b031681565b600061070882611520565b6111b461184e565b600254600090156111e1576002546111de906106a084670de0b6b3a764000063ffffffff61131916565b90505b6005546111f4908263ffffffff6113b816565b600581905560408051918252517fb8689e8a51ca7ca0826cf4ce72dc490aef4b1246a98a1220af5fa0be92c5deda9181900360200190a15050565b600d546001600160a01b031681565b611246611897565b6002546000901561127357600254611270906106a084670de0b6b3a764000063ffffffff61131916565b90505b600454611286908263ffffffff6113b816565b600481905560408051918252517f7f62e26f9df66d2739cf9c8d8840bb497b6a62307cdbf0d74006ed19359f31fa9181900360200190a15050565b6008546001600160a01b031681565b600b546001600160a01b0316331461066c5760405162461bcd60e51b8152600401808060200182810382526022815260200180611a226022913960400191505060405180910390fd5b60008261132857506000610708565b8282028284828161133557fe5b04146113725760405162461bcd60e51b8152600401808060200182810382526021815260200180611a6b6021913960400191505060405180910390fd5b9392505050565b600061137283836040518060400160405280601a815260200179536166654d6174683a206469766973696f6e206279207a65726f60301b8152506118e0565b600082820183811015611372576040805162461bcd60e51b815260206004820152601b60248201527a536166654d6174683a206164646974696f6e206f766572666c6f7760281b604482015290519081900360640190fd5b6001600160a01b038116600090815260066020526040812060020154600554829061147890670de0b6b3a7640000906106a090611453908663ffffffff61163e16565b6001600160a01b0388166000908152600160205260409020549063ffffffff61131916565b949350505050565b600e54600160a01b900460ff1661066c576040805162461bcd60e51b815260206004820152601f60248201527f5361626c655374616b696e673a205374616b696e67206e6f7420726561647900604482015290519081900360640190fd5b6000811161151d5760405162461bcd60e51b815260040180806020018281038252602d815260200180611b65602d913960400191505060405180910390fd5b50565b6001600160a01b038116600090815260066020526040812054600354829061147890670de0b6b3a7640000906106a090611453908663ffffffff61163e16565b6001600160a01b038116600090815260066020526040812060010154600454829061147890670de0b6b3a7640000906106a090611453908663ffffffff61163e16565b600380546001600160a01b03831660008181526006602090815260409182902093845560048054600186015560055460029095018590559454945482519384529083019490945281810193909352606081019190915290517f81cc78e6fc87030262136fad944ad2b29fb303fb412c97118d2d571908ecf2d09181900360800190a150565b60008183106116375781611372565b5090919050565b600061137283836040518060400160405280601e81526020017f536166654d6174683a207375627472616374696f6e206f766572666c6f770000815250611982565b604080513381526020810183905281517f6109e2559dfa766aaec7118351d48a523f0a4157f49c8d68749c8ac41318ad12929181900390910190a1604051600090339083908381818185875af1925050503d80600081146116fd576040519150601f19603f3d011682016040523d82523d6000602084013e611702565b606091505b50509050806117425760405162461bcd60e51b8152600401808060200182810382526030815260200180611aac6030913960400191505060405180910390fd5b5050565b6001600160a01b038116611789576040805162461bcd60e51b81526020600482015260056024820152641830b2323960d91b604482015290519081900360640190fd5b803b80611742576040805162461bcd60e51b815260206004820152600560248201526430636f646560d81b604482015290519081900360640190fd5b600080546040516001600160a01b03909116907f8be0079c531659141344cd1fd0a4f28419497f9722a3daafe3b4186f6b6457e0908390a3600080546001600160a01b0319169055565b6000811161151d5760405162461bcd60e51b81526004018080602001828103825260258152602001806119fd6025913960400191505060405180910390fd5b600d546001600160a01b0316331461066c5760405162461bcd60e51b8152600401808060200182810382526023815260200180611b426023913960400191505060405180910390fd5b600c546001600160a01b0316331461066c5760405162461bcd60e51b8152600401808060200182810382526027815260200180611a446027913960400191505060405180910390fd5b6000818361196c5760405162461bcd60e51b81526004018080602001828103825283818151815260200191508051906020019080838360005b83811015611931578181015183820152602001611919565b50505050905090810190601f16801561195e5780820380516001836020036101000a031916815260200191505b509250505060405180910390fd5b50600083858161197857fe5b0495945050505050565b600081848411156119d45760405162461bcd60e51b8152602060048201818152835160248401528351909283926044909101919085019080838360008315611931578181015183820152602001611919565b50505090039056fe4550360941b73d93c38cdb962b0fb613b4256a148008c9e185dff2f61d71629e5361626c655374616b696e673a20416d6f756e74206d757374206265206e6f6e2d7a65726f5361626c655374616b696e673a2063616c6c6572206973206e6f742054726f76654d5361626c655374616b696e673a2063616c6c6572206973206e6f7420426f72726f7765724f7073536166654d6174683a206d756c7469706c69636174696f6e206f766572666c6f774f776e61626c653a2063616c6c6572206973206e6f7420746865206f776e65725361626c655374616b696e673a204661696c656420746f2073656e6420616363756d756c6174656420424e424761696e5361626c655374616b696e673a2063616c6c6572206973206e6f7420416374697665506f6f6c39df0e5286a3ef2f42a0bf52f32cfe2c58e5b0405f47fe512f2c2439e4cfe2049d4dee8788350e06ababf8a109ba94fbc63a7a44223e3428ff6eb142e26ead315361626c655374616b696e673a2063616c6c6572206973206e6f74205361626c6552655361626c655374616b696e673a2055736572206d75737420686176652061206e6f6e2d7a65726f207374616b65a164736f6c634300060b000a","linkReferences":{}},"methodIdentifiers":{"DECIMAL_PRECISION()":"a20baee6","F_BNB()":"159add2b","F_SABLE()":"1ff96d96","F_USDS()":"4e08fc23","NAME()":"a3f4df7e","activePoolAddress()":"b08bc722","borrowerOperationsAddress()":"b7f8cf9b","getPendingBNBGain(address)":"bf07b89f","getPendingSABLEGain(address)":"04062919","getPendingUSDSGain(address)":"b7701d28","increaseF_BNB(uint256)":"01c5acfa","increaseF_SABLE(uint256)":"c4340a9c","increaseF_USDS(uint256)":"f130222e","initialized()":"158ef93e","isOwner()":"8f32d59b","owner()":"8da5cb5b","renounceOwnership()":"715018a6","sableLPToken()":"66ce0dd3","sableRewarder()":"8a72f31c","sableRewarderAddress()":"d014d393","sableToken()":"3b2f0e4e","setAddresses(address,address,address,address,address,address)":"6cfb6bf9","setSableLPAddress(address)":"6940e61b","snapshots(address)":"34b3081f","stake(uint256)":"a694fc3a","stakes(address)":"16934fc4","totalSableLPStaked()":"076286dd","troveManagerAddress()":"5a4d28bb","unstake(uint256)":"2e17de78","usdsToken()":"f8f8d174"},"id":72}