{"abi":[{"type":"constructor","inputs":[],"stateMutability":"payable"},{"type":"function","name":"activePool","inputs":[],"outputs":[{"name":"","type":"address","internalType":"contract ActivePool"}],"stateMutability":"view"},{"type":"function","name":"addCollExt","inputs":[{"name":"_i","type":"uint256","internalType":"uint256"},{"name":"_BNB","type":"uint256","internalType":"uint256"},{"name":"priceFeedUpdateData","type":"bytes[]","internalType":"bytes[]"}],"outputs":[],"stateMutability":"payable"},{"type":"function","name":"addCollRawExt","inputs":[{"name":"_i","type":"uint256","internalType":"uint256"},{"name":"_BNB","type":"uint256","internalType":"uint256"},{"name":"_upperHint","type":"address","internalType":"address"},{"name":"_lowerHint","type":"address","internalType":"address"},{"name":"priceFeedUpdateData","type":"bytes[]","internalType":"bytes[]"}],"outputs":[],"stateMutability":"payable"},{"type":"function","name":"adjustTroveExt","inputs":[{"name":"_i","type":"uint256","internalType":"uint256"},{"name":"_BNB","type":"uint256","internalType":"uint256"},{"name":"_collWithdrawal","type":"uint256","internalType":"uint256"},{"name":"_debtChange","type":"uint256","internalType":"uint256"},{"name":"_isDebtIncrease","type":"bool","internalType":"bool"},{"name":"priceFeedUpdateData","type":"bytes[]","internalType":"bytes[]"}],"outputs":[],"stateMutability":"payable"},{"type":"function","name":"adjustTroveRawExt","inputs":[{"name":"_i","type":"uint256","internalType":"uint256"},{"name":"_BNB","type":"uint256","internalType":"uint256"},{"name":"adjustParam","type":"tuple","internalType":"struct IBorrowerOperations.AdjustTroveParam","components":[{"name":"collWithdrawal","type":"uint256","internalType":"uint256"},{"name":"USDSChange","type":"uint256","internalType":"uint256"},{"name":"isDebtIncrease","type":"bool","internalType":"bool"},{"name":"upperHint","type":"address","internalType":"address"},{"name":"lowerHint","type":"address","internalType":"address"},{"name":"maxFeePercentage","type":"uint256","internalType":"uint256"}]},{"name":"priceFeedUpdateData","type":"bytes[]","internalType":"bytes[]"}],"outputs":[],"stateMutability":"payable"},{"type":"function","name":"approveExt","inputs":[{"name":"_i","type":"uint256","internalType":"uint256"},{"name":"spender","type":"address","internalType":"address"},{"name":"amount","type":"uint256","internalType":"uint256"}],"outputs":[{"name":"","type":"bool","internalType":"bool"}],"stateMutability":"nonpayable"},{"type":"function","name":"batchLiquidateTrovesExt","inputs":[{"name":"_i","type":"uint256","internalType":"uint256"},{"name":"_troveArray","type":"address[]","internalType":"address[]"},{"name":"priceFeedUpdateData","type":"bytes[]","internalType":"bytes[]"}],"outputs":[],"stateMutability":"nonpayable"},{"type":"function","name":"borrowerOperations","inputs":[],"outputs":[{"name":"","type":"address","internalType":"contract BorrowerOperations"}],"stateMutability":"view"},{"type":"function","name":"closeTroveExt","inputs":[{"name":"_i","type":"uint256","internalType":"uint256"},{"name":"priceFeedUpdateData","type":"bytes[]","internalType":"bytes[]"}],"outputs":[],"stateMutability":"nonpayable"},{"type":"function","name":"collSurplusPool","inputs":[],"outputs":[{"name":"","type":"address","internalType":"contract CollSurplusPool"}],"stateMutability":"view"},{"type":"function","name":"decreaseAllowanceExt","inputs":[{"name":"_i","type":"uint256","internalType":"uint256"},{"name":"spender","type":"address","internalType":"address"},{"name":"subtractedValue","type":"uint256","internalType":"uint256"}],"outputs":[{"name":"","type":"bool","internalType":"bool"}],"stateMutability":"nonpayable"},{"type":"function","name":"defaultPool","inputs":[],"outputs":[{"name":"","type":"address","internalType":"contract DefaultPool"}],"stateMutability":"view"},{"type":"function","name":"echidnaProxies","inputs":[{"name":"","type":"uint256","internalType":"uint256"}],"outputs":[{"name":"","type":"address","internalType":"contract EchidnaProxy"}],"stateMutability":"view"},{"type":"function","name":"echidna_BNB_balances","inputs":[],"outputs":[{"name":"","type":"bool","internalType":"bool"}],"stateMutability":"view"},{"type":"function","name":"echidna_USDS_global_balances","inputs":[],"outputs":[{"name":"","type":"bool","internalType":"bool"}],"stateMutability":"view"},{"type":"function","name":"echidna_canary_active_pool_balance","inputs":[],"outputs":[{"name":"","type":"bool","internalType":"bool"}],"stateMutability":"view"},{"type":"function","name":"echidna_canary_number_of_troves","inputs":[],"outputs":[{"name":"","type":"bool","internalType":"bool"}],"stateMutability":"view"},{"type":"function","name":"echidna_price","inputs":[],"outputs":[{"name":"","type":"bool","internalType":"bool"}],"stateMutability":"view"},{"type":"function","name":"echidna_trove_properties","inputs":[],"outputs":[{"name":"","type":"bool","internalType":"bool"}],"stateMutability":"view"},{"type":"function","name":"echidna_troves_order","inputs":[],"outputs":[{"name":"","type":"bool","internalType":"bool"}],"stateMutability":"view"},{"type":"function","name":"gasPool","inputs":[],"outputs":[{"name":"","type":"address","internalType":"contract GasPool"}],"stateMutability":"view"},{"type":"function","name":"increaseAllowanceExt","inputs":[{"name":"_i","type":"uint256","internalType":"uint256"},{"name":"spender","type":"address","internalType":"address"},{"name":"addedValue","type":"uint256","internalType":"uint256"}],"outputs":[{"name":"","type":"bool","internalType":"bool"}],"stateMutability":"nonpayable"},{"type":"function","name":"liquidateExt","inputs":[{"name":"_i","type":"uint256","internalType":"uint256"},{"name":"_user","type":"address","internalType":"address"},{"name":"priceFeedUpdateData","type":"bytes[]","internalType":"bytes[]"}],"outputs":[],"stateMutability":"nonpayable"},{"type":"function","name":"liquidateTrovesExt","inputs":[{"name":"_i","type":"uint256","internalType":"uint256"},{"name":"_n","type":"uint256","internalType":"uint256"},{"name":"priceFeedUpdateData","type":"bytes[]","internalType":"bytes[]"}],"outputs":[],"stateMutability":"nonpayable"},{"type":"function","name":"openTroveExt","inputs":[{"name":"_i","type":"uint256","internalType":"uint256"},{"name":"_BNB","type":"uint256","internalType":"uint256"},{"name":"_USDSAmount","type":"uint256","internalType":"uint256"},{"name":"priceFeedUpdateData","type":"bytes[]","internalType":"bytes[]"}],"outputs":[],"stateMutability":"payable"},{"type":"function","name":"openTroveRawExt","inputs":[{"name":"_i","type":"uint256","internalType":"uint256"},{"name":"_BNB","type":"uint256","internalType":"uint256"},{"name":"_USDSAmount","type":"uint256","internalType":"uint256"},{"name":"_upperHint","type":"address","internalType":"address"},{"name":"_lowerHint","type":"address","internalType":"address"},{"name":"_maxFee","type":"uint256","internalType":"uint256"},{"name":"priceFeedUpdateData","type":"bytes[]","internalType":"bytes[]"}],"outputs":[],"stateMutability":"payable"},{"type":"function","name":"provideToSPExt","inputs":[{"name":"_i","type":"uint256","internalType":"uint256"},{"name":"_amount","type":"uint256","internalType":"uint256"},{"name":"_frontEndTag","type":"address","internalType":"address"}],"outputs":[],"stateMutability":"nonpayable"},{"type":"function","name":"redeemCollateralExt","inputs":[{"name":"_i","type":"uint256","internalType":"uint256"},{"name":"_USDSAmount","type":"uint256","internalType":"uint256"},{"name":"_firstRedemptionHint","type":"address","internalType":"address"},{"name":"_upperPartialRedemptionHint","type":"address","internalType":"address"},{"name":"_lowerPartialRedemptionHint","type":"address","internalType":"address"},{"name":"_partialRedemptionHintNICR","type":"uint256","internalType":"uint256"},{"name":"priceFeedUpdateData","type":"bytes[]","internalType":"bytes[]"}],"outputs":[],"stateMutability":"nonpayable"},{"type":"function","name":"repayUSDSExt","inputs":[{"name":"_i","type":"uint256","internalType":"uint256"},{"name":"_amount","type":"uint256","internalType":"uint256"},{"name":"_upperHint","type":"address","internalType":"address"},{"name":"_lowerHint","type":"address","internalType":"address"},{"name":"priceFeedUpdateData","type":"bytes[]","internalType":"bytes[]"}],"outputs":[],"stateMutability":"nonpayable"},{"type":"function","name":"setPriceExt","inputs":[{"name":"_price","type":"uint256","internalType":"uint256"}],"outputs":[],"stateMutability":"nonpayable"},{"type":"function","name":"stabilityPool","inputs":[],"outputs":[{"name":"","type":"address","internalType":"contract StabilityPool"}],"stateMutability":"view"},{"type":"function","name":"transferExt","inputs":[{"name":"_i","type":"uint256","internalType":"uint256"},{"name":"recipient","type":"address","internalType":"address"},{"name":"amount","type":"uint256","internalType":"uint256"}],"outputs":[{"name":"","type":"bool","internalType":"bool"}],"stateMutability":"nonpayable"},{"type":"function","name":"transferFromExt","inputs":[{"name":"_i","type":"uint256","internalType":"uint256"},{"name":"sender","type":"address","internalType":"address"},{"name":"recipient","type":"address","internalType":"address"},{"name":"amount","type":"uint256","internalType":"uint256"}],"outputs":[{"name":"","type":"bool","internalType":"bool"}],"stateMutability":"nonpayable"},{"type":"function","name":"troveManager","inputs":[],"outputs":[{"name":"","type":"address","internalType":"contract TroveManager"}],"stateMutability":"view"},{"type":"function","name":"usdsToken","inputs":[],"outputs":[{"name":"","type":"address","internalType":"contract USDSToken"}],"stateMutability":"view"},{"type":"function","name":"withdrawCollExt","inputs":[{"name":"_i","type":"uint256","internalType":"uint256"},{"name":"_amount","type":"uint256","internalType":"uint256"},{"name":"_upperHint","type":"address","internalType":"address"},{"name":"_lowerHint","type":"address","internalType":"address"},{"name":"priceFeedUpdateData","type":"bytes[]","internalType":"bytes[]"}],"outputs":[],"stateMutability":"nonpayable"},{"type":"function","name":"withdrawFromSPExt","inputs":[{"name":"_i","type":"uint256","internalType":"uint256"},{"name":"_amount","type":"uint256","internalType":"uint256"},{"name":"priceFeedUpdateData","type":"bytes[]","internalType":"bytes[]"}],"outputs":[],"stateMutability":"nonpayable"},{"type":"function","name":"withdrawUSDSExt","inputs":[{"name":"_i","type":"uint256","internalType":"uint256"},{"name":"_amount","type":"uint256","internalType":"uint256"},{"name":"_upperHint","type":"address","internalType":"address"},{"name":"_lowerHint","type":"address","internalType":"address"},{"name":"_maxFee","type":"uint256","internalType":"uint256"},{"name":"priceFeedUpdateData","type":"bytes[]","internalType":"bytes[]"}],"outputs":[],"stateMutability":"nonpayable"}],"bytecode":{"object":"0x6080604052604051620000129062000ca3565b604051809103906000f0801580156200002f573d6000803e3d6000fd5b50600380546001600160a01b0319166001600160a01b03929092169190911790556040516200005e9062000cb1565b604051809103906000f0801580156200007b573d6000803e3d6000fd5b50600480546001600160a01b0319166001600160a01b0392909216919091179055604051620000aa9062000cbf565b604051809103906000f080158015620000c7573d6000803e3d6000fd5b50600580546001600160a01b0319166001600160a01b0392909216919091179055604051620000f69062000ccd565b604051809103906000f08015801562000113573d6000803e3d6000fd5b50600680546001600160a01b0319166001600160a01b0392909216919091179055604051620001429062000cdb565b604051809103906000f0801580156200015f573d6000803e3d6000fd5b50600780546001600160a01b0319166001600160a01b03929092169190911790556040516200018e9062000ce9565b604051809103906000f080158015620001ab573d6000803e3d6000fd5b50600860006101000a8154816001600160a01b0302191690836001600160a01b03160217905550606060648182604051620001e69062000cf6565b620001f49392919062000fea565b604051809103906000f08015801562000211573d6000803e3d6000fd5b50600e80546001600160a01b0319166001600160a01b0392909216919091179055604051620002409062000d04565b604051809103906000f0801580156200025d573d6000803e3d6000fd5b50600d80546001600160a01b0319166001600160a01b0392831617905560035460075460045460405192841693918216929116906200029c9062000d12565b620002aa9392919062000f2a565b604051809103906000f080158015620002c7573d6000803e3d6000fd5b50600a80546001600160a01b0319166001600160a01b0392909216919091179055604051620002f69062000d20565b604051809103906000f08015801562000313573d6000803e3d6000fd5b50600980546001600160a01b0319166001600160a01b0392909216919091179055604051620003429062000d2e565b604051809103906000f0801580156200035f573d6000803e3d6000fd5b50600b80546001600160a01b0319166001600160a01b03929092169190911790556040516200038e9062000d3c565b604051809103906000f080158015620003ab573d6000803e3d6000fd5b50600c80546001600160a01b0319166001600160a01b0392909216919091179055604051620003da9062000d4a565b604051809103906000f080158015620003f7573d6000803e3d6000fd5b50601080546001600160a01b0319166001600160a01b03929092169190911790556200042262000d58565b50604080516101c081018252600480546001600160a01b039081168352600554811660208401526006548116838501526007548116606084015260085481166080840152600954811660a0840152600b54811660c0840152600a54811660e0840152600c54811661010084015260006101208401819052610140840152600d548116610160840152600f54811661018084015260105481166101a08401526003549351623e2dc360e31b8152929316916301f16e1891620004e6918591016200112e565b600060405180830381600087803b1580156200050157600080fd5b505af115801562000516573d6000803e3d6000fd5b505050506200052462000dcc565b5060408051610180810182526003546001600160a01b039081168252600554811660208301526006548116828401526007548116606083015260085481166080830152600954811660a0830152600b54811660c0830152600c54811660e0830152600a5481166101008301526000610120830152600d548116610140830152600f548116610160830152600480549351631453558b60e01b8152929390911691631453558b91620005d89185910162001023565b600060405180830381600087803b158015620005f357600080fd5b505af115801562000608573d6000803e3d6000fd5b505060055460048054600354600754600654604051634a945f8d60e01b81526001600160a01b039687169850634a945f8d9750620006589694851695938516949283169391909216910162000f4d565b600060405180830381600087803b1580156200067357600080fd5b505af115801562000688573d6000803e3d6000fd5b50506006546003546005546040516348083d7f60e11b81526001600160a01b0393841695506390107afe9450620006ca93928316929091169060040162000f10565b600060405180830381600087803b158015620006e557600080fd5b505af1158015620006fa573d6000803e3d6000fd5b505060075460048054600354600554600a54600c54600b54600d54604051632a7e19c360e01b81526001600160a01b03998a169b50632a7e19c39a5062000760999788169896881697958616969486169593841694928416936000939216910162000f78565b600060405180830381600087803b1580156200077b57600080fd5b505af115801562000790573d6000803e3d6000fd5b505060095460048054600354600554604051630d8efe5960e21b81526001600160a01b03958616975063363bf9649650620007d8959384169492841693909116910162000f2a565b600060405180830381600087803b158015620007f357600080fd5b505af115801562000808573d6000803e3d6000fd5b5050600d54600e546040516312f729bf60e11b81526001600160a01b0392831694506325ee537e9350620008789290911690670f43fc2c04ee0000906714d1120d7b16000090680ad78ebc5ac620000090686194049f30f7200000906611c37937e0800090819060040162000ed5565b600060405180830381600087803b1580156200089357600080fd5b505af1158015620008a8573d6000803e3d6000fd5b5050600c5460035460048054604051631e6edaf360e31b81526001600160a01b03948516965063f376d7989550620008f194670de0b6b3a7640000948116939216910162000fcb565b600060405180830381600087803b1580156200090c57600080fd5b505af115801562000921573d6000803e3d6000fd5b506000925050505b606481101562000a5457600354600454600754600a546040516001600160a01b0394851694938416939283169290911690620009659062000e30565b62000974949392919062000f4d565b604051809103906000f08015801562000991573d6000803e3d6000fd5b5060118260648110620009a057fe5b0180546001600160a01b0319166001600160a01b0392909216919091179055600060118260648110620009cf57fe5b01546040516001600160a01b039091169069d3c21bcecceda100000090620009f79062000ed2565b60006040518083038185875af1925050503d806000811462000a36576040519150601f19603f3d011682016040523d82523d6000602084013e62000a3b565b606091505b505090508062000a4a57600080fd5b5060010162000929565b50600d60009054906101000a90046001600160a01b03166001600160a01b03166344936b106040518163ffffffff1660e01b815260040160206040518083038186803b15801562000aa457600080fd5b505afa15801562000ab9573d6000803e3d6000fd5b505050506040513d601f19601f8201168201806040525081019062000adf919062000e67565b600055600d5460408051635da04a9160e11b815290516001600160a01b039092169163bb40952291600480820192602092909190829003018186803b15801562000b2857600080fd5b505afa15801562000b3d573d6000803e3d6000fd5b505050506040513d601f19601f8201168201806040525081019062000b63919062000e67565b600155600d5460408051631549b76d60e01b815290516001600160a01b0390921691631549b76d91600480820192602092909190829003018186803b15801562000bac57600080fd5b505afa15801562000bc1573d6000803e3d6000fd5b505050506040513d601f19601f8201168201806040525081019062000be7919062000e67565b60025560005462000bf757600080fd5b60006001541162000c0757600080fd5b600b546040516391b7f5ed60e01b81526001600160a01b03909116906391b7f5ed9062000c439069021e19e0c9bab24000009060040162000fc2565b602060405180830381600087803b15801562000c5e57600080fd5b505af115801562000c73573d6000803e3d6000fd5b505050506040513d601f19601f8201168201806040525081019062000c99919062000e3e565b505050506200125f565b615f338062003f0583390190565b6149bc8062009e3883390190565b610bad806200e7f483390190565b610988806200f3a183390190565b613d17806200fd2983390190565b60338062013a4083390190565b611f048062013a7383390190565b610971806201597783390190565b61181e80620162e883390190565b610b2a8062017b0683390190565b61058b806201863083390190565b61182a8062018bbb83390190565b6117cb806201a3e583390190565b604080516101c081018252600080825260208201819052918101829052606081018290526080810182905260a0810182905260c0810182905260e08101829052610100810182905261012081018290526101408101829052610160810182905261018081018290526101a081019190915290565b6040805161018081018252600080825260208201819052918101829052606081018290526080810182905260a0810182905260c0810182905260e0810182905261010081018290526101208101829052610140810182905261016081019190915290565b6112f7806201bbb083390190565b60006020828403121562000e50578081fd5b8151801515811462000e60578182fd5b9392505050565b60006020828403121562000e79578081fd5b5051919050565b6001600160a01b03169052565b6000815180845260208085019450808401835b8381101562000ec75781516001600160a01b03168752958201959082019060010162000ea0565b509495945050505050565b90565b6001600160a01b03979097168752602087019590955260408601939093526060850191909152608084015260a083015260c082015260e00190565b6001600160a01b0392831681529116602082015260400190565b6001600160a01b0393841681529183166020830152909116604082015260600190565b6001600160a01b03948516815292841660208401529083166040830152909116606082015260800190565b6001600160a01b0398891681529688166020880152948716604087015292861660608601529085166080850152841660a0840152831660c083015290911660e08201526101000190565b90815260200190565b9283526001600160a01b03918216602084015216604082015260600190565b60008482526060602083015262001005606083018562000e8d565b828103604084015262001019818562000e8d565b9695505050505050565b6000610180820190506200103982845162000e80565b60208301516200104d602084018262000e80565b50604083015162001062604084018262000e80565b50606083015162001077606084018262000e80565b5060808301516200108c608084018262000e80565b5060a0830151620010a160a084018262000e80565b5060c0830151620010b660c084018262000e80565b5060e0830151620010cb60e084018262000e80565b5061010080840151620010e18285018262000e80565b505061012080840151620010f88285018262000e80565b5050610140808401516200110f8285018262000e80565b505061016080840151620011268285018262000e80565b505092915050565b60006101c0820190506200114482845162000e80565b602083015162001158602084018262000e80565b5060408301516200116d604084018262000e80565b50606083015162001182606084018262000e80565b50608083015162001197608084018262000e80565b5060a0830151620011ac60a084018262000e80565b5060c0830151620011c160c084018262000e80565b5060e0830151620011d660e084018262000e80565b5061010080840151620011ec8285018262000e80565b505061012080840151620012038285018262000e80565b5050610140808401516200121a8285018262000e80565b505061016080840151620012318285018262000e80565b505061018080840151620012488285018262000e80565b50506101a080840151620011268285018262000e80565b612c96806200126f6000396000f3fe6080604052600436106101b55760003560e01c8063048c661d146101ba57806304bbf59c146101e5578063119be5d01461021257806314ae6352146102325780632c102786146102475780633437c0641461025a5780633ca4afc11461027a5780633cc742251461029a5780633d83908a146102af5780634557559f146102c45780634fa55cb0146102e45780635895ac4e146102f957806359bed84b1461030e5780636f5082921461032357806371ac250b1461034357806377553ad4146103635780637a99b1f9146103785780637c05b0a0146103985780637c22900e146103b85780637f7dde4a146103d857806382e115ae146103ed57806389891c0e146104025780638e1cbb00146104155780638e4707d31461043557806390543d251461045557806391a4a42614610475578063980c55d7146104955780639cdd0978146104aa5780639f56ac18146104ca578063a2adcd19146104df578063a2f5cbdd146104ff578063b2d44f5f14610514578063cda775f914610527578063d88d0e981461053c578063e217c42f1461055c578063f42e7c181461056f578063f8f8d17414610582578063fa08b03814610597575b600080fd5b3480156101c657600080fd5b506101cf6105ac565b6040516101dc91906128a6565b60405180910390f35b3480156101f157600080fd5b50610205610200366004612385565b6105bb565b6040516101dc91906129a4565b34801561021e57600080fd5b5061020561022d366004612385565b61065d565b61024561024036600461276f565b6106a4565b005b6102456102553660046127b0565b6107fc565b34801561026657600080fd5b50610245610275366004612644565b6108fa565b34801561028657600080fd5b5061024561029536600461247b565b61097b565b3480156102a657600080fd5b506101cf6109f9565b3480156102bb57600080fd5b506101cf610a08565b3480156102d057600080fd5b506102456102df3660046122b5565b610a17565b3480156102f057600080fd5b50610205610aa7565b34801561030557600080fd5b50610205610f35565b34801561031a57600080fd5b50610205610fd7565b34801561032f57600080fd5b5061024561033e3660046123bc565b6112b4565b34801561034f57600080fd5b5061024561035e3660046124b3565b61132c565b34801561036f57600080fd5b506101cf6113be565b34801561038457600080fd5b50610245610393366004612432565b6113cd565b3480156103a457600080fd5b506102456103b336600461232c565b611413565b3480156103c457600080fd5b506102056103d33660046122e5565b61145b565b3480156103e457600080fd5b506101cf611500565b3480156103f957600080fd5b5061020561150f565b610245610410366004612644565b61177a565b34801561042157600080fd5b50610245610430366004612548565b611828565b34801561044157600080fd5b50610205610450366004612385565b6118af565b34801561046157600080fd5b506102456104703660046125c1565b6118f6565b34801561048157600080fd5b506101cf6104903660046122b5565b611947565b3480156104a157600080fd5b50610205611964565b3480156104b657600080fd5b506102056104c5366004612385565b611c4d565b3480156104d657600080fd5b50610205611c94565b3480156104eb57600080fd5b506102456104fa366004612644565b611cb1565b34801561050b57600080fd5b50610205611cf9565b610245610522366004612734565b611d0e565b34801561053357600080fd5b506101cf611d5e565b34801561054857600080fd5b50610245610557366004612548565b611d6d565b61024561056a36600461267c565b611db9565b61024561057d366004612548565b611e03565b34801561058e57600080fd5b506101cf611e4f565b3480156105a357600080fd5b506101cf611e5e565b6007546001600160a01b031681565b600080606485069050601181606481106105d157fe5b015460405163d466e4eb60e01b81526001600160a01b039091169063d466e4eb90610602908790879060040161290c565b602060405180830381600087803b15801561061c57600080fd5b505af1158015610630573d6000803e3d6000fd5b505050506040513d601f19601f820116820180604052508101906106549190612299565b50509392505050565b6000806064850690506011816064811061067357fe5b015460405163cf83544f60e01b81526001600160a01b039091169063cf83544f90610602908790879060040161290c565b60006064860690506000601182606481106106bb57fe5b01546001546001600160a01b0390911691508131906000906106e09083908a90611e6d565b905060006106f18289600154611f58565b6040516315e9b18960e11b81529091506001600160a01b03851690632bd363129061072d9085908590600090819081908f908f90600401612bef565b600060405180830381600087803b15801561074757600080fd5b505af115801561075b573d6000803e3d6000fd5b50505050600360009054906101000a90046001600160a01b03166001600160a01b03166349eefeee6040518163ffffffff1660e01b815260040160206040518083038186803b1580156107ad57600080fd5b505afa1580156107c1573d6000803e3d6000fd5b505050506040513d601f19601f820116820180604052508101906107e591906122cd565b60758190556107f057fe5b50505050505050505050565b600060648806905060006011826064811061081357fe5b0154600080546001600160a01b0390921692508231916108369083908c90611e6d565b905087871561084f5761084c828a600054611f58565b90505b6108576121d5565b506040805160c0810182528b815260208101839052891515818301526000606082018190526080820181905260a08201529051631c33405760e11b81526001600160a01b0386169063386680ae906108b990869085908d908d90600401612b8b565b600060405180830381600087803b1580156108d357600080fd5b505af11580156108e7573d6000803e3d6000fd5b5050505050505050505050505050505050565b60006064850690506011816064811061090f57fe5b0154604051630aa535df60e01b81526001600160a01b0390911690630aa535df9061094290879087908790600401612b71565b600060405180830381600087803b15801561095c57600080fd5b505af1158015610970573d6000803e3d6000fd5b505050505050505050565b60006064840690506011816064811061099057fe5b0154604051634c36240b60e01b81526001600160a01b0390911690634c36240b906109c19086908690600401612a81565b600060405180830381600087803b1580156109db57600080fd5b505af11580156109ef573d6000803e3d6000fd5b5050505050505050565b6006546001600160a01b031681565b6003546001600160a01b031681565b600b546040516391b7f5ed60e01b81526000916001600160a01b0316906391b7f5ed90610a48908590600401612a78565b602060405180830381600087803b158015610a6257600080fd5b505af1158015610a76573d6000803e3d6000fd5b505050506040513d601f19601f82011682018060405250810190610a9a9190612299565b905080610aa357fe5b5050565b600080600a60009054906101000a90046001600160a01b03166001600160a01b03166318160ddd6040518163ffffffff1660e01b815260040160206040518083038186803b158015610af857600080fd5b505afa158015610b0c573d6000803e3d6000fd5b505050506040513d601f19601f82011682018060405250810190610b3091906122cd565b600a546008546040516370a0823160e01b81529293506000926001600160a01b03928316926370a0823192610b6a929116906004016128a6565b60206040518083038186803b158015610b8257600080fd5b505afa158015610b96573d6000803e3d6000fd5b505050506040513d601f19601f82011682018060405250810190610bba91906122cd565b90506000600560009054906101000a90046001600160a01b03166001600160a01b0316635227d6a86040518163ffffffff1660e01b815260040160206040518083038186803b158015610c0c57600080fd5b505afa158015610c20573d6000803e3d6000fd5b505050506040513d601f19601f82011682018060405250810190610c4491906122cd565b90506000600660009054906101000a90046001600160a01b03166001600160a01b0316635227d6a86040518163ffffffff1660e01b815260040160206040518083038186803b158015610c9657600080fd5b505afa158015610caa573d6000803e3d6000fd5b505050506040513d601f19601f82011682018060405250810190610cce91906122cd565b90508082018414610ce6576000945050505050610f32565b60075460408051631c93f00360e11b815290516000926001600160a01b031691633927e006916004808301926020929190829003018186803b158015610d2b57600080fd5b505afa158015610d3f573d6000803e3d6000fd5b505050506040513d601f19601f82011682018060405250810190610d6391906122cd565b90506000600c60009054906101000a90046001600160a01b03166001600160a01b0316631e2231436040518163ffffffff1660e01b815260040160206040518083038186803b158015610db557600080fd5b505afa158015610dc9573d6000803e3d6000fd5b505050506040513d601f19601f82011682018060405250810190610ded919061227d565b905060005b6001600160a01b03821615610f0b57600a546040516370a0823160e01b81526001600160a01b03909116906370a0823190610e319085906004016128a6565b60206040518083038186803b158015610e4957600080fd5b505afa158015610e5d573d6000803e3d6000fd5b505050506040513d601f19601f82011682018060405250810190610e8191906122cd565b600c5460405163765e015960e01b815291909201916001600160a01b03169063765e015990610eb49085906004016128a6565b60206040518083038186803b158015610ecc57600080fd5b505afa158015610ee0573d6000803e3d6000fd5b505050506040513d601f19601f82011682018060405250810190610f04919061227d565b9150610df2565b85818401018711610f26576000975050505050505050610f32565b60019750505050505050505b90565b600080600b60009054906101000a90046001600160a01b03166001600160a01b03166398d5fdca6040518163ffffffff1660e01b815260040160206040518083038186803b158015610f8657600080fd5b505afa158015610f9a573d6000803e3d6000fd5b505050506040513d601f19601f82011682018060405250810190610fbe91906122cd565b905080610fcf576000915050610f32565b600191505090565b600080600c60009054906101000a90046001600160a01b03166001600160a01b0316631e2231436040518163ffffffff1660e01b815260040160206040518083038186803b15801561102857600080fd5b505afa15801561103c573d6000803e3d6000fd5b505050506040513d601f19601f82011682018060405250810190611060919061227d565b600c5460405163765e015960e01b81529192506000916001600160a01b039091169063765e0159906110969085906004016128a6565b60206040518083038186803b1580156110ae57600080fd5b505afa1580156110c2573d6000803e3d6000fd5b505050506040513d601f19601f820116820180604052508101906110e6919061227d565b90505b6001600160a01b0382161580159061110957506001600160a01b03811615155b156112ab5760035460405163b0d8e18160e01b81526001600160a01b039091169063b0d8e1819061113e9085906004016128a6565b60206040518083038186803b15801561115657600080fd5b505afa15801561116a573d6000803e3d6000fd5b505050506040513d601f19601f8201168201806040525081019061118e91906122cd565b60035460405163b0d8e18160e01b81526001600160a01b039091169063b0d8e181906111be9085906004016128a6565b60206040518083038186803b1580156111d657600080fd5b505afa1580156111ea573d6000803e3d6000fd5b505050506040513d601f19601f8201168201806040525081019061120e91906122cd565b111561121f57600092505050610f32565b600c5460405163765e015960e01b815291925082916001600160a01b039091169063765e0159906112549084906004016128a6565b60206040518083038186803b15801561126c57600080fd5b505afa158015611280573d6000803e3d6000fd5b505050506040513d601f19601f820116820180604052508101906112a4919061227d565b90506110e9565b60019250505090565b6000606486069050601181606481106112c957fe5b015460405163ec40167b60e01b81526001600160a01b039091169063ec40167b906112fe908890889088908890600401612925565b600060405180830381600087803b15801561131857600080fd5b505af11580156107f0573d6000803e3d6000fd5b60006064890690506011816064811061134157fe5b015460405163376874eb60e21b81526001600160a01b039091169063dda1d3ac90611381908b908b908b908b908b9060009081908d908d90600401612ad6565b600060405180830381600087803b15801561139b57600080fd5b505af11580156113af573d6000803e3d6000fd5b50505050505050505050505050565b6004546001600160a01b031681565b6000606484069050601181606481106113e257fe5b015460405163a1cb9dcb60e01b81526001600160a01b039091169063a1cb9dcb906109c19086908690600401612988565b60006064850690506011816064811061142857fe5b015460405163501c2c2360e11b81526001600160a01b039091169063a038584690610942908790879087906004016128de565b6000806064860690506011816064811061147157fe5b0154604051636ca5e76160e11b81526001600160a01b039091169063d94bcec2906114a4908890889088906004016128ba565b602060405180830381600087803b1580156114be57600080fd5b505af11580156114d2573d6000803e3d6000fd5b505050506040513d601f19601f820116820180604052508101906114f69190612299565b5050949350505050565b6005546001600160a01b031681565b6003546000906001600160a01b0316311561152c57506000610f32565b6004546001600160a01b0316311561154657506000610f32565b600560009054906101000a90046001600160a01b03166001600160a01b03166378a619de6040518163ffffffff1660e01b815260040160206040518083038186803b15801561159457600080fd5b505afa1580156115a8573d6000803e3d6000fd5b505050506040513d601f19601f820116820180604052508101906115cc91906122cd565b6005546001600160a01b031631146115e657506000610f32565b600660009054906101000a90046001600160a01b03166001600160a01b03166378a619de6040518163ffffffff1660e01b815260040160206040518083038186803b15801561163457600080fd5b505afa158015611648573d6000803e3d6000fd5b505050506040513d601f19601f8201168201806040525081019061166c91906122cd565b6006546001600160a01b0316311461168657506000610f32565b600760009054906101000a90046001600160a01b03166001600160a01b03166378a619de6040518163ffffffff1660e01b815260040160206040518083038186803b1580156116d457600080fd5b505afa1580156116e8573d6000803e3d6000fd5b505050506040513d601f19601f8201168201806040525081019061170c91906122cd565b6007546001600160a01b0316311461172657506000610f32565b600a546001600160a01b0316311561174057506000610f32565b600b546001600160a01b0316311561175a57506000610f32565b600c546001600160a01b0316311561177457506000610f32565b50600190565b600060648506905060006011826064811061179157fe5b0154600080546001600160a01b0390921692508231916117b49083908990611e6d565b60405163f701754f60e01b81529091506001600160a01b0384169063f701754f906117ec90849060009081908c908c90600401612a98565b600060405180830381600087803b15801561180657600080fd5b505af115801561181a573d6000803e3d6000fd5b505050505050505050505050565b60006064870690506011816064811061183d57fe5b015460405163eabb924d60e01b81526001600160a01b039091169063eabb924d906118749089908990899089908990600401612a98565b600060405180830381600087803b15801561188e57600080fd5b505af11580156118a2573d6000803e3d6000fd5b5050505050505050505050565b600080606485069050601181606481106118c557fe5b0154604051636628d36160e11b81526001600160a01b039091169063cc51a6c290610602908790879060040161290c565b60006064880690506011816064811061190b57fe5b0154604051600162023d0560e51b031981526001600160a01b039091169063ffb85f60906117ec908a908a908a908a908a908a90600401612b37565b6011816064811061195457fe5b01546001600160a01b0316905081565b600080600c60009054906101000a90046001600160a01b03166001600160a01b0316631e2231436040518163ffffffff1660e01b815260040160206040518083038186803b1580156119b557600080fd5b505afa1580156119c9573d6000803e3d6000fd5b505050506040513d601f19601f820116820180604052508101906119ed919061227d565b90505b6001600160a01b03811615610fcf576003546040516321e3780160e01b81526001916001600160a01b0316906321e3780190611a309085906004016128a6565b60206040518083038186803b158015611a4857600080fd5b505afa158015611a5c573d6000803e3d6000fd5b505050506040513d601f19601f82011682018060405250810190611a8091906122cd565b6004811115611a8b57fe5b6004811115611a9657fe5b14611aa5576000915050610f32565b60025460035460405163d66a255360e01b81526001600160a01b039091169063d66a255390611ad89085906004016128a6565b60206040518083038186803b158015611af057600080fd5b505afa158015611b04573d6000803e3d6000fd5b505050506040513d601f19601f82011682018060405250810190611b2891906122cd565b1015611b38576000915050610f32565b600354604051630326771360e51b81526001600160a01b03909116906364cee26090611b689084906004016128a6565b60206040518083038186803b158015611b8057600080fd5b505afa158015611b94573d6000803e3d6000fd5b505050506040513d601f19601f82011682018060405250810190611bb891906122cd565b611bc6576000915050610f32565b600c5460405163765e015960e01b81526001600160a01b039091169063765e015990611bf69084906004016128a6565b60206040518083038186803b158015611c0e57600080fd5b505afa158015611c22573d6000803e3d6000fd5b505050506040513d601f19601f82011682018060405250810190611c46919061227d565b90506119f0565b60008060648506905060118160648110611c6357fe5b015460405163390b5f2760e01b81526001600160a01b039091169063390b5f2790610602908790879060040161290c565b6005546000906001600160a01b0316311561177457506000610f32565b600060648506905060118160648110611cc657fe5b015460405163d190982560e01b81526001600160a01b039091169063d19098259061094290879087908790600401612b71565b60006014607554111561177457506000610f32565b600060648906905060118160648110611d2357fe5b01546040516315e9b18960e11b81526001600160a01b0390911690632bd3631290611381908b908b908b908b908b908b908b90600401612bef565b6009546001600160a01b031681565b600060648706905060118160648110611d8257fe5b0154604051637bd1f63960e11b81526001600160a01b039091169063f7a3ec72906118749089908990899089908990600401612a98565b600060648606905060118160648110611dce57fe5b0154604051631c33405760e11b81526001600160a01b039091169063386680ae906112fe908890889088908890600401612b8b565b600060648706905060118160648110611e1857fe5b015460405163f701754f60e01b81526001600160a01b039091169063f701754f906118749089908990899089908990600401612a98565b600a546001600160a01b031681565b6008546001600160a01b031681565b600080600b60009054906101000a90046001600160a01b03166001600160a01b03166398d5fdca6040518163ffffffff1660e01b815260040160206040518083038186803b158015611ebe57600080fd5b505afa158015611ed2573d6000803e3d6000fd5b505050506040513d601f19601f82011682018060405250810190611ef691906122cd565b905060008111611f0557600080fd5b6000611f2c82611f206002548761205090919063ffffffff16565b9063ffffffff61209c16565b9050808611611f3a57600080fd5b60008187038681611f4757fe5b0691909101925050505b9392505050565b600080600b60009054906101000a90046001600160a01b03166001600160a01b03166398d5fdca6040518163ffffffff1660e01b815260040160206040518083038186803b158015611fa957600080fd5b505afa158015611fbd573d6000803e3d6000fd5b505050506040513d601f19601f82011682018060405250810190611fe191906122cd565b6002549091508490600090611ffd90839063ffffffff6120db16565b9050600061200c888386612100565b9050858110156120445761202a86611f208a8763ffffffff61205016565b91506120416002548361213090919063ffffffff16565b92505b50909695505050505050565b60008261205f57506000612096565b8282028284828161206c57fe5b04146120935760405162461bcd60e51b815260040161208a90612a37565b60405180910390fd5b90505b92915050565b600061209383836040518060400160405280601a815260200179536166654d6174683a206469766973696f6e206279207a65726f60301b815250612172565b6000828201838110156120935760405162461bcd60e51b815260040161208a90612a02565b6000821561212757600061211e84611f20878663ffffffff61205016565b9150611f519050565b50600019611f51565b600061209383836040518060400160405280601e81526020017f536166654d6174683a207375627472616374696f6e206f766572666c6f7700008152506121a9565b600081836121935760405162461bcd60e51b815260040161208a91906129af565b50600083858161219f57fe5b0495945050505050565b600081848411156121cd5760405162461bcd60e51b815260040161208a91906129af565b505050900390565b6040518060c00160405280600081526020016000815260200160001515815260200160006001600160a01b0316815260200160006001600160a01b03168152602001600081525090565b803561209681612c63565b60008083601f84011261223b578182fd5b5081356001600160401b03811115612251578182fd5b602083019150836020808302850101111561226b57600080fd5b9250929050565b803561209681612c7b565b60006020828403121561228e578081fd5b815161209381612c63565b6000602082840312156122aa578081fd5b815161209381612c7b565b6000602082840312156122c6578081fd5b5035919050565b6000602082840312156122de578081fd5b5051919050565b600080600080608085870312156122fa578283fd5b84359350602085013561230c81612c63565b9250604085013561231c81612c63565b9396929550929360600135925050565b60008060008060608587031215612341578384fd5b84359350602085013561235381612c63565b925060408501356001600160401b0381111561236d578283fd5b6123798782880161222a565b95989497509550505050565b600080600060608486031215612399578283fd5b8335925060208401356123ab81612c63565b929592945050506040919091013590565b6000806000806000606086880312156123d3578081fd5b8535945060208601356001600160401b03808211156123f0578283fd5b6123fc89838a0161222a565b90965094506040880135915080821115612414578283fd5b506124218882890161222a565b969995985093965092949392505050565b600080600060408486031215612446578283fd5b8335925060208401356001600160401b03811115612462578283fd5b61246e8682870161222a565b9497909650939450505050565b60008060006060848603121561248f578283fd5b833592506020840135915060408401356124a881612c63565b809150509250925092565b60008060008060008060008060e0898b0312156124ce578283fd5b883597506020890135965060408901356124e781612c63565b955060608901356124f781612c63565b9450608089013561250781612c63565b935060a0890135925060c08901356001600160401b03811115612528578283fd5b6125348b828c0161222a565b999c989b5096995094979396929594505050565b60008060008060008060a08789031215612560578384fd5b8635955060208701359450604087013561257981612c63565b9350606087013561258981612c63565b925060808701356001600160401b038111156125a3578283fd5b6125af89828a0161222a565b979a9699509497509295939492505050565b600080600080600080600060c0888a0312156125db578081fd5b873596506020880135955060408801356125f481612c63565b9450606088013561260481612c63565b93506080880135925060a08801356001600160401b03811115612625578182fd5b6126318a828b0161222a565b989b979a50959850939692959293505050565b60008060008060608587031215612659578182fd5b843593506020850135925060408501356001600160401b0381111561236d578283fd5b6000806000806000858703610120811215612695578384fd5b863595506020870135945060c0603f19820112156126b1578384fd5b506126bc60c0612c3d565b60408701358152606087013560208201526126da8860808901612272565b60408201526126ec8860a0890161221f565b60608201526126fe8860c0890161221f565b608082015260e087013560a082015292506101008601356001600160401b03811115612728578182fd5b6124218882890161222a565b60008060008060008060008060e0898b03121561274f578182fd5b88359750602089013596506040890135955060608901356124f781612c63565b600080600080600060808688031215612786578283fd5b85359450602086013593506040860135925060608601356001600160401b03811115612728578182fd5b600080600080600080600060c0888a0312156127ca578081fd5b8735965060208801359550604088013594506060880135935060808801356127f181612c7b565b925060a08801356001600160401b03811115612625578182fd5b818352602080840193600091908185020181018584845b878110156128995782840389528135601e19883603018112612842578687fd5b87018035906001600160401b0382111561285a578788fd5b813603891315612868578788fd5b818652818782018888013750848101860187905298850198601f01601f191690930184019290840190600101612822565b5091979650505050505050565b6001600160a01b0391909116815260200190565b6001600160a01b039384168152919092166020820152604081019190915260600190565b6001600160a01b0384168152604060208201819052600090612903908301848661280b565b95945050505050565b6001600160a01b03929092168252602082015260400190565b6040808252810184905260008560608301825b87811015612968576020833561294d81612c63565b6001600160a01b031683529283019290910190600101612938565b50838103602085015261297c81868861280b565b98975050505050505050565b60006020825261299c60208301848661280b565b949350505050565b901515815260200190565b6000602080835283518082850152825b818110156129db578581018301518582016040015282016129bf565b818111156129ec5783604083870101525b50601f01601f1916929092016040019392505050565b6020808252601b908201527a536166654d6174683a206164646974696f6e206f766572666c6f7760281b604082015260600190565b60208082526021908201527f536166654d6174683a206d756c7469706c69636174696f6e206f766572666c6f6040820152607760f81b606082015260800190565b90815260200190565b9182526001600160a01b0316602082015260400190565b8581526001600160a01b03858116602083015284166040820152608060608201819052600090612acb908301848661280b565b979650505050505050565b8981526001600160a01b0389811660208301528881166040830152871660608201526080810186905260a0810185905260c0810184905261010060e08201819052600090612b27838201858761280b565b9c9b505050505050505050505050565b8681526001600160a01b038681166020830152851660408201526060810184905260a06080820181905260009061297c908301848661280b565b60008482526040602083015261290360408301848661280b565b60006101008683528551602084015260208601516040840152604086015115156060840152606086015160018060a01b0380821660808601528060808901511660a0860152505060a086015160c08401528060e0840152612acb818401858761280b565b878152602081018790526001600160a01b038681166040830152851660608201526080810184905260c060a08201819052600090612c30908301848661280b565b9998505050505050505050565b6040518181016001600160401b0381118282101715612c5b57600080fd5b604052919050565b6001600160a01b0381168114612c7857600080fd5b50565b8015158114612c7857600080fdfea164736f6c634300060b000a608060405234801561001057600080fd5b50600580546001600160a01b031916339081179091556040516000907f8be0079c531659141344cd1fd0a4f28419497f9722a3daafe3b4186f6b6457e0908290a3615ed280620000616000396000f3fe608060405234801561001057600080fd5b50600436106103595760003560e01c806301f16e181461035e578063048c661d14610373578063071a7541146103915780630b076557146103a657806312610e92146103b957806315d549f1146103cc5780631673c79a146103df57806318f2817a146104005780631f68f20a1461041357806321e378011461041b57806323487d201461042e57806324092669146104365780633b2f0e4e1461043e5780633cbaec20146104465780633cc742251461044e578063472b286f14610456578063480cd578146104695780634870dd9a1461047c57806349eefeee146104845780634e443d9e1461048c57806358b8a5d6146104ac5780635d6b480f146104bf5780635dba4c4a146104d25780635f94c327146104da57806360ac128f146104ed57806361ec893d1461050057806364cee260146105085780636bf96eda1461051b5780636ef643381461052e57806372423c171461055257806372fe25aa14610565578063741bef1a1461056d578063756b253e14610575578063795d26c3146105885780637f7dde4a14610590578063807d138d1461059857806382fe3eb9146105a0578063887105d3146105b35780638da5cb5b146105bb5780638f32d59b146105c357806391571384146105cb578063948ba6d2146105de57806395f122ce146105f157806396d711ff14610604578063991292e31461060c5780639976cf4514610614578063a20baee614610565578063a22b7d6814610627578063ad1c3e621461063a578063ae9187541461064d578063b0d8e18114610655578063b36cd07f14610668578063b4b0954d1461067b578063b7f8cf9b14610683578063b82f263d1461068b578063b91af97c1461069e578063bf9befb1146106c1578063c35bc550146106c9578063c7b55481146106d1578063c9fccede146106d9578063cbd138ae146106ec578063cd54a5e9146106ff578063d085835a14610707578063d293c7101461070f578063d380a37c14610722578063d3d6f8431461072a578063d66a25531461073d578063d9a7244414610750578063ddc7aed414610763578063e2ac77b01461076b578063e5cedb571461077e578063f09c5c8f14610786578063f80911de14610799578063f8f8d174146107a1578063fe2ba848146107a9575b600080fd5b61037161036c36600461555b565b6107bc565b005b61037b610a10565b60405161038891906158a7565b60405180910390f35b610399610a1f565b6040516103889190615d69565b6103716103b43660046153c3565b610a24565b6103996103c736600461544d565b610a49565b6103996103da3660046153c3565b610aa1565b6103f26103ed3660046153c3565b610b4c565b604051610388929190615d72565b61039961040e3660046153c3565b610b65565b610399610b78565b6103996104293660046153c3565b610b7e565b61037b610ba8565b610399610bb7565b61037b610bc2565b610399610bd1565b61037b610bd7565b61037161046436600461577e565b610be6565b6103996104773660046153c3565b6116f9565b610399611717565b61039961171c565b61049f61049a36600461574e565b611722565b60405161038891906159b0565b6103996104ba36600461574e565b61172d565b6103716104cd36600461544d565b61173b565b610371611787565b6103996104e836600461584f565b6117e0565b6103716104fb36600461581f565b6117fb565b610399611b7b565b6103996105163660046153c3565b611b80565b610371610529366004615478565b611b9e565b61054161053c3660046153c3565b611eef565b604051610388959493929190615da5565b61039961056036600461544d565b611f29565b610399611f86565b61037b611f92565b61037b61058336600461574e565b611fa1565b610399611fc8565b61037b6120f4565b610399612103565b6103716105ae3660046153c3565b612109565b61039961211a565b61037b6121f5565b61049f612204565b6103996105d936600461584f565b612215565b6103996105ec36600461574e565b612223565b6103996105ff3660046153c3565b612236565b6103996122fc565b61037b612302565b61039961062236600461544d565b612311565b61039961063536600461574e565b612344565b6103716106483660046153fb565b612357565b61037b6123c1565b6103996106633660046153c3565b6123d0565b61039961067636600461574e565b6123f4565b610399612402565b61037b612408565b61039961069936600461574e565b612417565b6106b16106ac3660046153c3565b612422565b6040516103889493929190615de5565b610399612486565b61039961248c565b610399612491565b6103996106e736600461584f565b61249d565b6103716106fa3660046153c3565b6124b1565b6103996124c4565b61037b6124ca565b61039961071d36600461544d565b6124d9565b6103996124f8565b61039961073836600461544d565b6124fe565b61039961074b3660046153c3565b612534565b61037b61075e36600461574e565b61254f565b61037b612579565b61049f6107793660046153c3565b612588565b6103996125e6565b6103996107943660046153c3565b6125ec565b61037b61261d565b61037b61262c565b6103716107b73660046153c3565b61263b565b6107c4612204565b6107e95760405162461bcd60e51b81526004016107e090615b18565b60405180910390fd5b80516107f49061264c565b610801816020015161264c565b61080e816040015161264c565b61081b816060015161264c565b610828816080015161264c565b6108358160a0015161264c565b6108428160c0015161264c565b61084f8160e0015161264c565b61085d81610100015161264c565b61086b81610120015161264c565b61087981610140015161264c565b61088781610160015161264c565b61089581610180015161264c565b6108a3816101a0015161264c565b8051600680546001600160a01b03199081166001600160a01b039384161790915560208301516001805483169184169190911790556040808401516002805484169185169190911790556060840151600780548416918516919091179055608084015160088054841691851691909117905560a084015160098054841691851691909117905560c084015160038054841691851691909117905560e0840151600a80548416918516919091179055610100840151600d80548416918516919091179055610120840151600b80548416918516919091179055610140840151600c80548416918516919091179055610160840151600480548416918516919091179055610180840151600e805484169185169190911790556101a0840151600f80549093169316929092179055517f9ba6e846e6c99c2990e180615ff084cd7dc0b8478058e7d26faf69f9f21891ca906109fd908390615c13565b60405180910390a1610a0d612695565b50565b6007546001600160a01b031681565b600281565b610a2c6126df565b600154600254610a0d916001600160a01b0390811691168361270b565b6000610a536126df565b6001600160a01b038316600090815260126020526040812054610a7c908463ffffffff61281d16565b6001600160a01b03851660009081526012602052604090208190559150505b92915050565b6000610aab6126df565b601980546001808201835560008381527f944998273e477b495144fb8794c914197f3ccb46be2900f4698fd0ef743c969590920180546001600160a01b0319166001600160a01b03871617905591549091610b06919061281d565b6001600160a01b03841660009081526012602052604090206003018054610100600160881b0319166101006001600160801b03939093169283021790559150505b919050565b6018602052600090815260409020805460019091015482565b6000610b6f6126df565b610a9b8261285f565b60105481565b6001600160a01b03811660009081526012602052604081206003015460ff166004811115610a9b57fe5b600f546001600160a01b031681565b66b1a2bc2ec5000081565b600b546001600160a01b031681565b601b5481565b6002546001600160a01b031681565b610bee615111565b506040805160e0810182526001546001600160a01b03908116825260025481166020830152600a54811692820192909252600c5482166060820152600d5482166080820152600954821660a082015260085490911660c0820152610c5061514d565b600f5460405163ddd88be560e01b81526000916001600160a01b03169063ddd88be590610c81908990600401615d69565b60006040518083038186803b158015610c9957600080fd5b505afa158015610cad573d6000803e3d6000fd5b50505050600f60009054906101000a90046001600160a01b03166001600160a01b031663c640c3766040518163ffffffff1660e01b815260040160006040518083038186803b158015610cff57600080fd5b505afa158015610d13573d6000803e3d6000fd5b50505050610d1f615192565b600354604051634e15f2a560e01b81526001600160a01b0390911690634e15f2a590610d51908990899060040161591a565b608060405180830381600087803b158015610d6b57600080fd5b505af1158015610d7f573d6000803e3d6000fd5b505050506040513d601f19601f82011682018060405250810190610da39190615689565b805160c0850152600e54602082015160408084015160608501519151631ba21c6b60e11b81529495506001600160a01b039093169363374438d693610ded939290916004016159bb565b60206040518083038186803b158015610e0557600080fd5b505afa158015610e19573d6000803e3d6000fd5b505050506040513d601f19601f82011682018060405250810190610e3d9190615766565b600f5460c085015160405163febf7cc760e01b81529294506001600160a01b03909116925063febf7cc791610e759190600401615d69565b60006040518083038186803b158015610e8d57600080fd5b505afa158015610ea1573d6000803e3d6000fd5b5050600f54604051632b60a45160e11b81526001600160a01b0390911692506356c148a29150610ed5908f90600401615d69565b60006040518083038186803b158015610eed57600080fd5b505afa158015610f01573d6000803e3d6000fd5b50505050600f60009054906101000a90046001600160a01b03166001600160a01b0316638cf306448460400151338f6040518463ffffffff1660e01b8152600401610f4e939291906158d4565b60006040518083038186803b158015610f6657600080fd5b505afa158015610f7a573d6000803e3d6000fd5b50505050610f86611fc8565b60e0830181905260408085015190516370a0823160e01b81526001600160a01b03909116906370a0823190610fbf9033906004016158a7565b60206040518083038186803b158015610fd757600080fd5b505afa158015610feb573d6000803e3d6000fd5b505050506040513d601f19601f8201168201806040525081019061100f9190615766565b111561101757fe5b8b8260000181815250506000600f60009054906101000a90046001600160a01b03166001600160a01b03166352576cdf85608001518e8660c001516040518463ffffffff1660e01b8152600401611070939291906158d4565b60206040518083038186803b15801561108857600080fd5b505afa15801561109c573d6000803e3d6000fd5b505050506040513d601f19601f820116820180604052508101906110c0919061553b565b156110cc57508a61126d565b83608001516001600160a01b0316634d6228316040518163ffffffff1660e01b815260040160206040518083038186803b15801561110957600080fd5b505afa15801561111d573d6000803e3d6000fd5b505050506040513d601f19601f8201168201806040525081019061114191906153df565b90505b6001600160a01b038116158015906111e15750600480546040805163044936b160e41b815290516001600160a01b03909216926344936b10928282019260209290829003018186803b15801561119957600080fd5b505afa1580156111ad573d6000803e3d6000fd5b505050506040513d601f19601f820116820180604052508101906111d19190615766565b6111df828560c001516124d9565b105b1561126d5783608001516001600160a01b031663b72703ac826040518263ffffffff1660e01b815260040161121691906158a7565b60206040518083038186803b15801561122e57600080fd5b505afa158015611242573d6000803e3d6000fd5b505050506040513d601f19601f8201168201806040525081019061126691906153df565b9050611144565b876112785760001997505b6001600160a01b038116158015906112905750825115155b801561129c5750600088115b15611420576080840151604051632dc9c0eb60e21b8152600019909901986000916001600160a01b03169063b72703ac906112db9085906004016158a7565b60206040518083038186803b1580156112f357600080fd5b505afa158015611307573d6000803e3d6000fd5b505050506040513d601f19601f8201168201806040525081019061132b91906153df565b9050611340856000015186602001518461270b565b6113486151bd565b6040518060e00160405280878152602001846001600160a01b03168152602001866000015181526020018660c0015181526020018e6001600160a01b031681526020018d6001600160a01b031681526020018c81525090506113a8615200565b6113b182612912565b90508060400151156113c557505050611420565b805160208701516113db9163ffffffff612d2a16565b60208088019190915281015160408701516113fb9163ffffffff612d2a16565b6040870152805186516114139163ffffffff61281d16565b8652509091506112789050565b60008360400151116114445760405162461bcd60e51b81526004016107e090615a51565b61145b83604001518460c001518560e00151612d4f565b5061146a836040015183612ddf565b606084018190526040840151611481919089612ded565b835160608086015190850151604051630a569c3760e41b81526001600160a01b039093169263a569c370926114ba9290916004016158bb565b600060405180830381600087803b1580156114d457600080fd5b505af11580156114e8573d6000803e3d6000fd5b5050505083606001516001600160a01b03166301c5acfa84606001516040518263ffffffff1660e01b81526004016115209190615d69565b600060405180830381600087803b15801561153a57600080fd5b505af115801561154e573d6000803e3d6000fd5b50505050606083015160408401516115659161281d565b8360800181815250507f43a3f4082a4dbc33d78e317d2497d3a730bc7fc3574159dcea1056e62e5d9ad88d8460200151856040015186606001516040516115af9493929190615de5565b60405180910390a183604001516001600160a01b0316639dc29fac3385602001516040518363ffffffff1660e01b81526004016115ed9291906158bb565b600060405180830381600087803b15801561160757600080fd5b505af115801561161b573d6000803e3d6000fd5b505085516020860151604051637d9ee87160e11b81526001600160a01b03909216935063fb3dd0e2925061165191600401615d69565b600060405180830381600087803b15801561166b57600080fd5b505af115801561167f573d6000803e3d6000fd5b505085516080860151604051630a569c3760e41b81526001600160a01b03909216935063a569c37092506116b8913391906004016158bb565b600060405180830381600087803b1580156116d257600080fd5b505af11580156116e6573d6000803e3d6000fd5b5050505050505050505050505050505050565b6001600160a01b031660009081526012602052604090206001015490565b60c881565b60195490565b6000610a9b82612e2d565b6000610a9b60105483612ecd565b6117436126df565b80600481111561174f57fe5b6001600160a01b0383166000908152601260205260409020600301805460ff1916600183600481111561177e57fe5b02179055505050565b61178f6126df565b6000611799612f60565b9050670de0b6b3a76400008111156117ad57fe5b6010819055604051600080516020615ea6833981519152906117d0908390615d69565b60405180910390a1610a0d612fb6565b60006117f46117ee83612223565b84613016565b9392505050565b611803615111565b506040805160e0810182526001546001600160a01b03908116825260025481166020830152600092820183905260608201839052600d548116608083015260a0820183905260c082019290925260075490911661185e615223565b611866615254565b61186e615192565b600354604051634e15f2a560e01b81526001600160a01b0390911690634e15f2a5906118a0908a908a9060040161591a565b608060405180830381600087803b1580156118ba57600080fd5b505af11580156118ce573d6000803e3d6000fd5b505050506040513d601f19601f820116820180604052508101906118f29190615689565b90508060000151836000018181525050836001600160a01b0316633927e0066040518163ffffffff1660e01b815260040160206040518083038186803b15801561193b57600080fd5b505afa15801561194f573d6000803e3d6000fd5b505050506040513d601f19601f820116820180604052508101906119739190615766565b6020840152825161198390612e2d565b15801560408501526119aa576119a385846000015185602001518b613034565b91506119ca565b6119c785600001518660200151856000015186602001518c61346a565b91505b60008260200151116119d857fe5b608082015160a083015160405163335525ad60e01b81526001600160a01b0387169263335525ad92611a0c92600401615d72565b600060405180830381600087803b158015611a2657600080fd5b505af1158015611a3a573d6000803e3d6000fd5b50505050611a5a856000015186602001518460c001518560e0015161361b565b61010082015115611ad1578451600954610100840151604051630a569c3760e41b81526001600160a01b039384169363a569c37093611a9e939116916004016158bb565b600060405180830381600087803b158015611ab857600080fd5b505af1158015611acc573d6000803e3d6000fd5b505050505b611ae38560000151836040015161387e565b6020820151606084015261010082015160408301518351611b1b9291611b0f919063ffffffff61281d16565b9063ffffffff61281d16565b60808401819052606080850151604080860151928601519051600080516020615e6683398151915294611b519490929091615de5565b60405180910390a1611b71856000015133846060015185604001516139ba565b5050505050505050565b603c81565b6001600160a01b031660009081526012602052604090206002015490565b8251611bbc5760405162461bcd60e51b81526004016107e090615b4d565b6001546002546007546001600160a01b03928316929182169116611bde615223565b611be6615254565b611bee615192565b600354604051634e15f2a560e01b81526001600160a01b0390911690634e15f2a590611c20908b908b9060040161591a565b608060405180830381600087803b158015611c3a57600080fd5b505af1158015611c4e573d6000803e3d6000fd5b505050506040513d601f19601f82011682018060405250810190611c729190615689565b90508060000151836000018181525050836001600160a01b0316633927e0066040518163ffffffff1660e01b815260040160206040518083038186803b158015611cbb57600080fd5b505afa158015611ccf573d6000803e3d6000fd5b505050506040513d601f19601f82011682018060405250810190611cf39190615766565b60208401528251611d0390612e2d565b1580156040850152611d2b57611d248686856000015186602001518d613a8d565b9150611d43565b611d408686856000015186602001518d613d2b565b91505b6000826020015111611d675760405162461bcd60e51b81526004016107e090615a6c565b608082015160a083015160405163335525ad60e01b81526001600160a01b0387169263335525ad92611d9b92600401615d72565b600060405180830381600087803b158015611db557600080fd5b505af1158015611dc9573d6000803e3d6000fd5b50505050611de186868460c001518560e0015161361b565b61010082015115611e5857600954610100830151604051630a569c3760e41b81526001600160a01b038981169363a569c37093611e259392909116916004016158bb565b600060405180830381600087803b158015611e3f57600080fd5b505af1158015611e53573d6000803e3d6000fd5b505050505b611e6686836040015161387e565b6020820151606084015261010082015160408301518351611e929291611b0f919063ffffffff61281d16565b60808401819052606080850151604080860151928601519051600080516020615e6683398151915294611ec89490929091615de5565b60405180910390a1611ee48633846060015185604001516139ba565b505050505050505050565b60126020526000908152604090208054600182015460028301546003909301549192909160ff81169061010090046001600160801b031685565b6000611f336126df565b6001600160a01b038316600090815260126020526040812060010154611f5f908463ffffffff612d2a16565b6001600160a01b038516600090815260126020526040902060010181905591505092915050565b670de0b6b3a764000081565b6003546001600160a01b031681565b60198181548110611fae57fe5b6000918252602090912001546001600160a01b0316905081565b600080600160009054906101000a90046001600160a01b03166001600160a01b0316635227d6a86040518163ffffffff1660e01b815260040160206040518083038186803b15801561201957600080fd5b505afa15801561202d573d6000803e3d6000fd5b505050506040513d601f19601f820116820180604052508101906120519190615766565b90506000600260009054906101000a90046001600160a01b03166001600160a01b0316635227d6a86040518163ffffffff1660e01b815260040160206040518083038186803b1580156120a357600080fd5b505afa1580156120b7573d6000803e3d6000fd5b505050506040513d601f19601f820116820180604052508101906120db9190615766565b90506120ed828263ffffffff612d2a16565b9250505090565b6001546001600160a01b031681565b60145481565b6121116126df565b610a0d81613e6b565b600080600160009054906101000a90046001600160a01b03166001600160a01b03166378a619de6040518163ffffffff1660e01b815260040160206040518083038186803b15801561216b57600080fd5b505afa15801561217f573d6000803e3d6000fd5b505050506040513d601f19601f820116820180604052508101906121a39190615766565b90506000600260009054906101000a90046001600160a01b03166001600160a01b03166378a619de6040518163ffffffff1660e01b815260040160206040518083038186803b1580156120a357600080fd5b6005546001600160a01b031690565b6005546001600160a01b0316331490565b60006117f46117ee836123f4565b6000610a9b612230612f60565b83613ec8565b6001600160a01b0381166000908152601860205260408120546016548290612264908363ffffffff61281d16565b905080158061229d575060016001600160a01b03851660009081526012602052604090206003015460ff16600481111561229a57fe5b14155b156122ad57600092505050610b47565b6001600160a01b038416600090815260126020526040812060020154906122f2670de0b6b3a76400006122e6848663ffffffff613f3016565b9063ffffffff613f6a16565b9695505050505050565b60155481565b6004546001600160a01b031681565b600061231b6126df565b6001600160a01b038316600090815260126020526040812054610a7c908463ffffffff612d2a16565b6000610a9b612351612f60565b83612ecd565b61236083613fa9565b60408051600180825281830190925260609160208083019080368337019050509050838160008151811061239057fe5b60200260200101906001600160a01b031690816001600160a01b0316815250506123bb818484611b9e565b50505050565b600d546001600160a01b031681565b60008060006123de84613ff2565b915091506123ec8282614070565b949350505050565b6000610a9b60105483613ec8565b60175481565b6006546001600160a01b031681565b6000610a9b826140a5565b6001600160a01b0381166000908152601260205260408120805460019091015490918061244e856125ec565b915061245985612236565b905061246b848363ffffffff612d2a16565b935061247d838263ffffffff612d2a16565b92509193509193565b60135481565b600081565b670ddd4b8c6c7d70d881565b60006117f46124ab83612344565b846140c9565b6124b96126df565b610a0d816002614109565b60165481565b6000546001600160a01b031681565b60008060006124e785613ff2565b9150915060006122f2838387614274565b60115481565b60006125086126df565b6001600160a01b038316600090815260126020526040812060010154611f5f908463ffffffff61281d16565b6001600160a01b031660009081526012602052604090205490565b60006019828154811061255e57fe5b6000918252602090912001546001600160a01b031692915050565b600e546001600160a01b031681565b600060016001600160a01b03831660009081526012602052604090206003015460ff1660048111156125b657fe5b146125c357506000610b47565b506016546001600160a01b03821660009081526018602052604090205410919050565b601a5481565b6001600160a01b0381166000908152601860205260408120600101546017548290612264908363ffffffff61281d16565b600c546001600160a01b031681565b600a546001600160a01b031681565b6126436126df565b610a0d816142a4565b6001600160a01b0381166126725760405162461bcd60e51b81526004016107e090615b83565b803b806126915760405162461bcd60e51b81526004016107e090615bbd565b5050565b6005546040516000916001600160a01b0316907f8be0079c531659141344cd1fd0a4f28419497f9722a3daafe3b4186f6b6457e0908390a3600580546001600160a01b0319169055565b6006546001600160a01b031633146127095760405162461bcd60e51b81526004016107e090615ba2565b565b61271481612588565b156128185761272281613fa9565b600061272d82612236565b9050600061273a836125ec565b6001600160a01b038416600090815260126020526040902060010154909150612769908363ffffffff612d2a16565b6001600160a01b038416600090815260126020526040902060018101919091555461279a908263ffffffff612d2a16565b6001600160a01b0384166000908152601260205260409020556127bc83613e6b565b6127c8858583856142f2565b6001600160a01b038316600081815260126020526040808220805460018201546002909201549251600080516020615e868339815191529461280d94929392916159d1565b60405180910390a250505b505050565b60006117f483836040518060400160405280601e81526020017f536166654d6174683a207375627472616374696f6e206f766572666c6f7700008152506143da565b6001600160a01b038116600090815260126020526040812060010154819061288690614406565b6001600160a01b0384166000908152601260205260409020600201805490829055601354919250906128d09083906128c4908463ffffffff61281d16565b9063ffffffff612d2a16565b60138190556040517f6bac5e0eb3c44eb03a60ab11ec3a2c051771616aecadbcfff2630aabae5203829161290391615d69565b60405180910390a15092915050565b61291a615200565b6129226152a0565b6004805460408051631549b76d60e01b815290516001600160a01b0390921692631549b76d928282019260209290829003018186803b15801561296457600080fd5b505afa158015612978573d6000803e3d6000fd5b505050506040513d601f19601f8201168201806040525081019061299c9190615766565b8152600480546040805163c4dc70d360e01b815290516001600160a01b039092169263c4dc70d3928282019260209290829003018186803b1580156129e057600080fd5b505afa1580156129f4573d6000803e3d6000fd5b505050506040513d601f19601f82011682018060405250810190612a189190615766565b6020808301919091526040808501518351868401516001600160a01b0316600090815260129094529190922054612a5f9291612a5a919063ffffffff61281d16565b614442565b8083526060840151612a83916122e690670de0b6b3a764000063ffffffff613f3016565b6020808401919091528251848201516001600160a01b031660009081526012909252604090912054612aba9163ffffffff61281d16565b604080830191909152602080840151858201516001600160a01b03166000908152601290925291902060010154612af69163ffffffff61281d16565b6060820152805160408201511415612b8157612b1583602001516142a4565b612b2483602001516004614109565b612b408360000151846020015183600001518460600151614458565b82602001516001600160a01b0316600080516020615e8683398151915260008060006003604051612b7494939291906159d1565b60405180910390a2612d24565b6000612b9582606001518360400151614070565b90508360c0015181141580612bb957508160200151612bb783604001516145bb565b105b15612bcc57505060016040820152610b47565b612bd46152c8565b604051806080016040528086602001516001600160a01b0316815260200183815260200186608001516001600160a01b031681526020018660a001516001600160a01b031681525090508460000151608001516001600160a01b031663806093b8826040518263ffffffff1660e01b8152600401612c529190615d30565b600060405180830381600087803b158015612c6c57600080fd5b505af1158015612c80573d6000803e3d6000fd5b505050604080850151602080890180516001600160a01b0390811660009081526012909352848320939093556060880151815190931682529290206001015551612cca915061285f565b5060208086015160408086015160608701516001600160a01b039093166000818152601290955293829020600201549151600080516020615e8683398151915293612d199390916003906159d1565b60405180910390a250505b50919050565b6000828201838110156117f45760405162461bcd60e51b81526004016107e090615a87565b600080612d66836122e6878763ffffffff613f3016565b90506000612d97612d89612d8184600263ffffffff613f6a16565b6128c4612f60565b670de0b6b3a7640000614442565b905060008111612da357fe5b6010819055604051600080516020615ea683398151915290612dc6908390615d69565b60405180910390a1612dd6612fb6565b95945050505050565b60006117f46124ab8361172d565b6000612e0b836122e686670de0b6b3a764000063ffffffff613f3016565b9050818111156123bb5760405162461bcd60e51b81526004016107e090615bdc565b600080612e39836140a5565b90506000600460009054906101000a90046001600160a01b03166001600160a01b031663bb4095226040518163ffffffff1660e01b815260040160206040518083038186803b158015612e8b57600080fd5b505afa158015612e9f573d6000803e3d6000fd5b505050506040513d601f19601f82011682018060405250810190612ec39190615766565b9091109392505050565b60006117f4612d89836128c486600460009054906101000a90046001600160a01b03166001600160a01b0316638abf30b36040518163ffffffff1660e01b815260040160206040518083038186803b158015612f2857600080fd5b505afa158015612f3c573d6000803e3d6000fd5b505050506040513d601f19601f820116820180604052508101906128c49190615766565b600080612f7d603c6122e66011544261281d90919063ffffffff16565b90506000612f93670ddd4b8c6c7d70d883614649565b90506120ed670de0b6b3a76400006122e683601054613f3090919063ffffffff16565b6000612fcd6011544261281d90919063ffffffff16565b9050603c8110610a0d574260118190556040517f860f8d2f0c74dd487e89e2883e3b25b8159ce1e1b3433a291cba7b82c508f3bc9161300b91615d69565b60405180910390a150565b60006117f4670de0b6b3a76400006122e6858563ffffffff613f3016565b61303c615254565b6130446152ef565b61304c615254565b848252600060a083015261305e611fc8565b60c083015261306b61211a565b8260e001818152505086608001516001600160a01b0316634d6228316040518163ffffffff1660e01b815260040160206040518083038186803b1580156130b157600080fd5b505afa1580156130c5573d6000803e3d6000fd5b505050506040513d601f19601f820116820180604052508101906130e991906153df565b82606001906001600160a01b031690816001600160a01b03168152505086608001516001600160a01b0316631e2231436040518163ffffffff1660e01b815260040160206040518083038186803b15801561314357600080fd5b505afa158015613157573d6000803e3d6000fd5b505050506040513d601f19601f8201168201806040525081019061317b91906153df565b6001600160a01b039081166080840152600480546040805163044936b160e41b8152905191909316926344936b109281810192602092909190829003018186803b1580156131c857600080fd5b505afa1580156131dc573d6000803e3d6000fd5b505050506040513d601f19601f820116820180604052508101906132009190615766565b610100830152600060208301525b83826020015110801561323b575081608001516001600160a01b031682606001516001600160a01b031614155b156134605760808701516060830151604051632dc9c0eb60e21b81526000926001600160a01b03169163b72703ac9161327791906004016158a7565b60206040518083038186803b15801561328f57600080fd5b505afa1580156132a3573d6000803e3d6000fd5b505050506040513d601f19601f820116820180604052508101906132c791906153df565b90506132d78360600151886124d9565b604084015260a08301516133d5578261010001518360400151101580156132fd57508251155b156133085750613460565b600061331d8460e001518560c001518a614274565b895160208b015160608701516040880151885194955061333e94868e6146f4565b60808101518551919450613358919063ffffffff61281d16565b8452608083015160c08501516133739163ffffffff61281d16565b60c0850152610100830151604084015160a085015160e08701516133a59392611b0f929091839163ffffffff61281d16565b60e08501526133b48584614b3a565b94506133c98460e001518560c001518a614c51565b1560a085015250613442565b8260a0015180156133ee57508261010001518360400151105b1561343c5761340f8860000151896020015185606001518660000151614ced565b60808101518451919350613429919063ffffffff61281d16565b83526134358483614b3a565b9350613442565b50613460565b6001600160a01b03166060830152602082018051600101905261320e565b5050949350505050565b613472615254565b61347a6152ef565b613482615254565b600d54858352600480546040805163044936b160e41b815290516001600160a01b03948516946000949316926344936b1092808201926020929091829003018186803b1580156134d157600080fd5b505afa1580156134e5573d6000803e3d6000fd5b505050506040513d601f19601f820116820180604052508101906135099190615766565b6000602086015290505b858460200151101561360e57816001600160a01b0316634d6228316040518163ffffffff1660e01b815260040160206040518083038186803b15801561355857600080fd5b505afa15801561356c573d6000803e3d6000fd5b505050506040513d601f19601f8201168201806040525081019061359091906153df565b6001600160a01b0316606085018190526135aa90896124d9565b604085018190528111156135f9576135cc8a8a86606001518760000151614ced565b608081015185519194506135e6919063ffffffff61281d16565b84526135f28584614b3a565b94506135fe565b61360e565b6020840180516001019052613513565b5050505095945050505050565b81613625576123bb565b601a54600090613647906128c484670de0b6b3a764000063ffffffff613f3016565b9050600061366c601b546128c4670de0b6b3a764000087613f3090919063ffffffff16565b9050600061368560135484613f6a90919063ffffffff16565b9050600061369e60135484613f6a90919063ffffffff16565b90506136c56136b860135484613f3090919063ffffffff16565b859063ffffffff61281d16565b601a556013546136ed906136e090839063ffffffff613f3016565b849063ffffffff61281d16565b601b55601654613703908363ffffffff612d2a16565b601655601754613719908263ffffffff612d2a16565b60178190556016546040517f9f8bc8ab0daf5bceef75ecfd2085d1fcc6548c657ea970d9a23a60610d0737e3926137509291615d72565b60405180910390a1604051637d9ee87160e11b81526001600160a01b0389169063fb3dd0e290613784908990600401615d69565b600060405180830381600087803b15801561379e57600080fd5b505af11580156137b2573d6000803e3d6000fd5b50506040516333681ca560e21b81526001600160a01b038a16925063cda0729491506137e2908990600401615d69565b600060405180830381600087803b1580156137fc57600080fd5b505af1158015613810573d6000803e3d6000fd5b5050604051630a569c3760e41b81526001600160a01b038b16925063a569c3709150613842908a9089906004016158bb565b600060405180830381600087803b15801561385c57600080fd5b505af1158015613870573d6000803e3d6000fd5b505050505050505050505050565b60135460145560025460408051633c530cef60e11b81529051613977926001600160a01b0316916378a619de916004808301926020929190829003018186803b1580156138ca57600080fd5b505afa1580156138de573d6000803e3d6000fd5b505050506040513d601f19601f820116820180604052508101906139029190615766565b6128c483856001600160a01b03166378a619de6040518163ffffffff1660e01b815260040160206040518083038186803b15801561393f57600080fd5b505afa158015613953573d6000803e3d6000fd5b505050506040513d601f19601f82011682018060405250810190611b0f9190615766565b60158190556014546040517f51bf4c63ec3cba9d03d43238abbdd979dd91bd16d9895c74ceea9118c7baaf60926139ae9291615d72565b60405180910390a15050565b8115613a2b57600a54600854604051631062c15f60e11b81526001600160a01b03928316926320c582be926139f892911690879087906004016158d4565b600060405180830381600087803b158015613a1257600080fd5b505af1158015613a26573d6000803e3d6000fd5b505050505b80156123bb57604051630a569c3760e41b81526001600160a01b0385169063a569c37090613a5f90869085906004016158bb565b600060405180830381600087803b158015613a7957600080fd5b505af1158015611b71573d6000803e3d6000fd5b613a95615254565b613a9d6152ef565b613aa5615254565b848252600060a0830152613ab7611fc8565b60c0830152613ac461211a565b60e0830152600480546040805163044936b160e41b815290516000936001600160a01b03909316926344936b1092808201926020929091829003018186803b158015613b0f57600080fd5b505afa158015613b23573d6000803e3d6000fd5b505050506040513d601f19601f82011682018060405250810190613b479190615766565b6000602085015290505b845183602001511015613d1f5784836020015181518110613b6e57fe5b6020908102919091018101516001600160a01b03166060850181905260009081526012909152604090206003015460019060ff166004811115613bad57fe5b14613bb757613d0f565b613bc58360600151886124d9565b604084015260a0830151613cb95780836040015110158015613be657508251155b15613bf057613d0f565b6000613c058460e001518560c001518a614274565b9050613c228a8a866060015187604001518860000151868e6146f4565b60808101518551919450613c3c919063ffffffff61281d16565b8452608083015160c0850151613c579163ffffffff61281d16565b60c0850152610100830151604084015160a085015160e0870151613c899392611b0f929091839163ffffffff61281d16565b60e0850152613c988584614b3a565b9450613cad8460e001518560c001518a614c51565b1560a085015250613d0f565b8260a001518015613ccd5750808360400151105b15613d0f57613ce6898985606001518660000151614ced565b60808101518451919350613d00919063ffffffff61281d16565b8352613d0c8483614b3a565b93505b6020830180516001019052613b51565b50505095945050505050565b613d33615254565b613d3b6152ef565b613d43615254565b848252600480546040805163044936b160e41b815290516000936001600160a01b03909316926344936b1092808201926020929091829003018186803b158015613d8c57600080fd5b505afa158015613da0573d6000803e3d6000fd5b505050506040513d601f19601f82011682018060405250810190613dc49190615766565b6000602085015290505b845183602001511015613d1f5784836020015181518110613deb57fe5b60209081029190910101516001600160a01b031660608401819052613e1090886124d9565b60408401819052811115613e5b57613e32898985606001518660000151614ced565b60808101518451919350613e4c919063ffffffff61281d16565b8352613e588483614b3a565b93505b6020830180516001019052613dce565b601680546001600160a01b038316600090815260186020526040908190209182556017546001909201829055915491517fc437f324d85e369394148dd9d62f98f534b382e01ed3dd2eb98138fb6d3ab49a9261300b929091615d72565b60006117f4613f23836128c486600460009054906101000a90046001600160a01b03166001600160a01b0316635e9e32126040518163ffffffff1660e01b815260040160206040518083038186803b158015612f2857600080fd5b66b1a2bc2ec50000614442565b600082613f3f57506000610a9b565b82820282848281613f4c57fe5b04146117f45760405162461bcd60e51b81526004016107e090615ad7565b60006117f483836040518060400160405280601a815260200179536166654d6174683a206469766973696f6e206279207a65726f60301b815250614e96565b60016001600160a01b03821660009081526012602052604090206003015460ff166004811115613fd557fe5b14610a0d5760405162461bcd60e51b81526004016107e090615abc565b600080600061400084612236565b9050600061400d856125ec565b6001600160a01b03861660009081526012602052604090206001015490915061403c908363ffffffff612d2a16565b6001600160a01b038616600090815260126020526040902054614065908363ffffffff612d2a16565b935093505050915091565b6000811561409c57614095826122e68568056bc75e2d6310000063ffffffff613f3016565b9050610a9b565b50600019610a9b565b6000806140b061211a565b905060006140bc611fc8565b90506123ec828286614274565b6000806140e8670de0b6b3a76400006122e6868663ffffffff613f3016565b90508281106117f45760405162461bcd60e51b81526004016107e090615b68565b600081600481111561411757fe5b141580156141315750600181600481111561412e57fe5b14155b61413757fe5b601954600f546040516301ff3f2760e01b81526001600160a01b03909116906301ff3f279061416a908490600401615d69565b60006040518083038186803b15801561418257600080fd5b505afa158015614196573d6000803e3d6000fd5b5050506001600160a01b0384166000908152601260205260409020600301805484925060ff191660018360048111156141cb57fe5b02179055506001600160a01b038316600090815260126020908152604080832060018082018590559084905560189092528220828155015561420d8382614ecd565b600d54604051631484968760e11b81526001600160a01b03909116906329092d0e9061423d9086906004016158a7565b600060405180830381600087803b15801561425757600080fd5b505af115801561426b573d6000803e3d6000fd5b50505050505050565b6000821561429b576000614292846122e6878663ffffffff613f3016565b91506117f49050565b506000196117f4565b6001600160a01b0381166000908152601260205260409020600201546013546142d29163ffffffff61281d16565b6013556001600160a01b0316600090815260126020526040812060020155565b604051637d9ee87160e11b81526001600160a01b0384169063fb3dd0e29061431e908590600401615d69565b600060405180830381600087803b15801561433857600080fd5b505af115801561434c573d6000803e3d6000fd5b50506040516333681ca560e21b81526001600160a01b038716925063cda07294915061437c908590600401615d69565b600060405180830381600087803b15801561439657600080fd5b505af11580156143aa573d6000803e3d6000fd5b50506040516306fc5daf60e01b81526001600160a01b03861692506306fc5daf9150613a5f908490600401615d69565b600081848411156143fe5760405162461bcd60e51b81526004016107e091906159fe565b505050900390565b6000806015546000141561441b575081610a9b565b60006014541161442757fe5b6117f46015546122e660145486613f3090919063ffffffff16565b600081831061445157816117f4565b5090919050565b6040808501516008549151632770a7eb60e21b81526001600160a01b0391821692639dc29fac926144909291169086906004016158bb565b600060405180830381600087803b1580156144aa57600080fd5b505af11580156144be573d6000803e3d6000fd5b50508551604051637d9ee87160e11b81526001600160a01b03909116925063fb3dd0e291506144f1908590600401615d69565b600060405180830381600087803b15801561450b57600080fd5b505af115801561451f573d6000803e3d6000fd5b505050508360a001516001600160a01b0316633f10abab84836040518363ffffffff1660e01b81526004016145559291906158bb565b600060405180830381600087803b15801561456f57600080fd5b505af1158015614583573d6000803e3d6000fd5b5050855160a0870151604051630a569c3760e41b81526001600160a01b03909216935063a569c3709250613a5f9185906004016158bb565b6004805460408051631549b76d60e01b8152905160009384936001600160a01b031692631549b76d9281830192602092829003018186803b1580156145ff57600080fd5b505afa158015614613573d6000803e3d6000fd5b505050506040513d601f19601f820116820180604052508101906146379190615766565b90506117f4838263ffffffff61281d16565b6000631f54050082111561465f57631f54050091505b816146735750670de0b6b3a7640000610a9b565b670de0b6b3a764000083835b60018111156146ea57600281066146b45761469a828361506b565b91506146ad81600263ffffffff613f6a16565b90506146e5565b6146be828461506b565b92506146ca828361506b565b91506146e260026122e683600163ffffffff61281d16565b90505b61467f565b6122f2828461506b565b6146fc615254565b61470461534f565b6019546001106147145750614b2f565b61471d87612422565b6040850152602084810191909152840181905290835261473c9061509e565b60408084019190915260048054825163044936b160e41b815292516000936001600160a01b03909216926344936b1092808201926020929091829003018186803b15801561478957600080fd5b505afa15801561479d573d6000803e3d6000fd5b505050506040513d601f19601f820116820180604052508101906147c19190615766565b9050600460009054906101000a90046001600160a01b03166001600160a01b0316631549b76d6040518163ffffffff1660e01b815260040160206040518083038186803b15801561481157600080fd5b505afa158015614825573d6000803e3d6000fd5b505050506040513d601f19601f820116820180604052508101906148499190615766565b6060840152604083015160208401516148679163ffffffff61281d16565b8252670de0b6b3a764000087116149325761488c8a8a846020015185604001516142f2565b614895886142a4565b60006080840181905260a0840152825160c0840152815160e08401526148bc886003614109565b825160208401516040516001600160a01b038b1692600080516020615e46833981519152926148ed92600290615d80565b60405180910390a2876001600160a01b0316600080516020615e868339815191526000806000600260405161492594939291906159d1565b60405180910390a2614b2c565b670de0b6b3a76400008711801561494857508087105b15614998576149618a8a846020015185604001516142f2565b61496a886142a4565b825182516149799190886150a5565b60e087015260c086015260a085015260808401526148bc886003614109565b8087101580156149a757508487105b80156149b4575082518610155b15614b1a576149cd8a8a846020015185604001516142f2565b856149d457fe5b6149dd886142a4565b600f548351602085015160405163372bed0560e21b81526001600160a01b039093169263dcafb41492614a1692909189906004016159bb565b6101206040518083038186803b158015614a2f57600080fd5b505afa158015614a43573d6000803e3d6000fd5b505050506040513d601f19601f82011682018060405250810190614a6791906156d0565b9250614a74886003614109565b61010083015115614ae957600954610100840151604051633f10abab60e01b81526001600160a01b0390921691633f10abab91614ab6918c91906004016158bb565b600060405180830381600087803b158015614ad057600080fd5b505af1158015614ae4573d6000803e3d6000fd5b505050505b825160a08401516040516001600160a01b038b1692600080516020615e46833981519152926148ed92600290615d80565b614b22615254565b9250614b2f915050565b50505b979650505050505050565b614b42615254565b60408083015190840151614b5b9163ffffffff612d2a16565b604082015260608083015190840151614b799163ffffffff612d2a16565b606082015281516020840151614b949163ffffffff612d2a16565b6020808301919091528201518351614bb19163ffffffff612d2a16565b815260808083015190840151614bcc9163ffffffff612d2a16565b608082015260a08083015190840151614bea9163ffffffff612d2a16565b60a082015260c08083015190840151614c089163ffffffff612d2a16565b60c082015260e08083015190840151614c269163ffffffff612d2a16565b60e08201526101008083015190840151614c459163ffffffff612d2a16565b61010082015292915050565b6000600460009054906101000a90046001600160a01b03166001600160a01b031663bb4095226040518163ffffffff1660e01b815260040160206040518083038186803b158015614ca157600080fd5b505afa158015614cb5573d6000803e3d6000fd5b505050506040513d601f19601f82011682018060405250810190614cd99190615766565b614ce4858585614274565b10949350505050565b614cf5615254565b614cfd61534f565b614d0684612422565b60408501908152602085810192835286019290925291845290519051614d309188918891906142f2565b614d39846142a4565b614d46826020015161509e565b604080840191909152600480548251631549b76d60e01b815292516001600160a01b0390911692631549b76d9281810192602092909190829003018186803b158015614d9157600080fd5b505afa158015614da5573d6000803e3d6000fd5b505050506040513d601f19601f82011682018060405250810190614dc99190615766565b606083015260408201516020830151600091614deb919063ffffffff61281d16565b9050614dfc836000015182866150a5565b60e087015260c086015260a08501526080840152614e1b856003614109565b825160208401516040516001600160a01b03881692600080516020615e4683398151915292614e4c92600190615d80565b60405180910390a2846001600160a01b0316600080516020615e8683398151915260008060006001604051614e8494939291906159d1565b60405180910390a25050949350505050565b60008183614eb75760405162461bcd60e51b81526004016107e091906159fe565b506000838581614ec357fe5b0495945050505050565b6001600160a01b03821660009081526012602052604081206003015460ff1690816004811115614ef957fe5b14158015614f1357506001816004811115614f1057fe5b14155b614f1957fe5b6001600160a01b03831660009081526012602052604081206003015461010090046001600160801b031690614f4f84600161281d565b905080826001600160801b03161115614f6457fe5b600060198281548110614f7357fe5b600091825260209091200154601980546001600160a01b03909216925082916001600160801b038616908110614fa557fe5b600091825260208083209190910180546001600160a01b0319166001600160a01b03948516179055918316815260129091526040908190206003018054610100600160881b0319166101006001600160801b03871602179055517f02b04ae5f7be9ca7c103293a2aa15f3c339d15d6eda53b721fef7b0e609c831a9061502e90839086906158f8565b60405180910390a1601980548061504157fe5b600082815260209020810160001990810180546001600160a01b0319169055019055505050505050565b60008061507e848463ffffffff613f3016565b90506123ec670de0b6b3a76400006122e6836706f05b59d3b20000612d2a565b60c8900490565b600080808084156150fb576150ba8786614442565b93506150d0876122e6888763ffffffff613f3016565b92506150e2878563ffffffff61281d16565b91506150f4868463ffffffff61281d16565b9050615108565b5060009250829150859050845b93509350935093565b6040805160e081018252600080825260208201819052918101829052606081018290526080810182905260a0810182905260c081019190915290565b60405180610100016040528060008152602001600081526020016000815260200160008152602001600081526020016000815260200160008152602001600081525090565b6040518060800160405280600081526020016000801916815260200160008152602001600081525090565b6040518060e001604052806151d0615111565b815260006020820181905260408201819052606082018190526080820181905260a0820181905260c09091015290565b604051806060016040528060008152602001600081526020016000151581525090565b6040518060a00160405280600081526020016000815260200160001515815260200160008152602001600081525090565b6040518061012001604052806000815260200160008152602001600081526020016000815260200160008152602001600081526020016000815260200160008152602001600081525090565b6040518060800160405280600081526020016000815260200160008152602001600081525090565b60408051608081018252600080825260208201819052918101829052606081019190915290565b60405180610120016040528060008152602001600081526020016000815260200160006001600160a01b0316815260200160006001600160a01b031681526020016000151581526020016000815260200160008152602001600081525090565b60405180606001604052806000815260200160008152602001600081525090565b8035610a9b81615e30565b60008083601f84011261538c578081fd5b5081356001600160401b038111156153a2578182fd5b60208301915083602080830285010111156153bc57600080fd5b9250929050565b6000602082840312156153d4578081fd5b81356117f481615e30565b6000602082840312156153f0578081fd5b81516117f481615e30565b60008060006040848603121561540f578182fd5b833561541a81615e30565b925060208401356001600160401b03811115615434578283fd5b6154408682870161537b565b9497909650939450505050565b6000806040838503121561545f578182fd5b823561546a81615e30565b946020939093013593505050565b60008060006040848603121561548c578283fd5b83356001600160401b03808211156154a2578485fd5b81860187601f8201126154b3578586fd5b80359250818311156154c3578586fd5b60208084026154d3828201615e00565b8581528281019084840183860185018d10156154ed578a8bfd5b8a95505b87861015615517576155038d82615370565b8352600195909501949184019184016154f1565b50985050508701359250508082111561552e578384fd5b506154408682870161537b565b60006020828403121561554c578081fd5b815180151581146117f4578182fd5b60006101c080838503121561556e578182fd5b61557781615e00565b6155818585615370565b81526155908560208601615370565b60208201526155a28560408601615370565b60408201526155b48560608601615370565b60608201526155c68560808601615370565b60808201526155d88560a08601615370565b60a08201526155ea8560c08601615370565b60c08201526155fc8560e08601615370565b60e0820152610100915061561285838601615370565b82820152610120915061562785838601615370565b82820152610140915061563c85838601615370565b82820152610160915061565185838601615370565b82820152610180915061566685838601615370565b828201526101a0915061567b85838601615370565b918101919091529392505050565b60006080828403121561569a578081fd5b6156a46080615e00565b825181526020830151602082015260408301516040820152606083015160608201528091505092915050565b60006101208083850312156156e3578182fd5b6156ec81615e00565b835181526020840151602082015260408401516040820152606084015160608201526080840151608082015260a084015160a082015260c084015160c082015260e084015160e082015261010091508184015182820152809250505092915050565b60006020828403121561575f578081fd5b5035919050565b600060208284031215615777578081fd5b5051919050565b60008060008060008060008060006101008a8c03121561579c578687fd5b8935985060208a01356157ae81615e30565b975060408a01356157be81615e30565b965060608a01356157ce81615e30565b955060808a0135945060a08a0135935060c08a0135925060e08a01356001600160401b038111156157fd578283fd5b6158098c828d0161537b565b8194508093505050509295985092959850929598565b600080600060408486031215615833578081fd5b8335925060208401356001600160401b03811115615434578182fd5b60008060408385031215615861578182fd5b50508035926020909101359150565b6001600160a01b03169052565b60008284528282602086013780602084860101526020601f19601f85011685010190509392505050565b6001600160a01b0391909116815260200190565b6001600160a01b03929092168252602082015260400190565b6001600160a01b039384168152919092166020820152604081019190915260600190565b6001600160a01b039290921682526001600160801b0316602082015260400190565b602080825281810183905260009060408482028401810190840186845b878110156159a357868403603f190183528135368a9003601e1901811261595c578687fd5b89018035906001600160401b03821115615974578788fd5b8136038b1315615982578788fd5b61598f868389840161587d565b955050509184019190840190600101615937565b5091979650505050505050565b901515815260200190565b9283526020830191909152604082015260600190565b8481526020810184905260408101839052608081016159ef83615e26565b82606083015295945050505050565b6000602080835283518082850152825b81811015615a2a57858101830151858201604001528201615a0e565b81811115615a3b5783604083870101525b50601f01601f1916929092016040019392505050565b6020808252600190820152600d60fa1b604082015260600190565b6020808252600190820152603360f81b604082015260600190565b6020808252601b908201527a536166654d6174683a206164646974696f6e206f766572666c6f7760281b604082015260600190565b6020808252600190820152603760f81b604082015260600190565b60208082526021908201527f536166654d6174683a206d756c7469706c69636174696f6e206f766572666c6f6040820152607760f81b606082015260800190565b6020808252818101527f4f776e61626c653a2063616c6c6572206973206e6f7420746865206f776e6572604082015260600190565b6020808252600190820152601960f91b604082015260600190565b6020808252600190820152603560f81b604082015260600190565b6020808252600590820152641830b2323960d91b604082015260600190565b6020808252600190820152601b60f91b604082015260600190565b60208082526005908201526430636f646560d81b604082015260600190565b6020808252601d908201527f4665652065786365656465642070726f7669646564206d6178696d756d000000604082015260600190565b60006101c082019050615c27828451615870565b6020830151615c396020840182615870565b506040830151615c4c6040840182615870565b506060830151615c5f6060840182615870565b506080830151615c726080840182615870565b5060a0830151615c8560a0840182615870565b5060c0830151615c9860c0840182615870565b5060e0830151615cab60e0840182615870565b5061010080840151615cbf82850182615870565b505061012080840151615cd482850182615870565b505061014080840151615ce982850182615870565b505061016080840151615cfe82850182615870565b505061018080840151615d1382850182615870565b50506101a080840151615d2882850182615870565b505092915050565b81516001600160a01b03908116825260208084015190830152604080840151821690830152606092830151169181019190915260800190565b90815260200190565b918252602082015260400190565b8381526020810183905260608101615d9783615e26565b826040830152949350505050565b858152602081018590526040810184905260a0810160058410615dc457fe5b60608201939093526001600160801b03919091166080909101529392505050565b93845260208401929092526040830152606082015260800190565b6040518181016001600160401b0381118282101715615e1e57600080fd5b604052919050565b60048110610a0d57fe5b6001600160a01b0381168114610a0d57600080fdfeea67486ed7ebe3eea8ab3390efd4a3c8aae48be5bea27df104a8af786c4084344152c73dd2614c4f9fc35e8c9cf16013cd588c75b49a4c1673ecffdcbcda9403c3770d654ed33aeea6bf11ac8ef05d02a6a04ed4686dd2f624d853bbec43cc8bc454ee9b76c52f782a256af821b857ca6e125d1e3333bcede402fec2bed9600ca164736f6c634300060b000a608060405234801561001057600080fd5b50600580546001600160a01b031916339081179091556040516000907f8be0079c531659141344cd1fd0a4f28419497f9722a3daafe3b4186f6b6457e0908290a361495c806100606000396000f3fe60806040526004361061015d5760003560e01c80631453558b146101625780631e503ead146101845780632322cd681461019757806337ddc0af146101b75780633cc74225146101ca5780633d83908a146101f55780634870dd9a1461020a5780634ff814431461022c5780636f0b0c1c1461024c57806372fe25aa14610261578063739987d714610276578063741bef1a14610289578063795d26c31461029e5780637f7dde4a146102b3578063887105d3146102c85780638d0a3b08146102dd5780638da5cb5b146102f25780638f32d59b14610307578063991292e314610329578063a20baee614610261578063a3f4df7e1461033e578063ae91875414610360578063b120dbd414610375578063d085835a14610395578063ddc7aed4146103aa578063df9bf27a146103bf578063e129d8e0146103df578063f1f30974146103f2578063f80911de14610412578063f8f8d17414610427575b600080fd5b34801561016e57600080fd5b5061018261017d366004613d74565b61043c565b005b610182610192366004613c27565b6108e2565b3480156101a357600080fd5b506101826101b2366004613eef565b610944565b6101826101c5366004613bb1565b6109a6565b3480156101d657600080fd5b506101df610a09565b6040516101ec9190613fcc565b60405180910390f35b34801561020157600080fd5b506101df610a18565b34801561021657600080fd5b5061021f610a27565b6040516101ec919061489d565b34801561023857600080fd5b5061021f610247366004613ebf565b610a2c565b34801561025857600080fd5b50610182610a3d565b34801561026d57600080fd5b5061021f610aa1565b610182610284366004613cc6565b610aad565b34801561029557600080fd5b506101df610abe565b3480156102aa57600080fd5b5061021f610acd565b3480156102bf57600080fd5b506101df610bf9565b3480156102d457600080fd5b5061021f610c08565b3480156102e957600080fd5b506101df610ce3565b3480156102fe57600080fd5b506101df610cf2565b34801561031357600080fd5b5061031c610d01565b6040516101ec919061408f565b34801561033557600080fd5b506101df610d12565b34801561034a57600080fd5b50610353610d21565b6040516101ec91906140de565b34801561036c57600080fd5b506101df610d4f565b34801561038157600080fd5b50610182610390366004613f28565b610d5e565b3480156103a157600080fd5b506101df610dc0565b3480156103b657600080fd5b506101df610dcf565b3480156103cb57600080fd5b506101826103da366004613c87565b610dde565b6101826103ed366004613f28565b61127a565b3480156103fe57600080fd5b5061018261040d366004613eef565b611a89565b34801561041e57600080fd5b506101df611ae3565b34801561043357600080fd5b506101df611af2565b610444610d01565b6104695760405162461bcd60e51b81526004016104609061446c565b60405180910390fd5b805161047490611b01565b6104818160200151611b01565b61048e8160400151611b01565b61049b8160600151611b01565b6104a88160800151611b01565b6104b58160a00151611b01565b6104c28160c00151611b01565b6104cf8160e00151611b01565b6104dd816101000151611b01565b6104eb816101200151611b01565b6104f9816101400151611b01565b610507816101600151611b01565b8051600680546001600160a01b03199081166001600160a01b038085169190911790925560208401516001805483169184169190911790556040808501516002805484169185169190911790556060850151600780548416918516919091179055608085015160088054841691851691909117905560a085015160098054841691851691909117905560c085015160038054841691851691909117905560e0850151600d80548416918516919091179055610100850151600c80548416918516919091179055610120850151600b805484169185169182179055600a805484169091179055610140850151600480548416918516919091179055610160850151600e80549093169316929092179055517f143219c9e69b09e07e095fcc889b43d8f46ca892bba65f08dc3a0050869a56789161064291613fcc565b60405180910390a17f78f058b189175430c48dc02699e3a0031ea4ff781536dc2fab847de4babdd882816020015160405161067d9190613fcc565b60405180910390a17f5ee0cae2f063ed938bb55046f6a932fb6ae792bf43624806bb90abe68a50be9b81604001516040516106b89190613fcc565b60405180910390a17f82966d27eea39b038ee0fa30cd16532bb24f6e65d31cb58fb227aa5766cdcc7f81606001516040516106f39190613fcc565b60405180910390a17fcfb07d791fcafc032b35837b50eb84b74df518cf4cc287e8084f47630fa70fa0816080015160405161072e9190613fcc565b60405180910390a17fe67f36a6e961157d6eff83b91f3af5a62131ceb6f04954ef74f51c1c05e7f88d8160a001516040516107699190613fcc565b60405180910390a17f8c537274438aa850a330284665d81a85dd38267d09e4050d416bfc94142db2648160c001516040516107a49190613fcc565b60405180910390a17f65f4cf077bc01e4742eb5ad98326f6e95b63548ea24b17f8d5e823111fe788008160e001516040516107df9190613fcc565b60405180910390a17f77b26272f42e99a3561f9dadc496d25589af0c1ebb03221e752e439015dd0d6381610100015160405161081b9190613fcc565b60405180910390a17f7513090f9b121ce0ada75a9c446a622ad2f631ddbd6be9f1a753aa095e10a6968161012001516040516108579190613fcc565b60405180910390a17f496a1a8082b26acb3aeec16a7ecb48e279f82c31f09bfa4e08cb69ce93fea7fe8161014001516040516108939190613fcc565b60405180910390a17ff9c6398cf1617ed6d94f43e8fb4caac4ae85382533b5ac08ec1b8d04139fe2c88161016001516040516108cf9190613fcc565b60405180910390a16108df611b4a565b50565b6108ea613864565b6040518060c001604052806000815260200160008152602001600015158152602001866001600160a01b03168152602001856001600160a01b031681526020016000815250905061093d33828585611b94565b5050505050565b61094c613864565b6040518060c0016040528060008152602001878152602001600015158152602001866001600160a01b03168152602001856001600160a01b031681526020016000815250905061099e33828585611b94565b505050505050565b6109ae61240e565b6109b6613864565b6040518060c001604052806000815260200160008152602001600015158152602001866001600160a01b03168152602001856001600160a01b031681526020016000815250905061099e86828585611b94565b6002546001600160a01b031681565b6006546001600160a01b031681565b60c881565b6000610a378261243a565b92915050565b60095460405163b32beb5b60e01b81526001600160a01b039091169063b32beb5b90610a6d903390600401613fcc565b600060405180830381600087803b158015610a8757600080fd5b505af1158015610a9b573d6000803e3d6000fd5b50505050565b670de0b6b3a764000081565b610ab933848484611b94565b505050565b6003546001600160a01b031681565b600080600160009054906101000a90046001600160a01b03166001600160a01b0316635227d6a86040518163ffffffff1660e01b815260040160206040518083038186803b158015610b1e57600080fd5b505afa158015610b32573d6000803e3d6000fd5b505050506040513d601f19601f82011682018060405250810190610b569190613ed7565b90506000600260009054906101000a90046001600160a01b03166001600160a01b0316635227d6a86040518163ffffffff1660e01b815260040160206040518083038186803b158015610ba857600080fd5b505afa158015610bbc573d6000803e3d6000fd5b505050506040513d601f19601f82011682018060405250810190610be09190613ed7565b9050610bf2828263ffffffff6124cf16565b9250505090565b6001546001600160a01b031681565b600080600160009054906101000a90046001600160a01b03166001600160a01b03166378a619de6040518163ffffffff1660e01b815260040160206040518083038186803b158015610c5957600080fd5b505afa158015610c6d573d6000803e3d6000fd5b505050506040513d601f19601f82011682018060405250810190610c919190613ed7565b90506000600260009054906101000a90046001600160a01b03166001600160a01b03166378a619de6040518163ffffffff1660e01b815260040160206040518083038186803b158015610ba857600080fd5b600b546001600160a01b031681565b6005546001600160a01b031690565b6005546001600160a01b0316331490565b6004546001600160a01b031681565b60405180604001604052806012815260200171426f72726f7765724f7065726174696f6e7360701b81525081565b600d546001600160a01b031681565b610d66613864565b6040518060c0016040528060008152602001878152602001600115158152602001866001600160a01b03168152602001856001600160a01b03168152602001888152509050610db733828585611b94565b50505050505050565b6000546001600160a01b031681565b600e546001600160a01b031681565b600654600154600c546001600160a01b03928316929182169116610e006138ae565b50604080518082019091526001600160a01b0384168152336020820152610e26816124f4565b610e2e6138c5565b600354604051634e15f2a560e01b81526001600160a01b0390911690634e15f2a590610e60908a908a90600401613ff9565b608060405180830381600087803b158015610e7a57600080fd5b505af1158015610e8e573d6000803e3d6000fd5b505050506040513d601f19601f82011682018060405250810190610eb29190613e78565b9050610ec1816000015161259a565b604051630b07655760e01b81526001600160a01b03861690630b07655790610eed903390600401613fcc565b600060405180830381600087803b158015610f0757600080fd5b505af1158015610f1b573d6000803e3d6000fd5b50506040516309019aaf60e31b8152600092506001600160a01b038816915063480cd57890610f4e903390600401613fcc565b60206040518083038186803b158015610f6657600080fd5b505afa158015610f7a573d6000803e3d6000fd5b505050506040513d601f19601f82011682018060405250810190610f9e9190613ed7565b90506000866001600160a01b031663d66a2553336040518263ffffffff1660e01b8152600401610fce9190613fcc565b60206040518083038186803b158015610fe657600080fd5b505afa158015610ffa573d6000803e3d6000fd5b505050506040513d601f19601f8201168201806040525081019061101e9190613ed7565b90506000600460009054906101000a90046001600160a01b03166001600160a01b0316631549b76d6040518163ffffffff1660e01b815260040160206040518083038186803b15801561107057600080fd5b505afa158015611084573d6000803e3d6000fd5b505050506040513d601f19601f820116820180604052508101906110a89190613ed7565b90506110c486336110bf858563ffffffff6125c016565b612602565b60006110d9846000856000896000015161269e565b90506110e481612729565b604051631fc5750960e31b81526001600160a01b038a169063fe2ba84890611110903390600401613fcc565b600060405180830381600087803b15801561112a57600080fd5b505af115801561113e573d6000803e3d6000fd5b50506040516365e89c5760e11b81526001600160a01b038c16925063cbd138ae915061116e903390600401613fcc565b600060405180830381600087803b15801561118857600080fd5b505af115801561119c573d6000803e3d6000fd5b50505050336001600160a01b0316600080516020614910833981519152600080600060016040516111d094939291906140b0565b60405180910390a26111f38888336111ee878763ffffffff6125c016565b6127d3565b60085461120d90899089906001600160a01b0316856127d3565b604051630a569c3760e41b81526001600160a01b0389169063a569c3709061123b9033908890600401613fe0565b600060405180830381600087803b15801561125557600080fd5b505af1158015611269573d6000803e3d6000fd5b505050505050505050505050505050565b6112826138f0565b50604080516060810182526006546001600160a01b03908116825260015481166020830152600c5416918101919091526112ba613910565b6112c26138c5565b600354604051634e15f2a560e01b81526001600160a01b0390911690634e15f2a5906112f49088908890600401613ff9565b608060405180830381600087803b15801561130e57600080fd5b505af1158015611322573d6000803e3d6000fd5b505050506040513d601f19601f820116820180604052508101906113469190613e78565b80518352600e54602082015160408084015160608501519151631ba21c6b60e11b81529495506000946001600160a01b039094169363374438d6936113909390929160040161409a565b60206040518083038186803b1580156113a857600080fd5b505afa1580156113bc573d6000803e3d6000fd5b505050506040513d601f19601f820116820180604052508101906113e09190613ed7565b905060006113f18460000151612897565b90506113fd8b82612937565b84516114099033612a28565b604084018a9052611418613955565b6040518060a0016040528087600001516001600160a01b0316815260200187604001516001600160a01b031681526020018c81526020018d81526020018481525090508161148a5761146981612aca565b6020860181905260408601516114849163ffffffff6124cf16565b60408601525b6114978560400151612c95565b6114a4856040015161243a565b606086018190526114b157fe5b6060850151855134916114c691839190612d3f565b608087015260608601516114db908290612d7d565b60a087015282156114f8576114f38660800151612db2565b61152b565b6115058660800151612e5c565b600061151e826001896060015160018b6000015161269e565b905061152981612729565b505b8651604051635d6b480f60e01b81526001600160a01b0390911690635d6b480f9061155d903390600190600401613fe0565b600060405180830381600087803b15801561157757600080fd5b505af115801561158b573d6000803e3d6000fd5b505088516040516372423c1760e01b81526001600160a01b0390911692506372423c1791506115c09033908590600401613fe0565b602060405180830381600087803b1580156115da57600080fd5b505af11580156115ee573d6000803e3d6000fd5b505050506040513d601f19601f820116820180604052508101906116129190613ed7565b5086516060870151604051639976cf4560e01b81526001600160a01b0390921691639976cf459161164891339190600401613fe0565b602060405180830381600087803b15801561166257600080fd5b505af1158015611676573d6000803e3d6000fd5b505050506040513d601f19601f8201168201806040525081019061169a9190613ed7565b5086516040516382fe3eb960e01b81526001600160a01b03909116906382fe3eb9906116ca903390600401613fcc565b600060405180830381600087803b1580156116e457600080fd5b505af11580156116f8573d6000803e3d6000fd5b50508851604051630c7940bd60e11b81526001600160a01b0390911692506318f2817a915061172b903390600401613fcc565b602060405180830381600087803b15801561174557600080fd5b505af1158015611759573d6000803e3d6000fd5b505050506040513d601f19601f8201168201806040525081019061177d9190613ed7565b60c087015261178a613996565b506040805160808101825233815260a088015160208201526001600160a01b038d8116828401528c81166060830152600d549251638c2d33eb60e01b815291921690638c2d33eb906117e0908490600401614864565b600060405180830381600087803b1580156117fa57600080fd5b505af115801561180e573d6000803e3d6000fd5b505089516040516315d549f160e01b81526001600160a01b0390911692506315d549f19150611841903390600401613fcc565b602060405180830381600087803b15801561185b57600080fd5b505af115801561186f573d6000803e3d6000fd5b505050506040513d601f19601f820116820180604052508101906118939190613ed7565b60e0880181905260405133917f59cfd0cd754bc5748b6770e94a4ffa5f678d885cb899dcfadc5734edb97c67ab916118cb919061489d565b60405180910390a2506118e2876020015182612f06565b6118ea6139bd565b506040805160a0810182526020808a01516001600160a01b0390811683528a84015116908201523381830152606081018e905290870151608082015261192f81612f82565b6000600460009054906101000a90046001600160a01b03166001600160a01b0316631549b76d6040518163ffffffff1660e01b815260040160206040518083038186803b15801561197f57600080fd5b505afa158015611993573d6000803e3d6000fd5b505050506040513d601f19601f820116820180604052508101906119b79190613ed7565b90506119c16139bd565b506040805160a0810182526020808c01516001600160a01b0390811683528c84015181169183019190915260085416918101919091526060810182905260808101829052611a0e81612f82565b606089015160c08a0151604051339260008051602061491083398151915292611a3c928991906000906140b0565b60405180910390a2336001600160a01b03166000805160206148f08339815191528a60200151604051611a6f919061489d565b60405180910390a250505050505050505050505050505050565b611a91613864565b6040518060c0016040528087815260200160008152602001600015158152602001866001600160a01b03168152602001856001600160a01b031681526020016000815250905061099e33828585611b94565b600a546001600160a01b031681565b600c546001600160a01b031681565b6001600160a01b038116611b275760405162461bcd60e51b81526004016104609061454c565b803b80611b465760405162461bcd60e51b8152600401610460906146d4565b5050565b6005546040516000916001600160a01b0316907f8be0079c531659141344cd1fd0a4f28419497f9722a3daafe3b4186f6b6457e0908390a3600580546001600160a01b0319169055565b611b9c6138f0565b50604080516060810182526006546001600160a01b03908116825260015481166020830152600c541691810191909152611bd46139eb565b611bdc6138c5565b600354604051634e15f2a560e01b81526001600160a01b0390911690634e15f2a590611c0e9088908890600401613ff9565b608060405180830381600087803b158015611c2857600080fd5b505af1158015611c3c573d6000803e3d6000fd5b505050506040513d601f19601f82011682018060405250810190611c609190613e78565b80518352600e54602082015160408084015160608501519151631ba21c6b60e11b81529495506000946001600160a01b039094169363374438d693611caa9390929160040161409a565b60206040518083038186803b158015611cc257600080fd5b505afa158015611cd6573d6000803e3d6000fd5b505050506040513d601f19601f82011682018060405250810190611cfa9190613ed7565b83519091503490600090611d0d90612897565b9050886040015115611d3457611d278960a0015182612937565b611d34896020015161304e565b8851611d3f9061306e565b611d5189600001518a60200151613095565b611d596138ae565b506040805180820190915286516001600160a01b0390811682528b166020820152611d83816124f4565b336001600160a01b038c161480611dbd57506007546001600160a01b031633148015611daf5750600083115b8015611dbd575060208a0151155b611dc357fe5b8651604051630b07655760e01b81526001600160a01b0390911690630b07655790611df2908e90600401613fcc565b600060405180830381600087803b158015611e0c57600080fd5b505af1158015611e20573d6000803e3d6000fd5b5050505050611e33828a600001516130c8565b151560608701526020808701919091528901516040860152611e53613955565b6040518060a0016040528088600001516001600160a01b0316815260200188604001516001600160a01b031681526020018b6020015181526020018b60a00151815260200185815250905089604001518015611ead575081155b15611edd57611ebb81612aca565b61012087018190526040870151611ed79163ffffffff6124cf16565b60408701525b865160405163d66a255360e01b81526001600160a01b039091169063d66a255390611f0c908e90600401613fcc565b60206040518083038186803b158015611f2457600080fd5b505afa158015611f38573d6000803e3d6000fd5b505050506040513d601f19601f82011682018060405250810190611f5c9190613ed7565b608087015286516040516309019aaf60e31b81526001600160a01b039091169063480cd57890611f90908e90600401613fcc565b60206040518083038186803b158015611fa857600080fd5b505afa158015611fbc573d6000803e3d6000fd5b505050506040513d601f19601f82011682018060405250810190611fe09190613ed7565b60a0870181905260808701518751611ff9929190612d3f565b60c0870152612006613a55565b6040518060e001604052808860a0015181526020018860800151815260200188602001518152602001886060015115158152602001886040015181526020018c604001511515815260200188600001518152509050612064816130e7565b60e088015260a08701518b51111561207857fe5b61208c838c600001518d604001518a613130565b8a604001511580156120a2575060008b60200151115b156120f5576120d06120cb88604001516120bf8a608001516131a4565b9063ffffffff6125c016565b612c95565b6120e287608001518860400151613232565b6120f588604001518d8960400151612602565b50506120ff613a96565b6040518060c0016040528088600001516001600160a01b031681526020018c6001600160a01b0316815260200187602001518152602001876060015115158152602001876040015181526020018b6040015115158152509050612161816132eb565b6101408801526101608701528651604051630c7940bd60e11b81526001600160a01b03909116906318f2817a9061219c908e90600401613fcc565b602060405180830381600087803b1580156121b657600080fd5b505af11580156121ca573d6000803e3d6000fd5b505050506040513d601f19601f820116820180604052508101906121ee9190613ed7565b610180870152506121fd613acb565b6040518060c001604052808760a0015181526020018760800151815260200187602001518152602001876060015115158152602001876040015181526020018b6040015115158152509050600061225382613548565b905061225d613996565b60405180608001604052808e6001600160a01b031681526020018381526020018d606001516001600160a01b031681526020018d608001516001600160a01b03168152509050600d60009054906101000a90046001600160a01b03166001600160a01b031663806093b8826040518263ffffffff1660e01b81526004016122e49190614864565b600060405180830381600087803b1580156122fe57600080fd5b505af1158015612312573d6000803e3d6000fd5b50505050505050896001600160a01b0316600080516020614910833981519152866101400151876101600151886101800151600260405161235694939291906140b0565b60405180910390a2336001600160a01b03166000805160206148f083398151915286610120015160405161238a919061489d565b60405180910390a261239a613b05565b5060408051610100810182526020808901516001600160a01b0390811683528984015116818301526060808901511515838501528c8401511515908301523360808301528781015160a08301528b015160c08201529086015160e082015261240181613583565b5050505050505050505050565b6007546001600160a01b031633146124385760405162461bcd60e51b81526004016104609061468b565b565b6004805460408051631549b76d60e01b8152905160009384936001600160a01b031692631549b76d9281830192602092829003018186803b15801561247e57600080fd5b505afa158015612492573d6000803e3d6000fd5b505050506040513d601f19601f820116820180604052508101906124b69190613ed7565b90506124c8838263ffffffff6124cf16565b9392505050565b6000828201838110156124c85760405162461bcd60e51b815260040161046090614131565b805160208201516040516321e3780160e01b81526000926001600160a01b0316916321e37801916125289190600401613fcc565b60206040518083038186803b15801561254057600080fd5b505afa158015612554573d6000803e3d6000fd5b505050506040513d601f19601f820116820180604052508101906125789190613ed7565b905080600114611b465760405162461bcd60e51b8152600401610460906144a1565b6125a381612897565b156108df5760405162461bcd60e51b8152600401610460906141b6565b60006124c883836040518060400160405280601e81526020017f536166654d6174683a207375627472616374696f6e206f766572666c6f770000815250613672565b6040516370a0823160e01b815281906001600160a01b038516906370a0823190612630908690600401613fcc565b60206040518083038186803b15801561264857600080fd5b505afa15801561265c573d6000803e3d6000fd5b505050506040513d601f19601f820116820180604052508101906126809190613ed7565b1015610ab95760405162461bcd60e51b815260040161046090614266565b6000806126a9610c08565b905060006126b5610acd565b9050866126d1576126cc828963ffffffff6125c016565b6126e1565b6126e1828963ffffffff6124cf16565b9150846126fd576126f8818763ffffffff6125c016565b61270d565b61270d818763ffffffff6124cf16565b9050600061271c838387612d3f565b9998505050505050505050565b6000600460009054906101000a90046001600160a01b03166001600160a01b031663bb4095226040518163ffffffff1660e01b815260040160206040518083038186803b15801561277957600080fd5b505afa15801561278d573d6000803e3d6000fd5b505050506040513d601f19601f820116820180604052508101906127b19190613ed7565b905080821015611b465760405162461bcd60e51b81526004016104609061440f565b604051637d9ee87160e11b81526001600160a01b0385169063fb3dd0e2906127ff90849060040161489d565b600060405180830381600087803b15801561281957600080fd5b505af115801561282d573d6000803e3d6000fd5b5050604051632770a7eb60e21b81526001600160a01b0386169250639dc29fac915061285f9085908590600401613fe0565b600060405180830381600087803b15801561287957600080fd5b505af115801561288d573d6000803e3d6000fd5b5050505050505050565b6000806128a38361369e565b90506000600460009054906101000a90046001600160a01b03166001600160a01b031663bb4095226040518163ffffffff1660e01b815260040160206040518083038186803b1580156128f557600080fd5b505afa158015612909573d6000803e3d6000fd5b505050506040513d601f19601f8201168201806040525081019061292d9190613ed7565b9091109392505050565b801561296a57670de0b6b3a76400008211156129655760405162461bcd60e51b8152600401610460906142c3565b611b46565b6000600460009054906101000a90046001600160a01b03166001600160a01b0316635e9e32126040518163ffffffff1660e01b815260040160206040518083038186803b1580156129ba57600080fd5b505afa1580156129ce573d6000803e3d6000fd5b505050506040513d601f19601f820116820180604052508101906129f29190613ed7565b9050808310158015612a0c5750670de0b6b3a76400008311155b610ab95760405162461bcd60e51b8152600401610460906146f3565b6040516321e3780160e01b81526000906001600160a01b038416906321e3780190612a57908590600401613fcc565b60206040518083038186803b158015612a6f57600080fd5b505afa158015612a83573d6000803e3d6000fd5b505050506040513d601f19601f82011682018060405250810190612aa79190613ed7565b90508060011415610ab95760405162461bcd60e51b815260040161046090614743565b600081600001516001600160a01b0316635dba4c4a6040518163ffffffff1660e01b8152600401600060405180830381600087803b158015612b0b57600080fd5b505af1158015612b1f573d6000803e3d6000fd5b5050835160408086015160808701519151632455c4e160e21b8152600095506001600160a01b039093169350639157138492612b5e92906004016148a6565b60206040518083038186803b158015612b7657600080fd5b505afa158015612b8a573d6000803e3d6000fd5b505050506040513d601f19601f82011682018060405250810190612bae9190613ed7565b9050612bc381846040015185606001516136ca565b600a54604051637898111760e11b81526001600160a01b039091169063f130222e90612bf390849060040161489d565b600060405180830381600087803b158015612c0d57600080fd5b505af1158015612c21573d6000803e3d6000fd5b5050506020840151600b546040516340c10f1960e01b81526001600160a01b0392831693506340c10f1992612c5c9216908590600401613fe0565b600060405180830381600087803b158015612c7657600080fd5b505af1158015612c8a573d6000803e3d6000fd5b509295945050505050565b6000600460009054906101000a90046001600160a01b03166001600160a01b031663c4dc70d36040518163ffffffff1660e01b815260040160206040518083038186803b158015612ce557600080fd5b505afa158015612cf9573d6000803e3d6000fd5b505050506040513d601f19601f82011682018060405250810190612d1d9190613ed7565b905080821015611b465760405162461bcd60e51b8152600401610460906145c8565b60008215612d72576000612d6984612d5d878663ffffffff61370a16565b9063ffffffff61374416565b91506124c89050565b506000199392505050565b60008115612da957612da282612d5d8568056bc75e2d6310000063ffffffff61370a16565b9050610a37565b50600019610a37565b6000600460009054906101000a90046001600160a01b03166001600160a01b031663bb4095226040518163ffffffff1660e01b815260040160206040518083038186803b158015612e0257600080fd5b505afa158015612e16573d6000803e3d6000fd5b505050506040513d601f19601f82011682018060405250810190612e3a9190613ed7565b905080821015611b465760405162461bcd60e51b81526004016104609061420f565b6000600460009054906101000a90046001600160a01b03166001600160a01b03166344936b106040518163ffffffff1660e01b815260040160206040518083038186803b158015612eac57600080fd5b505afa158015612ec0573d6000803e3d6000fd5b505050506040513d601f19601f82011682018060405250810190612ee49190613ed7565b905080821015611b465760405162461bcd60e51b81526004016104609061456b565b6000826001600160a01b031682604051612f1f90613fc9565b60006040518083038185875af1925050503d8060008114612f5c576040519150601f19603f3d011682016040523d82523d6000602084013e612f61565b606091505b5050905080610ab95760405162461bcd60e51b815260040161046090614381565b805160808201516040516333681ca560e21b81526001600160a01b039092169163cda0729491612fb49160040161489d565b600060405180830381600087803b158015612fce57600080fd5b505af1158015612fe2573d6000803e3d6000fd5b5050505080602001516001600160a01b03166340c10f19826040015183606001516040518363ffffffff1660e01b8152600401613020929190613fe0565b600060405180830381600087803b15801561303a57600080fd5b505af115801561093d573d6000803e3d6000fd5b600081116108df5760405162461bcd60e51b815260040161046090614779565b341580613079575080155b6108df5760405162461bcd60e51b815260040161046090614166565b341515806130a257508115155b806130ac57508015155b611b465760405162461bcd60e51b815260040161046090614315565b60008083156130dc575082905060016130e0565b8291505b9250929050565b6000806000613112846000015185602001518660400151876060015188608001518960a00151613783565b91509150600061312783838760c00151612d3f565b95945050505050565b83156131695761313f836137ef565b8115613164576131528160e00151612db2565b6131648160e001518260c0015161380d565b610a9b565b6131768160e00151612e5c565b61319381602001518260600151836040015185856000015161269e565b6101008201819052610a9b90612729565b6004805460408051631549b76d60e01b8152905160009384936001600160a01b031692631549b76d9281830192602092829003018186803b1580156131e857600080fd5b505afa1580156131fc573d6000803e3d6000fd5b505050506040513d601f19601f820116820180604052508101906132209190613ed7565b90506124c8838263ffffffff6125c016565b6000600460009054906101000a90046001600160a01b03166001600160a01b0316631549b76d6040518163ffffffff1660e01b815260040160206040518083038186803b15801561328257600080fd5b505afa158015613296573d6000803e3d6000fd5b505050506040513d601f19601f820116820180604052508101906132ba9190613ed7565b90506132cc838263ffffffff6125c016565b821115610ab95760405162461bcd60e51b815260040161046090614622565b600080600083606001516133895783516020850151604080870151905163d3d6f84360e01b81526001600160a01b039093169263d3d6f84392613332929091600401613fe0565b602060405180830381600087803b15801561334c57600080fd5b505af1158015613360573d6000803e3d6000fd5b505050506040513d601f19601f820116820180604052508101906133849190613ed7565b613414565b8351602085015160408087015190516372423c1760e01b81526001600160a01b03909316926372423c17926133c2929091600401613fe0565b602060405180830381600087803b1580156133dc57600080fd5b505af11580156133f0573d6000803e3d6000fd5b505050506040513d601f19601f820116820180604052508101906134149190613ed7565b905060008460a001516134b157845160208601516080870151604051630930874960e11b81526001600160a01b03909316926312610e929261345a929091600401613fe0565b602060405180830381600087803b15801561347457600080fd5b505af1158015613488573d6000803e3d6000fd5b505050506040513d601f19601f820116820180604052508101906134ac9190613ed7565b61353c565b845160208601516080870151604051639976cf4560e01b81526001600160a01b0390931692639976cf45926134ea929091600401613fe0565b602060405180830381600087803b15801561350457600080fd5b505af1158015613518573d6000803e3d6000fd5b505050506040513d601f19601f8201168201806040525081019061353c9190613ed7565b91935090915050915091565b6000806000613573846000015185602001518660400151876060015188608001518960a00151613783565b9150915060006131278383612d7d565b8060600151156135fc576135956139bd565b6040518060a0016040528083600001516001600160a01b0316815260200183602001516001600160a01b0316815260200183608001516001600160a01b031681526020018360c0015181526020018360e0015181525090506135f681612f82565b50613618565b6136188160000151826020015183608001518460c001516127d3565b8060400151156136395761363481600001518260a00151612f06565b6108df565b8051608082015160a0830151604051630a569c3760e41b81526001600160a01b039093169263a569c37092613020929091600401613fe0565b600081848411156136965760405162461bcd60e51b815260040161046091906140de565b505050900390565b6000806136a9610c08565b905060006136b5610acd565b90506136c2828286612d3f565b949350505050565b60006136e883612d5d86670de0b6b3a764000063ffffffff61370a16565b905081811115610a9b5760405162461bcd60e51b81526004016104609061482d565b60008261371957506000610a37565b8282028284828161372657fe5b04146124c85760405162461bcd60e51b8152600401610460906143ce565b60006124c883836040518060400160405280601a815260200179536166654d6174683a206469766973696f6e206279207a65726f60301b81525061382d565b6000808787866137a25761379d8a8963ffffffff6125c016565b6137b2565b6137b28a8963ffffffff6124cf16565b9150846137ce576137c9898763ffffffff6125c016565b6137de565b6137de898763ffffffff6124cf16565b919a91995090975050505050505050565b80156108df5760405162461bcd60e51b8152600401610460906144ef565b80821015611b465760405162461bcd60e51b8152600401610460906147d0565b6000818361384e5760405162461bcd60e51b815260040161046091906140de565b50600083858161385a57fe5b0495945050505050565b6040518060c00160405280600081526020016000815260200160001515815260200160006001600160a01b0316815260200160006001600160a01b03168152602001600081525090565b604080518082019091526000808252602082015290565b6040518060800160405280600081526020016000801916815260200160008152602001600081525090565b604080516060810182526000808252602082018190529181019190915290565b60405180610100016040528060008152602001600081526020016000815260200160008152602001600081526020016000815260200160008152602001600081525090565b6040518060a0016040528060006001600160a01b0316815260200160006001600160a01b031681526020016000815260200160008152602001600081525090565b60408051608081018252600080825260208201819052918101829052606081019190915290565b6040805160a08101825260008082526020820181905291810182905260608101829052608081019190915290565b604051806101a001604052806000815260200160008152602001600081526020016000151581526020016000815260200160008152602001600081526020016000815260200160008152602001600081526020016000815260200160008152602001600081525090565b6040518060e0016040528060008152602001600081526020016000815260200160001515815260200160008152602001600015158152602001600081525090565b6040805160c081018252600080825260208201819052918101829052606081018290526080810182905260a081019190915290565b6040518060c00160405280600081526020016000815260200160008152602001600015158152602001600081526020016000151581525090565b6040805161010081018252600080825260208201819052918101829052606081018290526080810182905260a0810182905260c0810182905260e081019190915290565b80356001600160a01b0381168114610a3757600080fd5b60008083601f840112613b71578182fd5b5081356001600160401b03811115613b87578182fd5b60208301915083602080830285010111156130e057600080fd5b80358015158114610a3757600080fd5b600080600080600060808688031215613bc8578081fd5b613bd28787613b49565b9450613be18760208801613b49565b9350613bf08760408801613b49565b925060608601356001600160401b03811115613c0a578182fd5b613c1688828901613b60565b969995985093965092949392505050565b60008060008060608587031215613c3c578384fd5b613c468686613b49565b9350613c558660208701613b49565b925060408501356001600160401b03811115613c6f578283fd5b613c7b87828801613b60565b95989497509550505050565b60008060208385031215613c99578182fd5b82356001600160401b03811115613cae578283fd5b613cba85828601613b60565b90969095509350505050565b600080600083850360e0811215613cdb578384fd5b60c0811215613ce8578384fd5b50613cf360c06148b4565b8435815260208501356020820152613d0e8660408701613ba1565b6040820152613d208660608701613b49565b6060820152613d328660808701613b49565b608082015260a08581013590820152925060c08401356001600160401b03811115613d5b578283fd5b613d6786828701613b60565b9497909650939450505050565b6000610180808385031215613d87578182fd5b613d90816148b4565b613d9a8585613b49565b8152613da98560208601613b49565b6020820152613dbb8560408601613b49565b6040820152613dcd8560608601613b49565b6060820152613ddf8560808601613b49565b6080820152613df18560a08601613b49565b60a0820152613e038560c08601613b49565b60c0820152613e158560e08601613b49565b60e08201526101009150613e2b85838601613b49565b828201526101209150613e4085838601613b49565b828201526101409150613e5585838601613b49565b828201526101609150613e6a85838601613b49565b918101919091529392505050565b600060808284031215613e89578081fd5b613e9360806148b4565b825181526020830151602082015260408301516040820152606083015160608201528091505092915050565b600060208284031215613ed0578081fd5b5035919050565b600060208284031215613ee8578081fd5b5051919050565b600080600080600060808688031215613f06578081fd5b853594506020860135613f18816148da565b93506040860135613bf0816148da565b60008060008060008060a08789031215613f40578384fd5b8635955060208701359450613f588860408901613b49565b9350613f678860608901613b49565b925060808701356001600160401b03811115613f81578182fd5b613f8d89828a01613b60565b979a9699509497509295939492505050565b60008284528282602086013780602084860101526020601f19601f85011685010190509392505050565b90565b6001600160a01b0391909116815260200190565b6001600160a01b03929092168252602082015260400190565b602080825281810183905260009060408482028401810190840186845b8781101561408257868403603f190183528135368a9003601e1901811261403b578687fd5b89018035906001600160401b03821115614053578788fd5b8136038b1315614061578788fd5b61406e8683898401613f9f565b955050509184019190840190600101614016565b5091979650505050505050565b901515815260200190565b9283526020830191909152604082015260600190565b848152602081018490526040810183905260808101600383106140cf57fe5b82606083015295945050505050565b6000602080835283518082850152825b8181101561410a578581018301518582016040015282016140ee565b8181111561411b5783604083870101525b50601f01601f1916929092016040019392505050565b6020808252601b908201527a536166654d6174683a206164646974696f6e206f766572666c6f7760281b604082015260600190565b60208082526030908201527f426f72726f7765724f7065726174696f6e733a2043616e6e6f7420776974686460408201526f1c985dc8185b99081859190818dbdb1b60821b606082015260800190565b60208082526039908201527f426f72726f7765724f70733a204f7065726174696f6e206e6f74207065726d696040820152787474656420647572696e67205265636f76657279204d6f646560381b606082015260800190565b60208082526037908201527f426f72726f7765724f70733a204f7065726174696f6e206d757374206c65617660408201527632903a3937bb32903bb4ba341024a1a9101f1e9021a1a960491b606082015260800190565b6020808252603d908201527f426f72726f7765724f70733a2043616c6c657220646f65736e7420686176652060408201527f656e6f756768205553445320746f206d616b652072657061796d656e74000000606082015260800190565b60208082526032908201527f4d6178206665652070657263656e74616765206d757374206c657373207468616040820152716e206f7220657175616c20746f203130302560701b606082015260800190565b60208082526046908201527f426f72726f7765724f70733a205468657265206d75737420626520656974686560408201527f72206120636f6c6c61746572616c206368616e6765206f7220612064656274206060820152656368616e676560d01b608082015260a00190565b6020808252602d908201527f426f72726f7765724f70733a2053656e64696e6720424e4220746f204163746960408201526c1d99541bdbdb0819985a5b1959609a1b606082015260800190565b60208082526021908201527f536166654d6174683a206d756c7469706c69636174696f6e206f766572666c6f6040820152607760f81b606082015260800190565b602080825260499082015260008051602061493083398151915260408201527f6f756c6420726573756c7420696e20544352203c20434352206973206e6f74206060820152681c195c9b5a5d1d195960ba1b608082015260a00190565b6020808252818101527f4f776e61626c653a2063616c6c6572206973206e6f7420746865206f776e6572604082015260600190565b6020808252602e908201527f426f72726f7765724f70733a2054726f766520646f6573206e6f74206578697360408201526d1d081bdc881a5cc818db1bdcd95960921b606082015260800190565b6020808252603e908201527f426f72726f7765724f70733a20436f6c6c61746572616c20776974686472617760408201527f616c206e6f74207065726d6974746564205265636f76657279204d6f64650000606082015260800190565b6020808252600590820152641830b2323960d91b604082015260600190565b602080825260499082015260008051602061493083398151915260408201527f6f756c6420726573756c7420696e20494352203c204d4352206973206e6f74206060820152681c195c9b5a5d1d195960ba1b608082015260a00190565b6020808252603a908201527f426f72726f7765724f70733a2054726f76652773206e65742064656274206d7560408201527973742062652067726561746572207468616e206d696e696d756d60301b606082015260800190565b60208082526043908201527f426f72726f7765724f70733a20416d6f756e7420726570616964206d7573742060408201527f6e6f74206265206c6172676572207468616e207468652054726f76652773206460608201526219589d60ea1b608082015260a00190565b60208082526029908201527f426f72726f7765724f70733a2043616c6c6572206973206e6f742053746162696040820152681b1a5d1e48141bdbdb60ba1b606082015260800190565b60208082526005908201526430636f646560d81b604082015260600190565b60208082526030908201527f4d6178206665652070657263656e74616765206d75737420626520626574776560408201526f656e20302e352520616e64203130302560801b606082015260800190565b6020808252601c908201527b426f72726f7765724f70733a2054726f76652069732061637469766560201b604082015260600190565b60208082526037908201527f426f72726f7765724f70733a204465627420696e637265617365207265717569604082015276726573206e6f6e2d7a65726f20646562744368616e676560481b606082015260800190565b6020808252603e908201527f426f72726f7765724f70733a2043616e6e6f7420646563726561736520796f7560408201527f722054726f766527732049435220696e205265636f76657279204d6f64650000606082015260800190565b6020808252601d908201527f4665652065786365656465642070726f7669646564206d6178696d756d000000604082015260600190565b81516001600160a01b03908116825260208084015190830152604080840151821690830152606092830151169181019190915260800190565b90815260200190565b918252602082015260400190565b6040518181016001600160401b03811182821017156148d257600080fd5b604052919050565b6001600160a01b03811681146108df57600080fdfe40c9936a18b4ba2155a308a1c8f38c423194b223dba9a70e61b37463fecfabf4c3770d654ed33aeea6bf11ac8ef05d02a6a04ed4686dd2f624d853bbec43cc8b426f72726f7765724f70733a20416e206f7065726174696f6e20746861742077a164736f6c634300060b000a608060405234801561001057600080fd5b50600080546001600160a01b0319163390811782556040519091907f8be0079c531659141344cd1fd0a4f28419497f9722a3daafe3b4186f6b6457e0908290a3610b4e8061005f6000396000f3fe6080604052600436106100a65760003560e01c80630b622ab2146100f25780634a945f8d146101235780635227d6a8146101705780635a4d28bb1461019757806378a619de146101ac5780638da5cb5b146101c15780638f32d59b146101d6578063a3f4df7e146101ff578063a569c37014610289578063aac1846f146102c2578063b7f8cf9b146102d7578063cda07294146102ec578063fb3dd0e214610316576100ed565b366100ed576100b3610340565b6005546100c6903463ffffffff6103a016565b60058190556040805191825251600080516020610b228339815191529181900360200190a1005b600080fd5b3480156100fe57600080fd5b506101076103ff565b604080516001600160a01b039092168252519081900360200190f35b34801561012f57600080fd5b5061016e6004803603608081101561014657600080fd5b506001600160a01b03813581169160208101358216916040820135811691606001351661040e565b005b34801561017c57600080fd5b506101856105c7565b60408051918252519081900360200190f35b3480156101a357600080fd5b506101076105cd565b3480156101b857600080fd5b506101856105dc565b3480156101cd57600080fd5b506101076105e2565b3480156101e257600080fd5b506101eb6105f1565b604080519115158252519081900360200190f35b34801561020b57600080fd5b50610214610602565b6040805160208082528351818301528351919283929083019185019080838360005b8381101561024e578181015183820152602001610236565b50505050905090810190601f16801561027b5780820380516001836020036101000a031916815260200191505b509250505060405180910390f35b34801561029557600080fd5b5061016e600480360360408110156102ac57600080fd5b506001600160a01b038135169060200135610628565b3480156102ce57600080fd5b50610107610757565b3480156102e357600080fd5b50610107610766565b3480156102f857600080fd5b5061016e6004803603602081101561030f57600080fd5b5035610775565b34801561032257600080fd5b5061016e6004803603602081101561033957600080fd5b50356107ca565b6001546001600160a01b031633148061036357506004546001600160a01b031633145b61039e5760405162461bcd60e51b8152600401808060200182810382526031815260200180610af16031913960400191505060405180910390fd5b565b6000828201838110156103f8576040805162461bcd60e51b815260206004820152601b60248201527a536166654d6174683a206164646974696f6e206f766572666c6f7760281b604482015290519081900360640190fd5b9392505050565b6003546001600160a01b031681565b6104166105f1565b610467576040805162461bcd60e51b815260206004820181905260248201527f4f776e61626c653a2063616c6c6572206973206e6f7420746865206f776e6572604482015290519081900360640190fd5b610470846107e5565b610479836107e5565b610482826107e5565b61048b816107e5565b600180546001600160a01b038087166001600160a01b031992831681179093556002805487831690841617905560038054868316908416179055600480549185169190921617905560408051918252517f3ca631ffcd2a9b5d9ae18543fc82f58eb4ca33af9e6ab01b7a8e95331e6ed9859181900360200190a1604080516001600160a01b038516815290517f143219c9e69b09e07e095fcc889b43d8f46ca892bba65f08dc3a0050869a56789181900360200190a1604080516001600160a01b038416815290517f82966d27eea39b038ee0fa30cd16532bb24f6e65d31cb58fb227aa5766cdcc7f9181900360200190a1604080516001600160a01b038316815290517f5ee0cae2f063ed938bb55046f6a932fb6ae792bf43624806bb90abe68a50be9b9181900360200190a16105c1610868565b50505050565b60065490565b6002546001600160a01b031681565b60055490565b6000546001600160a01b031690565b6000546001600160a01b0316331490565b6040518060400160405280600a8152602001691058dd1a5d99541bdbdb60b21b81525081565b6106306108b2565b600554610643908263ffffffff61092516565b60058190556040805191825251600080516020610b228339815191529181900360200190a1604080516001600160a01b03841681526020810183905281517f6109e2559dfa766aaec7118351d48a523f0a4157f49c8d68749c8ac41318ad12929181900390910190a16040516000906001600160a01b0384169083908381818185875af1925050503d80600081146106f7576040519150601f19603f3d011682016040523d82523d6000602084013e6106fc565b606091505b5050905080610752576040805162461bcd60e51b815260206004820152601e60248201527f416374697665506f6f6c3a2073656e64696e6720424e42206661696c65640000604482015290519081900360640190fd5b505050565b6004546001600160a01b031681565b6001546001600160a01b031681565b61077d610967565b600654610790908263ffffffff6103a016565b600681905560408051918252517fbc398e39069a80a89956f6a20ec917435b7edcf07e2be1a9ac3a27b39dfcb8df9181900360200190a150565b6107d26108b2565b600654610790908263ffffffff61092516565b6001600160a01b038116610828576040805162461bcd60e51b81526020600482015260056024820152641830b2323960d91b604482015290519081900360640190fd5b803b80610864576040805162461bcd60e51b815260206004820152600560248201526430636f646560d81b604482015290519081900360640190fd5b5050565b600080546040516001600160a01b03909116907f8be0079c531659141344cd1fd0a4f28419497f9722a3daafe3b4186f6b6457e0908390a3600080546001600160a01b0319169055565b6001546001600160a01b03163314806108d557506002546001600160a01b031633145b806108ea57506003546001600160a01b031633145b61039e5760405162461bcd60e51b8152600401808060200182810382526053815260200180610a9e6053913960600191505060405180910390fd5b60006103f883836040518060400160405280601e81526020017f536166654d6174683a207375627472616374696f6e206f766572666c6f7700008152506109c5565b6001546001600160a01b031633148061098a57506002546001600160a01b031633145b61039e5760405162461bcd60e51b8152600401808060200182810382526041815260200180610a5d6041913960600191505060405180910390fd5b60008184841115610a545760405162461bcd60e51b81526004018080602001828103825283818151815260200191508051906020019080838360005b83811015610a19578181015183820152602001610a01565b50505050905090810190601f168015610a465780820380516001836020036101000a031916815260200191505b509250505060405180910390fd5b50505090039056fe416374697665506f6f6c3a2043616c6c6572206973206e65697468657220426f72726f7765724f7065726174696f6e73206e6f722054726f76654d616e61676572416374697665506f6f6c3a2043616c6c6572206973206e65697468657220426f72726f7765724f7065726174696f6e73206e6f722054726f76654d616e61676572206e6f722053746162696c697479506f6f6c416374697665506f6f6c3a2043616c6c6572206973206e65697468657220424f206e6f722044656661756c7420506f6f6c5dd47c142c5e2369f88079cbf010bd26b721065bf43cc3a482ebbd54697ce230a164736f6c634300060b000a608060405234801561001057600080fd5b50600080546001600160a01b0319163390811782556040519091907f8be0079c531659141344cd1fd0a4f28419497f9722a3daafe3b4186f6b6457e0908290a36109298061005f6000396000f3fe6080604052600436106100905760003560e01c806306fc5daf146100dc5780635227d6a8146101085780635a4d28bb1461012f57806378a619de146101605780638da5cb5b146101755780638f32d59b1461018a57806390107afe146101b3578063a3f4df7e146101ee578063b08bc72214610278578063cda072941461028d578063fb3dd0e2146102b7576100d7565b366100d75761009d6102e1565b6003546100b0903463ffffffff61032c16565b600381905560408051918252516000805160206108d28339815191529181900360200190a1005b600080fd5b3480156100e857600080fd5b50610106600480360360208110156100ff57600080fd5b503561038b565b005b34801561011457600080fd5b5061011d6104c9565b60408051918252519081900360200190f35b34801561013b57600080fd5b506101446104cf565b604080516001600160a01b039092168252519081900360200190f35b34801561016c57600080fd5b5061011d6104de565b34801561018157600080fd5b506101446104e4565b34801561019657600080fd5b5061019f6104f3565b604080519115158252519081900360200190f35b3480156101bf57600080fd5b50610106600480360360408110156101d657600080fd5b506001600160a01b0381358116916020013516610504565b3480156101fa57600080fd5b50610203610617565b6040805160208082528351818301528351919283929083019185019080838360005b8381101561023d578181015183820152602001610225565b50505050905090810190601f16801561026a5780820380516001836020036101000a031916815260200191505b509250505060405180910390f35b34801561028457600080fd5b5061014461063e565b34801561029957600080fd5b50610106600480360360208110156102b057600080fd5b503561064d565b3480156102c357600080fd5b50610106600480360360208110156102da57600080fd5b50356106a2565b6002546001600160a01b0316331461032a5760405162461bcd60e51b81526004018080602001828103825260298152602001806108a96029913960400191505060405180910390fd5b565b600082820183811015610384576040805162461bcd60e51b815260206004820152601b60248201527a536166654d6174683a206164646974696f6e206f766572666c6f7760281b604482015290519081900360640190fd5b9392505050565b6103936106bd565b6002546003546001600160a01b03909116906103b5908363ffffffff61070616565b600381905560408051918252516000805160206108d28339815191529181900360200190a1604080516001600160a01b03831681526020810184905281517f6109e2559dfa766aaec7118351d48a523f0a4157f49c8d68749c8ac41318ad12929181900390910190a16040516000906001600160a01b0383169084908381818185875af1925050503d8060008114610469576040519150601f19603f3d011682016040523d82523d6000602084013e61046e565b606091505b50509050806104c4576040805162461bcd60e51b815260206004820152601f60248201527f44656661756c74506f6f6c3a2073656e64696e6720424e42206661696c656400604482015290519081900360640190fd5b505050565b60045490565b6001546001600160a01b031681565b60035490565b6000546001600160a01b031690565b6000546001600160a01b0316331490565b61050c6104f3565b61055d576040805162461bcd60e51b815260206004820181905260248201527f4f776e61626c653a2063616c6c6572206973206e6f7420746865206f776e6572604482015290519081900360640190fd5b61056682610748565b61056f81610748565b600180546001600160a01b038085166001600160a01b03199283168117909355600280549185169190921617905560408051918252517f143219c9e69b09e07e095fcc889b43d8f46ca892bba65f08dc3a0050869a56789181900360200190a1604080516001600160a01b038316815290517f78f058b189175430c48dc02699e3a0031ea4ff781536dc2fab847de4babdd8829181900360200190a16106136107c7565b5050565b6040518060400160405280600b81526020016a111959985d5b1d141bdbdb60aa1b81525081565b6002546001600160a01b031681565b6106556106bd565b600454610668908263ffffffff61032c16565b600481905560408051918252517f9428422e3efdda387dc314f3fbe5f88b0a4493ea2d54864fcb1d9d444367ef2d9181900360200190a150565b6106aa6106bd565b600454610668908263ffffffff61070616565b6001546001600160a01b0316331461032a5760405162461bcd60e51b815260040180806020018281038252602b8152602001806108f2602b913960400191505060405180910390fd5b600061038483836040518060400160405280601e81526020017f536166654d6174683a207375627472616374696f6e206f766572666c6f770000815250610811565b6001600160a01b03811661078b576040805162461bcd60e51b81526020600482015260056024820152641830b2323960d91b604482015290519081900360640190fd5b803b80610613576040805162461bcd60e51b815260206004820152600560248201526430636f646560d81b604482015290519081900360640190fd5b600080546040516001600160a01b03909116907f8be0079c531659141344cd1fd0a4f28419497f9722a3daafe3b4186f6b6457e0908390a3600080546001600160a01b0319169055565b600081848411156108a05760405162461bcd60e51b81526004018080602001828103825283818151815260200191508051906020019080838360005b8381101561086557818101518382015260200161084d565b50505050905090810190601f1680156108925780820380516001836020036101000a031916815260200191505b509250505060405180910390fd5b50505090039056fe44656661756c74506f6f6c3a2043616c6c6572206973206e6f742074686520416374697665506f6f6c27ae709ad75e8d69a904ad98b784a5b900c949599a52380a7d6d6663c5528bc244656661756c74506f6f6c3a2043616c6c6572206973206e6f74207468652054726f76654d616e61676572a164736f6c634300060b000a6080604052670de0b6b3a764000060125534801561001c57600080fd5b50600580546001600160a01b031916339081179091556040516000907f8be0079c531659141344cd1fd0a4f28419497f9722a3daafe3b4186f6b6457e0908290a3613cab8061006c6000396000f3fe6080604052600436106102115760003560e01c80630e1cfec91461026157806316b9d3c51461028c5780631f08498c146102bd57806323b36a81146102dd578063250ffbec146102fd57806328a0a04d1461031f5780632a7e19c31461033f578063335525ad1461035f5780633927e0061461037f5780633cc74225146103945780633d83908a146103b65780634870dd9a146103cb578063556be101146103e05780635d2de642146104005780635f788d651461042057806372fe25aa1461044057806373fc5fcd14610455578063741bef1a14610475578063766718081461048a57806377553ad4146104ac57806378a619de146104c1578063795d26c3146104d65780637f7dde4a146104eb57806382e0a57414610500578063848bb7c61461052057806386da082414610535578063887105d3146105555780638b8fbd921461056a5780638da5cb5b1461057f5780638f32d59b1461059457806395fb16bb146105b6578063991292e3146105cb5780639aca71b0146105e0578063a20baee614610440578063a3f4df7e146105f5578063a4e59ac814610617578063a7bfff971461062c578063ae9187541461065a578063ce4b5bbe1461066f578063ce538bee14610684578063d085835a146106a4578063df9cd84f146106b9578063f6d706c1146106d9578063f8f8d174146106ee578063fc55bd1614610703578063fc7e286d146107235761025c565b3661025c5761021e610751565b600b54610231903463ffffffff61078616565b600b819055604051600080516020613c5f8339815191529161025291613acb565b60405180910390a1005b600080fd5b34801561026d57600080fd5b506102766107b4565b6040516102839190613acb565b60405180910390f35b34801561029857600080fd5b506102ac6102a73660046130c7565b6107ba565b604051610283959493929190613b1a565b3480156102c957600080fd5b506102766102d83660046130c7565b6107f5565b3480156102e957600080fd5b506102766102f83660046130c7565b61089d565b34801561030957600080fd5b5061031d6103183660046132fc565b6109a1565b005b34801561032b57600080fd5b5061027661033a366004613269565b610b43565b34801561034b57600080fd5b5061031d61035a3660046130ff565b610b60565b34801561036b57600080fd5b5061031d61037a366004613345565b610e11565b34801561038b57600080fd5b50610276610e75565b3480156103a057600080fd5b506103a9610e7b565b6040516102839190613404565b3480156103c257600080fd5b506103a9610e8a565b3480156103d757600080fd5b50610276610e99565b3480156103ec57600080fd5b5061031d6103fb36600461329d565b610e9e565b34801561040c57600080fd5b5061027661041b3660046130c7565b610f16565b34801561042c57600080fd5b5061031d61043b3660046132cd565b610f28565b34801561044c57600080fd5b506102766110cb565b34801561046157600080fd5b506102766104703660046130c7565b6110d7565b34801561048157600080fd5b506103a9611174565b34801561049657600080fd5b5061049f611183565b6040516102839190613ab7565b3480156104b857600080fd5b506103a9611199565b3480156104cd57600080fd5b506102766111a8565b3480156104e257600080fd5b506102766111ae565b3480156104f757600080fd5b506103a96112da565b34801561050c57600080fd5b5061027661051b366004613269565b6112e9565b34801561052c57600080fd5b5061031d611306565b34801561054157600080fd5b506102ac6105503660046130c7565b611323565b34801561056157600080fd5b5061027661135e565b34801561057657600080fd5b50610276611439565b34801561058b57600080fd5b506103a961143f565b3480156105a057600080fd5b506105a961144e565b60405161028391906134a6565b3480156105c257600080fd5b506103a961145f565b3480156105d757600080fd5b506103a961146e565b3480156105ec57600080fd5b5061027661147d565b34801561060157600080fd5b5061060a611483565b60405161028391906134d5565b34801561062357600080fd5b5061049f6114ac565b34801561063857600080fd5b5061064c6106473660046130c7565b6114bb565b604051610283929190613aeb565b34801561066657600080fd5b506103a96114d7565b34801561067b57600080fd5b506102766114e6565b34801561069057600080fd5b5061027661069f3660046130c7565b6114ee565b3480156106b057600080fd5b506103a96115eb565b3480156106c557600080fd5b506102766106d43660046130c7565b6115fa565b3480156106e557600080fd5b50610276611697565b3480156106fa57600080fd5b506103a961169d565b34801561070f57600080fd5b5061031d61071e3660046131a7565b6116ac565b34801561072f57600080fd5b5061074361073e3660046130c7565b6118e6565b604051610283929190613ad4565b6001546001600160a01b031633146107845760405162461bcd60e51b815260040161077b906135c9565b60405180910390fd5b565b6000828201838110156107ab5760405162461bcd60e51b815260040161077b90613528565b90505b92915050565b60185481565b6011602052600090815260409020805460018201546002830154600390930154919290916001600160801b0380821691600160801b90041685565b6001600160a01b0381166000908152600d60205260408120548061081d576000915050610898565b610825612ffc565b506001600160a01b0383166000908152600e60209081526040808320815160a08101835281548152600182015493810193909352600281015491830191909152600301546001600160801b038082166060840152600160801b909104166080820152906108928383611908565b93505050505b919050565b6001600160a01b038116600090815260106020526040812054806108c5576000915050610898565b6001600160a01b0383166000908152600f6020526040812054906108f7670de0b6b3a76400008363ffffffff611a0416565b9050610901612ffc565b506001600160a01b0385166000908152601160209081526040808320815160a08101835281548152600182015493810193909352600281015491830191909152600301546001600160801b038082166060840152600160801b90910416608082015290610996670de0b6b3a764000061098a61097d8886611a46565b869063ffffffff611b3816565b9063ffffffff611b7216565b979650505050505050565b82156109b1576109b18282611bb1565b336000908152600d60205260409020546109ca81611e04565b600a546001600160a01b03166109df81611e27565b60006109ea336110d7565b905060006109f7336107f5565b90506000610a058883611ea7565b90506000610a19868463ffffffff611a0416565b336000818152600d60205260409020600101549192506001600160a01b0390911690610a4790879083611ebd565b6000610a52826115fa565b90506000610a66828663ffffffff611a0416565b9050610a728382612032565b826001600160a01b0316600080516020613c7f8339815191528233604051610a9b929190613ad4565b60405180910390a2610aad3386612156565b6000610abf878763ffffffff611a0416565b9050610acb33826121cf565b336001600160a01b0316600080516020613b9f83398151915282604051610af29190613acb565b60405180910390a2336001600160a01b0316600080516020613b7f8339815191528987604051610b239291906134b1565b60405180910390a2610b3488612320565b50505050505050505050505050565b601460209081526000928352604080842090915290825290205481565b610b6861144e565b610b845760405162461bcd60e51b815260040161077b906136e9565b610b8d88612416565b610b9687612416565b610b9f86612416565b610ba885612416565b610bb184612416565b610bba83612416565b610bc382612416565b610bcc81612416565b600680546001600160a01b03199081166001600160a01b038b8116919091179092556007805482168a8416179055600180548216898416179055600880548216888416179055600980548216878416179055600380548216868416179055600a80548216858416179055600480549091169183169190911790556040517f3ca631ffcd2a9b5d9ae18543fc82f58eb4ca33af9e6ab01b7a8e95331e6ed98590610c76908a90613404565b60405180910390a17f143219c9e69b09e07e095fcc889b43d8f46ca892bba65f08dc3a0050869a567887604051610cad9190613404565b60405180910390a17f78f058b189175430c48dc02699e3a0031ea4ff781536dc2fab847de4babdd88286604051610ce49190613404565b60405180910390a17f77b26272f42e99a3561f9dadc496d25589af0c1ebb03221e752e439015dd0d6385604051610d1b9190613404565b60405180910390a17f65f4cf077bc01e4742eb5ad98326f6e95b63548ea24b17f8d5e823111fe7880084604051610d529190613404565b60405180910390a17f8c537274438aa850a330284665d81a85dd38267d09e4050d416bfc94142db26483604051610d899190613404565b60405180910390a17f3055265812fb8447b9ada4a5d804ec43bd528ec40e89c952bbc7b85dc5ac681182604051610dc09190613404565b60405180910390a17f496a1a8082b26acb3aeec16a7ecb48e279f82c31f09bfa4e08cb69ce93fea7fe81604051610df79190613404565b60405180910390a1610e0761245b565b5050505050505050565b610e196124a5565b600c54801580610e27575082155b15610e325750610e71565b600a54610e47906001600160a01b0316611e27565b600080610e558486856124cf565b91509150610e6382826125c8565b610e6d84866128a8565b5050505b5050565b600c5490565b6002546001600160a01b031681565b6007546001600160a01b031681565b60c881565b610ea7336129de565b610eb033612a1a565b610eb981612a51565b336000818152600f6020526040908190208381556001908101805460ff19169091179055517f19bc932fb9e16a8b5a1e41be9f4c2de59d5ddd7567b8b81405f532ca00a9880e90610f0b908490613acb565b60405180910390a250565b60106020526000908152604090205481565b610f3181612a79565b610f3a336129de565b610f4382612ac6565b336000908152600d6020526040902054600a546001600160a01b0316610f6881611e27565b81610f7757610f773384612ae6565b6000610f82336110d7565b90506000610f8f336107f5565b90506000610fa3858363ffffffff611a0416565b336000818152600d60205260409020600101549192506001600160a01b0390911690610fd190869083611ebd565b6000610fdc826115fa565b90506000610ff0828b63ffffffff61078616565b9050610ffc8382612032565b826001600160a01b0316600080516020613c7f8339815191528233604051611025929190613ad4565b60405180910390a2611037338b612b40565b6000611049868c63ffffffff61078616565b905061105533826121cf565b336001600160a01b0316600080516020613b9f8339815191528260405161107c9190613acb565b60405180910390a2336001600160a01b0316600080516020613b7f83398151915288876040516110ad9291906134b1565b60405180910390a26110be87612320565b5050505050505050505050565b670de0b6b3a764000081565b6001600160a01b0381166000908152600d6020526040812054806110ff576000915050610898565b611107612ffc565b506001600160a01b0383166000908152600e60209081526040808320815160a08101835281548152600182015493810193909352600281015491830191909152600301546001600160801b038082166060840152600160801b909104166080820152906108928383612bef565b6003546001600160a01b031681565b601354600160801b90046001600160801b031681565b6006546001600160a01b031681565b600b5490565b600080600160009054906101000a90046001600160a01b03166001600160a01b0316635227d6a86040518163ffffffff1660e01b815260040160206040518083038186803b1580156111ff57600080fd5b505afa158015611213573d6000803e3d6000fd5b505050506040513d601f19601f8201168201806040525081019061123791906132b5565b90506000600260009054906101000a90046001600160a01b03166001600160a01b0316635227d6a86040518163ffffffff1660e01b815260040160206040518083038186803b15801561128957600080fd5b505afa15801561129d573d6000803e3d6000fd5b505050506040513d601f19601f820116820180604052508101906112c191906132b5565b90506112d3828263ffffffff61078616565b9250505090565b6001546001600160a01b031681565b601560209081526000928352604080842090915290825290205481565b61130e612c7a565b600a54610784906001600160a01b0316611e27565b600e602052600090815260409020805460018201546002830154600390930154919290916001600160801b0380821691600160801b90041685565b600080600160009054906101000a90046001600160a01b03166001600160a01b03166378a619de6040518163ffffffff1660e01b815260040160206040518083038186803b1580156113af57600080fd5b505afa1580156113c3573d6000803e3d6000fd5b505050506040513d601f19601f820116820180604052508101906113e791906132b5565b90506000600260009054906101000a90046001600160a01b03166001600160a01b03166378a619de6040518163ffffffff1660e01b815260040160206040518083038186803b15801561128957600080fd5b60125481565b6005546001600160a01b031690565b6005546001600160a01b0316331490565b600a546001600160a01b031681565b6004546001600160a01b031681565b60175481565b6040518060400160405280600d81526020016c14dd18589a5b1a5d1e541bdbdb609a1b81525081565b6013546001600160801b031681565b600f602052600090815260409020805460019091015460ff1682565b6009546001600160a01b031681565b633b9aca0081565b6001600160a01b0381166000908152600d602052604081205480611516576000915050610898565b6001600160a01b038084166000908152600d602052604081206001015490911690811561155b576001600160a01b0382166000908152600f6020526040902054611565565b670de0b6b3a76400005b905061156f612ffc565b506001600160a01b0385166000908152600e60209081526040808320815160a08101835281548152600182015493810193909352600281015491830191909152600301546001600160801b038082166060840152600160801b90910416608082015290610996670de0b6b3a764000061098a61097d8886611a46565b6000546001600160a01b031681565b6001600160a01b03811660009081526010602052604081205480611622576000915050610898565b61162a612ffc565b506001600160a01b0383166000908152601160209081526040808320815160a08101835281548152600182015493810193909352600281015491830191909152600301546001600160801b038082166060840152600160801b909104166080820152906108928383611908565b60165481565b6008546001600160a01b031681565b336000908152600d60205260409020546116c581611e04565b6116ce33612ca4565b6116d733612d43565b600a546001600160a01b03166116ec81611e27565b60006116f7336110d7565b90506000611704336107f5565b90506000611718858363ffffffff611a0416565b336000818152600d60205260409020600101549192506001600160a01b039091169061174690869083611ebd565b6000611751826115fa565b90508061175e8382612032565b826001600160a01b0316600080516020613c7f8339815191528233604051611787929190613ad4565b60405180910390a261179933866121cf565b336001600160a01b0316600080516020613b7f83398151915287866040516117c29291906134b1565b60405180910390a2336001600160a01b0316600080516020613b9f833981519152866040516117f19190613acb565b60405180910390a2600b5461180c908763ffffffff611a0416565b600b819055604051600080516020613c5f8339815191529161182d91613acb565b60405180910390a1600080516020613bdf8339815191523387604051611854929190613471565b60405180910390a1600660009054906101000a90046001600160a01b03166001600160a01b03166337ddc0af87338f8f8f8f6040518763ffffffff1660e01b81526004016118a6959493929190613418565b6000604051808303818588803b1580156118bf57600080fd5b505af11580156118d3573d6000803e3d6000fd5b5050505050505050505050505050505050565b600d60205260009081526040902080546001909101546001600160a01b031682565b6020810151606082015160808301516013546000939291906001600160801b03600160801b9091048116908216101561194757600093505050506107ae565b6013546000908190611968906001600160801b03168563ffffffff612d7016565b90506001600160801b038116611998576119918561098a6012548b611b3890919063ffffffff16565b91506119d0565b806001600160801b0316600114156119cb57611991633b9aca0061098a8761098a6012548d611b3890919063ffffffff16565b600091505b6119e488633b9aca0063ffffffff611b7216565b8210156119f9576000955050505050506107ae565b509695505050505050565b60006107ab83836040518060400160405280601e81526020017f536166654d6174683a207375627472616374696f6e206f766572666c6f770000815250612daa565b608081015160608201516040808401516020808601516001600160801b03808716600090815260158452858120918716815292529281205490949392908590611a95908463ffffffff611a0416565b6001600160801b03808716600090815260156020526040812092935091611af891633b9aca0091908490611ad2908a16600163ffffffff612dd616565b6001600160801b031681526020810191909152604001600020549063ffffffff611b7216565b90506000611b2a670de0b6b3a764000061098a8681611b1d888863ffffffff61078616565b8f9063ffffffff611b3816565b9a9950505050505050505050565b600082611b47575060006107ae565b82820282848281611b5457fe5b04146107ab5760405162461bcd60e51b815260040161077b906136a8565b60006107ab83836040518060400160405280601a815260200179536166654d6174683a206469766973696f6e206279207a65726f60301b815250612e07565b611bb961303d565b600354604051634e15f2a560e01b81526001600160a01b0390911690634e15f2a590611beb908690869060040161348a565b608060405180830381600087803b158015611c0557600080fd5b505af1158015611c19573d6000803e3d6000fd5b505050506040513d601f19601f82011682018060405250810190611c3d9190613209565b90506000600960009054906101000a90046001600160a01b03166001600160a01b0316634d6228316040518163ffffffff1660e01b815260040160206040518083038186803b158015611c8f57600080fd5b505afa158015611ca3573d6000803e3d6000fd5b505050506040513d601f19601f82011682018060405250810190611cc791906130e3565b6007548351604051630d293c7160e41b81529293506000926001600160a01b039092169163d293c71091611d0091869190600401613471565b60206040518083038186803b158015611d1857600080fd5b505afa158015611d2c573d6000803e3d6000fd5b505050506040513d601f19601f82011682018060405250810190611d5091906132b5565b90506000600460009054906101000a90046001600160a01b03166001600160a01b03166344936b106040518163ffffffff1660e01b815260040160206040518083038186803b158015611da257600080fd5b505afa158015611db6573d6000803e3d6000fd5b505050506040513d601f19601f82011682018060405250810190611dda91906132b5565b905080821015611dfc5760405162461bcd60e51b815260040161077b90613a4d565b505050505050565b60008111611e245760405162461bcd60e51b815260040161077b90613970565b50565b6000816001600160a01b031663284f997e6040518163ffffffff1660e01b8152600401602060405180830381600087803b158015611e6457600080fd5b505af1158015611e78573d6000803e3d6000fd5b505050506040513d601f19601f82011682018060405250810190611e9c91906132b5565b9050610e7181612e3e565b6000818310611eb657816107ab565b5090919050565b6001600160a01b03811615611f7d576000611ed78261089d565b604051632787733160e11b81529091506001600160a01b03851690634f0ee66290611f089085908590600401613471565b600060405180830381600087803b158015611f2257600080fd5b505af1158015611f36573d6000803e3d6000fd5b50505050816001600160a01b03167f362f19634270aca161bc0c423b2db8add2e945c10f2bcfc45ed432210604688b82604051611f739190613acb565b60405180910390a2505b6000611f88836114ee565b604051632787733160e11b81529091506001600160a01b03851690634f0ee66290611fb99086908590600401613471565b600060405180830381600087803b158015611fd357600080fd5b505af1158015611fe7573d6000803e3d6000fd5b50505050826001600160a01b03167fe02cdb8c8348be638bb6915ffafe4531b37ca6b2315beb2e6c0a0463b127f740826040516120249190613acb565b60405180910390a250505050565b6001600160a01b0382166000908152601060205260409020819055806120ab576001600160a01b038216600081815260116020526040808220828155600181018390556002810183905560030182905551600080516020613c3f8339815191529161209e9181906134b1565b60405180910390a2610e71565b6013546012546001600160801b03600160801b80840482166000818152601560209081526040808320978616808452978252808320546001600160a01b038b16808552601190935292819020600181018890556002810184905560030180546001600160801b031916891790961694840294909417909455915190939290600080516020613c3f8339815191529061214690859085906134b1565b60405180910390a2505050505050565b8061216057610e71565b600854604051631062c15f60e11b81526001600160a01b03909116906320c582be906121949030908690869060040161344d565b600060405180830381600087803b1580156121ae57600080fd5b505af11580156121c2573d6000803e3d6000fd5b50505050610e7181612f4f565b6001600160a01b0382166000908152600d602052604090208190558061225b576001600160a01b0382166000818152600d60209081526040808320600190810180546001600160a01b0319169055600e90925280832083815591820183905560028201839055600390910182905551600080516020613b5f8339815191529161209e91819081906134bf565b6013546012546001600160801b03600160801b8084048216600081815260146020908152604080832097861680845297825280832054848452601583528184208985528352818420546001600160a01b038c16808652600e90945293829020600181018990558181556002810185905560030180546001600160801b0319168a179097169585029590951790955593519194939091600080516020613b5f8339815191529061230f908690869086906134bf565b60405180910390a250505050505050565b8061232a57611e24565b600b54600090612340908363ffffffff611a0416565b905080600b81905550600080516020613c5f833981519152816040516123669190613acb565b60405180910390a1600080516020613bdf833981519152338360405161238d929190613471565b60405180910390a16000336001600160a01b0316836040516123ae90613401565b60006040518083038185875af1925050503d80600081146123eb576040519150601f19603f3d011682016040523d82523d6000602084013e6123f0565b606091505b50509050806124115760405162461bcd60e51b815260040161077b90613771565b505050565b6001600160a01b03811661243c5760405162461bcd60e51b815260040161077b906138f3565b803b80610e715760405162461bcd60e51b815260040161077b90613951565b6005546040516000916001600160a01b0316907f8be0079c531659141344cd1fd0a4f28419497f9722a3daafe3b4186f6b6457e0908390a3600580546001600160a01b0319169055565b6007546001600160a01b031633146107845760405162461bcd60e51b815260040161077b9061365f565b60008060006125016017546124f5670de0b6b3a764000089611b3890919063ffffffff16565b9063ffffffff61078616565b90508385111561250d57fe5b8385141561252a576000601855670de0b6b3a7640000915061258a565b6018546000906125589061254c88670de0b6b3a764000063ffffffff611b3816565b9063ffffffff611a0416565b905061256f60016124f5838863ffffffff611b7216565b92506125858161254c858863ffffffff611b3816565b601855505b61259a818563ffffffff611b7216565b92506125bc6125af848663ffffffff611b3816565b829063ffffffff611a0416565b60175550935093915050565b6012546000670de0b6b3a76400008311156125df57fe5b60006125f9670de0b6b3a76400008563ffffffff611a0416565b6013546001600160801b03600160801b82048116600081815260146020908152604080832094909516808352939052928320549394509092909161263d8988611b38565b90506000612651838363ffffffff61078616565b6001600160801b038086166000908152601460209081526040808320938a168352929052819020829055519091507fe12e2cd2c9afa8069203ca07e7eff1edce4a075686d0736a8e7e0d593597b207906126b090839087908990613afb565b60405180910390a185612777576126d76001600160801b038516600163ffffffff612dd616565b601380546001600160801b03908116600160801b938216840217918290556040517fb50f0f59e7cb5b421dc77581c3a9919e3806e076e5fa78a874c3f120cb7d874d93612728930490911690613ab7565b60405180910390a1601380546001600160801b0319169055604051600080516020613c1f8339815191529061275f90600090613ab7565b60405180910390a1670de0b6b3a76400009650612852565b633b9aca00612798670de0b6b3a764000061098a8b8a63ffffffff611b3816565b1015612833576127ce670de0b6b3a764000061098a633b9aca006127c28c8b63ffffffff611b3816565b9063ffffffff611b3816565b96506127ea6001600160801b038616600163ffffffff612dd616565b601380546001600160801b0319166001600160801b039283161790819055604051600080516020613c1f83398151915292612826921690613ab7565b60405180910390a1612852565b61284f670de0b6b3a764000061098a8a8963ffffffff611b3816565b96505b6000871161285f57600080fd5b60128790556040517fc1a9618cb59ebca77cbdbc2949f126823c407ff13edb285fd0262519a9c18e8c90612894908990613acb565b60405180910390a150505050505050505050565b600154604051637d9ee87160e11b81526001600160a01b0390911690819063fb3dd0e2906128da908590600401613acb565b600060405180830381600087803b1580156128f457600080fd5b505af1158015612908573d6000803e3d6000fd5b5050505061291582612f4f565b600854604051632770a7eb60e21b81526001600160a01b0390911690639dc29fac906129479030908690600401613471565b600060405180830381600087803b15801561296157600080fd5b505af1158015612975573d6000803e3d6000fd5b5050604051630a569c3760e41b81526001600160a01b038416925063a569c37091506129a79030908790600401613471565b600060405180830381600087803b1580156129c157600080fd5b505af11580156129d5573d6000803e3d6000fd5b50505050505050565b6001600160a01b0381166000908152600f602052604090206001015460ff1615611e245760405162461bcd60e51b815260040161077b90613852565b6001600160a01b0381166000908152600d60205260409020548015610e715760405162461bcd60e51b815260040161077b906138ab565b670de0b6b3a7640000811115611e245760405162461bcd60e51b815260040161077b9061371e565b6001600160a01b0381166000908152600f602052604090206001015460ff1680612aaa57506001600160a01b038116155b611e245760405162461bcd60e51b815260040161077b9061355d565b60008111611e245760405162461bcd60e51b815260040161077b906137b2565b6001600160a01b038281166000818152600d602052604080822060010180546001600160a01b0319169486169485179055517f094c08e96a8890877a8390b4f967180a7507ad8622244d05fcd0f9f8e086564e9190a35050565b600854604051632ee65eeb60e21b81526001600160a01b039091169063bb997bac90612b749085903090869060040161344d565b600060405180830381600087803b158015612b8e57600080fd5b505af1158015612ba2573d6000803e3d6000fd5b5050600c5460009250612bbc91508363ffffffff61078616565b905080600c81905550600080516020613bbf83398151915281604051612be29190613acb565b60405180910390a1505050565b6080810151606082015182516020808501516001600160801b03808616600090815260148452604080822092871682529190935282205491949392918590612c3d908463ffffffff611a0416565b6001600160801b03808716600090815260146020526040812092935091611af891633b9aca0091908490611ad2908a16600163ffffffff612dd616565b600a546001600160a01b031633146107845760405162461bcd60e51b815260040161077b90613610565b6007546040516321e3780160e01b81526001600160a01b03909116906321e3780190612cd4908490600401613404565b60206040518083038186803b158015612cec57600080fd5b505afa158015612d00573d6000803e3d6000fd5b505050506040513d601f19601f82011682018060405250810190612d2491906132b5565b600114611e245760405162461bcd60e51b815260040161077b906137f8565b6000612d4e826110d7565b905060008111610e715760405162461bcd60e51b815260040161077b90613912565b6000826001600160801b0316826001600160801b03161115612da45760405162461bcd60e51b815260040161077b906139c0565b50900390565b60008184841115612dce5760405162461bcd60e51b815260040161077b91906134d5565b505050900390565b60008282016001600160801b0380851690821610156107ab5760405162461bcd60e51b815260040161077b90613a08565b60008183612e285760405162461bcd60e51b815260040161077b91906134d5565b506000838581612e3457fe5b0495945050505050565b600c54801580612e4c575081155b15612e575750611e24565b6000612e638383612f97565b90506000612e7c60125483611b3890919063ffffffff16565b6013546001600160801b03600160801b820481166000908152601560209081526040808320939094168252919091522054909150612ec0908263ffffffff61078616565b601380546001600160801b03600160801b80830482166000908152601560208181526040808420968616845295815285832097909755945491820483168082529486528381209190921680835294528190205490517f2d6127771b164a9cc8827d24b5955db2a77e7a81dac389107ebb8bce9fb6496893612f419391613afb565b60405180910390a150505050565b600c54600090612f65908363ffffffff611a0416565b905080600c81905550600080516020613bbf83398151915281604051612f8b9190613acb565b60405180910390a15050565b600080612fbb6016546124f5670de0b6b3a764000087611b3890919063ffffffff16565b90506000612fcf828563ffffffff611b7216565b9050612ff1612fe4828663ffffffff611b3816565b839063ffffffff611a0416565b601655949350505050565b6040518060a0016040528060008152602001600081526020016000815260200160006001600160801b0316815260200160006001600160801b031681525090565b6040518060800160405280600081526020016000801916815260200160008152602001600081525090565b60008083601f840112613079578182fd5b5081356001600160401b0381111561308f578182fd5b60208301915083602080830285010111156130a957600080fd5b9250929050565b80356001600160801b03811681146107ae57600080fd5b6000602082840312156130d8578081fd5b81356107ab81613b49565b6000602082840312156130f4578081fd5b81516107ab81613b49565b600080600080600080600080610100898b03121561311b578384fd5b883561312681613b49565b9750602089013561313681613b49565b9650604089013561314681613b49565b9550606089013561315681613b49565b9450608089013561316681613b49565b935060a089013561317681613b49565b925060c089013561318681613b49565b915060e089013561319681613b49565b809150509295985092959890939650565b600080600080606085870312156131bc578384fd5b84356131c781613b49565b935060208501356131d781613b49565b925060408501356001600160401b038111156131f1578283fd5b6131fd87828801613068565b95989497509550505050565b60006080828403121561321a578081fd5b604051608081016001600160401b0381118282101715613238578283fd5b8060405250825181526020830151602082015260408301516040820152606083015160608201528091505092915050565b6000806040838503121561327b578182fd5b61328584846130b0565b915061329484602085016130b0565b90509250929050565b6000602082840312156132ae578081fd5b5035919050565b6000602082840312156132c6578081fd5b5051919050565b600080604083850312156132df578182fd5b8235915060208301356132f181613b49565b809150509250929050565b600080600060408486031215613310578283fd5b8335925060208401356001600160401b0381111561332c578283fd5b61333886828701613068565b9497909650939450505050565b60008060408385031215613357578182fd5b50508035926020909101359150565b818352602080840193600091908185020181018584845b878110156133f45782840389528135601e1988360301811261339d578687fd5b87018035906001600160401b038211156133b5578788fd5b8136038913156133c3578788fd5b818652818782018888013750848101860187905298850198601f01601f19169093018401929084019060010161337d565b5091979650505050505050565b90565b6001600160a01b0391909116815260200190565b6001600160a01b0386811682528581166020830152841660408201526080606082018190526000906109969083018486613366565b6001600160a01b039384168152919092166020820152604081019190915260600190565b6001600160a01b03929092168252602082015260400190565b60006020825261349e602083018486613366565b949350505050565b901515815260200190565b918252602082015260400190565b9283526020830191909152604082015260600190565b6000602080835283518082850152825b81811015613501578581018301518582016040015282016134e5565b818111156135125783604083870101525b50601f01601f1916929092016040019392505050565b6020808252601b908201527a536166654d6174683a206164646974696f6e206f766572666c6f7760281b604082015260600190565b60208082526046908201527f53746162696c697479506f6f6c3a20546167206d75737420626520612072656760408201527f697374657265642066726f6e7420656e642c206f7220746865207a65726f206160608201526564647265737360d01b608082015260a00190565b60208082526027908201527f53746162696c697479506f6f6c3a2043616c6c6572206973206e6f74204163746040820152661a5d99541bdbdb60ca1b606082015260800190565b6020808252602f908201527f53746162696c697479506f6f6c3a2043616c6c696572206973206e6f7420436f60408201526e6d6d756e69747949737375616e636560881b606082015260800190565b60208082526029908201527f53746162696c697479506f6f6c3a2043616c6c6572206973206e6f742054726f6040820152683b32a6b0b730b3b2b960b91b606082015260800190565b60208082526021908201527f536166654d6174683a206d756c7469706c69636174696f6e206f766572666c6f6040820152607760f81b606082015260800190565b6020808252818101527f4f776e61626c653a2063616c6c6572206973206e6f7420746865206f776e6572604082015260600190565b60208082526033908201527f53746162696c697479506f6f6c3a204b69636b6261636b2072617465206d75736040820152727420626520696e2072616e6765205b302c315d60681b606082015260800190565b60208082526021908201527f53746162696c697479506f6f6c3a2073656e64696e6720424e42206661696c656040820152601960fa1b606082015260800190565b60208082526026908201527f53746162696c697479506f6f6c3a20416d6f756e74206d757374206265206e6f6040820152656e2d7a65726f60d01b606082015260800190565b6020808252604690820152600080516020613bff83398151915260408201527f616e206163746976652074726f766520746f20776974686472617720424e424760608201526561696e20746f60d01b608082015260a00190565b60208082526039908201527f53746162696c697479506f6f6c3a206d757374206e6f7420616c72656164792060408201527818994818481c9959da5cdd195c995908199c9bdb9d08195b99603a1b606082015260800190565b60208082526028908201527f53746162696c697479506f6f6c3a2055736572206d7573742068617665206e6f6040820152670819195c1bdcda5d60c21b606082015260800190565b6020808252600590820152641830b2323960d91b604082015260600190565b6020808252603190820152600080516020613bff8339815191526040820152703737b716bd32b937902127211023b0b4b760791b606082015260800190565b60208082526005908201526430636f646560d81b604082015260600190565b60208082526030908201527f53746162696c697479506f6f6c3a2055736572206d757374206861766520612060408201526f1b9bdb8b5e995c9bc819195c1bdcda5d60821b606082015260800190565b60208082526028908201527f4c697175697479536166654d6174683132383a207375627472616374696f6e206040820152676f766572666c6f7760c01b606082015260800190565b60208082526025908201527f4c697175697479536166654d6174683132383a206164646974696f6e206f766560408201526472666c6f7760d81b606082015260800190565b60208082526044908201527f53746162696c697479506f6f6c3a2043616e6e6f74207769746864726177207760408201527f68696c65207468657265206172652074726f766573207769746820494352203c6060820152631026a1a960e11b608082015260a00190565b6001600160801b0391909116815260200190565b90815260200190565b9182526001600160a01b0316602082015260400190565b9182521515602082015260400190565b9283526001600160801b03918216602084015216604082015260600190565b948552602085019390935260408401919091526001600160801b03908116606084015216608082015260a00190565b6001600160a01b0381168114611e2457600080fdfe2d6cc0bcdf72c9486f6451bde6b80f44066f4558f77f44dbfedbe7d8b295225af7740d19ac5c5cb3bce0afd5353ac7204ccedc999cb4e867ac42e612928ca967bce78369dccab09eec1986f4d409ab09ffbb47d65423e5148fcf98411c5111c9a1bded18ff33dc34c6b1b93d3f9e5a0f03ee5770cec8ba306bd64157f6ec9bf06109e2559dfa766aaec7118351d48a523f0a4157f49c8d68749c8ac41318ad1253746162696c697479506f6f6c3a2063616c6c6572206d7573742068617665201f9dfc70cd666adb18a39d60a797518f7b4febf4b6e24ef37d44f6e1e7219fbebb1322f85cc7cc8bac4e172a5bc5dcc0c1959007f9a030032abf9258205f0e458ffc70b5d0c22bc36e9fff0f08ec2bbdc1c1fdf1a97dceddec0984ce0624c02399920012339b5a3368d3a04b8606ce412c46ed92b7dcd8602d41fc8862cb8f25a164736f6c634300060b000a6080604052348015600f57600080fd5b50601680601d6000396000f3fe6080604052600080fdfea164736f6c634300060b000a60806040523480156200001157600080fd5b5060405162001f0438038062001f0483398101604081905262000034916200041f565b62000074604051620000469062000490565b60405180910390206040516200005c9062000490565b6040519081900390206001600160e01b03620001db16565b620000866040516200004690620004b9565b620000986040516200004690620004d2565b620000d5604051620000aa9062000490565b604051908190039020620000c66001600160e01b036200022d16565b6001600160e01b036200023116565b62000100604051620000e79062000490565b604051908190039020306001600160e01b036200023116565b60005b82518110156200015157620001486040516200011f90620004b9565b60405180910390208483815181106200013457fe5b60200260200101516200023160201b60201c565b60010162000103565b5060005b81518110156200018f57620001866040516200017190620004d2565b60405180910390208383815181106200013457fe5b60010162000155565b5060028390556040517f11c24f4ead16507c69ac467fbd5e4eed5fb5c699626d2cc6d66421df253886d590620001ca906000908690620004eb565b60405180910390a1505050620004f9565b600082815260208190526040808220600201549051839285917fbd79b86ffe0ab8e8776151514217cd7cacd52c909f66475c3af44e129f0b00ff9190a460009182526020829052604090912060020155565b3390565b6200024682826001600160e01b036200024a16565b5050565b6000828152602081815260409091206200026f91839062000b51620002cc821b17901c565b156200024657620002886001600160e01b036200022d16565b6001600160a01b0316816001600160a01b0316837f2f8788117e7eff1d82e926ec794901d17c78024a50270940304540a733656f0d60405160405180910390a45050565b6000620002ec836001600160a01b0384166001600160e01b03620002f516565b90505b92915050565b60006200030c83836001600160e01b036200034d16565b6200034457508154600181810184556000848152602080822090930184905584548482528286019093526040902091909155620002ef565b506000620002ef565b60009081526001919091016020526040902054151590565b80516001600160a01b0381168114620002ef57600080fd5b600082601f8301126200038e578081fd5b81516001600160401b0380821115620003a5578283fd5b602080830260405182828201018181108582111715620003c3578687fd5b604052848152945081850192508582018187018301881015620003e557600080fd5b600091505b848210156200041457620003ff888262000365565b845292820192600191909101908201620003ea565b505050505092915050565b60008060006060848603121562000434578283fd5b835160208501519093506001600160401b038082111562000453578384fd5b62000461878388016200037d565b9350604086015191508082111562000477578283fd5b5062000486868287016200037d565b9150509250925092565b7f54494d454c4f434b5f41444d494e5f524f4c4500000000000000000000000000815260130190565b6c50524f504f5345525f524f4c4560981b8152600d0190565b6c4558454355544f525f524f4c4560981b8152600d0190565b918252602082015260400190565b6119fb80620005096000396000f3fe60806040526004361061012a5760003560e01c806301d5062a1461013657806307bd0265146101585780630d3cf6fc14610183578063134008d31461019857806313bc9f20146101ab578063248a9ca3146101d85780632ab0f529146101f85780632f2ff15d1461021857806331d507501461023857806336568abe14610258578063584b153e1461027857806364d62353146102985780638065657f146102b85780638f2a0bb0146102d85780638f61f4f5146102f85780639010d07c1461030d57806391d148541461033a578063a217fddf1461035a578063b1c5f4271461036f578063c4d252f51461038f578063ca15c873146103af578063d45c4435146103cf578063d547741f146103ef578063e38335e51461040f578063f27a0c921461042257610131565b3661013157005b600080fd5b34801561014257600080fd5b506101566101513660046110e1565b610437565b005b34801561016457600080fd5b5061016d6104e6565b60405161017a9190611556565b60405180910390f35b34801561018f57600080fd5b5061016d6104fd565b6101566101a6366004611076565b610509565b3480156101b757600080fd5b506101cb6101c63660046112a5565b610593565b60405161017a919061154b565b3480156101e457600080fd5b5061016d6101f33660046112a5565b6105b8565b34801561020457600080fd5b506101cb6102133660046112a5565b6105cd565b34801561022457600080fd5b506101566102333660046112bd565b6105e1565b34801561024457600080fd5b506101cb6102533660046112a5565b610629565b34801561026457600080fd5b506101566102733660046112bd565b61063c565b34801561028457600080fd5b506101cb6102933660046112a5565b61067e565b3480156102a457600080fd5b506101566102b33660046112a5565b61068b565b3480156102c457600080fd5b5061016d6102d3366004611076565b6106ea565b3480156102e457600080fd5b506101566102f33660046111f8565b610729565b34801561030457600080fd5b5061016d610872565b34801561031957600080fd5b5061032d6103283660046112ec565b61087e565b60405161017a9190611423565b34801561034657600080fd5b506101cb6103553660046112bd565b6108a5565b34801561036657600080fd5b5061016d6108c3565b34801561037b57600080fd5b5061016d61038a366004611154565b6108c8565b34801561039b57600080fd5b506101566103aa3660046112a5565b61090d565b3480156103bb57600080fd5b5061016d6103ca3660046112a5565b6109bb565b3480156103db57600080fd5b5061016d6103ea3660046112a5565b6109d2565b3480156103fb57600080fd5b5061015661040a3660046112bd565b6109e4565b61015661041d366004611154565b610a1e565b34801561042e57600080fd5b5061016d610b4b565b604051610443906113f1565b604051809103902061045781610355610b66565b8061046857506104688160006108a5565b61048d5760405162461bcd60e51b815260040161048490611667565b60405180910390fd5b600061049d8989898989896106ea565b90506104a98184610b6a565b6000816000805160206119af8339815191528b8b8b8b8b8a6040516104d396959493929190611469565b60405180910390a3505050505050505050565b6040516104f29061140a565b604051809103902081565b6040516104f2906113d2565b6040516105159061140a565b604051809103902061052981610355610b66565b8061053a575061053a8160006108a5565b6105565760405162461bcd60e51b815260040161048490611667565b60006105668888888888886106ea565b905061057184610bd7565b6105808160008a8a8a8a610c07565b61058981610ccf565b5050505050505050565b60008061059f836109d2565b90506001811180156105b15750428111155b9392505050565b60009081526020819052604090206002015490565b600060016105da836109d2565b1492915050565b6000828152602081905260409020600201546105ff90610355610b66565b61061b5760405162461bcd60e51b8152600401610484906115e7565b6106258282610d08565b5050565b600080610635836109d2565b1192915050565b610644610b66565b6001600160a01b0316816001600160a01b0316146106745760405162461bcd60e51b8152600401610484906118a3565b6106258282610d77565b60006001610635836109d2565b3330146106aa5760405162461bcd60e51b815260040161048490611858565b7f11c24f4ead16507c69ac467fbd5e4eed5fb5c699626d2cc6d66421df253886d5600254826040516106dd929190611945565b60405180910390a1600255565b600086868686868660405160200161070796959493929190611469565b6040516020818303038152906040528051906020012090509695505050505050565b604051610735906113f1565b604051809103902061074981610355610b66565b8061075a575061075a8160006108a5565b6107765760405162461bcd60e51b815260040161048490611667565b8887146107955760405162461bcd60e51b815260040161048490611624565b8885146107b45760405162461bcd60e51b815260040161048490611624565b60006107c68b8b8b8b8b8b8b8b6108c8565b90506107d28184610b6a565b60005b8a8110156108645780826000805160206119af8339815191528e8e858181106107fa57fe5b905060200201602081019061080f919061105b565b8d8d8681811061081b57fe5b905060200201358c8c8781811061082e57fe5b90506020028101906108409190611953565b8c8b60405161085496959493929190611469565b60405180910390a36001016107d5565b505050505050505050505050565b6040516104f2906113f1565b600082815260208190526040812061089c908363ffffffff610de616565b90505b92915050565b600082815260208190526040812061089c908363ffffffff610df216565b600081565b600088888888888888886040516020016108e99897969594939291906114a6565b60405160208183030381529060405280519060200120905098975050505050505050565b604051610919906113f1565b604051809103902061092d81610355610b66565b8061093e575061093e8160006108a5565b61095a5760405162461bcd60e51b815260040161048490611667565b6109638261067e565b61097f5760405162461bcd60e51b815260040161048490611807565b6000828152600160205260408082208290555183917fbaa1eb22f2a492ba1a5fea61b8df4d27c6c8b5f3971e63bb58fa14ff72eedb7091a25050565b600081815260208190526040812061089f90610e07565b60009081526001602052604090205490565b600082815260208190526040902060020154610a0290610355610b66565b6106745760405162461bcd60e51b8152600401610484906116ea565b604051610a2a9061140a565b6040518091039020610a3e81610355610b66565b80610a4f5750610a4f8160006108a5565b610a6b5760405162461bcd60e51b815260040161048490611667565b878614610a8a5760405162461bcd60e51b815260040161048490611624565b878414610aa95760405162461bcd60e51b815260040161048490611624565b6000610abb8a8a8a8a8a8a8a8a6108c8565b9050610ac684610bd7565b60005b89811015610b3557610b2d82828d8d85818110610ae257fe5b9050602002016020810190610af7919061105b565b8c8c86818110610b0357fe5b905060200201358b8b87818110610b1657fe5b9050602002810190610b289190611953565b610c07565b600101610ac9565b50610b3f81610ccf565b50505050505050505050565b60025490565b600061089c836001600160a01b038416610e12565b3390565b610b7382610629565b15610b905760405162461bcd60e51b81526004016104849061176e565b610b98610b4b565b811015610bb75760405162461bcd60e51b815260040161048490611728565b610bc14282610e5c565b6000928352600160205260409092209190915550565b801580610be85750610be8816105cd565b610c045760405162461bcd60e51b8152600401610484906115a1565b50565b6000846001600160a01b0316848484604051610c249291906113c2565b60006040518083038185875af1925050503d8060008114610c61576040519150601f19603f3d011682016040523d82523d6000602084013e610c66565b606091505b5050905080610c875760405162461bcd60e51b8152600401610484906118f2565b85877fc2617efa69bab66782fa219543714338489c4e9e178271560a91b82c3f612b5887878787604051610cbe9493929190611437565b60405180910390a350505050505050565b610cd881610593565b610cf45760405162461bcd60e51b8152600401610484906117bd565b600090815260016020819052604090912055565b6000828152602081905260409020610d26908263ffffffff610b5116565b1561062557610d33610b66565b6001600160a01b0316816001600160a01b0316837f2f8788117e7eff1d82e926ec794901d17c78024a50270940304540a733656f0d60405160405180910390a45050565b6000828152602081905260409020610d95908263ffffffff610e8116565b1561062557610da2610b66565b6001600160a01b0316816001600160a01b0316837ff6391f5c32d9c69d2a47ea670b442974b53935d1edc7fd64eb21e047a839171b60405160405180910390a45050565b600061089c8383610e96565b600061089c836001600160a01b038416610edb565b600061089f82610ef3565b6000610e1e8383610edb565b610e545750815460018181018455600084815260208082209093018490558454848252828601909352604090209190915561089f565b50600061089f565b60008282018381101561089c5760405162461bcd60e51b8152600401610484906116b5565b600061089c836001600160a01b038416610ef7565b81546000908210610eb95760405162461bcd60e51b81526004016104849061155f565b826000018281548110610ec857fe5b9060005260206000200154905092915050565b60009081526001919091016020526040902054151590565b5490565b60008181526001830160205260408120548015610fb35783546000198083019190810190600090879083908110610f2a57fe5b9060005260206000200154905080876000018481548110610f4757fe5b600091825260208083209091019290925582815260018981019092526040902090840190558654879080610f7757fe5b6001900381819060005260206000200160009055905586600101600087815260200190815260200160002060009055600194505050505061089f565b600091505061089f565b80356001600160a01b038116811461089f57600080fd5b60008083601f840112610fe5578182fd5b5081356001600160401b03811115610ffb578182fd5b602083019150836020808302850101111561101557600080fd5b9250929050565b60008083601f84011261102d578182fd5b5081356001600160401b03811115611043578182fd5b60208301915083602082850101111561101557600080fd5b60006020828403121561106c578081fd5b61089c8383610fbd565b60008060008060008060a0878903121561108e578182fd5b863561109981611999565b95506020870135945060408701356001600160401b038111156110ba578283fd5b6110c689828a0161101c565b979a9699509760608101359660809091013595509350505050565b600080600080600080600060c0888a0312156110fb578081fd5b6111058989610fbd565b96506020880135955060408801356001600160401b03811115611126578182fd5b6111328a828b0161101c565b989b979a50986060810135976080820135975060a09091013595509350505050565b60008060008060008060008060a0898b03121561116f578081fd5b88356001600160401b0380821115611185578283fd5b6111918c838d01610fd4565b909a50985060208b01359150808211156111a9578283fd5b6111b58c838d01610fd4565b909850965060408b01359150808211156111cd578283fd5b506111da8b828c01610fd4565b999c989b509699959896976060870135966080013595509350505050565b600080600080600080600080600060c08a8c031215611215578081fd5b89356001600160401b038082111561122b578283fd5b6112378d838e01610fd4565b909b50995060208c013591508082111561124f578283fd5b61125b8d838e01610fd4565b909950975060408c0135915080821115611273578283fd5b506112808c828d01610fd4565b9a9d999c50979a969997986060880135976080810135975060a0013595509350505050565b6000602082840312156112b6578081fd5b5035919050565b600080604083850312156112cf578182fd5b8235915060208301356112e181611999565b809150509250929050565b600080604083850312156112fe578182fd5b50508035926020909101359150565b818352602080840193600091908185020181018584845b8781101561138b5782840389528135601e19883603018112611344578687fd5b87018035906001600160401b0382111561135c578788fd5b81360389131561136a578788fd5b6113778683898401611398565b9a87019a9550505090840190600101611324565b5091979650505050505050565b60008284528282602086013780602084860101526020601f19601f85011685010190509392505050565b6000828483379101908152919050565b7254494d454c4f434b5f41444d494e5f524f4c4560681b815260130190565b6c50524f504f5345525f524f4c4560981b8152600d0190565b6c4558454355544f525f524f4c4560981b8152600d0190565b6001600160a01b0391909116815260200190565b600060018060a01b03861682528460208301526060604083015261145f606083018486611398565b9695505050505050565b600060018060a01b038816825286602083015260a0604083015261149160a083018688611398565b60608301949094525060800152949350505050565b60a0808252810188905260008960c08301825b8b8110156114e95760208381016001600160a01b036114d88287610fbd565b1684529350909101906001016114b9565b5083810360208501528881526001600160fb1b03891115611508578283fd5b602089029150818a60208301370160208181018381529184900301604084015261153381878961130d565b60608401959095525050608001529695505050505050565b901515815260200190565b90815260200190565b60208082526022908201527f456e756d657261626c655365743a20696e646578206f7574206f6620626f756e604082015261647360f01b606082015260800190565b60208082526026908201527f54696d656c6f636b436f6e74726f6c6c65723a206d697373696e6720646570656040820152656e64656e637960d01b606082015260800190565b6020808252602f908201526000805160206119cf83398151915260408201526e0818591b5a5b881d1bc819dc985b9d608a1b606082015260800190565b60208082526023908201527f54696d656c6f636b436f6e74726f6c6c65723a206c656e677468206d69736d616040820152620e8c6d60eb1b606082015260800190565b6020808252602e908201527f54696d656c6f636b436f6e74726f6c6c65723a2073656e64657220726571756960408201526d3932b9903832b936b4b9b9b4b7b760911b606082015260800190565b6020808252601b908201527a536166654d6174683a206164646974696f6e206f766572666c6f7760281b604082015260600190565b60208082526030908201526000805160206119cf83398151915260408201526f2061646d696e20746f207265766f6b6560801b606082015260800190565b60208082526026908201527f54696d656c6f636b436f6e74726f6c6c65723a20696e73756666696369656e746040820152652064656c617960d01b606082015260800190565b6020808252602f908201527f54696d656c6f636b436f6e74726f6c6c65723a206f7065726174696f6e20616c60408201526e1c9958591e481cd8da19591d5b1959608a1b606082015260800190565b6020808252602a908201527f54696d656c6f636b436f6e74726f6c6c65723a206f7065726174696f6e206973604082015269206e6f7420726561647960b01b606082015260800190565b60208082526031908201527f54696d656c6f636b436f6e74726f6c6c65723a206f7065726174696f6e2063616040820152701b9b9bdd0818994818d85b98d95b1b1959607a1b606082015260800190565b6020808252602b908201527f54696d656c6f636b436f6e74726f6c6c65723a2063616c6c6572206d7573742060408201526a62652074696d656c6f636b60a81b606082015260800190565b6020808252602f908201527f416363657373436f6e74726f6c3a2063616e206f6e6c792072656e6f756e636560408201526e103937b632b9903337b91039b2b63360891b606082015260800190565b60208082526033908201527f54696d656c6f636b436f6e74726f6c6c65723a20756e6465726c79696e6720746040820152721c985b9cd858dd1a5bdb881c995d995c9d1959606a1b606082015260800190565b918252602082015260400190565b6000808335601e19843603018112611969578283fd5b838101803592506001600160401b03831115611983578384fd5b6020019250503681900382131561101557600080fd5b6001600160a01b0381168114610c0457600080fdfe4cf4410cc57040e44862ef0f45f3dd5a5e02db8eb8add648d4b0e236f1d07dca416363657373436f6e74726f6c3a2073656e646572206d75737420626520616ea164736f6c634300060b000a608060405234801561001057600080fd5b50600080546001600160a01b0319163390811782556040519091907f8be0079c531659141344cd1fd0a4f28419497f9722a3daafe3b4186f6b6457e0908290a36109128061005f6000396000f3fe608060405234801561001057600080fd5b50600436106100c55760003560e01c80631549b76d146100ca57806325ee537e146100e45780632e2465f814610130578063385a128f1461014d5780634139ad601461016a578063438d641a1461018757806344936b10146101a45780635e9e3212146101ac5780636030cc8c146101b45780638abf30b3146101d15780638da5cb5b146101d95780638f32d59b146101fd578063bb40952214610219578063c4dc70d314610221578063deea414314610229575b600080fd5b6100d2610246565b60408051918252519081900360200190f35b61012e600480360360e08110156100fa57600080fd5b506001600160a01b038135169060208101359060408101359060608101359060808101359060a08101359060c0013561024c565b005b61012e6004803603602081101561014657600080fd5b5035610310565b61012e6004803603602081101561016357600080fd5b5035610369565b61012e6004803603602081101561018057600080fd5b50356103bf565b61012e6004803603602081101561019d57600080fd5b5035610415565b6100d261046b565b6100d2610471565b61012e600480360360208110156101ca57600080fd5b5035610477565b6100d26104cd565b6101e16104d3565b604080516001600160a01b039092168252519081900360200190f35b6102056104e2565b604080519115158252519081900360200190f35b6100d26104f3565b6100d26104f9565b61012e6004803603602081101561023f57600080fd5b50356104ff565b60035490565b6102546104e2565b6102a5576040805162461bcd60e51b815260206004820181905260248201527f4f776e61626c653a2063616c6c6572206973206e6f7420746865206f776e6572604482015290519081900360640190fd5b6102ae87610555565b600780546001600160a01b0319166001600160a01b0389161790556102d2856105d8565b6102db8661066e565b6102e48461071e565b6102ed83610765565b6102f6826107eb565b6102ff81610832565b610307610879565b50505050505050565b6007546001600160a01b0316331461035d576040805162461bcd60e51b815260206004820152601b60248201526000805160206108c4833981519152604482015290519081900360640190fd5b610366816107eb565b50565b6007546001600160a01b031633146103b6576040805162461bcd60e51b815260206004820152601b60248201526000805160206108c4833981519152604482015290519081900360640190fd5b6103668161066e565b6007546001600160a01b0316331461040c576040805162461bcd60e51b815260206004820152601b60248201526000805160206108c4833981519152604482015290519081900360640190fd5b610366816105d8565b6007546001600160a01b03163314610462576040805162461bcd60e51b815260206004820152601b60248201526000805160206108c4833981519152604482015290519081900360640190fd5b61036681610765565b60015490565b60055490565b6007546001600160a01b031633146104c4576040805162461bcd60e51b815260206004820152601b60248201526000805160206108c4833981519152604482015290519081900360640190fd5b61036681610832565b60065490565b6000546001600160a01b031690565b6000546001600160a01b0316331490565b60025490565b60045490565b6007546001600160a01b0316331461054c576040805162461bcd60e51b815260206004820152601b60248201526000805160206108c4833981519152604482015290519081900360640190fd5b6103668161071e565b6001600160a01b038116610598576040805162461bcd60e51b81526020600482015260056024820152641830b2323960d91b604482015290519081900360640190fd5b803b806105d4576040805162461bcd60e51b815260206004820152600560248201526430636f646560d81b604482015290519081900360640190fd5b5050565b6001548111610627576040805162461bcd60e51b815260206004820152601660248201527529bcb9ba32b6a9ba30ba329d1021a1a9101f1026a1a960511b604482015290519081900360640190fd5b6002805490829055604080518281526020810184905281517f3ec40a32028fd52f7f01b6903f93694c15797919eb66ea06cfdd447f73208ccb929181900390910190a15050565b670de0b6b3a764000081118015610686575060025481105b6106d7576040805162461bcd60e51b815260206004820152601d60248201527f53797374656d53746174653a2031303025203c204d4352203c20434352000000604482015290519081900360640190fd5b6001805490829055604080518281526020810184905281517f71f9506549f80f8467074cf2f8c6e652aa730dc46b4c2bf5134c4e7bdd821481929181900390910190a15050565b6003805490829055604080518281526020810184905281517f9be221579dd93d1539f1966b02aa80f0d329cfb723e0ab2c748cdcd4bec1ac44929181900390910190a15050565b600081116107a45760405162461bcd60e51b81526004018080602001828103825260228152602001806108e46022913960400191505060405180910390fd5b6004805490829055604080518281526020810184905281517f794abdbe21b3b4556467be6af2b2d5e75ae16613bd128dbd47c3727bd52b4b55929181900390910190a15050565b6005805490829055604080518281526020810184905281517fd9497bdb2df1266d0aea6a2f7c18fb95c33b49b294c98cf2cea07ae1640f40be929181900390910190a15050565b6006805490829055604080518281526020810184905281517fbb07ced1b1536afc600a5d97cba6e4b294731026286cddc33b98cb2d18569ab7929181900390910190a15050565b600080546040516001600160a01b03909116907f8be0079c531659141344cd1fd0a4f28419497f9722a3daafe3b4186f6b6457e0908390a3600080546001600160a01b031916905556fe43616c6c6572206973206e6f742066726f6d2074696d656c6f636b000000000053797374656d53746174653a204d696e206e65742064656274206d757374203e2030a164736f6c634300060b000a6101606040523480156200001257600080fd5b506040516200181e3803806200181e833981810160405260608110156200003857600080fd5b50805160208201516040909201519091906200005d836001600160e01b036200025316565b62000071826001600160e01b036200025316565b62000085816001600160e01b036200025316565b6001600160601b0319606084901b1661010052604080516001600160a01b038516815290517f143219c9e69b09e07e095fcc889b43d8f46ca892bba65f08dc3a0050869a56789181900360200190a16001600160601b0319606083901b1661012052604080516001600160a01b038416815290517f82966d27eea39b038ee0fa30cd16532bb24f6e65d31cb58fb227aa5766cdcc7f9181900360200190a16001600160601b0319606082901b1661014052604080516001600160a01b038316815290517f3ca631ffcd2a9b5d9ae18543fc82f58eb4ca33af9e6ab01b7a8e95331e6ed9859181900360200190a1604080518082018252600f81526e2aa9a2299029ba30b13632b1b7b4b760891b602091820152815180830190925260018252603160f81b9101527f2a23c41011e8e539e4f4084ffc24b3915572c705b02e784a519051e327b59f8060c08190527fc89efdaa54c0f20c7adf612882df0950f5a951637e0307cdcb4c672f298b8bc660e08190526200020b6001600160e01b03620002d816565b60a052620002447f8b73c3c69bb8fe3d512ecc4cf759cc79239f7b179b0ffacaa9a75d522b39400f83836001600160e01b03620002dc16565b608052506200033d9350505050565b6001600160a01b03811662000297576040805162461bcd60e51b81526020600482015260056024820152641830b2323960d91b604482015290519081900360640190fd5b803b80620002d4576040805162461bcd60e51b815260206004820152600560248201526430636f646560d81b604482015290519081900360640190fd5b5050565b4690565b6000838383620002f46001600160e01b03620002d816565b6040805160208082019690965280820194909452606084019290925260808301523060a0808401919091528151808403909101815260c090920190528051910120949350505050565b60805160a05160c05160e0516101005160601c6101205160601c6101405160601c611452620003cc6000398061072b5280610d085280610e7c5280610f775250806104f85280610aee5280610c8d5280610fdc52806110fa5250806106365280610abc5280610cca5280610fa9525080610a045250806109e352508061096952508061099952506114526000f3fe608060405234801561001057600080fd5b506004361061011d5760003560e01c806306fdde0314610122578063095ea7b31461019f5780630b622ab2146101df57806310ce43bd1461020357806318160ddd1461021d57806320c582be1461022557806323b872dd1461025d578063313ce5671461029357806339509351146102b157806340c10f19146102dd57806354fd4d50146103095780635a4d28bb1461031157806370a08231146103195780637ecebe001461033f57806395d89b41146103655780639dc29fac1461036d578063a457c2d714610399578063a9059cbb146103c5578063b7f8cf9b146103f1578063bb997bac146103f9578063d505accf1461042f578063dd62ed3e14610480578063f698da25146104ae575b600080fd5b61012a6104b6565b6040805160208082528351818301528351919283929083019185019080838360005b8381101561016457818101518382015260200161014c565b50505050905090810190601f1680156101915780820380516001836020036101000a031916815260200191505b509250505060405180910390f35b6101cb600480360360408110156101b557600080fd5b506001600160a01b0381351690602001356104e0565b604080519115158252519081900360200190f35b6101e76104f6565b604080516001600160a01b039092168252519081900360200190f35b61020b61051a565b60408051918252519081900360200190f35b61020b61052c565b61025b6004803603606081101561023b57600080fd5b506001600160a01b03813581169160208101359091169060400135610532565b005b6101cb6004803603606081101561027357600080fd5b506001600160a01b0381358116916020810135909116906040013561054a565b61029b6105c2565b6040805160ff9092168252519081900360200190f35b6101cb600480360360408110156102c757600080fd5b506001600160a01b0381351690602001356105c7565b61025b600480360360408110156102f357600080fd5b506001600160a01b038135169060200135610603565b61012a610619565b6101e7610634565b61020b6004803603602081101561032f57600080fd5b50356001600160a01b0316610658565b61020b6004803603602081101561035557600080fd5b50356001600160a01b0316610673565b61012a61068e565b61025b6004803603604081101561038357600080fd5b506001600160a01b0381351690602001356106ac565b6101cb600480360360408110156103af57600080fd5b506001600160a01b0381351690602001356106be565b6101cb600480360360408110156103db57600080fd5b506001600160a01b038135169060200135610713565b6101e7610729565b61025b6004803603606081101561040f57600080fd5b506001600160a01b0381358116916020810135909116906040013561074d565b61025b600480360360e081101561044557600080fd5b506001600160a01b03813581169160208101359091169060408101359060608101359060ff6080820135169060a08101359060c00135610755565b61020b6004803603604081101561049657600080fd5b506001600160a01b038135811691602001351661093a565b61020b610965565b60408051808201909152600f81526e2aa9a2299029ba30b13632b1b7b4b760891b60208201525b90565b60006104ed338484610a2f565b50600192915050565b7f000000000000000000000000000000000000000000000000000000000000000081565b6000805160206113cb83398151915290565b60005490565b61053a610ab1565b610545838383610b4d565b505050565b600061055583610c2f565b610560848484610b4d565b6105b884336105b385604051806060016040528060288152602001611358602891396001600160a01b038a166000908152600360209081526040808320338452909152902054919063ffffffff610d7b16565b610a2f565b5060019392505050565b601290565b3360008181526003602090815260408083206001600160a01b038716845290915281205490916104ed9185906105b3908663ffffffff610e1216565b61060b610e71565b6106158282610ed8565b5050565b6040805180820190915260018152603160f81b602082015290565b7f000000000000000000000000000000000000000000000000000000000000000081565b6001600160a01b031660009081526002602052604090205490565b6001600160a01b031660009081526001602052604090205490565b6040805180820190915260048152635553445360e01b602082015290565b6106b4610f6c565b6106158282611039565b60006104ed33846105b385604051806060016040528060258152602001611421602591393360009081526003602090815260408083206001600160a01b038d168452909152902054919063ffffffff610d7b16565b600061071e83610c2f565b6104ed338484610b4d565b7f000000000000000000000000000000000000000000000000000000000000000081565b61053a6110ef565b428410156107a3576040805162461bcd60e51b8152602060048201526016602482015275555344533a206578706972656420646561646c696e6560501b604482015290519081900360640190fd5b60006107ad610965565b6001600160a01b03808a166000818152600160208181526040808420805480850190915581516000805160206113cb8339815191528185015280830196909652958e166060860152608085018d905260a085019590955260c08085018c90528551808603909101815260e08501865280519082012061190160f01b6101008601526101028501969096526101228085019690965284518085039096018652610142840180865286519682019690962095839052610162840180865286905260ff8a166101828501526101a284018990526101c284018890529351949550909390926101e2808401939192601f1981019281900390910190855afa1580156108b8573d6000803e3d6000fd5b505050602060405103519050886001600160a01b0316816001600160a01b031614610924576040805162461bcd60e51b8152602060048201526017602482015276555344533a20696e76616c6964207369676e617475726560481b604482015290519081900360640190fd5b61092f898989610a2f565b505050505050505050565b6001600160a01b03918216600090815260036020908152604080832093909416825291909152205490565b60007f0000000000000000000000000000000000000000000000000000000000000000610990611156565b14156109bd57507f00000000000000000000000000000000000000000000000000000000000000006104dd565b610a287f8b73c3c69bb8fe3d512ecc4cf759cc79239f7b179b0ffacaa9a75d522b39400f7f00000000000000000000000000000000000000000000000000000000000000007f000000000000000000000000000000000000000000000000000000000000000061115a565b90506104dd565b6001600160a01b038316610a3f57fe5b6001600160a01b038216610a4f57fe5b6001600160a01b03808416600081815260036020908152604080832094871680845294825291829020859055815185815291517f8c5be1e5ebec7d5bd14f71427d1e84f3dd0314c0f7b2291e5b200ac8c7c3b9259281900390910190a3505050565b336001600160a01b037f0000000000000000000000000000000000000000000000000000000000000000161480610b105750336001600160a01b037f000000000000000000000000000000000000000000000000000000000000000016145b610b4b5760405162461bcd60e51b81526004018080602001828103825260368152602001806113eb6036913960400191505060405180910390fd5b565b6001600160a01b038316610b5d57fe5b6001600160a01b038216610b6d57fe5b610bb0816040518060600160405280602681526020016112b6602691396001600160a01b038616600090815260026020526040902054919063ffffffff610d7b16565b6001600160a01b038085166000908152600260205260408082209390935590841681522054610be5908263ffffffff610e1216565b6001600160a01b0380841660008181526002602090815260409182902094909455805185815290519193928716926000805160206113ab83398151915292918290030190a3505050565b6001600160a01b03811615801590610c5057506001600160a01b0381163014155b610c8b5760405162461bcd60e51b81526004018080602001828103825260548152602001806111f36054913960600191505060405180910390fd5b7f00000000000000000000000000000000000000000000000000000000000000006001600160a01b0316816001600160a01b031614158015610cff57507f00000000000000000000000000000000000000000000000000000000000000006001600160a01b0316816001600160a01b031614155b8015610d3d57507f00000000000000000000000000000000000000000000000000000000000000006001600160a01b0316816001600160a01b031614155b610d785760405162461bcd60e51b81526004018080602001828103825260578152602001806113016057913960600191505060405180910390fd5b50565b60008184841115610e0a5760405162461bcd60e51b81526004018080602001828103825283818151815260200191508051906020019080838360005b83811015610dcf578181015183820152602001610db7565b50505050905090810190601f168015610dfc5780820380516001836020036101000a031916815260200191505b509250505060405180910390fd5b505050900390565b600082820183811015610e6a576040805162461bcd60e51b815260206004820152601b60248201527a536166654d6174683a206164646974696f6e206f766572666c6f7760281b604482015290519081900360640190fd5b9392505050565b336001600160a01b037f00000000000000000000000000000000000000000000000000000000000000001614610b4b5760405162461bcd60e51b815260040180806020018281038252602b815260200180611380602b913960400191505060405180910390fd5b6001600160a01b038216610ee857fe5b600054610efb908263ffffffff610e1216565b60009081556001600160a01b038316815260026020526040902054610f26908263ffffffff610e1216565b6001600160a01b03831660008181526002602090815260408083209490945583518581529351929391926000805160206113ab8339815191529281900390910190a35050565b336001600160a01b037f0000000000000000000000000000000000000000000000000000000000000000161480610fcb5750336001600160a01b037f000000000000000000000000000000000000000000000000000000000000000016145b80610ffe5750336001600160a01b037f000000000000000000000000000000000000000000000000000000000000000016145b610b4b5760405162461bcd60e51b815260040180806020018281038252604d815260200180611247604d913960600191505060405180910390fd5b6001600160a01b03821661104957fe5b61108c81604051806060016040528060228152602001611294602291396001600160a01b038516600090815260026020526040902054919063ffffffff610d7b16565b6001600160a01b038316600090815260026020526040812091909155546110b9908263ffffffff6111b016565b60009081556040805183815290516001600160a01b038516916000805160206113ab833981519152919081900360200190a35050565b336001600160a01b037f00000000000000000000000000000000000000000000000000000000000000001614610b4b5760405162461bcd60e51b81526004018080602001828103825260258152602001806112dc6025913960400191505060405180910390fd5b4690565b6000838383611167611156565b6040805160208082019690965280820194909452606084019290925260808301523060a0808401919091528151808403909101815260c090920190528051910120949350505050565b6000610e6a83836040518060400160405280601e81526020017f536166654d6174683a207375627472616374696f6e206f766572666c6f770000815250610d7b56fe555344533a2043616e6e6f74207472616e7366657220746f6b656e73206469726563746c7920746f20746865205553445320746f6b656e20636f6e7472616374206f7220746865207a65726f2061646472657373555344533a2043616c6c6572206973206e65697468657220426f72726f7765724f7065726174696f6e73206e6f722054726f76654d616e61676572206e6f722053746162696c697479506f6f6c45524332303a206275726e20616d6f756e7420657863656564732062616c616e636545524332303a207472616e7366657220616d6f756e7420657863656564732062616c616e6365555344533a2043616c6c6572206973206e6f74207468652053746162696c697479506f6f6c555344533a2043616e6e6f74207472616e7366657220746f6b656e73206469726563746c7920746f207468652053746162696c697479506f6f6c2c2054726f76654d616e61676572206f7220426f72726f7765724f707345524332303a207472616e7366657220616d6f756e74206578636565647320616c6c6f77616e636555534453546f6b656e3a2043616c6c6572206973206e6f7420426f72726f7765724f7065726174696f6e73ddf252ad1be2c89b69c2b068fc378daa952ba7f163c4a11628f55a4df523b3ef6e71edae12b1b97f4d1f60370fef10105fa2faae0126114a169c64845d6126c9555344533a2043616c6c6572206973206e6569746865722054726f76654d616e61676572206e6f722053746162696c697479506f6f6c45524332303a2064656372656173656420616c6c6f77616e63652062656c6f77207a65726fa164736f6c634300060b000a608060405234801561001057600080fd5b50600080546001600160a01b0319163390811782556040519091907f8be0079c531659141344cd1fd0a4f28419497f9722a3daafe3b4186f6b6457e0908290a3610acb8061005f6000396000f3fe6080604052600436106100905760003560e01c8063363bf964146100ba5780633f10abab146101015780635a4d28bb1461013a57806378a619de1461016b5780638da5cb5b146101925780638f32d59b146101a75780639b56d6c9146101d0578063a3f4df7e14610203578063b08bc7221461028d578063b32beb5b146102a2578063b7f8cf9b146102d5576100b5565b366100b55761009d6102ea565b6004546100b0903463ffffffff61033516565b600455005b600080fd5b3480156100c657600080fd5b506100ff600480360360608110156100dd57600080fd5b506001600160a01b038135811691602081013582169160409091013516610394565b005b34801561010d57600080fd5b506100ff6004803603604081101561012457600080fd5b506001600160a01b0381351690602001356104fa565b34801561014657600080fd5b5061014f610574565b604080516001600160a01b039092168252519081900360200190f35b34801561017757600080fd5b50610180610583565b60408051918252519081900360200190f35b34801561019e57600080fd5b5061014f610589565b3480156101b357600080fd5b506101bc610598565b604080519115158252519081900360200190f35b3480156101dc57600080fd5b50610180600480360360208110156101f357600080fd5b50356001600160a01b03166105a9565b34801561020f57600080fd5b506102186105c4565b6040805160208082528351818301528351919283929083019185019080838360005b8381101561025257818101518382015260200161023a565b50505050905090810190601f16801561027f5780820380516001836020036101000a031916815260200191505b509250505060405180910390f35b34801561029957600080fd5b5061014f6105ef565b3480156102ae57600080fd5b506100ff600480360360208110156102c557600080fd5b50356001600160a01b03166105fe565b3480156102e157600080fd5b5061014f610781565b6003546001600160a01b031633146103335760405162461bcd60e51b815260040180806020018281038252602a815260200180610a18602a913960400191505060405180910390fd5b565b60008282018381101561038d576040805162461bcd60e51b815260206004820152601b60248201527a536166654d6174683a206164646974696f6e206f766572666c6f7760281b604482015290519081900360640190fd5b9392505050565b61039c610598565b6103ed576040805162461bcd60e51b815260206004820181905260248201527f4f776e61626c653a2063616c6c6572206973206e6f7420746865206f776e6572604482015290519081900360640190fd5b6103f683610790565b6103ff82610790565b61040881610790565b600180546001600160a01b038086166001600160a01b0319928316811790935560028054868316908416179055600380549185169190921617905560408051918252517f3ca631ffcd2a9b5d9ae18543fc82f58eb4ca33af9e6ab01b7a8e95331e6ed9859181900360200190a1604080516001600160a01b038416815290517f143219c9e69b09e07e095fcc889b43d8f46ca892bba65f08dc3a0050869a56789181900360200190a1604080516001600160a01b038316815290517f78f058b189175430c48dc02699e3a0031ea4ff781536dc2fab847de4babdd8829181900360200190a16104f5610813565b505050565b61050261085d565b6001600160a01b03821660009081526005602052604081205461052b908363ffffffff61033516565b6001600160a01b038416600081815260056020908152604091829020849055815184815291519394509192600080516020610a42833981519152929181900390910190a2505050565b6002546001600160a01b031681565b60045490565b6000546001600160a01b031690565b6000546001600160a01b0316331490565b6001600160a01b031660009081526005602052604090205490565b6040518060400160405280600f81526020016e10dbdb1b14dd5c9c1b1d5cd41bdbdb608a1b81525081565b6003546001600160a01b031681565b6106066108a6565b6001600160a01b0381166000908152600560205260409020548061065b5760405162461bcd60e51b81526004018080602001828103825260318152602001806109c46031913960400191505060405180910390fd5b6001600160a01b0382166000818152600560209081526040808320839055805192835251600080516020610a428339815191529281900390910190a26004546106aa908263ffffffff6108ef16565b600455604080516001600160a01b03841681526020810183905281517f6109e2559dfa766aaec7118351d48a523f0a4157f49c8d68749c8ac41318ad12929181900390910190a16040516000906001600160a01b0384169083908381818185875af1925050503d806000811461073c576040519150601f19603f3d011682016040523d82523d6000602084013e610741565b606091505b50509050806104f55760405162461bcd60e51b81526004018080602001828103825260238152602001806109f56023913960400191505060405180910390fd5b6001546001600160a01b031681565b6001600160a01b0381166107d3576040805162461bcd60e51b81526020600482015260056024820152641830b2323960d91b604482015290519081900360640190fd5b803b8061080f576040805162461bcd60e51b815260206004820152600560248201526430636f646560d81b604482015290519081900360640190fd5b5050565b600080546040516001600160a01b03909116907f8be0079c531659141344cd1fd0a4f28419497f9722a3daafe3b4186f6b6457e0908390a3600080546001600160a01b0319169055565b6002546001600160a01b031633146103335760405162461bcd60e51b815260040180806020018281038252602b815260200180610a94602b913960400191505060405180910390fd5b6001546001600160a01b031633146103335760405162461bcd60e51b8152600401808060200182810382526032815260200180610a626032913960400191505060405180910390fd5b600061038d83836040518060400160405280601e81526020017f536166654d6174683a207375627472616374696f6e206f766572666c6f770000815250600081848411156109bb5760405162461bcd60e51b81526004018080602001828103825283818151815260200191508051906020019080838360005b83811015610980578181015183820152602001610968565b50505050905090810190601f1680156109ad5780820380516001836020036101000a031916815260200191505b509250505060405180910390fd5b50505090039056fe436f6c6c537572706c7573506f6f6c3a204e6f20636f6c6c61746572616c20617661696c61626c6520746f20636c61696d436f6c6c537572706c7573506f6f6c3a2073656e64696e6720424e42206661696c6564436f6c6c537572706c7573506f6f6c3a2043616c6c6572206973206e6f742041637469766520506f6f6cf0393a34d05e6567686ad4e097f9d9d2781565957394f1f0d984e5d8e6378f20436f6c6c537572706c7573506f6f6c3a2043616c6c6572206973206e6f7420426f72726f776572204f7065726174696f6e73436f6c6c537572706c7573506f6f6c3a2043616c6c6572206973206e6f742054726f76654d616e61676572a164736f6c634300060b000a680ad78ebc5ac620000060008181556101006040526080829052634c494e4b60e01b60a081905260c082905260e0829052600192909255600291909155600381905560045534801561005057600080fd5b50600980546001600160a01b03191633179055610519806100726000396000f3fe60806040526004361061006f5760003560e01c80634e15f2a51461007b57806378f81869146100b15780638da5cb5b146100d357806391b7f5ed146100f557806398d5fdca14610122578063a2e0dd7614610144578063d93adfd314610164578063f98d06f01461018457610076565b3661007657005b600080fd5b34801561008757600080fd5b5061009b6100963660046103b4565b610199565b6040516100a891906104d8565b60405180910390f35b3480156100bd57600080fd5b506100d16100cc36600461036f565b61020b565b005b3480156100df57600080fd5b506100e861024a565b6040516100a89190610473565b34801561010157600080fd5b5061011561011036600461041f565b610259565b6040516100a89190610487565b34801561012e57600080fd5b5061013761029d565b6040516100a89190610503565b34801561015057600080fd5b506100d161015f366004610437565b6102a3565b34801561017057600080fd5b506100d161017f36600461034d565b6102da565b34801561019057600080fd5b506100e86102fc565b6101a161030b565b7f4d29de21de555af78a62fc82dd4bc05e9ae5b0660a37f04729527e0f22780cd36000546040516101d29190610503565b60405180910390a15060408051608081018252600154815260025460208201526003549181019190915260045460608201525b92915050565b600780546001600160a01b039485166001600160a01b031991821617909155600680549385169382169390931790925560088054919093169116179055565b6009546001600160a01b031681565b6009546000906001600160a01b0316331461028f5760405162461bcd60e51b815260040161028690610492565b60405180910390fd5b506000819055600190815590565b60005490565b60005460015580156102c95760038390556004829055630a0b2a8960e31b6002556102d5565b634c494e4b60e01b6002555b505050565b600580546001600160a01b0319166001600160a01b0392909216919091179055565b6005546001600160a01b031690565b6040518060800160405280600081526020016000801916815260200160008152602001600081525090565b80356001600160a01b038116811461020557600080fd5b60006020828403121561035e578081fd5b6103688383610336565b9392505050565b600080600060608486031215610383578182fd5b61038d8585610336565b925061039c8560208601610336565b91506103ab8560408601610336565b90509250925092565b600080602083850312156103c6578182fd5b82356001600160401b03808211156103dc578384fd5b81850186601f8201126103ed578485fd5b80359250818311156103fd578485fd5b8660208085028301011115610410578485fd5b60200196919550909350505050565b600060208284031215610430578081fd5b5035919050565b60008060006060848603121561044b578283fd5b833592506020840135915060408401358015158114610468578182fd5b809150509250925092565b6001600160a01b0391909116815260200190565b901515815260200190565b60208082526026908201527f4f6e6c7920746865206f776e65722063616e2063616c6c20746869732066756e60408201526531ba34b7b71760d11b606082015260800190565b8151815260208083015190820152604080830151908201526060918201519181019190915260800190565b9081526020019056fea164736f6c634300060b000a608060405234801561001057600080fd5b50600080546001600160a01b0319163390811782556040519091907f8be0079c531659141344cd1fd0a4f28419497f9722a3daafe3b4186f6b6457e0908290a36117cb8061005f6000396000f3fe608060405234801561001057600080fd5b50600436106101075760003560e01c80631e2231431461010c57806329092d0e1461012a5780633d83908a1461013f5780633fce12d514610147578063416980dc146101675780634d622831146101885780635dbe47e81461019057806363e1d57c146101a3578063681fe70c146101b857806373d4a13a146101c0578063765e0159146101d8578063806093b8146101eb5780638c2d33eb146101fe5780638da5cb5b146102115780638f32d59b14610219578063a3f4df7e14610221578063b72703ac14610236578063b7f8cf9b14610249578063babd3d9a14610251578063de8fa43114610259578063f376d79814610261575b600080fd5b610114610274565b604051610121919061140b565b60405180910390f35b61013d610138366004611315565b610283565b005b610114610297565b61015a6101553660046113ca565b6102a6565b604051610121919061147b565b61017a6101753660046113ca565b6102c9565b60405161012192919061141f565b6101146102f3565b61015a61019e366004611315565b610302565b6101ab610320565b60405161012191906117a0565b61015a610326565b6101c861032d565b6040516101219493929190611439565b6101146101e6366004611315565b61034c565b61013d6101f936600461133c565b61036f565b61013d61020c36600461133c565b6103f1565b610114610406565b61015a610415565b610229610426565b6040516101219190611486565b610114610244366004611315565b61044e565b61011461046f565b61015a61047e565b6101ab610488565b61013d61026f3660046113ca565b61048e565b6003546001600160a01b031690565b61028b610595565b610294816105c1565b50565b6002546001600160a01b031681565b6002546000906102c1906001600160a01b03168585856107d2565b949350505050565b60025460009081906102e6906001600160a01b0316868686610a3e565b915091505b935093915050565b6004546001600160a01b031690565b6001600160a01b031660009081526007602052604090205460ff1690565b60055490565b6006541590565b6003546004546005546006546001600160a01b03938416939092169184565b6001600160a01b0390811660009081526007602052604090205461010090041690565b6002546001600160a01b031661038481610c1f565b815161038f90610302565b6103b45760405162461bcd60e51b81526004016103ab90611525565b60405180910390fd5b60008260200151116103d85760405162461bcd60e51b81526004016103ab9061175d565b81516103e3906105c1565b6103ed8183610c5c565b5050565b6002546001600160a01b03166103e381610c1f565b6000546001600160a01b031690565b6000546001600160a01b0316331490565b6040518060400160405280600c81526020016b536f7274656454726f76657360a01b81525081565b6001600160a01b039081166000908152600760205260409020600101541690565b6001546001600160a01b031681565b6005546006541490565b60065490565b610496610415565b6104b25760405162461bcd60e51b81526004016103ab9061169d565b600083116104d25760405162461bcd60e51b81526004016103ab9061156f565b6104db82610f7c565b6104e481610f7c565b6005839055600280546001600160a01b038085166001600160a01b03199283161790925560018054928416929091169190911790556040517f143219c9e69b09e07e095fcc889b43d8f46ca892bba65f08dc3a0050869a56789061054990849061140b565b60405180910390a17f3ca631ffcd2a9b5d9ae18543fc82f58eb4ca33af9e6ab01b7a8e95331e6ed98581604051610580919061140b565b60405180910390a1610590610fc1565b505050565b6002546001600160a01b031633146105bf5760405162461bcd60e51b81526004016103ab9061161d565b565b6105ca81610302565b6105e65760405162461bcd60e51b81526004016103ab90611525565b6006546001101561072c576003546001600160a01b0382811691161415610655576001600160a01b03818116600090815260076020526040808220546003805461010090920485166001600160a01b031992831617908190559093168252902060010180549091169055610727565b6004546001600160a01b03828116911614156106bc576001600160a01b0380821660009081526007602052604080822060010154600480546001600160a01b03191691851691909117908190559092168152208054610100600160a81b0319169055610727565b6001600160a01b038082166000908152600760205260408082208054600180830180548716865284862080546101009485900489168502610100600160a81b03199091161790555492549190910485168452919092200180546001600160a01b031916919092161790555b610749565b600380546001600160a01b03199081169091556004805490911690555b6001600160a01b038116600090815260076020526040902080546001600160a81b0319168155600190810180546001600160a01b03191690556006546107949163ffffffff61100b16565b6006556040517fcfc24166db4bb677e857cacabd1541fb2b30645021b27c5130419589b84db52b906107c790839061140b565b60405180910390a150565b60006001600160a01b0383161580156107f257506001600160a01b038216155b15610806576107ff610326565b90506102c1565b6001600160a01b0383166108b2576003546001600160a01b0383811691161480156107ff575060405163b0d8e18160e01b81526001600160a01b0386169063b0d8e1819061085890859060040161140b565b60206040518083038186803b15801561087057600080fd5b505afa158015610884573d6000803e3d6000fd5b505050506040513d601f19601f820116820180604052508101906108a891906113b2565b84101590506102c1565b6001600160a01b03821661095e576004546001600160a01b0384811691161480156107ff575060405163b0d8e18160e01b81526001600160a01b0386169063b0d8e1819061090490869060040161140b565b60206040518083038186803b15801561091c57600080fd5b505afa158015610930573d6000803e3d6000fd5b505050506040513d601f19601f8201168201806040525081019061095491906113b2565b84111590506102c1565b6001600160a01b0383811660009081526007602052604090205461010090048116908316148015610a0b575060405163b0d8e18160e01b815284906001600160a01b0387169063b0d8e181906109b890879060040161140b565b60206040518083038186803b1580156109d057600080fd5b505afa1580156109e4573d6000803e3d6000fd5b505050506040513d601f19601f82011682018060405250810190610a0891906113b2565b10155b80156107ff575060405163b0d8e18160e01b81526001600160a01b0386169063b0d8e1819061085890859060040161140b565b60008083836001600160a01b03821615610aeb57610a5b82610302565b1580610ae1575060405163b0d8e18160e01b81526001600160a01b0389169063b0d8e18190610a8e90859060040161140b565b60206040518083038186803b158015610aa657600080fd5b505afa158015610aba573d6000803e3d6000fd5b505050506040513d601f19601f82011682018060405250810190610ade91906113b2565b87115b15610aeb57600091505b6001600160a01b03811615610b9257610b0381610302565b1580610b89575060405163b0d8e18160e01b81526001600160a01b0389169063b0d8e18190610b3690849060040161140b565b60206040518083038186803b158015610b4e57600080fd5b505afa158015610b62573d6000803e3d6000fd5b505050506040513d601f19601f82011682018060405250810190610b8691906113b2565b87105b15610b92575060005b6001600160a01b038216158015610bb057506001600160a01b038116155b15610bd957600354610bce90899089906001600160a01b0316611054565b935093505050610c16565b6001600160a01b038216610bf257610bce88888361118f565b6001600160a01b038116610c0b57610bce888884611054565b610bce888884611054565b94509492505050565b6001546001600160a01b0316331480610c405750336001600160a01b038216145b6102945760405162461bcd60e51b81526004016103ab90611710565b610c6461047e565b15610c815760405162461bcd60e51b81526004016103ab90611669565b8051610c8c90610302565b15610ca95760405162461bcd60e51b81526004016103ab906114d9565b80516001600160a01b0316610cd05760405162461bcd60e51b81526004016103ab906115b1565b6000816020015111610cf45760405162461bcd60e51b81526004016103ab9061175d565b604081015160608201516020830151610d1090859084846107d2565b610d2a57610d248484602001518484610a3e565b90925090505b82516001600160a01b039081166000908152600760205260409020805460ff191660011790558216158015610d6657506001600160a01b038116155b15610d9c578251600380546001600160a01b039092166001600160a01b0319928316811790915560048054909216179055610f20565b6001600160a01b038216610e19576003805484516001600160a01b03908116600090815260076020526040808220805494841661010002610100600160a81b031990951694909417909355865184548316825292902060010180549282166001600160a01b03199384161790558551835491169116179055610f20565b6001600160a01b038116610e96576004805484516001600160a01b0390811660009081526007602052604080822060010180549484166001600160a01b0319958616179055875185548416835291208054610100600160a81b03191661010092841692909202919091179055855183549092169116179055610f20565b82516001600160a01b039081166000908152600760205260408082208054848616610100818102610100600160a81b031993841617909355885186168552838520600190810180548a89166001600160a01b031991821681179092558b519188528688208054928a1690960291909416179093558851908552929093200180549190931691161790555b600654610f3490600163ffffffff6112c416565b600655825160208401516040517fe02b43adbee0c123de070a04554a71877a0007e2fc161466299cae3c094fe82f92610f6e929091611462565b60405180910390a150505050565b6001600160a01b038116610fa25760405162461bcd60e51b81526004016103ab906116d2565b803b806103ed5760405162461bcd60e51b81526004016103ab906116f1565b600080546040516001600160a01b03909116907f8be0079c531659141344cd1fd0a4f28419497f9722a3daafe3b4186f6b6457e0908390a3600080546001600160a01b0319169055565b600061104d83836040518060400160405280601e81526020017f536166654d6174683a207375627472616374696f6e206f766572666c6f7700008152506112e9565b9392505050565b60035460009081906001600160a01b0384811691161480156110f1575060405163b0d8e18160e01b81526001600160a01b0386169063b0d8e1819061109d90869060040161140b565b60206040518083038186803b1580156110b557600080fd5b505afa1580156110c9573d6000803e3d6000fd5b505050506040513d601f19601f820116820180604052508101906110ed91906113b2565b8410155b15611101575060009050816102eb565b6001600160a01b038084166000908152600760205260409020548491610100909104165b6001600160a01b038216158015906111465750611144878784846107d2565b155b1561118357506001600160a01b03908116600090815260076020526040808220546101009081900484168084529190922054909291900416611125565b90969095509350505050565b60045460009081906001600160a01b03848116911614801561122c575060405163b0d8e18160e01b81526001600160a01b0386169063b0d8e181906111d890869060040161140b565b60206040518083038186803b1580156111f057600080fd5b505afa158015611204573d6000803e3d6000fd5b505050506040513d601f19601f8201168201806040525081019061122891906113b2565b8411155b1561123c575081905060006102eb565b6001600160a01b038084166000908152600760205260409020600101548491165b6001600160a01b0382161580159061127e575061127c878783856107d2565b155b156112b957506001600160a01b039081166000908152600760205260408082206001908101548416808452919092209091015490911661125d565b969095509350505050565b60008282018381101561104d5760405162461bcd60e51b81526004016103ab906115e8565b6000818484111561130d5760405162461bcd60e51b81526004016103ab9190611486565b505050900390565b600060208284031215611326578081fd5b81356001600160a01b038116811461104d578182fd5b60006080828403121561134d578081fd5b604051608081016001600160401b038111828210171561136b578283fd5b6040528235611379816117a9565b8152602083810135908201526040830135611393816117a9565b604082015260608301356113a6816117a9565b60608201529392505050565b6000602082840312156113c3578081fd5b5051919050565b6000806000606084860312156113de578182fd5b8335925060208401356113f0816117a9565b91506040840135611400816117a9565b809150509250925092565b6001600160a01b0391909116815260200190565b6001600160a01b0392831681529116602082015260400190565b6001600160a01b0394851681529290931660208301526040820152606081019190915260800190565b6001600160a01b03929092168252602082015260400190565b901515815260200190565b6000602080835283518082850152825b818110156114b257858101830151858201604001528201611496565b818111156114c35783604083870101525b50601f01601f1916929092016040019392505050565b6020808252602c908201527f536f7274656454726f7665733a204c69737420616c726561647920636f6e746160408201526b696e7320746865206e6f646560a01b606082015260800190565b6020808252602a908201527f536f7274656454726f7665733a204c69737420646f6573206e6f7420636f6e74604082015269185a5b881d1a19481a5960b21b606082015260800190565b60208082526022908201527f536f7274656454726f7665733a2053697a652063616ee2809974206265207a65604082015261726f60f01b606082015260800190565b6020808252601f908201527f536f7274656454726f7665733a2049642063616e6e6f74206265207a65726f00604082015260600190565b6020808252601b908201527a536166654d6174683a206164646974696f6e206f766572666c6f7760281b604082015260600190565b6020808252602c908201527f536f7274656454726f7665733a2043616c6c6572206973206e6f74207468652060408201526b2a3937bb32a6b0b730b3b2b960a11b606082015260800190565b6020808252601a908201527914dbdc9d1959151c9bdd995cce88131a5cdd081a5cc8199d5b1b60321b604082015260600190565b6020808252818101527f4f776e61626c653a2063616c6c6572206973206e6f7420746865206f776e6572604082015260600190565b6020808252600590820152641830b2323960d91b604082015260600190565b60208082526005908201526430636f646560d81b604082015260600190565b6020808252602d908201527f536f7274656454726f7665733a2043616c6c6572206973206e6569746865722060408201526c424f206e6f722054726f76654d60981b606082015260800190565b60208082526023908201527f536f7274656454726f7665733a204e494352206d75737420626520706f73697460408201526269766560e81b606082015260800190565b90815260200190565b6001600160a01b038116811461029457600080fdfea164736f6c634300060b000a608060405234801561001057600080fd5b50600580546001600160a01b031916339081179091556040516000907f8be0079c531659141344cd1fd0a4f28419497f9722a3daafe3b4186f6b6457e0908290a361176b806100606000396000f3fe608060405234801561001057600080fd5b50600436106101335760003560e01c806301ff3f27146101385780633b2f0e4e1461014d5780633cc742251461016b5780633d83908a146101735780634870dd9a1461017b57806352576cdf1461019057806356c148a2146101b05780636cfb6bf9146101c357806372fe25aa146101d6578063741bef1a146101de578063795d26c3146101e65780637f7dde4a146101ee57806386551e2d146101f6578063887105d3146102095780638cf30644146102115780638da5cb5b146102245780638f32d59b1461022c578063991292e314610234578063a20baee6146101d6578063ae9187541461023c578063c640c37614610244578063d085835a1461024c578063dcafb41414610254578063ddd88be514610274578063febf7cc714610287575b600080fd5b61014b6101463660046112b4565b61029a565b005b610155610354565b604051610162919061130f565b60405180910390f35b610155610363565b610155610372565b610183610381565b6040516101629190611740565b6101a361019e366004611274565b610386565b604051610162919061133c565b61014b6101be3660046112b4565b610664565b61014b6101d13660046111d3565b61068c565b610183610743565b61015561074f565b61018361075e565b61015561088a565b6101a36102043660046112e4565b610899565b610183610931565b61014b61021f366004611274565b610a0c565b610155610ab5565b6101a3610ac4565b610155610ad5565b610155610ae4565b61014b610af3565b610155610c2f565b6102676102623660046112e4565b610c3e565b60405161016291906116db565b61014b6102823660046112b4565b610dd8565b61014b6102953660046112b4565b610ea2565b6102a2610f4b565b60018111801561032c57506007546040805163de8fa43160e01b815290516001926001600160a01b03169163de8fa431916004808301926020929190829003018186803b1580156102f257600080fd5b505afa158015610306573d6000803e3d6000fd5b505050506040513d601f19601f8201168201806040525081019061032a91906112cc565b115b6103515760405162461bcd60e51b8152600401610348906113cf565b60405180910390fd5b50565b6008546001600160a01b031681565b6002546001600160a01b031681565b6006546001600160a01b031681565b60c881565b6000610390610f4b565b6000600460009054906101000a90046001600160a01b03166001600160a01b03166344936b106040518163ffffffff1660e01b815260040160206040518083038186803b1580156103e057600080fd5b505afa1580156103f4573d6000803e3d6000fd5b505050506040513d601f19601f8201168201806040525081019061041891906112cc565b90506001600160a01b03841615806104a95750604051630bb7c8fd60e31b81526001600160a01b03861690635dbe47e89061045790879060040161130f565b60206040518083038186803b15801561046f57600080fd5b505afa158015610483573d6000803e3d6000fd5b505050506040513d601f19601f820116820180604052508101906104a79190611254565b155b806105335750600654604051630d293c7160e41b815282916001600160a01b03169063d293c710906104e19088908890600401611323565b60206040518083038186803b1580156104f957600080fd5b505afa15801561050d573d6000803e3d6000fd5b505050506040513d601f19601f8201168201806040525081019061053191906112cc565b105b1561054257600091505061065d565b60405163765e015960e01b81526000906001600160a01b0387169063765e01599061057190889060040161130f565b60206040518083038186803b15801561058957600080fd5b505afa15801561059d573d6000803e3d6000fd5b505050506040513d601f19601f820116820180604052508101906105c191906111b7565b90506001600160a01b03811615806106585750600654604051630d293c7160e41b815283916001600160a01b03169063d293c710906106069085908990600401611323565b60206040518083038186803b15801561061e57600080fd5b505afa158015610632573d6000803e3d6000fd5b505050506040513d601f19601f8201168201806040525081019061065691906112cc565b105b925050505b9392505050565b61066c610f4b565b600081116103515760405162461bcd60e51b815260040161034890611560565b610694610ac4565b6106b05760405162461bcd60e51b8152600401610348906114b8565b6106b986610f77565b6106c285610f77565b6106cb84610f77565b6106d483610f77565b600680546001600160a01b03199081166001600160a01b0398891617909155600480548216968816969096179095556007805486169487169490941790935560088054851692861692909217909155600180548416918516919091179055600280549092169216919091179055565b670de0b6b3a764000081565b6003546001600160a01b031681565b600080600160009054906101000a90046001600160a01b03166001600160a01b0316635227d6a86040518163ffffffff1660e01b815260040160206040518083038186803b1580156107af57600080fd5b505afa1580156107c3573d6000803e3d6000fd5b505050506040513d601f19601f820116820180604052508101906107e791906112cc565b90506000600260009054906101000a90046001600160a01b03166001600160a01b0316635227d6a86040518163ffffffff1660e01b815260040160206040518083038186803b15801561083957600080fd5b505afa15801561084d573d6000803e3d6000fd5b505050506040513d601f19601f8201168201806040525081019061087191906112cc565b9050610883828263ffffffff610fbc16565b9250505090565b6001546001600160a01b031681565b60006108a3610f4b565b6004805460408051635da04a9160e11b815290516001600160a01b039092169263bb409522928282019260209290829003018186803b1580156108e557600080fd5b505afa1580156108f9573d6000803e3d6000fd5b505050506040513d601f19601f8201168201806040525081019061091d91906112cc565b610928858585610fea565b10949350505050565b600080600160009054906101000a90046001600160a01b03166001600160a01b03166378a619de6040518163ffffffff1660e01b815260040160206040518083038186803b15801561098257600080fd5b505afa158015610996573d6000803e3d6000fd5b505050506040513d601f19601f820116820180604052508101906109ba91906112cc565b90506000600260009054906101000a90046001600160a01b03166001600160a01b03166378a619de6040518163ffffffff1660e01b815260040160206040518083038186803b15801561083957600080fd5b610a14610f4b565b6040516370a0823160e01b815281906001600160a01b038516906370a0823190610a4290869060040161130f565b60206040518083038186803b158015610a5a57600080fd5b505afa158015610a6e573d6000803e3d6000fd5b505050506040513d601f19601f82011682018060405250810190610a9291906112cc565b1015610ab05760405162461bcd60e51b81526004016103489061161d565b505050565b6005546001600160a01b031690565b6005546001600160a01b0316331490565b6004546001600160a01b031681565b6007546001600160a01b031681565b610afb610f4b565b60085460408051631e425be160e11b815290516000926001600160a01b031691633c84b7c2916004808301926020929190829003018186803b158015610b4057600080fd5b505afa158015610b54573d6000803e3d6000fd5b505050506040513d601f19601f82011682018060405250810190610b7891906112cc565b9050610c10600660009054906101000a90046001600160a01b03166001600160a01b031663c35bc5506040518163ffffffff1660e01b815260040160206040518083038186803b158015610bcb57600080fd5b505afa158015610bdf573d6000803e3d6000fd5b505050506040513d601f19601f82011682018060405250810190610c0391906112cc565b829063ffffffff610fbc16565b4210156103515760405162461bcd60e51b815260040161034890611419565b6000546001600160a01b031681565b610c4661116b565b610c4e610f4b565b8381526020808201849052600480546040805163044936b160e41b81529051600094610cf7948894610ceb946001600160a01b03909116936344936b1093828401939092829003018186803b158015610ca657600080fd5b505afa158015610cba573d6000803e3d6000fd5b505050506040513d601f19601f82011682018060405250810190610cde91906112cc565b889063ffffffff61101a16565b9063ffffffff61105416565b9050610d0281611093565b604080840191909152600480548251631549b76d60e01b815292516001600160a01b0390911692631549b76d9281810192602092909190829003018186803b158015610d4d57600080fd5b505afa158015610d61573d6000803e3d6000fd5b505050506040513d601f19601f82011682018060405250810190610d8591906112cc565b6060830152608082018590526040820151610da790829063ffffffff61109a16565b60a0830152610dbc848263ffffffff61109a16565b61010083015250600060c0820181905260e08201529392505050565b610de0610f4b565b6000600460009054906101000a90046001600160a01b03166001600160a01b0316638abf30b36040518163ffffffff1660e01b815260040160206040518083038186803b158015610e3057600080fd5b505afa158015610e44573d6000803e3d6000fd5b505050506040513d601f19601f82011682018060405250810190610e6891906112cc565b9050808210158015610e825750670de0b6b3a76400008211155b610e9e5760405162461bcd60e51b8152600401610348906115cd565b5050565b610eaa610f4b565b600480546040805163044936b160e41b815290516001600160a01b03909216926344936b10928282019260209290829003018186803b158015610eec57600080fd5b505afa158015610f00573d6000803e3d6000fd5b505050506040513d601f19601f82011682018060405250810190610f2491906112cc565b610f2d826110dc565b10156103515760405162461bcd60e51b815260040161034890611691565b6006546001600160a01b03163314610f755760405162461bcd60e51b8152600401610348906114ed565b565b6001600160a01b038116610f9d5760405162461bcd60e51b815260040161034890611541565b803b80610e9e5760405162461bcd60e51b8152600401610348906115ae565b600082820183811015610fe15760405162461bcd60e51b81526004016103489061139a565b90505b92915050565b6000821561101157600061100884610ceb878663ffffffff61101a16565b915061065d9050565b5060001961065d565b60008261102957506000610fe4565b8282028284828161103657fe5b0414610fe15760405162461bcd60e51b815260040161034890611477565b6000610fe183836040518060400160405280601a815260200179536166654d6174683a206469766973696f6e206279207a65726f60301b815250611108565b60c8900490565b6000610fe183836040518060400160405280601e81526020017f536166654d6174683a207375627472616374696f6e206f766572666c6f77000081525061113f565b6000806110e7610931565b905060006110f361075e565b9050611100828286610fea565b949350505050565b600081836111295760405162461bcd60e51b81526004016103489190611347565b50600083858161113557fe5b0495945050505050565b600081848411156111635760405162461bcd60e51b81526004016103489190611347565b505050900390565b6040518061012001604052806000815260200160008152602001600081526020016000815260200160008152602001600081526020016000815260200160008152602001600081525090565b6000602082840312156111c8578081fd5b8151610fe181611749565b60008060008060008060c087890312156111eb578182fd5b86356111f681611749565b9550602087013561120681611749565b9450604087013561121681611749565b9350606087013561122681611749565b9250608087013561123681611749565b915060a087013561124681611749565b809150509295509295509295565b600060208284031215611265578081fd5b81518015158114610fe1578182fd5b600080600060608486031215611288578283fd5b833561129381611749565b925060208401356112a381611749565b929592945050506040919091013590565b6000602082840312156112c5578081fd5b5035919050565b6000602082840312156112dd578081fd5b5051919050565b6000806000606084860312156112f8578283fd5b505081359360208301359350604090920135919050565b6001600160a01b0391909116815260200190565b6001600160a01b03929092168252602082015260400190565b901515815260200190565b6000602080835283518082850152825b8181101561137357858101830151858201604001528201611357565b818111156113845783604083870101525b50601f01601f1916929092016040019392505050565b6020808252601b908201527a536166654d6174683a206164646974696f6e206f766572666c6f7760281b604082015260600190565b6020808252602a908201527f54726f76654d616e616765723a204f6e6c79206f6e652074726f766520696e206040820152697468652073797374656d60b01b606082015260800190565b602080825260409082018190527f54726f76654d616e616765723a20526564656d7074696f6e7320617265206e6f908201527f7420616c6c6f77656420647572696e6720626f6f747374726170207068617365606082015260800190565b60208082526021908201527f536166654d6174683a206d756c7469706c69636174696f6e206f766572666c6f6040820152607760f81b606082015260800190565b6020808252818101527f4f776e61626c653a2063616c6c6572206973206e6f7420746865206f776e6572604082015260600190565b60208082526034908201527f54726f766548656c7065723a2043616c6c6572206973206e6f742074686520546040820152731c9bdd9953585b9859d95c8818dbdb9d1c9858dd60621b606082015260800190565b6020808252600590820152641830b2323960d91b604082015260600190565b6020808252602e908201527f54726f76654d616e616765723a20416d6f756e74206d7573742062652067726560408201526d61746572207468616e207a65726f60901b606082015260800190565b60208082526005908201526430636f646560d81b604082015260600190565b60208082526030908201527f4d6178206665652070657263656e74616765206d75737420626520626574776560408201526f656e20302e352520616e64203130302560801b606082015260800190565b6020808252604e908201527f54726f76654d616e616765723a2052657175657374656420726564656d70746960408201527f6f6e20616d6f756e74206d757374206265203c3d20757365722773205553445360608201526d20746f6b656e2062616c616e636560901b608082015260a00190565b6020808252602a908201527f54726f76654d616e616765723a2043616e6e6f742072656465656d207768656e604082015269102a21a9101e1026a1a960b11b606082015260800190565b600061012082019050825182526020830151602083015260408301516040830152606083015160608301526080830151608083015260a083015160a083015260c083015160c083015260e083015160e083015261010080840151818401525092915050565b90815260200190565b6001600160a01b038116811461035157600080fdfea164736f6c634300060b000a60806040523480156200001157600080fd5b50604051620012f7380380620012f7833981016040819052620000349162000088565b600080546001600160a01b039586166001600160a01b031991821617909155600180549486169482169490941790935560028054928516928416929092179091556003805491909316911617905562000108565b600080600080608085870312156200009e578384fd5b8451620000ab81620000ef565b6020860151909450620000be81620000ef565b6040860151909350620000d181620000ef565b6060860151909250620000e481620000ef565b939692955090935050565b6001600160a01b03811681146200010557600080fd5b50565b6111df80620001186000396000f3fe6080604052600436106100dd5760003560e01c80630aa535df146100e95780632bd363121461010b578063386680ae1461011e578063390b5f27146101315780634c36240b14610167578063a038584614610187578063a1cb9dcb146101a7578063cc51a6c2146101c7578063cf83544f146101e7578063d190982514610207578063d466e4eb14610227578063d94bcec214610247578063dda1d3ac14610267578063eabb924d14610287578063ec40167b146102a7578063f701754f146102c7578063f7a3ec72146102da578063ffb85f60146102fa576100e4565b366100e457005b600080fd5b3480156100f557600080fd5b50610109610104366004610d01565b61031a565b005b610109610119366004610ddf565b610385565b61010961012c366004610d31565b6103fc565b34801561013d57600080fd5b5061015161014c366004610a57565b61046a565b60405161015e9190611014565b60405180910390f35b34801561017357600080fd5b50610109610182366004610b4b565b6104f8565b34801561019357600080fd5b506101096101a2366004610a06565b610560565b3480156101b357600080fd5b506101096101c2366004610ae9565b610594565b3480156101d357600080fd5b506101516101e2366004610a57565b6105c6565b3480156101f357600080fd5b50610151610202366004610a57565b6105f9565b34801561021357600080fd5b50610109610222366004610d01565b61062c565b34801561023357600080fd5b50610151610242366004610a57565b610660565b34801561025357600080fd5b506101516102623660046109c6565b610693565b34801561027357600080fd5b50610109610282366004610b77565b610722565b34801561029357600080fd5b506101096102a2366004610c18565b61079f565b3480156102b357600080fd5b506101096102c2366004610a81565b6107f1565b6101096102d5366004610c18565b61085f565b3480156102e657600080fd5b506101096102f5366004610c18565b6108d0565b34801561030657600080fd5b50610109610315366004610c88565b610908565b6000546040516360ac128f60e01b81526001600160a01b03909116906360ac128f9061034e90869086908690600401611132565b600060405180830381600087803b15801561036857600080fd5b505af115801561037c573d6000803e3d6000fd5b50505050505050565b6001546040516307094ec760e51b81526001600160a01b039091169063e129d8e09089906103c19087908b908b908b908a908a9060040161114c565b6000604051808303818588803b1580156103da57600080fd5b505af11580156103ee573d6000803e3d6000fd5b505050505050505050505050565b60015460405163739987d760e01b81526001600160a01b039091169063739987d79086906104329087908790879060040161101f565b6000604051808303818588803b15801561044b57600080fd5b505af115801561045f573d6000803e3d6000fd5b505050505050505050565b60035460405163a9059cbb60e01b81526000916001600160a01b03169063a9059cbb9061049d9086908690600401610f84565b602060405180830381600087803b1580156104b757600080fd5b505af11580156104cb573d6000803e3d6000fd5b505050506040513d601f19601f820116820180604052508101906104ef9190610b28565b90505b92915050565b600254604051635f788d6560e01b81526001600160a01b0390911690635f788d659061052a908590859060040161107c565b600060405180830381600087803b15801561054457600080fd5b505af1158015610558573d6000803e3d6000fd5b505050505050565b60005460405163568e1f3160e11b81526001600160a01b039091169063ad1c3e629061034e90869086908690600401610f56565b600154604051636fcdf93d60e11b81526001600160a01b039091169063df9bf27a9061052a9085908590600401611000565b600354604051633950935160e01b81526000916001600160a01b03169063395093519061049d9086908690600401610f84565b60035460405163095ea7b360e01b81526000916001600160a01b03169063095ea7b39061049d9086908690600401610f84565b600254604051630943fefb60e21b81526001600160a01b039091169063250ffbec9061034e90869086908690600401611132565b60035460405163a457c2d760e01b81526000916001600160a01b03169063a457c2d79061049d9086908690600401610f84565b6003546040516323b872dd60e01b81526000916001600160a01b0316906323b872dd906106c890879087908790600401610f32565b602060405180830381600087803b1580156106e257600080fd5b505af11580156106f6573d6000803e3d6000fd5b505050506040513d601f19601f8201168201806040525081019061071a9190610b28565b949350505050565b60005460405163472b286f60e01b81526001600160a01b039091169063472b286f90610762908c908c908c908c908c908c908c908c908c90600401611093565b600060405180830381600087803b15801561077c57600080fd5b505af1158015610790573d6000803e3d6000fd5b50505050505050505050505050565b600154604051633c7cc25d60e21b81526001600160a01b039091169063f1f30974906107d790889088908890889088906004016110f4565b600060405180830381600087803b15801561044b57600080fd5b6000546040516335fcb76d60e11b81526001600160a01b0390911690636bf96eda90610827908790879087908790600401610f9d565b600060405180830381600087803b15801561084157600080fd5b505af1158015610855573d6000803e3d6000fd5b5050505050505050565b600154604051631e503ead60e01b81526001600160a01b0390911690631e503ead908790610897908890889088908890600401610efb565b6000604051808303818588803b1580156108b057600080fd5b505af11580156108c4573d6000803e3d6000fd5b50505050505050505050565b60015460405163046459ad60e31b81526001600160a01b0390911690632322cd68906107d790889088908890889088906004016110f4565b600154604051632c4836f560e21b81526001600160a01b039091169063b120dbd4906109429086908a908a908a908990899060040161114c565b600060405180830381600087803b1580156108b057600080fd5b80356001600160a01b03811681146104f257600080fd5b60008083601f840112610984578182fd5b5081356001600160401b0381111561099a578182fd5b60208301915083602080830285010111156109b457600080fd5b9250929050565b80356104f2816111c4565b6000806000606084860312156109da578283fd5b83356109e5816111ac565b925060208401356109f5816111ac565b929592945050506040919091013590565b600080600060408486031215610a1a578283fd5b610a24858561095c565b925060208401356001600160401b03811115610a3e578283fd5b610a4a86828701610973565b9497909650939450505050565b60008060408385031215610a69578182fd5b610a73848461095c565b946020939093013593505050565b60008060008060408587031215610a96578081fd5b84356001600160401b0380821115610aac578283fd5b610ab888838901610973565b90965094506020870135915080821115610ad0578283fd5b50610add87828801610973565b95989497509550505050565b60008060208385031215610afb578182fd5b82356001600160401b03811115610b10578283fd5b610b1c85828601610973565b90969095509350505050565b600060208284031215610b39578081fd5b8151610b44816111c4565b9392505050565b60008060408385031215610b5d578182fd5b82359150610b6e846020850161095c565b90509250929050565b60008060008060008060008060006101008a8c031215610b95578485fd5b8935985060208a0135610ba7816111ac565b975060408a0135610bb7816111ac565b965060608a0135610bc7816111ac565b955060808a0135945060a08a0135935060c08a0135925060e08a01356001600160401b03811115610bf6578283fd5b610c028c828d01610973565b8194508093505050509295985092959850929598565b600080600080600060808688031215610c2f578081fd5b853594506020860135610c41816111ac565b93506040860135610c51816111ac565b925060608601356001600160401b03811115610c6b578182fd5b610c7788828901610973565b969995985093965092949392505050565b60008060008060008060a08789031215610ca0578182fd5b863595506020870135610cb2816111ac565b94506040870135610cc2816111ac565b93506060870135925060808701356001600160401b03811115610ce3578283fd5b610cef89828a01610973565b979a9699509497509295939492505050565b600080600060408486031215610d15578081fd5b8335925060208401356001600160401b03811115610a3e578182fd5b600080600080848603610100811215610d48578283fd5b8535945060c0601f1982011215610d5d578283fd5b50610d6860c0611186565b6020860135815260408601356020820152610d8687606088016109bb565b6040820152610d98876080880161095c565b6060820152610daa8760a0880161095c565b608082015260c086013560a0820152925060e08501356001600160401b03811115610dd3578283fd5b610add87828801610973565b600080600080600080600060c0888a031215610df9578081fd5b8735965060208801359550610e118960408a0161095c565b9450610e208960608a0161095c565b93506080880135925060a08801356001600160401b03811115610e41578182fd5b610e4d8a828b01610973565b989b979a50959850939692959293505050565b818352602080840193600091908185020181018584845b87811015610eee5782840389528135601e19883603018112610e97578687fd5b87018035906001600160401b03821115610eaf578788fd5b813603891315610ebd578788fd5b818652818782018888013750848101860187905298850198601f01601f191690930184019290840190600101610e77565b5091979650505050505050565b6001600160a01b03858116825284166020820152606060408201819052600090610f289083018486610e60565b9695505050505050565b6001600160a01b039384168152919092166020820152604081019190915260600190565b6001600160a01b0384168152604060208201819052600090610f7b9083018486610e60565b95945050505050565b6001600160a01b03929092168252602082015260400190565b6040808252810184905260008560608301825b87811015610fe05760208381016001600160a01b03610fcf828761095c565b168452935090910190600101610fb0565b508381036020850152610ff4818688610e60565b98975050505050505050565b60006020825261071a602083018486610e60565b901515815260200190565b60008451825260208501516020830152604085015115156040830152606085015160018060a01b038082166060850152806080880151166080850152505060a085015160a083015260e060c0830152610f7b60e083018486610e60565b9182526001600160a01b0316602082015260400190565b8981526001600160a01b0389811660208301528881166040830152871660608201526080810186905260a0810185905260c0810184905261010060e082018190526000906110e48382018587610e60565b9c9b505050505050505050505050565b8581526001600160a01b038581166020830152841660408201526080606082018190526000906111279083018486610e60565b979650505050505050565b600084825260406020830152610f7b604083018486610e60565b868152602081018690526001600160a01b0385811660408301528416606082015260a060808201819052600090610ff49083018486610e60565b6040518181016001600160401b03811182821017156111a457600080fd5b604052919050565b6001600160a01b03811681146111c157600080fd5b50565b80151581146111c157600080fdfea164736f6c634300060b000a","linkReferences":{}},"methodIdentifiers":{"activePool()":"7f7dde4a","addCollExt(uint256,uint256,bytes[])":"89891c0e","addCollRawExt(uint256,uint256,address,address,bytes[])":"f42e7c18","adjustTroveExt(uint256,uint256,uint256,uint256,bool,bytes[])":"2c102786","adjustTroveRawExt(uint256,uint256,(uint256,uint256,bool,address,address,uint256),bytes[])":"e217c42f","approveExt(uint256,address,uint256)":"119be5d0","batchLiquidateTrovesExt(uint256,address[],bytes[])":"6f508292","borrowerOperations()":"77553ad4","closeTroveExt(uint256,bytes[])":"7a99b1f9","collSurplusPool()":"cda775f9","decreaseAllowanceExt(uint256,address,uint256)":"04bbf59c","defaultPool()":"3cc74225","echidnaProxies(uint256)":"91a4a426","echidna_BNB_balances()":"82e115ae","echidna_USDS_global_balances()":"4fa55cb0","echidna_canary_active_pool_balance()":"9f56ac18","echidna_canary_number_of_troves()":"a2f5cbdd","echidna_price()":"5895ac4e","echidna_trove_properties()":"980c55d7","echidna_troves_order()":"59bed84b","gasPool()":"fa08b038","increaseAllowanceExt(uint256,address,uint256)":"8e4707d3","liquidateExt(uint256,address,bytes[])":"7c05b0a0","liquidateTrovesExt(uint256,uint256,bytes[])":"3437c064","openTroveExt(uint256,uint256,uint256,bytes[])":"14ae6352","openTroveRawExt(uint256,uint256,uint256,address,address,uint256,bytes[])":"b2d44f5f","provideToSPExt(uint256,uint256,address)":"3ca4afc1","redeemCollateralExt(uint256,uint256,address,address,address,uint256,bytes[])":"71ac250b","repayUSDSExt(uint256,uint256,address,address,bytes[])":"d88d0e98","setPriceExt(uint256)":"4557559f","stabilityPool()":"048c661d","transferExt(uint256,address,uint256)":"9cdd0978","transferFromExt(uint256,address,address,uint256)":"7c22900e","troveManager()":"3d83908a","usdsToken()":"f8f8d174","withdrawCollExt(uint256,uint256,address,address,bytes[])":"8e1cbb00","withdrawFromSPExt(uint256,uint256,bytes[])":"a2adcd19","withdrawUSDSExt(uint256,uint256,address,address,uint256,bytes[])":"90543d25"},"id":83}