{"abi":[{"type":"receive","stateMutability":"payable"},{"type":"function","name":"BNBFeed","inputs":[],"outputs":[{"name":"","type":"bytes32","internalType":"bytes32"}],"stateMutability":"view"},{"type":"function","name":"DECIMAL_PRECISION","inputs":[],"outputs":[{"name":"","type":"uint256","internalType":"uint256"}],"stateMutability":"view"},{"type":"function","name":"MAX_PRICE_DEVIATION_FROM_PREVIOUS_ROUND","inputs":[],"outputs":[{"name":"","type":"uint256","internalType":"uint256"}],"stateMutability":"view"},{"type":"function","name":"MAX_PRICE_DIFFERENCE_BETWEEN_ORACLES","inputs":[],"outputs":[{"name":"","type":"uint256","internalType":"uint256"}],"stateMutability":"view"},{"type":"function","name":"MAX_SCALED_DEVIATION_PYTH","inputs":[],"outputs":[{"name":"","type":"uint256","internalType":"uint256"}],"stateMutability":"view"},{"type":"function","name":"NAME","inputs":[],"outputs":[{"name":"","type":"string","internalType":"string"}],"stateMutability":"view"},{"type":"function","name":"PYTH_DIGITS","inputs":[],"outputs":[{"name":"","type":"uint256","internalType":"uint256"}],"stateMutability":"view"},{"type":"function","name":"TARGET_DIGITS","inputs":[],"outputs":[{"name":"","type":"uint256","internalType":"uint256"}],"stateMutability":"view"},{"type":"function","name":"TIMEOUT","inputs":[],"outputs":[{"name":"","type":"uint256","internalType":"uint256"}],"stateMutability":"view"},{"type":"function","name":"age","inputs":[],"outputs":[{"name":"","type":"uint256","internalType":"uint256"}],"stateMutability":"view"},{"type":"function","name":"fetchPrice","inputs":[{"name":"priceFeedUpdateData","type":"bytes[]","internalType":"bytes[]"}],"outputs":[{"name":"result","type":"tuple","internalType":"struct IPriceFeed.FetchPriceResult","components":[{"name":"price","type":"uint256","internalType":"uint256"},{"name":"oracleKey","type":"bytes32","internalType":"bytes32"},{"name":"deviationPyth","type":"uint256","internalType":"uint256"},{"name":"publishTimePyth","type":"uint256","internalType":"uint256"}]}],"stateMutability":"nonpayable"},{"type":"function","name":"getInternalFetchPriceResult","inputs":[],"outputs":[{"name":"","type":"tuple","internalType":"struct IPriceFeed.FetchPriceResult","components":[{"name":"price","type":"uint256","internalType":"uint256"},{"name":"oracleKey","type":"bytes32","internalType":"bytes32"},{"name":"deviationPyth","type":"uint256","internalType":"uint256"},{"name":"publishTimePyth","type":"uint256","internalType":"uint256"}]}],"stateMutability":"view"},{"type":"function","name":"isOwner","inputs":[],"outputs":[{"name":"","type":"bool","internalType":"bool"}],"stateMutability":"view"},{"type":"function","name":"lastGoodPrice","inputs":[],"outputs":[{"name":"","type":"uint256","internalType":"uint256"}],"stateMutability":"view"},{"type":"function","name":"logPythFetchPriceResult","inputs":[{"name":"priceFeedUpdateData","type":"bytes[]","internalType":"bytes[]"}],"outputs":[],"stateMutability":"payable"},{"type":"function","name":"owner","inputs":[],"outputs":[{"name":"","type":"address","internalType":"address"}],"stateMutability":"view"},{"type":"function","name":"priceAggregator","inputs":[],"outputs":[{"name":"","type":"address","internalType":"contract AggregatorV3Interface"}],"stateMutability":"view"},{"type":"function","name":"pyth","inputs":[],"outputs":[{"name":"","type":"address","internalType":"contract IPyth"}],"stateMutability":"view"},{"type":"function","name":"setAddresses","inputs":[{"name":"_priceAggregatorAddress","type":"address","internalType":"address"},{"name":"_pythAddress","type":"address","internalType":"address"},{"name":"_troveManagerAddress","type":"address","internalType":"address"},{"name":"_borrowerOperationsAddress","type":"address","internalType":"address"},{"name":"_stabilityPoolAddress","type":"address","internalType":"address"},{"name":"_bnbFeedPyth","type":"bytes32","internalType":"bytes32"},{"name":"priceFeedUpdateData","type":"bytes[]","internalType":"bytes[]"}],"outputs":[],"stateMutability":"payable"},{"type":"function","name":"setAddressesTestnet","inputs":[{"name":"_priceAggregatorAddress","type":"address","internalType":"address"},{"name":"_pythAddress","type":"address","internalType":"address"},{"name":"_troveManagerAddress","type":"address","internalType":"address"},{"name":"_borrowerOperationsAddress","type":"address","internalType":"address"},{"name":"_stabilityPoolAddress","type":"address","internalType":"address"},{"name":"_bnbPriceFeedId","type":"bytes32","internalType":"bytes32"}],"outputs":[],"stateMutability":"payable"},{"type":"function","name":"setLastGoodPrice","inputs":[{"name":"_lastGoodPrice","type":"uint256","internalType":"uint256"}],"outputs":[],"stateMutability":"nonpayable"},{"type":"function","name":"setPrice","inputs":[{"name":"_lastGoodPrice","type":"uint256","internalType":"uint256"}],"outputs":[],"stateMutability":"nonpayable"},{"type":"function","name":"setStatus","inputs":[{"name":"_status","type":"uint8","internalType":"enum PriceFeed.Status"}],"outputs":[],"stateMutability":"nonpayable"},{"type":"function","name":"status","inputs":[],"outputs":[{"name":"","type":"uint8","internalType":"enum PriceFeed.Status"}],"stateMutability":"view"},{"type":"event","name":"BNBFeedPythChanged","inputs":[{"name":"_bnbFeedPyth","type":"bytes32","indexed":false,"internalType":"bytes32"}],"anonymous":false},{"type":"event","name":"BorrowerOperationAddressChanged","inputs":[{"name":"_borrowerOperationsAddress","type":"address","indexed":false,"internalType":"address"}],"anonymous":false},{"type":"event","name":"LastGoodPriceUpdated","inputs":[{"name":"_lastGoodPrice","type":"uint256","indexed":false,"internalType":"uint256"}],"anonymous":false},{"type":"event","name":"OwnershipTransferred","inputs":[{"name":"previousOwner","type":"address","indexed":true,"internalType":"address"},{"name":"newOwner","type":"address","indexed":true,"internalType":"address"}],"anonymous":false},{"type":"event","name":"PriceAggregatorAddressChanged","inputs":[{"name":"_priceAggregatorAddress","type":"address","indexed":false,"internalType":"address"}],"anonymous":false},{"type":"event","name":"PriceFeedStatusChanged","inputs":[{"name":"newStatus","type":"uint8","indexed":false,"internalType":"enum PriceFeed.Status"}],"anonymous":false},{"type":"event","name":"PythAddressChanged","inputs":[{"name":"_pythAddress","type":"address","indexed":false,"internalType":"address"}],"anonymous":false},{"type":"event","name":"StabilityPoolAddressChanged","inputs":[{"name":"_stabilityPoolAddress","type":"address","indexed":false,"internalType":"address"}],"anonymous":false},{"type":"event","name":"TroveManagerAddressChanged","inputs":[{"name":"_troveManagerAddress","type":"address","indexed":false,"internalType":"address"}],"anonymous":false}],"bytecode":{"object":"0x6078600755680ad78ebc5ac6200000600a8190556101006040526080819052634c494e4b60e01b60a0819052600060c081905260e0819052600b92909255600c55600d819055600e5534801561005457600080fd5b50600080546001600160a01b0319163390811782556040519091907f8be0079c531659141344cd1fd0a4f28419497f9722a3daafe3b4186f6b6457e0908290a361200f806100a36000396000f3fe60806040526004361061011f5760003560e01c80630490be831461012b5780631be5c92f14610156578063200d2ed21461016b578063262a9dff1461018d5780632caa8f11146101a25780632e49d78b146101b75780633078fff5146101d957806342866e67146101fb57806345079cb41461020e5780634e15f2a51461022357806358a6aa88146102505780635f62d7911461026557806377c3357c146102785780638da5cb5b1461028d5780638f32d59b146102a257806391b7f5ed146102c45780639cb8c4f3146102e4578063a20baee6146102f7578063a3f4df7e1461030c578063c2da42991461032e578063c521b3f5146102c4578063d68ee55614610343578063f56f48f214610358578063f98d06f01461036d57610126565b3661012657005b600080fd5b34801561013757600080fd5b50610140610382565b60405161014d9190611db1565b60405180910390f35b34801561016257600080fd5b50610140610388565b34801561017757600080fd5b5061018061038d565b60405161014d9190611dc8565b34801561019957600080fd5b50610140610396565b3480156101ae57600080fd5b5061014061039c565b3480156101c357600080fd5b506101d76101d2366004611b53565b6103a1565b005b3480156101e557600080fd5b506101ee6103c2565b60405161014d9190611cfc565b6101d7610209366004611b14565b6103d1565b34801561021a57600080fd5b50610140610553565b34801561022f57600080fd5b5061024361023e366004611b14565b61055e565b60405161014d9190611f85565b34801561025c57600080fd5b50610140610a5b565b6101d76102733660046119f5565b610a67565b34801561028457600080fd5b50610140610b18565b34801561029957600080fd5b506101ee610b23565b3480156102ae57600080fd5b506102b7610b33565b60405161014d9190611da6565b3480156102d057600080fd5b506101d76102df366004611c30565b610b44565b6101d76102f2366004611a6d565b610b49565b34801561030357600080fd5b50610140610db6565b34801561031857600080fd5b50610321610dc2565b60405161014d9190611ddc565b34801561033a57600080fd5b50610140610de7565b34801561034f57600080fd5b50610243610ded565b34801561036457600080fd5b50610140610e22565b34801561037957600080fd5b506101ee610e28565b60085481565b601281565b60095460ff1681565b60075481565b600881565b6009805482919060ff191660018360048111156103ba57fe5b021790555050565b6001546001600160a01b031681565b60025460405163d47eed4560e01b81526000916001600160a01b03169063d47eed45906104049086908690600401611d10565b60206040518083038186803b15801561041c57600080fd5b505afa158015610430573d6000803e3d6000fd5b505050506040513d601f19601f820116820180604052508101906104549190611c48565b600254604051631df3cbc560e31b81529192506001600160a01b03169063ef9e5e289083906104899087908790600401611d10565b6000604051808303818588803b1580156104a257600080fd5b505af11580156104b6573d6000803e3d6000fd5b5050604051634e15f2a560e01b8152309350634e15f2a592506104e0915086908690600401611d10565b608060405180830381600087803b1580156104fa57600080fd5b505af115801561050e573d6000803e3d6000fd5b505050506040513d601f19601f820116820180604052508101906105329190611b72565b8051600b556020810151600c556040810151600d5560600151600e55505050565b66b1a2bc2ec5000081565b610566611913565b61056e610e37565b61057661193e565b61057e610e97565b905061058861193e565b61059a82600001518360800151610fda565b90506105a461196c565b6105ae8686611095565b60008086526040860181905260608601819052630a0b2a8960e31b602087015290915060095460ff1660048111156105e257fe5b1415610718576105f1816112b9565b15610670576106008383611345565b156106195761060f6002611366565b600854845261066b565b610622836113be565b15610648576106316001611366565b6008548452634c494e4b60e01b602085015261066b565b6106526001611366565b61065b836113e1565b8452634c494e4b60e01b60208501525b61070f565b61067981611404565b156106d6576106888383611345565b156106975761060f6004611366565b6106a16003611366565b634c494e4b60e01b60208501526106b7836113be565b156106c657600854845261066b565b6106cf836113e1565b845261070f565b6106e08383611345565b156106ef576106ef6004611366565b6106f881611433565b845260408082015190850152606080820151908501525b50610a55915050565b600160095460ff16600481111561072b57fe5b14156107f05761073c83838361144a565b1561077c5761074b6000611366565b61075481611433565b8452630a0b2a8960e31b6020850152604080820151908501526060808201519085015261070f565b6107868383611345565b1561079f576107956002611366565b600854845261070f565b6107a8836113be565b156107b757600854845261070f565b6107c183836114a2565b156107d0576107956002611366565b6107d9836113e1565b84525050634c494e4b60e01b602083015250610a55565b600260095460ff16600481111561080357fe5b14156108615761081483838361144a565b15610854576108236000611366565b630a0b2a8960e31b602085015261083981611433565b8452604080820151908501526060808201519085015261070f565b5050600854825250610a55565b600360095460ff16600481111561087457fe5b14156109e557610883816112b9565b156108e9576108928383611345565b156108a15761060f6002611366565b6108ab6001611366565b634c494e4b60e01b60208501526108c1836113be565b156108d057600854845261066b565b6108da83836114a2565b156106c65761060f6002611366565b6108f281611404565b15610958576109018383611345565b15610927576109106004611366565b630a0b2a8960e31b6020850152600854845261066b565b610930836113be565b1561093f57600854845261066b565b61094983836114a2565b156106525761060f6002611366565b6109628383611345565b15610971576108236004611366565b61097a836113be565b1561098957600854845261070f565b6109938382611535565b156109a2576108236000611366565b6109ac83836114a2565b156109bb576107956002611366565b6109c4836113e1565b84526109d06001611366565b5050634c494e4b60e01b602083015250610a55565b600460095460ff1660048111156109f857fe5b1415610a5157610a07816112b9565b15610a16576107956002611366565b610a1f81611404565b15610a2e57600854845261070f565b610a3983838361144a565b156106ef57610a486000611366565b61083981611433565b5050505b92915050565b6706f05b59d3b2000081565b610a6f610b33565b610a945760405162461bcd60e51b8152600401610a8b90611f12565b60405180910390fd5b600480546001600160a01b03199081166001600160a01b0387811691909117909255600380548216868416179055600580548216858416179055600180548216898416179055600280549091169187169190911790556009805460ff19169055610afd816115a9565b610b08600a546115ae565b610b106115e3565b505050505050565b6608e1bc9bf0400081565b6000546001600160a01b03165b90565b6000546001600160a01b0316331490565b600855565b610b51610b33565b610b6d5760405162461bcd60e51b8152600401610a8b90611f12565b610b768861162d565b610b7f8761162d565b610b888661162d565b610b918561162d565b610b9a8461162d565b600480546001600160a01b03199081166001600160a01b03898116919091179092556003805482168884161790556005805482168784161790556001805482168b8416179055600280549091169189169190911790556009805460ff19169055610c03836115a9565b610c0b61196c565b610c158383611095565b9050610c2081611676565b158015610c335750610c3181611404565b155b610c4f5760405162461bcd60e51b8152600401610a8b90611ec7565b610c5881611433565b507fdb1a32d3af6c09c0dc928386f3a979ebef1c0c514be0d3379a34e8beac47ac4c89604051610c889190611cfc565b60405180910390a17fa5b9d42b6449a4cbc3936ec94cbed2dbb80d283190074ae10b68b7956a06372688604051610cbf9190611cfc565b60405180910390a17f143219c9e69b09e07e095fcc889b43d8f46ca892bba65f08dc3a0050869a567887604051610cf69190611cfc565b60405180910390a17f57b6fedb5334102e897c98740e61298b40e4f2eadf19f7f18ced35bdd210fb9286604051610d2d9190611cfc565b60405180910390a17f82966d27eea39b038ee0fa30cd16532bb24f6e65d31cb58fb227aa5766cdcc7f85604051610d649190611cfc565b60405180910390a17f5f5ee1f0da4fff3282fbadb43af373221e09c79af1ffbd69f8d33b0d65a7593e84604051610d9b9190611db1565b60405180910390a1610dab6115e3565b505050505050505050565b670de0b6b3a764000081565b60405180604001604052806009815260200168141c9a58d95199595960ba1b81525081565b60065481565b610df5611913565b5060408051608081018252600b548152600c546020820152600d5491810191909152600e54606082015290565b61384081565b6002546001600160a01b031681565b33301480610e4f57506004546001600160a01b031633145b80610e6457506003546001600160a01b031633145b80610e7957506005546001600160a01b031633145b610e955760405162461bcd60e51b8152600401610a8b90611e2f565b565b610e9f61193e565b600160009054906101000a90046001600160a01b03166001600160a01b031663313ce5676040518163ffffffff1660e01b815260040160206040518083038186803b158015610eed57600080fd5b505afa925050508015610f1d575060408051601f3d908101601f19168201909252610f1a91810190611cb1565b60015b610f2657610b30565b60ff166080820152600160009054906101000a90046001600160a01b03166001600160a01b031663feaf968c6040518163ffffffff1660e01b815260040160a06040518083038186803b158015610f7c57600080fd5b505afa925050508015610fac575060408051601f3d908101601f19168201909252610fa991810190611c60565b60015b610fb557610b30565b506001600160501b039093168452506020830152604082015260016060820152610b30565b610fe261193e565b600154604051639a6fc8f560e01b81526001600160a01b0390911690639a6fc8f59061101690600019870190600401611fb0565b60a06040518083038186803b15801561102e57600080fd5b505afa92505050801561105e575060408051601f3d908101601f1916820190925261105b91810190611c60565b60015b61106757610a55565b506001600160501b039093168452506020830152604082015260ff8216608082015260016060820152610a55565b61109d61196c565b60025460405163d47eed4560e01b81526000916001600160a01b03169063d47eed45906110d09087908790600401611d10565b60206040518083038186803b1580156110e857600080fd5b505afa1580156110fc573d6000803e3d6000fd5b505050506040513d601f19601f820116820180604052508101906111209190611c48565b600254604051631df3cbc560e31b81529192506001600160a01b03169063ef9e5e289083906111559088908890600401611d10565b6000604051808303818588803b15801561116e57600080fd5b505af1158015611182573d6000803e3d6000fd5b505060025460065460075460405163052571af60e51b81526001600160a01b03909316955063a4ae35e094506111bd93509091600401611dba565b60806040518083038186803b1580156111d557600080fd5b505afa925050508015611205575060408051601f3d908101601f1916820190925261120291810190611bb9565b60015b61120f5750610a55565b61121a8160126116ac565b60208085019190915281015160009061124a906001600160401b0316670de0b6b3a764000063ffffffff61172716565b905083602001516000146112875781516112819060649061127590849060070b63ffffffff61176116565b9063ffffffff61176116565b60408501525b606080830151908501526020840151158015906112a75750606084015115155b15610a51576001845250505092915050565b80516000906112ca57506001611340565b60608201516112db57506001611340565b428260600151111561130d5760608201516005906112ff904263ffffffff6117a016565b111561130d57506001611340565b600082602001511161132157506001611340565b60408201516608e1bc9bf04000101561133c57506001611340565b5060005b919050565b6000611350836117e2565b8061135f575061135f826117e2565b9392505050565b6009805482919060ff1916600183600481111561137f57fe5b02179055507f5c57579a8214fe4f710c1c56fa829f045b9fa6d225a744225a30c32188064d4e816040516113b39190611dc8565b60405180910390a150565b60006138406113da8360400151426117a090919063ffffffff16565b1192915050565b6000806113f98360200151846080015160ff16611841565b9050610a55816115ae565b6000816060015142111561133c57601e61142b8360600151426117a090919063ffffffff16565b119050611340565b600061144282602001516115ae565b506020015190565b6000611455826112b9565b80611464575061146482611404565b8061147457506114748484611345565b806114835750611483846113be565b156114905750600061135f565b61149a8483611535565b949350505050565b6000806114ba8460200151856080015160ff16611841565b905060006114d38460200151856080015160ff16611841565b905060006114e1838361188a565b905060006114ef84846118a0565b9050600061151f82611275670de0b6b3a7640000611513838863ffffffff6117a016565b9063ffffffff61172716565b6706f05b59d3b200001098975050505050505050565b60008061154d8460200151856080015160ff16611841565b60208401519091506000611561828461188a565b9050600061156f83856118a0565b9050600061159383611275670de0b6b3a7640000611513868463ffffffff6117a016565b66b1a2bc2ec50000101598975050505050505050565b600655565b60088190556040517f4d29de21de555af78a62fc82dd4bc05e9ae5b0660a37f04729527e0f22780cd3906113b3908390611db1565b600080546040516001600160a01b03909116907f8be0079c531659141344cd1fd0a4f28419497f9722a3daafe3b4186f6b6457e0908390a3600080546001600160a01b0319169055565b6001600160a01b0381166116535760405162461bcd60e51b8152600401610a8b90611f47565b803b806116725760405162461bcd60e51b8152600401610a8b90611f66565b5050565b805160009061168757506001611340565b606082015161169857506001611340565b600082602001511161133c57506001611340565b600080836000015160070b12806116ca57506000836040015160030b135b806116dd575060fe19836040015160030b125b156116ea57506000610a55565b604083015160000361171f61170b60ff85811690841663ffffffff6117a016565b855160070b90600a0a63ffffffff61172716565b915050610a55565b60008261173657506000610a55565b8282028284828161174357fe5b041461135f5760405162461bcd60e51b8152600401610a8b90611e86565b600061135f83836040518060400160405280601a815260200179536166654d6174683a206469766973696f6e206279207a65726f60301b8152506118b0565b600061135f83836040518060400160405280601e81526020017f536166654d6174683a207375627472616374696f6e206f766572666c6f7700008152506118e7565b600081606001516117f557506001611340565b81516001600160501b031661180c57506001611340565b604082015115806118205750428260400151115b1561182d57506001611340565b600082602001511361133c57506001611340565b6000806012831061186a57611863846011198501600a0a63ffffffff61176116565b905061135f565b601283101561135f5761149a846012859003600a0a63ffffffff61172716565b6000818310611899578161135f565b5090919050565b600081831015611899578161135f565b600081836118d15760405162461bcd60e51b8152600401610a8b9190611ddc565b5060008385816118dd57fe5b0495945050505050565b6000818484111561190b5760405162461bcd60e51b8152600401610a8b9190611ddc565b505050900390565b6040518060800160405280600081526020016000801916815260200160008152602001600081525090565b6040805160a08101825260008082526020820181905291810182905260608101829052608081019190915290565b60405180608001604052806000151581526020016000815260200160008152602001600081525090565b60008083601f8401126119a7578182fd5b5081356001600160401b038111156119bd578182fd5b60208301915083602080830285010111156119d757600080fd5b9250929050565b80516001600160501b0381168114610a5557600080fd5b60008060008060008060c08789031215611a0d578182fd5b8635611a1881611fea565b95506020870135611a2881611fea565b94506040870135611a3881611fea565b93506060870135611a4881611fea565b92506080870135611a5881611fea565b8092505060a087013590509295509295509295565b60008060008060008060008060e0898b031215611a88578182fd5b8835611a9381611fea565b97506020890135611aa381611fea565b96506040890135611ab381611fea565b95506060890135611ac381611fea565b94506080890135611ad381611fea565b935060a0890135925060c08901356001600160401b03811115611af4578283fd5b611b008b828c01611996565b999c989b5096995094979396929594505050565b60008060208385031215611b26578182fd5b82356001600160401b03811115611b3b578283fd5b611b4785828601611996565b90969095509350505050565b600060208284031215611b64578081fd5b81356005811061135f578182fd5b600060808284031215611b83578081fd5b611b8d6080611fc4565b825181526020830151602082015260408301516040820152606083015160608201528091505092915050565b600060808284031215611bca578081fd5b611bd46080611fc4565b82518060070b8114611be4578283fd5b815260208301516001600160401b0381168114611bff578283fd5b60208201526040830151600381900b8114611c18578283fd5b60408201526060928301519281019290925250919050565b600060208284031215611c41578081fd5b5035919050565b600060208284031215611c59578081fd5b5051919050565b600080600080600060a08688031215611c77578283fd5b611c8187876119de565b9450602086015193506040860151925060608601519150611ca587608088016119de565b90509295509295909350565b600060208284031215611cc2578081fd5b815160ff8116811461135f578182fd5b60008284528282602086013780602084860101526020601f19601f85011685010190509392505050565b6001600160a01b0391909116815260200190565b602080825281810183905260009060408482028401810190840186845b87811015611d9957868403603f190183528135368a9003601e19018112611d52578687fd5b89018035906001600160401b03821115611d6a578788fd5b8136038b1315611d78578788fd5b611d858683898401611cd2565b955050509184019190840190600101611d2d565b5091979650505050505050565b901515815260200190565b90815260200190565b918252602082015260400190565b6020810160058310611dd657fe5b91905290565b6000602080835283518082850152825b81811015611e0857858101830151858201604001528201611dec565b81811115611e195783604083870101525b50601f01601f1916929092016040019392505050565b60208082526037908201527f5072696365466565643a204f6e6c79207265737472696374656420636f6e74726040820152766163742063616e2063616c6c206665746368507269636560481b606082015260800190565b60208082526021908201527f536166654d6174683a206d756c7469706c69636174696f6e206f766572666c6f6040820152607760f81b606082015260800190565b6020808252602b908201527f5072696365466565643a2050797468206d75737420626520776f726b696e672060408201526a185b990818dd5c9c995b9d60aa1b606082015260800190565b6020808252818101527f4f776e61626c653a2063616c6c6572206973206e6f7420746865206f776e6572604082015260600190565b6020808252600590820152641830b2323960d91b604082015260600190565b60208082526005908201526430636f646560d81b604082015260600190565b8151815260208083015190820152604080830151908201526060918201519181019190915260800190565b6001600160501b0391909116815260200190565b6040518181016001600160401b0381118282101715611fe257600080fd5b604052919050565b6001600160a01b0381168114611fff57600080fd5b5056fea164736f6c634300060b000a","linkReferences":{}},"methodIdentifiers":{"BNBFeed()":"c2da4299","DECIMAL_PRECISION()":"a20baee6","MAX_PRICE_DEVIATION_FROM_PREVIOUS_ROUND()":"58a6aa88","MAX_PRICE_DIFFERENCE_BETWEEN_ORACLES()":"45079cb4","MAX_SCALED_DEVIATION_PYTH()":"77c3357c","NAME()":"a3f4df7e","PYTH_DIGITS()":"2caa8f11","TARGET_DIGITS()":"1be5c92f","TIMEOUT()":"f56f48f2","age()":"262a9dff","fetchPrice(bytes[])":"4e15f2a5","getInternalFetchPriceResult()":"d68ee556","isOwner()":"8f32d59b","lastGoodPrice()":"0490be83","logPythFetchPriceResult(bytes[])":"42866e67","owner()":"8da5cb5b","priceAggregator()":"3078fff5","pyth()":"f98d06f0","setAddresses(address,address,address,address,address,bytes32,bytes[])":"9cb8c4f3","setAddressesTestnet(address,address,address,address,address,bytes32)":"5f62d791","setLastGoodPrice(uint256)":"c521b3f5","setPrice(uint256)":"91b7f5ed","setStatus(uint8)":"2e49d78b","status()":"200d2ed2"},"id":90}