{"abi":[{"type":"function","name":"BETA","inputs":[],"outputs":[{"name":"","type":"uint256","internalType":"uint256"}],"stateMutability":"view"},{"type":"function","name":"BOOTSTRAP_PERIOD","inputs":[],"outputs":[{"name":"","type":"uint256","internalType":"uint256"}],"stateMutability":"view"},{"type":"function","name":"DECIMAL_PRECISION","inputs":[],"outputs":[{"name":"","type":"uint256","internalType":"uint256"}],"stateMutability":"view"},{"type":"function","name":"L_BNB","inputs":[],"outputs":[{"name":"","type":"uint256","internalType":"uint256"}],"stateMutability":"view"},{"type":"function","name":"L_USDSDebt","inputs":[],"outputs":[{"name":"","type":"uint256","internalType":"uint256"}],"stateMutability":"view"},{"type":"function","name":"MAX_BORROWING_FEE","inputs":[],"outputs":[{"name":"","type":"uint256","internalType":"uint256"}],"stateMutability":"view"},{"type":"function","name":"MINUTE_DECAY_FACTOR","inputs":[],"outputs":[{"name":"","type":"uint256","internalType":"uint256"}],"stateMutability":"view"},{"type":"function","name":"PERCENT_DIVISOR","inputs":[],"outputs":[{"name":"","type":"uint256","internalType":"uint256"}],"stateMutability":"view"},{"type":"function","name":"SECONDS_IN_ONE_MINUTE","inputs":[],"outputs":[{"name":"","type":"uint256","internalType":"uint256"}],"stateMutability":"view"},{"type":"function","name":"TroveOwners","inputs":[{"name":"","type":"uint256","internalType":"uint256"}],"outputs":[{"name":"","type":"address","internalType":"address"}],"stateMutability":"view"},{"type":"function","name":"Troves","inputs":[{"name":"","type":"address","internalType":"address"}],"outputs":[{"name":"debt","type":"uint256","internalType":"uint256"},{"name":"coll","type":"uint256","internalType":"uint256"},{"name":"stake","type":"uint256","internalType":"uint256"},{"name":"status","type":"uint8","internalType":"enum ITroveManager.Status"},{"name":"arrayIndex","type":"uint128","internalType":"uint128"}],"stateMutability":"view"},{"type":"function","name":"_100pct","inputs":[],"outputs":[{"name":"","type":"uint256","internalType":"uint256"}],"stateMutability":"view"},{"type":"function","name":"activePool","inputs":[],"outputs":[{"name":"","type":"address","internalType":"contract IActivePool"}],"stateMutability":"view"},{"type":"function","name":"addTroveOwnerToArray","inputs":[{"name":"_borrower","type":"address","internalType":"address"}],"outputs":[{"name":"index","type":"uint256","internalType":"uint256"}],"stateMutability":"nonpayable"},{"type":"function","name":"applyPendingRewards","inputs":[{"name":"_borrower","type":"address","internalType":"address"}],"outputs":[],"stateMutability":"nonpayable"},{"type":"function","name":"baseRate","inputs":[],"outputs":[{"name":"","type":"uint256","internalType":"uint256"}],"stateMutability":"view"},{"type":"function","name":"batchLiquidateTroves","inputs":[{"name":"_troveArray","type":"address[]","internalType":"address[]"},{"name":"priceFeedUpdateData","type":"bytes[]","internalType":"bytes[]"}],"outputs":[],"stateMutability":"nonpayable"},{"type":"function","name":"borrowerOperationsAddress","inputs":[],"outputs":[{"name":"","type":"address","internalType":"address"}],"stateMutability":"view"},{"type":"function","name":"callGetRedemptionFee","inputs":[{"name":"_BNBDrawn","type":"uint256","internalType":"uint256"},{"name":"_oracleRate","type":"uint256","internalType":"uint256"}],"outputs":[{"name":"","type":"uint256","internalType":"uint256"}],"stateMutability":"view"},{"type":"function","name":"callInternalRemoveTroveOwner","inputs":[{"name":"_troveOwner","type":"address","internalType":"address"}],"outputs":[],"stateMutability":"nonpayable"},{"type":"function","name":"checkRecoveryMode","inputs":[{"name":"_price","type":"uint256","internalType":"uint256"}],"outputs":[{"name":"","type":"bool","internalType":"bool"}],"stateMutability":"view"},{"type":"function","name":"closeTrove","inputs":[{"name":"_borrower","type":"address","internalType":"address"}],"outputs":[],"stateMutability":"nonpayable"},{"type":"function","name":"computeICR","inputs":[{"name":"_coll","type":"uint256","internalType":"uint256"},{"name":"_debt","type":"uint256","internalType":"uint256"},{"name":"_price","type":"uint256","internalType":"uint256"}],"outputs":[{"name":"","type":"uint256","internalType":"uint256"}],"stateMutability":"pure"},{"type":"function","name":"decayBaseRateFromBorrowing","inputs":[],"outputs":[],"stateMutability":"nonpayable"},{"type":"function","name":"decreaseTroveColl","inputs":[{"name":"_borrower","type":"address","internalType":"address"},{"name":"_collDecrease","type":"uint256","internalType":"uint256"}],"outputs":[{"name":"","type":"uint256","internalType":"uint256"}],"stateMutability":"nonpayable"},{"type":"function","name":"decreaseTroveDebt","inputs":[{"name":"_borrower","type":"address","internalType":"address"},{"name":"_debtDecrease","type":"uint256","internalType":"uint256"}],"outputs":[{"name":"","type":"uint256","internalType":"uint256"}],"stateMutability":"nonpayable"},{"type":"function","name":"defaultPool","inputs":[],"outputs":[{"name":"","type":"address","internalType":"contract IDefaultPool"}],"stateMutability":"view"},{"type":"function","name":"getActualDebtFromComposite","inputs":[{"name":"_debtVal","type":"uint256","internalType":"uint256"}],"outputs":[{"name":"","type":"uint256","internalType":"uint256"}],"stateMutability":"view"},{"type":"function","name":"getBorrowingFee","inputs":[{"name":"_USDSDebt","type":"uint256","internalType":"uint256"},{"name":"_oracleRate","type":"uint256","internalType":"uint256"}],"outputs":[{"name":"","type":"uint256","internalType":"uint256"}],"stateMutability":"view"},{"type":"function","name":"getBorrowingFeeWithDecay","inputs":[{"name":"_USDSDebt","type":"uint256","internalType":"uint256"},{"name":"_oracleRate","type":"uint256","internalType":"uint256"}],"outputs":[{"name":"","type":"uint256","internalType":"uint256"}],"stateMutability":"view"},{"type":"function","name":"getBorrowingRate","inputs":[{"name":"_oracleRate","type":"uint256","internalType":"uint256"}],"outputs":[{"name":"","type":"uint256","internalType":"uint256"}],"stateMutability":"view"},{"type":"function","name":"getBorrowingRateWithDecay","inputs":[{"name":"_oracleRate","type":"uint256","internalType":"uint256"}],"outputs":[{"name":"","type":"uint256","internalType":"uint256"}],"stateMutability":"view"},{"type":"function","name":"getCollGasCompensation","inputs":[{"name":"_coll","type":"uint256","internalType":"uint256"}],"outputs":[{"name":"","type":"uint256","internalType":"uint256"}],"stateMutability":"pure"},{"type":"function","name":"getCompositeDebt","inputs":[{"name":"_debt","type":"uint256","internalType":"uint256"}],"outputs":[{"name":"","type":"uint256","internalType":"uint256"}],"stateMutability":"view"},{"type":"function","name":"getCurrentICR","inputs":[{"name":"_borrower","type":"address","internalType":"address"},{"name":"_price","type":"uint256","internalType":"uint256"}],"outputs":[{"name":"","type":"uint256","internalType":"uint256"}],"stateMutability":"view"},{"type":"function","name":"getEntireDebtAndColl","inputs":[{"name":"_borrower","type":"address","internalType":"address"}],"outputs":[{"name":"debt","type":"uint256","internalType":"uint256"},{"name":"coll","type":"uint256","internalType":"uint256"},{"name":"pendingUSDSDebtReward","type":"uint256","internalType":"uint256"},{"name":"pendingBNBReward","type":"uint256","internalType":"uint256"}],"stateMutability":"view"},{"type":"function","name":"getEntireSystemColl","inputs":[],"outputs":[{"name":"entireSystemColl","type":"uint256","internalType":"uint256"}],"stateMutability":"view"},{"type":"function","name":"getEntireSystemDebt","inputs":[],"outputs":[{"name":"entireSystemDebt","type":"uint256","internalType":"uint256"}],"stateMutability":"view"},{"type":"function","name":"getNominalICR","inputs":[{"name":"_borrower","type":"address","internalType":"address"}],"outputs":[{"name":"","type":"uint256","internalType":"uint256"}],"stateMutability":"view"},{"type":"function","name":"getPendingBNBReward","inputs":[{"name":"_borrower","type":"address","internalType":"address"}],"outputs":[{"name":"","type":"uint256","internalType":"uint256"}],"stateMutability":"view"},{"type":"function","name":"getPendingUSDSDebtReward","inputs":[{"name":"_borrower","type":"address","internalType":"address"}],"outputs":[{"name":"","type":"uint256","internalType":"uint256"}],"stateMutability":"view"},{"type":"function","name":"getRedemptionFeeWithDecay","inputs":[{"name":"_BNBDrawn","type":"uint256","internalType":"uint256"},{"name":"_oracleRate","type":"uint256","internalType":"uint256"}],"outputs":[{"name":"","type":"uint256","internalType":"uint256"}],"stateMutability":"view"},{"type":"function","name":"getRedemptionRate","inputs":[{"name":"_oracleRate","type":"uint256","internalType":"uint256"}],"outputs":[{"name":"","type":"uint256","internalType":"uint256"}],"stateMutability":"view"},{"type":"function","name":"getRedemptionRateWithDecay","inputs":[{"name":"_oracleRate","type":"uint256","internalType":"uint256"}],"outputs":[{"name":"","type":"uint256","internalType":"uint256"}],"stateMutability":"view"},{"type":"function","name":"getTCR","inputs":[{"name":"_price","type":"uint256","internalType":"uint256"}],"outputs":[{"name":"","type":"uint256","internalType":"uint256"}],"stateMutability":"view"},{"type":"function","name":"getTroveColl","inputs":[{"name":"_borrower","type":"address","internalType":"address"}],"outputs":[{"name":"","type":"uint256","internalType":"uint256"}],"stateMutability":"view"},{"type":"function","name":"getTroveDebt","inputs":[{"name":"_borrower","type":"address","internalType":"address"}],"outputs":[{"name":"","type":"uint256","internalType":"uint256"}],"stateMutability":"view"},{"type":"function","name":"getTroveFromTroveOwnersArray","inputs":[{"name":"_index","type":"uint256","internalType":"uint256"}],"outputs":[{"name":"","type":"address","internalType":"address"}],"stateMutability":"view"},{"type":"function","name":"getTroveOwnersCount","inputs":[],"outputs":[{"name":"","type":"uint256","internalType":"uint256"}],"stateMutability":"view"},{"type":"function","name":"getTroveStake","inputs":[{"name":"_borrower","type":"address","internalType":"address"}],"outputs":[{"name":"","type":"uint256","internalType":"uint256"}],"stateMutability":"view"},{"type":"function","name":"getTroveStatus","inputs":[{"name":"_borrower","type":"address","internalType":"address"}],"outputs":[{"name":"","type":"uint256","internalType":"uint256"}],"stateMutability":"view"},{"type":"function","name":"getUSDSGasCompensation","inputs":[],"outputs":[{"name":"","type":"uint256","internalType":"uint256"}],"stateMutability":"view"},{"type":"function","name":"hasPendingRewards","inputs":[{"name":"_borrower","type":"address","internalType":"address"}],"outputs":[{"name":"","type":"bool","internalType":"bool"}],"stateMutability":"view"},{"type":"function","name":"increaseTroveColl","inputs":[{"name":"_borrower","type":"address","internalType":"address"},{"name":"_collIncrease","type":"uint256","internalType":"uint256"}],"outputs":[{"name":"","type":"uint256","internalType":"uint256"}],"stateMutability":"nonpayable"},{"type":"function","name":"increaseTroveDebt","inputs":[{"name":"_borrower","type":"address","internalType":"address"},{"name":"_debtIncrease","type":"uint256","internalType":"uint256"}],"outputs":[{"name":"","type":"uint256","internalType":"uint256"}],"stateMutability":"nonpayable"},{"type":"function","name":"isOwner","inputs":[],"outputs":[{"name":"","type":"bool","internalType":"bool"}],"stateMutability":"view"},{"type":"function","name":"lastBNBError_Redistribution","inputs":[],"outputs":[{"name":"","type":"uint256","internalType":"uint256"}],"stateMutability":"view"},{"type":"function","name":"lastFeeOperationTime","inputs":[],"outputs":[{"name":"","type":"uint256","internalType":"uint256"}],"stateMutability":"view"},{"type":"function","name":"lastUSDSDebtError_Redistribution","inputs":[],"outputs":[{"name":"","type":"uint256","internalType":"uint256"}],"stateMutability":"view"},{"type":"function","name":"liquidate","inputs":[{"name":"_borrower","type":"address","internalType":"address"},{"name":"priceFeedUpdateData","type":"bytes[]","internalType":"bytes[]"}],"outputs":[],"stateMutability":"nonpayable"},{"type":"function","name":"liquidateTroves","inputs":[{"name":"_n","type":"uint256","internalType":"uint256"},{"name":"priceFeedUpdateData","type":"bytes[]","internalType":"bytes[]"}],"outputs":[],"stateMutability":"nonpayable"},{"type":"function","name":"minutesPassedSinceLastFeeOp","inputs":[],"outputs":[{"name":"","type":"uint256","internalType":"uint256"}],"stateMutability":"view"},{"type":"function","name":"oracleRateCalc","inputs":[],"outputs":[{"name":"","type":"address","internalType":"contract IOracleRateCalculation"}],"stateMutability":"view"},{"type":"function","name":"owner","inputs":[],"outputs":[{"name":"","type":"address","internalType":"address"}],"stateMutability":"view"},{"type":"function","name":"priceFeed","inputs":[],"outputs":[{"name":"","type":"address","internalType":"contract IPriceFeed"}],"stateMutability":"view"},{"type":"function","name":"redeemCollateral","inputs":[{"name":"_USDSamount","type":"uint256","internalType":"uint256"},{"name":"_firstRedemptionHint","type":"address","internalType":"address"},{"name":"_upperPartialRedemptionHint","type":"address","internalType":"address"},{"name":"_lowerPartialRedemptionHint","type":"address","internalType":"address"},{"name":"_partialRedemptionHintNICR","type":"uint256","internalType":"uint256"},{"name":"_maxIterations","type":"uint256","internalType":"uint256"},{"name":"_maxFeePercentage","type":"uint256","internalType":"uint256"},{"name":"priceFeedUpdateData","type":"bytes[]","internalType":"bytes[]"}],"outputs":[],"stateMutability":"nonpayable"},{"type":"function","name":"removeStake","inputs":[{"name":"_borrower","type":"address","internalType":"address"}],"outputs":[],"stateMutability":"nonpayable"},{"type":"function","name":"rewardSnapshots","inputs":[{"name":"","type":"address","internalType":"address"}],"outputs":[{"name":"BNB","type":"uint256","internalType":"uint256"},{"name":"USDSDebt","type":"uint256","internalType":"uint256"}],"stateMutability":"view"},{"type":"function","name":"sableStaking","inputs":[],"outputs":[{"name":"","type":"address","internalType":"contract ISableStakingV2"}],"stateMutability":"view"},{"type":"function","name":"sableToken","inputs":[],"outputs":[{"name":"","type":"address","internalType":"contract ISABLEToken"}],"stateMutability":"view"},{"type":"function","name":"setAddresses","inputs":[{"name":"param","type":"tuple","internalType":"struct ITroveManager.DependencyAddressParam","components":[{"name":"borrowerOperationsAddress","type":"address","internalType":"address"},{"name":"activePoolAddress","type":"address","internalType":"address"},{"name":"defaultPoolAddress","type":"address","internalType":"address"},{"name":"stabilityPoolAddress","type":"address","internalType":"address"},{"name":"gasPoolAddress","type":"address","internalType":"address"},{"name":"collSurplusPoolAddress","type":"address","internalType":"address"},{"name":"priceFeedAddress","type":"address","internalType":"address"},{"name":"usdsTokenAddress","type":"address","internalType":"address"},{"name":"sortedTrovesAddress","type":"address","internalType":"address"},{"name":"sableTokenAddress","type":"address","internalType":"address"},{"name":"sableStakingAddress","type":"address","internalType":"address"},{"name":"systemStateAddress","type":"address","internalType":"address"},{"name":"oracleRateCalcAddress","type":"address","internalType":"address"},{"name":"troveHelperAddress","type":"address","internalType":"address"}]}],"outputs":[],"stateMutability":"nonpayable"},{"type":"function","name":"setBaseRate","inputs":[{"name":"_baseRate","type":"uint256","internalType":"uint256"}],"outputs":[],"stateMutability":"nonpayable"},{"type":"function","name":"setLastFeeOpTimeToNow","inputs":[],"outputs":[],"stateMutability":"nonpayable"},{"type":"function","name":"setSystemState","inputs":[{"name":"_systemStateAddress","type":"address","internalType":"address"}],"outputs":[],"stateMutability":"nonpayable"},{"type":"function","name":"setTroveStatus","inputs":[{"name":"_borrower","type":"address","internalType":"address"},{"name":"_num","type":"uint256","internalType":"uint256"}],"outputs":[],"stateMutability":"nonpayable"},{"type":"function","name":"sortedTroves","inputs":[],"outputs":[{"name":"","type":"address","internalType":"contract ISortedTroves"}],"stateMutability":"view"},{"type":"function","name":"stabilityPool","inputs":[],"outputs":[{"name":"","type":"address","internalType":"contract IStabilityPool"}],"stateMutability":"view"},{"type":"function","name":"systemState","inputs":[],"outputs":[{"name":"","type":"address","internalType":"contract ISystemState"}],"stateMutability":"view"},{"type":"function","name":"timeLock","inputs":[],"outputs":[{"name":"","type":"address","internalType":"address"}],"stateMutability":"view"},{"type":"function","name":"totalCollateralSnapshot","inputs":[],"outputs":[{"name":"","type":"uint256","internalType":"uint256"}],"stateMutability":"view"},{"type":"function","name":"totalStakes","inputs":[],"outputs":[{"name":"","type":"uint256","internalType":"uint256"}],"stateMutability":"view"},{"type":"function","name":"totalStakesSnapshot","inputs":[],"outputs":[{"name":"","type":"uint256","internalType":"uint256"}],"stateMutability":"view"},{"type":"function","name":"troveHelper","inputs":[],"outputs":[{"name":"","type":"address","internalType":"contract ITroveHelper"}],"stateMutability":"view"},{"type":"function","name":"unprotectedDecayBaseRateFromBorrowing","inputs":[],"outputs":[{"name":"","type":"uint256","internalType":"uint256"}],"stateMutability":"nonpayable"},{"type":"function","name":"updateStakeAndTotalStakes","inputs":[{"name":"_borrower","type":"address","internalType":"address"}],"outputs":[{"name":"","type":"uint256","internalType":"uint256"}],"stateMutability":"nonpayable"},{"type":"function","name":"updateTroveRewardSnapshots","inputs":[{"name":"_borrower","type":"address","internalType":"address"}],"outputs":[],"stateMutability":"nonpayable"},{"type":"function","name":"usdsToken","inputs":[],"outputs":[{"name":"","type":"address","internalType":"contract IUSDSToken"}],"stateMutability":"view"},{"type":"event","name":"AddressesChanged","inputs":[{"name":"param","type":"tuple","indexed":false,"internalType":"struct ITroveManager.DependencyAddressParam","components":[{"name":"borrowerOperationsAddress","type":"address","internalType":"address"},{"name":"activePoolAddress","type":"address","internalType":"address"},{"name":"defaultPoolAddress","type":"address","internalType":"address"},{"name":"stabilityPoolAddress","type":"address","internalType":"address"},{"name":"gasPoolAddress","type":"address","internalType":"address"},{"name":"collSurplusPoolAddress","type":"address","internalType":"address"},{"name":"priceFeedAddress","type":"address","internalType":"address"},{"name":"usdsTokenAddress","type":"address","internalType":"address"},{"name":"sortedTrovesAddress","type":"address","internalType":"address"},{"name":"sableTokenAddress","type":"address","internalType":"address"},{"name":"sableStakingAddress","type":"address","internalType":"address"},{"name":"systemStateAddress","type":"address","internalType":"address"},{"name":"oracleRateCalcAddress","type":"address","internalType":"address"},{"name":"troveHelperAddress","type":"address","internalType":"address"}]}],"anonymous":false},{"type":"event","name":"BaseRateUpdated","inputs":[{"name":"_baseRate","type":"uint256","indexed":false,"internalType":"uint256"}],"anonymous":false},{"type":"event","name":"LTermsUpdated","inputs":[{"name":"_L_BNB","type":"uint256","indexed":false,"internalType":"uint256"},{"name":"_L_USDSDebt","type":"uint256","indexed":false,"internalType":"uint256"}],"anonymous":false},{"type":"event","name":"LastFeeOpTimeUpdated","inputs":[{"name":"_lastFeeOpTime","type":"uint256","indexed":false,"internalType":"uint256"}],"anonymous":false},{"type":"event","name":"Liquidation","inputs":[{"name":"_liquidatedDebt","type":"uint256","indexed":false,"internalType":"uint256"},{"name":"_liquidatedColl","type":"uint256","indexed":false,"internalType":"uint256"},{"name":"_collGasCompensation","type":"uint256","indexed":false,"internalType":"uint256"},{"name":"_USDSGasCompensation","type":"uint256","indexed":false,"internalType":"uint256"}],"anonymous":false},{"type":"event","name":"OwnershipTransferred","inputs":[{"name":"previousOwner","type":"address","indexed":true,"internalType":"address"},{"name":"newOwner","type":"address","indexed":true,"internalType":"address"}],"anonymous":false},{"type":"event","name":"Redemption","inputs":[{"name":"_attemptedUSDSAmount","type":"uint256","indexed":false,"internalType":"uint256"},{"name":"_actualUSDSAmount","type":"uint256","indexed":false,"internalType":"uint256"},{"name":"_BNBSent","type":"uint256","indexed":false,"internalType":"uint256"},{"name":"_BNBFee","type":"uint256","indexed":false,"internalType":"uint256"}],"anonymous":false},{"type":"event","name":"SystemSnapshotsUpdated","inputs":[{"name":"_totalStakesSnapshot","type":"uint256","indexed":false,"internalType":"uint256"},{"name":"_totalCollateralSnapshot","type":"uint256","indexed":false,"internalType":"uint256"}],"anonymous":false},{"type":"event","name":"TotalStakesUpdated","inputs":[{"name":"_newTotalStakes","type":"uint256","indexed":false,"internalType":"uint256"}],"anonymous":false},{"type":"event","name":"TroveIndexUpdated","inputs":[{"name":"_borrower","type":"address","indexed":false,"internalType":"address"},{"name":"_newIndex","type":"uint256","indexed":false,"internalType":"uint256"}],"anonymous":false},{"type":"event","name":"TroveLiquidated","inputs":[{"name":"_borrower","type":"address","indexed":true,"internalType":"address"},{"name":"_debt","type":"uint256","indexed":false,"internalType":"uint256"},{"name":"_coll","type":"uint256","indexed":false,"internalType":"uint256"},{"name":"_operation","type":"uint8","indexed":false,"internalType":"enum ITroveManager.TroveManagerOperation"}],"anonymous":false},{"type":"event","name":"TroveSnapshotsUpdated","inputs":[{"name":"_L_BNB","type":"uint256","indexed":false,"internalType":"uint256"},{"name":"_L_USDSDebt","type":"uint256","indexed":false,"internalType":"uint256"}],"anonymous":false},{"type":"event","name":"TroveUpdated","inputs":[{"name":"_borrower","type":"address","indexed":true,"internalType":"address"},{"name":"_debt","type":"uint256","indexed":false,"internalType":"uint256"},{"name":"_coll","type":"uint256","indexed":false,"internalType":"uint256"},{"name":"_stake","type":"uint256","indexed":false,"internalType":"uint256"},{"name":"_operation","type":"uint8","indexed":false,"internalType":"enum ITroveManager.TroveManagerOperation"}],"anonymous":false}],"bytecode":{"object":"0x608060405234801561001057600080fd5b50600580546001600160a01b031916339081179091556040516000907f8be0079c531659141344cd1fd0a4f28419497f9722a3daafe3b4186f6b6457e0908290a361622480620000616000396000f3fe608060405234801561001057600080fd5b50600436106103dd5760003560e01c806301f16e18146103e2578063043782fb146103f7578063048c661d146103ff578063071a75411461041d5780630b07655714610432578063105bb15c1461044557806312610e921461044d5780631549b76d1461046057806315d549f1146104685780631673c79a1461047b57806318f2817a1461049c5780631d08837b146104af5780631f68f20a146104c257806321e37801146104ca57806323487d20146104dd57806324092669146104e55780633b2f0e4e146104ed5780633cbaec20146104f55780633cc74225146104fd578063472b286f14610505578063480cd578146105185780634870dd9a1461052b57806349eefeee146105335780634e443d9e1461053b5780634ff814431461055b57806354062a451461056e57806358b8a5d6146105815780635d6b480f146105945780635dba4c4a146105a75780635f94c327146105af57806360ac128f146105c257806361ec893d146105d557806364cee260146105dd5780636b0ff77c146105f05780636bf96eda146106035780636ef643381461061657806372423c171461063a57806372fe25aa1461064d578063741bef1a14610655578063756b253e1461065d578063795d26c3146106705780637f7dde4a14610678578063807d138d14610680578063814a0a451461068857806382fe3eb91461069b578063887105d3146106ae5780638da5cb5b146106b65780638f32d59b146106be57806391571384146106c6578063948ba6d2146106d957806395f122ce146106ec57806396d711ff146106ff578063991292e3146107075780639976cf451461070f5780639b6ff8d314610722578063a20baee61461064d578063a22b7d6814610735578063a537896f14610748578063ad1c3e621461075b578063ae9187541461076e578063b0d8e18114610776578063b36cd07f14610789578063b4b0954d1461079c578063b7f8cf9b146107a4578063b82f263d146107ac578063b91af97c146107bf578063bf9befb1146107e2578063c35bc550146107ea578063c7b55481146107f2578063c9fccede146107fa578063cbd138ae1461080d578063cd54a5e914610820578063d085835a14610828578063d293c71014610830578063d380a37c14610843578063d3d6f8431461084b578063d66a25531461085e578063d9a7244414610871578063da303f1414610884578063dc62a7021461088c578063ddc7aed41461089f578063e2ac77b0146108a7578063e5cedb57146108ba578063f09c5c8f146108c2578063f80911de146108d5578063f8f8d174146108dd578063fe2ba848146108e5575b600080fd5b6103f56103f0366004615882565b6108f8565b005b6103f5610b4c565b610407610b52565b6040516104149190615bf9565b60405180910390f35b610425610b61565b60405161041491906160bb565b6103f56104403660046156ea565b610b66565b610425610b8b565b61042561045b366004615774565b610bb8565b610425610c10565b6104256104763660046156ea565b610c9f565b61048e6104893660046156ea565b610d4a565b6040516104149291906160c4565b6104256104aa3660046156ea565b610d63565b6103f56104bd366004615a75565b610d76565b610425610d7b565b6104256104d83660046156ea565b610d81565b610407610dab565b610425610dba565b610407610dc5565b610425610dd4565b610407610dda565b6103f5610513366004615aa5565b610de9565b6104256105263660046156ea565b6118fc565b61042561191a565b61042561191f565b61054e610549366004615a75565b611925565b6040516104149190615d02565b610425610569366004615a75565b611930565b61042561057c366004615a75565b6119d2565b61042561058f366004615a75565b6119dd565b6103f56105a2366004615774565b6119eb565b6103f5611a37565b6104256105bd366004615b76565b611a90565b6103f56105d0366004615b46565b611aa4565b610425611e24565b6104256105eb3660046156ea565b611e29565b6104256105fe366004615b76565b611e47565b6103f561061136600461579f565b611e5a565b6106296106243660046156ea565b6121ab565b6040516104149594939291906160f7565b610425610648366004615774565b6121e5565b610425612242565b61040761224e565b61040761066b366004615a75565b61225d565b610425612284565b6104076123b0565b6104256123bf565b610425610696366004615b97565b6123c5565b6103f56106a93660046156ea565b6123da565b6104256123eb565b6104076124c6565b61054e6124d5565b6104256106d4366004615b76565b6124e6565b6104256106e7366004615a75565b6124f4565b6104256106fa3660046156ea565b612507565b6104256125c1565b6104076125c7565b61042561071d366004615774565b6125d6565b6103f56107303660046156ea565b612609565b610425610743366004615a75565b61262b565b610425610756366004615a75565b61263e565b6103f5610769366004615722565b612649565b6104076126b3565b6104256107843660046156ea565b6126c2565b610425610797366004615a75565b6126de565b6104256126ec565b6104076126f2565b6104256107ba366004615a75565b612701565b6107d26107cd3660046156ea565b61270c565b6040516104149493929190616137565b610425612770565b610425612776565b61042561277b565b610425610808366004615b76565b612787565b6103f561081b3660046156ea565b61279b565b6104256127ae565b6104076127b4565b61042561083e366004615774565b6127c3565b6104256127e2565b610425610859366004615774565b6127e8565b61042561086c3660046156ea565b61281e565b61040761087f366004615a75565b612839565b610425612863565b6103f561089a3660046156ea565b612893565b6104076128a4565b61054e6108b53660046156ea565b6128b3565b610425612911565b6104256108d03660046156ea565b612917565b610407612948565b610407612957565b6103f56108f33660046156ea565b612966565b6109006124d5565b6109255760405162461bcd60e51b815260040161091c90615e6a565b60405180910390fd5b805161093090612977565b61093d8160200151612977565b61094a8160400151612977565b6109578160600151612977565b6109648160800151612977565b6109718160a00151612977565b61097e8160c00151612977565b61098b8160e00151612977565b610999816101000151612977565b6109a7816101200151612977565b6109b5816101400151612977565b6109c3816101600151612977565b6109d1816101800151612977565b6109df816101a00151612977565b8051600680546001600160a01b03199081166001600160a01b039384161790915560208301516001805483169184169190911790556040808401516002805484169185169190911790556060840151600780548416918516919091179055608084015160088054841691851691909117905560a084015160098054841691851691909117905560c084015160038054841691851691909117905560e0840151600a80548416918516919091179055610100840151600d80548416918516919091179055610120840151600b80548416918516919091179055610140840151600c80548416918516919091179055610160840151600480548416918516919091179055610180840151600e805484169185169190911790556101a0840151600f80549093169316929092179055517f9ba6e846e6c99c2990e180615ff084cd7dc0b8478058e7d26faf69f9f21891ca90610b39908390615f65565b60405180910390a1610b496129bc565b50565b42601155565b6007546001600160a01b031681565b600281565b610b6e612a06565b600154600254610b49916001600160a01b03908116911683612a32565b6000610bb3603c610ba760115442612b4490919063ffffffff16565b9063ffffffff612b8616565b905090565b6000610bc2612a06565b6001600160a01b038316600090815260126020526040812054610beb908463ffffffff612b4416565b6001600160a01b03851660009081526012602052604090208190559150505b92915050565b600080601c60009054906101000a90046001600160a01b03166001600160a01b0316631549b76d6040518163ffffffff1660e01b815260040160206040518083038186803b158015610c6157600080fd5b505afa158015610c75573d6000803e3d6000fd5b505050506040513d601f19601f82011682018060405250810190610c999190615a8d565b91505090565b6000610ca9612a06565b601980546001808201835560008381527f944998273e477b495144fb8794c914197f3ccb46be2900f4698fd0ef743c969590920180546001600160a01b0319166001600160a01b03871617905591549091610d049190612b44565b6001600160a01b03841660009081526012602052604090206003018054610100600160881b0319166101006001600160801b03939093169283021790559150505b919050565b6018602052600090815260409020805460019091015482565b6000610d6d612a06565b610c0a82612bc5565b601055565b60105481565b6001600160a01b03811660009081526012602052604081206003015460ff166004811115610c0a57fe5b600f546001600160a01b031681565b66b1a2bc2ec5000081565b600b546001600160a01b031681565b601b5481565b6002546001600160a01b031681565b610df1615438565b506040805160e0810182526001546001600160a01b03908116825260025481166020830152600a54811692820192909252600c5482166060820152600d5482166080820152600954821660a082015260085490911660c0820152610e53615474565b600f5460405163ddd88be560e01b81526000916001600160a01b03169063ddd88be590610e849089906004016160bb565b60006040518083038186803b158015610e9c57600080fd5b505afa158015610eb0573d6000803e3d6000fd5b50505050600f60009054906101000a90046001600160a01b03166001600160a01b031663c640c3766040518163ffffffff1660e01b815260040160006040518083038186803b158015610f0257600080fd5b505afa158015610f16573d6000803e3d6000fd5b50505050610f226154b9565b600354604051634e15f2a560e01b81526001600160a01b0390911690634e15f2a590610f549089908990600401615c6c565b608060405180830381600087803b158015610f6e57600080fd5b505af1158015610f82573d6000803e3d6000fd5b505050506040513d601f19601f82011682018060405250810190610fa691906159b0565b805160c0850152600e54602082015160408084015160608501519151631ba21c6b60e11b81529495506001600160a01b039093169363374438d693610ff093929091600401615d0d565b60206040518083038186803b15801561100857600080fd5b505afa15801561101c573d6000803e3d6000fd5b505050506040513d601f19601f820116820180604052508101906110409190615a8d565b600f5460c085015160405163febf7cc760e01b81529294506001600160a01b03909116925063febf7cc79161107891906004016160bb565b60006040518083038186803b15801561109057600080fd5b505afa1580156110a4573d6000803e3d6000fd5b5050600f54604051632b60a45160e11b81526001600160a01b0390911692506356c148a291506110d8908f906004016160bb565b60006040518083038186803b1580156110f057600080fd5b505afa158015611104573d6000803e3d6000fd5b50505050600f60009054906101000a90046001600160a01b03166001600160a01b0316638cf306448460400151338f6040518463ffffffff1660e01b815260040161115193929190615c26565b60006040518083038186803b15801561116957600080fd5b505afa15801561117d573d6000803e3d6000fd5b50505050611189612284565b60e0830181905260408085015190516370a0823160e01b81526001600160a01b03909116906370a08231906111c2903390600401615bf9565b60206040518083038186803b1580156111da57600080fd5b505afa1580156111ee573d6000803e3d6000fd5b505050506040513d601f19601f820116820180604052508101906112129190615a8d565b111561121a57fe5b8b8260000181815250506000600f60009054906101000a90046001600160a01b03166001600160a01b03166352576cdf85608001518e8660c001516040518463ffffffff1660e01b815260040161127393929190615c26565b60206040518083038186803b15801561128b57600080fd5b505afa15801561129f573d6000803e3d6000fd5b505050506040513d601f19601f820116820180604052508101906112c39190615862565b156112cf57508a611470565b83608001516001600160a01b0316634d6228316040518163ffffffff1660e01b815260040160206040518083038186803b15801561130c57600080fd5b505afa158015611320573d6000803e3d6000fd5b505050506040513d601f19601f820116820180604052508101906113449190615706565b90505b6001600160a01b038116158015906113e45750600480546040805163044936b160e41b815290516001600160a01b03909216926344936b10928282019260209290829003018186803b15801561139c57600080fd5b505afa1580156113b0573d6000803e3d6000fd5b505050506040513d601f19601f820116820180604052508101906113d49190615a8d565b6113e2828560c001516127c3565b105b156114705783608001516001600160a01b031663b72703ac826040518263ffffffff1660e01b81526004016114199190615bf9565b60206040518083038186803b15801561143157600080fd5b505afa158015611445573d6000803e3d6000fd5b505050506040513d601f19601f820116820180604052508101906114699190615706565b9050611347565b8761147b5760001997505b6001600160a01b038116158015906114935750825115155b801561149f5750600088115b15611623576080840151604051632dc9c0eb60e21b8152600019909901986000916001600160a01b03169063b72703ac906114de908590600401615bf9565b60206040518083038186803b1580156114f657600080fd5b505afa15801561150a573d6000803e3d6000fd5b505050506040513d601f19601f8201168201806040525081019061152e9190615706565b90506115438560000151866020015184612a32565b61154b6154e4565b6040518060e00160405280878152602001846001600160a01b03168152602001866000015181526020018660c0015181526020018e6001600160a01b031681526020018d6001600160a01b031681526020018c81525090506115ab615527565b6115b482612c78565b90508060400151156115c857505050611623565b805160208701516115de9163ffffffff61309016565b60208088019190915281015160408701516115fe9163ffffffff61309016565b6040870152805186516116169163ffffffff612b4416565b86525090915061147b9050565b60008360400151116116475760405162461bcd60e51b815260040161091c90615da3565b61165e83604001518460c001518560e001516130b5565b5061166d836040015183613145565b606084018190526040840151611684919089613153565b835160608086015190850151604051630a569c3760e41b81526001600160a01b039093169263a569c370926116bd929091600401615c0d565b600060405180830381600087803b1580156116d757600080fd5b505af11580156116eb573d6000803e3d6000fd5b5050505083606001516001600160a01b03166301c5acfa84606001516040518263ffffffff1660e01b815260040161172391906160bb565b600060405180830381600087803b15801561173d57600080fd5b505af1158015611751573d6000803e3d6000fd5b505050506060830151604084015161176891612b44565b8360800181815250507f43a3f4082a4dbc33d78e317d2497d3a730bc7fc3574159dcea1056e62e5d9ad88d8460200151856040015186606001516040516117b29493929190616137565b60405180910390a183604001516001600160a01b0316639dc29fac3385602001516040518363ffffffff1660e01b81526004016117f0929190615c0d565b600060405180830381600087803b15801561180a57600080fd5b505af115801561181e573d6000803e3d6000fd5b505085516020860151604051637d9ee87160e11b81526001600160a01b03909216935063fb3dd0e29250611854916004016160bb565b600060405180830381600087803b15801561186e57600080fd5b505af1158015611882573d6000803e3d6000fd5b505085516080860151604051630a569c3760e41b81526001600160a01b03909216935063a569c37092506118bb91339190600401615c0d565b600060405180830381600087803b1580156118d557600080fd5b505af11580156118e9573d6000803e3d6000fd5b5050505050505050505050505050505050565b6001600160a01b031660009081526012602052604090206001015490565b60c881565b60195490565b6000610c0a82613193565b600080601c60009054906101000a90046001600160a01b03166001600160a01b0316631549b76d6040518163ffffffff1660e01b815260040160206040518083038186803b15801561198157600080fd5b505afa158015611995573d6000803e3d6000fd5b505050506040513d601f19601f820116820180604052508101906119b99190615a8d565b90506119cb838263ffffffff61309016565b9392505050565b6000610c0a82613233565b6000610c0a601054836132c1565b6119f3612a06565b8060048111156119ff57fe5b6001600160a01b0383166000908152601260205260409020600301805460ff19166001836004811115611a2e57fe5b02179055505050565b611a3f612a06565b6000611a49613354565b9050670de0b6b3a7640000811115611a5d57fe5b60108190556040516000805160206161f883398151915290611a809083906160bb565b60405180910390a1610b496133aa565b60006119cb611a9e836124f4565b8461340a565b611aac615438565b506040805160e0810182526001546001600160a01b03908116825260025481166020830152600092820183905260608201839052600d548116608083015260a0820183905260c0820192909252600754909116611b0761554a565b611b0f61557b565b611b176154b9565b600354604051634e15f2a560e01b81526001600160a01b0390911690634e15f2a590611b49908a908a90600401615c6c565b608060405180830381600087803b158015611b6357600080fd5b505af1158015611b77573d6000803e3d6000fd5b505050506040513d601f19601f82011682018060405250810190611b9b91906159b0565b90508060000151836000018181525050836001600160a01b0316633927e0066040518163ffffffff1660e01b815260040160206040518083038186803b158015611be457600080fd5b505afa158015611bf8573d6000803e3d6000fd5b505050506040513d601f19601f82011682018060405250810190611c1c9190615a8d565b60208401528251611c2c90613193565b1580156040850152611c5357611c4c85846000015185602001518b613428565b9150611c73565b611c7085600001518660200151856000015186602001518c61385e565b91505b6000826020015111611c8157fe5b608082015160a083015160405163335525ad60e01b81526001600160a01b0387169263335525ad92611cb5926004016160c4565b600060405180830381600087803b158015611ccf57600080fd5b505af1158015611ce3573d6000803e3d6000fd5b50505050611d03856000015186602001518460c001518560e00151613a0f565b61010082015115611d7a578451600954610100840151604051630a569c3760e41b81526001600160a01b039384169363a569c37093611d4793911691600401615c0d565b600060405180830381600087803b158015611d6157600080fd5b505af1158015611d75573d6000803e3d6000fd5b505050505b611d8c85600001518360400151613c72565b6020820151606084015261010082015160408301518351611dc49291611db8919063ffffffff612b4416565b9063ffffffff612b4416565b608084018190526060808501516040808601519286015190516000805160206161b883398151915294611dfa9490929091616137565b60405180910390a1611e1a85600001513384606001518560400151613dae565b5050505050505050565b603c81565b6001600160a01b031660009081526012602052604090206002015490565b6000611e538383613145565b5092915050565b8251611e785760405162461bcd60e51b815260040161091c90615e9f565b6001546002546007546001600160a01b03928316929182169116611e9a61554a565b611ea261557b565b611eaa6154b9565b600354604051634e15f2a560e01b81526001600160a01b0390911690634e15f2a590611edc908b908b90600401615c6c565b608060405180830381600087803b158015611ef657600080fd5b505af1158015611f0a573d6000803e3d6000fd5b505050506040513d601f19601f82011682018060405250810190611f2e91906159b0565b90508060000151836000018181525050836001600160a01b0316633927e0066040518163ffffffff1660e01b815260040160206040518083038186803b158015611f7757600080fd5b505afa158015611f8b573d6000803e3d6000fd5b505050506040513d601f19601f82011682018060405250810190611faf9190615a8d565b60208401528251611fbf90613193565b1580156040850152611fe757611fe08686856000015186602001518d613e81565b9150611fff565b611ffc8686856000015186602001518d61411f565b91505b60008260200151116120235760405162461bcd60e51b815260040161091c90615dbe565b608082015160a083015160405163335525ad60e01b81526001600160a01b0387169263335525ad92612057926004016160c4565b600060405180830381600087803b15801561207157600080fd5b505af1158015612085573d6000803e3d6000fd5b5050505061209d86868460c001518560e00151613a0f565b6101008201511561211457600954610100830151604051630a569c3760e41b81526001600160a01b038981169363a569c370936120e1939290911691600401615c0d565b600060405180830381600087803b1580156120fb57600080fd5b505af115801561210f573d6000803e3d6000fd5b505050505b612122868360400151613c72565b602082015160608401526101008201516040830151835161214e9291611db8919063ffffffff612b4416565b608084018190526060808501516040808601519286015190516000805160206161b8833981519152946121849490929091616137565b60405180910390a16121a0863384606001518560400151613dae565b505050505050505050565b60126020526000908152604090208054600182015460028301546003909301549192909160ff81169061010090046001600160801b031685565b60006121ef612a06565b6001600160a01b03831660009081526012602052604081206001015461221b908463ffffffff61309016565b6001600160a01b038516600090815260126020526040902060010181905591505092915050565b670de0b6b3a764000081565b6003546001600160a01b031681565b6019818154811061226a57fe5b6000918252602090912001546001600160a01b0316905081565b600080600160009054906101000a90046001600160a01b03166001600160a01b0316635227d6a86040518163ffffffff1660e01b815260040160206040518083038186803b1580156122d557600080fd5b505afa1580156122e9573d6000803e3d6000fd5b505050506040513d601f19601f8201168201806040525081019061230d9190615a8d565b90506000600260009054906101000a90046001600160a01b03166001600160a01b0316635227d6a86040518163ffffffff1660e01b815260040160206040518083038186803b15801561235f57600080fd5b505afa158015612373573d6000803e3d6000fd5b505050506040513d601f19601f820116820180604052508101906123979190615a8d565b90506123a9828263ffffffff61309016565b9250505090565b6001546001600160a01b031681565b60145481565b60006123d284848461425f565b949350505050565b6123e2612a06565b610b498161428f565b600080600160009054906101000a90046001600160a01b03166001600160a01b03166378a619de6040518163ffffffff1660e01b815260040160206040518083038186803b15801561243c57600080fd5b505afa158015612450573d6000803e3d6000fd5b505050506040513d601f19601f820116820180604052508101906124749190615a8d565b90506000600260009054906101000a90046001600160a01b03166001600160a01b03166378a619de6040518163ffffffff1660e01b815260040160206040518083038186803b15801561235f57600080fd5b6005546001600160a01b031690565b6005546001600160a01b0316331490565b60006119cb611a9e836126de565b6000610c0a612501613354565b836142ec565b6001600160a01b0381166000908152601860205260408120546016548290612535908363ffffffff612b4416565b905080158061256e575060016001600160a01b03851660009081526012602052604090206003015460ff16600481111561256b57fe5b14155b1561257e57600092505050610d45565b6001600160a01b038416600090815260126020526040812060020154906125b7670de0b6b3a7640000610ba7848663ffffffff61435416565b9695505050505050565b60155481565b6004546001600160a01b031681565b60006125e0612a06565b6001600160a01b038316600090815260126020526040812054610beb908463ffffffff61309016565b601c80546001600160a01b0319166001600160a01b0392909216919091179055565b6000610c0a612638613354565b836132c1565b6000610c0a8261438e565b61265283614395565b60408051600180825281830190925260609160208083019080368337019050509050838160008151811061268257fe5b60200260200101906001600160a01b031690816001600160a01b0316815250506126ad818484611e5a565b50505050565b600d546001600160a01b031681565b60008060006126d0846143de565b915091506123d2828261445c565b6000610c0a601054836142ec565b60175481565b6006546001600160a01b031681565b6000610c0a82614491565b6001600160a01b0381166000908152601260205260408120805460019091015490918061273885612917565b915061274385612507565b9050612755848363ffffffff61309016565b9350612767838263ffffffff61309016565b92509193509193565b60135481565b600081565b670ddd4b8c6c7d70d881565b60006119cb6127958361262b565b846144b5565b6127a3612a06565b610b498160026144f5565b60165481565b6000546001600160a01b031681565b60008060006127d1856143de565b9150915060006125b783838761425f565b60115481565b60006127f2612a06565b6001600160a01b03831660009081526012602052604081206001015461221b908463ffffffff612b4416565b6001600160a01b031660009081526012602052604090205490565b60006019828154811061284857fe5b6000918252602090912001546001600160a01b031692915050565b600061286d613354565b601055670de0b6b3a7640000601054111561288457fe5b61288c6133aa565b5060105490565b6019546128a08282614660565b5050565b600e546001600160a01b031681565b600060016001600160a01b03831660009081526012602052604090206003015460ff1660048111156128e157fe5b146128ee57506000610d45565b506016546001600160a01b03821660009081526018602052604090205410919050565b601a5481565b6001600160a01b0381166000908152601860205260408120600101546017548290612535908363ffffffff612b4416565b600c546001600160a01b031681565b600a546001600160a01b031681565b61296e612a06565b610b49816147fe565b6001600160a01b03811661299d5760405162461bcd60e51b815260040161091c90615ed5565b803b806128a05760405162461bcd60e51b815260040161091c90615f0f565b6005546040516000916001600160a01b0316907f8be0079c531659141344cd1fd0a4f28419497f9722a3daafe3b4186f6b6457e0908390a3600580546001600160a01b0319169055565b6006546001600160a01b03163314612a305760405162461bcd60e51b815260040161091c90615ef4565b565b612a3b816128b3565b15612b3f57612a4981614395565b6000612a5482612507565b90506000612a6183612917565b6001600160a01b038416600090815260126020526040902060010154909150612a90908363ffffffff61309016565b6001600160a01b0384166000908152601260205260409020600181019190915554612ac1908263ffffffff61309016565b6001600160a01b038416600090815260126020526040902055612ae38361428f565b612aef8585838561484c565b6001600160a01b0383166000818152601260205260408082208054600182015460029092015492516000805160206161d883398151915294612b349492939291615d23565b60405180910390a250505b505050565b60006119cb83836040518060400160405280601e81526020017f536166654d6174683a207375627472616374696f6e206f766572666c6f770000815250614934565b60006119cb83836040518060400160405280601a815260200179536166654d6174683a206469766973696f6e206279207a65726f60301b815250614960565b6001600160a01b0381166000908152601260205260408120600101548190612bec90614997565b6001600160a01b038416600090815260126020526040902060020180549082905560135491925090612c36908390612c2a908463ffffffff612b4416565b9063ffffffff61309016565b60138190556040517f6bac5e0eb3c44eb03a60ab11ec3a2c051771616aecadbcfff2630aabae52038291612c69916160bb565b60405180910390a15092915050565b612c80615527565b612c886155c7565b6004805460408051631549b76d60e01b815290516001600160a01b0390921692631549b76d928282019260209290829003018186803b158015612cca57600080fd5b505afa158015612cde573d6000803e3d6000fd5b505050506040513d601f19601f82011682018060405250810190612d029190615a8d565b8152600480546040805163c4dc70d360e01b815290516001600160a01b039092169263c4dc70d3928282019260209290829003018186803b158015612d4657600080fd5b505afa158015612d5a573d6000803e3d6000fd5b505050506040513d601f19601f82011682018060405250810190612d7e9190615a8d565b6020808301919091526040808501518351868401516001600160a01b0316600090815260129094529190922054612dc59291612dc0919063ffffffff612b4416565b6149d3565b8083526060840151612de991610ba790670de0b6b3a764000063ffffffff61435416565b6020808401919091528251848201516001600160a01b031660009081526012909252604090912054612e209163ffffffff612b4416565b604080830191909152602080840151858201516001600160a01b03166000908152601290925291902060010154612e5c9163ffffffff612b4416565b6060820152805160408201511415612ee757612e7b83602001516147fe565b612e8a836020015160046144f5565b612ea683600001518460200151836000015184606001516149e9565b82602001516001600160a01b03166000805160206161d883398151915260008060006003604051612eda9493929190615d23565b60405180910390a261308a565b6000612efb8260600151836040015161445c565b90508360c0015181141580612f1f57508160200151612f1d8360400151613233565b105b15612f3257505060016040820152610d45565b612f3a6155ef565b604051806080016040528086602001516001600160a01b0316815260200183815260200186608001516001600160a01b031681526020018660a001516001600160a01b031681525090508460000151608001516001600160a01b031663806093b8826040518263ffffffff1660e01b8152600401612fb89190616082565b600060405180830381600087803b158015612fd257600080fd5b505af1158015612fe6573d6000803e3d6000fd5b505050604080850151602080890180516001600160a01b03908116600090815260129093528483209390935560608801518151909316825292902060010155516130309150612bc5565b5060208086015160408086015160608701516001600160a01b0390931660008181526012909552938290206002015491516000805160206161d88339815191529361307f939091600390615d23565b60405180910390a250505b50919050565b6000828201838110156119cb5760405162461bcd60e51b815260040161091c90615dd9565b6000806130cc83610ba7878763ffffffff61435416565b905060006130fd6130ef6130e784600263ffffffff612b8616565b612c2a613354565b670de0b6b3a76400006149d3565b90506000811161310957fe5b60108190556040516000805160206161f88339815191529061312c9083906160bb565b60405180910390a161313c6133aa565b95945050505050565b60006119cb612795836119dd565b600061317183610ba786670de0b6b3a764000063ffffffff61435416565b9050818111156126ad5760405162461bcd60e51b815260040161091c90615f2e565b60008061319f83614491565b90506000600460009054906101000a90046001600160a01b03166001600160a01b031663bb4095226040518163ffffffff1660e01b815260040160206040518083038186803b1580156131f157600080fd5b505afa158015613205573d6000803e3d6000fd5b505050506040513d601f19601f820116820180604052508101906132299190615a8d565b9091109392505050565b6004805460408051631549b76d60e01b8152905160009384936001600160a01b031692631549b76d9281830192602092829003018186803b15801561327757600080fd5b505afa15801561328b573d6000803e3d6000fd5b505050506040513d601f19601f820116820180604052508101906132af9190615a8d565b90506119cb838263ffffffff612b4416565b60006119cb6130ef83612c2a86600460009054906101000a90046001600160a01b03166001600160a01b0316638abf30b36040518163ffffffff1660e01b815260040160206040518083038186803b15801561331c57600080fd5b505afa158015613330573d6000803e3d6000fd5b505050506040513d601f19601f82011682018060405250810190612c2a9190615a8d565b600080613371603c610ba760115442612b4490919063ffffffff16565b90506000613387670ddd4b8c6c7d70d883614b4c565b90506123a9670de0b6b3a7640000610ba78360105461435490919063ffffffff16565b60006133c160115442612b4490919063ffffffff16565b9050603c8110610b49574260118190556040517f860f8d2f0c74dd487e89e2883e3b25b8159ce1e1b3433a291cba7b82c508f3bc916133ff916160bb565b60405180910390a150565b60006119cb670de0b6b3a7640000610ba7858563ffffffff61435416565b61343061557b565b613438615616565b61344061557b565b848252600060a0830152613452612284565b60c083015261345f6123eb565b8260e001818152505086608001516001600160a01b0316634d6228316040518163ffffffff1660e01b815260040160206040518083038186803b1580156134a557600080fd5b505afa1580156134b9573d6000803e3d6000fd5b505050506040513d601f19601f820116820180604052508101906134dd9190615706565b82606001906001600160a01b031690816001600160a01b03168152505086608001516001600160a01b0316631e2231436040518163ffffffff1660e01b815260040160206040518083038186803b15801561353757600080fd5b505afa15801561354b573d6000803e3d6000fd5b505050506040513d601f19601f8201168201806040525081019061356f9190615706565b6001600160a01b039081166080840152600480546040805163044936b160e41b8152905191909316926344936b109281810192602092909190829003018186803b1580156135bc57600080fd5b505afa1580156135d0573d6000803e3d6000fd5b505050506040513d601f19601f820116820180604052508101906135f49190615a8d565b610100830152600060208301525b83826020015110801561362f575081608001516001600160a01b031682606001516001600160a01b031614155b156138545760808701516060830151604051632dc9c0eb60e21b81526000926001600160a01b03169163b72703ac9161366b9190600401615bf9565b60206040518083038186803b15801561368357600080fd5b505afa158015613697573d6000803e3d6000fd5b505050506040513d601f19601f820116820180604052508101906136bb9190615706565b90506136cb8360600151886127c3565b604084015260a08301516137c9578261010001518360400151101580156136f157508251155b156136fc5750613854565b60006137118460e001518560c001518a61425f565b895160208b015160608701516040880151885194955061373294868e614bf7565b6080810151855191945061374c919063ffffffff612b4416565b8452608083015160c08501516137679163ffffffff612b4416565b60c0850152610100830151604084015160a085015160e08701516137999392611db8929091839163ffffffff612b4416565b60e08501526137a8858461503d565b94506137bd8460e001518560c001518a615154565b1560a085015250613836565b8260a0015180156137e257508261010001518360400151105b156138305761380388600001518960200151856060015186600001516151f0565b6080810151845191935061381d919063ffffffff612b4416565b8352613829848361503d565b9350613836565b50613854565b6001600160a01b031660608301526020820180516001019052613602565b5050949350505050565b61386661557b565b61386e615616565b61387661557b565b600d54858352600480546040805163044936b160e41b815290516001600160a01b03948516946000949316926344936b1092808201926020929091829003018186803b1580156138c557600080fd5b505afa1580156138d9573d6000803e3d6000fd5b505050506040513d601f19601f820116820180604052508101906138fd9190615a8d565b6000602086015290505b8584602001511015613a0257816001600160a01b0316634d6228316040518163ffffffff1660e01b815260040160206040518083038186803b15801561394c57600080fd5b505afa158015613960573d6000803e3d6000fd5b505050506040513d601f19601f820116820180604052508101906139849190615706565b6001600160a01b03166060850181905261399e90896127c3565b604085018190528111156139ed576139c08a8a866060015187600001516151f0565b608081015185519194506139da919063ffffffff612b4416565b84526139e6858461503d565b94506139f2565b613a02565b6020840180516001019052613907565b5050505095945050505050565b81613a19576126ad565b601a54600090613a3b90612c2a84670de0b6b3a764000063ffffffff61435416565b90506000613a60601b54612c2a670de0b6b3a76400008761435490919063ffffffff16565b90506000613a7960135484612b8690919063ffffffff16565b90506000613a9260135484612b8690919063ffffffff16565b9050613ab9613aac6013548461435490919063ffffffff16565b859063ffffffff612b4416565b601a55601354613ae190613ad490839063ffffffff61435416565b849063ffffffff612b4416565b601b55601654613af7908363ffffffff61309016565b601655601754613b0d908263ffffffff61309016565b60178190556016546040517f9f8bc8ab0daf5bceef75ecfd2085d1fcc6548c657ea970d9a23a60610d0737e392613b4492916160c4565b60405180910390a1604051637d9ee87160e11b81526001600160a01b0389169063fb3dd0e290613b789089906004016160bb565b600060405180830381600087803b158015613b9257600080fd5b505af1158015613ba6573d6000803e3d6000fd5b50506040516333681ca560e21b81526001600160a01b038a16925063cda072949150613bd69089906004016160bb565b600060405180830381600087803b158015613bf057600080fd5b505af1158015613c04573d6000803e3d6000fd5b5050604051630a569c3760e41b81526001600160a01b038b16925063a569c3709150613c36908a908990600401615c0d565b600060405180830381600087803b158015613c5057600080fd5b505af1158015613c64573d6000803e3d6000fd5b505050505050505050505050565b60135460145560025460408051633c530cef60e11b81529051613d6b926001600160a01b0316916378a619de916004808301926020929190829003018186803b158015613cbe57600080fd5b505afa158015613cd2573d6000803e3d6000fd5b505050506040513d601f19601f82011682018060405250810190613cf69190615a8d565b612c2a83856001600160a01b03166378a619de6040518163ffffffff1660e01b815260040160206040518083038186803b158015613d3357600080fd5b505afa158015613d47573d6000803e3d6000fd5b505050506040513d601f19601f82011682018060405250810190611db89190615a8d565b60158190556014546040517f51bf4c63ec3cba9d03d43238abbdd979dd91bd16d9895c74ceea9118c7baaf6092613da292916160c4565b60405180910390a15050565b8115613e1f57600a54600854604051631062c15f60e11b81526001600160a01b03928316926320c582be92613dec9291169087908790600401615c26565b600060405180830381600087803b158015613e0657600080fd5b505af1158015613e1a573d6000803e3d6000fd5b505050505b80156126ad57604051630a569c3760e41b81526001600160a01b0385169063a569c37090613e539086908590600401615c0d565b600060405180830381600087803b158015613e6d57600080fd5b505af1158015611e1a573d6000803e3d6000fd5b613e8961557b565b613e91615616565b613e9961557b565b848252600060a0830152613eab612284565b60c0830152613eb86123eb565b60e0830152600480546040805163044936b160e41b815290516000936001600160a01b03909316926344936b1092808201926020929091829003018186803b158015613f0357600080fd5b505afa158015613f17573d6000803e3d6000fd5b505050506040513d601f19601f82011682018060405250810190613f3b9190615a8d565b6000602085015290505b8451836020015110156141135784836020015181518110613f6257fe5b6020908102919091018101516001600160a01b03166060850181905260009081526012909152604090206003015460019060ff166004811115613fa157fe5b14613fab57614103565b613fb98360600151886127c3565b604084015260a08301516140ad5780836040015110158015613fda57508251155b15613fe457614103565b6000613ff98460e001518560c001518a61425f565b90506140168a8a866060015187604001518860000151868e614bf7565b60808101518551919450614030919063ffffffff612b4416565b8452608083015160c085015161404b9163ffffffff612b4416565b60c0850152610100830151604084015160a085015160e087015161407d9392611db8929091839163ffffffff612b4416565b60e085015261408c858461503d565b94506140a18460e001518560c001518a615154565b1560a085015250614103565b8260a0015180156140c15750808360400151105b15614103576140da8989856060015186600001516151f0565b608081015184519193506140f4919063ffffffff612b4416565b8352614100848361503d565b93505b6020830180516001019052613f45565b50505095945050505050565b61412761557b565b61412f615616565b61413761557b565b848252600480546040805163044936b160e41b815290516000936001600160a01b03909316926344936b1092808201926020929091829003018186803b15801561418057600080fd5b505afa158015614194573d6000803e3d6000fd5b505050506040513d601f19601f820116820180604052508101906141b89190615a8d565b6000602085015290505b84518360200151101561411357848360200151815181106141df57fe5b60209081029190910101516001600160a01b03166060840181905261420490886127c3565b6040840181905281111561424f576142268989856060015186600001516151f0565b60808101518451919350614240919063ffffffff612b4416565b835261424c848361503d565b93505b60208301805160010190526141c2565b6000821561428657600061427d84610ba7878663ffffffff61435416565b91506119cb9050565b506000196119cb565b601680546001600160a01b038316600090815260186020526040908190209182556017546001909201829055915491517fc437f324d85e369394148dd9d62f98f534b382e01ed3dd2eb98138fb6d3ab49a926133ff9290916160c4565b60006119cb61434783612c2a86600460009054906101000a90046001600160a01b03166001600160a01b0316635e9e32126040518163ffffffff1660e01b815260040160206040518083038186803b15801561331c57600080fd5b66b1a2bc2ec500006149d3565b60008261436357506000610c0a565b8282028284828161437057fe5b04146119cb5760405162461bcd60e51b815260040161091c90615e29565b60c8900490565b60016001600160a01b03821660009081526012602052604090206003015460ff1660048111156143c157fe5b14610b495760405162461bcd60e51b815260040161091c90615e0e565b60008060006143ec84612507565b905060006143f985612917565b6001600160a01b038616600090815260126020526040902060010154909150614428908363ffffffff61309016565b6001600160a01b038616600090815260126020526040902054614451908363ffffffff61309016565b935093505050915091565b600081156144885761448182610ba78568056bc75e2d6310000063ffffffff61435416565b9050610c0a565b50600019610c0a565b60008061449c6123eb565b905060006144a8612284565b90506123d282828661425f565b6000806144d4670de0b6b3a7640000610ba7868663ffffffff61435416565b90508281106119cb5760405162461bcd60e51b815260040161091c90615eba565b600081600481111561450357fe5b1415801561451d5750600181600481111561451a57fe5b14155b61452357fe5b601954600f546040516301ff3f2760e01b81526001600160a01b03909116906301ff3f27906145569084906004016160bb565b60006040518083038186803b15801561456e57600080fd5b505afa158015614582573d6000803e3d6000fd5b5050506001600160a01b0384166000908152601260205260409020600301805484925060ff191660018360048111156145b757fe5b02179055506001600160a01b03831660009081526012602090815260408083206001808201859055908490556018909252822082815501556145f98382614660565b600d54604051631484968760e11b81526001600160a01b03909116906329092d0e90614629908690600401615bf9565b600060405180830381600087803b15801561464357600080fd5b505af1158015614657573d6000803e3d6000fd5b50505050505050565b6001600160a01b03821660009081526012602052604081206003015460ff169081600481111561468c57fe5b141580156146a6575060018160048111156146a357fe5b14155b6146ac57fe5b6001600160a01b03831660009081526012602052604081206003015461010090046001600160801b0316906146e2846001612b44565b905080826001600160801b031611156146f757fe5b60006019828154811061470657fe5b600091825260209091200154601980546001600160a01b03909216925082916001600160801b03861690811061473857fe5b600091825260208083209190910180546001600160a01b0319166001600160a01b03948516179055918316815260129091526040908190206003018054610100600160881b0319166101006001600160801b03871602179055517f02b04ae5f7be9ca7c103293a2aa15f3c339d15d6eda53b721fef7b0e609c831a906147c19083908690615c4a565b60405180910390a160198054806147d457fe5b600082815260209020810160001990810180546001600160a01b0319169055019055505050505050565b6001600160a01b03811660009081526012602052604090206002015460135461482c9163ffffffff612b4416565b6013556001600160a01b0316600090815260126020526040812060020155565b604051637d9ee87160e11b81526001600160a01b0384169063fb3dd0e2906148789085906004016160bb565b600060405180830381600087803b15801561489257600080fd5b505af11580156148a6573d6000803e3d6000fd5b50506040516333681ca560e21b81526001600160a01b038716925063cda0729491506148d69085906004016160bb565b600060405180830381600087803b1580156148f057600080fd5b505af1158015614904573d6000803e3d6000fd5b50506040516306fc5daf60e01b81526001600160a01b03861692506306fc5daf9150613e539084906004016160bb565b600081848411156149585760405162461bcd60e51b815260040161091c9190615d50565b505050900390565b600081836149815760405162461bcd60e51b815260040161091c9190615d50565b50600083858161498d57fe5b0495945050505050565b600080601554600014156149ac575081610c0a565b6000601454116149b857fe5b6119cb601554610ba76014548661435490919063ffffffff16565b60008183106149e257816119cb565b5090919050565b6040808501516008549151632770a7eb60e21b81526001600160a01b0391821692639dc29fac92614a21929116908690600401615c0d565b600060405180830381600087803b158015614a3b57600080fd5b505af1158015614a4f573d6000803e3d6000fd5b50508551604051637d9ee87160e11b81526001600160a01b03909116925063fb3dd0e29150614a829085906004016160bb565b600060405180830381600087803b158015614a9c57600080fd5b505af1158015614ab0573d6000803e3d6000fd5b505050508360a001516001600160a01b0316633f10abab84836040518363ffffffff1660e01b8152600401614ae6929190615c0d565b600060405180830381600087803b158015614b0057600080fd5b505af1158015614b14573d6000803e3d6000fd5b5050855160a0870151604051630a569c3760e41b81526001600160a01b03909216935063a569c3709250613e53918590600401615c0d565b6000631f540500821115614b6257631f54050091505b81614b765750670de0b6b3a7640000610c0a565b670de0b6b3a764000083835b6001811115614bed5760028106614bb757614b9d8283615399565b9150614bb081600263ffffffff612b8616565b9050614be8565b614bc18284615399565b9250614bcd8283615399565b9150614be56002610ba783600163ffffffff612b4416565b90505b614b82565b6125b78284615399565b614bff61557b565b614c07615676565b601954600110614c175750615032565b614c208761270c565b60408501526020848101919091528401819052908352614c3f9061438e565b60408084019190915260048054825163044936b160e41b815292516000936001600160a01b03909216926344936b1092808201926020929091829003018186803b158015614c8c57600080fd5b505afa158015614ca0573d6000803e3d6000fd5b505050506040513d601f19601f82011682018060405250810190614cc49190615a8d565b9050600460009054906101000a90046001600160a01b03166001600160a01b0316631549b76d6040518163ffffffff1660e01b815260040160206040518083038186803b158015614d1457600080fd5b505afa158015614d28573d6000803e3d6000fd5b505050506040513d601f19601f82011682018060405250810190614d4c9190615a8d565b606084015260408301516020840151614d6a9163ffffffff612b4416565b8252670de0b6b3a76400008711614e3557614d8f8a8a8460200151856040015161484c565b614d98886147fe565b60006080840181905260a0840152825160c0840152815160e0840152614dbf8860036144f5565b825160208401516040516001600160a01b038b169260008051602061619883398151915292614df0926002906160d2565b60405180910390a2876001600160a01b03166000805160206161d883398151915260008060006002604051614e289493929190615d23565b60405180910390a261502f565b670de0b6b3a764000087118015614e4b57508087105b15614e9b57614e648a8a8460200151856040015161484c565b614e6d886147fe565b82518251614e7c9190886153cc565b60e087015260c086015260a08501526080840152614dbf8860036144f5565b808710158015614eaa57508487105b8015614eb7575082518610155b1561501d57614ed08a8a8460200151856040015161484c565b85614ed757fe5b614ee0886147fe565b600f548351602085015160405163372bed0560e21b81526001600160a01b039093169263dcafb41492614f199290918990600401615d0d565b6101206040518083038186803b158015614f3257600080fd5b505afa158015614f46573d6000803e3d6000fd5b505050506040513d601f19601f82011682018060405250810190614f6a91906159f7565b9250614f778860036144f5565b61010083015115614fec57600954610100840151604051633f10abab60e01b81526001600160a01b0390921691633f10abab91614fb9918c9190600401615c0d565b600060405180830381600087803b158015614fd357600080fd5b505af1158015614fe7573d6000803e3d6000fd5b505050505b825160a08401516040516001600160a01b038b169260008051602061619883398151915292614df0926002906160d2565b61502561557b565b9250615032915050565b50505b979650505050505050565b61504561557b565b6040808301519084015161505e9163ffffffff61309016565b60408201526060808301519084015161507c9163ffffffff61309016565b6060820152815160208401516150979163ffffffff61309016565b60208083019190915282015183516150b49163ffffffff61309016565b8152608080830151908401516150cf9163ffffffff61309016565b608082015260a080830151908401516150ed9163ffffffff61309016565b60a082015260c0808301519084015161510b9163ffffffff61309016565b60c082015260e080830151908401516151299163ffffffff61309016565b60e082015261010080830151908401516151489163ffffffff61309016565b61010082015292915050565b6000600460009054906101000a90046001600160a01b03166001600160a01b031663bb4095226040518163ffffffff1660e01b815260040160206040518083038186803b1580156151a457600080fd5b505afa1580156151b8573d6000803e3d6000fd5b505050506040513d601f19601f820116820180604052508101906151dc9190615a8d565b6151e785858561425f565b10949350505050565b6151f861557b565b615200615676565b6152098461270c565b6040850190815260208581019283528601929092529184529051905161523391889188919061484c565b61523c846147fe565b615249826020015161438e565b604080840191909152600480548251631549b76d60e01b815292516001600160a01b0390911692631549b76d9281810192602092909190829003018186803b15801561529457600080fd5b505afa1580156152a8573d6000803e3d6000fd5b505050506040513d601f19601f820116820180604052508101906152cc9190615a8d565b6060830152604082015160208301516000916152ee919063ffffffff612b4416565b90506152ff836000015182866153cc565b60e087015260c086015260a0850152608084015261531e8560036144f5565b825160208401516040516001600160a01b038816926000805160206161988339815191529261534f926001906160d2565b60405180910390a2846001600160a01b03166000805160206161d8833981519152600080600060016040516153879493929190615d23565b60405180910390a25050949350505050565b6000806153ac848463ffffffff61435416565b90506123d2670de0b6b3a7640000610ba7836706f05b59d3b20000613090565b60008080808415615422576153e187866149d3565b93506153f787610ba7888763ffffffff61435416565b9250615409878563ffffffff612b4416565b915061541b868463ffffffff612b4416565b905061542f565b5060009250829150859050845b93509350935093565b6040805160e081018252600080825260208201819052918101829052606081018290526080810182905260a0810182905260c081019190915290565b60405180610100016040528060008152602001600081526020016000815260200160008152602001600081526020016000815260200160008152602001600081525090565b6040518060800160405280600081526020016000801916815260200160008152602001600081525090565b6040518060e001604052806154f7615438565b815260006020820181905260408201819052606082018190526080820181905260a0820181905260c09091015290565b604051806060016040528060008152602001600081526020016000151581525090565b6040518060a00160405280600081526020016000815260200160001515815260200160008152602001600081525090565b6040518061012001604052806000815260200160008152602001600081526020016000815260200160008152602001600081526020016000815260200160008152602001600081525090565b6040518060800160405280600081526020016000815260200160008152602001600081525090565b60408051608081018252600080825260208201819052918101829052606081019190915290565b60405180610120016040528060008152602001600081526020016000815260200160006001600160a01b0316815260200160006001600160a01b031681526020016000151581526020016000815260200160008152602001600081525090565b60405180606001604052806000815260200160008152602001600081525090565b8035610c0a81616182565b60008083601f8401126156b3578081fd5b5081356001600160401b038111156156c9578182fd5b60208301915083602080830285010111156156e357600080fd5b9250929050565b6000602082840312156156fb578081fd5b81356119cb81616182565b600060208284031215615717578081fd5b81516119cb81616182565b600080600060408486031215615736578182fd5b833561574181616182565b925060208401356001600160401b0381111561575b578283fd5b615767868287016156a2565b9497909650939450505050565b60008060408385031215615786578182fd5b823561579181616182565b946020939093013593505050565b6000806000604084860312156157b3578283fd5b83356001600160401b03808211156157c9578485fd5b81860187601f8201126157da578586fd5b80359250818311156157ea578586fd5b60208084026157fa828201616152565b8581528281019084840183860185018d1015615814578a8bfd5b8a95505b8786101561583e5761582a8d82615697565b835260019590950194918401918401615818565b509850505087013592505080821115615855578384fd5b50615767868287016156a2565b600060208284031215615873578081fd5b815180151581146119cb578182fd5b60006101c0808385031215615895578182fd5b61589e81616152565b6158a88585615697565b81526158b78560208601615697565b60208201526158c98560408601615697565b60408201526158db8560608601615697565b60608201526158ed8560808601615697565b60808201526158ff8560a08601615697565b60a08201526159118560c08601615697565b60c08201526159238560e08601615697565b60e0820152610100915061593985838601615697565b82820152610120915061594e85838601615697565b82820152610140915061596385838601615697565b82820152610160915061597885838601615697565b82820152610180915061598d85838601615697565b828201526101a091506159a285838601615697565b918101919091529392505050565b6000608082840312156159c1578081fd5b6159cb6080616152565b825181526020830151602082015260408301516040820152606083015160608201528091505092915050565b6000610120808385031215615a0a578182fd5b615a1381616152565b835181526020840151602082015260408401516040820152606084015160608201526080840151608082015260a084015160a082015260c084015160c082015260e084015160e082015261010091508184015182820152809250505092915050565b600060208284031215615a86578081fd5b5035919050565b600060208284031215615a9e578081fd5b5051919050565b60008060008060008060008060006101008a8c031215615ac3578687fd5b8935985060208a0135615ad581616182565b975060408a0135615ae581616182565b965060608a0135615af581616182565b955060808a0135945060a08a0135935060c08a0135925060e08a01356001600160401b03811115615b24578283fd5b615b308c828d016156a2565b8194508093505050509295985092959850929598565b600080600060408486031215615b5a578081fd5b8335925060208401356001600160401b0381111561575b578182fd5b60008060408385031215615b88578182fd5b50508035926020909101359150565b600080600060608486031215615bab578081fd5b505081359360208301359350604090920135919050565b6001600160a01b03169052565b60008284528282602086013780602084860101526020601f19601f85011685010190509392505050565b6001600160a01b0391909116815260200190565b6001600160a01b03929092168252602082015260400190565b6001600160a01b039384168152919092166020820152604081019190915260600190565b6001600160a01b039290921682526001600160801b0316602082015260400190565b602080825281810183905260009060408482028401810190840186845b87811015615cf557868403603f190183528135368a9003601e19018112615cae578687fd5b89018035906001600160401b03821115615cc6578788fd5b8136038b1315615cd4578788fd5b615ce18683898401615bcf565b955050509184019190840190600101615c89565b5091979650505050505050565b901515815260200190565b9283526020830191909152604082015260600190565b848152602081018490526040810183905260808101615d4183616178565b82606083015295945050505050565b6000602080835283518082850152825b81811015615d7c57858101830151858201604001528201615d60565b81811115615d8d5783604083870101525b50601f01601f1916929092016040019392505050565b6020808252600190820152600d60fa1b604082015260600190565b6020808252600190820152603360f81b604082015260600190565b6020808252601b908201527a536166654d6174683a206164646974696f6e206f766572666c6f7760281b604082015260600190565b6020808252600190820152603760f81b604082015260600190565b60208082526021908201527f536166654d6174683a206d756c7469706c69636174696f6e206f766572666c6f6040820152607760f81b606082015260800190565b6020808252818101527f4f776e61626c653a2063616c6c6572206973206e6f7420746865206f776e6572604082015260600190565b6020808252600190820152601960f91b604082015260600190565b6020808252600190820152603560f81b604082015260600190565b6020808252600590820152641830b2323960d91b604082015260600190565b6020808252600190820152601b60f91b604082015260600190565b60208082526005908201526430636f646560d81b604082015260600190565b6020808252601d908201527f4665652065786365656465642070726f7669646564206d6178696d756d000000604082015260600190565b60006101c082019050615f79828451615bc2565b6020830151615f8b6020840182615bc2565b506040830151615f9e6040840182615bc2565b506060830151615fb16060840182615bc2565b506080830151615fc46080840182615bc2565b5060a0830151615fd760a0840182615bc2565b5060c0830151615fea60c0840182615bc2565b5060e0830151615ffd60e0840182615bc2565b506101008084015161601182850182615bc2565b50506101208084015161602682850182615bc2565b50506101408084015161603b82850182615bc2565b50506101608084015161605082850182615bc2565b50506101808084015161606582850182615bc2565b50506101a08084015161607a82850182615bc2565b505092915050565b81516001600160a01b03908116825260208084015190830152604080840151821690830152606092830151169181019190915260800190565b90815260200190565b918252602082015260400190565b83815260208101839052606081016160e983616178565b826040830152949350505050565b858152602081018590526040810184905260a081016005841061611657fe5b60608201939093526001600160801b03919091166080909101529392505050565b93845260208401929092526040830152606082015260800190565b6040518181016001600160401b038111828210171561617057600080fd5b604052919050565b60048110610b4957fe5b6001600160a01b0381168114610b4957600080fdfeea67486ed7ebe3eea8ab3390efd4a3c8aae48be5bea27df104a8af786c4084344152c73dd2614c4f9fc35e8c9cf16013cd588c75b49a4c1673ecffdcbcda9403c3770d654ed33aeea6bf11ac8ef05d02a6a04ed4686dd2f624d853bbec43cc8bc454ee9b76c52f782a256af821b857ca6e125d1e3333bcede402fec2bed9600ca164736f6c634300060b000a","linkReferences":{}},"methodIdentifiers":{"BETA()":"071a7541","BOOTSTRAP_PERIOD()":"c35bc550","DECIMAL_PRECISION()":"a20baee6","L_BNB()":"cd54a5e9","L_USDSDebt()":"b4b0954d","MAX_BORROWING_FEE()":"24092669","MINUTE_DECAY_FACTOR()":"c7b55481","PERCENT_DIVISOR()":"4870dd9a","SECONDS_IN_ONE_MINUTE()":"61ec893d","TroveOwners(uint256)":"756b253e","Troves(address)":"6ef64338","_100pct()":"72fe25aa","activePool()":"7f7dde4a","addTroveOwnerToArray(address)":"15d549f1","applyPendingRewards(address)":"0b076557","baseRate()":"1f68f20a","batchLiquidateTroves(address[],bytes[])":"6bf96eda","borrowerOperationsAddress()":"b7f8cf9b","callGetRedemptionFee(uint256,uint256)":"6b0ff77c","callInternalRemoveTroveOwner(address)":"dc62a702","checkRecoveryMode(uint256)":"4e443d9e","closeTrove(address)":"cbd138ae","computeICR(uint256,uint256,uint256)":"814a0a45","decayBaseRateFromBorrowing()":"5dba4c4a","decreaseTroveColl(address,uint256)":"d3d6f843","decreaseTroveDebt(address,uint256)":"12610e92","defaultPool()":"3cc74225","getActualDebtFromComposite(uint256)":"54062a45","getBorrowingFee(uint256,uint256)":"91571384","getBorrowingFeeWithDecay(uint256,uint256)":"5f94c327","getBorrowingRate(uint256)":"b36cd07f","getBorrowingRateWithDecay(uint256)":"948ba6d2","getCollGasCompensation(uint256)":"a537896f","getCompositeDebt(uint256)":"4ff81443","getCurrentICR(address,uint256)":"d293c710","getEntireDebtAndColl(address)":"b91af97c","getEntireSystemColl()":"887105d3","getEntireSystemDebt()":"795d26c3","getNominalICR(address)":"b0d8e181","getPendingBNBReward(address)":"95f122ce","getPendingUSDSDebtReward(address)":"f09c5c8f","getRedemptionFeeWithDecay(uint256,uint256)":"c9fccede","getRedemptionRate(uint256)":"58b8a5d6","getRedemptionRateWithDecay(uint256)":"a22b7d68","getTCR(uint256)":"b82f263d","getTroveColl(address)":"480cd578","getTroveDebt(address)":"d66a2553","getTroveFromTroveOwnersArray(uint256)":"d9a72444","getTroveOwnersCount()":"49eefeee","getTroveStake(address)":"64cee260","getTroveStatus(address)":"21e37801","getUSDSGasCompensation()":"1549b76d","hasPendingRewards(address)":"e2ac77b0","increaseTroveColl(address,uint256)":"72423c17","increaseTroveDebt(address,uint256)":"9976cf45","isOwner()":"8f32d59b","lastBNBError_Redistribution()":"e5cedb57","lastFeeOperationTime()":"d380a37c","lastUSDSDebtError_Redistribution()":"3cbaec20","liquidate(address,bytes[])":"ad1c3e62","liquidateTroves(uint256,bytes[])":"60ac128f","minutesPassedSinceLastFeeOp()":"105bb15c","oracleRateCalc()":"ddc7aed4","owner()":"8da5cb5b","priceFeed()":"741bef1a","redeemCollateral(uint256,address,address,address,uint256,uint256,uint256,bytes[])":"472b286f","removeStake(address)":"fe2ba848","rewardSnapshots(address)":"1673c79a","sableStaking()":"f80911de","sableToken()":"3b2f0e4e","setAddresses((address,address,address,address,address,address,address,address,address,address,address,address,address,address))":"01f16e18","setBaseRate(uint256)":"1d08837b","setLastFeeOpTimeToNow()":"043782fb","setSystemState(address)":"9b6ff8d3","setTroveStatus(address,uint256)":"5d6b480f","sortedTroves()":"ae918754","stabilityPool()":"048c661d","systemState()":"991292e3","timeLock()":"d085835a","totalCollateralSnapshot()":"96d711ff","totalStakes()":"bf9befb1","totalStakesSnapshot()":"807d138d","troveHelper()":"23487d20","unprotectedDecayBaseRateFromBorrowing()":"da303f14","updateStakeAndTotalStakes(address)":"18f2817a","updateTroveRewardSnapshots(address)":"82fe3eb9","usdsToken()":"f8f8d174"},"id":79}