{"abi":[{"type":"constructor","inputs":[{"name":"_borrowerOperationsAddress","type":"address","internalType":"address"},{"name":"_troveManagerAddress","type":"address","internalType":"address"},{"name":"_sableStakingAddress","type":"address","internalType":"address"}],"stateMutability":"nonpayable"},{"type":"function","name":"NAME","inputs":[],"outputs":[{"name":"","type":"string","internalType":"string"}],"stateMutability":"view"},{"type":"function","name":"addColl","inputs":[{"name":"_upperHint","type":"address","internalType":"address"},{"name":"_lowerHint","type":"address","internalType":"address"},{"name":"priceFeedUpdateData","type":"bytes[]","internalType":"bytes[]"}],"outputs":[],"stateMutability":"payable"},{"type":"function","name":"adjustTrove","inputs":[{"name":"adjustParam","type":"tuple","internalType":"struct IBorrowerOperations.AdjustTroveParam","components":[{"name":"collWithdrawal","type":"uint256","internalType":"uint256"},{"name":"USDSChange","type":"uint256","internalType":"uint256"},{"name":"isDebtIncrease","type":"bool","internalType":"bool"},{"name":"upperHint","type":"address","internalType":"address"},{"name":"lowerHint","type":"address","internalType":"address"},{"name":"maxFeePercentage","type":"uint256","internalType":"uint256"}]},{"name":"priceFeedUpdateData","type":"bytes[]","internalType":"bytes[]"}],"outputs":[],"stateMutability":"payable"},{"type":"function","name":"claimCollateral","inputs":[],"outputs":[],"stateMutability":"nonpayable"},{"type":"function","name":"claimCollateralAndOpenTrove","inputs":[{"name":"_maxFee","type":"uint256","internalType":"uint256"},{"name":"_USDSAmount","type":"uint256","internalType":"uint256"},{"name":"_upperHint","type":"address","internalType":"address"},{"name":"_lowerHint","type":"address","internalType":"address"},{"name":"priceFeedUpdateData","type":"bytes[]","internalType":"bytes[]"}],"outputs":[],"stateMutability":"payable"},{"type":"function","name":"claimSPRewardsAndRecycle","inputs":[{"name":"_maxFee","type":"uint256","internalType":"uint256"},{"name":"_upperHint","type":"address","internalType":"address"},{"name":"_lowerHint","type":"address","internalType":"address"},{"name":"priceFeedUpdateData","type":"bytes[]","internalType":"bytes[]"}],"outputs":[],"stateMutability":"nonpayable"},{"type":"function","name":"claimStakingGainsAndRecycle","inputs":[{"name":"_maxFee","type":"uint256","internalType":"uint256"},{"name":"_upperHint","type":"address","internalType":"address"},{"name":"_lowerHint","type":"address","internalType":"address"},{"name":"priceFeedUpdateData","type":"bytes[]","internalType":"bytes[]"}],"outputs":[],"stateMutability":"payable"},{"type":"function","name":"closeTrove","inputs":[{"name":"priceFeedUpdateData","type":"bytes[]","internalType":"bytes[]"}],"outputs":[],"stateMutability":"nonpayable"},{"type":"function","name":"openTrove","inputs":[{"name":"_maxFee","type":"uint256","internalType":"uint256"},{"name":"_USDSAmount","type":"uint256","internalType":"uint256"},{"name":"_upperHint","type":"address","internalType":"address"},{"name":"_lowerHint","type":"address","internalType":"address"},{"name":"priceFeedUpdateData","type":"bytes[]","internalType":"bytes[]"}],"outputs":[],"stateMutability":"payable"},{"type":"function","name":"repayUSDS","inputs":[{"name":"_amount","type":"uint256","internalType":"uint256"},{"name":"_upperHint","type":"address","internalType":"address"},{"name":"_lowerHint","type":"address","internalType":"address"},{"name":"priceFeedUpdateData","type":"bytes[]","internalType":"bytes[]"}],"outputs":[],"stateMutability":"nonpayable"},{"type":"function","name":"stake","inputs":[{"name":"_SABLEamount","type":"uint256","internalType":"uint256"}],"outputs":[],"stateMutability":"nonpayable"},{"type":"function","name":"transferBNB","inputs":[{"name":"_recipient","type":"address","internalType":"address"},{"name":"_amount","type":"uint256","internalType":"uint256"}],"outputs":[{"name":"","type":"bool","internalType":"bool"}],"stateMutability":"nonpayable"},{"type":"function","name":"withdrawColl","inputs":[{"name":"_amount","type":"uint256","internalType":"uint256"},{"name":"_upperHint","type":"address","internalType":"address"},{"name":"_lowerHint","type":"address","internalType":"address"},{"name":"priceFeedUpdateData","type":"bytes[]","internalType":"bytes[]"}],"outputs":[],"stateMutability":"nonpayable"},{"type":"function","name":"withdrawUSDS","inputs":[{"name":"_maxFee","type":"uint256","internalType":"uint256"},{"name":"_amount","type":"uint256","internalType":"uint256"},{"name":"_upperHint","type":"address","internalType":"address"},{"name":"_lowerHint","type":"address","internalType":"address"},{"name":"priceFeedUpdateData","type":"bytes[]","internalType":"bytes[]"}],"outputs":[],"stateMutability":"nonpayable"}],"bytecode":{"object":"0x6101a06040523480156200001257600080fd5b506040516200277f3803806200277f83398101604081905262000035916200051f565b80836200004b816001600160e01b03620004d016565b60601b6001600160601b0319166080526200006681620004d0565b60601b6001600160601b03191660a0526200008182620004d0565b6000829050806001600160a01b031660c0816001600160a01b031660601b815250506000816001600160a01b031663048c661d6040518163ffffffff1660e01b815260040160206040518083038186803b158015620000df57600080fd5b505afa158015620000f4573d6000803e3d6000fd5b505050506040513d601f19601f820116820180604052508101906200011a919062000572565b905062000130816001600160e01b03620004d016565b806001600160a01b031660e0816001600160a01b031660601b815250506000826001600160a01b031663741bef1a6040518163ffffffff1660e01b815260040160206040518083038186803b1580156200018957600080fd5b505afa1580156200019e573d6000803e3d6000fd5b505050506040513d601f19601f82011682018060405250810190620001c4919062000572565b9050620001da816001600160e01b03620004d016565b806001600160a01b0316610100816001600160a01b031660601b815250506000836001600160a01b031663f8f8d1746040518163ffffffff1660e01b815260040160206040518083038186803b1580156200023457600080fd5b505afa15801562000249573d6000803e3d6000fd5b505050506040513d601f19601f820116820180604052508101906200026f919062000572565b905062000285816001600160e01b03620004d016565b806001600160a01b0316610120816001600160a01b031660601b815250506000846001600160a01b0316633b2f0e4e6040518163ffffffff1660e01b815260040160206040518083038186803b158015620002df57600080fd5b505afa158015620002f4573d6000803e3d6000fd5b505050506040513d601f19601f820116820180604052508101906200031a919062000572565b905062000330816001600160e01b03620004d016565b806001600160a01b0316610140816001600160a01b031660601b815250506000856001600160a01b031663f80911de6040518163ffffffff1660e01b815260040160206040518083038186803b1580156200038a57600080fd5b505afa1580156200039f573d6000803e3d6000fd5b505050506040513d601f19601f82011682018060405250810190620003c5919062000572565b9050806001600160a01b0316876001600160a01b031614620004045760405162461bcd60e51b8152600401620003fb90620005b7565b60405180910390fd5b806001600160a01b0316610160816001600160a01b031660601b815250506000866001600160a01b031663ddc7aed46040518163ffffffff1660e01b815260040160206040518083038186803b1580156200045e57600080fd5b505afa15801562000473573d6000803e3d6000fd5b505050506040513d601f19601f8201168201806040525081019062000499919062000572565b9050620004af816001600160e01b03620004d016565b60601b6001600160601b031916610180525062000641975050505050505050565b6001600160a01b038116620004f95760405162461bcd60e51b8152600401620003fb9062000598565b803b806200051b5760405162461bcd60e51b8152600401620003fb9062000609565b5050565b60008060006060848603121562000534578283fd5b8351620005418162000628565b6020850151909350620005548162000628565b6040850151909250620005678162000628565b809150509250925092565b60006020828403121562000584578081fd5b8151620005918162000628565b9392505050565b6020808252600590820152641830b2323960d91b604082015260600190565b60208082526032908201527f426f72726f77657257726170706572735363726970743a2057726f6e67205361604082015271626c655374616b696e67206164647265737360701b606082015260800190565b60208082526005908201526430636f646560d81b604082015260600190565b6001600160a01b03811681146200063e57600080fd5b50565b60805160601c60a05160601c60c05160601c60e05160601c6101005160601c6101205160601c6101405160601c6101605160601c6101805160601c61205c620007236000398061140b5250806104955250806103e15280610758528061085952806109a7525080610356528061051c52508061137c5250806106d552806108f85280610c485250806112ab52806114d452806115d0525080610f7e52508061025752806102e352806106355280610b8e5280610cfe5280610d885280610e015280610ea35280610fff528061108f5280611113528061120e525061205c6000f3fe6080604052600436106100ad5760003560e01c80631e503ead146100b25780632322cd68146100c75780633525f68c146100e7578063383ba4ff146100fa5780636f0b0c1c1461011a578063739987d71461012f5780637a47aab514610142578063a3f4df7e14610155578063a694fc3a14610180578063b120dbd4146101a0578063df9bf27a146101c0578063e129d8e0146101e0578063eb17fba3146101f3578063f1f3097414610220575b600080fd5b6100c56100c0366004611975565b610240565b005b3480156100d357600080fd5b506100c56100e2366004611b63565b6102cc565b6100c56100f5366004611b63565b61033a565b34801561010657600080fd5b506100c5610115366004611b63565b610804565b34801561012657600080fd5b506100c5610cfc565b6100c561013d366004611a3e565b610d71565b6100c5610150366004611bd3565b610dfa565b34801561016157600080fd5b5061016a610f35565b6040516101779190611def565b60405180910390f35b34801561018c57600080fd5b506100c561019b366004611b33565b610f67565b3480156101ac57600080fd5b506100c56101bb366004611bd3565b610fe8565b3480156101cc57600080fd5b506100c56101db3660046119ff565b611078565b6100c56101ee366004611bd3565b6110fc565b3480156101ff57600080fd5b5061021361020e3660046119d5565b61118e565b6040516101779190611da2565b34801561022c57600080fd5b506100c561023b366004611b63565b6111f7565b604051631e503ead60e01b81526001600160a01b037f00000000000000000000000000000000000000000000000000000000000000001690631e503ead903490610294908890889088908890600401611d36565b6000604051808303818588803b1580156102ad57600080fd5b505af11580156102c1573d6000803e3d6000fd5b505050505050505050565b60405163046459ad60e31b81526001600160a01b037f00000000000000000000000000000000000000000000000000000000000000001690632322cd68906103209088908890889088908890600401611f64565b600060405180830381600087803b1580156102ad57600080fd5b6040516370a0823160e01b815247906000906001600160a01b037f000000000000000000000000000000000000000000000000000000000000000016906370a082319061038b903090600401611d22565b60206040518083038186803b1580156103a357600080fd5b505afa1580156103b7573d6000803e3d6000fd5b505050506040513d601f19601f820116820180604052508101906103db9190611b4b565b905060007f00000000000000000000000000000000000000000000000000000000000000006001600160a01b03166370a08231306040518263ffffffff1660e01b815260040161042b9190611d22565b60206040518083038186803b15801561044357600080fd5b505afa158015610457573d6000803e3d6000fd5b505050506040513d601f19601f8201168201806040525081019061047b9190611b4b565b6040516305c2fbcf60e31b81529091506001600160a01b037f00000000000000000000000000000000000000000000000000000000000000001690632e17de78906104cb90600090600401611dc3565b600060405180830381600087803b1580156104e557600080fd5b505af11580156104f9573d6000803e3d6000fd5b505050506000610512844761124b90919063ffffffff16565b905060006105c2847f00000000000000000000000000000000000000000000000000000000000000006001600160a01b03166370a08231306040518263ffffffff1660e01b81526004016105669190611d22565b60206040518083038186803b15801561057e57600080fd5b505afa158015610592573d6000803e3d6000fd5b505050506040513d601f19601f820116820180604052508101906105b69190611b4b565b9063ffffffff61124b16565b9050600082156106a4576105d530611294565b6105e083898961135b565b90506105ea611891565b506040805160c08101825260008152602081018390526001818301526001600160a01b03808d1660608301528b8116608083015260a082018e9052915163739987d760e01b815290917f0000000000000000000000000000000000000000000000000000000000000000169063739987d79086906106709085908e908e90600401611ef0565b6000604051808303818588803b15801561068957600080fd5b505af115801561069d573d6000803e3d6000fd5b5050505050505b60006106b6838363ffffffff6116fd16565b905080156107f657604051635f788d6560e01b81526001600160a01b037f00000000000000000000000000000000000000000000000000000000000000001690635f788d659061070d908490600090600401611f4d565b600060405180830381600087803b15801561072757600080fd5b505af115801561073b573d6000803e3d6000fd5b50506040516370a0823160e01b8152600092506001600160a01b037f00000000000000000000000000000000000000000000000000000000000000001691506370a082319061078e903090600401611d22565b60206040518083038186803b1580156107a657600080fd5b505afa1580156107ba573d6000803e3d6000fd5b505050506040513d601f19601f820116820180604052508101906107de9190611b4b565b905060006107f2828863ffffffff61124b16565b5050505b505050505050505050505050565b61083d60405180604001604052806018815260200177737461727420636c61696d7370616e642072656379636c6560401b815250611722565b6040516370a0823160e01b815247906000906001600160a01b037f000000000000000000000000000000000000000000000000000000000000000016906370a082319061088e903090600401611d22565b60206040518083038186803b1580156108a657600080fd5b505afa1580156108ba573d6000803e3d6000fd5b505050506040513d601f19601f820116820180604052508101906108de9190611b4b565b604051630943fefb60e21b81529091506001600160a01b037f0000000000000000000000000000000000000000000000000000000000000000169063250ffbec906109329060009088908890600401611dcc565b600060405180830381600087803b15801561094c57600080fd5b505af1158015610960573d6000803e3d6000fd5b50506040805180820190915260078152661c1c994818985b60ca1b602082015247925061098d9150611722565b6040516370a0823160e01b81526000906001600160a01b037f000000000000000000000000000000000000000000000000000000000000000016906370a08231906109dc903090600401611d22565b60206040518083038186803b1580156109f457600080fd5b505afa158015610a08573d6000803e3d6000fd5b505050506040513d601f19601f82011682018060405250810190610a2c9190611b4b565b90506000610a40838663ffffffff61124b16565b9050610a766040518060400160405280601381526020017277697468647261772066726f6d207370206f6b60681b815250611722565b8015610cb657610a8530611294565b610ab06040518060400160405280600a81526020016972657175697265206f6b60b01b815250611722565b6000610abd82898961135b565b9050610af4604051806040016040528060148152602001733132b337b93290383932b234b1ba1032b93937b960611b815250611722565b610afc611891565b6040518060c00160405280600081526020018381526020016001151581526020018c6001600160a01b031681526020018b6001600160a01b031681526020018d8152509050610b776040518060400160405280601581526020017461646a7573742074726f766520706172616d206f6b60581b815250611722565b60405163739987d760e01b81526001600160a01b037f0000000000000000000000000000000000000000000000000000000000000000169063739987d7908590610bc99085908e908e90600401611ef0565b6000604051808303818588803b158015610be257600080fd5b505af1158015610bf6573d6000803e3d6000fd5b5050505050610c2b6040518060400160405280600f81526020016e61646a7574732074726f7665206f6b60881b815250611722565b8115610cb357604051635f788d6560e01b81526001600160a01b037f00000000000000000000000000000000000000000000000000000000000000001690635f788d6590610c80908590600090600401611f4d565b600060405180830381600087803b158015610c9a57600080fd5b505af1158015610cae573d6000803e3d6000fd5b505050505b50505b610cea604051806040016040528060138152602001726265666f7265207361626c6542616c616e636560681b815250611722565b60006107f6838663ffffffff61124b16565b7f00000000000000000000000000000000000000000000000000000000000000006001600160a01b0316636f0b0c1c6040518163ffffffff1660e01b8152600401600060405180830381600087803b158015610d5757600080fd5b505af1158015610d6b573d6000803e3d6000fd5b50505050565b60405163739987d760e01b81526001600160a01b037f0000000000000000000000000000000000000000000000000000000000000000169063739987d7903490610dc390879087908790600401611ef0565b6000604051808303818588803b158015610ddc57600080fd5b505af1158015610df0573d6000803e3d6000fd5b5050505050505050565b60004790507f00000000000000000000000000000000000000000000000000000000000000006001600160a01b0316636f0b0c1c6040518163ffffffff1660e01b8152600401600060405180830381600087803b158015610e5a57600080fd5b505af1158015610e6e573d6000803e3d6000fd5b504792505050818111610e7d57fe5b6000610e9f34610e93848663ffffffff61124b16565b9063ffffffff6116fd16565b90507f00000000000000000000000000000000000000000000000000000000000000006001600160a01b031663e129d8e0828b8b8b8b8b8b6040518863ffffffff1660e01b8152600401610ef896959493929190611fa2565b6000604051808303818588803b158015610f1157600080fd5b505af1158015610f25573d6000803e3d6000fd5b5050505050505050505050505050565b60405180604001604052806016815260200175109bdc9c9bddd95c95dc985c1c195c9cd4d8dc9a5c1d60521b81525081565b60405163534a7e1d60e11b81526001600160a01b037f0000000000000000000000000000000000000000000000000000000000000000169063a694fc3a90610fb3908490600401611dc3565b600060405180830381600087803b158015610fcd57600080fd5b505af1158015610fe1573d6000803e3d6000fd5b5050505050565b604051632c4836f560e21b81526001600160a01b037f0000000000000000000000000000000000000000000000000000000000000000169063b120dbd49061103e90899089908990899089908990600401611fa2565b600060405180830381600087803b15801561105857600080fd5b505af115801561106c573d6000803e3d6000fd5b50505050505050505050565b604051636fcdf93d60e11b81526001600160a01b037f0000000000000000000000000000000000000000000000000000000000000000169063df9bf27a906110c69085908590600401611d86565b600060405180830381600087803b1580156110e057600080fd5b505af11580156110f4573d6000803e3d6000fd5b505050505050565b6040516307094ec760e51b81526001600160a01b037f0000000000000000000000000000000000000000000000000000000000000000169063e129d8e0903490611154908a908a908a908a908a908a90600401611fa2565b6000604051808303818588803b15801561116d57600080fd5b505af1158015611181573d6000803e3d6000fd5b5050505050505050505050565b600080836001600160a01b0316836040516111a890611d1f565b60006040518083038185875af1925050503d80600081146111e5576040519150601f19603f3d011682016040523d82523d6000602084013e6111ea565b606091505b5090925050505b92915050565b604051633c7cc25d60e21b81526001600160a01b037f0000000000000000000000000000000000000000000000000000000000000000169063f1f30974906103209088908890889088908890600401611f64565b600061128d83836040518060400160405280601e81526020017f536166654d6174683a207375627472616374696f6e206f766572666c6f7700008152506117ba565b9392505050565b6040516321e3780160e01b81526001600160a01b037f000000000000000000000000000000000000000000000000000000000000000016906321e37801906112e0908490600401611d22565b60206040518083038186803b1580156112f857600080fd5b505afa15801561130c573d6000803e3d6000fd5b505050506040513d601f19601f820116820180604052508101906113309190611b4b565b6001146113585760405162461bcd60e51b815260040161134f90611e57565b60405180910390fd5b50565b60006113656118db565b604051634e15f2a560e01b81526001600160a01b037f00000000000000000000000000000000000000000000000000000000000000001690634e15f2a5906113b39087908790600401611d86565b608060405180830381600087803b1580156113cd57600080fd5b505af11580156113e1573d6000803e3d6000fd5b505050506040513d601f19601f820116820180604052508101906114059190611aec565b905060007f00000000000000000000000000000000000000000000000000000000000000006001600160a01b031663374438d68360200151846040015185606001516040518463ffffffff1660e01b815260040161146593929190611dad565b60206040518083038186803b15801561147d57600080fd5b505afa158015611491573d6000803e3d6000fd5b505050506040513d601f19601f820116820180604052508101906114b59190611b4b565b8251604051630d293c7160e41b81529192506000916001600160a01b037f0000000000000000000000000000000000000000000000000000000000000000169163d293c71091611509913091600401611d6d565b60206040518083038186803b15801561152157600080fd5b505afa158015611535573d6000803e3d6000fd5b505050506040513d601f19601f820116820180604052508101906115599190611b4b565b905060006115848261157886600001518b6117e690919063ffffffff16565b9063ffffffff61182016565b90506115b66040518060400160405280600f81526020016e75736473616d742063616c63206f6b60881b815250611722565b604051634a45d36960e11b81526000906001600160a01b037f0000000000000000000000000000000000000000000000000000000000000000169063948ba6d290611605908790600401611dc3565b60206040518083038186803b15801561161d57600080fd5b505afa158015611631573d6000803e3d6000fd5b505050506040513d601f19601f820116820180604052508101906116559190611b4b565b90506116886040518060400160405280601081526020016f67657420622072206465636179206f6b60801b815250611722565b60006116bd6116a5670de0b6b3a76400008463ffffffff6116fd16565b61157885670de0b6b3a764000063ffffffff6117e616565b90506116f06040518060400160405280601081526020016f6e657420646562742063616c63206f6b60801b815250611722565b9998505050505050505050565b60008282018381101561128d5760405162461bcd60e51b815260040161134f90611e22565b60006a636f6e736f6c652e6c6f676001600160a01b03168260405160240161174a9190611def565b60408051601f198184030181529181526020820180516001600160e01b031663104c13eb60e21b1790525161177f9190611d03565b600060405180830381855afa9150503d8060008114610fe1576040519150601f19603f3d011682016040523d82523d6000602084013e610fe1565b600081848411156117de5760405162461bcd60e51b815260040161134f9190611def565b505050900390565b6000826117f5575060006111f1565b8282028284828161180257fe5b041461128d5760405162461bcd60e51b815260040161134f90611eaf565b600061128d83836040518060400160405280601a815260200179536166654d6174683a206469766973696f6e206279207a65726f60301b8152506000818361187b5760405162461bcd60e51b815260040161134f9190611def565b50600083858161188757fe5b0495945050505050565b6040518060c00160405280600081526020016000815260200160001515815260200160006001600160a01b0316815260200160006001600160a01b03168152602001600081525090565b6040518060800160405280600081526020016000801916815260200160008152602001600081525090565b80356001600160a01b03811681146111f157600080fd5b60008083601f84011261192e578182fd5b5081356001600160401b03811115611944578182fd5b602083019150836020808302850101111561195e57600080fd5b9250929050565b803580151581146111f157600080fd5b6000806000806060858703121561198a578384fd5b6119948686611906565b93506119a38660208701611906565b925060408501356001600160401b038111156119bd578283fd5b6119c98782880161191d565b95989497509550505050565b600080604083850312156119e7578182fd5b6119f18484611906565b946020939093013593505050565b60008060208385031215611a11578182fd5b82356001600160401b03811115611a26578283fd5b611a328582860161191d565b90969095509350505050565b600080600083850360e0811215611a53578384fd5b60c0811215611a60578384fd5b50611a6b60c0611fe8565b8435815260208501356020820152611a868660408701611965565b6040820152611a988660608701611906565b6060820152611aaa8660808701611906565b608082015260a08581013590820152925060c08401356001600160401b03811115611ad3578283fd5b611adf8682870161191d565b9497909650939450505050565b600060808284031215611afd578081fd5b611b076080611fe8565b825181526020830151602082015260408301516040820152606083015160608201528091505092915050565b600060208284031215611b44578081fd5b5035919050565b600060208284031215611b5c578081fd5b5051919050565b600080600080600060808688031215611b7a578081fd5b853594506020860135611b8c8161203a565b93506040860135611b9c8161203a565b925060608601356001600160401b03811115611bb6578182fd5b611bc28882890161191d565b969995985093965092949392505050565b60008060008060008060a08789031215611beb578081fd5b8635955060208701359450611c038860408901611906565b9350611c128860608901611906565b925060808701356001600160401b03811115611c2c578182fd5b611c3889828a0161191d565b979a9699509497509295939492505050565b8183526020808401936000918085028201810184845b87811015611ccc57848303601f19018952813536889003601e19018112611c85578687fd5b87018035906001600160401b03821115611c9d578788fd5b813603891315611cab578788fd5b611cb88583888401611cd9565b9a86019a9450505090830190600101611c60565b5090979650505050505050565b60008284528282602086013780602084860101526020601f19601f85011685010190509392505050565b60008251611d1581846020870161200e565b9190910192915050565b90565b6001600160a01b0391909116815260200190565b6001600160a01b03858116825284166020820152606060408201819052600090611d639083018486611c4a565b9695505050505050565b6001600160a01b03929092168252602082015260400190565b600060208252611d9a602083018486611c4a565b949350505050565b901515815260200190565b9283526020830191909152604082015260600190565b90815260200190565b600084825260406020830152611de6604083018486611c4a565b95945050505050565b6000602082528251806020840152611e0e81604085016020870161200e565b601f01601f19169190910160400192915050565b6020808252601b908201527a536166654d6174683a206164646974696f6e206f766572666c6f7760281b604082015260600190565b60208082526038908201527f426f72726f77657257726170706572735363726970743a2063616c6c6572206d604082015277757374206861766520616e206163746976652074726f766560401b606082015260800190565b60208082526021908201527f536166654d6174683a206d756c7469706c69636174696f6e206f766572666c6f6040820152607760f81b606082015260800190565b60008451825260208501516020830152604085015115156040830152606085015160018060a01b038082166060850152806080880151166080850152505060a085015160a083015260e060c0830152611de660e083018486611c4a565b9182526001600160a01b0316602082015260400190565b8581526001600160a01b03858116602083015284166040820152608060608201819052600090611f979083018486611c4a565b979650505050505050565b868152602081018690526001600160a01b0385811660408301528416606082015260a060808201819052600090611fdc9083018486611c4a565b98975050505050505050565b6040518181016001600160401b038111828210171561200657600080fd5b604052919050565b60005b83811015612029578181015183820152602001612011565b83811115610d6b5750506000910152565b6001600160a01b038116811461135857600080fdfea164736f6c634300060b000a","linkReferences":{}},"methodIdentifiers":{"NAME()":"a3f4df7e","addColl(address,address,bytes[])":"1e503ead","adjustTrove((uint256,uint256,bool,address,address,uint256),bytes[])":"739987d7","claimCollateral()":"6f0b0c1c","claimCollateralAndOpenTrove(uint256,uint256,address,address,bytes[])":"7a47aab5","claimSPRewardsAndRecycle(uint256,address,address,bytes[])":"383ba4ff","claimStakingGainsAndRecycle(uint256,address,address,bytes[])":"3525f68c","closeTrove(bytes[])":"df9bf27a","openTrove(uint256,uint256,address,address,bytes[])":"e129d8e0","repayUSDS(uint256,address,address,bytes[])":"2322cd68","stake(uint256)":"a694fc3a","transferBNB(address,uint256)":"eb17fba3","withdrawColl(uint256,address,address,bytes[])":"f1f30974","withdrawUSDS(uint256,uint256,address,address,bytes[])":"b120dbd4"},"id":64}