{"abi":[{"type":"function","name":"add","inputs":[{"name":"a","type":"uint128","internalType":"uint128"},{"name":"b","type":"uint128","internalType":"uint128"}],"outputs":[{"name":"","type":"uint128","internalType":"uint128"}],"stateMutability":"pure"},{"type":"function","name":"sub","inputs":[{"name":"a","type":"uint128","internalType":"uint128"},{"name":"b","type":"uint128","internalType":"uint128"}],"outputs":[{"name":"","type":"uint128","internalType":"uint128"}],"stateMutability":"pure"}],"bytecode":{"object":"0x608060405234801561001057600080fd5b506101f3806100206000396000f3fe608060405234801561001057600080fd5b50600436106100365760003560e01c8063a6fd00851461003b578063feb9939014610085575b600080fd5b6100696004803603604081101561005157600080fd5b506001600160801b03813581169160200135166100b3565b604080516001600160801b039092168252519081900360200190f35b6100696004803603604081101561009b57600080fd5b506001600160801b03813581169160200135166100d5565b60006100ce6001600160801b0384168363ffffffff6100f016565b9392505050565b60006100ce6001600160801b0384168363ffffffff61014916565b6000826001600160801b0316826001600160801b031611156101435760405162461bcd60e51b815260040180806020018281038252602881526020018061019a6028913960400191505060405180910390fd5b50900390565b60008282016001600160801b0380851690821610156100ce5760405162461bcd60e51b81526004018080602001828103825260258152602001806101c26025913960400191505060405180910390fdfe4c697175697479536166654d6174683132383a207375627472616374696f6e206f766572666c6f774c697175697479536166654d6174683132383a206164646974696f6e206f766572666c6f77a164736f6c634300060b000a","linkReferences":{}},"methodIdentifiers":{"add(uint128,uint128)":"feb99390","sub(uint128,uint128)":"a6fd0085"},"id":86}