{"abi":[{"type":"constructor","inputs":[{"name":"_sableStakingAddress","type":"address","internalType":"address"},{"name":"_sableRewarderAddress","type":"address","internalType":"address"},{"name":"_vaultAddress","type":"address","internalType":"address"},{"name":"_mintAmount","type":"uint256","internalType":"uint256"}],"stateMutability":"nonpayable"},{"type":"function","name":"allowance","inputs":[{"name":"owner","type":"address","internalType":"address"},{"name":"spender","type":"address","internalType":"address"}],"outputs":[{"name":"","type":"uint256","internalType":"uint256"}],"stateMutability":"view"},{"type":"function","name":"approve","inputs":[{"name":"spender","type":"address","internalType":"address"},{"name":"amount","type":"uint256","internalType":"uint256"}],"outputs":[{"name":"","type":"bool","internalType":"bool"}],"stateMutability":"nonpayable"},{"type":"function","name":"balanceOf","inputs":[{"name":"account","type":"address","internalType":"address"}],"outputs":[{"name":"","type":"uint256","internalType":"uint256"}],"stateMutability":"view"},{"type":"function","name":"callInternalApprove","inputs":[{"name":"owner","type":"address","internalType":"address"},{"name":"spender","type":"address","internalType":"address"},{"name":"amount","type":"uint256","internalType":"uint256"}],"outputs":[{"name":"","type":"bool","internalType":"bool"}],"stateMutability":"nonpayable"},{"type":"function","name":"callInternalTransfer","inputs":[{"name":"sender","type":"address","internalType":"address"},{"name":"recipient","type":"address","internalType":"address"},{"name":"amount","type":"uint256","internalType":"uint256"}],"outputs":[{"name":"","type":"bool","internalType":"bool"}],"stateMutability":"nonpayable"},{"type":"function","name":"decimals","inputs":[],"outputs":[{"name":"","type":"uint8","internalType":"uint8"}],"stateMutability":"view"},{"type":"function","name":"decreaseAllowance","inputs":[{"name":"spender","type":"address","internalType":"address"},{"name":"subtractedValue","type":"uint256","internalType":"uint256"}],"outputs":[{"name":"","type":"bool","internalType":"bool"}],"stateMutability":"nonpayable"},{"type":"function","name":"domainSeparator","inputs":[],"outputs":[{"name":"","type":"bytes32","internalType":"bytes32"}],"stateMutability":"view"},{"type":"function","name":"getChainId","inputs":[],"outputs":[{"name":"chainID","type":"uint256","internalType":"uint256"}],"stateMutability":"pure"},{"type":"function","name":"getDeploymentStartTime","inputs":[],"outputs":[{"name":"","type":"uint256","internalType":"uint256"}],"stateMutability":"view"},{"type":"function","name":"increaseAllowance","inputs":[{"name":"spender","type":"address","internalType":"address"},{"name":"addedValue","type":"uint256","internalType":"uint256"}],"outputs":[{"name":"","type":"bool","internalType":"bool"}],"stateMutability":"nonpayable"},{"type":"function","name":"name","inputs":[],"outputs":[{"name":"","type":"string","internalType":"string"}],"stateMutability":"view"},{"type":"function","name":"nonces","inputs":[{"name":"owner","type":"address","internalType":"address"}],"outputs":[{"name":"","type":"uint256","internalType":"uint256"}],"stateMutability":"view"},{"type":"function","name":"permit","inputs":[{"name":"owner","type":"address","internalType":"address"},{"name":"spender","type":"address","internalType":"address"},{"name":"amount","type":"uint256","internalType":"uint256"},{"name":"deadline","type":"uint256","internalType":"uint256"},{"name":"v","type":"uint8","internalType":"uint8"},{"name":"r","type":"bytes32","internalType":"bytes32"},{"name":"s","type":"bytes32","internalType":"bytes32"}],"outputs":[],"stateMutability":"nonpayable"},{"type":"function","name":"permitTypeHash","inputs":[],"outputs":[{"name":"","type":"bytes32","internalType":"bytes32"}],"stateMutability":"view"},{"type":"function","name":"sableRewarderAddress","inputs":[],"outputs":[{"name":"","type":"address","internalType":"address"}],"stateMutability":"view"},{"type":"function","name":"sableStakingAddress","inputs":[],"outputs":[{"name":"","type":"address","internalType":"address"}],"stateMutability":"view"},{"type":"function","name":"symbol","inputs":[],"outputs":[{"name":"","type":"string","internalType":"string"}],"stateMutability":"view"},{"type":"function","name":"totalSupply","inputs":[],"outputs":[{"name":"","type":"uint256","internalType":"uint256"}],"stateMutability":"view"},{"type":"function","name":"transfer","inputs":[{"name":"recipient","type":"address","internalType":"address"},{"name":"amount","type":"uint256","internalType":"uint256"}],"outputs":[{"name":"","type":"bool","internalType":"bool"}],"stateMutability":"nonpayable"},{"type":"function","name":"transferFrom","inputs":[{"name":"sender","type":"address","internalType":"address"},{"name":"recipient","type":"address","internalType":"address"},{"name":"amount","type":"uint256","internalType":"uint256"}],"outputs":[{"name":"","type":"bool","internalType":"bool"}],"stateMutability":"nonpayable"},{"type":"function","name":"unprotectedMint","inputs":[{"name":"account","type":"address","internalType":"address"},{"name":"amount","type":"uint256","internalType":"uint256"}],"outputs":[],"stateMutability":"nonpayable"},{"type":"function","name":"unprotectedSendToSABLEStaking","inputs":[{"name":"_sender","type":"address","internalType":"address"},{"name":"_amount","type":"uint256","internalType":"uint256"}],"outputs":[],"stateMutability":"nonpayable"},{"type":"function","name":"version","inputs":[],"outputs":[{"name":"","type":"string","internalType":"string"}],"stateMutability":"view"},{"type":"event","name":"Approval","inputs":[{"name":"owner","type":"address","indexed":true,"internalType":"address"},{"name":"spender","type":"address","indexed":true,"internalType":"address"},{"name":"value","type":"uint256","indexed":false,"internalType":"uint256"}],"anonymous":false},{"type":"event","name":"CommunityIssuanceAddressSet","inputs":[{"name":"_communityIssuanceAddress","type":"address","indexed":false,"internalType":"address"}],"anonymous":false},{"type":"event","name":"SABLEStakingAddressSet","inputs":[{"name":"_sableStakingAddress","type":"address","indexed":false,"internalType":"address"}],"anonymous":false},{"type":"event","name":"Transfer","inputs":[{"name":"from","type":"address","indexed":true,"internalType":"address"},{"name":"to","type":"address","indexed":true,"internalType":"address"},{"name":"value","type":"uint256","indexed":false,"internalType":"uint256"}],"anonymous":false}],"bytecode":{"object":"0x6101606040523480156200001257600080fd5b506040516200158d3803806200158d833981810160405260808110156200003857600080fd5b50805160208201516040830151606090930151919290918383838362000067846001600160e01b036200017816565b42610100526001600160601b0319606085811b82166101205284901b166101405260408051808201825260058152645341424c4560d81b602091820152815180830190925260018252603160f81b9101527ff982b9975bcf52f8cf445d957163c5ddf96fb90507d9de659ed89e4aabdf60a360c08190527fc89efdaa54c0f20c7adf612882df0950f5a951637e0307cdcb4c672f298b8bc660e0819052620001176001600160e01b03620001fd16565b60a052620001507f8b73c3c69bb8fe3d512ecc4cf759cc79239f7b179b0ffacaa9a75d522b39400f83836001600160e01b036200020116565b6080526200016884846001600160e01b036200026216565b50505050505050505050620003c5565b6001600160a01b038116620001bc576040805162461bcd60e51b81526020600482015260056024820152641830b2323960d91b604482015290519081900360640190fd5b803b80620001f9576040805162461bcd60e51b815260206004820152600560248201526430636f646560d81b604482015290519081900360640190fd5b5050565b4690565b6000838383620002196001600160e01b03620001fd16565b6040805160208082019690965280820194909452606084019290925260808301523060a0808401919091528151808403909101815260c090920190528051910120949350505050565b6001600160a01b038216620002be576040805162461bcd60e51b815260206004820152601f60248201527f45524332303a206d696e7420746f20746865207a65726f206164647265737300604482015290519081900360640190fd5b620002da816002546200036360201b62000a281790919060201c565b6002556001600160a01b038216600090815260208181526040909120546200030d91839062000a2862000363821b17901c565b6001600160a01b0383166000818152602081815260408083209490945583518581529351929391927fddf252ad1be2c89b69c2b068fc378daa952ba7f163c4a11628f55a4df523b3ef9281900390910190a35050565b600082820183811015620003be576040805162461bcd60e51b815260206004820152601b60248201527f536166654d6174683a206164646974696f6e206f766572666c6f770000000000604482015290519081900360640190fd5b9392505050565b60805160a05160c05160e051610100516101205160601c6101405160601c61115f6200042e6000398061072c5280610bd3525080610617528061069d5280610bfa5250806105ef5250806109fd5250806109dc525080610962525080610992525061115f6000f3fe608060405234801561001057600080fd5b50600436106101285760003560e01c806303d999461461012d57806306fdde0314610177578063095ea7b3146101f457806310ce43bd1461022057806318160ddd1461023a57806323b872dd14610242578063313ce567146102785780633408e47014610296578063387a54d91461029e57806339509351146102d45780633c84b7c2146103005780633e3aed5b146103085780635099f99f1461033657806354fd4d501461036257806370a082311461036a5780637ecebe00146103905780638d0a3b08146103b657806395d89b4114610177578063a457c2d7146103da578063a9059cbb14610406578063d014d39314610432578063d505accf1461043a578063dd62ed3e1461048b578063f698da25146104b9575b600080fd5b6101636004803603606081101561014357600080fd5b506001600160a01b038135811691602081013590911690604001356104c1565b604080519115158252519081900360200190f35b61017f6104d5565b6040805160208082528351818301528351919283929083019185019080838360005b838110156101b95781810151838201526020016101a1565b50505050905090810190601f1680156101e65780820380516001836020036101000a031916815260200191505b509250505060405180910390f35b6101636004803603604081101561020a57600080fd5b506001600160a01b0381351690602001356104f5565b61022861050b565b60408051918252519081900360200190f35b61022861051d565b6101636004803603606081101561025857600080fd5b506001600160a01b03813581169160208101359091169060400135610523565b61028061059b565b6040805160ff9092168252519081900360200190f35b6102286105a0565b610163600480360360608110156102b457600080fd5b506001600160a01b038135811691602081013590911690604001356105a4565b610163600480360360408110156102ea57600080fd5b506001600160a01b0381351690602001356105b1565b6102286105ed565b6103346004803603604081101561031e57600080fd5b506001600160a01b038135169060200135610611565b005b6103346004803603604081101561034c57600080fd5b506001600160a01b038135169060200135610640565b61017f61064a565b6102286004803603602081101561038057600080fd5b50356001600160a01b0316610665565b610228600480360360208110156103a657600080fd5b50356001600160a01b0316610680565b6103be61069b565b604080516001600160a01b039092168252519081900360200190f35b610163600480360360408110156103f057600080fd5b506001600160a01b0381351690602001356106bf565b6101636004803603604081101561041c57600080fd5b506001600160a01b038135169060200135610714565b6103be61072a565b610334600480360360e081101561045057600080fd5b506001600160a01b03813581169160208101359091169060408101359060608101359060ff6080820135169060a08101359060c0013561074e565b610228600480360360408110156104a157600080fd5b506001600160a01b0381358116916020013516610933565b61022861095e565b60006104ce848484610a80565b9392505050565b6040805180820190915260058152645341424c4560d81b60208201525b90565b6000610502338484610a80565b50600192915050565b60008051602061108b83398151915290565b60025490565b600061052e83610b6c565b610539848484610c6c565b610591843361058c85604051806060016040528060288152602001611043602891396001600160a01b038a166000908152600160209081526040808320338452909152902054919063ffffffff610db616565b610a80565b5060019392505050565b601290565b4690565b60006104ce848484610c6c565b3360008181526001602090815260408083206001600160a01b0387168452909152812054909161050291859061058c908663ffffffff610a2816565b7f000000000000000000000000000000000000000000000000000000000000000090565b61063c827f000000000000000000000000000000000000000000000000000000000000000083610c6c565b5050565b61063c8282610e4d565b6040805180820190915260018152603160f81b602082015290565b6001600160a01b031660009081526020819052604090205490565b6001600160a01b031660009081526003602052604090205490565b7f000000000000000000000000000000000000000000000000000000000000000081565b6000610502338461058c8560405180606001604052806025815260200161112e602591393360009081526001602090815260408083206001600160a01b038d168452909152902054919063ffffffff610db616565b600061071f83610b6c565b610502338484610c6c565b7f000000000000000000000000000000000000000000000000000000000000000081565b4284101561079d576040805162461bcd60e51b81526020600482015260176024820152765341424c453a206578706972656420646561646c696e6560481b604482015290519081900360640190fd5b60006107a761095e565b6001600160a01b03808a16600081815260036020908152604080832080546001808201909255825160008051602061108b8339815191528186015280840196909652958e166060860152608085018d905260a085019590955260c08085018c90528151808603909101815260e08501825280519083012061190160f01b6101008601526101028501969096526101228085019690965280518085039096018652610142840180825286519683019690962095839052610162840180825286905260ff8a166101828501526101a284018990526101c284018890525194955090936101e280840193601f198301929081900390910190855afa1580156108b0573d6000803e3d6000fd5b505050602060405103519050886001600160a01b0316816001600160a01b03161461091d576040805162461bcd60e51b81526020600482015260186024820152775341424c453a20696e76616c6964207369676e617475726560401b604482015290519081900360640190fd5b610928898989610a80565b505050505050505050565b6001600160a01b03918216600090815260016020908152604080832093909416825291909152205490565b60007f00000000000000000000000000000000000000000000000000000000000000006109896105a0565b14156109b657507f00000000000000000000000000000000000000000000000000000000000000006104f2565b610a217f8b73c3c69bb8fe3d512ecc4cf759cc79239f7b179b0ffacaa9a75d522b39400f7f00000000000000000000000000000000000000000000000000000000000000007f0000000000000000000000000000000000000000000000000000000000000000610f2b565b90506104f2565b6000828201838110156104ce576040805162461bcd60e51b815260206004820152601b60248201527a536166654d6174683a206164646974696f6e206f766572666c6f7760281b604482015290519081900360640190fd5b6001600160a01b038316610ac55760405162461bcd60e51b815260040180806020018281038252602481526020018061110a6024913960400191505060405180910390fd5b6001600160a01b038216610b0a5760405162461bcd60e51b8152600401808060200182810382526022815260200180610ffb6022913960400191505060405180910390fd5b6001600160a01b03808416600081815260016020908152604080832094871680845294825291829020859055815185815291517f8c5be1e5ebec7d5bd14f71427d1e84f3dd0314c0f7b2291e5b200ac8c7c3b9259281900390910190a3505050565b6001600160a01b03811615801590610b8d57506001600160a01b0381163014155b610bc85760405162461bcd60e51b8152600401808060200182810382526056815260200180610fa56056913960600191505060405180910390fd5b336001600160a01b037f00000000000000000000000000000000000000000000000000000000000000001614610c69577f00000000000000000000000000000000000000000000000000000000000000006001600160a01b0316816001600160a01b03161415610c695760405162461bcd60e51b815260040180806020018281038252603a8152602001806110d0603a913960400191505060405180910390fd5b50565b6001600160a01b038316610cb15760405162461bcd60e51b81526004018080602001828103825260258152602001806110ab6025913960400191505060405180910390fd5b6001600160a01b038216610cf65760405162461bcd60e51b8152600401808060200182810382526023815260200180610f826023913960400191505060405180910390fd5b610d398160405180606001604052806026815260200161101d602691396001600160a01b038616600090815260208190526040902054919063ffffffff610db616565b6001600160a01b038085166000908152602081905260408082209390935590841681522054610d6e908263ffffffff610a2816565b6001600160a01b0380841660008181526020818152604091829020949094558051858152905191939287169260008051602061106b83398151915292918290030190a3505050565b60008184841115610e455760405162461bcd60e51b81526004018080602001828103825283818151815260200191508051906020019080838360005b83811015610e0a578181015183820152602001610df2565b50505050905090810190601f168015610e375780820380516001836020036101000a031916815260200191505b509250505060405180910390fd5b505050900390565b6001600160a01b038216610ea8576040805162461bcd60e51b815260206004820152601f60248201527f45524332303a206d696e7420746f20746865207a65726f206164647265737300604482015290519081900360640190fd5b600254610ebb908263ffffffff610a2816565b6002556001600160a01b038216600090815260208190526040902054610ee7908263ffffffff610a2816565b6001600160a01b03831660008181526020818152604080832094909455835185815293519293919260008051602061106b8339815191529281900390910190a35050565b6000838383610f386105a0565b6040805160208082019690965280820194909452606084019290925260808301523060a0808401919091528151808403909101815260c09092019052805191012094935050505056fe45524332303a207472616e7366657220746f20746865207a65726f20616464726573735341424c453a2043616e6e6f74207472616e7366657220746f6b656e73206469726563746c7920746f20746865205341424c4520746f6b656e20636f6e7472616374206f7220746865207a65726f206164647265737345524332303a20617070726f766520746f20746865207a65726f206164647265737345524332303a207472616e7366657220616d6f756e7420657863656564732062616c616e636545524332303a207472616e7366657220616d6f756e74206578636565647320616c6c6f77616e6365ddf252ad1be2c89b69c2b068fc378daa952ba7f163c4a11628f55a4df523b3ef6e71edae12b1b97f4d1f60370fef10105fa2faae0126114a169c64845d6126c945524332303a207472616e736665722066726f6d20746865207a65726f20616464726573735341424c453a2043616e6e6f74207472616e7366657220746f6b656e73206469726563746c7920746f207374616b696e6720636f6e747261637445524332303a20617070726f76652066726f6d20746865207a65726f206164647265737345524332303a2064656372656173656420616c6c6f77616e63652062656c6f77207a65726fa164736f6c634300060b000a","linkReferences":{}},"methodIdentifiers":{"allowance(address,address)":"dd62ed3e","approve(address,uint256)":"095ea7b3","balanceOf(address)":"70a08231","callInternalApprove(address,address,uint256)":"03d99946","callInternalTransfer(address,address,uint256)":"387a54d9","decimals()":"313ce567","decreaseAllowance(address,uint256)":"a457c2d7","domainSeparator()":"f698da25","getChainId()":"3408e470","getDeploymentStartTime()":"3c84b7c2","increaseAllowance(address,uint256)":"39509351","name()":"06fdde03","nonces(address)":"7ecebe00","permit(address,address,uint256,uint256,uint8,bytes32,bytes32)":"d505accf","permitTypeHash()":"10ce43bd","sableRewarderAddress()":"d014d393","sableStakingAddress()":"8d0a3b08","symbol()":"95d89b41","totalSupply()":"18160ddd","transfer(address,uint256)":"a9059cbb","transferFrom(address,address,uint256)":"23b872dd","unprotectedMint(address,uint256)":"5099f99f","unprotectedSendToSABLEStaking(address,uint256)":"3e3aed5b","version()":"54fd4d50"},"id":93}