{"abi":[{"type":"function","name":"DECIMAL_PRECISION","inputs":[],"outputs":[{"name":"","type":"uint256","internalType":"uint256"}],"stateMutability":"view"},{"type":"function","name":"MAX_ORACLE_RATE_PERCENTAGE","inputs":[],"outputs":[{"name":"","type":"uint256","internalType":"uint256"}],"stateMutability":"view"},{"type":"function","name":"getOracleRate","inputs":[{"name":"oracleKey","type":"bytes32","internalType":"bytes32"},{"name":"deviationPyth","type":"uint256","internalType":"uint256"},{"name":"publishTimePyth","type":"uint256","internalType":"uint256"}],"outputs":[{"name":"oracleRate","type":"uint256","internalType":"uint256"}],"stateMutability":"view"}],"bytecode":{"object":"0x608060405234801561001057600080fd5b506103bb806100206000396000f3fe608060405234801561001057600080fd5b50600436106100415760003560e01c8063374438d614610046578063a20baee614610081578063fb2ba76f14610089575b600080fd5b61006f6004803603606081101561005c57600080fd5b5080359060208101359060400135610091565b60408051918252519081900360200190f35b61006f61013f565b61006f61014b565b6000630a0b2a8960e31b84141561012e5760008242116100c0576100bb834263ffffffff61015616565b6100d0565b6100d0428463ffffffff61015616565b905061010c6100ff6127106100f384670de0b6b3a764000063ffffffff6101a116565b9063ffffffff6101fa16565b859063ffffffff61023916565b91506608e1bc9bf04000821115610128576608e1bc9bf0400091505b50610138565b506608e1bc9bf040005b9392505050565b670de0b6b3a764000081565b6608e1bc9bf0400081565b600061019883836040518060400160405280601e81526020017f536166654d6174683a207375627472616374696f6e206f766572666c6f770000815250610291565b90505b92915050565b6000826101b05750600061019b565b828202828482816101bd57fe5b04146101985760405162461bcd60e51b815260040180806020018281038252602181526020018061038e6021913960400191505060405180910390fd5b600061019883836040518060400160405280601a815260200179536166654d6174683a206469766973696f6e206279207a65726f60301b815250610328565b600082820183811015610198576040805162461bcd60e51b815260206004820152601b60248201527a536166654d6174683a206164646974696f6e206f766572666c6f7760281b604482015290519081900360640190fd5b600081848411156103205760405162461bcd60e51b81526004018080602001828103825283818151815260200191508051906020019080838360005b838110156102e55781810151838201526020016102cd565b50505050905090810190601f1680156103125780820380516001836020036101000a031916815260200191505b509250505060405180910390fd5b505050900390565b600081836103775760405162461bcd60e51b81526020600482018181528351602484015283519092839260449091019190850190808383600083156102e55781810151838201526020016102cd565b50600083858161038357fe5b049594505050505056fe536166654d6174683a206d756c7469706c69636174696f6e206f766572666c6f77a164736f6c634300060b000a","linkReferences":{}},"methodIdentifiers":{"DECIMAL_PRECISION()":"a20baee6","MAX_ORACLE_RATE_PERCENTAGE()":"fb2ba76f","getOracleRate(bytes32,uint256,uint256)":"374438d6"},"id":60}