{"abi":[{"type":"receive","stateMutability":"payable"},{"type":"function","name":"DECIMAL_PRECISION","inputs":[],"outputs":[{"name":"","type":"uint256","internalType":"uint256"}],"stateMutability":"view"},{"type":"function","name":"NAME","inputs":[],"outputs":[{"name":"","type":"string","internalType":"string"}],"stateMutability":"view"},{"type":"function","name":"P","inputs":[],"outputs":[{"name":"","type":"uint256","internalType":"uint256"}],"stateMutability":"view"},{"type":"function","name":"PERCENT_DIVISOR","inputs":[],"outputs":[{"name":"","type":"uint256","internalType":"uint256"}],"stateMutability":"view"},{"type":"function","name":"SCALE_FACTOR","inputs":[],"outputs":[{"name":"","type":"uint256","internalType":"uint256"}],"stateMutability":"view"},{"type":"function","name":"_100pct","inputs":[],"outputs":[{"name":"","type":"uint256","internalType":"uint256"}],"stateMutability":"view"},{"type":"function","name":"activePool","inputs":[],"outputs":[{"name":"","type":"address","internalType":"contract IActivePool"}],"stateMutability":"view"},{"type":"function","name":"borrowerOperations","inputs":[],"outputs":[{"name":"","type":"address","internalType":"contract IBorrowerOperations"}],"stateMutability":"view"},{"type":"function","name":"communityIssuance","inputs":[],"outputs":[{"name":"","type":"address","internalType":"contract ICommunityIssuance"}],"stateMutability":"view"},{"type":"function","name":"currentEpoch","inputs":[],"outputs":[{"name":"","type":"uint128","internalType":"uint128"}],"stateMutability":"view"},{"type":"function","name":"currentScale","inputs":[],"outputs":[{"name":"","type":"uint128","internalType":"uint128"}],"stateMutability":"view"},{"type":"function","name":"defaultPool","inputs":[],"outputs":[{"name":"","type":"address","internalType":"contract IDefaultPool"}],"stateMutability":"view"},{"type":"function","name":"depositSnapshots","inputs":[{"name":"","type":"address","internalType":"address"}],"outputs":[{"name":"S","type":"uint256","internalType":"uint256"},{"name":"P","type":"uint256","internalType":"uint256"},{"name":"G","type":"uint256","internalType":"uint256"},{"name":"scale","type":"uint128","internalType":"uint128"},{"name":"epoch","type":"uint128","internalType":"uint128"}],"stateMutability":"view"},{"type":"function","name":"deposits","inputs":[{"name":"","type":"address","internalType":"address"}],"outputs":[{"name":"initialValue","type":"uint256","internalType":"uint256"},{"name":"frontEndTag","type":"address","internalType":"address"}],"stateMutability":"view"},{"type":"function","name":"epochToScaleToG","inputs":[{"name":"","type":"uint128","internalType":"uint128"},{"name":"","type":"uint128","internalType":"uint128"}],"outputs":[{"name":"","type":"uint256","internalType":"uint256"}],"stateMutability":"view"},{"type":"function","name":"epochToScaleToSum","inputs":[{"name":"","type":"uint128","internalType":"uint128"},{"name":"","type":"uint128","internalType":"uint128"}],"outputs":[{"name":"","type":"uint256","internalType":"uint256"}],"stateMutability":"view"},{"type":"function","name":"frontEndSnapshots","inputs":[{"name":"","type":"address","internalType":"address"}],"outputs":[{"name":"S","type":"uint256","internalType":"uint256"},{"name":"P","type":"uint256","internalType":"uint256"},{"name":"G","type":"uint256","internalType":"uint256"},{"name":"scale","type":"uint128","internalType":"uint128"},{"name":"epoch","type":"uint128","internalType":"uint128"}],"stateMutability":"view"},{"type":"function","name":"frontEndStakes","inputs":[{"name":"","type":"address","internalType":"address"}],"outputs":[{"name":"","type":"uint256","internalType":"uint256"}],"stateMutability":"view"},{"type":"function","name":"frontEnds","inputs":[{"name":"","type":"address","internalType":"address"}],"outputs":[{"name":"kickbackRate","type":"uint256","internalType":"uint256"},{"name":"registered","type":"bool","internalType":"bool"}],"stateMutability":"view"},{"type":"function","name":"getBNB","inputs":[],"outputs":[{"name":"","type":"uint256","internalType":"uint256"}],"stateMutability":"view"},{"type":"function","name":"getCompoundedFrontEndStake","inputs":[{"name":"_frontEnd","type":"address","internalType":"address"}],"outputs":[{"name":"","type":"uint256","internalType":"uint256"}],"stateMutability":"view"},{"type":"function","name":"getCompoundedUSDSDeposit","inputs":[{"name":"_depositor","type":"address","internalType":"address"}],"outputs":[{"name":"","type":"uint256","internalType":"uint256"}],"stateMutability":"view"},{"type":"function","name":"getDepositorBNBGain","inputs":[{"name":"_depositor","type":"address","internalType":"address"}],"outputs":[{"name":"","type":"uint256","internalType":"uint256"}],"stateMutability":"view"},{"type":"function","name":"getDepositorSABLEGain","inputs":[{"name":"_depositor","type":"address","internalType":"address"}],"outputs":[{"name":"","type":"uint256","internalType":"uint256"}],"stateMutability":"view"},{"type":"function","name":"getEntireSystemColl","inputs":[],"outputs":[{"name":"entireSystemColl","type":"uint256","internalType":"uint256"}],"stateMutability":"view"},{"type":"function","name":"getEntireSystemDebt","inputs":[],"outputs":[{"name":"entireSystemDebt","type":"uint256","internalType":"uint256"}],"stateMutability":"view"},{"type":"function","name":"getFrontEndSABLEGain","inputs":[{"name":"_frontEnd","type":"address","internalType":"address"}],"outputs":[{"name":"","type":"uint256","internalType":"uint256"}],"stateMutability":"view"},{"type":"function","name":"getTotalUSDSDeposits","inputs":[],"outputs":[{"name":"","type":"uint256","internalType":"uint256"}],"stateMutability":"view"},{"type":"function","name":"isOwner","inputs":[],"outputs":[{"name":"","type":"bool","internalType":"bool"}],"stateMutability":"view"},{"type":"function","name":"lastBNBError_Offset","inputs":[],"outputs":[{"name":"","type":"uint256","internalType":"uint256"}],"stateMutability":"view"},{"type":"function","name":"lastSABLEError","inputs":[],"outputs":[{"name":"","type":"uint256","internalType":"uint256"}],"stateMutability":"view"},{"type":"function","name":"lastUSDSLossError_Offset","inputs":[],"outputs":[{"name":"","type":"uint256","internalType":"uint256"}],"stateMutability":"view"},{"type":"function","name":"offset","inputs":[{"name":"_debtToOffset","type":"uint256","internalType":"uint256"},{"name":"_collToAdd","type":"uint256","internalType":"uint256"}],"outputs":[],"stateMutability":"nonpayable"},{"type":"function","name":"owner","inputs":[],"outputs":[{"name":"","type":"address","internalType":"address"}],"stateMutability":"view"},{"type":"function","name":"ownerTriggerIssuance","inputs":[],"outputs":[],"stateMutability":"nonpayable"},{"type":"function","name":"priceFeed","inputs":[],"outputs":[{"name":"","type":"address","internalType":"contract IPriceFeed"}],"stateMutability":"view"},{"type":"function","name":"provideToSP","inputs":[{"name":"_amount","type":"uint256","internalType":"uint256"},{"name":"_frontEndTag","type":"address","internalType":"address"}],"outputs":[],"stateMutability":"nonpayable"},{"type":"function","name":"registerFrontEnd","inputs":[{"name":"_kickbackRate","type":"uint256","internalType":"uint256"}],"outputs":[],"stateMutability":"nonpayable"},{"type":"function","name":"setParams","inputs":[{"name":"_borrowerOperationsAddress","type":"address","internalType":"address"},{"name":"_troveManagerAddress","type":"address","internalType":"address"},{"name":"_activePoolAddress","type":"address","internalType":"address"},{"name":"_usdsTokenAddress","type":"address","internalType":"address"},{"name":"_sortedTrovesAddress","type":"address","internalType":"address"},{"name":"_priceFeedAddress","type":"address","internalType":"address"},{"name":"_communityIssuanceAddress","type":"address","internalType":"address"},{"name":"_systemStateAddress","type":"address","internalType":"address"}],"outputs":[],"stateMutability":"nonpayable"},{"type":"function","name":"sortedTroves","inputs":[],"outputs":[{"name":"","type":"address","internalType":"contract ISortedTroves"}],"stateMutability":"view"},{"type":"function","name":"systemState","inputs":[],"outputs":[{"name":"","type":"address","internalType":"contract ISystemState"}],"stateMutability":"view"},{"type":"function","name":"timeLock","inputs":[],"outputs":[{"name":"","type":"address","internalType":"address"}],"stateMutability":"view"},{"type":"function","name":"troveManager","inputs":[],"outputs":[{"name":"","type":"address","internalType":"contract ITroveManager"}],"stateMutability":"view"},{"type":"function","name":"usdsToken","inputs":[],"outputs":[{"name":"","type":"address","internalType":"contract IUSDSToken"}],"stateMutability":"view"},{"type":"function","name":"withdrawBNBGainToTrove","inputs":[{"name":"_upperHint","type":"address","internalType":"address"},{"name":"_lowerHint","type":"address","internalType":"address"},{"name":"priceFeedUpdateData","type":"bytes[]","internalType":"bytes[]"}],"outputs":[],"stateMutability":"nonpayable"},{"type":"function","name":"withdrawFromSP","inputs":[{"name":"_amount","type":"uint256","internalType":"uint256"},{"name":"priceFeedUpdateData","type":"bytes[]","internalType":"bytes[]"}],"outputs":[],"stateMutability":"nonpayable"},{"type":"event","name":"ActivePoolAddressChanged","inputs":[{"name":"_newActivePoolAddress","type":"address","indexed":false,"internalType":"address"}],"anonymous":false},{"type":"event","name":"BNBGainWithdrawn","inputs":[{"name":"_depositor","type":"address","indexed":true,"internalType":"address"},{"name":"_BNB","type":"uint256","indexed":false,"internalType":"uint256"},{"name":"_USDSLoss","type":"uint256","indexed":false,"internalType":"uint256"}],"anonymous":false},{"type":"event","name":"BorrowerOperationsAddressChanged","inputs":[{"name":"_newBorrowerOperationsAddress","type":"address","indexed":false,"internalType":"address"}],"anonymous":false},{"type":"event","name":"CommunityIssuanceAddressChanged","inputs":[{"name":"_newCommunityIssuanceAddress","type":"address","indexed":false,"internalType":"address"}],"anonymous":false},{"type":"event","name":"DefaultPoolAddressChanged","inputs":[{"name":"_newDefaultPoolAddress","type":"address","indexed":false,"internalType":"address"}],"anonymous":false},{"type":"event","name":"DepositSnapshotUpdated","inputs":[{"name":"_depositor","type":"address","indexed":true,"internalType":"address"},{"name":"_P","type":"uint256","indexed":false,"internalType":"uint256"},{"name":"_S","type":"uint256","indexed":false,"internalType":"uint256"},{"name":"_G","type":"uint256","indexed":false,"internalType":"uint256"}],"anonymous":false},{"type":"event","name":"EpochUpdated","inputs":[{"name":"_currentEpoch","type":"uint128","indexed":false,"internalType":"uint128"}],"anonymous":false},{"type":"event","name":"EtherSent","inputs":[{"name":"_to","type":"address","indexed":false,"internalType":"address"},{"name":"_amount","type":"uint256","indexed":false,"internalType":"uint256"}],"anonymous":false},{"type":"event","name":"FrontEndRegistered","inputs":[{"name":"_frontEnd","type":"address","indexed":true,"internalType":"address"},{"name":"_kickbackRate","type":"uint256","indexed":false,"internalType":"uint256"}],"anonymous":false},{"type":"event","name":"FrontEndSnapshotUpdated","inputs":[{"name":"_frontEnd","type":"address","indexed":true,"internalType":"address"},{"name":"_P","type":"uint256","indexed":false,"internalType":"uint256"},{"name":"_G","type":"uint256","indexed":false,"internalType":"uint256"}],"anonymous":false},{"type":"event","name":"FrontEndStakeChanged","inputs":[{"name":"_frontEnd","type":"address","indexed":true,"internalType":"address"},{"name":"_newFrontEndStake","type":"uint256","indexed":false,"internalType":"uint256"},{"name":"_depositor","type":"address","indexed":false,"internalType":"address"}],"anonymous":false},{"type":"event","name":"FrontEndTagSet","inputs":[{"name":"_depositor","type":"address","indexed":true,"internalType":"address"},{"name":"_frontEnd","type":"address","indexed":true,"internalType":"address"}],"anonymous":false},{"type":"event","name":"G_Updated","inputs":[{"name":"_G","type":"uint256","indexed":false,"internalType":"uint256"},{"name":"_epoch","type":"uint128","indexed":false,"internalType":"uint128"},{"name":"_scale","type":"uint128","indexed":false,"internalType":"uint128"}],"anonymous":false},{"type":"event","name":"OwnershipTransferred","inputs":[{"name":"previousOwner","type":"address","indexed":true,"internalType":"address"},{"name":"newOwner","type":"address","indexed":true,"internalType":"address"}],"anonymous":false},{"type":"event","name":"P_Updated","inputs":[{"name":"_P","type":"uint256","indexed":false,"internalType":"uint256"}],"anonymous":false},{"type":"event","name":"PriceFeedAddressChanged","inputs":[{"name":"_newPriceFeedAddress","type":"address","indexed":false,"internalType":"address"}],"anonymous":false},{"type":"event","name":"SABLEPaidToDepositor","inputs":[{"name":"_depositor","type":"address","indexed":true,"internalType":"address"},{"name":"_SABLE","type":"uint256","indexed":false,"internalType":"uint256"}],"anonymous":false},{"type":"event","name":"SABLEPaidToFrontEnd","inputs":[{"name":"_frontEnd","type":"address","indexed":true,"internalType":"address"},{"name":"_SABLE","type":"uint256","indexed":false,"internalType":"uint256"}],"anonymous":false},{"type":"event","name":"S_Updated","inputs":[{"name":"_S","type":"uint256","indexed":false,"internalType":"uint256"},{"name":"_epoch","type":"uint128","indexed":false,"internalType":"uint128"},{"name":"_scale","type":"uint128","indexed":false,"internalType":"uint128"}],"anonymous":false},{"type":"event","name":"ScaleUpdated","inputs":[{"name":"_currentScale","type":"uint128","indexed":false,"internalType":"uint128"}],"anonymous":false},{"type":"event","name":"SortedTrovesAddressChanged","inputs":[{"name":"_newSortedTrovesAddress","type":"address","indexed":false,"internalType":"address"}],"anonymous":false},{"type":"event","name":"StabilityPoolBNBBalanceUpdated","inputs":[{"name":"_newBalance","type":"uint256","indexed":false,"internalType":"uint256"}],"anonymous":false},{"type":"event","name":"StabilityPoolUSDSBalanceUpdated","inputs":[{"name":"_newBalance","type":"uint256","indexed":false,"internalType":"uint256"}],"anonymous":false},{"type":"event","name":"SystemStateAddressChanged","inputs":[{"name":"_newSystemStateAddress","type":"address","indexed":false,"internalType":"address"}],"anonymous":false},{"type":"event","name":"TroveManagerAddressChanged","inputs":[{"name":"_newTroveManagerAddress","type":"address","indexed":false,"internalType":"address"}],"anonymous":false},{"type":"event","name":"USDSTokenAddressChanged","inputs":[{"name":"_newUSDSTokenAddress","type":"address","indexed":false,"internalType":"address"}],"anonymous":false},{"type":"event","name":"UserDepositChanged","inputs":[{"name":"_depositor","type":"address","indexed":true,"internalType":"address"},{"name":"_newDeposit","type":"uint256","indexed":false,"internalType":"uint256"}],"anonymous":false}],"bytecode":{"object":"0x6080604052670de0b6b3a764000060125534801561001c57600080fd5b50600580546001600160a01b031916339081179091556040516000907f8be0079c531659141344cd1fd0a4f28419497f9722a3daafe3b4186f6b6457e0908290a3613cab8061006c6000396000f3fe6080604052600436106102115760003560e01c80630e1cfec91461026157806316b9d3c51461028c5780631f08498c146102bd57806323b36a81146102dd578063250ffbec146102fd57806328a0a04d1461031f5780632a7e19c31461033f578063335525ad1461035f5780633927e0061461037f5780633cc74225146103945780633d83908a146103b65780634870dd9a146103cb578063556be101146103e05780635d2de642146104005780635f788d651461042057806372fe25aa1461044057806373fc5fcd14610455578063741bef1a14610475578063766718081461048a57806377553ad4146104ac57806378a619de146104c1578063795d26c3146104d65780637f7dde4a146104eb57806382e0a57414610500578063848bb7c61461052057806386da082414610535578063887105d3146105555780638b8fbd921461056a5780638da5cb5b1461057f5780638f32d59b1461059457806395fb16bb146105b6578063991292e3146105cb5780639aca71b0146105e0578063a20baee614610440578063a3f4df7e146105f5578063a4e59ac814610617578063a7bfff971461062c578063ae9187541461065a578063ce4b5bbe1461066f578063ce538bee14610684578063d085835a146106a4578063df9cd84f146106b9578063f6d706c1146106d9578063f8f8d174146106ee578063fc55bd1614610703578063fc7e286d146107235761025c565b3661025c5761021e610751565b600b54610231903463ffffffff61078616565b600b819055604051600080516020613c5f8339815191529161025291613acb565b60405180910390a1005b600080fd5b34801561026d57600080fd5b506102766107b4565b6040516102839190613acb565b60405180910390f35b34801561029857600080fd5b506102ac6102a73660046130c7565b6107ba565b604051610283959493929190613b1a565b3480156102c957600080fd5b506102766102d83660046130c7565b6107f5565b3480156102e957600080fd5b506102766102f83660046130c7565b61089d565b34801561030957600080fd5b5061031d6103183660046132fc565b6109a1565b005b34801561032b57600080fd5b5061027661033a366004613269565b610b43565b34801561034b57600080fd5b5061031d61035a3660046130ff565b610b60565b34801561036b57600080fd5b5061031d61037a366004613345565b610e11565b34801561038b57600080fd5b50610276610e75565b3480156103a057600080fd5b506103a9610e7b565b6040516102839190613404565b3480156103c257600080fd5b506103a9610e8a565b3480156103d757600080fd5b50610276610e99565b3480156103ec57600080fd5b5061031d6103fb36600461329d565b610e9e565b34801561040c57600080fd5b5061027661041b3660046130c7565b610f16565b34801561042c57600080fd5b5061031d61043b3660046132cd565b610f28565b34801561044c57600080fd5b506102766110cb565b34801561046157600080fd5b506102766104703660046130c7565b6110d7565b34801561048157600080fd5b506103a9611174565b34801561049657600080fd5b5061049f611183565b6040516102839190613ab7565b3480156104b857600080fd5b506103a9611199565b3480156104cd57600080fd5b506102766111a8565b3480156104e257600080fd5b506102766111ae565b3480156104f757600080fd5b506103a96112da565b34801561050c57600080fd5b5061027661051b366004613269565b6112e9565b34801561052c57600080fd5b5061031d611306565b34801561054157600080fd5b506102ac6105503660046130c7565b611323565b34801561056157600080fd5b5061027661135e565b34801561057657600080fd5b50610276611439565b34801561058b57600080fd5b506103a961143f565b3480156105a057600080fd5b506105a961144e565b60405161028391906134a6565b3480156105c257600080fd5b506103a961145f565b3480156105d757600080fd5b506103a961146e565b3480156105ec57600080fd5b5061027661147d565b34801561060157600080fd5b5061060a611483565b60405161028391906134d5565b34801561062357600080fd5b5061049f6114ac565b34801561063857600080fd5b5061064c6106473660046130c7565b6114bb565b604051610283929190613aeb565b34801561066657600080fd5b506103a96114d7565b34801561067b57600080fd5b506102766114e6565b34801561069057600080fd5b5061027661069f3660046130c7565b6114ee565b3480156106b057600080fd5b506103a96115eb565b3480156106c557600080fd5b506102766106d43660046130c7565b6115fa565b3480156106e557600080fd5b50610276611697565b3480156106fa57600080fd5b506103a961169d565b34801561070f57600080fd5b5061031d61071e3660046131a7565b6116ac565b34801561072f57600080fd5b5061074361073e3660046130c7565b6118e6565b604051610283929190613ad4565b6001546001600160a01b031633146107845760405162461bcd60e51b815260040161077b906135c9565b60405180910390fd5b565b6000828201838110156107ab5760405162461bcd60e51b815260040161077b90613528565b90505b92915050565b60185481565b6011602052600090815260409020805460018201546002830154600390930154919290916001600160801b0380821691600160801b90041685565b6001600160a01b0381166000908152600d60205260408120548061081d576000915050610898565b610825612ffc565b506001600160a01b0383166000908152600e60209081526040808320815160a08101835281548152600182015493810193909352600281015491830191909152600301546001600160801b038082166060840152600160801b909104166080820152906108928383611908565b93505050505b919050565b6001600160a01b038116600090815260106020526040812054806108c5576000915050610898565b6001600160a01b0383166000908152600f6020526040812054906108f7670de0b6b3a76400008363ffffffff611a0416565b9050610901612ffc565b506001600160a01b0385166000908152601160209081526040808320815160a08101835281548152600182015493810193909352600281015491830191909152600301546001600160801b038082166060840152600160801b90910416608082015290610996670de0b6b3a764000061098a61097d8886611a46565b869063ffffffff611b3816565b9063ffffffff611b7216565b979650505050505050565b82156109b1576109b18282611bb1565b336000908152600d60205260409020546109ca81611e04565b600a546001600160a01b03166109df81611e27565b60006109ea336110d7565b905060006109f7336107f5565b90506000610a058883611ea7565b90506000610a19868463ffffffff611a0416565b336000818152600d60205260409020600101549192506001600160a01b0390911690610a4790879083611ebd565b6000610a52826115fa565b90506000610a66828663ffffffff611a0416565b9050610a728382612032565b826001600160a01b0316600080516020613c7f8339815191528233604051610a9b929190613ad4565b60405180910390a2610aad3386612156565b6000610abf878763ffffffff611a0416565b9050610acb33826121cf565b336001600160a01b0316600080516020613b9f83398151915282604051610af29190613acb565b60405180910390a2336001600160a01b0316600080516020613b7f8339815191528987604051610b239291906134b1565b60405180910390a2610b3488612320565b50505050505050505050505050565b601460209081526000928352604080842090915290825290205481565b610b6861144e565b610b845760405162461bcd60e51b815260040161077b906136e9565b610b8d88612416565b610b9687612416565b610b9f86612416565b610ba885612416565b610bb184612416565b610bba83612416565b610bc382612416565b610bcc81612416565b600680546001600160a01b03199081166001600160a01b038b8116919091179092556007805482168a8416179055600180548216898416179055600880548216888416179055600980548216878416179055600380548216868416179055600a80548216858416179055600480549091169183169190911790556040517f3ca631ffcd2a9b5d9ae18543fc82f58eb4ca33af9e6ab01b7a8e95331e6ed98590610c76908a90613404565b60405180910390a17f143219c9e69b09e07e095fcc889b43d8f46ca892bba65f08dc3a0050869a567887604051610cad9190613404565b60405180910390a17f78f058b189175430c48dc02699e3a0031ea4ff781536dc2fab847de4babdd88286604051610ce49190613404565b60405180910390a17f77b26272f42e99a3561f9dadc496d25589af0c1ebb03221e752e439015dd0d6385604051610d1b9190613404565b60405180910390a17f65f4cf077bc01e4742eb5ad98326f6e95b63548ea24b17f8d5e823111fe7880084604051610d529190613404565b60405180910390a17f8c537274438aa850a330284665d81a85dd38267d09e4050d416bfc94142db26483604051610d899190613404565b60405180910390a17f3055265812fb8447b9ada4a5d804ec43bd528ec40e89c952bbc7b85dc5ac681182604051610dc09190613404565b60405180910390a17f496a1a8082b26acb3aeec16a7ecb48e279f82c31f09bfa4e08cb69ce93fea7fe81604051610df79190613404565b60405180910390a1610e0761245b565b5050505050505050565b610e196124a5565b600c54801580610e27575082155b15610e325750610e71565b600a54610e47906001600160a01b0316611e27565b600080610e558486856124cf565b91509150610e6382826125c8565b610e6d84866128a8565b5050505b5050565b600c5490565b6002546001600160a01b031681565b6007546001600160a01b031681565b60c881565b610ea7336129de565b610eb033612a1a565b610eb981612a51565b336000818152600f6020526040908190208381556001908101805460ff19169091179055517f19bc932fb9e16a8b5a1e41be9f4c2de59d5ddd7567b8b81405f532ca00a9880e90610f0b908490613acb565b60405180910390a250565b60106020526000908152604090205481565b610f3181612a79565b610f3a336129de565b610f4382612ac6565b336000908152600d6020526040902054600a546001600160a01b0316610f6881611e27565b81610f7757610f773384612ae6565b6000610f82336110d7565b90506000610f8f336107f5565b90506000610fa3858363ffffffff611a0416565b336000818152600d60205260409020600101549192506001600160a01b0390911690610fd190869083611ebd565b6000610fdc826115fa565b90506000610ff0828b63ffffffff61078616565b9050610ffc8382612032565b826001600160a01b0316600080516020613c7f8339815191528233604051611025929190613ad4565b60405180910390a2611037338b612b40565b6000611049868c63ffffffff61078616565b905061105533826121cf565b336001600160a01b0316600080516020613b9f8339815191528260405161107c9190613acb565b60405180910390a2336001600160a01b0316600080516020613b7f83398151915288876040516110ad9291906134b1565b60405180910390a26110be87612320565b5050505050505050505050565b670de0b6b3a764000081565b6001600160a01b0381166000908152600d6020526040812054806110ff576000915050610898565b611107612ffc565b506001600160a01b0383166000908152600e60209081526040808320815160a08101835281548152600182015493810193909352600281015491830191909152600301546001600160801b038082166060840152600160801b909104166080820152906108928383612bef565b6003546001600160a01b031681565b601354600160801b90046001600160801b031681565b6006546001600160a01b031681565b600b5490565b600080600160009054906101000a90046001600160a01b03166001600160a01b0316635227d6a86040518163ffffffff1660e01b815260040160206040518083038186803b1580156111ff57600080fd5b505afa158015611213573d6000803e3d6000fd5b505050506040513d601f19601f8201168201806040525081019061123791906132b5565b90506000600260009054906101000a90046001600160a01b03166001600160a01b0316635227d6a86040518163ffffffff1660e01b815260040160206040518083038186803b15801561128957600080fd5b505afa15801561129d573d6000803e3d6000fd5b505050506040513d601f19601f820116820180604052508101906112c191906132b5565b90506112d3828263ffffffff61078616565b9250505090565b6001546001600160a01b031681565b601560209081526000928352604080842090915290825290205481565b61130e612c7a565b600a54610784906001600160a01b0316611e27565b600e602052600090815260409020805460018201546002830154600390930154919290916001600160801b0380821691600160801b90041685565b600080600160009054906101000a90046001600160a01b03166001600160a01b03166378a619de6040518163ffffffff1660e01b815260040160206040518083038186803b1580156113af57600080fd5b505afa1580156113c3573d6000803e3d6000fd5b505050506040513d601f19601f820116820180604052508101906113e791906132b5565b90506000600260009054906101000a90046001600160a01b03166001600160a01b03166378a619de6040518163ffffffff1660e01b815260040160206040518083038186803b15801561128957600080fd5b60125481565b6005546001600160a01b031690565b6005546001600160a01b0316331490565b600a546001600160a01b031681565b6004546001600160a01b031681565b60175481565b6040518060400160405280600d81526020016c14dd18589a5b1a5d1e541bdbdb609a1b81525081565b6013546001600160801b031681565b600f602052600090815260409020805460019091015460ff1682565b6009546001600160a01b031681565b633b9aca0081565b6001600160a01b0381166000908152600d602052604081205480611516576000915050610898565b6001600160a01b038084166000908152600d602052604081206001015490911690811561155b576001600160a01b0382166000908152600f6020526040902054611565565b670de0b6b3a76400005b905061156f612ffc565b506001600160a01b0385166000908152600e60209081526040808320815160a08101835281548152600182015493810193909352600281015491830191909152600301546001600160801b038082166060840152600160801b90910416608082015290610996670de0b6b3a764000061098a61097d8886611a46565b6000546001600160a01b031681565b6001600160a01b03811660009081526010602052604081205480611622576000915050610898565b61162a612ffc565b506001600160a01b0383166000908152601160209081526040808320815160a08101835281548152600182015493810193909352600281015491830191909152600301546001600160801b038082166060840152600160801b909104166080820152906108928383611908565b60165481565b6008546001600160a01b031681565b336000908152600d60205260409020546116c581611e04565b6116ce33612ca4565b6116d733612d43565b600a546001600160a01b03166116ec81611e27565b60006116f7336110d7565b90506000611704336107f5565b90506000611718858363ffffffff611a0416565b336000818152600d60205260409020600101549192506001600160a01b039091169061174690869083611ebd565b6000611751826115fa565b90508061175e8382612032565b826001600160a01b0316600080516020613c7f8339815191528233604051611787929190613ad4565b60405180910390a261179933866121cf565b336001600160a01b0316600080516020613b7f83398151915287866040516117c29291906134b1565b60405180910390a2336001600160a01b0316600080516020613b9f833981519152866040516117f19190613acb565b60405180910390a2600b5461180c908763ffffffff611a0416565b600b819055604051600080516020613c5f8339815191529161182d91613acb565b60405180910390a1600080516020613bdf8339815191523387604051611854929190613471565b60405180910390a1600660009054906101000a90046001600160a01b03166001600160a01b03166337ddc0af87338f8f8f8f6040518763ffffffff1660e01b81526004016118a6959493929190613418565b6000604051808303818588803b1580156118bf57600080fd5b505af11580156118d3573d6000803e3d6000fd5b5050505050505050505050505050505050565b600d60205260009081526040902080546001909101546001600160a01b031682565b6020810151606082015160808301516013546000939291906001600160801b03600160801b9091048116908216101561194757600093505050506107ae565b6013546000908190611968906001600160801b03168563ffffffff612d7016565b90506001600160801b038116611998576119918561098a6012548b611b3890919063ffffffff16565b91506119d0565b806001600160801b0316600114156119cb57611991633b9aca0061098a8761098a6012548d611b3890919063ffffffff16565b600091505b6119e488633b9aca0063ffffffff611b7216565b8210156119f9576000955050505050506107ae565b509695505050505050565b60006107ab83836040518060400160405280601e81526020017f536166654d6174683a207375627472616374696f6e206f766572666c6f770000815250612daa565b608081015160608201516040808401516020808601516001600160801b03808716600090815260158452858120918716815292529281205490949392908590611a95908463ffffffff611a0416565b6001600160801b03808716600090815260156020526040812092935091611af891633b9aca0091908490611ad2908a16600163ffffffff612dd616565b6001600160801b031681526020810191909152604001600020549063ffffffff611b7216565b90506000611b2a670de0b6b3a764000061098a8681611b1d888863ffffffff61078616565b8f9063ffffffff611b3816565b9a9950505050505050505050565b600082611b47575060006107ae565b82820282848281611b5457fe5b04146107ab5760405162461bcd60e51b815260040161077b906136a8565b60006107ab83836040518060400160405280601a815260200179536166654d6174683a206469766973696f6e206279207a65726f60301b815250612e07565b611bb961303d565b600354604051634e15f2a560e01b81526001600160a01b0390911690634e15f2a590611beb908690869060040161348a565b608060405180830381600087803b158015611c0557600080fd5b505af1158015611c19573d6000803e3d6000fd5b505050506040513d601f19601f82011682018060405250810190611c3d9190613209565b90506000600960009054906101000a90046001600160a01b03166001600160a01b0316634d6228316040518163ffffffff1660e01b815260040160206040518083038186803b158015611c8f57600080fd5b505afa158015611ca3573d6000803e3d6000fd5b505050506040513d601f19601f82011682018060405250810190611cc791906130e3565b6007548351604051630d293c7160e41b81529293506000926001600160a01b039092169163d293c71091611d0091869190600401613471565b60206040518083038186803b158015611d1857600080fd5b505afa158015611d2c573d6000803e3d6000fd5b505050506040513d601f19601f82011682018060405250810190611d5091906132b5565b90506000600460009054906101000a90046001600160a01b03166001600160a01b03166344936b106040518163ffffffff1660e01b815260040160206040518083038186803b158015611da257600080fd5b505afa158015611db6573d6000803e3d6000fd5b505050506040513d601f19601f82011682018060405250810190611dda91906132b5565b905080821015611dfc5760405162461bcd60e51b815260040161077b90613a4d565b505050505050565b60008111611e245760405162461bcd60e51b815260040161077b90613970565b50565b6000816001600160a01b031663284f997e6040518163ffffffff1660e01b8152600401602060405180830381600087803b158015611e6457600080fd5b505af1158015611e78573d6000803e3d6000fd5b505050506040513d601f19601f82011682018060405250810190611e9c91906132b5565b9050610e7181612e3e565b6000818310611eb657816107ab565b5090919050565b6001600160a01b03811615611f7d576000611ed78261089d565b604051632787733160e11b81529091506001600160a01b03851690634f0ee66290611f089085908590600401613471565b600060405180830381600087803b158015611f2257600080fd5b505af1158015611f36573d6000803e3d6000fd5b50505050816001600160a01b03167f362f19634270aca161bc0c423b2db8add2e945c10f2bcfc45ed432210604688b82604051611f739190613acb565b60405180910390a2505b6000611f88836114ee565b604051632787733160e11b81529091506001600160a01b03851690634f0ee66290611fb99086908590600401613471565b600060405180830381600087803b158015611fd357600080fd5b505af1158015611fe7573d6000803e3d6000fd5b50505050826001600160a01b03167fe02cdb8c8348be638bb6915ffafe4531b37ca6b2315beb2e6c0a0463b127f740826040516120249190613acb565b60405180910390a250505050565b6001600160a01b0382166000908152601060205260409020819055806120ab576001600160a01b038216600081815260116020526040808220828155600181018390556002810183905560030182905551600080516020613c3f8339815191529161209e9181906134b1565b60405180910390a2610e71565b6013546012546001600160801b03600160801b80840482166000818152601560209081526040808320978616808452978252808320546001600160a01b038b16808552601190935292819020600181018890556002810184905560030180546001600160801b031916891790961694840294909417909455915190939290600080516020613c3f8339815191529061214690859085906134b1565b60405180910390a2505050505050565b8061216057610e71565b600854604051631062c15f60e11b81526001600160a01b03909116906320c582be906121949030908690869060040161344d565b600060405180830381600087803b1580156121ae57600080fd5b505af11580156121c2573d6000803e3d6000fd5b50505050610e7181612f4f565b6001600160a01b0382166000908152600d602052604090208190558061225b576001600160a01b0382166000818152600d60209081526040808320600190810180546001600160a01b0319169055600e90925280832083815591820183905560028201839055600390910182905551600080516020613b5f8339815191529161209e91819081906134bf565b6013546012546001600160801b03600160801b8084048216600081815260146020908152604080832097861680845297825280832054848452601583528184208985528352818420546001600160a01b038c16808652600e90945293829020600181018990558181556002810185905560030180546001600160801b0319168a179097169585029590951790955593519194939091600080516020613b5f8339815191529061230f908690869086906134bf565b60405180910390a250505050505050565b8061232a57611e24565b600b54600090612340908363ffffffff611a0416565b905080600b81905550600080516020613c5f833981519152816040516123669190613acb565b60405180910390a1600080516020613bdf833981519152338360405161238d929190613471565b60405180910390a16000336001600160a01b0316836040516123ae90613401565b60006040518083038185875af1925050503d80600081146123eb576040519150601f19603f3d011682016040523d82523d6000602084013e6123f0565b606091505b50509050806124115760405162461bcd60e51b815260040161077b90613771565b505050565b6001600160a01b03811661243c5760405162461bcd60e51b815260040161077b906138f3565b803b80610e715760405162461bcd60e51b815260040161077b90613951565b6005546040516000916001600160a01b0316907f8be0079c531659141344cd1fd0a4f28419497f9722a3daafe3b4186f6b6457e0908390a3600580546001600160a01b0319169055565b6007546001600160a01b031633146107845760405162461bcd60e51b815260040161077b9061365f565b60008060006125016017546124f5670de0b6b3a764000089611b3890919063ffffffff16565b9063ffffffff61078616565b90508385111561250d57fe5b8385141561252a576000601855670de0b6b3a7640000915061258a565b6018546000906125589061254c88670de0b6b3a764000063ffffffff611b3816565b9063ffffffff611a0416565b905061256f60016124f5838863ffffffff611b7216565b92506125858161254c858863ffffffff611b3816565b601855505b61259a818563ffffffff611b7216565b92506125bc6125af848663ffffffff611b3816565b829063ffffffff611a0416565b60175550935093915050565b6012546000670de0b6b3a76400008311156125df57fe5b60006125f9670de0b6b3a76400008563ffffffff611a0416565b6013546001600160801b03600160801b82048116600081815260146020908152604080832094909516808352939052928320549394509092909161263d8988611b38565b90506000612651838363ffffffff61078616565b6001600160801b038086166000908152601460209081526040808320938a168352929052819020829055519091507fe12e2cd2c9afa8069203ca07e7eff1edce4a075686d0736a8e7e0d593597b207906126b090839087908990613afb565b60405180910390a185612777576126d76001600160801b038516600163ffffffff612dd616565b601380546001600160801b03908116600160801b938216840217918290556040517fb50f0f59e7cb5b421dc77581c3a9919e3806e076e5fa78a874c3f120cb7d874d93612728930490911690613ab7565b60405180910390a1601380546001600160801b0319169055604051600080516020613c1f8339815191529061275f90600090613ab7565b60405180910390a1670de0b6b3a76400009650612852565b633b9aca00612798670de0b6b3a764000061098a8b8a63ffffffff611b3816565b1015612833576127ce670de0b6b3a764000061098a633b9aca006127c28c8b63ffffffff611b3816565b9063ffffffff611b3816565b96506127ea6001600160801b038616600163ffffffff612dd616565b601380546001600160801b0319166001600160801b039283161790819055604051600080516020613c1f83398151915292612826921690613ab7565b60405180910390a1612852565b61284f670de0b6b3a764000061098a8a8963ffffffff611b3816565b96505b6000871161285f57600080fd5b60128790556040517fc1a9618cb59ebca77cbdbc2949f126823c407ff13edb285fd0262519a9c18e8c90612894908990613acb565b60405180910390a150505050505050505050565b600154604051637d9ee87160e11b81526001600160a01b0390911690819063fb3dd0e2906128da908590600401613acb565b600060405180830381600087803b1580156128f457600080fd5b505af1158015612908573d6000803e3d6000fd5b5050505061291582612f4f565b600854604051632770a7eb60e21b81526001600160a01b0390911690639dc29fac906129479030908690600401613471565b600060405180830381600087803b15801561296157600080fd5b505af1158015612975573d6000803e3d6000fd5b5050604051630a569c3760e41b81526001600160a01b038416925063a569c37091506129a79030908790600401613471565b600060405180830381600087803b1580156129c157600080fd5b505af11580156129d5573d6000803e3d6000fd5b50505050505050565b6001600160a01b0381166000908152600f602052604090206001015460ff1615611e245760405162461bcd60e51b815260040161077b90613852565b6001600160a01b0381166000908152600d60205260409020548015610e715760405162461bcd60e51b815260040161077b906138ab565b670de0b6b3a7640000811115611e245760405162461bcd60e51b815260040161077b9061371e565b6001600160a01b0381166000908152600f602052604090206001015460ff1680612aaa57506001600160a01b038116155b611e245760405162461bcd60e51b815260040161077b9061355d565b60008111611e245760405162461bcd60e51b815260040161077b906137b2565b6001600160a01b038281166000818152600d602052604080822060010180546001600160a01b0319169486169485179055517f094c08e96a8890877a8390b4f967180a7507ad8622244d05fcd0f9f8e086564e9190a35050565b600854604051632ee65eeb60e21b81526001600160a01b039091169063bb997bac90612b749085903090869060040161344d565b600060405180830381600087803b158015612b8e57600080fd5b505af1158015612ba2573d6000803e3d6000fd5b5050600c5460009250612bbc91508363ffffffff61078616565b905080600c81905550600080516020613bbf83398151915281604051612be29190613acb565b60405180910390a1505050565b6080810151606082015182516020808501516001600160801b03808616600090815260148452604080822092871682529190935282205491949392918590612c3d908463ffffffff611a0416565b6001600160801b03808716600090815260146020526040812092935091611af891633b9aca0091908490611ad2908a16600163ffffffff612dd616565b600a546001600160a01b031633146107845760405162461bcd60e51b815260040161077b90613610565b6007546040516321e3780160e01b81526001600160a01b03909116906321e3780190612cd4908490600401613404565b60206040518083038186803b158015612cec57600080fd5b505afa158015612d00573d6000803e3d6000fd5b505050506040513d601f19601f82011682018060405250810190612d2491906132b5565b600114611e245760405162461bcd60e51b815260040161077b906137f8565b6000612d4e826110d7565b905060008111610e715760405162461bcd60e51b815260040161077b90613912565b6000826001600160801b0316826001600160801b03161115612da45760405162461bcd60e51b815260040161077b906139c0565b50900390565b60008184841115612dce5760405162461bcd60e51b815260040161077b91906134d5565b505050900390565b60008282016001600160801b0380851690821610156107ab5760405162461bcd60e51b815260040161077b90613a08565b60008183612e285760405162461bcd60e51b815260040161077b91906134d5565b506000838581612e3457fe5b0495945050505050565b600c54801580612e4c575081155b15612e575750611e24565b6000612e638383612f97565b90506000612e7c60125483611b3890919063ffffffff16565b6013546001600160801b03600160801b820481166000908152601560209081526040808320939094168252919091522054909150612ec0908263ffffffff61078616565b601380546001600160801b03600160801b80830482166000908152601560208181526040808420968616845295815285832097909755945491820483168082529486528381209190921680835294528190205490517f2d6127771b164a9cc8827d24b5955db2a77e7a81dac389107ebb8bce9fb6496893612f419391613afb565b60405180910390a150505050565b600c54600090612f65908363ffffffff611a0416565b905080600c81905550600080516020613bbf83398151915281604051612f8b9190613acb565b60405180910390a15050565b600080612fbb6016546124f5670de0b6b3a764000087611b3890919063ffffffff16565b90506000612fcf828563ffffffff611b7216565b9050612ff1612fe4828663ffffffff611b3816565b839063ffffffff611a0416565b601655949350505050565b6040518060a0016040528060008152602001600081526020016000815260200160006001600160801b0316815260200160006001600160801b031681525090565b6040518060800160405280600081526020016000801916815260200160008152602001600081525090565b60008083601f840112613079578182fd5b5081356001600160401b0381111561308f578182fd5b60208301915083602080830285010111156130a957600080fd5b9250929050565b80356001600160801b03811681146107ae57600080fd5b6000602082840312156130d8578081fd5b81356107ab81613b49565b6000602082840312156130f4578081fd5b81516107ab81613b49565b600080600080600080600080610100898b03121561311b578384fd5b883561312681613b49565b9750602089013561313681613b49565b9650604089013561314681613b49565b9550606089013561315681613b49565b9450608089013561316681613b49565b935060a089013561317681613b49565b925060c089013561318681613b49565b915060e089013561319681613b49565b809150509295985092959890939650565b600080600080606085870312156131bc578384fd5b84356131c781613b49565b935060208501356131d781613b49565b925060408501356001600160401b038111156131f1578283fd5b6131fd87828801613068565b95989497509550505050565b60006080828403121561321a578081fd5b604051608081016001600160401b0381118282101715613238578283fd5b8060405250825181526020830151602082015260408301516040820152606083015160608201528091505092915050565b6000806040838503121561327b578182fd5b61328584846130b0565b915061329484602085016130b0565b90509250929050565b6000602082840312156132ae578081fd5b5035919050565b6000602082840312156132c6578081fd5b5051919050565b600080604083850312156132df578182fd5b8235915060208301356132f181613b49565b809150509250929050565b600080600060408486031215613310578283fd5b8335925060208401356001600160401b0381111561332c578283fd5b61333886828701613068565b9497909650939450505050565b60008060408385031215613357578182fd5b50508035926020909101359150565b818352602080840193600091908185020181018584845b878110156133f45782840389528135601e1988360301811261339d578687fd5b87018035906001600160401b038211156133b5578788fd5b8136038913156133c3578788fd5b818652818782018888013750848101860187905298850198601f01601f19169093018401929084019060010161337d565b5091979650505050505050565b90565b6001600160a01b0391909116815260200190565b6001600160a01b0386811682528581166020830152841660408201526080606082018190526000906109969083018486613366565b6001600160a01b039384168152919092166020820152604081019190915260600190565b6001600160a01b03929092168252602082015260400190565b60006020825261349e602083018486613366565b949350505050565b901515815260200190565b918252602082015260400190565b9283526020830191909152604082015260600190565b6000602080835283518082850152825b81811015613501578581018301518582016040015282016134e5565b818111156135125783604083870101525b50601f01601f1916929092016040019392505050565b6020808252601b908201527a536166654d6174683a206164646974696f6e206f766572666c6f7760281b604082015260600190565b60208082526046908201527f53746162696c697479506f6f6c3a20546167206d75737420626520612072656760408201527f697374657265642066726f6e7420656e642c206f7220746865207a65726f206160608201526564647265737360d01b608082015260a00190565b60208082526027908201527f53746162696c697479506f6f6c3a2043616c6c6572206973206e6f74204163746040820152661a5d99541bdbdb60ca1b606082015260800190565b6020808252602f908201527f53746162696c697479506f6f6c3a2043616c6c696572206973206e6f7420436f60408201526e6d6d756e69747949737375616e636560881b606082015260800190565b60208082526029908201527f53746162696c697479506f6f6c3a2043616c6c6572206973206e6f742054726f6040820152683b32a6b0b730b3b2b960b91b606082015260800190565b60208082526021908201527f536166654d6174683a206d756c7469706c69636174696f6e206f766572666c6f6040820152607760f81b606082015260800190565b6020808252818101527f4f776e61626c653a2063616c6c6572206973206e6f7420746865206f776e6572604082015260600190565b60208082526033908201527f53746162696c697479506f6f6c3a204b69636b6261636b2072617465206d75736040820152727420626520696e2072616e6765205b302c315d60681b606082015260800190565b60208082526021908201527f53746162696c697479506f6f6c3a2073656e64696e6720424e42206661696c656040820152601960fa1b606082015260800190565b60208082526026908201527f53746162696c697479506f6f6c3a20416d6f756e74206d757374206265206e6f6040820152656e2d7a65726f60d01b606082015260800190565b6020808252604690820152600080516020613bff83398151915260408201527f616e206163746976652074726f766520746f20776974686472617720424e424760608201526561696e20746f60d01b608082015260a00190565b60208082526039908201527f53746162696c697479506f6f6c3a206d757374206e6f7420616c72656164792060408201527818994818481c9959da5cdd195c995908199c9bdb9d08195b99603a1b606082015260800190565b60208082526028908201527f53746162696c697479506f6f6c3a2055736572206d7573742068617665206e6f6040820152670819195c1bdcda5d60c21b606082015260800190565b6020808252600590820152641830b2323960d91b604082015260600190565b6020808252603190820152600080516020613bff8339815191526040820152703737b716bd32b937902127211023b0b4b760791b606082015260800190565b60208082526005908201526430636f646560d81b604082015260600190565b60208082526030908201527f53746162696c697479506f6f6c3a2055736572206d757374206861766520612060408201526f1b9bdb8b5e995c9bc819195c1bdcda5d60821b606082015260800190565b60208082526028908201527f4c697175697479536166654d6174683132383a207375627472616374696f6e206040820152676f766572666c6f7760c01b606082015260800190565b60208082526025908201527f4c697175697479536166654d6174683132383a206164646974696f6e206f766560408201526472666c6f7760d81b606082015260800190565b60208082526044908201527f53746162696c697479506f6f6c3a2043616e6e6f74207769746864726177207760408201527f68696c65207468657265206172652074726f766573207769746820494352203c6060820152631026a1a960e11b608082015260a00190565b6001600160801b0391909116815260200190565b90815260200190565b9182526001600160a01b0316602082015260400190565b9182521515602082015260400190565b9283526001600160801b03918216602084015216604082015260600190565b948552602085019390935260408401919091526001600160801b03908116606084015216608082015260a00190565b6001600160a01b0381168114611e2457600080fdfe2d6cc0bcdf72c9486f6451bde6b80f44066f4558f77f44dbfedbe7d8b295225af7740d19ac5c5cb3bce0afd5353ac7204ccedc999cb4e867ac42e612928ca967bce78369dccab09eec1986f4d409ab09ffbb47d65423e5148fcf98411c5111c9a1bded18ff33dc34c6b1b93d3f9e5a0f03ee5770cec8ba306bd64157f6ec9bf06109e2559dfa766aaec7118351d48a523f0a4157f49c8d68749c8ac41318ad1253746162696c697479506f6f6c3a2063616c6c6572206d7573742068617665201f9dfc70cd666adb18a39d60a797518f7b4febf4b6e24ef37d44f6e1e7219fbebb1322f85cc7cc8bac4e172a5bc5dcc0c1959007f9a030032abf9258205f0e458ffc70b5d0c22bc36e9fff0f08ec2bbdc1c1fdf1a97dceddec0984ce0624c02399920012339b5a3368d3a04b8606ce412c46ed92b7dcd8602d41fc8862cb8f25a164736f6c634300060b000a","linkReferences":{}},"methodIdentifiers":{"DECIMAL_PRECISION()":"a20baee6","NAME()":"a3f4df7e","P()":"8b8fbd92","PERCENT_DIVISOR()":"4870dd9a","SCALE_FACTOR()":"ce4b5bbe","_100pct()":"72fe25aa","activePool()":"7f7dde4a","borrowerOperations()":"77553ad4","communityIssuance()":"95fb16bb","currentEpoch()":"76671808","currentScale()":"a4e59ac8","defaultPool()":"3cc74225","depositSnapshots(address)":"86da0824","deposits(address)":"fc7e286d","epochToScaleToG(uint128,uint128)":"82e0a574","epochToScaleToSum(uint128,uint128)":"28a0a04d","frontEndSnapshots(address)":"16b9d3c5","frontEndStakes(address)":"5d2de642","frontEnds(address)":"a7bfff97","getBNB()":"78a619de","getCompoundedFrontEndStake(address)":"df9cd84f","getCompoundedUSDSDeposit(address)":"1f08498c","getDepositorBNBGain(address)":"73fc5fcd","getDepositorSABLEGain(address)":"ce538bee","getEntireSystemColl()":"887105d3","getEntireSystemDebt()":"795d26c3","getFrontEndSABLEGain(address)":"23b36a81","getTotalUSDSDeposits()":"3927e006","isOwner()":"8f32d59b","lastBNBError_Offset()":"9aca71b0","lastSABLEError()":"f6d706c1","lastUSDSLossError_Offset()":"0e1cfec9","offset(uint256,uint256)":"335525ad","owner()":"8da5cb5b","ownerTriggerIssuance()":"848bb7c6","priceFeed()":"741bef1a","provideToSP(uint256,address)":"5f788d65","registerFrontEnd(uint256)":"556be101","setParams(address,address,address,address,address,address,address,address)":"2a7e19c3","sortedTroves()":"ae918754","systemState()":"991292e3","timeLock()":"d085835a","troveManager()":"3d83908a","usdsToken()":"f8f8d174","withdrawBNBGainToTrove(address,address,bytes[])":"fc55bd16","withdrawFromSP(uint256,bytes[])":"250ffbec"},"storageLayout":{"storage":[{"astId":216,"contract":"src/StabilityPool.sol:StabilityPool","label":"timeLock","offset":0,"slot":"0","type":"t_address"},{"astId":218,"contract":"src/StabilityPool.sol:StabilityPool","label":"activePool","offset":0,"slot":"1","type":"t_contract(IActivePool)10989"},{"astId":220,"contract":"src/StabilityPool.sol:StabilityPool","label":"defaultPool","offset":0,"slot":"2","type":"t_contract(IDefaultPool)11406"},{"astId":223,"contract":"src/StabilityPool.sol:StabilityPool","label":"priceFeed","offset":0,"slot":"3","type":"t_contract(IPriceFeed)11509"},{"astId":225,"contract":"src/StabilityPool.sol:StabilityPool","label":"systemState","offset":0,"slot":"4","type":"t_contract(ISystemState)12286"},{"astId":724,"contract":"src/StabilityPool.sol:StabilityPool","label":"_owner","offset":0,"slot":"5","type":"t_address"},{"astId":13100,"contract":"src/StabilityPool.sol:StabilityPool","label":"borrowerOperations","offset":0,"slot":"6","type":"t_contract(IBorrowerOperations)11272"},{"astId":13102,"contract":"src/StabilityPool.sol:StabilityPool","label":"troveManager","offset":0,"slot":"7","type":"t_contract(ITroveManager)12990"},{"astId":13104,"contract":"src/StabilityPool.sol:StabilityPool","label":"usdsToken","offset":0,"slot":"8","type":"t_contract(IUSDSToken)13049"},{"astId":13106,"contract":"src/StabilityPool.sol:StabilityPool","label":"sortedTroves","offset":0,"slot":"9","type":"t_contract(ISortedTroves)11941"},{"astId":13108,"contract":"src/StabilityPool.sol:StabilityPool","label":"communityIssuance","offset":0,"slot":"10","type":"t_contract(ICommunityIssuance)11383"},{"astId":13110,"contract":"src/StabilityPool.sol:StabilityPool","label":"BNB","offset":0,"slot":"11","type":"t_uint256"},{"astId":13112,"contract":"src/StabilityPool.sol:StabilityPool","label":"totalUSDSDeposits","offset":0,"slot":"12","type":"t_uint256"},{"astId":13137,"contract":"src/StabilityPool.sol:StabilityPool","label":"deposits","offset":0,"slot":"13","type":"t_mapping(t_address,t_struct(Deposit)13122_storage)"},{"astId":13141,"contract":"src/StabilityPool.sol:StabilityPool","label":"depositSnapshots","offset":0,"slot":"14","type":"t_mapping(t_address,t_struct(Snapshots)13133_storage)"},{"astId":13145,"contract":"src/StabilityPool.sol:StabilityPool","label":"frontEnds","offset":0,"slot":"15","type":"t_mapping(t_address,t_struct(FrontEnd)13117_storage)"},{"astId":13149,"contract":"src/StabilityPool.sol:StabilityPool","label":"frontEndStakes","offset":0,"slot":"16","type":"t_mapping(t_address,t_uint256)"},{"astId":13153,"contract":"src/StabilityPool.sol:StabilityPool","label":"frontEndSnapshots","offset":0,"slot":"17","type":"t_mapping(t_address,t_struct(Snapshots)13133_storage)"},{"astId":13156,"contract":"src/StabilityPool.sol:StabilityPool","label":"P","offset":0,"slot":"18","type":"t_uint256"},{"astId":13161,"contract":"src/StabilityPool.sol:StabilityPool","label":"currentScale","offset":0,"slot":"19","type":"t_uint128"},{"astId":13163,"contract":"src/StabilityPool.sol:StabilityPool","label":"currentEpoch","offset":16,"slot":"19","type":"t_uint128"},{"astId":13169,"contract":"src/StabilityPool.sol:StabilityPool","label":"epochToScaleToSum","offset":0,"slot":"20","type":"t_mapping(t_uint128,t_mapping(t_uint128,t_uint256))"},{"astId":13175,"contract":"src/StabilityPool.sol:StabilityPool","label":"epochToScaleToG","offset":0,"slot":"21","type":"t_mapping(t_uint128,t_mapping(t_uint128,t_uint256))"},{"astId":13177,"contract":"src/StabilityPool.sol:StabilityPool","label":"lastSABLEError","offset":0,"slot":"22","type":"t_uint256"},{"astId":13179,"contract":"src/StabilityPool.sol:StabilityPool","label":"lastBNBError_Offset","offset":0,"slot":"23","type":"t_uint256"},{"astId":13181,"contract":"src/StabilityPool.sol:StabilityPool","label":"lastUSDSLossError_Offset","offset":0,"slot":"24","type":"t_uint256"}],"types":{"t_address":{"encoding":"inplace","label":"address","numberOfBytes":"20"},"t_bool":{"encoding":"inplace","label":"bool","numberOfBytes":"1"},"t_contract(IActivePool)10989":{"encoding":"inplace","label":"contract IActivePool","numberOfBytes":"20"},"t_contract(IBorrowerOperations)11272":{"encoding":"inplace","label":"contract IBorrowerOperations","numberOfBytes":"20"},"t_contract(ICommunityIssuance)11383":{"encoding":"inplace","label":"contract ICommunityIssuance","numberOfBytes":"20"},"t_contract(IDefaultPool)11406":{"encoding":"inplace","label":"contract IDefaultPool","numberOfBytes":"20"},"t_contract(IPriceFeed)11509":{"encoding":"inplace","label":"contract IPriceFeed","numberOfBytes":"20"},"t_contract(ISortedTroves)11941":{"encoding":"inplace","label":"contract ISortedTroves","numberOfBytes":"20"},"t_contract(ISystemState)12286":{"encoding":"inplace","label":"contract ISystemState","numberOfBytes":"20"},"t_contract(ITroveManager)12990":{"encoding":"inplace","label":"contract ITroveManager","numberOfBytes":"20"},"t_contract(IUSDSToken)13049":{"encoding":"inplace","label":"contract IUSDSToken","numberOfBytes":"20"},"t_mapping(t_address,t_struct(Deposit)13122_storage)":{"encoding":"mapping","key":"t_address","label":"mapping(address => struct StabilityPool.Deposit)","numberOfBytes":"32","value":"t_struct(Deposit)13122_storage"},"t_mapping(t_address,t_struct(FrontEnd)13117_storage)":{"encoding":"mapping","key":"t_address","label":"mapping(address => struct StabilityPool.FrontEnd)","numberOfBytes":"32","value":"t_struct(FrontEnd)13117_storage"},"t_mapping(t_address,t_struct(Snapshots)13133_storage)":{"encoding":"mapping","key":"t_address","label":"mapping(address => struct StabilityPool.Snapshots)","numberOfBytes":"32","value":"t_struct(Snapshots)13133_storage"},"t_mapping(t_address,t_uint256)":{"encoding":"mapping","key":"t_address","label":"mapping(address => uint256)","numberOfBytes":"32","value":"t_uint256"},"t_mapping(t_uint128,t_mapping(t_uint128,t_uint256))":{"encoding":"mapping","key":"t_uint128","label":"mapping(uint128 => mapping(uint128 => uint256))","numberOfBytes":"32","value":"t_mapping(t_uint128,t_uint256)"},"t_mapping(t_uint128,t_uint256)":{"encoding":"mapping","key":"t_uint128","label":"mapping(uint128 => uint256)","numberOfBytes":"32","value":"t_uint256"},"t_struct(Deposit)13122_storage":{"encoding":"inplace","label":"struct StabilityPool.Deposit","numberOfBytes":"64","members":[{"astId":13119,"contract":"src/StabilityPool.sol:StabilityPool","label":"initialValue","offset":0,"slot":"0","type":"t_uint256"},{"astId":13121,"contract":"src/StabilityPool.sol:StabilityPool","label":"frontEndTag","offset":0,"slot":"1","type":"t_address"}]},"t_struct(FrontEnd)13117_storage":{"encoding":"inplace","label":"struct StabilityPool.FrontEnd","numberOfBytes":"64","members":[{"astId":13114,"contract":"src/StabilityPool.sol:StabilityPool","label":"kickbackRate","offset":0,"slot":"0","type":"t_uint256"},{"astId":13116,"contract":"src/StabilityPool.sol:StabilityPool","label":"registered","offset":0,"slot":"1","type":"t_bool"}]},"t_struct(Snapshots)13133_storage":{"encoding":"inplace","label":"struct StabilityPool.Snapshots","numberOfBytes":"128","members":[{"astId":13124,"contract":"src/StabilityPool.sol:StabilityPool","label":"S","offset":0,"slot":"0","type":"t_uint256"},{"astId":13126,"contract":"src/StabilityPool.sol:StabilityPool","label":"P","offset":0,"slot":"1","type":"t_uint256"},{"astId":13128,"contract":"src/StabilityPool.sol:StabilityPool","label":"G","offset":0,"slot":"2","type":"t_uint256"},{"astId":13130,"contract":"src/StabilityPool.sol:StabilityPool","label":"scale","offset":0,"slot":"3","type":"t_uint128"},{"astId":13132,"contract":"src/StabilityPool.sol:StabilityPool","label":"epoch","offset":16,"slot":"3","type":"t_uint128"}]},"t_uint128":{"encoding":"inplace","label":"uint128","numberOfBytes":"16"},"t_uint256":{"encoding":"inplace","label":"uint256","numberOfBytes":"32"}}},"id":30}