{"abi":[{"type":"function","name":"DECIMAL_PRECISION","inputs":[],"outputs":[{"name":"","type":"uint256","internalType":"uint256"}],"stateMutability":"view"},{"type":"function","name":"PERCENT_DIVISOR","inputs":[],"outputs":[{"name":"","type":"uint256","internalType":"uint256"}],"stateMutability":"view"},{"type":"function","name":"_100pct","inputs":[],"outputs":[{"name":"","type":"uint256","internalType":"uint256"}],"stateMutability":"view"},{"type":"function","name":"activePool","inputs":[],"outputs":[{"name":"","type":"address","internalType":"contract IActivePool"}],"stateMutability":"view"},{"type":"function","name":"checkPotentialRecoveryMode","inputs":[{"name":"_entireSystemColl","type":"uint256","internalType":"uint256"},{"name":"_entireSystemDebt","type":"uint256","internalType":"uint256"},{"name":"_price","type":"uint256","internalType":"uint256"}],"outputs":[{"name":"","type":"bool","internalType":"bool"}],"stateMutability":"view"},{"type":"function","name":"defaultPool","inputs":[],"outputs":[{"name":"","type":"address","internalType":"contract IDefaultPool"}],"stateMutability":"view"},{"type":"function","name":"getCappedOffsetVals","inputs":[{"name":"_entireTroveDebt","type":"uint256","internalType":"uint256"},{"name":"_entireTroveColl","type":"uint256","internalType":"uint256"},{"name":"_price","type":"uint256","internalType":"uint256"}],"outputs":[{"name":"singleLiquidation","type":"tuple","internalType":"struct ITroveManager.LiquidationValues","components":[{"name":"entireTroveDebt","type":"uint256","internalType":"uint256"},{"name":"entireTroveColl","type":"uint256","internalType":"uint256"},{"name":"collGasCompensation","type":"uint256","internalType":"uint256"},{"name":"USDSGasCompensation","type":"uint256","internalType":"uint256"},{"name":"debtToOffset","type":"uint256","internalType":"uint256"},{"name":"collToSendToSP","type":"uint256","internalType":"uint256"},{"name":"debtToRedistribute","type":"uint256","internalType":"uint256"},{"name":"collToRedistribute","type":"uint256","internalType":"uint256"},{"name":"collSurplus","type":"uint256","internalType":"uint256"}]}],"stateMutability":"view"},{"type":"function","name":"getEntireSystemColl","inputs":[],"outputs":[{"name":"entireSystemColl","type":"uint256","internalType":"uint256"}],"stateMutability":"view"},{"type":"function","name":"getEntireSystemDebt","inputs":[],"outputs":[{"name":"entireSystemDebt","type":"uint256","internalType":"uint256"}],"stateMutability":"view"},{"type":"function","name":"isOwner","inputs":[],"outputs":[{"name":"","type":"bool","internalType":"bool"}],"stateMutability":"view"},{"type":"function","name":"isValidFirstRedemptionHint","inputs":[{"name":"_sortedTroves","type":"address","internalType":"contract ISortedTroves"},{"name":"_firstRedemptionHint","type":"address","internalType":"address"},{"name":"_price","type":"uint256","internalType":"uint256"}],"outputs":[{"name":"","type":"bool","internalType":"bool"}],"stateMutability":"view"},{"type":"function","name":"owner","inputs":[],"outputs":[{"name":"","type":"address","internalType":"address"}],"stateMutability":"view"},{"type":"function","name":"priceFeed","inputs":[],"outputs":[{"name":"","type":"address","internalType":"contract IPriceFeed"}],"stateMutability":"view"},{"type":"function","name":"requireAfterBootstrapPeriod","inputs":[],"outputs":[],"stateMutability":"view"},{"type":"function","name":"requireAmountGreaterThanZero","inputs":[{"name":"_amount","type":"uint256","internalType":"uint256"}],"outputs":[],"stateMutability":"view"},{"type":"function","name":"requireMoreThanOneTroveInSystem","inputs":[{"name":"TroveOwnersArrayLength","type":"uint256","internalType":"uint256"}],"outputs":[],"stateMutability":"view"},{"type":"function","name":"requireTCRoverMCR","inputs":[{"name":"_price","type":"uint256","internalType":"uint256"}],"outputs":[],"stateMutability":"view"},{"type":"function","name":"requireUSDSBalanceCoversRedemption","inputs":[{"name":"_usdsToken","type":"address","internalType":"contract IUSDSToken"},{"name":"_redeemer","type":"address","internalType":"address"},{"name":"_amount","type":"uint256","internalType":"uint256"}],"outputs":[],"stateMutability":"view"},{"type":"function","name":"requireValidMaxFeePercentage","inputs":[{"name":"_maxFeePercentage","type":"uint256","internalType":"uint256"}],"outputs":[],"stateMutability":"view"},{"type":"function","name":"sableToken","inputs":[],"outputs":[{"name":"","type":"address","internalType":"contract ISABLEToken"}],"stateMutability":"view"},{"type":"function","name":"setAddresses","inputs":[{"name":"_troveManagerAddress","type":"address","internalType":"address"},{"name":"_systemStateAddress","type":"address","internalType":"address"},{"name":"_sortedTrovesAddress","type":"address","internalType":"address"},{"name":"_sableTokenAddress","type":"address","internalType":"address"},{"name":"_activePoolAddress","type":"address","internalType":"address"},{"name":"_defaultPoolAddress","type":"address","internalType":"address"}],"outputs":[],"stateMutability":"nonpayable"},{"type":"function","name":"sortedTroves","inputs":[],"outputs":[{"name":"","type":"address","internalType":"contract ISortedTroves"}],"stateMutability":"view"},{"type":"function","name":"systemState","inputs":[],"outputs":[{"name":"","type":"address","internalType":"contract ISystemState"}],"stateMutability":"view"},{"type":"function","name":"timeLock","inputs":[],"outputs":[{"name":"","type":"address","internalType":"address"}],"stateMutability":"view"},{"type":"function","name":"troveManager","inputs":[],"outputs":[{"name":"","type":"address","internalType":"contract TroveManager"}],"stateMutability":"view"},{"type":"event","name":"OwnershipTransferred","inputs":[{"name":"previousOwner","type":"address","indexed":true,"internalType":"address"},{"name":"newOwner","type":"address","indexed":true,"internalType":"address"}],"anonymous":false}],"bytecode":{"object":"0x608060405234801561001057600080fd5b50600580546001600160a01b031916339081179091556040516000907f8be0079c531659141344cd1fd0a4f28419497f9722a3daafe3b4186f6b6457e0908290a361176b806100606000396000f3fe608060405234801561001057600080fd5b50600436106101335760003560e01c806301ff3f27146101385780633b2f0e4e1461014d5780633cc742251461016b5780633d83908a146101735780634870dd9a1461017b57806352576cdf1461019057806356c148a2146101b05780636cfb6bf9146101c357806372fe25aa146101d6578063741bef1a146101de578063795d26c3146101e65780637f7dde4a146101ee57806386551e2d146101f6578063887105d3146102095780638cf30644146102115780638da5cb5b146102245780638f32d59b1461022c578063991292e314610234578063a20baee6146101d6578063ae9187541461023c578063c640c37614610244578063d085835a1461024c578063dcafb41414610254578063ddd88be514610274578063febf7cc714610287575b600080fd5b61014b6101463660046112b4565b61029a565b005b610155610354565b604051610162919061130f565b60405180910390f35b610155610363565b610155610372565b610183610381565b6040516101629190611740565b6101a361019e366004611274565b610386565b604051610162919061133c565b61014b6101be3660046112b4565b610664565b61014b6101d13660046111d3565b61068c565b610183610743565b61015561074f565b61018361075e565b61015561088a565b6101a36102043660046112e4565b610899565b610183610931565b61014b61021f366004611274565b610a0c565b610155610ab5565b6101a3610ac4565b610155610ad5565b610155610ae4565b61014b610af3565b610155610c2f565b6102676102623660046112e4565b610c3e565b60405161016291906116db565b61014b6102823660046112b4565b610dd8565b61014b6102953660046112b4565b610ea2565b6102a2610f4b565b60018111801561032c57506007546040805163de8fa43160e01b815290516001926001600160a01b03169163de8fa431916004808301926020929190829003018186803b1580156102f257600080fd5b505afa158015610306573d6000803e3d6000fd5b505050506040513d601f19601f8201168201806040525081019061032a91906112cc565b115b6103515760405162461bcd60e51b8152600401610348906113cf565b60405180910390fd5b50565b6008546001600160a01b031681565b6002546001600160a01b031681565b6006546001600160a01b031681565b60c881565b6000610390610f4b565b6000600460009054906101000a90046001600160a01b03166001600160a01b03166344936b106040518163ffffffff1660e01b815260040160206040518083038186803b1580156103e057600080fd5b505afa1580156103f4573d6000803e3d6000fd5b505050506040513d601f19601f8201168201806040525081019061041891906112cc565b90506001600160a01b03841615806104a95750604051630bb7c8fd60e31b81526001600160a01b03861690635dbe47e89061045790879060040161130f565b60206040518083038186803b15801561046f57600080fd5b505afa158015610483573d6000803e3d6000fd5b505050506040513d601f19601f820116820180604052508101906104a79190611254565b155b806105335750600654604051630d293c7160e41b815282916001600160a01b03169063d293c710906104e19088908890600401611323565b60206040518083038186803b1580156104f957600080fd5b505afa15801561050d573d6000803e3d6000fd5b505050506040513d601f19601f8201168201806040525081019061053191906112cc565b105b1561054257600091505061065d565b60405163765e015960e01b81526000906001600160a01b0387169063765e01599061057190889060040161130f565b60206040518083038186803b15801561058957600080fd5b505afa15801561059d573d6000803e3d6000fd5b505050506040513d601f19601f820116820180604052508101906105c191906111b7565b90506001600160a01b03811615806106585750600654604051630d293c7160e41b815283916001600160a01b03169063d293c710906106069085908990600401611323565b60206040518083038186803b15801561061e57600080fd5b505afa158015610632573d6000803e3d6000fd5b505050506040513d601f19601f8201168201806040525081019061065691906112cc565b105b925050505b9392505050565b61066c610f4b565b600081116103515760405162461bcd60e51b815260040161034890611560565b610694610ac4565b6106b05760405162461bcd60e51b8152600401610348906114b8565b6106b986610f77565b6106c285610f77565b6106cb84610f77565b6106d483610f77565b600680546001600160a01b03199081166001600160a01b0398891617909155600480548216968816969096179095556007805486169487169490941790935560088054851692861692909217909155600180548416918516919091179055600280549092169216919091179055565b670de0b6b3a764000081565b6003546001600160a01b031681565b600080600160009054906101000a90046001600160a01b03166001600160a01b0316635227d6a86040518163ffffffff1660e01b815260040160206040518083038186803b1580156107af57600080fd5b505afa1580156107c3573d6000803e3d6000fd5b505050506040513d601f19601f820116820180604052508101906107e791906112cc565b90506000600260009054906101000a90046001600160a01b03166001600160a01b0316635227d6a86040518163ffffffff1660e01b815260040160206040518083038186803b15801561083957600080fd5b505afa15801561084d573d6000803e3d6000fd5b505050506040513d601f19601f8201168201806040525081019061087191906112cc565b9050610883828263ffffffff610fbc16565b9250505090565b6001546001600160a01b031681565b60006108a3610f4b565b6004805460408051635da04a9160e11b815290516001600160a01b039092169263bb409522928282019260209290829003018186803b1580156108e557600080fd5b505afa1580156108f9573d6000803e3d6000fd5b505050506040513d601f19601f8201168201806040525081019061091d91906112cc565b610928858585610fea565b10949350505050565b600080600160009054906101000a90046001600160a01b03166001600160a01b03166378a619de6040518163ffffffff1660e01b815260040160206040518083038186803b15801561098257600080fd5b505afa158015610996573d6000803e3d6000fd5b505050506040513d601f19601f820116820180604052508101906109ba91906112cc565b90506000600260009054906101000a90046001600160a01b03166001600160a01b03166378a619de6040518163ffffffff1660e01b815260040160206040518083038186803b15801561083957600080fd5b610a14610f4b565b6040516370a0823160e01b815281906001600160a01b038516906370a0823190610a4290869060040161130f565b60206040518083038186803b158015610a5a57600080fd5b505afa158015610a6e573d6000803e3d6000fd5b505050506040513d601f19601f82011682018060405250810190610a9291906112cc565b1015610ab05760405162461bcd60e51b81526004016103489061161d565b505050565b6005546001600160a01b031690565b6005546001600160a01b0316331490565b6004546001600160a01b031681565b6007546001600160a01b031681565b610afb610f4b565b60085460408051631e425be160e11b815290516000926001600160a01b031691633c84b7c2916004808301926020929190829003018186803b158015610b4057600080fd5b505afa158015610b54573d6000803e3d6000fd5b505050506040513d601f19601f82011682018060405250810190610b7891906112cc565b9050610c10600660009054906101000a90046001600160a01b03166001600160a01b031663c35bc5506040518163ffffffff1660e01b815260040160206040518083038186803b158015610bcb57600080fd5b505afa158015610bdf573d6000803e3d6000fd5b505050506040513d601f19601f82011682018060405250810190610c0391906112cc565b829063ffffffff610fbc16565b4210156103515760405162461bcd60e51b815260040161034890611419565b6000546001600160a01b031681565b610c4661116b565b610c4e610f4b565b8381526020808201849052600480546040805163044936b160e41b81529051600094610cf7948894610ceb946001600160a01b03909116936344936b1093828401939092829003018186803b158015610ca657600080fd5b505afa158015610cba573d6000803e3d6000fd5b505050506040513d601f19601f82011682018060405250810190610cde91906112cc565b889063ffffffff61101a16565b9063ffffffff61105416565b9050610d0281611093565b604080840191909152600480548251631549b76d60e01b815292516001600160a01b0390911692631549b76d9281810192602092909190829003018186803b158015610d4d57600080fd5b505afa158015610d61573d6000803e3d6000fd5b505050506040513d601f19601f82011682018060405250810190610d8591906112cc565b6060830152608082018590526040820151610da790829063ffffffff61109a16565b60a0830152610dbc848263ffffffff61109a16565b61010083015250600060c0820181905260e08201529392505050565b610de0610f4b565b6000600460009054906101000a90046001600160a01b03166001600160a01b0316638abf30b36040518163ffffffff1660e01b815260040160206040518083038186803b158015610e3057600080fd5b505afa158015610e44573d6000803e3d6000fd5b505050506040513d601f19601f82011682018060405250810190610e6891906112cc565b9050808210158015610e825750670de0b6b3a76400008211155b610e9e5760405162461bcd60e51b8152600401610348906115cd565b5050565b610eaa610f4b565b600480546040805163044936b160e41b815290516001600160a01b03909216926344936b10928282019260209290829003018186803b158015610eec57600080fd5b505afa158015610f00573d6000803e3d6000fd5b505050506040513d601f19601f82011682018060405250810190610f2491906112cc565b610f2d826110dc565b10156103515760405162461bcd60e51b815260040161034890611691565b6006546001600160a01b03163314610f755760405162461bcd60e51b8152600401610348906114ed565b565b6001600160a01b038116610f9d5760405162461bcd60e51b815260040161034890611541565b803b80610e9e5760405162461bcd60e51b8152600401610348906115ae565b600082820183811015610fe15760405162461bcd60e51b81526004016103489061139a565b90505b92915050565b6000821561101157600061100884610ceb878663ffffffff61101a16565b915061065d9050565b5060001961065d565b60008261102957506000610fe4565b8282028284828161103657fe5b0414610fe15760405162461bcd60e51b815260040161034890611477565b6000610fe183836040518060400160405280601a815260200179536166654d6174683a206469766973696f6e206279207a65726f60301b815250611108565b60c8900490565b6000610fe183836040518060400160405280601e81526020017f536166654d6174683a207375627472616374696f6e206f766572666c6f77000081525061113f565b6000806110e7610931565b905060006110f361075e565b9050611100828286610fea565b949350505050565b600081836111295760405162461bcd60e51b81526004016103489190611347565b50600083858161113557fe5b0495945050505050565b600081848411156111635760405162461bcd60e51b81526004016103489190611347565b505050900390565b6040518061012001604052806000815260200160008152602001600081526020016000815260200160008152602001600081526020016000815260200160008152602001600081525090565b6000602082840312156111c8578081fd5b8151610fe181611749565b60008060008060008060c087890312156111eb578182fd5b86356111f681611749565b9550602087013561120681611749565b9450604087013561121681611749565b9350606087013561122681611749565b9250608087013561123681611749565b915060a087013561124681611749565b809150509295509295509295565b600060208284031215611265578081fd5b81518015158114610fe1578182fd5b600080600060608486031215611288578283fd5b833561129381611749565b925060208401356112a381611749565b929592945050506040919091013590565b6000602082840312156112c5578081fd5b5035919050565b6000602082840312156112dd578081fd5b5051919050565b6000806000606084860312156112f8578283fd5b505081359360208301359350604090920135919050565b6001600160a01b0391909116815260200190565b6001600160a01b03929092168252602082015260400190565b901515815260200190565b6000602080835283518082850152825b8181101561137357858101830151858201604001528201611357565b818111156113845783604083870101525b50601f01601f1916929092016040019392505050565b6020808252601b908201527a536166654d6174683a206164646974696f6e206f766572666c6f7760281b604082015260600190565b6020808252602a908201527f54726f76654d616e616765723a204f6e6c79206f6e652074726f766520696e206040820152697468652073797374656d60b01b606082015260800190565b602080825260409082018190527f54726f76654d616e616765723a20526564656d7074696f6e7320617265206e6f908201527f7420616c6c6f77656420647572696e6720626f6f747374726170207068617365606082015260800190565b60208082526021908201527f536166654d6174683a206d756c7469706c69636174696f6e206f766572666c6f6040820152607760f81b606082015260800190565b6020808252818101527f4f776e61626c653a2063616c6c6572206973206e6f7420746865206f776e6572604082015260600190565b60208082526034908201527f54726f766548656c7065723a2043616c6c6572206973206e6f742074686520546040820152731c9bdd9953585b9859d95c8818dbdb9d1c9858dd60621b606082015260800190565b6020808252600590820152641830b2323960d91b604082015260600190565b6020808252602e908201527f54726f76654d616e616765723a20416d6f756e74206d7573742062652067726560408201526d61746572207468616e207a65726f60901b606082015260800190565b60208082526005908201526430636f646560d81b604082015260600190565b60208082526030908201527f4d6178206665652070657263656e74616765206d75737420626520626574776560408201526f656e20302e352520616e64203130302560801b606082015260800190565b6020808252604e908201527f54726f76654d616e616765723a2052657175657374656420726564656d70746960408201527f6f6e20616d6f756e74206d757374206265203c3d20757365722773205553445360608201526d20746f6b656e2062616c616e636560901b608082015260a00190565b6020808252602a908201527f54726f76654d616e616765723a2043616e6e6f742072656465656d207768656e604082015269102a21a9101e1026a1a960b11b606082015260800190565b600061012082019050825182526020830151602083015260408301516040830152606083015160608301526080830151608083015260a083015160a083015260c083015160c083015260e083015160e083015261010080840151818401525092915050565b90815260200190565b6001600160a01b038116811461035157600080fdfea164736f6c634300060b000a","linkReferences":{}},"methodIdentifiers":{"DECIMAL_PRECISION()":"a20baee6","PERCENT_DIVISOR()":"4870dd9a","_100pct()":"72fe25aa","activePool()":"7f7dde4a","checkPotentialRecoveryMode(uint256,uint256,uint256)":"86551e2d","defaultPool()":"3cc74225","getCappedOffsetVals(uint256,uint256,uint256)":"dcafb414","getEntireSystemColl()":"887105d3","getEntireSystemDebt()":"795d26c3","isOwner()":"8f32d59b","isValidFirstRedemptionHint(address,address,uint256)":"52576cdf","owner()":"8da5cb5b","priceFeed()":"741bef1a","requireAfterBootstrapPeriod()":"c640c376","requireAmountGreaterThanZero(uint256)":"56c148a2","requireMoreThanOneTroveInSystem(uint256)":"01ff3f27","requireTCRoverMCR(uint256)":"febf7cc7","requireUSDSBalanceCoversRedemption(address,address,uint256)":"8cf30644","requireValidMaxFeePercentage(uint256)":"ddd88be5","sableToken()":"3b2f0e4e","setAddresses(address,address,address,address,address,address)":"6cfb6bf9","sortedTroves()":"ae918754","systemState()":"991292e3","timeLock()":"d085835a","troveManager()":"3d83908a"},"id":99}