{"abi":[{"type":"constructor","inputs":[],"stateMutability":"nonpayable"},{"type":"receive","stateMutability":"payable"},{"type":"function","name":"fetchPrice","inputs":[{"name":"priceFeedUpdateData","type":"bytes[]","internalType":"bytes[]"}],"outputs":[{"name":"","type":"tuple","internalType":"struct IPriceFeed.FetchPriceResult","components":[{"name":"price","type":"uint256","internalType":"uint256"},{"name":"oracleKey","type":"bytes32","internalType":"bytes32"},{"name":"deviationPyth","type":"uint256","internalType":"uint256"},{"name":"publishTimePyth","type":"uint256","internalType":"uint256"}]}],"stateMutability":"nonpayable"},{"type":"function","name":"getPrice","inputs":[],"outputs":[{"name":"","type":"uint256","internalType":"uint256"}],"stateMutability":"view"},{"type":"function","name":"owner","inputs":[],"outputs":[{"name":"","type":"address","internalType":"address"}],"stateMutability":"view"},{"type":"function","name":"pyth","inputs":[],"outputs":[{"name":"","type":"address","internalType":"contract IPyth"}],"stateMutability":"view"},{"type":"function","name":"setAddressesTestnet","inputs":[{"name":"_troveManagerAddress","type":"address","internalType":"address"},{"name":"_borrowerOperationsAddress","type":"address","internalType":"address"},{"name":"_stabilityPoolAddress","type":"address","internalType":"address"}],"outputs":[],"stateMutability":"nonpayable"},{"type":"function","name":"setFetchPriceResult","inputs":[{"name":"_deviationPyth","type":"uint256","internalType":"uint256"},{"name":"_publishTimePyth","type":"uint256","internalType":"uint256"},{"name":"isPythPrice","type":"bool","internalType":"bool"}],"outputs":[],"stateMutability":"nonpayable"},{"type":"function","name":"setMockPyth","inputs":[{"name":"_mockPythAddress","type":"address","internalType":"address"}],"outputs":[],"stateMutability":"nonpayable"},{"type":"function","name":"setPrice","inputs":[{"name":"price","type":"uint256","internalType":"uint256"}],"outputs":[{"name":"","type":"bool","internalType":"bool"}],"stateMutability":"nonpayable"},{"type":"event","name":"LastGoodPriceUpdated","inputs":[{"name":"_lastGoodPrice","type":"uint256","indexed":false,"internalType":"uint256"}],"anonymous":false}],"bytecode":{"object":"0x680ad78ebc5ac620000060008181556101006040526080829052634c494e4b60e01b60a081905260c082905260e0829052600192909255600291909155600381905560045534801561005057600080fd5b50600980546001600160a01b03191633179055610519806100726000396000f3fe60806040526004361061006f5760003560e01c80634e15f2a51461007b57806378f81869146100b15780638da5cb5b146100d357806391b7f5ed146100f557806398d5fdca14610122578063a2e0dd7614610144578063d93adfd314610164578063f98d06f01461018457610076565b3661007657005b600080fd5b34801561008757600080fd5b5061009b6100963660046103b4565b610199565b6040516100a891906104d8565b60405180910390f35b3480156100bd57600080fd5b506100d16100cc36600461036f565b61020b565b005b3480156100df57600080fd5b506100e861024a565b6040516100a89190610473565b34801561010157600080fd5b5061011561011036600461041f565b610259565b6040516100a89190610487565b34801561012e57600080fd5b5061013761029d565b6040516100a89190610503565b34801561015057600080fd5b506100d161015f366004610437565b6102a3565b34801561017057600080fd5b506100d161017f36600461034d565b6102da565b34801561019057600080fd5b506100e86102fc565b6101a161030b565b7f4d29de21de555af78a62fc82dd4bc05e9ae5b0660a37f04729527e0f22780cd36000546040516101d29190610503565b60405180910390a15060408051608081018252600154815260025460208201526003549181019190915260045460608201525b92915050565b600780546001600160a01b039485166001600160a01b031991821617909155600680549385169382169390931790925560088054919093169116179055565b6009546001600160a01b031681565b6009546000906001600160a01b0316331461028f5760405162461bcd60e51b815260040161028690610492565b60405180910390fd5b506000819055600190815590565b60005490565b60005460015580156102c95760038390556004829055630a0b2a8960e31b6002556102d5565b634c494e4b60e01b6002555b505050565b600580546001600160a01b0319166001600160a01b0392909216919091179055565b6005546001600160a01b031690565b6040518060800160405280600081526020016000801916815260200160008152602001600081525090565b80356001600160a01b038116811461020557600080fd5b60006020828403121561035e578081fd5b6103688383610336565b9392505050565b600080600060608486031215610383578182fd5b61038d8585610336565b925061039c8560208601610336565b91506103ab8560408601610336565b90509250925092565b600080602083850312156103c6578182fd5b82356001600160401b03808211156103dc578384fd5b81850186601f8201126103ed578485fd5b80359250818311156103fd578485fd5b8660208085028301011115610410578485fd5b60200196919550909350505050565b600060208284031215610430578081fd5b5035919050565b60008060006060848603121561044b578283fd5b833592506020840135915060408401358015158114610468578182fd5b809150509250925092565b6001600160a01b0391909116815260200190565b901515815260200190565b60208082526026908201527f4f6e6c7920746865206f776e65722063616e2063616c6c20746869732066756e60408201526531ba34b7b71760d11b606082015260800190565b8151815260208083015190820152604080830151908201526060918201519181019190915260800190565b9081526020019056fea164736f6c634300060b000a","linkReferences":{}},"methodIdentifiers":{"fetchPrice(bytes[])":"4e15f2a5","getPrice()":"98d5fdca","owner()":"8da5cb5b","pyth()":"f98d06f0","setAddressesTestnet(address,address,address)":"78f81869","setFetchPriceResult(uint256,uint256,bool)":"a2e0dd76","setMockPyth(address)":"d93adfd3","setPrice(uint256)":"91b7f5ed"},"id":91}