{"abi":[{"type":"function","name":"callDecPow","inputs":[{"name":"_base","type":"uint256","internalType":"uint256"},{"name":"_n","type":"uint256","internalType":"uint256"}],"outputs":[{"name":"","type":"uint256","internalType":"uint256"}],"stateMutability":"pure"},{"type":"function","name":"callDecPowTx","inputs":[{"name":"_base","type":"uint256","internalType":"uint256"},{"name":"_n","type":"uint256","internalType":"uint256"}],"outputs":[{"name":"","type":"uint256","internalType":"uint256"}],"stateMutability":"pure"},{"type":"function","name":"callMax","inputs":[{"name":"_a","type":"uint256","internalType":"uint256"},{"name":"_b","type":"uint256","internalType":"uint256"}],"outputs":[{"name":"","type":"uint256","internalType":"uint256"}],"stateMutability":"pure"}],"bytecode":{"object":"0x608060405234801561001057600080fd5b5061042d806100206000396000f3fe608060405234801561001057600080fd5b50600436106100405760003560e01c8062fa72ff1461004557806336090b011461007a578063d407725214610045575b600080fd5b6100686004803603604081101561005b57600080fd5b508035906020013561009d565b60408051918252519081900360200190f35b6100686004803603604081101561009057600080fd5b50803590602001356100b2565b60006100a983836100be565b90505b92915050565b60006100a9838361017f565b6000631f5405008211156100d457631f54050091505b816100e85750670de0b6b3a76400006100ac565b670de0b6b3a764000083835b600181111561016b57600281066101295761010f8283610196565b915061012281600263ffffffff6101d116565b9050610166565b6101338284610196565b925061013f8283610196565b9150610163600261015783600163ffffffff61021016565b9063ffffffff6101d116565b90505b6100f4565b6101758284610196565b9695505050505050565b60008183101561018f57816100a9565b5090919050565b6000806101a9848463ffffffff61025216565b90506101c9670de0b6b3a7640000610157836706f05b59d3b200006102ab565b949350505050565b60006100a983836040518060400160405280601a815260200179536166654d6174683a206469766973696f6e206279207a65726f60301b815250610303565b60006100a983836040518060400160405280601e81526020017f536166654d6174683a207375627472616374696f6e206f766572666c6f7700008152506103a5565b600082610261575060006100ac565b8282028284828161026e57fe5b04146100a95760405162461bcd60e51b81526004018080602001828103825260218152602001806104006021913960400191505060405180910390fd5b6000828201838110156100a9576040805162461bcd60e51b815260206004820152601b60248201527a536166654d6174683a206164646974696f6e206f766572666c6f7760281b604482015290519081900360640190fd5b6000818361038f5760405162461bcd60e51b81526004018080602001828103825283818151815260200191508051906020019080838360005b8381101561035457818101518382015260200161033c565b50505050905090810190601f1680156103815780820380516001836020036101000a031916815260200191505b509250505060405180910390fd5b50600083858161039b57fe5b0495945050505050565b600081848411156103f75760405162461bcd60e51b815260206004820181815283516024840152835190928392604490910191908501908083836000831561035457818101518382015260200161033c565b50505090039056fe536166654d6174683a206d756c7469706c69636174696f6e206f766572666c6f77a164736f6c634300060b000a","linkReferences":{}},"methodIdentifiers":{"callDecPow(uint256,uint256)":"00fa72ff","callDecPowTx(uint256,uint256)":"d4077252","callMax(uint256,uint256)":"36090b01"},"id":85}