{"abi":[{"type":"constructor","inputs":[{"name":"_sableStakingAddress","type":"address","internalType":"address"},{"name":"_sableRewarderAddress","type":"address","internalType":"address"},{"name":"_vaultAddress","type":"address","internalType":"address"},{"name":"_mintAmount","type":"uint256","internalType":"uint256"}],"stateMutability":"nonpayable"},{"type":"function","name":"allowance","inputs":[{"name":"owner","type":"address","internalType":"address"},{"name":"spender","type":"address","internalType":"address"}],"outputs":[{"name":"","type":"uint256","internalType":"uint256"}],"stateMutability":"view"},{"type":"function","name":"approve","inputs":[{"name":"spender","type":"address","internalType":"address"},{"name":"amount","type":"uint256","internalType":"uint256"}],"outputs":[{"name":"","type":"bool","internalType":"bool"}],"stateMutability":"nonpayable"},{"type":"function","name":"balanceOf","inputs":[{"name":"account","type":"address","internalType":"address"}],"outputs":[{"name":"","type":"uint256","internalType":"uint256"}],"stateMutability":"view"},{"type":"function","name":"decimals","inputs":[],"outputs":[{"name":"","type":"uint8","internalType":"uint8"}],"stateMutability":"view"},{"type":"function","name":"decreaseAllowance","inputs":[{"name":"spender","type":"address","internalType":"address"},{"name":"subtractedValue","type":"uint256","internalType":"uint256"}],"outputs":[{"name":"","type":"bool","internalType":"bool"}],"stateMutability":"nonpayable"},{"type":"function","name":"domainSeparator","inputs":[],"outputs":[{"name":"","type":"bytes32","internalType":"bytes32"}],"stateMutability":"view"},{"type":"function","name":"getDeploymentStartTime","inputs":[],"outputs":[{"name":"","type":"uint256","internalType":"uint256"}],"stateMutability":"view"},{"type":"function","name":"increaseAllowance","inputs":[{"name":"spender","type":"address","internalType":"address"},{"name":"addedValue","type":"uint256","internalType":"uint256"}],"outputs":[{"name":"","type":"bool","internalType":"bool"}],"stateMutability":"nonpayable"},{"type":"function","name":"name","inputs":[],"outputs":[{"name":"","type":"string","internalType":"string"}],"stateMutability":"view"},{"type":"function","name":"nonces","inputs":[{"name":"owner","type":"address","internalType":"address"}],"outputs":[{"name":"","type":"uint256","internalType":"uint256"}],"stateMutability":"view"},{"type":"function","name":"permit","inputs":[{"name":"owner","type":"address","internalType":"address"},{"name":"spender","type":"address","internalType":"address"},{"name":"amount","type":"uint256","internalType":"uint256"},{"name":"deadline","type":"uint256","internalType":"uint256"},{"name":"v","type":"uint8","internalType":"uint8"},{"name":"r","type":"bytes32","internalType":"bytes32"},{"name":"s","type":"bytes32","internalType":"bytes32"}],"outputs":[],"stateMutability":"nonpayable"},{"type":"function","name":"permitTypeHash","inputs":[],"outputs":[{"name":"","type":"bytes32","internalType":"bytes32"}],"stateMutability":"view"},{"type":"function","name":"sableRewarderAddress","inputs":[],"outputs":[{"name":"","type":"address","internalType":"address"}],"stateMutability":"view"},{"type":"function","name":"sableStakingAddress","inputs":[],"outputs":[{"name":"","type":"address","internalType":"address"}],"stateMutability":"view"},{"type":"function","name":"symbol","inputs":[],"outputs":[{"name":"","type":"string","internalType":"string"}],"stateMutability":"view"},{"type":"function","name":"totalSupply","inputs":[],"outputs":[{"name":"","type":"uint256","internalType":"uint256"}],"stateMutability":"view"},{"type":"function","name":"transfer","inputs":[{"name":"recipient","type":"address","internalType":"address"},{"name":"amount","type":"uint256","internalType":"uint256"}],"outputs":[{"name":"","type":"bool","internalType":"bool"}],"stateMutability":"nonpayable"},{"type":"function","name":"transferFrom","inputs":[{"name":"sender","type":"address","internalType":"address"},{"name":"recipient","type":"address","internalType":"address"},{"name":"amount","type":"uint256","internalType":"uint256"}],"outputs":[{"name":"","type":"bool","internalType":"bool"}],"stateMutability":"nonpayable"},{"type":"function","name":"version","inputs":[],"outputs":[{"name":"","type":"string","internalType":"string"}],"stateMutability":"view"},{"type":"event","name":"Approval","inputs":[{"name":"owner","type":"address","indexed":true,"internalType":"address"},{"name":"spender","type":"address","indexed":true,"internalType":"address"},{"name":"value","type":"uint256","indexed":false,"internalType":"uint256"}],"anonymous":false},{"type":"event","name":"CommunityIssuanceAddressSet","inputs":[{"name":"_communityIssuanceAddress","type":"address","indexed":false,"internalType":"address"}],"anonymous":false},{"type":"event","name":"SABLEStakingAddressSet","inputs":[{"name":"_sableStakingAddress","type":"address","indexed":false,"internalType":"address"}],"anonymous":false},{"type":"event","name":"Transfer","inputs":[{"name":"from","type":"address","indexed":true,"internalType":"address"},{"name":"to","type":"address","indexed":true,"internalType":"address"},{"name":"value","type":"uint256","indexed":false,"internalType":"uint256"}],"anonymous":false}],"bytecode":{"object":"0x6101606040523480156200001257600080fd5b506040516200133e3803806200133e833981810160405260808110156200003857600080fd5b508051602082015160408301516060909301519192909162000063846001600160e01b036200017016565b42610100526001600160601b0319606085811b82166101205284901b166101405260408051808201825260058152645341424c4560d81b602091820152815180830190925260018252603160f81b9101527ff982b9975bcf52f8cf445d957163c5ddf96fb90507d9de659ed89e4aabdf60a360c08190527fc89efdaa54c0f20c7adf612882df0950f5a951637e0307cdcb4c672f298b8bc660e0819052620001136001600160e01b03620001f516565b60a0526200014c7f8b73c3c69bb8fe3d512ecc4cf759cc79239f7b179b0ffacaa9a75d522b39400f83836001600160e01b03620001f916565b6080526200016484846001600160e01b036200025a16565b505050505050620003bd565b6001600160a01b038116620001b4576040805162461bcd60e51b81526020600482015260056024820152641830b2323960d91b604482015290519081900360640190fd5b803b80620001f1576040805162461bcd60e51b815260206004820152600560248201526430636f646560d81b604482015290519081900360640190fd5b5050565b4690565b6000838383620002116001600160e01b03620001f516565b6040805160208082019690965280820194909452606084019290925260808301523060a0808401919091528151808403909101815260c090920190528051910120949350505050565b6001600160a01b038216620002b6576040805162461bcd60e51b815260206004820152601f60248201527f45524332303a206d696e7420746f20746865207a65726f206164647265737300604482015290519081900360640190fd5b620002d2816002546200035b60201b620008c71790919060201c565b6002556001600160a01b0382166000908152602081815260409091205462000305918390620008c76200035b821b17901c565b6001600160a01b0383166000818152602081815260408083209490945583518581529351929391927fddf252ad1be2c89b69c2b068fc378daa952ba7f163c4a11628f55a4df523b3ef9281900390910190a35050565b600082820183811015620003b6576040805162461bcd60e51b815260206004820152601b60248201527f536166654d6174683a206164646974696f6e206f766572666c6f770000000000604482015290519081900360640190fd5b9392505050565b60805160a05160c05160e051610100516101205160601c6101405160601c610f1d62000421600039806105cb5280610a7952508061053c5280610aa05250806104c752508061089c52508061087b5250806108015250806108315250610f1d6000f3fe608060405234801561001057600080fd5b50600436106100f15760003560e01c806306fdde03146100f6578063095ea7b31461017357806310ce43bd146101b357806318160ddd146101cd57806323b872dd146101d5578063313ce5671461020b57806339509351146102295780633c84b7c21461025557806354fd4d501461025d57806370a08231146102655780637ecebe001461028b5780638d0a3b08146102b157806395d89b41146100f6578063a457c2d7146102d5578063a9059cbb14610301578063d014d3931461032d578063d505accf14610335578063dd62ed3e14610388578063f698da25146103b6575b600080fd5b6100fe6103be565b6040805160208082528351818301528351919283929083019185019080838360005b83811015610138578181015183820152602001610120565b50505050905090810190601f1680156101655780820380516001836020036101000a031916815260200191505b509250505060405180910390f35b61019f6004803603604081101561018957600080fd5b506001600160a01b0381351690602001356103de565b604080519115158252519081900360200190f35b6101bb6103f4565b60408051918252519081900360200190f35b6101bb610406565b61019f600480360360608110156101eb57600080fd5b506001600160a01b0381358116916020810135909116906040013561040c565b610213610484565b6040805160ff9092168252519081900360200190f35b61019f6004803603604081101561023f57600080fd5b506001600160a01b038135169060200135610489565b6101bb6104c5565b6100fe6104e9565b6101bb6004803603602081101561027b57600080fd5b50356001600160a01b0316610504565b6101bb600480360360208110156102a157600080fd5b50356001600160a01b031661051f565b6102b961053a565b604080516001600160a01b039092168252519081900360200190f35b61019f600480360360408110156102eb57600080fd5b506001600160a01b03813516906020013561055e565b61019f6004803603604081101561031757600080fd5b506001600160a01b0381351690602001356105b3565b6102b96105c9565b610386600480360360e081101561034b57600080fd5b506001600160a01b03813581169160208101359091169060408101359060608101359060ff6080820135169060a08101359060c001356105ed565b005b6101bb6004803603604081101561039e57600080fd5b506001600160a01b03813581169160200135166107d2565b6101bb6107fd565b6040805180820190915260058152645341424c4560d81b60208201525b90565b60006103eb338484610926565b50600192915050565b600080516020610e4983398151915290565b60025490565b600061041783610a12565b610422848484610b12565b61047a843361047585604051806060016040528060288152602001610e21602891396001600160a01b038a166000908152600160209081526040808320338452909152902054919063ffffffff610c6e16565b610926565b5060019392505050565b601290565b3360008181526001602090815260408083206001600160a01b038716845290915281205490916103eb918590610475908663ffffffff6108c716565b7f000000000000000000000000000000000000000000000000000000000000000090565b6040805180820190915260018152603160f81b602082015290565b6001600160a01b031660009081526020819052604090205490565b6001600160a01b031660009081526003602052604090205490565b7f000000000000000000000000000000000000000000000000000000000000000081565b60006103eb338461047585604051806060016040528060258152602001610eec602591393360009081526001602090815260408083206001600160a01b038d168452909152902054919063ffffffff610c6e16565b60006105be83610a12565b6103eb338484610b12565b7f000000000000000000000000000000000000000000000000000000000000000081565b4284101561063c576040805162461bcd60e51b81526020600482015260176024820152765341424c453a206578706972656420646561646c696e6560481b604482015290519081900360640190fd5b60006106466107fd565b6001600160a01b03808a166000818152600360209081526040808320805460018082019092558251600080516020610e498339815191528186015280840196909652958e166060860152608085018d905260a085019590955260c08085018c90528151808603909101815260e08501825280519083012061190160f01b6101008601526101028501969096526101228085019690965280518085039096018652610142840180825286519683019690962095839052610162840180825286905260ff8a166101828501526101a284018990526101c284018890525194955090936101e280840193601f198301929081900390910190855afa15801561074f573d6000803e3d6000fd5b505050602060405103519050886001600160a01b0316816001600160a01b0316146107bc576040805162461bcd60e51b81526020600482015260186024820152775341424c453a20696e76616c6964207369676e617475726560401b604482015290519081900360640190fd5b6107c7898989610926565b505050505050505050565b6001600160a01b03918216600090815260016020908152604080832093909416825291909152205490565b60007f0000000000000000000000000000000000000000000000000000000000000000610828610d05565b141561085557507f00000000000000000000000000000000000000000000000000000000000000006103db565b6108c07f8b73c3c69bb8fe3d512ecc4cf759cc79239f7b179b0ffacaa9a75d522b39400f7f00000000000000000000000000000000000000000000000000000000000000007f0000000000000000000000000000000000000000000000000000000000000000610d09565b90506103db565b60008282018381101561091f576040805162461bcd60e51b815260206004820152601b60248201527a536166654d6174683a206164646974696f6e206f766572666c6f7760281b604482015290519081900360640190fd5b9392505050565b6001600160a01b03831661096b5760405162461bcd60e51b8152600401808060200182810382526024815260200180610ec86024913960400191505060405180910390fd5b6001600160a01b0382166109b05760405162461bcd60e51b8152600401808060200182810382526022815260200180610dd96022913960400191505060405180910390fd5b6001600160a01b03808416600081815260016020908152604080832094871680845294825291829020859055815185815291517f8c5be1e5ebec7d5bd14f71427d1e84f3dd0314c0f7b2291e5b200ac8c7c3b9259281900390910190a3505050565b6001600160a01b03811615801590610a3357506001600160a01b0381163014155b610a6e5760405162461bcd60e51b8152600401808060200182810382526056815260200180610d836056913960600191505060405180910390fd5b336001600160a01b037f00000000000000000000000000000000000000000000000000000000000000001614610b0f577f00000000000000000000000000000000000000000000000000000000000000006001600160a01b0316816001600160a01b03161415610b0f5760405162461bcd60e51b815260040180806020018281038252603a815260200180610e8e603a913960400191505060405180910390fd5b50565b6001600160a01b038316610b575760405162461bcd60e51b8152600401808060200182810382526025815260200180610e696025913960400191505060405180910390fd5b6001600160a01b038216610b9c5760405162461bcd60e51b8152600401808060200182810382526023815260200180610d606023913960400191505060405180910390fd5b610bdf81604051806060016040528060268152602001610dfb602691396001600160a01b038616600090815260208190526040902054919063ffffffff610c6e16565b6001600160a01b038085166000908152602081905260408082209390935590841681522054610c14908263ffffffff6108c716565b6001600160a01b038084166000818152602081815260409182902094909455805185815290519193928716927fddf252ad1be2c89b69c2b068fc378daa952ba7f163c4a11628f55a4df523b3ef92918290030190a3505050565b60008184841115610cfd5760405162461bcd60e51b81526004018080602001828103825283818151815260200191508051906020019080838360005b83811015610cc2578181015183820152602001610caa565b50505050905090810190601f168015610cef5780820380516001836020036101000a031916815260200191505b509250505060405180910390fd5b505050900390565b4690565b6000838383610d16610d05565b6040805160208082019690965280820194909452606084019290925260808301523060a0808401919091528151808403909101815260c09092019052805191012094935050505056fe45524332303a207472616e7366657220746f20746865207a65726f20616464726573735341424c453a2043616e6e6f74207472616e7366657220746f6b656e73206469726563746c7920746f20746865205341424c4520746f6b656e20636f6e7472616374206f7220746865207a65726f206164647265737345524332303a20617070726f766520746f20746865207a65726f206164647265737345524332303a207472616e7366657220616d6f756e7420657863656564732062616c616e636545524332303a207472616e7366657220616d6f756e74206578636565647320616c6c6f77616e63656e71edae12b1b97f4d1f60370fef10105fa2faae0126114a169c64845d6126c945524332303a207472616e736665722066726f6d20746865207a65726f20616464726573735341424c453a2043616e6e6f74207472616e7366657220746f6b656e73206469726563746c7920746f207374616b696e6720636f6e747261637445524332303a20617070726f76652066726f6d20746865207a65726f206164647265737345524332303a2064656372656173656420616c6c6f77616e63652062656c6f77207a65726fa164736f6c634300060b000a","linkReferences":{}},"methodIdentifiers":{"allowance(address,address)":"dd62ed3e","approve(address,uint256)":"095ea7b3","balanceOf(address)":"70a08231","decimals()":"313ce567","decreaseAllowance(address,uint256)":"a457c2d7","domainSeparator()":"f698da25","getDeploymentStartTime()":"3c84b7c2","increaseAllowance(address,uint256)":"39509351","name()":"06fdde03","nonces(address)":"7ecebe00","permit(address,address,uint256,uint256,uint8,bytes32,bytes32)":"d505accf","permitTypeHash()":"10ce43bd","sableRewarderAddress()":"d014d393","sableStakingAddress()":"8d0a3b08","symbol()":"95d89b41","totalSupply()":"18160ddd","transfer(address,uint256)":"a9059cbb","transferFrom(address,address,uint256)":"23b872dd","version()":"54fd4d50"},"id":71}