{"abi":[{"type":"constructor","inputs":[{"name":"_stabilityPool","type":"address","internalType":"contract IStabilityPool"}],"stateMutability":"nonpayable"},{"type":"function","name":"NAME","inputs":[],"outputs":[{"name":"","type":"string","internalType":"string"}],"stateMutability":"view"},{"type":"function","name":"provideToSP","inputs":[{"name":"_amount","type":"uint256","internalType":"uint256"},{"name":"_frontEndTag","type":"address","internalType":"address"}],"outputs":[],"stateMutability":"nonpayable"},{"type":"function","name":"withdrawBNBGainToTrove","inputs":[{"name":"_upperHint","type":"address","internalType":"address"},{"name":"_lowerHint","type":"address","internalType":"address"},{"name":"priceFeedUpdateData","type":"bytes[]","internalType":"bytes[]"}],"outputs":[],"stateMutability":"nonpayable"},{"type":"function","name":"withdrawFromSP","inputs":[{"name":"_amount","type":"uint256","internalType":"uint256"},{"name":"priceFeedUpdateData","type":"bytes[]","internalType":"bytes[]"}],"outputs":[],"stateMutability":"nonpayable"}],"bytecode":{"object":"0x60a060405234801561001057600080fd5b5060405161066c38038061066c83398101604081905261002f916100a8565b610041816001600160e01b0361005616565b60601b6001600160601b031916608052610114565b6001600160a01b0381166100855760405162461bcd60e51b815260040161007c906100d6565b60405180910390fd5b803b806100a45760405162461bcd60e51b815260040161007c906100f5565b5050565b6000602082840312156100b9578081fd5b81516001600160a01b03811681146100cf578182fd5b9392505050565b6020808252600590820152641830b2323960d91b604082015260600190565b60208082526005908201526430636f646560d81b604082015260600190565b60805160601c61053261013a6000398060c1528061014852806101fb52506105326000f3fe608060405234801561001057600080fd5b506004361061004c5760003560e01c8063250ffbec146100515780635f788d6514610066578063a3f4df7e14610079578063fc55bd1614610097575b600080fd5b61006461005f36600461035f565b6100aa565b005b610064610074366004610333565b610131565b6100816101b5565b60405161008e9190610498565b60405180910390f35b6100646100a53660046102d3565b6101e4565b604051630943fefb60e21b81526001600160a01b037f0000000000000000000000000000000000000000000000000000000000000000169063250ffbec906100fa90869086908690600401610502565b600060405180830381600087803b15801561011457600080fd5b505af1158015610128573d6000803e3d6000fd5b50505050505050565b604051635f788d6560e01b81526001600160a01b037f00000000000000000000000000000000000000000000000000000000000000001690635f788d659061017f90859085906004016104eb565b600060405180830381600087803b15801561019957600080fd5b505af11580156101ad573d6000803e3d6000fd5b505050505050565b6040518060400160405280601381526020017214dd18589a5b1a5d1e541bdbdb14d8dc9a5c1d606a1b81525081565b604051637e2ade8b60e11b81526001600160a01b037f0000000000000000000000000000000000000000000000000000000000000000169063fc55bd1690610236908790879087908790600401610461565b600060405180830381600087803b15801561025057600080fd5b505af1158015610264573d6000803e3d6000fd5b5050505050505050565b80356001600160a01b038116811461028557600080fd5b92915050565b60008083601f84011261029c578182fd5b5081356001600160401b038111156102b2578182fd5b60208301915083602080830285010111156102cc57600080fd5b9250929050565b600080600080606085870312156102e8578384fd5b6102f2868661026e565b9350610301866020870161026e565b925060408501356001600160401b0381111561031b578283fd5b6103278782880161028b565b95989497509550505050565b60008060408385031215610345578182fd5b82359150610356846020850161026e565b90509250929050565b600080600060408486031215610373578283fd5b8335925060208401356001600160401b0381111561038f578283fd5b61039b8682870161028b565b9497909650939450505050565b8183526020808401936000918085028201810184845b8781101561042a57848303601f19018952813536889003601e190181126103e3578687fd5b87018035906001600160401b038211156103fb578788fd5b813603891315610409578788fd5b6104168583888401610437565b9a86019a94505050908301906001016103be565b5090979650505050505050565b60008284528282602086013780602084860101526020601f19601f85011685010190509392505050565b6001600160a01b0385811682528416602082015260606040820181905260009061048e90830184866103a8565b9695505050505050565b6000602080835283518082850152825b818110156104c4578581018301518582016040015282016104a8565b818111156104d55783604083870101525b50601f01601f1916929092016040019392505050565b9182526001600160a01b0316602082015260400190565b60008482526040602083015261051c6040830184866103a8565b9594505050505056fea164736f6c634300060b000a","linkReferences":{}},"methodIdentifiers":{"NAME()":"a3f4df7e","provideToSP(uint256,address)":"5f788d65","withdrawBNBGainToTrove(address,address,bytes[])":"fc55bd16","withdrawFromSP(uint256,bytes[])":"250ffbec"},"id":66}