{"abi":[{"type":"function","name":"decimals","inputs":[],"outputs":[{"name":"","type":"uint8","internalType":"uint8"}],"stateMutability":"view"},{"type":"function","name":"description","inputs":[],"outputs":[{"name":"","type":"string","internalType":"string"}],"stateMutability":"view"},{"type":"function","name":"getRoundData","inputs":[{"name":"","type":"uint80","internalType":"uint80"}],"outputs":[{"name":"roundId","type":"uint80","internalType":"uint80"},{"name":"answer","type":"int256","internalType":"int256"},{"name":"startedAt","type":"uint256","internalType":"uint256"},{"name":"updatedAt","type":"uint256","internalType":"uint256"},{"name":"answeredInRound","type":"uint80","internalType":"uint80"}],"stateMutability":"view"},{"type":"function","name":"latestRoundData","inputs":[],"outputs":[{"name":"roundId","type":"uint80","internalType":"uint80"},{"name":"answer","type":"int256","internalType":"int256"},{"name":"startedAt","type":"uint256","internalType":"uint256"},{"name":"updatedAt","type":"uint256","internalType":"uint256"},{"name":"answeredInRound","type":"uint80","internalType":"uint80"}],"stateMutability":"view"},{"type":"function","name":"setDecimals","inputs":[{"name":"_decimals","type":"uint8","internalType":"uint8"}],"outputs":[],"stateMutability":"nonpayable"},{"type":"function","name":"setDecimalsRevert","inputs":[],"outputs":[],"stateMutability":"nonpayable"},{"type":"function","name":"setLatestRevert","inputs":[],"outputs":[],"stateMutability":"nonpayable"},{"type":"function","name":"setLatestRoundId","inputs":[{"name":"_latestRoundId","type":"uint80","internalType":"uint80"}],"outputs":[],"stateMutability":"nonpayable"},{"type":"function","name":"setPrevPrice","inputs":[{"name":"_prevPrice","type":"int256","internalType":"int256"}],"outputs":[],"stateMutability":"nonpayable"},{"type":"function","name":"setPrevRevert","inputs":[],"outputs":[],"stateMutability":"nonpayable"},{"type":"function","name":"setPrevRoundId","inputs":[{"name":"_prevRoundId","type":"uint80","internalType":"uint80"}],"outputs":[],"stateMutability":"nonpayable"},{"type":"function","name":"setPrevUpdateTime","inputs":[{"name":"_prevUpdateTime","type":"uint256","internalType":"uint256"}],"outputs":[],"stateMutability":"nonpayable"},{"type":"function","name":"setPrice","inputs":[{"name":"_price","type":"int256","internalType":"int256"}],"outputs":[],"stateMutability":"nonpayable"},{"type":"function","name":"setUpdateTime","inputs":[{"name":"_updateTime","type":"uint256","internalType":"uint256"}],"outputs":[],"stateMutability":"nonpayable"},{"type":"function","name":"version","inputs":[],"outputs":[{"name":"","type":"uint256","internalType":"uint256"}],"stateMutability":"view"}],"bytecode":{"object":"0x60806040526000805460ff1916600817905534801561001d57600080fd5b5061055a8061002d6000396000f3fe608060405234801561001057600080fd5b50600436106100c55760003560e01c806313886538146100ca57806329ccf0cf146100e9578063313ce567146100f157806354fd4d501461010f57806366543a6c146101295780637134b990146101315780637284e416146101575780637394e789146101d457806375354ffa146101f15780637a1395aa146102175780639a6fc8f514610237578063a68e594514610299578063bf73eea6146102a1578063f7a30806146102be578063feaf968c146102db575b600080fd5b6100e7600480360360208110156100e057600080fd5b50356102e3565b005b6100e76102e8565b6100f9610309565b6040805160ff9092168252519081900360200190f35b610117610369565b60408051918252519081900360200190f35b6100e761036e565b6100e76004803603602081101561014757600080fd5b50356001600160501b031661038f565b61015f6103b1565b6040805160208082528351818301528351919283929083019185019080838360005b83811015610199578181015183820152602001610181565b50505050905090810190601f1680156101c65780820380516001836020036101000a031916815260200191505b509250505060405180910390f35b6100e7600480360360208110156101ea57600080fd5b50356103c3565b6100e76004803603602081101561020757600080fd5b50356001600160501b03166103c8565b6100e76004803603602081101561022d57600080fd5b503560ff166103f4565b61025d6004803603602081101561024d57600080fd5b50356001600160501b031661040a565b604080516001600160501b0396871681526020810195909552848101939093526060840191909152909216608082015290519081900360a00190f35b6100e7610498565b6100e7600480360360208110156102b757600080fd5b50356104b9565b6100e7600480360360208110156102d457600080fd5b50356104be565b61025d6104c3565b600255565b6005805460ff60b01b198116600160b01b9182900460ff1615909102179055565b600554600090600160b01b900460ff161561035f576040805162461bcd60e51b8152602060048201526011602482015270191958da5b585b1cc81c995d995c9d1959607a1b604482015290519081900360640190fd5b5060005460ff1690565b600190565b6005805460ff60a01b198116600160a01b9182900460ff1615909102179055565b600580546001600160501b0319166001600160501b0392909216919091179055565b60408051602081019091526000815290565b600455565b600580546001600160501b03909216600160501b02600160501b600160a01b0319909216919091179055565b6000805460ff191660ff92909216919091179055565b6000806000806000600560159054906101000a900460ff161561046c576040805162461bcd60e51b815260206004820152601560248201527419d95d149bdd5b9911185d18481c995d995c9d1959605a1b604482015290519081900360640190fd5b5050600554600254600354600160501b9092046001600160501b03169690955060009450909250839150565b6005805460ff60a81b198116600160a81b9182900460ff1615909102179055565b600355565b600155565b6000806000806000600560149054906101000a900460ff1615610528576040805162461bcd60e51b81526020600482015260186024820152771b185d195cdd149bdd5b9911185d18481c995d995c9d195960421b604482015290519081900360640190fd5b50506005546001546003546001600160501b039092169590945060009350909150829056fea164736f6c634300060b000a","linkReferences":{}},"methodIdentifiers":{"decimals()":"313ce567","description()":"7284e416","getRoundData(uint80)":"9a6fc8f5","latestRoundData()":"feaf968c","setDecimals(uint8)":"7a1395aa","setDecimalsRevert()":"29ccf0cf","setLatestRevert()":"66543a6c","setLatestRoundId(uint80)":"7134b990","setPrevPrice(int256)":"13886538","setPrevRevert()":"a68e5945","setPrevRoundId(uint80)":"75354ffa","setPrevUpdateTime(uint256)":"7394e789","setPrice(int256)":"f7a30806","setUpdateTime(uint256)":"bf73eea6","version()":"54fd4d50"},"id":87}