{"abi":[{"type":"receive","stateMutability":"payable"},{"type":"function","name":"DECIMAL_PRECISION","inputs":[],"outputs":[{"name":"","type":"uint256","internalType":"uint256"}],"stateMutability":"view"},{"type":"function","name":"NAME","inputs":[],"outputs":[{"name":"","type":"string","internalType":"string"}],"stateMutability":"view"},{"type":"function","name":"P","inputs":[],"outputs":[{"name":"","type":"uint256","internalType":"uint256"}],"stateMutability":"view"},{"type":"function","name":"PERCENT_DIVISOR","inputs":[],"outputs":[{"name":"","type":"uint256","internalType":"uint256"}],"stateMutability":"view"},{"type":"function","name":"SCALE_FACTOR","inputs":[],"outputs":[{"name":"","type":"uint256","internalType":"uint256"}],"stateMutability":"view"},{"type":"function","name":"_100pct","inputs":[],"outputs":[{"name":"","type":"uint256","internalType":"uint256"}],"stateMutability":"view"},{"type":"function","name":"activePool","inputs":[],"outputs":[{"name":"","type":"address","internalType":"contract IActivePool"}],"stateMutability":"view"},{"type":"function","name":"borrowerOperations","inputs":[],"outputs":[{"name":"","type":"address","internalType":"contract IBorrowerOperations"}],"stateMutability":"view"},{"type":"function","name":"communityIssuance","inputs":[],"outputs":[{"name":"","type":"address","internalType":"contract ICommunityIssuance"}],"stateMutability":"view"},{"type":"function","name":"currentEpoch","inputs":[],"outputs":[{"name":"","type":"uint128","internalType":"uint128"}],"stateMutability":"view"},{"type":"function","name":"currentScale","inputs":[],"outputs":[{"name":"","type":"uint128","internalType":"uint128"}],"stateMutability":"view"},{"type":"function","name":"defaultPool","inputs":[],"outputs":[{"name":"","type":"address","internalType":"contract IDefaultPool"}],"stateMutability":"view"},{"type":"function","name":"depositSnapshots","inputs":[{"name":"","type":"address","internalType":"address"}],"outputs":[{"name":"S","type":"uint256","internalType":"uint256"},{"name":"P","type":"uint256","internalType":"uint256"},{"name":"G","type":"uint256","internalType":"uint256"},{"name":"scale","type":"uint128","internalType":"uint128"},{"name":"epoch","type":"uint128","internalType":"uint128"}],"stateMutability":"view"},{"type":"function","name":"deposits","inputs":[{"name":"","type":"address","internalType":"address"}],"outputs":[{"name":"initialValue","type":"uint256","internalType":"uint256"},{"name":"frontEndTag","type":"address","internalType":"address"}],"stateMutability":"view"},{"type":"function","name":"epochToScaleToG","inputs":[{"name":"","type":"uint128","internalType":"uint128"},{"name":"","type":"uint128","internalType":"uint128"}],"outputs":[{"name":"","type":"uint256","internalType":"uint256"}],"stateMutability":"view"},{"type":"function","name":"epochToScaleToSum","inputs":[{"name":"","type":"uint128","internalType":"uint128"},{"name":"","type":"uint128","internalType":"uint128"}],"outputs":[{"name":"","type":"uint256","internalType":"uint256"}],"stateMutability":"view"},{"type":"function","name":"frontEndSnapshots","inputs":[{"name":"","type":"address","internalType":"address"}],"outputs":[{"name":"S","type":"uint256","internalType":"uint256"},{"name":"P","type":"uint256","internalType":"uint256"},{"name":"G","type":"uint256","internalType":"uint256"},{"name":"scale","type":"uint128","internalType":"uint128"},{"name":"epoch","type":"uint128","internalType":"uint128"}],"stateMutability":"view"},{"type":"function","name":"frontEndStakes","inputs":[{"name":"","type":"address","internalType":"address"}],"outputs":[{"name":"","type":"uint256","internalType":"uint256"}],"stateMutability":"view"},{"type":"function","name":"frontEnds","inputs":[{"name":"","type":"address","internalType":"address"}],"outputs":[{"name":"kickbackRate","type":"uint256","internalType":"uint256"},{"name":"registered","type":"bool","internalType":"bool"}],"stateMutability":"view"},{"type":"function","name":"getBNB","inputs":[],"outputs":[{"name":"","type":"uint256","internalType":"uint256"}],"stateMutability":"view"},{"type":"function","name":"getCompoundedFrontEndStake","inputs":[{"name":"_frontEnd","type":"address","internalType":"address"}],"outputs":[{"name":"","type":"uint256","internalType":"uint256"}],"stateMutability":"view"},{"type":"function","name":"getCompoundedUSDSDeposit","inputs":[{"name":"_depositor","type":"address","internalType":"address"}],"outputs":[{"name":"","type":"uint256","internalType":"uint256"}],"stateMutability":"view"},{"type":"function","name":"getDepositorBNBGain","inputs":[{"name":"_depositor","type":"address","internalType":"address"}],"outputs":[{"name":"","type":"uint256","internalType":"uint256"}],"stateMutability":"view"},{"type":"function","name":"getDepositorSABLEGain","inputs":[{"name":"_depositor","type":"address","internalType":"address"}],"outputs":[{"name":"","type":"uint256","internalType":"uint256"}],"stateMutability":"view"},{"type":"function","name":"getEntireSystemColl","inputs":[],"outputs":[{"name":"entireSystemColl","type":"uint256","internalType":"uint256"}],"stateMutability":"view"},{"type":"function","name":"getEntireSystemDebt","inputs":[],"outputs":[{"name":"entireSystemDebt","type":"uint256","internalType":"uint256"}],"stateMutability":"view"},{"type":"function","name":"getFrontEndSABLEGain","inputs":[{"name":"_frontEnd","type":"address","internalType":"address"}],"outputs":[{"name":"","type":"uint256","internalType":"uint256"}],"stateMutability":"view"},{"type":"function","name":"getTotalUSDSDeposits","inputs":[],"outputs":[{"name":"","type":"uint256","internalType":"uint256"}],"stateMutability":"view"},{"type":"function","name":"isOwner","inputs":[],"outputs":[{"name":"","type":"bool","internalType":"bool"}],"stateMutability":"view"},{"type":"function","name":"lastBNBError_Offset","inputs":[],"outputs":[{"name":"","type":"uint256","internalType":"uint256"}],"stateMutability":"view"},{"type":"function","name":"lastSABLEError","inputs":[],"outputs":[{"name":"","type":"uint256","internalType":"uint256"}],"stateMutability":"view"},{"type":"function","name":"lastUSDSLossError_Offset","inputs":[],"outputs":[{"name":"","type":"uint256","internalType":"uint256"}],"stateMutability":"view"},{"type":"function","name":"offset","inputs":[{"name":"_debtToOffset","type":"uint256","internalType":"uint256"},{"name":"_collToAdd","type":"uint256","internalType":"uint256"}],"outputs":[],"stateMutability":"nonpayable"},{"type":"function","name":"owner","inputs":[],"outputs":[{"name":"","type":"address","internalType":"address"}],"stateMutability":"view"},{"type":"function","name":"ownerTriggerIssuance","inputs":[],"outputs":[],"stateMutability":"nonpayable"},{"type":"function","name":"priceFeed","inputs":[],"outputs":[{"name":"","type":"address","internalType":"contract IPriceFeed"}],"stateMutability":"view"},{"type":"function","name":"provideToSP","inputs":[{"name":"_amount","type":"uint256","internalType":"uint256"},{"name":"_frontEndTag","type":"address","internalType":"address"}],"outputs":[],"stateMutability":"nonpayable"},{"type":"function","name":"registerFrontEnd","inputs":[{"name":"_kickbackRate","type":"uint256","internalType":"uint256"}],"outputs":[],"stateMutability":"nonpayable"},{"type":"function","name":"setCurrentScale","inputs":[{"name":"_currentScale","type":"uint128","internalType":"uint128"}],"outputs":[],"stateMutability":"nonpayable"},{"type":"function","name":"setParams","inputs":[{"name":"_borrowerOperationsAddress","type":"address","internalType":"address"},{"name":"_troveManagerAddress","type":"address","internalType":"address"},{"name":"_activePoolAddress","type":"address","internalType":"address"},{"name":"_usdsTokenAddress","type":"address","internalType":"address"},{"name":"_sortedTrovesAddress","type":"address","internalType":"address"},{"name":"_priceFeedAddress","type":"address","internalType":"address"},{"name":"_communityIssuanceAddress","type":"address","internalType":"address"},{"name":"_systemStateAddress","type":"address","internalType":"address"}],"outputs":[],"stateMutability":"nonpayable"},{"type":"function","name":"setTotalDeposits","inputs":[{"name":"_totalUSDSDeposits","type":"uint256","internalType":"uint256"}],"outputs":[],"stateMutability":"nonpayable"},{"type":"function","name":"sortedTroves","inputs":[],"outputs":[{"name":"","type":"address","internalType":"contract ISortedTroves"}],"stateMutability":"view"},{"type":"function","name":"systemState","inputs":[],"outputs":[{"name":"","type":"address","internalType":"contract ISystemState"}],"stateMutability":"view"},{"type":"function","name":"timeLock","inputs":[],"outputs":[{"name":"","type":"address","internalType":"address"}],"stateMutability":"view"},{"type":"function","name":"troveManager","inputs":[],"outputs":[{"name":"","type":"address","internalType":"contract ITroveManager"}],"stateMutability":"view"},{"type":"function","name":"unprotectedPayable","inputs":[],"outputs":[],"stateMutability":"payable"},{"type":"function","name":"usdsToken","inputs":[],"outputs":[{"name":"","type":"address","internalType":"contract IUSDSToken"}],"stateMutability":"view"},{"type":"function","name":"withdrawBNBGainToTrove","inputs":[{"name":"_upperHint","type":"address","internalType":"address"},{"name":"_lowerHint","type":"address","internalType":"address"},{"name":"priceFeedUpdateData","type":"bytes[]","internalType":"bytes[]"}],"outputs":[],"stateMutability":"nonpayable"},{"type":"function","name":"withdrawFromSP","inputs":[{"name":"_amount","type":"uint256","internalType":"uint256"},{"name":"priceFeedUpdateData","type":"bytes[]","internalType":"bytes[]"}],"outputs":[],"stateMutability":"nonpayable"},{"type":"event","name":"ActivePoolAddressChanged","inputs":[{"name":"_newActivePoolAddress","type":"address","indexed":false,"internalType":"address"}],"anonymous":false},{"type":"event","name":"BNBGainWithdrawn","inputs":[{"name":"_depositor","type":"address","indexed":true,"internalType":"address"},{"name":"_BNB","type":"uint256","indexed":false,"internalType":"uint256"},{"name":"_USDSLoss","type":"uint256","indexed":false,"internalType":"uint256"}],"anonymous":false},{"type":"event","name":"BorrowerOperationsAddressChanged","inputs":[{"name":"_newBorrowerOperationsAddress","type":"address","indexed":false,"internalType":"address"}],"anonymous":false},{"type":"event","name":"CommunityIssuanceAddressChanged","inputs":[{"name":"_newCommunityIssuanceAddress","type":"address","indexed":false,"internalType":"address"}],"anonymous":false},{"type":"event","name":"DefaultPoolAddressChanged","inputs":[{"name":"_newDefaultPoolAddress","type":"address","indexed":false,"internalType":"address"}],"anonymous":false},{"type":"event","name":"DepositSnapshotUpdated","inputs":[{"name":"_depositor","type":"address","indexed":true,"internalType":"address"},{"name":"_P","type":"uint256","indexed":false,"internalType":"uint256"},{"name":"_S","type":"uint256","indexed":false,"internalType":"uint256"},{"name":"_G","type":"uint256","indexed":false,"internalType":"uint256"}],"anonymous":false},{"type":"event","name":"EpochUpdated","inputs":[{"name":"_currentEpoch","type":"uint128","indexed":false,"internalType":"uint128"}],"anonymous":false},{"type":"event","name":"EtherSent","inputs":[{"name":"_to","type":"address","indexed":false,"internalType":"address"},{"name":"_amount","type":"uint256","indexed":false,"internalType":"uint256"}],"anonymous":false},{"type":"event","name":"FrontEndRegistered","inputs":[{"name":"_frontEnd","type":"address","indexed":true,"internalType":"address"},{"name":"_kickbackRate","type":"uint256","indexed":false,"internalType":"uint256"}],"anonymous":false},{"type":"event","name":"FrontEndSnapshotUpdated","inputs":[{"name":"_frontEnd","type":"address","indexed":true,"internalType":"address"},{"name":"_P","type":"uint256","indexed":false,"internalType":"uint256"},{"name":"_G","type":"uint256","indexed":false,"internalType":"uint256"}],"anonymous":false},{"type":"event","name":"FrontEndStakeChanged","inputs":[{"name":"_frontEnd","type":"address","indexed":true,"internalType":"address"},{"name":"_newFrontEndStake","type":"uint256","indexed":false,"internalType":"uint256"},{"name":"_depositor","type":"address","indexed":false,"internalType":"address"}],"anonymous":false},{"type":"event","name":"FrontEndTagSet","inputs":[{"name":"_depositor","type":"address","indexed":true,"internalType":"address"},{"name":"_frontEnd","type":"address","indexed":true,"internalType":"address"}],"anonymous":false},{"type":"event","name":"G_Updated","inputs":[{"name":"_G","type":"uint256","indexed":false,"internalType":"uint256"},{"name":"_epoch","type":"uint128","indexed":false,"internalType":"uint128"},{"name":"_scale","type":"uint128","indexed":false,"internalType":"uint128"}],"anonymous":false},{"type":"event","name":"OwnershipTransferred","inputs":[{"name":"previousOwner","type":"address","indexed":true,"internalType":"address"},{"name":"newOwner","type":"address","indexed":true,"internalType":"address"}],"anonymous":false},{"type":"event","name":"P_Updated","inputs":[{"name":"_P","type":"uint256","indexed":false,"internalType":"uint256"}],"anonymous":false},{"type":"event","name":"PriceFeedAddressChanged","inputs":[{"name":"_newPriceFeedAddress","type":"address","indexed":false,"internalType":"address"}],"anonymous":false},{"type":"event","name":"SABLEPaidToDepositor","inputs":[{"name":"_depositor","type":"address","indexed":true,"internalType":"address"},{"name":"_SABLE","type":"uint256","indexed":false,"internalType":"uint256"}],"anonymous":false},{"type":"event","name":"SABLEPaidToFrontEnd","inputs":[{"name":"_frontEnd","type":"address","indexed":true,"internalType":"address"},{"name":"_SABLE","type":"uint256","indexed":false,"internalType":"uint256"}],"anonymous":false},{"type":"event","name":"S_Updated","inputs":[{"name":"_S","type":"uint256","indexed":false,"internalType":"uint256"},{"name":"_epoch","type":"uint128","indexed":false,"internalType":"uint128"},{"name":"_scale","type":"uint128","indexed":false,"internalType":"uint128"}],"anonymous":false},{"type":"event","name":"ScaleUpdated","inputs":[{"name":"_currentScale","type":"uint128","indexed":false,"internalType":"uint128"}],"anonymous":false},{"type":"event","name":"SortedTrovesAddressChanged","inputs":[{"name":"_newSortedTrovesAddress","type":"address","indexed":false,"internalType":"address"}],"anonymous":false},{"type":"event","name":"StabilityPoolBNBBalanceUpdated","inputs":[{"name":"_newBalance","type":"uint256","indexed":false,"internalType":"uint256"}],"anonymous":false},{"type":"event","name":"StabilityPoolUSDSBalanceUpdated","inputs":[{"name":"_newBalance","type":"uint256","indexed":false,"internalType":"uint256"}],"anonymous":false},{"type":"event","name":"SystemStateAddressChanged","inputs":[{"name":"_newSystemStateAddress","type":"address","indexed":false,"internalType":"address"}],"anonymous":false},{"type":"event","name":"TroveManagerAddressChanged","inputs":[{"name":"_newTroveManagerAddress","type":"address","indexed":false,"internalType":"address"}],"anonymous":false},{"type":"event","name":"USDSTokenAddressChanged","inputs":[{"name":"_newUSDSTokenAddress","type":"address","indexed":false,"internalType":"address"}],"anonymous":false},{"type":"event","name":"UserDepositChanged","inputs":[{"name":"_depositor","type":"address","indexed":true,"internalType":"address"},{"name":"_newDeposit","type":"uint256","indexed":false,"internalType":"uint256"}],"anonymous":false}],"bytecode":{"object":"0x6080604052670de0b6b3a764000060125534801561001c57600080fd5b50600580546001600160a01b031916339081179091556040516000907f8be0079c531659141344cd1fd0a4f28419497f9722a3daafe3b4186f6b6457e0908290a3613d6f8061006c6000396000f3fe6080604052600436106102325760003560e01c80630e1cfec91461028257806316b9d3c5146102ad5780631f08498c146102de57806323b36a81146102fe578063250ffbec1461031e57806328a0a04d146103405780632a7e19c314610360578063335525ad146103805780633927e006146103a05780633cc74225146103b55780633d83908a146103d75780634870dd9a146103ec57806350f592db14610401578063556be101146104215780635d2de642146104415780635f788d651461046157806372fe25aa1461048157806373fc5fcd14610496578063741bef1a146104b657806376671808146104cb57806377553ad4146104ed57806378a619de14610502578063795d26c3146105175780637f7dde4a1461052c57806382e0a57414610541578063848bb7c61461056157806386da082414610576578063887105d3146105965780638b8fbd92146105ab5780638da5cb5b146105c05780638f32d59b146105d557806395fb16bb146105f7578063991292e31461060c5780639aca71b014610621578063a20baee614610481578063a3f4df7e14610636578063a4e59ac814610658578063a7bfff971461066d578063ae9187541461069b578063ba9c7485146106b0578063ce4b5bbe146106d0578063ce538bee146106e5578063d085835a14610705578063df9cd84f1461071a578063f3af7c3b1461073a578063f6d706c114610742578063f8f8d17414610757578063fc55bd161461076c578063fc7e286d1461078c5761027d565b3661027d5761023f6107ba565b600b54610252903463ffffffff6107ef16565b600b819055604051600080516020613d238339815191529161027391613b8f565b60405180910390a1005b600080fd5b34801561028e57600080fd5b5061029761081d565b6040516102a49190613b8f565b60405180910390f35b3480156102b957600080fd5b506102cd6102c836600461316f565b610823565b6040516102a4959493929190613bde565b3480156102ea57600080fd5b506102976102f936600461316f565b61085e565b34801561030a57600080fd5b5061029761031936600461316f565b610906565b34801561032a57600080fd5b5061033e6103393660046133bf565b610a0a565b005b34801561034c57600080fd5b5061029761035b36600461332c565b610bac565b34801561036c57600080fd5b5061033e61037b3660046131a7565b610bc9565b34801561038c57600080fd5b5061033e61039b366004613408565b610e7a565b3480156103ac57600080fd5b50610297610ede565b3480156103c157600080fd5b506103ca610ee4565b6040516102a491906134c8565b3480156103e357600080fd5b506103ca610ef3565b3480156103f857600080fd5b50610297610f02565b34801561040d57600080fd5b5061033e61041c366004613311565b610f07565b34801561042d57600080fd5b5061033e61043c366004613360565b610f29565b34801561044d57600080fd5b5061029761045c36600461316f565b610fa1565b34801561046d57600080fd5b5061033e61047c366004613390565b610fb3565b34801561048d57600080fd5b50610297611156565b3480156104a257600080fd5b506102976104b136600461316f565b611162565b3480156104c257600080fd5b506103ca6111ff565b3480156104d757600080fd5b506104e061120e565b6040516102a49190613b7b565b3480156104f957600080fd5b506103ca611224565b34801561050e57600080fd5b50610297611233565b34801561052357600080fd5b50610297611239565b34801561053857600080fd5b506103ca611365565b34801561054d57600080fd5b5061029761055c36600461332c565b611374565b34801561056d57600080fd5b5061033e611391565b34801561058257600080fd5b506102cd61059136600461316f565b6113ae565b3480156105a257600080fd5b506102976113e9565b3480156105b757600080fd5b506102976114c4565b3480156105cc57600080fd5b506103ca6114ca565b3480156105e157600080fd5b506105ea6114d9565b6040516102a4919061356a565b34801561060357600080fd5b506103ca6114ea565b34801561061857600080fd5b506103ca6114f9565b34801561062d57600080fd5b50610297611508565b34801561064257600080fd5b5061064b61150e565b6040516102a49190613599565b34801561066457600080fd5b506104e0611537565b34801561067957600080fd5b5061068d61068836600461316f565b611546565b6040516102a4929190613baf565b3480156106a757600080fd5b506103ca611562565b3480156106bc57600080fd5b5061033e6106cb366004613360565b611571565b3480156106dc57600080fd5b50610297611576565b3480156106f157600080fd5b5061029761070036600461316f565b61157e565b34801561071157600080fd5b506103ca61167b565b34801561072657600080fd5b5061029761073536600461316f565b61168a565b61033e611727565b34801561074e57600080fd5b5061029761173f565b34801561076357600080fd5b506103ca611745565b34801561077857600080fd5b5061033e61078736600461324f565b611754565b34801561079857600080fd5b506107ac6107a736600461316f565b61198e565b6040516102a4929190613b98565b6001546001600160a01b031633146107ed5760405162461bcd60e51b81526004016107e49061368d565b60405180910390fd5b565b6000828201838110156108145760405162461bcd60e51b81526004016107e4906135ec565b90505b92915050565b60185481565b6011602052600090815260409020805460018201546002830154600390930154919290916001600160801b0380821691600160801b90041685565b6001600160a01b0381166000908152600d602052604081205480610886576000915050610901565b61088e6130a4565b506001600160a01b0383166000908152600e60209081526040808320815160a08101835281548152600182015493810193909352600281015491830191909152600301546001600160801b038082166060840152600160801b909104166080820152906108fb83836119b0565b93505050505b919050565b6001600160a01b0381166000908152601060205260408120548061092e576000915050610901565b6001600160a01b0383166000908152600f602052604081205490610960670de0b6b3a76400008363ffffffff611aac16565b905061096a6130a4565b506001600160a01b0385166000908152601160209081526040808320815160a08101835281548152600182015493810193909352600281015491830191909152600301546001600160801b038082166060840152600160801b909104166080820152906109ff670de0b6b3a76400006109f36109e68886611aee565b869063ffffffff611be016565b9063ffffffff611c1a16565b979650505050505050565b8215610a1a57610a1a8282611c59565b336000908152600d6020526040902054610a3381611eac565b600a546001600160a01b0316610a4881611ecf565b6000610a5333611162565b90506000610a603361085e565b90506000610a6e8883611f4f565b90506000610a82868463ffffffff611aac16565b336000818152600d60205260409020600101549192506001600160a01b0390911690610ab090879083611f65565b6000610abb8261168a565b90506000610acf828663ffffffff611aac16565b9050610adb83826120da565b826001600160a01b0316600080516020613d438339815191528233604051610b04929190613b98565b60405180910390a2610b1633866121fe565b6000610b28878763ffffffff611aac16565b9050610b343382612277565b336001600160a01b0316600080516020613c6383398151915282604051610b5b9190613b8f565b60405180910390a2336001600160a01b0316600080516020613c438339815191528987604051610b8c929190613575565b60405180910390a2610b9d886123c8565b50505050505050505050505050565b601460209081526000928352604080842090915290825290205481565b610bd16114d9565b610bed5760405162461bcd60e51b81526004016107e4906137ad565b610bf6886124be565b610bff876124be565b610c08866124be565b610c11856124be565b610c1a846124be565b610c23836124be565b610c2c826124be565b610c35816124be565b600680546001600160a01b03199081166001600160a01b038b8116919091179092556007805482168a8416179055600180548216898416179055600880548216888416179055600980548216878416179055600380548216868416179055600a80548216858416179055600480549091169183169190911790556040517f3ca631ffcd2a9b5d9ae18543fc82f58eb4ca33af9e6ab01b7a8e95331e6ed98590610cdf908a906134c8565b60405180910390a17f143219c9e69b09e07e095fcc889b43d8f46ca892bba65f08dc3a0050869a567887604051610d1691906134c8565b60405180910390a17f78f058b189175430c48dc02699e3a0031ea4ff781536dc2fab847de4babdd88286604051610d4d91906134c8565b60405180910390a17f77b26272f42e99a3561f9dadc496d25589af0c1ebb03221e752e439015dd0d6385604051610d8491906134c8565b60405180910390a17f65f4cf077bc01e4742eb5ad98326f6e95b63548ea24b17f8d5e823111fe7880084604051610dbb91906134c8565b60405180910390a17f8c537274438aa850a330284665d81a85dd38267d09e4050d416bfc94142db26483604051610df291906134c8565b60405180910390a17f3055265812fb8447b9ada4a5d804ec43bd528ec40e89c952bbc7b85dc5ac681182604051610e2991906134c8565b60405180910390a17f496a1a8082b26acb3aeec16a7ecb48e279f82c31f09bfa4e08cb69ce93fea7fe81604051610e6091906134c8565b60405180910390a1610e70612503565b5050505050505050565b610e8261254d565b600c54801580610e90575082155b15610e9b5750610eda565b600a54610eb0906001600160a01b0316611ecf565b600080610ebe848685612577565b91509150610ecc8282612670565b610ed68486612950565b5050505b5050565b600c5490565b6002546001600160a01b031681565b6007546001600160a01b031681565b60c881565b601380546001600160801b0319166001600160801b0392909216919091179055565b610f3233612a86565b610f3b33612ac2565b610f4481612af9565b336000818152600f6020526040908190208381556001908101805460ff19169091179055517f19bc932fb9e16a8b5a1e41be9f4c2de59d5ddd7567b8b81405f532ca00a9880e90610f96908490613b8f565b60405180910390a250565b60106020526000908152604090205481565b610fbc81612b21565b610fc533612a86565b610fce82612b6e565b336000908152600d6020526040902054600a546001600160a01b0316610ff381611ecf565b81611002576110023384612b8e565b600061100d33611162565b9050600061101a3361085e565b9050600061102e858363ffffffff611aac16565b336000818152600d60205260409020600101549192506001600160a01b039091169061105c90869083611f65565b60006110678261168a565b9050600061107b828b63ffffffff6107ef16565b905061108783826120da565b826001600160a01b0316600080516020613d4383398151915282336040516110b0929190613b98565b60405180910390a26110c2338b612be8565b60006110d4868c63ffffffff6107ef16565b90506110e03382612277565b336001600160a01b0316600080516020613c63833981519152826040516111079190613b8f565b60405180910390a2336001600160a01b0316600080516020613c438339815191528887604051611138929190613575565b60405180910390a2611149876123c8565b5050505050505050505050565b670de0b6b3a764000081565b6001600160a01b0381166000908152600d60205260408120548061118a576000915050610901565b6111926130a4565b506001600160a01b0383166000908152600e60209081526040808320815160a08101835281548152600182015493810193909352600281015491830191909152600301546001600160801b038082166060840152600160801b909104166080820152906108fb8383612c97565b6003546001600160a01b031681565b601354600160801b90046001600160801b031681565b6006546001600160a01b031681565b600b5490565b600080600160009054906101000a90046001600160a01b03166001600160a01b0316635227d6a86040518163ffffffff1660e01b815260040160206040518083038186803b15801561128a57600080fd5b505afa15801561129e573d6000803e3d6000fd5b505050506040513d601f19601f820116820180604052508101906112c29190613378565b90506000600260009054906101000a90046001600160a01b03166001600160a01b0316635227d6a86040518163ffffffff1660e01b815260040160206040518083038186803b15801561131457600080fd5b505afa158015611328573d6000803e3d6000fd5b505050506040513d601f19601f8201168201806040525081019061134c9190613378565b905061135e828263ffffffff6107ef16565b9250505090565b6001546001600160a01b031681565b601560209081526000928352604080842090915290825290205481565b611399612d22565b600a546107ed906001600160a01b0316611ecf565b600e602052600090815260409020805460018201546002830154600390930154919290916001600160801b0380821691600160801b90041685565b600080600160009054906101000a90046001600160a01b03166001600160a01b03166378a619de6040518163ffffffff1660e01b815260040160206040518083038186803b15801561143a57600080fd5b505afa15801561144e573d6000803e3d6000fd5b505050506040513d601f19601f820116820180604052508101906114729190613378565b90506000600260009054906101000a90046001600160a01b03166001600160a01b03166378a619de6040518163ffffffff1660e01b815260040160206040518083038186803b15801561131457600080fd5b60125481565b6005546001600160a01b031690565b6005546001600160a01b0316331490565b600a546001600160a01b031681565b6004546001600160a01b031681565b60175481565b6040518060400160405280600d81526020016c14dd18589a5b1a5d1e541bdbdb609a1b81525081565b6013546001600160801b031681565b600f602052600090815260409020805460019091015460ff1682565b6009546001600160a01b031681565b600c55565b633b9aca0081565b6001600160a01b0381166000908152600d6020526040812054806115a6576000915050610901565b6001600160a01b038084166000908152600d60205260408120600101549091169081156115eb576001600160a01b0382166000908152600f60205260409020546115f5565b670de0b6b3a76400005b90506115ff6130a4565b506001600160a01b0385166000908152600e60209081526040808320815160a08101835281548152600182015493810193909352600281015491830191909152600301546001600160801b038082166060840152600160801b909104166080820152906109ff670de0b6b3a76400006109f36109e68886611aee565b6000546001600160a01b031681565b6001600160a01b038116600090815260106020526040812054806116b2576000915050610901565b6116ba6130a4565b506001600160a01b0383166000908152601160209081526040808320815160a08101835281548152600182015493810193909352600281015491830191909152600301546001600160801b038082166060840152600160801b909104166080820152906108fb83836119b0565b600b5461173a903463ffffffff6107ef16565b600b55565b60165481565b6008546001600160a01b031681565b336000908152600d602052604090205461176d81611eac565b61177633612d4c565b61177f33612deb565b600a546001600160a01b031661179481611ecf565b600061179f33611162565b905060006117ac3361085e565b905060006117c0858363ffffffff611aac16565b336000818152600d60205260409020600101549192506001600160a01b03909116906117ee90869083611f65565b60006117f98261168a565b90508061180683826120da565b826001600160a01b0316600080516020613d43833981519152823360405161182f929190613b98565b60405180910390a26118413386612277565b336001600160a01b0316600080516020613c43833981519152878660405161186a929190613575565b60405180910390a2336001600160a01b0316600080516020613c63833981519152866040516118999190613b8f565b60405180910390a2600b546118b4908763ffffffff611aac16565b600b819055604051600080516020613d23833981519152916118d591613b8f565b60405180910390a1600080516020613ca383398151915233876040516118fc929190613535565b60405180910390a1600660009054906101000a90046001600160a01b03166001600160a01b03166337ddc0af87338f8f8f8f6040518763ffffffff1660e01b815260040161194e9594939291906134dc565b6000604051808303818588803b15801561196757600080fd5b505af115801561197b573d6000803e3d6000fd5b5050505050505050505050505050505050565b600d60205260009081526040902080546001909101546001600160a01b031682565b6020810151606082015160808301516013546000939291906001600160801b03600160801b909104811690821610156119ef5760009350505050610817565b6013546000908190611a10906001600160801b03168563ffffffff612e1816565b90506001600160801b038116611a4057611a39856109f36012548b611be090919063ffffffff16565b9150611a78565b806001600160801b031660011415611a7357611a39633b9aca006109f3876109f36012548d611be090919063ffffffff16565b600091505b611a8c88633b9aca0063ffffffff611c1a16565b821015611aa157600095505050505050610817565b509695505050505050565b600061081483836040518060400160405280601e81526020017f536166654d6174683a207375627472616374696f6e206f766572666c6f770000815250612e52565b608081015160608201516040808401516020808601516001600160801b03808716600090815260158452858120918716815292529281205490949392908590611b3d908463ffffffff611aac16565b6001600160801b03808716600090815260156020526040812092935091611ba091633b9aca0091908490611b7a908a16600163ffffffff612e7e16565b6001600160801b031681526020810191909152604001600020549063ffffffff611c1a16565b90506000611bd2670de0b6b3a76400006109f38681611bc5888863ffffffff6107ef16565b8f9063ffffffff611be016565b9a9950505050505050505050565b600082611bef57506000610817565b82820282848281611bfc57fe5b04146108145760405162461bcd60e51b81526004016107e49061376c565b600061081483836040518060400160405280601a815260200179536166654d6174683a206469766973696f6e206279207a65726f60301b815250612eaf565b611c616130e5565b600354604051634e15f2a560e01b81526001600160a01b0390911690634e15f2a590611c93908690869060040161354e565b608060405180830381600087803b158015611cad57600080fd5b505af1158015611cc1573d6000803e3d6000fd5b505050506040513d601f19601f82011682018060405250810190611ce591906132b1565b90506000600960009054906101000a90046001600160a01b03166001600160a01b0316634d6228316040518163ffffffff1660e01b815260040160206040518083038186803b158015611d3757600080fd5b505afa158015611d4b573d6000803e3d6000fd5b505050506040513d601f19601f82011682018060405250810190611d6f919061318b565b6007548351604051630d293c7160e41b81529293506000926001600160a01b039092169163d293c71091611da891869190600401613535565b60206040518083038186803b158015611dc057600080fd5b505afa158015611dd4573d6000803e3d6000fd5b505050506040513d601f19601f82011682018060405250810190611df89190613378565b90506000600460009054906101000a90046001600160a01b03166001600160a01b03166344936b106040518163ffffffff1660e01b815260040160206040518083038186803b158015611e4a57600080fd5b505afa158015611e5e573d6000803e3d6000fd5b505050506040513d601f19601f82011682018060405250810190611e829190613378565b905080821015611ea45760405162461bcd60e51b81526004016107e490613b11565b505050505050565b60008111611ecc5760405162461bcd60e51b81526004016107e490613a34565b50565b6000816001600160a01b031663284f997e6040518163ffffffff1660e01b8152600401602060405180830381600087803b158015611f0c57600080fd5b505af1158015611f20573d6000803e3d6000fd5b505050506040513d601f19601f82011682018060405250810190611f449190613378565b9050610eda81612ee6565b6000818310611f5e5781610814565b5090919050565b6001600160a01b03811615612025576000611f7f82610906565b604051632787733160e11b81529091506001600160a01b03851690634f0ee66290611fb09085908590600401613535565b600060405180830381600087803b158015611fca57600080fd5b505af1158015611fde573d6000803e3d6000fd5b50505050816001600160a01b03167f362f19634270aca161bc0c423b2db8add2e945c10f2bcfc45ed432210604688b8260405161201b9190613b8f565b60405180910390a2505b60006120308361157e565b604051632787733160e11b81529091506001600160a01b03851690634f0ee662906120619086908590600401613535565b600060405180830381600087803b15801561207b57600080fd5b505af115801561208f573d6000803e3d6000fd5b50505050826001600160a01b03167fe02cdb8c8348be638bb6915ffafe4531b37ca6b2315beb2e6c0a0463b127f740826040516120cc9190613b8f565b60405180910390a250505050565b6001600160a01b038216600090815260106020526040902081905580612153576001600160a01b038216600081815260116020526040808220828155600181018390556002810183905560030182905551600080516020613d0383398151915291612146918190613575565b60405180910390a2610eda565b6013546012546001600160801b03600160801b80840482166000818152601560209081526040808320978616808452978252808320546001600160a01b038b16808552601190935292819020600181018890556002810184905560030180546001600160801b031916891790961694840294909417909455915190939290600080516020613d03833981519152906121ee9085908590613575565b60405180910390a2505050505050565b8061220857610eda565b600854604051631062c15f60e11b81526001600160a01b03909116906320c582be9061223c90309086908690600401613511565b600060405180830381600087803b15801561225657600080fd5b505af115801561226a573d6000803e3d6000fd5b50505050610eda81612ff7565b6001600160a01b0382166000908152600d6020526040902081905580612303576001600160a01b0382166000818152600d60209081526040808320600190810180546001600160a01b0319169055600e90925280832083815591820183905560028201839055600390910182905551600080516020613c23833981519152916121469181908190613583565b6013546012546001600160801b03600160801b8084048216600081815260146020908152604080832097861680845297825280832054848452601583528184208985528352818420546001600160a01b038c16808652600e90945293829020600181018990558181556002810185905560030180546001600160801b0319168a179097169585029590951790955593519194939091600080516020613c23833981519152906123b790869086908690613583565b60405180910390a250505050505050565b806123d257611ecc565b600b546000906123e8908363ffffffff611aac16565b905080600b81905550600080516020613d238339815191528160405161240e9190613b8f565b60405180910390a1600080516020613ca38339815191523383604051612435929190613535565b60405180910390a16000336001600160a01b031683604051612456906134c5565b60006040518083038185875af1925050503d8060008114612493576040519150601f19603f3d011682016040523d82523d6000602084013e612498565b606091505b50509050806124b95760405162461bcd60e51b81526004016107e490613835565b505050565b6001600160a01b0381166124e45760405162461bcd60e51b81526004016107e4906139b7565b803b80610eda5760405162461bcd60e51b81526004016107e490613a15565b6005546040516000916001600160a01b0316907f8be0079c531659141344cd1fd0a4f28419497f9722a3daafe3b4186f6b6457e0908390a3600580546001600160a01b0319169055565b6007546001600160a01b031633146107ed5760405162461bcd60e51b81526004016107e490613723565b60008060006125a960175461259d670de0b6b3a764000089611be090919063ffffffff16565b9063ffffffff6107ef16565b9050838511156125b557fe5b838514156125d2576000601855670de0b6b3a76400009150612632565b601854600090612600906125f488670de0b6b3a764000063ffffffff611be016565b9063ffffffff611aac16565b9050612617600161259d838863ffffffff611c1a16565b925061262d816125f4858863ffffffff611be016565b601855505b612642818563ffffffff611c1a16565b9250612664612657848663ffffffff611be016565b829063ffffffff611aac16565b60175550935093915050565b6012546000670de0b6b3a764000083111561268757fe5b60006126a1670de0b6b3a76400008563ffffffff611aac16565b6013546001600160801b03600160801b8204811660008181526014602090815260408083209490951680835293905292832054939450909290916126e58988611be0565b905060006126f9838363ffffffff6107ef16565b6001600160801b038086166000908152601460209081526040808320938a168352929052819020829055519091507fe12e2cd2c9afa8069203ca07e7eff1edce4a075686d0736a8e7e0d593597b2079061275890839087908990613bbf565b60405180910390a18561281f5761277f6001600160801b038516600163ffffffff612e7e16565b601380546001600160801b03908116600160801b938216840217918290556040517fb50f0f59e7cb5b421dc77581c3a9919e3806e076e5fa78a874c3f120cb7d874d936127d0930490911690613b7b565b60405180910390a1601380546001600160801b0319169055604051600080516020613ce38339815191529061280790600090613b7b565b60405180910390a1670de0b6b3a764000096506128fa565b633b9aca00612840670de0b6b3a76400006109f38b8a63ffffffff611be016565b10156128db57612876670de0b6b3a76400006109f3633b9aca0061286a8c8b63ffffffff611be016565b9063ffffffff611be016565b96506128926001600160801b038616600163ffffffff612e7e16565b601380546001600160801b0319166001600160801b039283161790819055604051600080516020613ce3833981519152926128ce921690613b7b565b60405180910390a16128fa565b6128f7670de0b6b3a76400006109f38a8963ffffffff611be016565b96505b6000871161290757600080fd5b60128790556040517fc1a9618cb59ebca77cbdbc2949f126823c407ff13edb285fd0262519a9c18e8c9061293c908990613b8f565b60405180910390a150505050505050505050565b600154604051637d9ee87160e11b81526001600160a01b0390911690819063fb3dd0e290612982908590600401613b8f565b600060405180830381600087803b15801561299c57600080fd5b505af11580156129b0573d6000803e3d6000fd5b505050506129bd82612ff7565b600854604051632770a7eb60e21b81526001600160a01b0390911690639dc29fac906129ef9030908690600401613535565b600060405180830381600087803b158015612a0957600080fd5b505af1158015612a1d573d6000803e3d6000fd5b5050604051630a569c3760e41b81526001600160a01b038416925063a569c3709150612a4f9030908790600401613535565b600060405180830381600087803b158015612a6957600080fd5b505af1158015612a7d573d6000803e3d6000fd5b50505050505050565b6001600160a01b0381166000908152600f602052604090206001015460ff1615611ecc5760405162461bcd60e51b81526004016107e490613916565b6001600160a01b0381166000908152600d60205260409020548015610eda5760405162461bcd60e51b81526004016107e49061396f565b670de0b6b3a7640000811115611ecc5760405162461bcd60e51b81526004016107e4906137e2565b6001600160a01b0381166000908152600f602052604090206001015460ff1680612b5257506001600160a01b038116155b611ecc5760405162461bcd60e51b81526004016107e490613621565b60008111611ecc5760405162461bcd60e51b81526004016107e490613876565b6001600160a01b038281166000818152600d602052604080822060010180546001600160a01b0319169486169485179055517f094c08e96a8890877a8390b4f967180a7507ad8622244d05fcd0f9f8e086564e9190a35050565b600854604051632ee65eeb60e21b81526001600160a01b039091169063bb997bac90612c1c90859030908690600401613511565b600060405180830381600087803b158015612c3657600080fd5b505af1158015612c4a573d6000803e3d6000fd5b5050600c5460009250612c6491508363ffffffff6107ef16565b905080600c81905550600080516020613c8383398151915281604051612c8a9190613b8f565b60405180910390a1505050565b6080810151606082015182516020808501516001600160801b03808616600090815260148452604080822092871682529190935282205491949392918590612ce5908463ffffffff611aac16565b6001600160801b03808716600090815260146020526040812092935091611ba091633b9aca0091908490611b7a908a16600163ffffffff612e7e16565b600a546001600160a01b031633146107ed5760405162461bcd60e51b81526004016107e4906136d4565b6007546040516321e3780160e01b81526001600160a01b03909116906321e3780190612d7c9084906004016134c8565b60206040518083038186803b158015612d9457600080fd5b505afa158015612da8573d6000803e3d6000fd5b505050506040513d601f19601f82011682018060405250810190612dcc9190613378565b600114611ecc5760405162461bcd60e51b81526004016107e4906138bc565b6000612df682611162565b905060008111610eda5760405162461bcd60e51b81526004016107e4906139d6565b6000826001600160801b0316826001600160801b03161115612e4c5760405162461bcd60e51b81526004016107e490613a84565b50900390565b60008184841115612e765760405162461bcd60e51b81526004016107e49190613599565b505050900390565b60008282016001600160801b0380851690821610156108145760405162461bcd60e51b81526004016107e490613acc565b60008183612ed05760405162461bcd60e51b81526004016107e49190613599565b506000838581612edc57fe5b0495945050505050565b600c54801580612ef4575081155b15612eff5750611ecc565b6000612f0b838361303f565b90506000612f2460125483611be090919063ffffffff16565b6013546001600160801b03600160801b820481166000908152601560209081526040808320939094168252919091522054909150612f68908263ffffffff6107ef16565b601380546001600160801b03600160801b80830482166000908152601560208181526040808420968616845295815285832097909755945491820483168082529486528381209190921680835294528190205490517f2d6127771b164a9cc8827d24b5955db2a77e7a81dac389107ebb8bce9fb6496893612fe99391613bbf565b60405180910390a150505050565b600c5460009061300d908363ffffffff611aac16565b905080600c81905550600080516020613c83833981519152816040516130339190613b8f565b60405180910390a15050565b60008061306360165461259d670de0b6b3a764000087611be090919063ffffffff16565b90506000613077828563ffffffff611c1a16565b905061309961308c828663ffffffff611be016565b839063ffffffff611aac16565b601655949350505050565b6040518060a0016040528060008152602001600081526020016000815260200160006001600160801b0316815260200160006001600160801b031681525090565b6040518060800160405280600081526020016000801916815260200160008152602001600081525090565b60008083601f840112613121578182fd5b5081356001600160401b03811115613137578182fd5b602083019150836020808302850101111561315157600080fd5b9250929050565b80356001600160801b038116811461081757600080fd5b600060208284031215613180578081fd5b813561081481613c0d565b60006020828403121561319c578081fd5b815161081481613c0d565b600080600080600080600080610100898b0312156131c3578384fd5b88356131ce81613c0d565b975060208901356131de81613c0d565b965060408901356131ee81613c0d565b955060608901356131fe81613c0d565b9450608089013561320e81613c0d565b935060a089013561321e81613c0d565b925060c089013561322e81613c0d565b915060e089013561323e81613c0d565b809150509295985092959890939650565b60008060008060608587031215613264578384fd5b843561326f81613c0d565b9350602085013561327f81613c0d565b925060408501356001600160401b03811115613299578283fd5b6132a587828801613110565b95989497509550505050565b6000608082840312156132c2578081fd5b604051608081016001600160401b03811182821017156132e0578283fd5b8060405250825181526020830151602082015260408301516040820152606083015160608201528091505092915050565b600060208284031215613322578081fd5b6108148383613158565b6000806040838503121561333e578182fd5b6133488484613158565b91506133578460208501613158565b90509250929050565b600060208284031215613371578081fd5b5035919050565b600060208284031215613389578081fd5b5051919050565b600080604083850312156133a2578182fd5b8235915060208301356133b481613c0d565b809150509250929050565b6000806000604084860312156133d3578283fd5b8335925060208401356001600160401b038111156133ef578283fd5b6133fb86828701613110565b9497909650939450505050565b6000806040838503121561341a578182fd5b50508035926020909101359150565b8183526020808401936000918085028201810184845b878110156134b857601f1980868503018a528235601e19893603018112613464578788fd5b88018035906001600160401b0382111561347c578889fd5b8136038a131561348a578889fd5b818652818782018888013750848101860188905299850199601f01169092018301919083019060010161343f565b5090979650505050505050565b90565b6001600160a01b0391909116815260200190565b6001600160a01b0386811682528581166020830152841660408201526080606082018190526000906109ff9083018486613429565b6001600160a01b039384168152919092166020820152604081019190915260600190565b6001600160a01b03929092168252602082015260400190565b600060208252613562602083018486613429565b949350505050565b901515815260200190565b918252602082015260400190565b9283526020830191909152604082015260600190565b6000602080835283518082850152825b818110156135c5578581018301518582016040015282016135a9565b818111156135d65783604083870101525b50601f01601f1916929092016040019392505050565b6020808252601b908201527a536166654d6174683a206164646974696f6e206f766572666c6f7760281b604082015260600190565b60208082526046908201527f53746162696c697479506f6f6c3a20546167206d75737420626520612072656760408201527f697374657265642066726f6e7420656e642c206f7220746865207a65726f206160608201526564647265737360d01b608082015260a00190565b60208082526027908201527f53746162696c697479506f6f6c3a2043616c6c6572206973206e6f74204163746040820152661a5d99541bdbdb60ca1b606082015260800190565b6020808252602f908201527f53746162696c697479506f6f6c3a2043616c6c696572206973206e6f7420436f60408201526e6d6d756e69747949737375616e636560881b606082015260800190565b60208082526029908201527f53746162696c697479506f6f6c3a2043616c6c6572206973206e6f742054726f6040820152683b32a6b0b730b3b2b960b91b606082015260800190565b60208082526021908201527f536166654d6174683a206d756c7469706c69636174696f6e206f766572666c6f6040820152607760f81b606082015260800190565b6020808252818101527f4f776e61626c653a2063616c6c6572206973206e6f7420746865206f776e6572604082015260600190565b60208082526033908201527f53746162696c697479506f6f6c3a204b69636b6261636b2072617465206d75736040820152727420626520696e2072616e6765205b302c315d60681b606082015260800190565b60208082526021908201527f53746162696c697479506f6f6c3a2073656e64696e6720424e42206661696c656040820152601960fa1b606082015260800190565b60208082526026908201527f53746162696c697479506f6f6c3a20416d6f756e74206d757374206265206e6f6040820152656e2d7a65726f60d01b606082015260800190565b6020808252604690820152600080516020613cc383398151915260408201527f616e206163746976652074726f766520746f20776974686472617720424e424760608201526561696e20746f60d01b608082015260a00190565b60208082526039908201527f53746162696c697479506f6f6c3a206d757374206e6f7420616c72656164792060408201527818994818481c9959da5cdd195c995908199c9bdb9d08195b99603a1b606082015260800190565b60208082526028908201527f53746162696c697479506f6f6c3a2055736572206d7573742068617665206e6f6040820152670819195c1bdcda5d60c21b606082015260800190565b6020808252600590820152641830b2323960d91b604082015260600190565b6020808252603190820152600080516020613cc38339815191526040820152703737b716bd32b937902127211023b0b4b760791b606082015260800190565b60208082526005908201526430636f646560d81b604082015260600190565b60208082526030908201527f53746162696c697479506f6f6c3a2055736572206d757374206861766520612060408201526f1b9bdb8b5e995c9bc819195c1bdcda5d60821b606082015260800190565b60208082526028908201527f4c697175697479536166654d6174683132383a207375627472616374696f6e206040820152676f766572666c6f7760c01b606082015260800190565b60208082526025908201527f4c697175697479536166654d6174683132383a206164646974696f6e206f766560408201526472666c6f7760d81b606082015260800190565b60208082526044908201527f53746162696c697479506f6f6c3a2043616e6e6f74207769746864726177207760408201527f68696c65207468657265206172652074726f766573207769746820494352203c6060820152631026a1a960e11b608082015260a00190565b6001600160801b0391909116815260200190565b90815260200190565b9182526001600160a01b0316602082015260400190565b9182521515602082015260400190565b9283526001600160801b03918216602084015216604082015260600190565b948552602085019390935260408401919091526001600160801b03908116606084015216608082015260a00190565b6001600160a01b0381168114611ecc57600080fdfe2d6cc0bcdf72c9486f6451bde6b80f44066f4558f77f44dbfedbe7d8b295225af7740d19ac5c5cb3bce0afd5353ac7204ccedc999cb4e867ac42e612928ca967bce78369dccab09eec1986f4d409ab09ffbb47d65423e5148fcf98411c5111c9a1bded18ff33dc34c6b1b93d3f9e5a0f03ee5770cec8ba306bd64157f6ec9bf06109e2559dfa766aaec7118351d48a523f0a4157f49c8d68749c8ac41318ad1253746162696c697479506f6f6c3a2063616c6c6572206d7573742068617665201f9dfc70cd666adb18a39d60a797518f7b4febf4b6e24ef37d44f6e1e7219fbebb1322f85cc7cc8bac4e172a5bc5dcc0c1959007f9a030032abf9258205f0e458ffc70b5d0c22bc36e9fff0f08ec2bbdc1c1fdf1a97dceddec0984ce0624c02399920012339b5a3368d3a04b8606ce412c46ed92b7dcd8602d41fc8862cb8f25a164736f6c634300060b000a","linkReferences":{}},"methodIdentifiers":{"DECIMAL_PRECISION()":"a20baee6","NAME()":"a3f4df7e","P()":"8b8fbd92","PERCENT_DIVISOR()":"4870dd9a","SCALE_FACTOR()":"ce4b5bbe","_100pct()":"72fe25aa","activePool()":"7f7dde4a","borrowerOperations()":"77553ad4","communityIssuance()":"95fb16bb","currentEpoch()":"76671808","currentScale()":"a4e59ac8","defaultPool()":"3cc74225","depositSnapshots(address)":"86da0824","deposits(address)":"fc7e286d","epochToScaleToG(uint128,uint128)":"82e0a574","epochToScaleToSum(uint128,uint128)":"28a0a04d","frontEndSnapshots(address)":"16b9d3c5","frontEndStakes(address)":"5d2de642","frontEnds(address)":"a7bfff97","getBNB()":"78a619de","getCompoundedFrontEndStake(address)":"df9cd84f","getCompoundedUSDSDeposit(address)":"1f08498c","getDepositorBNBGain(address)":"73fc5fcd","getDepositorSABLEGain(address)":"ce538bee","getEntireSystemColl()":"887105d3","getEntireSystemDebt()":"795d26c3","getFrontEndSABLEGain(address)":"23b36a81","getTotalUSDSDeposits()":"3927e006","isOwner()":"8f32d59b","lastBNBError_Offset()":"9aca71b0","lastSABLEError()":"f6d706c1","lastUSDSLossError_Offset()":"0e1cfec9","offset(uint256,uint256)":"335525ad","owner()":"8da5cb5b","ownerTriggerIssuance()":"848bb7c6","priceFeed()":"741bef1a","provideToSP(uint256,address)":"5f788d65","registerFrontEnd(uint256)":"556be101","setCurrentScale(uint128)":"50f592db","setParams(address,address,address,address,address,address,address,address)":"2a7e19c3","setTotalDeposits(uint256)":"ba9c7485","sortedTroves()":"ae918754","systemState()":"991292e3","timeLock()":"d085835a","troveManager()":"3d83908a","unprotectedPayable()":"f3af7c3b","usdsToken()":"f8f8d174","withdrawBNBGainToTrove(address,address,bytes[])":"fc55bd16","withdrawFromSP(uint256,bytes[])":"250ffbec"},"id":95}