{"abi":[{"type":"function","name":"DECIMAL_PRECISION","inputs":[],"outputs":[{"name":"","type":"uint256","internalType":"uint256"}],"stateMutability":"view"},{"type":"function","name":"NAME","inputs":[],"outputs":[{"name":"","type":"string","internalType":"string"}],"stateMutability":"view"},{"type":"function","name":"PERCENT_DIVISOR","inputs":[],"outputs":[{"name":"","type":"uint256","internalType":"uint256"}],"stateMutability":"view"},{"type":"function","name":"_100pct","inputs":[],"outputs":[{"name":"","type":"uint256","internalType":"uint256"}],"stateMutability":"view"},{"type":"function","name":"activePool","inputs":[],"outputs":[{"name":"","type":"address","internalType":"contract IActivePool"}],"stateMutability":"view"},{"type":"function","name":"addColl","inputs":[{"name":"_upperHint","type":"address","internalType":"address"},{"name":"_lowerHint","type":"address","internalType":"address"},{"name":"priceFeedUpdateData","type":"bytes[]","internalType":"bytes[]"}],"outputs":[],"stateMutability":"payable"},{"type":"function","name":"adjustTrove","inputs":[{"name":"adjustParam","type":"tuple","internalType":"struct IBorrowerOperations.AdjustTroveParam","components":[{"name":"collWithdrawal","type":"uint256","internalType":"uint256"},{"name":"USDSChange","type":"uint256","internalType":"uint256"},{"name":"isDebtIncrease","type":"bool","internalType":"bool"},{"name":"upperHint","type":"address","internalType":"address"},{"name":"lowerHint","type":"address","internalType":"address"},{"name":"maxFeePercentage","type":"uint256","internalType":"uint256"}]},{"name":"priceFeedUpdateData","type":"bytes[]","internalType":"bytes[]"}],"outputs":[],"stateMutability":"payable"},{"type":"function","name":"claimCollateral","inputs":[],"outputs":[],"stateMutability":"nonpayable"},{"type":"function","name":"closeTrove","inputs":[{"name":"priceFeedUpdateData","type":"bytes[]","internalType":"bytes[]"}],"outputs":[],"stateMutability":"nonpayable"},{"type":"function","name":"defaultPool","inputs":[],"outputs":[{"name":"","type":"address","internalType":"contract IDefaultPool"}],"stateMutability":"view"},{"type":"function","name":"getCompositeDebt","inputs":[{"name":"_debt","type":"uint256","internalType":"uint256"}],"outputs":[{"name":"","type":"uint256","internalType":"uint256"}],"stateMutability":"view"},{"type":"function","name":"getEntireSystemColl","inputs":[],"outputs":[{"name":"entireSystemColl","type":"uint256","internalType":"uint256"}],"stateMutability":"view"},{"type":"function","name":"getEntireSystemDebt","inputs":[],"outputs":[{"name":"entireSystemDebt","type":"uint256","internalType":"uint256"}],"stateMutability":"view"},{"type":"function","name":"isOwner","inputs":[],"outputs":[{"name":"","type":"bool","internalType":"bool"}],"stateMutability":"view"},{"type":"function","name":"moveBNBGainToTrove","inputs":[{"name":"_borrower","type":"address","internalType":"address"},{"name":"_upperHint","type":"address","internalType":"address"},{"name":"_lowerHint","type":"address","internalType":"address"},{"name":"priceFeedUpdateData","type":"bytes[]","internalType":"bytes[]"}],"outputs":[],"stateMutability":"payable"},{"type":"function","name":"openTrove","inputs":[{"name":"_maxFeePercentage","type":"uint256","internalType":"uint256"},{"name":"_USDSAmount","type":"uint256","internalType":"uint256"},{"name":"_upperHint","type":"address","internalType":"address"},{"name":"_lowerHint","type":"address","internalType":"address"},{"name":"priceFeedUpdateData","type":"bytes[]","internalType":"bytes[]"}],"outputs":[],"stateMutability":"payable"},{"type":"function","name":"oracleRateCalc","inputs":[],"outputs":[{"name":"","type":"address","internalType":"contract IOracleRateCalculation"}],"stateMutability":"view"},{"type":"function","name":"owner","inputs":[],"outputs":[{"name":"","type":"address","internalType":"address"}],"stateMutability":"view"},{"type":"function","name":"priceFeed","inputs":[],"outputs":[{"name":"","type":"address","internalType":"contract IPriceFeed"}],"stateMutability":"view"},{"type":"function","name":"repayUSDS","inputs":[{"name":"_USDSAmount","type":"uint256","internalType":"uint256"},{"name":"_upperHint","type":"address","internalType":"address"},{"name":"_lowerHint","type":"address","internalType":"address"},{"name":"priceFeedUpdateData","type":"bytes[]","internalType":"bytes[]"}],"outputs":[],"stateMutability":"nonpayable"},{"type":"function","name":"sableStaking","inputs":[],"outputs":[{"name":"","type":"address","internalType":"contract ISableStakingV2"}],"stateMutability":"view"},{"type":"function","name":"sableStakingAddress","inputs":[],"outputs":[{"name":"","type":"address","internalType":"address"}],"stateMutability":"view"},{"type":"function","name":"setAddresses","inputs":[{"name":"param","type":"tuple","internalType":"struct IBorrowerOperations.DependencyAddressParam","components":[{"name":"troveManagerAddress","type":"address","internalType":"address"},{"name":"activePoolAddress","type":"address","internalType":"address"},{"name":"defaultPoolAddress","type":"address","internalType":"address"},{"name":"stabilityPoolAddress","type":"address","internalType":"address"},{"name":"gasPoolAddress","type":"address","internalType":"address"},{"name":"collSurplusPoolAddress","type":"address","internalType":"address"},{"name":"priceFeedAddress","type":"address","internalType":"address"},{"name":"sortedTrovesAddress","type":"address","internalType":"address"},{"name":"usdsTokenAddress","type":"address","internalType":"address"},{"name":"sableStakingAddress","type":"address","internalType":"address"},{"name":"systemStateAddress","type":"address","internalType":"address"},{"name":"oracleRateCalcAddress","type":"address","internalType":"address"}]}],"outputs":[],"stateMutability":"nonpayable"},{"type":"function","name":"sortedTroves","inputs":[],"outputs":[{"name":"","type":"address","internalType":"contract ISortedTroves"}],"stateMutability":"view"},{"type":"function","name":"systemState","inputs":[],"outputs":[{"name":"","type":"address","internalType":"contract ISystemState"}],"stateMutability":"view"},{"type":"function","name":"timeLock","inputs":[],"outputs":[{"name":"","type":"address","internalType":"address"}],"stateMutability":"view"},{"type":"function","name":"troveManager","inputs":[],"outputs":[{"name":"","type":"address","internalType":"contract ITroveManager"}],"stateMutability":"view"},{"type":"function","name":"usdsToken","inputs":[],"outputs":[{"name":"","type":"address","internalType":"contract IUSDSToken"}],"stateMutability":"view"},{"type":"function","name":"withdrawColl","inputs":[{"name":"_collWithdrawal","type":"uint256","internalType":"uint256"},{"name":"_upperHint","type":"address","internalType":"address"},{"name":"_lowerHint","type":"address","internalType":"address"},{"name":"priceFeedUpdateData","type":"bytes[]","internalType":"bytes[]"}],"outputs":[],"stateMutability":"nonpayable"},{"type":"function","name":"withdrawUSDS","inputs":[{"name":"_maxFeePercentage","type":"uint256","internalType":"uint256"},{"name":"_USDSAmount","type":"uint256","internalType":"uint256"},{"name":"_upperHint","type":"address","internalType":"address"},{"name":"_lowerHint","type":"address","internalType":"address"},{"name":"priceFeedUpdateData","type":"bytes[]","internalType":"bytes[]"}],"outputs":[],"stateMutability":"nonpayable"},{"type":"event","name":"ActivePoolAddressChanged","inputs":[{"name":"_activePoolAddress","type":"address","indexed":false,"internalType":"address"}],"anonymous":false},{"type":"event","name":"CollSurplusPoolAddressChanged","inputs":[{"name":"_collSurplusPoolAddress","type":"address","indexed":false,"internalType":"address"}],"anonymous":false},{"type":"event","name":"DefaultPoolAddressChanged","inputs":[{"name":"_defaultPoolAddress","type":"address","indexed":false,"internalType":"address"}],"anonymous":false},{"type":"event","name":"GasPoolAddressChanged","inputs":[{"name":"_gasPoolAddress","type":"address","indexed":false,"internalType":"address"}],"anonymous":false},{"type":"event","name":"OracleRateCalcAddressChanged","inputs":[{"name":"_oracleRateCalcAddress","type":"address","indexed":false,"internalType":"address"}],"anonymous":false},{"type":"event","name":"OwnershipTransferred","inputs":[{"name":"previousOwner","type":"address","indexed":true,"internalType":"address"},{"name":"newOwner","type":"address","indexed":true,"internalType":"address"}],"anonymous":false},{"type":"event","name":"PriceFeedAddressChanged","inputs":[{"name":"_newPriceFeedAddress","type":"address","indexed":false,"internalType":"address"}],"anonymous":false},{"type":"event","name":"SableStakingAddressChanged","inputs":[{"name":"_sableStakingAddress","type":"address","indexed":false,"internalType":"address"}],"anonymous":false},{"type":"event","name":"SortedTrovesAddressChanged","inputs":[{"name":"_sortedTrovesAddress","type":"address","indexed":false,"internalType":"address"}],"anonymous":false},{"type":"event","name":"StabilityPoolAddressChanged","inputs":[{"name":"_stabilityPoolAddress","type":"address","indexed":false,"internalType":"address"}],"anonymous":false},{"type":"event","name":"SystemStateAddressChanged","inputs":[{"name":"_systemStateAddress","type":"address","indexed":false,"internalType":"address"}],"anonymous":false},{"type":"event","name":"TroveCreated","inputs":[{"name":"_borrower","type":"address","indexed":true,"internalType":"address"},{"name":"arrayIndex","type":"uint256","indexed":false,"internalType":"uint256"}],"anonymous":false},{"type":"event","name":"TroveManagerAddressChanged","inputs":[{"name":"_newTroveManagerAddress","type":"address","indexed":false,"internalType":"address"}],"anonymous":false},{"type":"event","name":"TroveUpdated","inputs":[{"name":"_borrower","type":"address","indexed":true,"internalType":"address"},{"name":"_debt","type":"uint256","indexed":false,"internalType":"uint256"},{"name":"_coll","type":"uint256","indexed":false,"internalType":"uint256"},{"name":"stake","type":"uint256","indexed":false,"internalType":"uint256"},{"name":"operation","type":"uint8","indexed":false,"internalType":"enum BorrowerOperations.BorrowerOperation"}],"anonymous":false},{"type":"event","name":"USDSBorrowingFeePaid","inputs":[{"name":"_borrower","type":"address","indexed":true,"internalType":"address"},{"name":"_USDSFee","type":"uint256","indexed":false,"internalType":"uint256"}],"anonymous":false},{"type":"event","name":"USDSTokenAddressChanged","inputs":[{"name":"_usdsTokenAddress","type":"address","indexed":false,"internalType":"address"}],"anonymous":false}],"bytecode":{"object":"0x608060405234801561001057600080fd5b50600580546001600160a01b031916339081179091556040516000907f8be0079c531659141344cd1fd0a4f28419497f9722a3daafe3b4186f6b6457e0908290a3614965806100606000396000f3fe60806040526004361061015d5760003560e01c80631453558b146101625780631e503ead146101845780632322cd681461019757806337ddc0af146101b75780633cc74225146101ca5780633d83908a146101f55780634870dd9a1461020a5780634ff814431461022c5780636f0b0c1c1461024c57806372fe25aa14610261578063739987d714610276578063741bef1a14610289578063795d26c31461029e5780637f7dde4a146102b3578063887105d3146102c85780638d0a3b08146102dd5780638da5cb5b146102f25780638f32d59b14610307578063991292e314610329578063a20baee614610261578063a3f4df7e1461033e578063ae91875414610360578063b120dbd414610375578063d085835a14610395578063ddc7aed4146103aa578063df9bf27a146103bf578063e129d8e0146103df578063f1f30974146103f2578063f80911de14610412578063f8f8d17414610427575b600080fd5b34801561016e57600080fd5b5061018261017d366004613d74565b61043c565b005b610182610192366004613c27565b6108e2565b3480156101a357600080fd5b506101826101b2366004613eef565b610944565b6101826101c5366004613bb1565b6109a6565b3480156101d657600080fd5b506101df610a09565b6040516101ec9190613fcc565b60405180910390f35b34801561020157600080fd5b506101df610a18565b34801561021657600080fd5b5061021f610a27565b6040516101ec919061489c565b34801561023857600080fd5b5061021f610247366004613ebf565b610a2c565b34801561025857600080fd5b50610182610a3d565b34801561026d57600080fd5b5061021f610aa1565b610182610284366004613cc6565b610aad565b34801561029557600080fd5b506101df610abe565b3480156102aa57600080fd5b5061021f610acd565b3480156102bf57600080fd5b506101df610bf9565b3480156102d457600080fd5b5061021f610c08565b3480156102e957600080fd5b506101df610ce3565b3480156102fe57600080fd5b506101df610cf2565b34801561031357600080fd5b5061031c610d01565b6040516101ec919061408f565b34801561033557600080fd5b506101df610d12565b34801561034a57600080fd5b50610353610d21565b6040516101ec91906140dd565b34801561036c57600080fd5b506101df610d4f565b34801561038157600080fd5b50610182610390366004613f28565b610d5e565b3480156103a157600080fd5b506101df610dc0565b3480156103b657600080fd5b506101df610dcf565b3480156103cb57600080fd5b506101826103da366004613c87565b610dde565b6101826103ed366004613f28565b61127a565b3480156103fe57600080fd5b5061018261040d366004613eef565b611a89565b34801561041e57600080fd5b506101df611ae3565b34801561043357600080fd5b506101df611af2565b610444610d01565b6104695760405162461bcd60e51b81526004016104609061446b565b60405180910390fd5b805161047490611b01565b6104818160200151611b01565b61048e8160400151611b01565b61049b8160600151611b01565b6104a88160800151611b01565b6104b58160a00151611b01565b6104c28160c00151611b01565b6104cf8160e00151611b01565b6104dd816101000151611b01565b6104eb816101200151611b01565b6104f9816101400151611b01565b610507816101600151611b01565b8051600680546001600160a01b03199081166001600160a01b038085169190911790925560208401516001805483169184169190911790556040808501516002805484169185169190911790556060850151600780548416918516919091179055608085015160088054841691851691909117905560a085015160098054841691851691909117905560c085015160038054841691851691909117905560e0850151600d80548416918516919091179055610100850151600c80548416918516919091179055610120850151600b805484169185169182179055600a805484169091179055610140850151600480548416918516919091179055610160850151600e80549093169316929092179055517f143219c9e69b09e07e095fcc889b43d8f46ca892bba65f08dc3a0050869a56789161064291613fcc565b60405180910390a17f78f058b189175430c48dc02699e3a0031ea4ff781536dc2fab847de4babdd882816020015160405161067d9190613fcc565b60405180910390a17f5ee0cae2f063ed938bb55046f6a932fb6ae792bf43624806bb90abe68a50be9b81604001516040516106b89190613fcc565b60405180910390a17f82966d27eea39b038ee0fa30cd16532bb24f6e65d31cb58fb227aa5766cdcc7f81606001516040516106f39190613fcc565b60405180910390a17fcfb07d791fcafc032b35837b50eb84b74df518cf4cc287e8084f47630fa70fa0816080015160405161072e9190613fcc565b60405180910390a17fe67f36a6e961157d6eff83b91f3af5a62131ceb6f04954ef74f51c1c05e7f88d8160a001516040516107699190613fcc565b60405180910390a17f8c537274438aa850a330284665d81a85dd38267d09e4050d416bfc94142db2648160c001516040516107a49190613fcc565b60405180910390a17f65f4cf077bc01e4742eb5ad98326f6e95b63548ea24b17f8d5e823111fe788008160e001516040516107df9190613fcc565b60405180910390a17f77b26272f42e99a3561f9dadc496d25589af0c1ebb03221e752e439015dd0d6381610100015160405161081b9190613fcc565b60405180910390a17f7513090f9b121ce0ada75a9c446a622ad2f631ddbd6be9f1a753aa095e10a6968161012001516040516108579190613fcc565b60405180910390a17f496a1a8082b26acb3aeec16a7ecb48e279f82c31f09bfa4e08cb69ce93fea7fe8161014001516040516108939190613fcc565b60405180910390a17ff9c6398cf1617ed6d94f43e8fb4caac4ae85382533b5ac08ec1b8d04139fe2c88161016001516040516108cf9190613fcc565b60405180910390a16108df611b4a565b50565b6108ea613864565b6040518060c001604052806000815260200160008152602001600015158152602001866001600160a01b03168152602001856001600160a01b031681526020016000815250905061093d33828585611b94565b5050505050565b61094c613864565b6040518060c0016040528060008152602001878152602001600015158152602001866001600160a01b03168152602001856001600160a01b031681526020016000815250905061099e33828585611b94565b505050505050565b6109ae61240e565b6109b6613864565b6040518060c001604052806000815260200160008152602001600015158152602001866001600160a01b03168152602001856001600160a01b031681526020016000815250905061099e86828585611b94565b6002546001600160a01b031681565b6006546001600160a01b031681565b60c881565b6000610a378261243a565b92915050565b60095460405163b32beb5b60e01b81526001600160a01b039091169063b32beb5b90610a6d903390600401613fcc565b600060405180830381600087803b158015610a8757600080fd5b505af1158015610a9b573d6000803e3d6000fd5b50505050565b670de0b6b3a764000081565b610ab933848484611b94565b505050565b6003546001600160a01b031681565b600080600160009054906101000a90046001600160a01b03166001600160a01b0316635227d6a86040518163ffffffff1660e01b815260040160206040518083038186803b158015610b1e57600080fd5b505afa158015610b32573d6000803e3d6000fd5b505050506040513d601f19601f82011682018060405250810190610b569190613ed7565b90506000600260009054906101000a90046001600160a01b03166001600160a01b0316635227d6a86040518163ffffffff1660e01b815260040160206040518083038186803b158015610ba857600080fd5b505afa158015610bbc573d6000803e3d6000fd5b505050506040513d601f19601f82011682018060405250810190610be09190613ed7565b9050610bf2828263ffffffff6124cf16565b9250505090565b6001546001600160a01b031681565b600080600160009054906101000a90046001600160a01b03166001600160a01b03166378a619de6040518163ffffffff1660e01b815260040160206040518083038186803b158015610c5957600080fd5b505afa158015610c6d573d6000803e3d6000fd5b505050506040513d601f19601f82011682018060405250810190610c919190613ed7565b90506000600260009054906101000a90046001600160a01b03166001600160a01b03166378a619de6040518163ffffffff1660e01b815260040160206040518083038186803b158015610ba857600080fd5b600b546001600160a01b031681565b6005546001600160a01b031690565b6005546001600160a01b0316331490565b6004546001600160a01b031681565b60405180604001604052806012815260200171426f72726f7765724f7065726174696f6e7360701b81525081565b600d546001600160a01b031681565b610d66613864565b6040518060c0016040528060008152602001878152602001600115158152602001866001600160a01b03168152602001856001600160a01b03168152602001888152509050610db733828585611b94565b50505050505050565b6000546001600160a01b031681565b600e546001600160a01b031681565b600654600154600c546001600160a01b03928316929182169116610e006138ae565b50604080518082019091526001600160a01b0384168152336020820152610e26816124f4565b610e2e6138c5565b600354604051634e15f2a560e01b81526001600160a01b0390911690634e15f2a590610e60908a908a90600401613ff9565b608060405180830381600087803b158015610e7a57600080fd5b505af1158015610e8e573d6000803e3d6000fd5b505050506040513d601f19601f82011682018060405250810190610eb29190613e78565b9050610ec1816000015161259a565b604051630b07655760e01b81526001600160a01b03861690630b07655790610eed903390600401613fcc565b600060405180830381600087803b158015610f0757600080fd5b505af1158015610f1b573d6000803e3d6000fd5b50506040516309019aaf60e31b8152600092506001600160a01b038816915063480cd57890610f4e903390600401613fcc565b60206040518083038186803b158015610f6657600080fd5b505afa158015610f7a573d6000803e3d6000fd5b505050506040513d601f19601f82011682018060405250810190610f9e9190613ed7565b90506000866001600160a01b031663d66a2553336040518263ffffffff1660e01b8152600401610fce9190613fcc565b60206040518083038186803b158015610fe657600080fd5b505afa158015610ffa573d6000803e3d6000fd5b505050506040513d601f19601f8201168201806040525081019061101e9190613ed7565b90506000600460009054906101000a90046001600160a01b03166001600160a01b0316631549b76d6040518163ffffffff1660e01b815260040160206040518083038186803b15801561107057600080fd5b505afa158015611084573d6000803e3d6000fd5b505050506040513d601f19601f820116820180604052508101906110a89190613ed7565b90506110c486336110bf858563ffffffff6125c016565b612602565b60006110d9846000856000896000015161269e565b90506110e481612729565b604051631fc5750960e31b81526001600160a01b038a169063fe2ba84890611110903390600401613fcc565b600060405180830381600087803b15801561112a57600080fd5b505af115801561113e573d6000803e3d6000fd5b50506040516365e89c5760e11b81526001600160a01b038c16925063cbd138ae915061116e903390600401613fcc565b600060405180830381600087803b15801561118857600080fd5b505af115801561119c573d6000803e3d6000fd5b50505050336001600160a01b0316600080516020614919833981519152600080600060016040516111d094939291906140b0565b60405180910390a26111f38888336111ee878763ffffffff6125c016565b6127d3565b60085461120d90899089906001600160a01b0316856127d3565b604051630a569c3760e41b81526001600160a01b0389169063a569c3709061123b9033908890600401613fe0565b600060405180830381600087803b15801561125557600080fd5b505af1158015611269573d6000803e3d6000fd5b505050505050505050505050505050565b6112826138f0565b50604080516060810182526006546001600160a01b03908116825260015481166020830152600c5416918101919091526112ba613910565b6112c26138c5565b600354604051634e15f2a560e01b81526001600160a01b0390911690634e15f2a5906112f49088908890600401613ff9565b608060405180830381600087803b15801561130e57600080fd5b505af1158015611322573d6000803e3d6000fd5b505050506040513d601f19601f820116820180604052508101906113469190613e78565b80518352600e54602082015160408084015160608501519151631ba21c6b60e11b81529495506000946001600160a01b039094169363374438d6936113909390929160040161409a565b60206040518083038186803b1580156113a857600080fd5b505afa1580156113bc573d6000803e3d6000fd5b505050506040513d601f19601f820116820180604052508101906113e09190613ed7565b905060006113f18460000151612897565b90506113fd8b82612937565b84516114099033612a28565b604084018a9052611418613955565b6040518060a0016040528087600001516001600160a01b0316815260200187604001516001600160a01b031681526020018c81526020018d81526020018481525090508161148a5761146981612aca565b6020860181905260408601516114849163ffffffff6124cf16565b60408601525b6114978560400151612c95565b6114a4856040015161243a565b606086018190526114b157fe5b6060850151855134916114c691839190612d3f565b608087015260608601516114db908290612d7d565b60a087015282156114f8576114f38660800151612db2565b61152b565b6115058660800151612e5c565b600061151e826001896060015160018b6000015161269e565b905061152981612729565b505b8651604051635d6b480f60e01b81526001600160a01b0390911690635d6b480f9061155d903390600190600401613fe0565b600060405180830381600087803b15801561157757600080fd5b505af115801561158b573d6000803e3d6000fd5b505088516040516372423c1760e01b81526001600160a01b0390911692506372423c1791506115c09033908590600401613fe0565b602060405180830381600087803b1580156115da57600080fd5b505af11580156115ee573d6000803e3d6000fd5b505050506040513d601f19601f820116820180604052508101906116129190613ed7565b5086516060870151604051639976cf4560e01b81526001600160a01b0390921691639976cf459161164891339190600401613fe0565b602060405180830381600087803b15801561166257600080fd5b505af1158015611676573d6000803e3d6000fd5b505050506040513d601f19601f8201168201806040525081019061169a9190613ed7565b5086516040516382fe3eb960e01b81526001600160a01b03909116906382fe3eb9906116ca903390600401613fcc565b600060405180830381600087803b1580156116e457600080fd5b505af11580156116f8573d6000803e3d6000fd5b50508851604051630c7940bd60e11b81526001600160a01b0390911692506318f2817a915061172b903390600401613fcc565b602060405180830381600087803b15801561174557600080fd5b505af1158015611759573d6000803e3d6000fd5b505050506040513d601f19601f8201168201806040525081019061177d9190613ed7565b60c087015261178a613996565b506040805160808101825233815260a088015160208201526001600160a01b038d8116828401528c81166060830152600d549251638c2d33eb60e01b815291921690638c2d33eb906117e0908490600401614863565b600060405180830381600087803b1580156117fa57600080fd5b505af115801561180e573d6000803e3d6000fd5b505089516040516315d549f160e01b81526001600160a01b0390911692506315d549f19150611841903390600401613fcc565b602060405180830381600087803b15801561185b57600080fd5b505af115801561186f573d6000803e3d6000fd5b505050506040513d601f19601f820116820180604052508101906118939190613ed7565b60e0880181905260405133917f59cfd0cd754bc5748b6770e94a4ffa5f678d885cb899dcfadc5734edb97c67ab916118cb919061489c565b60405180910390a2506118e2876020015182612f06565b6118ea6139bd565b506040805160a0810182526020808a01516001600160a01b0390811683528a84015116908201523381830152606081018e905290870151608082015261192f81612f82565b6000600460009054906101000a90046001600160a01b03166001600160a01b0316631549b76d6040518163ffffffff1660e01b815260040160206040518083038186803b15801561197f57600080fd5b505afa158015611993573d6000803e3d6000fd5b505050506040513d601f19601f820116820180604052508101906119b79190613ed7565b90506119c16139bd565b506040805160a0810182526020808c01516001600160a01b0390811683528c84015181169183019190915260085416918101919091526060810182905260808101829052611a0e81612f82565b606089015160c08a0151604051339260008051602061491983398151915292611a3c928991906000906140b0565b60405180910390a2336001600160a01b03166000805160206148f98339815191528a60200151604051611a6f919061489c565b60405180910390a250505050505050505050505050505050565b611a91613864565b6040518060c0016040528087815260200160008152602001600015158152602001866001600160a01b03168152602001856001600160a01b031681526020016000815250905061099e33828585611b94565b600a546001600160a01b031681565b600c546001600160a01b031681565b6001600160a01b038116611b275760405162461bcd60e51b81526004016104609061454b565b803b80611b465760405162461bcd60e51b8152600401610460906146d3565b5050565b6005546040516000916001600160a01b0316907f8be0079c531659141344cd1fd0a4f28419497f9722a3daafe3b4186f6b6457e0908390a3600580546001600160a01b0319169055565b611b9c6138f0565b50604080516060810182526006546001600160a01b03908116825260015481166020830152600c541691810191909152611bd46139eb565b611bdc6138c5565b600354604051634e15f2a560e01b81526001600160a01b0390911690634e15f2a590611c0e9088908890600401613ff9565b608060405180830381600087803b158015611c2857600080fd5b505af1158015611c3c573d6000803e3d6000fd5b505050506040513d601f19601f82011682018060405250810190611c609190613e78565b80518352600e54602082015160408084015160608501519151631ba21c6b60e11b81529495506000946001600160a01b039094169363374438d693611caa9390929160040161409a565b60206040518083038186803b158015611cc257600080fd5b505afa158015611cd6573d6000803e3d6000fd5b505050506040513d601f19601f82011682018060405250810190611cfa9190613ed7565b83519091503490600090611d0d90612897565b9050886040015115611d3457611d278960a0015182612937565b611d34896020015161304e565b8851611d3f9061306e565b611d5189600001518a60200151613095565b611d596138ae565b506040805180820190915286516001600160a01b0390811682528b166020820152611d83816124f4565b336001600160a01b038c161480611dbd57506007546001600160a01b031633148015611daf5750600083115b8015611dbd575060208a0151155b611dc357fe5b8651604051630b07655760e01b81526001600160a01b0390911690630b07655790611df2908e90600401613fcc565b600060405180830381600087803b158015611e0c57600080fd5b505af1158015611e20573d6000803e3d6000fd5b5050505050611e33828a600001516130c8565b151560608701526020808701919091528901516040860152611e53613955565b6040518060a0016040528088600001516001600160a01b0316815260200188604001516001600160a01b031681526020018b6020015181526020018b60a00151815260200185815250905089604001518015611ead575081155b15611edd57611ebb81612aca565b61012087018190526040870151611ed79163ffffffff6124cf16565b60408701525b865160405163d66a255360e01b81526001600160a01b039091169063d66a255390611f0c908e90600401613fcc565b60206040518083038186803b158015611f2457600080fd5b505afa158015611f38573d6000803e3d6000fd5b505050506040513d601f19601f82011682018060405250810190611f5c9190613ed7565b608087015286516040516309019aaf60e31b81526001600160a01b039091169063480cd57890611f90908e90600401613fcc565b60206040518083038186803b158015611fa857600080fd5b505afa158015611fbc573d6000803e3d6000fd5b505050506040513d601f19601f82011682018060405250810190611fe09190613ed7565b60a0870181905260808701518751611ff9929190612d3f565b60c0870152612006613a55565b6040518060e001604052808860a0015181526020018860800151815260200188602001518152602001886060015115158152602001886040015181526020018c604001511515815260200188600001518152509050612064816130e7565b60e088015260a08701518b51111561207857fe5b61208c838c600001518d604001518a613130565b8a604001511580156120a2575060008b60200151115b156120f5576120d06120cb88604001516120bf8a608001516131a4565b9063ffffffff6125c016565b612c95565b6120e287608001518860400151613232565b6120f588604001518d8960400151612602565b50506120ff613a96565b6040518060c0016040528088600001516001600160a01b031681526020018c6001600160a01b0316815260200187602001518152602001876060015115158152602001876040015181526020018b6040015115158152509050612161816132eb565b6101408801526101608701528651604051630c7940bd60e11b81526001600160a01b03909116906318f2817a9061219c908e90600401613fcc565b602060405180830381600087803b1580156121b657600080fd5b505af11580156121ca573d6000803e3d6000fd5b505050506040513d601f19601f820116820180604052508101906121ee9190613ed7565b610180870152506121fd613acb565b6040518060c001604052808760a0015181526020018760800151815260200187602001518152602001876060015115158152602001876040015181526020018b6040015115158152509050600061225382613548565b905061225d613996565b60405180608001604052808e6001600160a01b031681526020018381526020018d606001516001600160a01b031681526020018d608001516001600160a01b03168152509050600d60009054906101000a90046001600160a01b03166001600160a01b031663806093b8826040518263ffffffff1660e01b81526004016122e49190614863565b600060405180830381600087803b1580156122fe57600080fd5b505af1158015612312573d6000803e3d6000fd5b50505050505050896001600160a01b0316600080516020614919833981519152866101400151876101600151886101800151600260405161235694939291906140b0565b60405180910390a2336001600160a01b03166000805160206148f983398151915286610120015160405161238a919061489c565b60405180910390a261239a613b05565b5060408051610100810182526020808901516001600160a01b0390811683528984015116818301526060808901511515838501528c8401511515908301523360808301528781015160a08301528b015160c08201529086015160e082015261240181613583565b5050505050505050505050565b6007546001600160a01b031633146124385760405162461bcd60e51b81526004016104609061468a565b565b6004805460408051631549b76d60e01b8152905160009384936001600160a01b031692631549b76d9281830192602092829003018186803b15801561247e57600080fd5b505afa158015612492573d6000803e3d6000fd5b505050506040513d601f19601f820116820180604052508101906124b69190613ed7565b90506124c8838263ffffffff6124cf16565b9392505050565b6000828201838110156124c85760405162461bcd60e51b815260040161046090614130565b805160208201516040516321e3780160e01b81526000926001600160a01b0316916321e37801916125289190600401613fcc565b60206040518083038186803b15801561254057600080fd5b505afa158015612554573d6000803e3d6000fd5b505050506040513d601f19601f820116820180604052508101906125789190613ed7565b905080600114611b465760405162461bcd60e51b8152600401610460906144a0565b6125a381612897565b156108df5760405162461bcd60e51b8152600401610460906141b5565b60006124c883836040518060400160405280601e81526020017f536166654d6174683a207375627472616374696f6e206f766572666c6f770000815250613672565b6040516370a0823160e01b815281906001600160a01b038516906370a0823190612630908690600401613fcc565b60206040518083038186803b15801561264857600080fd5b505afa15801561265c573d6000803e3d6000fd5b505050506040513d601f19601f820116820180604052508101906126809190613ed7565b1015610ab95760405162461bcd60e51b815260040161046090614265565b6000806126a9610c08565b905060006126b5610acd565b9050866126d1576126cc828963ffffffff6125c016565b6126e1565b6126e1828963ffffffff6124cf16565b9150846126fd576126f8818763ffffffff6125c016565b61270d565b61270d818763ffffffff6124cf16565b9050600061271c838387612d3f565b9998505050505050505050565b6000600460009054906101000a90046001600160a01b03166001600160a01b031663bb4095226040518163ffffffff1660e01b815260040160206040518083038186803b15801561277957600080fd5b505afa15801561278d573d6000803e3d6000fd5b505050506040513d601f19601f820116820180604052508101906127b19190613ed7565b905080821015611b465760405162461bcd60e51b81526004016104609061440e565b604051637d9ee87160e11b81526001600160a01b0385169063fb3dd0e2906127ff90849060040161489c565b600060405180830381600087803b15801561281957600080fd5b505af115801561282d573d6000803e3d6000fd5b5050604051632770a7eb60e21b81526001600160a01b0386169250639dc29fac915061285f9085908590600401613fe0565b600060405180830381600087803b15801561287957600080fd5b505af115801561288d573d6000803e3d6000fd5b5050505050505050565b6000806128a38361369e565b90506000600460009054906101000a90046001600160a01b03166001600160a01b031663bb4095226040518163ffffffff1660e01b815260040160206040518083038186803b1580156128f557600080fd5b505afa158015612909573d6000803e3d6000fd5b505050506040513d601f19601f8201168201806040525081019061292d9190613ed7565b9091109392505050565b801561296a57670de0b6b3a76400008211156129655760405162461bcd60e51b8152600401610460906142c2565b611b46565b6000600460009054906101000a90046001600160a01b03166001600160a01b0316635e9e32126040518163ffffffff1660e01b815260040160206040518083038186803b1580156129ba57600080fd5b505afa1580156129ce573d6000803e3d6000fd5b505050506040513d601f19601f820116820180604052508101906129f29190613ed7565b9050808310158015612a0c5750670de0b6b3a76400008311155b610ab95760405162461bcd60e51b8152600401610460906146f2565b6040516321e3780160e01b81526000906001600160a01b038416906321e3780190612a57908590600401613fcc565b60206040518083038186803b158015612a6f57600080fd5b505afa158015612a83573d6000803e3d6000fd5b505050506040513d601f19601f82011682018060405250810190612aa79190613ed7565b90508060011415610ab95760405162461bcd60e51b815260040161046090614742565b600081600001516001600160a01b0316635dba4c4a6040518163ffffffff1660e01b8152600401600060405180830381600087803b158015612b0b57600080fd5b505af1158015612b1f573d6000803e3d6000fd5b5050835160408086015160808701519151632455c4e160e21b8152600095506001600160a01b039093169350639157138492612b5e92906004016148a5565b60206040518083038186803b158015612b7657600080fd5b505afa158015612b8a573d6000803e3d6000fd5b505050506040513d601f19601f82011682018060405250810190612bae9190613ed7565b9050612bc381846040015185606001516136ca565b600a54604051637898111760e11b81526001600160a01b039091169063f130222e90612bf390849060040161489c565b600060405180830381600087803b158015612c0d57600080fd5b505af1158015612c21573d6000803e3d6000fd5b5050506020840151600b546040516340c10f1960e01b81526001600160a01b0392831693506340c10f1992612c5c9216908590600401613fe0565b600060405180830381600087803b158015612c7657600080fd5b505af1158015612c8a573d6000803e3d6000fd5b509295945050505050565b6000600460009054906101000a90046001600160a01b03166001600160a01b031663c4dc70d36040518163ffffffff1660e01b815260040160206040518083038186803b158015612ce557600080fd5b505afa158015612cf9573d6000803e3d6000fd5b505050506040513d601f19601f82011682018060405250810190612d1d9190613ed7565b905080821015611b465760405162461bcd60e51b8152600401610460906145c7565b60008215612d72576000612d6984612d5d878663ffffffff61370a16565b9063ffffffff61374416565b91506124c89050565b506000199392505050565b60008115612da957612da282612d5d8568056bc75e2d6310000063ffffffff61370a16565b9050610a37565b50600019610a37565b6000600460009054906101000a90046001600160a01b03166001600160a01b031663bb4095226040518163ffffffff1660e01b815260040160206040518083038186803b158015612e0257600080fd5b505afa158015612e16573d6000803e3d6000fd5b505050506040513d601f19601f82011682018060405250810190612e3a9190613ed7565b905080821015611b465760405162461bcd60e51b81526004016104609061420e565b6000600460009054906101000a90046001600160a01b03166001600160a01b03166344936b106040518163ffffffff1660e01b815260040160206040518083038186803b158015612eac57600080fd5b505afa158015612ec0573d6000803e3d6000fd5b505050506040513d601f19601f82011682018060405250810190612ee49190613ed7565b905080821015611b465760405162461bcd60e51b81526004016104609061456a565b6000826001600160a01b031682604051612f1f90613fc9565b60006040518083038185875af1925050503d8060008114612f5c576040519150601f19603f3d011682016040523d82523d6000602084013e612f61565b606091505b5050905080610ab95760405162461bcd60e51b815260040161046090614380565b805160808201516040516333681ca560e21b81526001600160a01b039092169163cda0729491612fb49160040161489c565b600060405180830381600087803b158015612fce57600080fd5b505af1158015612fe2573d6000803e3d6000fd5b5050505080602001516001600160a01b03166340c10f19826040015183606001516040518363ffffffff1660e01b8152600401613020929190613fe0565b600060405180830381600087803b15801561303a57600080fd5b505af115801561093d573d6000803e3d6000fd5b600081116108df5760405162461bcd60e51b815260040161046090614778565b341580613079575080155b6108df5760405162461bcd60e51b815260040161046090614165565b341515806130a257508115155b806130ac57508015155b611b465760405162461bcd60e51b815260040161046090614314565b60008083156130dc575082905060016130e0565b8291505b9250929050565b6000806000613112846000015185602001518660400151876060015188608001518960a00151613783565b91509150600061312783838760c00151612d3f565b95945050505050565b83156131695761313f836137ef565b8115613164576131528160e00151612db2565b6131648160e001518260c0015161380d565b610a9b565b6131768160e00151612e5c565b61319381602001518260600151836040015185856000015161269e565b6101008201819052610a9b90612729565b6004805460408051631549b76d60e01b8152905160009384936001600160a01b031692631549b76d9281830192602092829003018186803b1580156131e857600080fd5b505afa1580156131fc573d6000803e3d6000fd5b505050506040513d601f19601f820116820180604052508101906132209190613ed7565b90506124c8838263ffffffff6125c016565b6000600460009054906101000a90046001600160a01b03166001600160a01b0316631549b76d6040518163ffffffff1660e01b815260040160206040518083038186803b15801561328257600080fd5b505afa158015613296573d6000803e3d6000fd5b505050506040513d601f19601f820116820180604052508101906132ba9190613ed7565b90506132cc838263ffffffff6125c016565b821115610ab95760405162461bcd60e51b815260040161046090614621565b600080600083606001516133895783516020850151604080870151905163d3d6f84360e01b81526001600160a01b039093169263d3d6f84392613332929091600401613fe0565b602060405180830381600087803b15801561334c57600080fd5b505af1158015613360573d6000803e3d6000fd5b505050506040513d601f19601f820116820180604052508101906133849190613ed7565b613414565b8351602085015160408087015190516372423c1760e01b81526001600160a01b03909316926372423c17926133c2929091600401613fe0565b602060405180830381600087803b1580156133dc57600080fd5b505af11580156133f0573d6000803e3d6000fd5b505050506040513d601f19601f820116820180604052508101906134149190613ed7565b905060008460a001516134b157845160208601516080870151604051630930874960e11b81526001600160a01b03909316926312610e929261345a929091600401613fe0565b602060405180830381600087803b15801561347457600080fd5b505af1158015613488573d6000803e3d6000fd5b505050506040513d601f19601f820116820180604052508101906134ac9190613ed7565b61353c565b845160208601516080870151604051639976cf4560e01b81526001600160a01b0390931692639976cf45926134ea929091600401613fe0565b602060405180830381600087803b15801561350457600080fd5b505af1158015613518573d6000803e3d6000fd5b505050506040513d601f19601f8201168201806040525081019061353c9190613ed7565b91935090915050915091565b6000806000613573846000015185602001518660400151876060015188608001518960a00151613783565b9150915060006131278383612d7d565b8060600151156135fc576135956139bd565b6040518060a0016040528083600001516001600160a01b0316815260200183602001516001600160a01b0316815260200183608001516001600160a01b031681526020018360c0015181526020018360e0015181525090506135f681612f82565b50613618565b6136188160000151826020015183608001518460c001516127d3565b8060400151156136395761363481600001518260a00151612f06565b6108df565b8051608082015160a0830151604051630a569c3760e41b81526001600160a01b039093169263a569c37092613020929091600401613fe0565b600081848411156136965760405162461bcd60e51b815260040161046091906140dd565b505050900390565b6000806136a9610c08565b905060006136b5610acd565b90506136c2828286612d3f565b949350505050565b60006136e883612d5d86670de0b6b3a764000063ffffffff61370a16565b905081811115610a9b5760405162461bcd60e51b81526004016104609061482c565b60008261371957506000610a37565b8282028284828161372657fe5b04146124c85760405162461bcd60e51b8152600401610460906143cd565b60006124c883836040518060400160405280601a815260200179536166654d6174683a206469766973696f6e206279207a65726f60301b81525061382d565b6000808787866137a25761379d8a8963ffffffff6125c016565b6137b2565b6137b28a8963ffffffff6124cf16565b9150846137ce576137c9898763ffffffff6125c016565b6137de565b6137de898763ffffffff6124cf16565b919a91995090975050505050505050565b80156108df5760405162461bcd60e51b8152600401610460906144ee565b80821015611b465760405162461bcd60e51b8152600401610460906147cf565b6000818361384e5760405162461bcd60e51b815260040161046091906140dd565b50600083858161385a57fe5b0495945050505050565b6040518060c00160405280600081526020016000815260200160001515815260200160006001600160a01b0316815260200160006001600160a01b03168152602001600081525090565b604080518082019091526000808252602082015290565b6040518060800160405280600081526020016000801916815260200160008152602001600081525090565b604080516060810182526000808252602082018190529181019190915290565b60405180610100016040528060008152602001600081526020016000815260200160008152602001600081526020016000815260200160008152602001600081525090565b6040518060a0016040528060006001600160a01b0316815260200160006001600160a01b031681526020016000815260200160008152602001600081525090565b60408051608081018252600080825260208201819052918101829052606081019190915290565b6040805160a08101825260008082526020820181905291810182905260608101829052608081019190915290565b604051806101a001604052806000815260200160008152602001600081526020016000151581526020016000815260200160008152602001600081526020016000815260200160008152602001600081526020016000815260200160008152602001600081525090565b6040518060e0016040528060008152602001600081526020016000815260200160001515815260200160008152602001600015158152602001600081525090565b6040805160c081018252600080825260208201819052918101829052606081018290526080810182905260a081019190915290565b6040518060c00160405280600081526020016000815260200160008152602001600015158152602001600081526020016000151581525090565b6040805161010081018252600080825260208201819052918101829052606081018290526080810182905260a0810182905260c0810182905260e081019190915290565b80356001600160a01b0381168114610a3757600080fd5b60008083601f840112613b71578182fd5b5081356001600160401b03811115613b87578182fd5b60208301915083602080830285010111156130e057600080fd5b80358015158114610a3757600080fd5b600080600080600060808688031215613bc8578081fd5b613bd28787613b49565b9450613be18760208801613b49565b9350613bf08760408801613b49565b925060608601356001600160401b03811115613c0a578182fd5b613c1688828901613b60565b969995985093965092949392505050565b60008060008060608587031215613c3c578384fd5b613c468686613b49565b9350613c558660208701613b49565b925060408501356001600160401b03811115613c6f578283fd5b613c7b87828801613b60565b95989497509550505050565b60008060208385031215613c99578182fd5b82356001600160401b03811115613cae578283fd5b613cba85828601613b60565b90969095509350505050565b600080600083850360e0811215613cdb578384fd5b60c0811215613ce8578384fd5b50613cf360c06148b3565b8435815260208501356020820152613d0e8660408701613ba1565b6040820152613d208660608701613b49565b6060820152613d328660808701613b49565b608082015260a08581013590820152925060c08401356001600160401b03811115613d5b578283fd5b613d6786828701613b60565b9497909650939450505050565b6000610180808385031215613d87578182fd5b613d90816148b3565b613d9a8585613b49565b8152613da98560208601613b49565b6020820152613dbb8560408601613b49565b6040820152613dcd8560608601613b49565b6060820152613ddf8560808601613b49565b6080820152613df18560a08601613b49565b60a0820152613e038560c08601613b49565b60c0820152613e158560e08601613b49565b60e08201526101009150613e2b85838601613b49565b828201526101209150613e4085838601613b49565b828201526101409150613e5585838601613b49565b828201526101609150613e6a85838601613b49565b918101919091529392505050565b600060808284031215613e89578081fd5b613e9360806148b3565b825181526020830151602082015260408301516040820152606083015160608201528091505092915050565b600060208284031215613ed0578081fd5b5035919050565b600060208284031215613ee8578081fd5b5051919050565b600080600080600060808688031215613f06578081fd5b853594506020860135613f18816148e3565b93506040860135613bf0816148e3565b60008060008060008060a08789031215613f40578384fd5b8635955060208701359450613f588860408901613b49565b9350613f678860608901613b49565b925060808701356001600160401b03811115613f81578182fd5b613f8d89828a01613b60565b979a9699509497509295939492505050565b60008284528282602086013780602084860101526020601f19601f85011685010190509392505050565b90565b6001600160a01b0391909116815260200190565b6001600160a01b03929092168252602082015260400190565b602080825281810183905260009060408482028401810190840186845b8781101561408257868403603f190183528135368a9003601e1901811261403b578687fd5b89018035906001600160401b03821115614053578788fd5b8136038b1315614061578788fd5b61406e8683898401613f9f565b955050509184019190840190600101614016565b5091979650505050505050565b901515815260200190565b9283526020830191909152604082015260600190565b8481526020810184905260408101839052608081016140ce836148d9565b82606083015295945050505050565b6000602080835283518082850152825b81811015614109578581018301518582016040015282016140ed565b8181111561411a5783604083870101525b50601f01601f1916929092016040019392505050565b6020808252601b908201527a536166654d6174683a206164646974696f6e206f766572666c6f7760281b604082015260600190565b60208082526030908201527f426f72726f7765724f7065726174696f6e733a2043616e6e6f7420776974686460408201526f1c985dc8185b99081859190818dbdb1b60821b606082015260800190565b60208082526039908201527f426f72726f7765724f70733a204f7065726174696f6e206e6f74207065726d696040820152787474656420647572696e67205265636f76657279204d6f646560381b606082015260800190565b60208082526037908201527f426f72726f7765724f70733a204f7065726174696f6e206d757374206c65617660408201527632903a3937bb32903bb4ba341024a1a9101f1e9021a1a960491b606082015260800190565b6020808252603d908201527f426f72726f7765724f70733a2043616c6c657220646f65736e7420686176652060408201527f656e6f756768205553445320746f206d616b652072657061796d656e74000000606082015260800190565b60208082526032908201527f4d6178206665652070657263656e74616765206d757374206c657373207468616040820152716e206f7220657175616c20746f203130302560701b606082015260800190565b60208082526046908201527f426f72726f7765724f70733a205468657265206d75737420626520656974686560408201527f72206120636f6c6c61746572616c206368616e6765206f7220612064656274206060820152656368616e676560d01b608082015260a00190565b6020808252602d908201527f426f72726f7765724f70733a2053656e64696e6720424e4220746f204163746960408201526c1d99541bdbdb0819985a5b1959609a1b606082015260800190565b60208082526021908201527f536166654d6174683a206d756c7469706c69636174696f6e206f766572666c6f6040820152607760f81b606082015260800190565b602080825260499082015260008051602061493983398151915260408201527f6f756c6420726573756c7420696e20544352203c20434352206973206e6f74206060820152681c195c9b5a5d1d195960ba1b608082015260a00190565b6020808252818101527f4f776e61626c653a2063616c6c6572206973206e6f7420746865206f776e6572604082015260600190565b6020808252602e908201527f426f72726f7765724f70733a2054726f766520646f6573206e6f74206578697360408201526d1d081bdc881a5cc818db1bdcd95960921b606082015260800190565b6020808252603e908201527f426f72726f7765724f70733a20436f6c6c61746572616c20776974686472617760408201527f616c206e6f74207065726d6974746564205265636f76657279204d6f64650000606082015260800190565b6020808252600590820152641830b2323960d91b604082015260600190565b602080825260499082015260008051602061493983398151915260408201527f6f756c6420726573756c7420696e20494352203c204d4352206973206e6f74206060820152681c195c9b5a5d1d195960ba1b608082015260a00190565b6020808252603a908201527f426f72726f7765724f70733a2054726f76652773206e65742064656274206d7560408201527973742062652067726561746572207468616e206d696e696d756d60301b606082015260800190565b60208082526043908201527f426f72726f7765724f70733a20416d6f756e7420726570616964206d7573742060408201527f6e6f74206265206c6172676572207468616e207468652054726f76652773206460608201526219589d60ea1b608082015260a00190565b60208082526029908201527f426f72726f7765724f70733a2043616c6c6572206973206e6f742053746162696040820152681b1a5d1e48141bdbdb60ba1b606082015260800190565b60208082526005908201526430636f646560d81b604082015260600190565b60208082526030908201527f4d6178206665652070657263656e74616765206d75737420626520626574776560408201526f656e20302e352520616e64203130302560801b606082015260800190565b6020808252601c908201527b426f72726f7765724f70733a2054726f76652069732061637469766560201b604082015260600190565b60208082526037908201527f426f72726f7765724f70733a204465627420696e637265617365207265717569604082015276726573206e6f6e2d7a65726f20646562744368616e676560481b606082015260800190565b6020808252603e908201527f426f72726f7765724f70733a2043616e6e6f7420646563726561736520796f7560408201527f722054726f766527732049435220696e205265636f76657279204d6f64650000606082015260800190565b6020808252601d908201527f4665652065786365656465642070726f7669646564206d6178696d756d000000604082015260600190565b81516001600160a01b03908116825260208084015190830152604080840151821690830152606092830151169181019190915260800190565b90815260200190565b918252602082015260400190565b6040518181016001600160401b03811182821017156148d157600080fd5b604052919050565b600381106108df57fe5b6001600160a01b03811681146108df57600080fdfe40c9936a18b4ba2155a308a1c8f38c423194b223dba9a70e61b37463fecfabf4c3770d654ed33aeea6bf11ac8ef05d02a6a04ed4686dd2f624d853bbec43cc8b426f72726f7765724f70733a20416e206f7065726174696f6e20746861742077a164736f6c634300060b000a","linkReferences":{}},"methodIdentifiers":{"DECIMAL_PRECISION()":"a20baee6","NAME()":"a3f4df7e","PERCENT_DIVISOR()":"4870dd9a","_100pct()":"72fe25aa","activePool()":"7f7dde4a","addColl(address,address,bytes[])":"1e503ead","adjustTrove((uint256,uint256,bool,address,address,uint256),bytes[])":"739987d7","claimCollateral()":"6f0b0c1c","closeTrove(bytes[])":"df9bf27a","defaultPool()":"3cc74225","getCompositeDebt(uint256)":"4ff81443","getEntireSystemColl()":"887105d3","getEntireSystemDebt()":"795d26c3","isOwner()":"8f32d59b","moveBNBGainToTrove(address,address,address,bytes[])":"37ddc0af","openTrove(uint256,uint256,address,address,bytes[])":"e129d8e0","oracleRateCalc()":"ddc7aed4","owner()":"8da5cb5b","priceFeed()":"741bef1a","repayUSDS(uint256,address,address,bytes[])":"2322cd68","sableStaking()":"f80911de","sableStakingAddress()":"8d0a3b08","setAddresses((address,address,address,address,address,address,address,address,address,address,address,address))":"1453558b","sortedTroves()":"ae918754","systemState()":"991292e3","timeLock()":"d085835a","troveManager()":"3d83908a","usdsToken()":"f8f8d174","withdrawColl(uint256,address,address,bytes[])":"f1f30974","withdrawUSDS(uint256,uint256,address,address,bytes[])":"b120dbd4"},"storageLayout":{"storage":[{"astId":2648,"contract":"src/BorrowerOperations.sol:BorrowerOperations","label":"timeLock","offset":0,"slot":"0","type":"t_address"},{"astId":2650,"contract":"src/BorrowerOperations.sol:BorrowerOperations","label":"activePool","offset":0,"slot":"1","type":"t_contract(IActivePool)13368"},{"astId":2652,"contract":"src/BorrowerOperations.sol:BorrowerOperations","label":"defaultPool","offset":0,"slot":"2","type":"t_contract(IDefaultPool)13734"},{"astId":2655,"contract":"src/BorrowerOperations.sol:BorrowerOperations","label":"priceFeed","offset":0,"slot":"3","type":"t_contract(IPriceFeed)13837"},{"astId":2657,"contract":"src/BorrowerOperations.sol:BorrowerOperations","label":"systemState","offset":0,"slot":"4","type":"t_contract(ISystemState)14614"},{"astId":3103,"contract":"src/BorrowerOperations.sol:BorrowerOperations","label":"_owner","offset":0,"slot":"5","type":"t_address"},{"astId":26,"contract":"src/BorrowerOperations.sol:BorrowerOperations","label":"troveManager","offset":0,"slot":"6","type":"t_contract(ITroveManager)15318"},{"astId":28,"contract":"src/BorrowerOperations.sol:BorrowerOperations","label":"stabilityPoolAddress","offset":0,"slot":"7","type":"t_address"},{"astId":30,"contract":"src/BorrowerOperations.sol:BorrowerOperations","label":"gasPoolAddress","offset":0,"slot":"8","type":"t_address"},{"astId":32,"contract":"src/BorrowerOperations.sol:BorrowerOperations","label":"collSurplusPool","offset":0,"slot":"9","type":"t_contract(ICollSurplusPool)13711"},{"astId":34,"contract":"src/BorrowerOperations.sol:BorrowerOperations","label":"sableStaking","offset":0,"slot":"10","type":"t_contract(ISableStakingV2)14139"},{"astId":36,"contract":"src/BorrowerOperations.sol:BorrowerOperations","label":"sableStakingAddress","offset":0,"slot":"11","type":"t_address"},{"astId":38,"contract":"src/BorrowerOperations.sol:BorrowerOperations","label":"usdsToken","offset":0,"slot":"12","type":"t_contract(IUSDSToken)15377"},{"astId":40,"contract":"src/BorrowerOperations.sol:BorrowerOperations","label":"sortedTroves","offset":0,"slot":"13","type":"t_contract(ISortedTroves)14269"},{"astId":42,"contract":"src/BorrowerOperations.sol:BorrowerOperations","label":"oracleRateCalc","offset":0,"slot":"14","type":"t_contract(IOracleRateCalculation)13757"}],"types":{"t_address":{"encoding":"inplace","label":"address","numberOfBytes":"20"},"t_contract(IActivePool)13368":{"encoding":"inplace","label":"contract IActivePool","numberOfBytes":"20"},"t_contract(ICollSurplusPool)13711":{"encoding":"inplace","label":"contract ICollSurplusPool","numberOfBytes":"20"},"t_contract(IDefaultPool)13734":{"encoding":"inplace","label":"contract IDefaultPool","numberOfBytes":"20"},"t_contract(IOracleRateCalculation)13757":{"encoding":"inplace","label":"contract IOracleRateCalculation","numberOfBytes":"20"},"t_contract(IPriceFeed)13837":{"encoding":"inplace","label":"contract IPriceFeed","numberOfBytes":"20"},"t_contract(ISableStakingV2)14139":{"encoding":"inplace","label":"contract ISableStakingV2","numberOfBytes":"20"},"t_contract(ISortedTroves)14269":{"encoding":"inplace","label":"contract ISortedTroves","numberOfBytes":"20"},"t_contract(ISystemState)14614":{"encoding":"inplace","label":"contract ISystemState","numberOfBytes":"20"},"t_contract(ITroveManager)15318":{"encoding":"inplace","label":"contract ITroveManager","numberOfBytes":"20"},"t_contract(IUSDSToken)15377":{"encoding":"inplace","label":"contract IUSDSToken","numberOfBytes":"20"}}},"id":0}