{"abi":[{"type":"constructor","inputs":[{"name":"_troveManager","type":"address","internalType":"contract ITroveManager"}],"stateMutability":"nonpayable"},{"type":"function","name":"NAME","inputs":[],"outputs":[{"name":"","type":"string","internalType":"string"}],"stateMutability":"view"},{"type":"function","name":"redeemCollateral","inputs":[{"name":"_USDSAmount","type":"uint256","internalType":"uint256"},{"name":"_firstRedemptionHint","type":"address","internalType":"address"},{"name":"_upperPartialRedemptionHint","type":"address","internalType":"address"},{"name":"_lowerPartialRedemptionHint","type":"address","internalType":"address"},{"name":"_partialRedemptionHintNICR","type":"uint256","internalType":"uint256"},{"name":"_maxIterations","type":"uint256","internalType":"uint256"},{"name":"_maxFee","type":"uint256","internalType":"uint256"},{"name":"priceFeedUpdateData","type":"bytes[]","internalType":"bytes[]"}],"outputs":[{"name":"","type":"uint256","internalType":"uint256"}],"stateMutability":"nonpayable"}],"bytecode":{"object":"0x60a060405234801561001057600080fd5b506040516104cc3803806104cc83398101604081905261002f916100a8565b610041816001600160e01b0361005616565b60601b6001600160601b031916608052610114565b6001600160a01b0381166100855760405162461bcd60e51b815260040161007c906100d6565b60405180910390fd5b803b806100a45760405162461bcd60e51b815260040161007c906100f5565b5050565b6000602082840312156100b9578081fd5b81516001600160a01b03811681146100cf578182fd5b9392505050565b6020808252600590820152641830b2323960d91b604082015260600190565b60208082526005908201526430636f646560d81b604082015260600190565b60805160601c61039c610130600039806093525061039c6000f3fe608060405234801561001057600080fd5b50600436106100365760003560e01c8063472b286f1461003b578063a3f4df7e14610064575b600080fd5b61004e610049366004610145565b610079565b60405161005b919061028f565b60405180910390f35b61006c610117565b60405161005b919061023c565b60405163472b286f60e01b81526000906001600160a01b037f0000000000000000000000000000000000000000000000000000000000000000169063472b286f906100d8908d908d908d908d908d908d908d908d908d90600401610298565b600060405180830381600087803b1580156100f257600080fd5b505af1158015610106573d6000803e3d6000fd5b505050509998505050505050505050565b60405180604001604052806012815260200171151c9bdd9953585b9859d95c94d8dc9a5c1d60721b81525081565b60008060008060008060008060006101008a8c031215610163578485fd5b8935985060208a013561017581610377565b975060408a013561018581610377565b965060608a013561019581610377565b955060808a0135945060a08a0135935060c08a0135925060e08a01356001600160401b03808211156101c5578384fd5b818c018d601f8201126101d6578485fd5b80359250818311156101e6578485fd5b8d602080850283010111156101f9578485fd5b6020810194505050809150509295985092959850929598565b60008284528282602086013780602084860101526020601f19601f85011685010190509392505050565b6000602080835283518082850152825b818110156102685785810183015185820160400152820161024c565b818111156102795783604083870101525b50601f01601f1916929092016040019392505050565b90815260200190565b8981526001600160a01b03898116602080840191909152898216604084015290881660608301526080820187905260a0820186905260c0820185905261010060e083018190528201839052600090610120808401918691868202860101845b878110156103645786820361011f190185528335368a9003601e1901811261031d578687fd5b89018035906001600160401b03821115610335578788fd5b8136038b1315610343578788fd5b6103508483878401610212565b9685019695850195935050506001016102f7565b509e9d5050505050505050505050505050565b6001600160a01b038116811461038c57600080fd5b5056fea164736f6c634300060b000a","linkReferences":{}},"methodIdentifiers":{"NAME()":"a3f4df7e","redeemCollateral(uint256,address,address,address,uint256,uint256,uint256,bytes[])":"472b286f"},"id":68}