{"abi":[{"type":"constructor","inputs":[{"name":"_troveManagerAddress","type":"address","internalType":"address"},{"name":"_stabilityPoolAddress","type":"address","internalType":"address"},{"name":"_borrowerOperationsAddress","type":"address","internalType":"address"}],"stateMutability":"nonpayable"},{"type":"function","name":"allowance","inputs":[{"name":"owner","type":"address","internalType":"address"},{"name":"spender","type":"address","internalType":"address"}],"outputs":[{"name":"","type":"uint256","internalType":"uint256"}],"stateMutability":"view"},{"type":"function","name":"approve","inputs":[{"name":"spender","type":"address","internalType":"address"},{"name":"amount","type":"uint256","internalType":"uint256"}],"outputs":[{"name":"","type":"bool","internalType":"bool"}],"stateMutability":"nonpayable"},{"type":"function","name":"balanceOf","inputs":[{"name":"account","type":"address","internalType":"address"}],"outputs":[{"name":"","type":"uint256","internalType":"uint256"}],"stateMutability":"view"},{"type":"function","name":"borrowerOperationsAddress","inputs":[],"outputs":[{"name":"","type":"address","internalType":"address"}],"stateMutability":"view"},{"type":"function","name":"burn","inputs":[{"name":"_account","type":"address","internalType":"address"},{"name":"_amount","type":"uint256","internalType":"uint256"}],"outputs":[],"stateMutability":"nonpayable"},{"type":"function","name":"callInternalApprove","inputs":[{"name":"owner","type":"address","internalType":"address"},{"name":"spender","type":"address","internalType":"address"},{"name":"amount","type":"uint256","internalType":"uint256"}],"outputs":[{"name":"","type":"bool","internalType":"bool"}],"stateMutability":"nonpayable"},{"type":"function","name":"decimals","inputs":[],"outputs":[{"name":"","type":"uint8","internalType":"uint8"}],"stateMutability":"view"},{"type":"function","name":"decreaseAllowance","inputs":[{"name":"spender","type":"address","internalType":"address"},{"name":"subtractedValue","type":"uint256","internalType":"uint256"}],"outputs":[{"name":"","type":"bool","internalType":"bool"}],"stateMutability":"nonpayable"},{"type":"function","name":"domainSeparator","inputs":[],"outputs":[{"name":"","type":"bytes32","internalType":"bytes32"}],"stateMutability":"view"},{"type":"function","name":"getChainId","inputs":[],"outputs":[{"name":"chainID","type":"uint256","internalType":"uint256"}],"stateMutability":"pure"},{"type":"function","name":"getDigest","inputs":[{"name":"owner","type":"address","internalType":"address"},{"name":"spender","type":"address","internalType":"address"},{"name":"amount","type":"uint256","internalType":"uint256"},{"name":"nonce","type":"uint256","internalType":"uint256"},{"name":"deadline","type":"uint256","internalType":"uint256"}],"outputs":[{"name":"","type":"bytes32","internalType":"bytes32"}],"stateMutability":"view"},{"type":"function","name":"increaseAllowance","inputs":[{"name":"spender","type":"address","internalType":"address"},{"name":"addedValue","type":"uint256","internalType":"uint256"}],"outputs":[{"name":"","type":"bool","internalType":"bool"}],"stateMutability":"nonpayable"},{"type":"function","name":"mint","inputs":[{"name":"_account","type":"address","internalType":"address"},{"name":"_amount","type":"uint256","internalType":"uint256"}],"outputs":[],"stateMutability":"nonpayable"},{"type":"function","name":"name","inputs":[],"outputs":[{"name":"","type":"string","internalType":"string"}],"stateMutability":"view"},{"type":"function","name":"nonces","inputs":[{"name":"owner","type":"address","internalType":"address"}],"outputs":[{"name":"","type":"uint256","internalType":"uint256"}],"stateMutability":"view"},{"type":"function","name":"permit","inputs":[{"name":"owner","type":"address","internalType":"address"},{"name":"spender","type":"address","internalType":"address"},{"name":"amount","type":"uint256","internalType":"uint256"},{"name":"deadline","type":"uint256","internalType":"uint256"},{"name":"v","type":"uint8","internalType":"uint8"},{"name":"r","type":"bytes32","internalType":"bytes32"},{"name":"s","type":"bytes32","internalType":"bytes32"}],"outputs":[],"stateMutability":"nonpayable"},{"type":"function","name":"permitTypeHash","inputs":[],"outputs":[{"name":"","type":"bytes32","internalType":"bytes32"}],"stateMutability":"view"},{"type":"function","name":"recoverAddress","inputs":[{"name":"digest","type":"bytes32","internalType":"bytes32"},{"name":"v","type":"uint8","internalType":"uint8"},{"name":"r","type":"bytes32","internalType":"bytes32"},{"name":"s","type":"bytes32","internalType":"bytes32"}],"outputs":[{"name":"","type":"address","internalType":"address"}],"stateMutability":"pure"},{"type":"function","name":"returnFromPool","inputs":[{"name":"_poolAddress","type":"address","internalType":"address"},{"name":"_receiver","type":"address","internalType":"address"},{"name":"_amount","type":"uint256","internalType":"uint256"}],"outputs":[],"stateMutability":"nonpayable"},{"type":"function","name":"sendToPool","inputs":[{"name":"_sender","type":"address","internalType":"address"},{"name":"_poolAddress","type":"address","internalType":"address"},{"name":"_amount","type":"uint256","internalType":"uint256"}],"outputs":[],"stateMutability":"nonpayable"},{"type":"function","name":"stabilityPoolAddress","inputs":[],"outputs":[{"name":"","type":"address","internalType":"address"}],"stateMutability":"view"},{"type":"function","name":"symbol","inputs":[],"outputs":[{"name":"","type":"string","internalType":"string"}],"stateMutability":"view"},{"type":"function","name":"totalSupply","inputs":[],"outputs":[{"name":"","type":"uint256","internalType":"uint256"}],"stateMutability":"view"},{"type":"function","name":"transfer","inputs":[{"name":"recipient","type":"address","internalType":"address"},{"name":"amount","type":"uint256","internalType":"uint256"}],"outputs":[{"name":"","type":"bool","internalType":"bool"}],"stateMutability":"nonpayable"},{"type":"function","name":"transferFrom","inputs":[{"name":"sender","type":"address","internalType":"address"},{"name":"recipient","type":"address","internalType":"address"},{"name":"amount","type":"uint256","internalType":"uint256"}],"outputs":[{"name":"","type":"bool","internalType":"bool"}],"stateMutability":"nonpayable"},{"type":"function","name":"troveManagerAddress","inputs":[],"outputs":[{"name":"","type":"address","internalType":"address"}],"stateMutability":"view"},{"type":"function","name":"unprotectedBurn","inputs":[{"name":"_account","type":"address","internalType":"address"},{"name":"_amount","type":"uint256","internalType":"uint256"}],"outputs":[],"stateMutability":"nonpayable"},{"type":"function","name":"unprotectedMint","inputs":[{"name":"_account","type":"address","internalType":"address"},{"name":"_amount","type":"uint256","internalType":"uint256"}],"outputs":[],"stateMutability":"nonpayable"},{"type":"function","name":"unprotectedReturnFromPool","inputs":[{"name":"_poolAddress","type":"address","internalType":"address"},{"name":"_receiver","type":"address","internalType":"address"},{"name":"_amount","type":"uint256","internalType":"uint256"}],"outputs":[],"stateMutability":"nonpayable"},{"type":"function","name":"unprotectedSendToPool","inputs":[{"name":"_sender","type":"address","internalType":"address"},{"name":"_poolAddress","type":"address","internalType":"address"},{"name":"_amount","type":"uint256","internalType":"uint256"}],"outputs":[],"stateMutability":"nonpayable"},{"type":"function","name":"version","inputs":[],"outputs":[{"name":"","type":"string","internalType":"string"}],"stateMutability":"view"},{"type":"event","name":"Approval","inputs":[{"name":"owner","type":"address","indexed":true,"internalType":"address"},{"name":"spender","type":"address","indexed":true,"internalType":"address"},{"name":"value","type":"uint256","indexed":false,"internalType":"uint256"}],"anonymous":false},{"type":"event","name":"BorrowerOperationsAddressChanged","inputs":[{"name":"_newBorrowerOperationsAddress","type":"address","indexed":false,"internalType":"address"}],"anonymous":false},{"type":"event","name":"StabilityPoolAddressChanged","inputs":[{"name":"_newStabilityPoolAddress","type":"address","indexed":false,"internalType":"address"}],"anonymous":false},{"type":"event","name":"Transfer","inputs":[{"name":"from","type":"address","indexed":true,"internalType":"address"},{"name":"to","type":"address","indexed":true,"internalType":"address"},{"name":"value","type":"uint256","indexed":false,"internalType":"uint256"}],"anonymous":false},{"type":"event","name":"TroveManagerAddressChanged","inputs":[{"name":"_troveManagerAddress","type":"address","indexed":false,"internalType":"address"}],"anonymous":false},{"type":"event","name":"USDSTokenBalanceUpdated","inputs":[{"name":"_user","type":"address","indexed":false,"internalType":"address"},{"name":"_amount","type":"uint256","indexed":false,"internalType":"uint256"}],"anonymous":false}],"bytecode":{"object":"0x6101806040527f6e71edae12b1b97f4d1f60370fef10105fa2faae0126114a169c64845d6126c9610160523480156200003757600080fd5b5060405162001b2d38038062001b2d833981810160405260608110156200005d57600080fd5b508051602082015160409092015190919082828262000085836001600160e01b036200027e16565b62000099826001600160e01b036200027e16565b620000ad816001600160e01b036200027e16565b6001600160601b0319606084901b1661010052604080516001600160a01b038516815290517f143219c9e69b09e07e095fcc889b43d8f46ca892bba65f08dc3a0050869a56789181900360200190a16001600160601b0319606083901b1661012052604080516001600160a01b038416815290517f82966d27eea39b038ee0fa30cd16532bb24f6e65d31cb58fb227aa5766cdcc7f9181900360200190a16001600160601b0319606082901b1661014052604080516001600160a01b038316815290517f3ca631ffcd2a9b5d9ae18543fc82f58eb4ca33af9e6ab01b7a8e95331e6ed9859181900360200190a1604080518082018252600f81526e2aa9a2299029ba30b13632b1b7b4b760891b602091820152815180830190925260018252603160f81b9101527f2a23c41011e8e539e4f4084ffc24b3915572c705b02e784a519051e327b59f8060c08190527fc89efdaa54c0f20c7adf612882df0950f5a951637e0307cdcb4c672f298b8bc660e0819052620002336001600160e01b036200030316565b60a0526200026c7f8b73c3c69bb8fe3d512ecc4cf759cc79239f7b179b0ffacaa9a75d522b39400f83836001600160e01b036200030716565b60805250620003689650505050505050565b6001600160a01b038116620002c2576040805162461bcd60e51b81526020600482015260056024820152641830b2323960d91b604482015290519081900360640190fd5b803b80620002ff576040805162461bcd60e51b815260206004820152600560248201526430636f646560d81b604482015290519081900360640190fd5b5050565b4690565b60008383836200031f6001600160e01b036200030316565b6040805160208082019690965280820194909452606084019290925260808301523060a0808401919091528151808403909101815260c090920190528051910120949350505050565b60805160a05160c05160e0516101005160601c6101205160601c6101405160601c6101605161172c62000401600039806107e6525080610a105280610fed5280611210528061130b5250806106a45280610dd35280610f72528061137052806113d85250806108b95280610da15280610faf528061133d525080610ce9525080610cc8525080610c4e525080610c7e525061172c6000f3fe608060405234801561001057600080fd5b50600436106101755760003560e01c806303d999461461017a57806306fdde03146101c4578063095ea7b3146102415780630b622ab21461026d57806310ce43bd1461029157806318160ddd146102ab57806320c582be146102b357806323b872dd146102eb578063313ce567146103215780633408e4701461033f57806339509351146103475780633ab60582146103735780633dc2ea6d1461039f57806340c10f19146103d55780635099f99f14610401578063519e2cee1461042d57806354fd4d501461046f5780635a4d28bb1461047757806370a082311461047f5780637ecebe00146104a55780638428cf83146104cb57806395d89b41146104fd5780639dc29fac14610505578063a457c2d714610531578063a9059cbb1461055d578063b655c2761461039f578063b7f8cf9b14610589578063bb997bac14610591578063d505accf146105c7578063dd62ed3e14610618578063f698da2514610646575b600080fd5b6101b06004803603606081101561019057600080fd5b506001600160a01b0381358116916020810135909116906040013561064e565b604080519115158252519081900360200190f35b6101cc610662565b6040805160208082528351818301528351919283929083019185019080838360005b838110156102065781810151838201526020016101ee565b50505050905090810190601f1680156102335780820380516001836020036101000a031916815260200191505b509250505060405180910390f35b6101b06004803603604081101561025757600080fd5b506001600160a01b03813516906020013561068c565b6102756106a2565b604080516001600160a01b039092168252519081900360200190f35b6102996106c6565b60408051918252519081900360200190f35b6102996106d8565b6102e9600480360360608110156102c957600080fd5b506001600160a01b038135811691602081013590911690604001356106de565b005b6101b06004803603606081101561030157600080fd5b506001600160a01b038135811691602081013590911690604001356106f6565b61032961076e565b6040805160ff9092168252519081900360200190f35b610299610773565b6101b06004803603604081101561035d57600080fd5b506001600160a01b038135169060200135610777565b6102e96004803603604081101561038957600080fd5b506001600160a01b0381351690602001356107b3565b6102e9600480360360608110156103b557600080fd5b506001600160a01b038135811691602081013590911690604001356106e6565b6102e9600480360360408110156103eb57600080fd5b506001600160a01b0381351690602001356107c1565b6102e96004803603604081101561041757600080fd5b506001600160a01b0381351690602001356107c9565b610299600480360360a081101561044357600080fd5b506001600160a01b038135811691602081013590911690604081013590606081013590608001356107d3565b6101cc61089c565b6102756108b7565b6102996004803603602081101561049557600080fd5b50356001600160a01b03166108db565b610299600480360360208110156104bb57600080fd5b50356001600160a01b03166108f6565b610275600480360360808110156104e157600080fd5b5080359060ff6020820135169060408101359060600135610911565b6101cc61097d565b6102e96004803603604081101561051b57600080fd5b506001600160a01b03813516906020013561099b565b6101b06004803603604081101561054757600080fd5b506001600160a01b0381351690602001356109a3565b6101b06004803603604081101561057357600080fd5b506001600160a01b0381351690602001356109f8565b610275610a0e565b6102e9600480360360608110156105a757600080fd5b506001600160a01b03813581169160208101359091169060400135610a32565b6102e9600480360360e08110156105dd57600080fd5b506001600160a01b03813581169160208101359091169060408101359060608101359060ff6080820135169060a08101359060c00135610a3a565b6102996004803603604081101561062e57600080fd5b506001600160a01b0381358116916020013516610c1f565b610299610c4a565b600061065b848484610d14565b9392505050565b60408051808201909152600f81526e2aa9a2299029ba30b13632b1b7b4b760891b60208201525b90565b6000610699338484610d14565b50600192915050565b7f000000000000000000000000000000000000000000000000000000000000000081565b6000805160206116a583398151915290565b60005490565b6106e6610d96565b6106f1838383610e32565b505050565b600061070183610f14565b61070c848484610e32565b610764843361075f85604051806060016040528060288152602001611632602891396001600160a01b038a166000908152600360209081526040808320338452909152902054919063ffffffff61106016565b610d14565b5060019392505050565b601290565b4690565b3360008181526003602090815260408083206001600160a01b0387168452909152812054909161069991859061075f908663ffffffff6110f716565b6107bd828261114f565b5050565b6107c9611205565b6107bd828261126c565b60006119016107e0610c4a565b604080517f00000000000000000000000000000000000000000000000000000000000000006020808301919091526001600160a01b03808c16838501528a1660608301526080820189905260a0820188905260c08083018890528351808403909101815260e0830184528051908201206001600160f01b031960f09690961b9590951661010083015261010282019390935261012280820194909452815180820390940184526101420190528151910120905095945050505050565b6040805180820190915260018152603160f81b602082015290565b7f000000000000000000000000000000000000000000000000000000000000000081565b6001600160a01b031660009081526002602052604090205490565b6001600160a01b031660009081526001602052604090205490565b604080516000808252602080830180855288905260ff87168385015260608301869052608083018590529251909260019260a080820193601f1981019281900390910190855afa158015610969573d6000803e3d6000fd5b5050604051601f1901519695505050505050565b6040805180820190915260048152635553445360e01b602082015290565b6107b3611300565b6000610699338461075f856040518060600160405280602581526020016116fb602591393360009081526003602090815260408083206001600160a01b038d168452909152902054919063ffffffff61106016565b6000610a0383610f14565b610699338484610e32565b7f000000000000000000000000000000000000000000000000000000000000000081565b6106e66113cd565b42841015610a88576040805162461bcd60e51b8152602060048201526016602482015275555344533a206578706972656420646561646c696e6560501b604482015290519081900360640190fd5b6000610a92610c4a565b6001600160a01b03808a166000818152600160208181526040808420805480850190915581516000805160206116a58339815191528185015280830196909652958e166060860152608085018d905260a085019590955260c08085018c90528551808603909101815260e08501865280519082012061190160f01b6101008601526101028501969096526101228085019690965284518085039096018652610142840180865286519682019690962095839052610162840180865286905260ff8a166101828501526101a284018990526101c284018890529351949550909390926101e2808401939192601f1981019281900390910190855afa158015610b9d573d6000803e3d6000fd5b505050602060405103519050886001600160a01b0316816001600160a01b031614610c09576040805162461bcd60e51b8152602060048201526017602482015276555344533a20696e76616c6964207369676e617475726560481b604482015290519081900360640190fd5b610c14898989610d14565b505050505050505050565b6001600160a01b03918216600090815260036020908152604080832093909416825291909152205490565b60007f0000000000000000000000000000000000000000000000000000000000000000610c75610773565b1415610ca257507f0000000000000000000000000000000000000000000000000000000000000000610689565b610d0d7f8b73c3c69bb8fe3d512ecc4cf759cc79239f7b179b0ffacaa9a75d522b39400f7f00000000000000000000000000000000000000000000000000000000000000007f0000000000000000000000000000000000000000000000000000000000000000611434565b9050610689565b6001600160a01b038316610d2457fe5b6001600160a01b038216610d3457fe5b6001600160a01b03808416600081815260036020908152604080832094871680845294825291829020859055815185815291517f8c5be1e5ebec7d5bd14f71427d1e84f3dd0314c0f7b2291e5b200ac8c7c3b9259281900390910190a3505050565b336001600160a01b037f0000000000000000000000000000000000000000000000000000000000000000161480610df55750336001600160a01b037f000000000000000000000000000000000000000000000000000000000000000016145b610e305760405162461bcd60e51b81526004018080602001828103825260368152602001806116c56036913960400191505060405180910390fd5b565b6001600160a01b038316610e4257fe5b6001600160a01b038216610e5257fe5b610e9581604051806060016040528060268152602001611590602691396001600160a01b038616600090815260026020526040902054919063ffffffff61106016565b6001600160a01b038085166000908152600260205260408082209390935590841681522054610eca908263ffffffff6110f716565b6001600160a01b03808416600081815260026020908152604091829020949094558051858152905191939287169260008051602061168583398151915292918290030190a3505050565b6001600160a01b03811615801590610f3557506001600160a01b0381163014155b610f705760405162461bcd60e51b81526004018080602001828103825260548152602001806114cd6054913960600191505060405180910390fd5b7f00000000000000000000000000000000000000000000000000000000000000006001600160a01b0316816001600160a01b031614158015610fe457507f00000000000000000000000000000000000000000000000000000000000000006001600160a01b0316816001600160a01b031614155b801561102257507f00000000000000000000000000000000000000000000000000000000000000006001600160a01b0316816001600160a01b031614155b61105d5760405162461bcd60e51b81526004018080602001828103825260578152602001806115db6057913960600191505060405180910390fd5b50565b600081848411156110ef5760405162461bcd60e51b81526004018080602001828103825283818151815260200191508051906020019080838360005b838110156110b457818101518382015260200161109c565b50505050905090810190601f1680156110e15780820380516001836020036101000a031916815260200191505b509250505060405180910390fd5b505050900390565b60008282018381101561065b576040805162461bcd60e51b815260206004820152601b60248201527a536166654d6174683a206164646974696f6e206f766572666c6f7760281b604482015290519081900360640190fd5b6001600160a01b03821661115f57fe5b6111a28160405180606001604052806022815260200161156e602291396001600160a01b038516600090815260026020526040902054919063ffffffff61106016565b6001600160a01b038316600090815260026020526040812091909155546111cf908263ffffffff61148a16565b60009081556040805183815290516001600160a01b03851691600080516020611685833981519152919081900360200190a35050565b336001600160a01b037f00000000000000000000000000000000000000000000000000000000000000001614610e305760405162461bcd60e51b815260040180806020018281038252602b81526020018061165a602b913960400191505060405180910390fd5b6001600160a01b03821661127c57fe5b60005461128f908263ffffffff6110f716565b60009081556001600160a01b0383168152600260205260409020546112ba908263ffffffff6110f716565b6001600160a01b03831660008181526002602090815260408083209490945583518581529351929391926000805160206116858339815191529281900390910190a35050565b336001600160a01b037f000000000000000000000000000000000000000000000000000000000000000016148061135f5750336001600160a01b037f000000000000000000000000000000000000000000000000000000000000000016145b806113925750336001600160a01b037f000000000000000000000000000000000000000000000000000000000000000016145b610e305760405162461bcd60e51b815260040180806020018281038252604d815260200180611521604d913960600191505060405180910390fd5b336001600160a01b037f00000000000000000000000000000000000000000000000000000000000000001614610e305760405162461bcd60e51b81526004018080602001828103825260258152602001806115b66025913960400191505060405180910390fd5b6000838383611441610773565b6040805160208082019690965280820194909452606084019290925260808301523060a0808401919091528151808403909101815260c090920190528051910120949350505050565b600061065b83836040518060400160405280601e81526020017f536166654d6174683a207375627472616374696f6e206f766572666c6f77000081525061106056fe555344533a2043616e6e6f74207472616e7366657220746f6b656e73206469726563746c7920746f20746865205553445320746f6b656e20636f6e7472616374206f7220746865207a65726f2061646472657373555344533a2043616c6c6572206973206e65697468657220426f72726f7765724f7065726174696f6e73206e6f722054726f76654d616e61676572206e6f722053746162696c697479506f6f6c45524332303a206275726e20616d6f756e7420657863656564732062616c616e636545524332303a207472616e7366657220616d6f756e7420657863656564732062616c616e6365555344533a2043616c6c6572206973206e6f74207468652053746162696c697479506f6f6c555344533a2043616e6e6f74207472616e7366657220746f6b656e73206469726563746c7920746f207468652053746162696c697479506f6f6c2c2054726f76654d616e61676572206f7220426f72726f7765724f707345524332303a207472616e7366657220616d6f756e74206578636565647320616c6c6f77616e636555534453546f6b656e3a2043616c6c6572206973206e6f7420426f72726f7765724f7065726174696f6e73ddf252ad1be2c89b69c2b068fc378daa952ba7f163c4a11628f55a4df523b3ef6e71edae12b1b97f4d1f60370fef10105fa2faae0126114a169c64845d6126c9555344533a2043616c6c6572206973206e6569746865722054726f76654d616e61676572206e6f722053746162696c697479506f6f6c45524332303a2064656372656173656420616c6c6f77616e63652062656c6f77207a65726fa164736f6c634300060b000a","linkReferences":{}},"methodIdentifiers":{"allowance(address,address)":"dd62ed3e","approve(address,uint256)":"095ea7b3","balanceOf(address)":"70a08231","borrowerOperationsAddress()":"b7f8cf9b","burn(address,uint256)":"9dc29fac","callInternalApprove(address,address,uint256)":"03d99946","decimals()":"313ce567","decreaseAllowance(address,uint256)":"a457c2d7","domainSeparator()":"f698da25","getChainId()":"3408e470","getDigest(address,address,uint256,uint256,uint256)":"519e2cee","increaseAllowance(address,uint256)":"39509351","mint(address,uint256)":"40c10f19","name()":"06fdde03","nonces(address)":"7ecebe00","permit(address,address,uint256,uint256,uint8,bytes32,bytes32)":"d505accf","permitTypeHash()":"10ce43bd","recoverAddress(bytes32,uint8,bytes32,bytes32)":"8428cf83","returnFromPool(address,address,uint256)":"20c582be","sendToPool(address,address,uint256)":"bb997bac","stabilityPoolAddress()":"0b622ab2","symbol()":"95d89b41","totalSupply()":"18160ddd","transfer(address,uint256)":"a9059cbb","transferFrom(address,address,uint256)":"23b872dd","troveManagerAddress()":"5a4d28bb","unprotectedBurn(address,uint256)":"3ab60582","unprotectedMint(address,uint256)":"5099f99f","unprotectedReturnFromPool(address,address,uint256)":"b655c276","unprotectedSendToPool(address,address,uint256)":"3dc2ea6d","version()":"54fd4d50"},"id":97}