{"abi":[{"type":"receive","stateMutability":"payable"},{"type":"function","name":"DECIMAL_PRECISION","inputs":[],"outputs":[{"name":"","type":"uint256","internalType":"uint256"}],"stateMutability":"view"},{"type":"function","name":"NAME","inputs":[],"outputs":[{"name":"","type":"string","internalType":"string"}],"stateMutability":"view"},{"type":"function","name":"PERCENT_DIVISOR","inputs":[],"outputs":[{"name":"","type":"uint256","internalType":"uint256"}],"stateMutability":"view"},{"type":"function","name":"_100pct","inputs":[],"outputs":[{"name":"","type":"uint256","internalType":"uint256"}],"stateMutability":"view"},{"type":"function","name":"activePool","inputs":[],"outputs":[{"name":"","type":"address","internalType":"contract IActivePool"}],"stateMutability":"view"},{"type":"function","name":"addColl","inputs":[{"name":"_upperHint","type":"address","internalType":"address"},{"name":"_lowerHint","type":"address","internalType":"address"},{"name":"priceFeedUpdateData","type":"bytes[]","internalType":"bytes[]"}],"outputs":[],"stateMutability":"payable"},{"type":"function","name":"adjustTrove","inputs":[{"name":"adjustParam","type":"tuple","internalType":"struct IBorrowerOperations.AdjustTroveParam","components":[{"name":"collWithdrawal","type":"uint256","internalType":"uint256"},{"name":"USDSChange","type":"uint256","internalType":"uint256"},{"name":"isDebtIncrease","type":"bool","internalType":"bool"},{"name":"upperHint","type":"address","internalType":"address"},{"name":"lowerHint","type":"address","internalType":"address"},{"name":"maxFeePercentage","type":"uint256","internalType":"uint256"}]},{"name":"priceFeedUpdateData","type":"bytes[]","internalType":"bytes[]"}],"outputs":[],"stateMutability":"payable"},{"type":"function","name":"callInternalAdjustLoan","inputs":[{"name":"_borrower","type":"address","internalType":"address"},{"name":"_collWithdrawal","type":"uint256","internalType":"uint256"},{"name":"_debtChange","type":"uint256","internalType":"uint256"},{"name":"_isDebtIncrease","type":"bool","internalType":"bool"},{"name":"_upperHint","type":"address","internalType":"address"},{"name":"_lowerHint","type":"address","internalType":"address"},{"name":"priceFeedUpdateData","type":"bytes[]","internalType":"bytes[]"}],"outputs":[],"stateMutability":"payable"},{"type":"function","name":"claimCollateral","inputs":[],"outputs":[],"stateMutability":"nonpayable"},{"type":"function","name":"closeTrove","inputs":[{"name":"priceFeedUpdateData","type":"bytes[]","internalType":"bytes[]"}],"outputs":[],"stateMutability":"nonpayable"},{"type":"function","name":"defaultPool","inputs":[],"outputs":[{"name":"","type":"address","internalType":"contract IDefaultPool"}],"stateMutability":"view"},{"type":"function","name":"getCompositeDebt","inputs":[{"name":"_debt","type":"uint256","internalType":"uint256"}],"outputs":[{"name":"","type":"uint256","internalType":"uint256"}],"stateMutability":"view"},{"type":"function","name":"getEntireSystemColl","inputs":[],"outputs":[{"name":"entireSystemColl","type":"uint256","internalType":"uint256"}],"stateMutability":"view"},{"type":"function","name":"getEntireSystemDebt","inputs":[],"outputs":[{"name":"entireSystemDebt","type":"uint256","internalType":"uint256"}],"stateMutability":"view"},{"type":"function","name":"getNewICRFromTroveChange","inputs":[{"name":"_coll","type":"uint256","internalType":"uint256"},{"name":"_debt","type":"uint256","internalType":"uint256"},{"name":"_collChange","type":"uint256","internalType":"uint256"},{"name":"isCollIncrease","type":"bool","internalType":"bool"},{"name":"_debtChange","type":"uint256","internalType":"uint256"},{"name":"isDebtIncrease","type":"bool","internalType":"bool"},{"name":"_price","type":"uint256","internalType":"uint256"}],"outputs":[{"name":"","type":"uint256","internalType":"uint256"}],"stateMutability":"pure"},{"type":"function","name":"getNewTCRFromTroveChange","inputs":[{"name":"_collChange","type":"uint256","internalType":"uint256"},{"name":"isCollIncrease","type":"bool","internalType":"bool"},{"name":"_debtChange","type":"uint256","internalType":"uint256"},{"name":"isDebtIncrease","type":"bool","internalType":"bool"},{"name":"_price","type":"uint256","internalType":"uint256"}],"outputs":[{"name":"","type":"uint256","internalType":"uint256"}],"stateMutability":"view"},{"type":"function","name":"getUSDValue","inputs":[{"name":"_coll","type":"uint256","internalType":"uint256"},{"name":"_price","type":"uint256","internalType":"uint256"}],"outputs":[{"name":"","type":"uint256","internalType":"uint256"}],"stateMutability":"pure"},{"type":"function","name":"isOwner","inputs":[],"outputs":[{"name":"","type":"bool","internalType":"bool"}],"stateMutability":"view"},{"type":"function","name":"moveBNBGainToTrove","inputs":[{"name":"_borrower","type":"address","internalType":"address"},{"name":"_upperHint","type":"address","internalType":"address"},{"name":"_lowerHint","type":"address","internalType":"address"},{"name":"priceFeedUpdateData","type":"bytes[]","internalType":"bytes[]"}],"outputs":[],"stateMutability":"payable"},{"type":"function","name":"openTrove","inputs":[{"name":"_maxFeePercentage","type":"uint256","internalType":"uint256"},{"name":"_USDSAmount","type":"uint256","internalType":"uint256"},{"name":"_upperHint","type":"address","internalType":"address"},{"name":"_lowerHint","type":"address","internalType":"address"},{"name":"priceFeedUpdateData","type":"bytes[]","internalType":"bytes[]"}],"outputs":[],"stateMutability":"payable"},{"type":"function","name":"oracleRateCalc","inputs":[],"outputs":[{"name":"","type":"address","internalType":"contract IOracleRateCalculation"}],"stateMutability":"view"},{"type":"function","name":"owner","inputs":[],"outputs":[{"name":"","type":"address","internalType":"address"}],"stateMutability":"view"},{"type":"function","name":"priceFeed","inputs":[],"outputs":[{"name":"","type":"address","internalType":"contract IPriceFeed"}],"stateMutability":"view"},{"type":"function","name":"repayUSDS","inputs":[{"name":"_USDSAmount","type":"uint256","internalType":"uint256"},{"name":"_upperHint","type":"address","internalType":"address"},{"name":"_lowerHint","type":"address","internalType":"address"},{"name":"priceFeedUpdateData","type":"bytes[]","internalType":"bytes[]"}],"outputs":[],"stateMutability":"nonpayable"},{"type":"function","name":"sableStaking","inputs":[],"outputs":[{"name":"","type":"address","internalType":"contract ISableStakingV2"}],"stateMutability":"view"},{"type":"function","name":"sableStakingAddress","inputs":[],"outputs":[{"name":"","type":"address","internalType":"address"}],"stateMutability":"view"},{"type":"function","name":"setAddresses","inputs":[{"name":"param","type":"tuple","internalType":"struct IBorrowerOperations.DependencyAddressParam","components":[{"name":"troveManagerAddress","type":"address","internalType":"address"},{"name":"activePoolAddress","type":"address","internalType":"address"},{"name":"defaultPoolAddress","type":"address","internalType":"address"},{"name":"stabilityPoolAddress","type":"address","internalType":"address"},{"name":"gasPoolAddress","type":"address","internalType":"address"},{"name":"collSurplusPoolAddress","type":"address","internalType":"address"},{"name":"priceFeedAddress","type":"address","internalType":"address"},{"name":"sortedTrovesAddress","type":"address","internalType":"address"},{"name":"usdsTokenAddress","type":"address","internalType":"address"},{"name":"sableStakingAddress","type":"address","internalType":"address"},{"name":"systemStateAddress","type":"address","internalType":"address"},{"name":"oracleRateCalcAddress","type":"address","internalType":"address"}]}],"outputs":[],"stateMutability":"nonpayable"},{"type":"function","name":"sortedTroves","inputs":[],"outputs":[{"name":"","type":"address","internalType":"contract ISortedTroves"}],"stateMutability":"view"},{"type":"function","name":"systemState","inputs":[],"outputs":[{"name":"","type":"address","internalType":"contract ISystemState"}],"stateMutability":"view"},{"type":"function","name":"timeLock","inputs":[],"outputs":[{"name":"","type":"address","internalType":"address"}],"stateMutability":"view"},{"type":"function","name":"troveManager","inputs":[],"outputs":[{"name":"","type":"address","internalType":"contract ITroveManager"}],"stateMutability":"view"},{"type":"function","name":"usdsToken","inputs":[],"outputs":[{"name":"","type":"address","internalType":"contract IUSDSToken"}],"stateMutability":"view"},{"type":"function","name":"withdrawColl","inputs":[{"name":"_collWithdrawal","type":"uint256","internalType":"uint256"},{"name":"_upperHint","type":"address","internalType":"address"},{"name":"_lowerHint","type":"address","internalType":"address"},{"name":"priceFeedUpdateData","type":"bytes[]","internalType":"bytes[]"}],"outputs":[],"stateMutability":"nonpayable"},{"type":"function","name":"withdrawUSDS","inputs":[{"name":"_maxFeePercentage","type":"uint256","internalType":"uint256"},{"name":"_USDSAmount","type":"uint256","internalType":"uint256"},{"name":"_upperHint","type":"address","internalType":"address"},{"name":"_lowerHint","type":"address","internalType":"address"},{"name":"priceFeedUpdateData","type":"bytes[]","internalType":"bytes[]"}],"outputs":[],"stateMutability":"nonpayable"},{"type":"event","name":"ActivePoolAddressChanged","inputs":[{"name":"_activePoolAddress","type":"address","indexed":false,"internalType":"address"}],"anonymous":false},{"type":"event","name":"CollSurplusPoolAddressChanged","inputs":[{"name":"_collSurplusPoolAddress","type":"address","indexed":false,"internalType":"address"}],"anonymous":false},{"type":"event","name":"DefaultPoolAddressChanged","inputs":[{"name":"_defaultPoolAddress","type":"address","indexed":false,"internalType":"address"}],"anonymous":false},{"type":"event","name":"GasPoolAddressChanged","inputs":[{"name":"_gasPoolAddress","type":"address","indexed":false,"internalType":"address"}],"anonymous":false},{"type":"event","name":"OracleRateCalcAddressChanged","inputs":[{"name":"_oracleRateCalcAddress","type":"address","indexed":false,"internalType":"address"}],"anonymous":false},{"type":"event","name":"OwnershipTransferred","inputs":[{"name":"previousOwner","type":"address","indexed":true,"internalType":"address"},{"name":"newOwner","type":"address","indexed":true,"internalType":"address"}],"anonymous":false},{"type":"event","name":"PriceFeedAddressChanged","inputs":[{"name":"_newPriceFeedAddress","type":"address","indexed":false,"internalType":"address"}],"anonymous":false},{"type":"event","name":"SableStakingAddressChanged","inputs":[{"name":"_sableStakingAddress","type":"address","indexed":false,"internalType":"address"}],"anonymous":false},{"type":"event","name":"SortedTrovesAddressChanged","inputs":[{"name":"_sortedTrovesAddress","type":"address","indexed":false,"internalType":"address"}],"anonymous":false},{"type":"event","name":"StabilityPoolAddressChanged","inputs":[{"name":"_stabilityPoolAddress","type":"address","indexed":false,"internalType":"address"}],"anonymous":false},{"type":"event","name":"SystemStateAddressChanged","inputs":[{"name":"_systemStateAddress","type":"address","indexed":false,"internalType":"address"}],"anonymous":false},{"type":"event","name":"TroveCreated","inputs":[{"name":"_borrower","type":"address","indexed":true,"internalType":"address"},{"name":"arrayIndex","type":"uint256","indexed":false,"internalType":"uint256"}],"anonymous":false},{"type":"event","name":"TroveManagerAddressChanged","inputs":[{"name":"_newTroveManagerAddress","type":"address","indexed":false,"internalType":"address"}],"anonymous":false},{"type":"event","name":"TroveUpdated","inputs":[{"name":"_borrower","type":"address","indexed":true,"internalType":"address"},{"name":"_debt","type":"uint256","indexed":false,"internalType":"uint256"},{"name":"_coll","type":"uint256","indexed":false,"internalType":"uint256"},{"name":"stake","type":"uint256","indexed":false,"internalType":"uint256"},{"name":"operation","type":"uint8","indexed":false,"internalType":"enum BorrowerOperations.BorrowerOperation"}],"anonymous":false},{"type":"event","name":"USDSBorrowingFeePaid","inputs":[{"name":"_borrower","type":"address","indexed":true,"internalType":"address"},{"name":"_USDSFee","type":"uint256","indexed":false,"internalType":"uint256"}],"anonymous":false},{"type":"event","name":"USDSTokenAddressChanged","inputs":[{"name":"_usdsTokenAddress","type":"address","indexed":false,"internalType":"address"}],"anonymous":false}],"bytecode":{"object":"0x608060405234801561001057600080fd5b50600580546001600160a01b031916339081179091556040516000907f8be0079c531659141344cd1fd0a4f28419497f9722a3daafe3b4186f6b6457e0908290a3614c7c806100606000396000f3fe60806040526004361061018d5760003560e01c80631453558b146101995780631e503ead146101bb5780632322cd68146101ce57806337ddc0af146101ee5780633cc74225146102015780633d83908a1461022c5780634870dd9a146102415780634ff814431461026357806351584ca414610283578063516f507e146102a35780636f0b0c1c146102b65780636f30d212146102cb57806372fe25aa146102eb578063739987d714610300578063741bef1a14610313578063795d26c3146103285780637f7dde4a1461033d57806387eb305d14610352578063887105d3146103725780638d0a3b08146103875780638da5cb5b1461039c5780638f32d59b146103b1578063991292e3146103d3578063a20baee6146102eb578063a3f4df7e146103e8578063ae9187541461040a578063b120dbd41461041f578063d085835a1461043f578063ddc7aed414610454578063df9bf27a14610469578063e129d8e014610489578063f1f309741461049c578063f80911de146104bc578063f8f8d174146104d157610194565b3661019457005b600080fd5b3480156101a557600080fd5b506101b96101b4366004613fac565b6104e6565b005b6101b96101c9366004613dc4565b61098c565b3480156101da57600080fd5b506101b96101e9366004614127565b6109ee565b6101b96101fc366004613d4e565b610a50565b34801561020d57600080fd5b50610216610ab3565b60405161022391906142de565b60405180910390f35b34801561023857600080fd5b50610216610ac2565b34801561024d57600080fd5b50610256610ad1565b6040516102239190614baf565b34801561026f57600080fd5b5061025661027e3660046140f7565b610ad6565b34801561028f57600080fd5b5061025661029e366004614249565b610ae7565b6101b96102b1366004613e24565b610b40565b3480156102c257600080fd5b506101b9610ba3565b3480156102d757600080fd5b506102566102e63660046141b1565b610c07565b3480156102f757600080fd5b50610256610c1a565b6101b961030e366004613efe565b610c26565b34801561031f57600080fd5b50610216610c37565b34801561033457600080fd5b50610256610c46565b34801561034957600080fd5b50610216610d72565b34801561035e57600080fd5b5061025661036d366004614160565b610d81565b34801561037e57600080fd5b50610256610d9a565b34801561039357600080fd5b50610216610e75565b3480156103a857600080fd5b50610216610e84565b3480156103bd57600080fd5b506103c6610e93565b60405161022391906143a1565b3480156103df57600080fd5b50610216610ea4565b3480156103f457600080fd5b506103fd610eb3565b60405161022391906143f0565b34801561041657600080fd5b50610216610ee1565b34801561042b57600080fd5b506101b961043a3660046141d2565b610ef0565b34801561044b57600080fd5b50610216610f52565b34801561046057600080fd5b50610216610f61565b34801561047557600080fd5b506101b9610484366004613ebf565b610f70565b6101b96104973660046141d2565b61140c565b3480156104a857600080fd5b506101b96104b7366004614127565b611c1b565b3480156104c857600080fd5b50610216611c75565b3480156104dd57600080fd5b50610216611c84565b6104ee610e93565b6105135760405162461bcd60e51b815260040161050a9061477e565b60405180910390fd5b805161051e90611c93565b61052b8160200151611c93565b6105388160400151611c93565b6105458160600151611c93565b6105528160800151611c93565b61055f8160a00151611c93565b61056c8160c00151611c93565b6105798160e00151611c93565b610587816101000151611c93565b610595816101200151611c93565b6105a3816101400151611c93565b6105b1816101600151611c93565b8051600680546001600160a01b03199081166001600160a01b038085169190911790925560208401516001805483169184169190911790556040808501516002805484169185169190911790556060850151600780548416918516919091179055608085015160088054841691851691909117905560a085015160098054841691851691909117905560c085015160038054841691851691909117905560e0850151600d80548416918516919091179055610100850151600c80548416918516919091179055610120850151600b805484169185169182179055600a805484169091179055610140850151600480548416918516919091179055610160850151600e80549093169316929092179055517f143219c9e69b09e07e095fcc889b43d8f46ca892bba65f08dc3a0050869a5678916106ec916142de565b60405180910390a17f78f058b189175430c48dc02699e3a0031ea4ff781536dc2fab847de4babdd882816020015160405161072791906142de565b60405180910390a17f5ee0cae2f063ed938bb55046f6a932fb6ae792bf43624806bb90abe68a50be9b816040015160405161076291906142de565b60405180910390a17f82966d27eea39b038ee0fa30cd16532bb24f6e65d31cb58fb227aa5766cdcc7f816060015160405161079d91906142de565b60405180910390a17fcfb07d791fcafc032b35837b50eb84b74df518cf4cc287e8084f47630fa70fa081608001516040516107d891906142de565b60405180910390a17fe67f36a6e961157d6eff83b91f3af5a62131ceb6f04954ef74f51c1c05e7f88d8160a0015160405161081391906142de565b60405180910390a17f8c537274438aa850a330284665d81a85dd38267d09e4050d416bfc94142db2648160c0015160405161084e91906142de565b60405180910390a17f65f4cf077bc01e4742eb5ad98326f6e95b63548ea24b17f8d5e823111fe788008160e0015160405161088991906142de565b60405180910390a17f77b26272f42e99a3561f9dadc496d25589af0c1ebb03221e752e439015dd0d638161010001516040516108c591906142de565b60405180910390a17f7513090f9b121ce0ada75a9c446a622ad2f631ddbd6be9f1a753aa095e10a69681610120015160405161090191906142de565b60405180910390a17f496a1a8082b26acb3aeec16a7ecb48e279f82c31f09bfa4e08cb69ce93fea7fe81610140015160405161093d91906142de565b60405180910390a17ff9c6398cf1617ed6d94f43e8fb4caac4ae85382533b5ac08ec1b8d04139fe2c881610160015160405161097991906142de565b60405180910390a1610989611cdc565b50565b610994613a01565b6040518060c001604052806000815260200160008152602001600015158152602001866001600160a01b03168152602001856001600160a01b03168152602001600081525090506109e733828585611d26565b5050505050565b6109f6613a01565b6040518060c0016040528060008152602001878152602001600015158152602001866001600160a01b03168152602001856001600160a01b0316815260200160008152509050610a4833828585611d26565b505050505050565b610a586125a0565b610a60613a01565b6040518060c001604052806000815260200160008152602001600015158152602001866001600160a01b03168152602001856001600160a01b0316815260200160008152509050610a4886828585611d26565b6002546001600160a01b031681565b6006546001600160a01b031681565b60c881565b6000610ae1826125cc565b92915050565b6000610af1613a4b565b6040518060e001604052808a815260200189815260200188815260200187151581526020018681526020018515158152602001848152509050610b338161265a565b9998505050505050505050565b610b48613a01565b6040518060c001604052808981526020018881526020018715158152602001866001600160a01b03168152602001856001600160a01b0316815260200160008152509050610b9889828585611d26565b505050505050505050565b60095460405163b32beb5b60e01b81526001600160a01b039091169063b32beb5b90610bd39033906004016142de565b600060405180830381600087803b158015610bed57600080fd5b505af1158015610c01573d6000803e3d6000fd5b50505050565b6000610c1383836126a3565b9392505050565b670de0b6b3a764000081565b610c3233848484611d26565b505050565b6003546001600160a01b031681565b600080600160009054906101000a90046001600160a01b03166001600160a01b0316635227d6a86040518163ffffffff1660e01b815260040160206040518083038186803b158015610c9757600080fd5b505afa158015610cab573d6000803e3d6000fd5b505050506040513d601f19601f82011682018060405250810190610ccf919061410f565b90506000600260009054906101000a90046001600160a01b03166001600160a01b0316635227d6a86040518163ffffffff1660e01b815260040160206040518083038186803b158015610d2157600080fd5b505afa158015610d35573d6000803e3d6000fd5b505050506040513d601f19601f82011682018060405250810190610d59919061410f565b9050610d6b828263ffffffff6126d616565b9250505090565b6001546001600160a01b031681565b6000610d9086868686866126fb565b9695505050505050565b600080600160009054906101000a90046001600160a01b03166001600160a01b03166378a619de6040518163ffffffff1660e01b815260040160206040518083038186803b158015610deb57600080fd5b505afa158015610dff573d6000803e3d6000fd5b505050506040513d601f19601f82011682018060405250810190610e23919061410f565b90506000600260009054906101000a90046001600160a01b03166001600160a01b03166378a619de6040518163ffffffff1660e01b815260040160206040518083038186803b158015610d2157600080fd5b600b546001600160a01b031681565b6005546001600160a01b031690565b6005546001600160a01b0316331490565b6004546001600160a01b031681565b60405180604001604052806012815260200171426f72726f7765724f7065726174696f6e7360701b81525081565b600d546001600160a01b031681565b610ef8613a01565b6040518060c0016040528060008152602001878152602001600115158152602001866001600160a01b03168152602001856001600160a01b03168152602001888152509050610f4933828585611d26565b50505050505050565b6000546001600160a01b031681565b600e546001600160a01b031681565b600654600154600c546001600160a01b03928316929182169116610f92613a8c565b50604080518082019091526001600160a01b0384168152336020820152610fb881612779565b610fc0613aa3565b600354604051634e15f2a560e01b81526001600160a01b0390911690634e15f2a590610ff2908a908a9060040161430b565b608060405180830381600087803b15801561100c57600080fd5b505af1158015611020573d6000803e3d6000fd5b505050506040513d601f19601f8201168201806040525081019061104491906140b0565b9050611053816000015161281f565b604051630b07655760e01b81526001600160a01b03861690630b0765579061107f9033906004016142de565b600060405180830381600087803b15801561109957600080fd5b505af11580156110ad573d6000803e3d6000fd5b50506040516309019aaf60e31b8152600092506001600160a01b038816915063480cd578906110e09033906004016142de565b60206040518083038186803b1580156110f857600080fd5b505afa15801561110c573d6000803e3d6000fd5b505050506040513d601f19601f82011682018060405250810190611130919061410f565b90506000866001600160a01b031663d66a2553336040518263ffffffff1660e01b815260040161116091906142de565b60206040518083038186803b15801561117857600080fd5b505afa15801561118c573d6000803e3d6000fd5b505050506040513d601f19601f820116820180604052508101906111b0919061410f565b90506000600460009054906101000a90046001600160a01b03166001600160a01b0316631549b76d6040518163ffffffff1660e01b815260040160206040518083038186803b15801561120257600080fd5b505afa158015611216573d6000803e3d6000fd5b505050506040513d601f19601f8201168201806040525081019061123a919061410f565b90506112568633611251858563ffffffff61284516565b612887565b600061126b84600085600089600001516126fb565b905061127681612923565b604051631fc5750960e31b81526001600160a01b038a169063fe2ba848906112a29033906004016142de565b600060405180830381600087803b1580156112bc57600080fd5b505af11580156112d0573d6000803e3d6000fd5b50506040516365e89c5760e11b81526001600160a01b038c16925063cbd138ae91506113009033906004016142de565b600060405180830381600087803b15801561131a57600080fd5b505af115801561132e573d6000803e3d6000fd5b50505050336001600160a01b0316600080516020614c308339815191526000806000600160405161136294939291906143c2565b60405180910390a2611385888833611380878763ffffffff61284516565b6129cd565b60085461139f90899089906001600160a01b0316856129cd565b604051630a569c3760e41b81526001600160a01b0389169063a569c370906113cd90339088906004016142f2565b600060405180830381600087803b1580156113e757600080fd5b505af11580156113fb573d6000803e3d6000fd5b505050505050505050505050505050565b611414613ace565b50604080516060810182526006546001600160a01b03908116825260015481166020830152600c54169181019190915261144c613aee565b611454613aa3565b600354604051634e15f2a560e01b81526001600160a01b0390911690634e15f2a590611486908890889060040161430b565b608060405180830381600087803b1580156114a057600080fd5b505af11580156114b4573d6000803e3d6000fd5b505050506040513d601f19601f820116820180604052508101906114d891906140b0565b80518352600e54602082015160408084015160608501519151631ba21c6b60e11b81529495506000946001600160a01b039094169363374438d693611522939092916004016143ac565b60206040518083038186803b15801561153a57600080fd5b505afa15801561154e573d6000803e3d6000fd5b505050506040513d601f19601f82011682018060405250810190611572919061410f565b905060006115838460000151612a91565b905061158f8b82612b31565b845161159b9033612c22565b604084018a90526115aa613b33565b6040518060a0016040528087600001516001600160a01b0316815260200187604001516001600160a01b031681526020018c81526020018d81526020018481525090508161161c576115fb81612cc4565b6020860181905260408601516116169163ffffffff6126d616565b60408601525b6116298560400151612e8f565b61163685604001516125cc565b6060860181905261164357fe5b60608501518551349161165891839190612f39565b6080870152606086015161166d908290612f6b565b60a0870152821561168a576116858660800151612fa0565b6116bd565b611697866080015161304a565b60006116b0826001896060015160018b600001516126fb565b90506116bb81612923565b505b8651604051635d6b480f60e01b81526001600160a01b0390911690635d6b480f906116ef9033906001906004016142f2565b600060405180830381600087803b15801561170957600080fd5b505af115801561171d573d6000803e3d6000fd5b505088516040516372423c1760e01b81526001600160a01b0390911692506372423c17915061175290339085906004016142f2565b602060405180830381600087803b15801561176c57600080fd5b505af1158015611780573d6000803e3d6000fd5b505050506040513d601f19601f820116820180604052508101906117a4919061410f565b5086516060870151604051639976cf4560e01b81526001600160a01b0390921691639976cf45916117da913391906004016142f2565b602060405180830381600087803b1580156117f457600080fd5b505af1158015611808573d6000803e3d6000fd5b505050506040513d601f19601f8201168201806040525081019061182c919061410f565b5086516040516382fe3eb960e01b81526001600160a01b03909116906382fe3eb99061185c9033906004016142de565b600060405180830381600087803b15801561187657600080fd5b505af115801561188a573d6000803e3d6000fd5b50508851604051630c7940bd60e11b81526001600160a01b0390911692506318f2817a91506118bd9033906004016142de565b602060405180830381600087803b1580156118d757600080fd5b505af11580156118eb573d6000803e3d6000fd5b505050506040513d601f19601f8201168201806040525081019061190f919061410f565b60c087015261191c613b74565b506040805160808101825233815260a088015160208201526001600160a01b038d8116828401528c81166060830152600d549251638c2d33eb60e01b815291921690638c2d33eb90611972908490600401614b76565b600060405180830381600087803b15801561198c57600080fd5b505af11580156119a0573d6000803e3d6000fd5b505089516040516315d549f160e01b81526001600160a01b0390911692506315d549f191506119d39033906004016142de565b602060405180830381600087803b1580156119ed57600080fd5b505af1158015611a01573d6000803e3d6000fd5b505050506040513d601f19601f82011682018060405250810190611a25919061410f565b60e0880181905260405133917f59cfd0cd754bc5748b6770e94a4ffa5f678d885cb899dcfadc5734edb97c67ab91611a5d9190614baf565b60405180910390a250611a748760200151826130f4565b611a7c613b9b565b506040805160a0810182526020808a01516001600160a01b0390811683528a84015116908201523381830152606081018e9052908701516080820152611ac181613170565b6000600460009054906101000a90046001600160a01b03166001600160a01b0316631549b76d6040518163ffffffff1660e01b815260040160206040518083038186803b158015611b1157600080fd5b505afa158015611b25573d6000803e3d6000fd5b505050506040513d601f19601f82011682018060405250810190611b49919061410f565b9050611b53613b9b565b506040805160a0810182526020808c01516001600160a01b0390811683528c84015181169183019190915260085416918101919091526060810182905260808101829052611ba081613170565b606089015160c08a01516040513392600080516020614c3083398151915292611bce928991906000906143c2565b60405180910390a2336001600160a01b0316600080516020614c108339815191528a60200151604051611c019190614baf565b60405180910390a250505050505050505050505050505050565b611c23613a01565b6040518060c0016040528087815260200160008152602001600015158152602001866001600160a01b03168152602001856001600160a01b0316815260200160008152509050610a4833828585611d26565b600a546001600160a01b031681565b600c546001600160a01b031681565b6001600160a01b038116611cb95760405162461bcd60e51b815260040161050a9061485e565b803b80611cd85760405162461bcd60e51b815260040161050a906149e6565b5050565b6005546040516000916001600160a01b0316907f8be0079c531659141344cd1fd0a4f28419497f9722a3daafe3b4186f6b6457e0908390a3600580546001600160a01b0319169055565b611d2e613ace565b50604080516060810182526006546001600160a01b03908116825260015481166020830152600c541691810191909152611d66613bc9565b611d6e613aa3565b600354604051634e15f2a560e01b81526001600160a01b0390911690634e15f2a590611da0908890889060040161430b565b608060405180830381600087803b158015611dba57600080fd5b505af1158015611dce573d6000803e3d6000fd5b505050506040513d601f19601f82011682018060405250810190611df291906140b0565b80518352600e54602082015160408084015160608501519151631ba21c6b60e11b81529495506000946001600160a01b039094169363374438d693611e3c939092916004016143ac565b60206040518083038186803b158015611e5457600080fd5b505afa158015611e68573d6000803e3d6000fd5b505050506040513d601f19601f82011682018060405250810190611e8c919061410f565b83519091503490600090611e9f90612a91565b9050886040015115611ec657611eb98960a0015182612b31565b611ec6896020015161323c565b8851611ed19061325c565b611ee389600001518a60200151613283565b611eeb613a8c565b506040805180820190915286516001600160a01b0390811682528b166020820152611f1581612779565b336001600160a01b038c161480611f4f57506007546001600160a01b031633148015611f415750600083115b8015611f4f575060208a0151155b611f5557fe5b8651604051630b07655760e01b81526001600160a01b0390911690630b07655790611f84908e906004016142de565b600060405180830381600087803b158015611f9e57600080fd5b505af1158015611fb2573d6000803e3d6000fd5b5050505050611fc5828a600001516132b6565b151560608701526020808701919091528901516040860152611fe5613b33565b6040518060a0016040528088600001516001600160a01b0316815260200188604001516001600160a01b031681526020018b6020015181526020018b60a0015181526020018581525090508960400151801561203f575081155b1561206f5761204d81612cc4565b610120870181905260408701516120699163ffffffff6126d616565b60408701525b865160405163d66a255360e01b81526001600160a01b039091169063d66a25539061209e908e906004016142de565b60206040518083038186803b1580156120b657600080fd5b505afa1580156120ca573d6000803e3d6000fd5b505050506040513d601f19601f820116820180604052508101906120ee919061410f565b608087015286516040516309019aaf60e31b81526001600160a01b039091169063480cd57890612122908e906004016142de565b60206040518083038186803b15801561213a57600080fd5b505afa15801561214e573d6000803e3d6000fd5b505050506040513d601f19601f82011682018060405250810190612172919061410f565b60a087018190526080870151875161218b929190612f39565b60c0870152612198613a4b565b6040518060e001604052808860a0015181526020018860800151815260200188602001518152602001886060015115158152602001886040015181526020018c6040015115158152602001886000015181525090506121f68161265a565b60e088015260a08701518b51111561220a57fe5b61221e838c600001518d604001518a6132d5565b8a60400151158015612234575060008b60200151115b156122875761226261225d88604001516122518a60800151613349565b9063ffffffff61284516565b612e8f565b612274876080015188604001516133d7565b61228788604001518d8960400151612887565b5050612291613c33565b6040518060c0016040528088600001516001600160a01b031681526020018c6001600160a01b0316815260200187602001518152602001876060015115158152602001876040015181526020018b60400151151581525090506122f381613490565b6101408801526101608701528651604051630c7940bd60e11b81526001600160a01b03909116906318f2817a9061232e908e906004016142de565b602060405180830381600087803b15801561234857600080fd5b505af115801561235c573d6000803e3d6000fd5b505050506040513d601f19601f82011682018060405250810190612380919061410f565b6101808701525061238f613c68565b6040518060c001604052808760a0015181526020018760800151815260200187602001518152602001876060015115158152602001876040015181526020018b604001511515815250905060006123e5826136ed565b90506123ef613b74565b60405180608001604052808e6001600160a01b031681526020018381526020018d606001516001600160a01b031681526020018d608001516001600160a01b03168152509050600d60009054906101000a90046001600160a01b03166001600160a01b031663806093b8826040518263ffffffff1660e01b81526004016124769190614b76565b600060405180830381600087803b15801561249057600080fd5b505af11580156124a4573d6000803e3d6000fd5b50505050505050896001600160a01b0316600080516020614c3083398151915286610140015187610160015188610180015160026040516124e894939291906143c2565b60405180910390a2336001600160a01b0316600080516020614c1083398151915286610120015160405161251c9190614baf565b60405180910390a261252c613ca2565b5060408051610100810182526020808901516001600160a01b0390811683528984015116818301526060808901511515838501528c8401511515908301523360808301528781015160a08301528b015160c08201529086015160e082015261259381613728565b5050505050505050505050565b6007546001600160a01b031633146125ca5760405162461bcd60e51b815260040161050a9061499d565b565b6004805460408051631549b76d60e01b8152905160009384936001600160a01b031692631549b76d9281830192602092829003018186803b15801561261057600080fd5b505afa158015612624573d6000803e3d6000fd5b505050506040513d601f19601f82011682018060405250810190612648919061410f565b9050610c13838263ffffffff6126d616565b6000806000612685846000015185602001518660400151876060015188608001518960a00151613817565b91509150600061269a83838760c00151612f39565b95945050505050565b6000806126ce670de0b6b3a76400006126c2858763ffffffff61388316565b9063ffffffff6138bd16565b949350505050565b600082820183811015610c135760405162461bcd60e51b815260040161050a90614443565b600080612706610d9a565b90506000612712610c46565b90508661272e57612729828963ffffffff61284516565b61273e565b61273e828963ffffffff6126d616565b91508461275a57612755818763ffffffff61284516565b61276a565b61276a818763ffffffff6126d616565b90506000610b33838387612f39565b805160208201516040516321e3780160e01b81526000926001600160a01b0316916321e37801916127ad91906004016142de565b60206040518083038186803b1580156127c557600080fd5b505afa1580156127d9573d6000803e3d6000fd5b505050506040513d601f19601f820116820180604052508101906127fd919061410f565b905080600114611cd85760405162461bcd60e51b815260040161050a906147b3565b61282881612a91565b156109895760405162461bcd60e51b815260040161050a906144c8565b6000610c1383836040518060400160405280601e81526020017f536166654d6174683a207375627472616374696f6e206f766572666c6f7700008152506138fc565b6040516370a0823160e01b815281906001600160a01b038516906370a08231906128b59086906004016142de565b60206040518083038186803b1580156128cd57600080fd5b505afa1580156128e1573d6000803e3d6000fd5b505050506040513d601f19601f82011682018060405250810190612905919061410f565b1015610c325760405162461bcd60e51b815260040161050a90614578565b6000600460009054906101000a90046001600160a01b03166001600160a01b031663bb4095226040518163ffffffff1660e01b815260040160206040518083038186803b15801561297357600080fd5b505afa158015612987573d6000803e3d6000fd5b505050506040513d601f19601f820116820180604052508101906129ab919061410f565b905080821015611cd85760405162461bcd60e51b815260040161050a90614721565b604051637d9ee87160e11b81526001600160a01b0385169063fb3dd0e2906129f9908490600401614baf565b600060405180830381600087803b158015612a1357600080fd5b505af1158015612a27573d6000803e3d6000fd5b5050604051632770a7eb60e21b81526001600160a01b0386169250639dc29fac9150612a5990859085906004016142f2565b600060405180830381600087803b158015612a7357600080fd5b505af1158015612a87573d6000803e3d6000fd5b5050505050505050565b600080612a9d83613928565b90506000600460009054906101000a90046001600160a01b03166001600160a01b031663bb4095226040518163ffffffff1660e01b815260040160206040518083038186803b158015612aef57600080fd5b505afa158015612b03573d6000803e3d6000fd5b505050506040513d601f19601f82011682018060405250810190612b27919061410f565b9091109392505050565b8015612b6457670de0b6b3a7640000821115612b5f5760405162461bcd60e51b815260040161050a906145d5565b611cd8565b6000600460009054906101000a90046001600160a01b03166001600160a01b0316635e9e32126040518163ffffffff1660e01b815260040160206040518083038186803b158015612bb457600080fd5b505afa158015612bc8573d6000803e3d6000fd5b505050506040513d601f19601f82011682018060405250810190612bec919061410f565b9050808310158015612c065750670de0b6b3a76400008311155b610c325760405162461bcd60e51b815260040161050a90614a05565b6040516321e3780160e01b81526000906001600160a01b038416906321e3780190612c519085906004016142de565b60206040518083038186803b158015612c6957600080fd5b505afa158015612c7d573d6000803e3d6000fd5b505050506040513d601f19601f82011682018060405250810190612ca1919061410f565b90508060011415610c325760405162461bcd60e51b815260040161050a90614a55565b600081600001516001600160a01b0316635dba4c4a6040518163ffffffff1660e01b8152600401600060405180830381600087803b158015612d0557600080fd5b505af1158015612d19573d6000803e3d6000fd5b5050835160408086015160808701519151632455c4e160e21b8152600095506001600160a01b039093169350639157138492612d589290600401614bb8565b60206040518083038186803b158015612d7057600080fd5b505afa158015612d84573d6000803e3d6000fd5b505050506040513d601f19601f82011682018060405250810190612da8919061410f565b9050612dbd818460400151856060015161394c565b600a54604051637898111760e11b81526001600160a01b039091169063f130222e90612ded908490600401614baf565b600060405180830381600087803b158015612e0757600080fd5b505af1158015612e1b573d6000803e3d6000fd5b5050506020840151600b546040516340c10f1960e01b81526001600160a01b0392831693506340c10f1992612e5692169085906004016142f2565b600060405180830381600087803b158015612e7057600080fd5b505af1158015612e84573d6000803e3d6000fd5b509295945050505050565b6000600460009054906101000a90046001600160a01b03166001600160a01b031663c4dc70d36040518163ffffffff1660e01b815260040160206040518083038186803b158015612edf57600080fd5b505afa158015612ef3573d6000803e3d6000fd5b505050506040513d601f19601f82011682018060405250810190612f17919061410f565b905080821015611cd85760405162461bcd60e51b815260040161050a906148da565b60008215612f60576000612f57846126c2878663ffffffff61388316565b9150610c139050565b506000199392505050565b60008115612f9757612f90826126c28568056bc75e2d6310000063ffffffff61388316565b9050610ae1565b50600019610ae1565b6000600460009054906101000a90046001600160a01b03166001600160a01b031663bb4095226040518163ffffffff1660e01b815260040160206040518083038186803b158015612ff057600080fd5b505afa158015613004573d6000803e3d6000fd5b505050506040513d601f19601f82011682018060405250810190613028919061410f565b905080821015611cd85760405162461bcd60e51b815260040161050a90614521565b6000600460009054906101000a90046001600160a01b03166001600160a01b03166344936b106040518163ffffffff1660e01b815260040160206040518083038186803b15801561309a57600080fd5b505afa1580156130ae573d6000803e3d6000fd5b505050506040513d601f19601f820116820180604052508101906130d2919061410f565b905080821015611cd85760405162461bcd60e51b815260040161050a9061487d565b6000826001600160a01b03168260405161310d906142db565b60006040518083038185875af1925050503d806000811461314a576040519150601f19603f3d011682016040523d82523d6000602084013e61314f565b606091505b5050905080610c325760405162461bcd60e51b815260040161050a90614693565b805160808201516040516333681ca560e21b81526001600160a01b039092169163cda07294916131a291600401614baf565b600060405180830381600087803b1580156131bc57600080fd5b505af11580156131d0573d6000803e3d6000fd5b5050505080602001516001600160a01b03166340c10f19826040015183606001516040518363ffffffff1660e01b815260040161320e9291906142f2565b600060405180830381600087803b15801561322857600080fd5b505af11580156109e7573d6000803e3d6000fd5b600081116109895760405162461bcd60e51b815260040161050a90614a8b565b341580613267575080155b6109895760405162461bcd60e51b815260040161050a90614478565b3415158061329057508115155b8061329a57508015155b611cd85760405162461bcd60e51b815260040161050a90614627565b60008083156132ca575082905060016132ce565b8291505b9250929050565b831561330e576132e48361398c565b8115613309576132f78160e00151612fa0565b6133098160e001518260c001516139aa565b610c01565b61331b8160e0015161304a565b6133388160200151826060015183604001518585600001516126fb565b6101008201819052610c0190612923565b6004805460408051631549b76d60e01b8152905160009384936001600160a01b031692631549b76d9281830192602092829003018186803b15801561338d57600080fd5b505afa1580156133a1573d6000803e3d6000fd5b505050506040513d601f19601f820116820180604052508101906133c5919061410f565b9050610c13838263ffffffff61284516565b6000600460009054906101000a90046001600160a01b03166001600160a01b0316631549b76d6040518163ffffffff1660e01b815260040160206040518083038186803b15801561342757600080fd5b505afa15801561343b573d6000803e3d6000fd5b505050506040513d601f19601f8201168201806040525081019061345f919061410f565b9050613471838263ffffffff61284516565b821115610c325760405162461bcd60e51b815260040161050a90614934565b6000806000836060015161352e5783516020850151604080870151905163d3d6f84360e01b81526001600160a01b039093169263d3d6f843926134d79290916004016142f2565b602060405180830381600087803b1580156134f157600080fd5b505af1158015613505573d6000803e3d6000fd5b505050506040513d601f19601f82011682018060405250810190613529919061410f565b6135b9565b8351602085015160408087015190516372423c1760e01b81526001600160a01b03909316926372423c17926135679290916004016142f2565b602060405180830381600087803b15801561358157600080fd5b505af1158015613595573d6000803e3d6000fd5b505050506040513d601f19601f820116820180604052508101906135b9919061410f565b905060008460a0015161365657845160208601516080870151604051630930874960e11b81526001600160a01b03909316926312610e92926135ff9290916004016142f2565b602060405180830381600087803b15801561361957600080fd5b505af115801561362d573d6000803e3d6000fd5b505050506040513d601f19601f82011682018060405250810190613651919061410f565b6136e1565b845160208601516080870151604051639976cf4560e01b81526001600160a01b0390931692639976cf459261368f9290916004016142f2565b602060405180830381600087803b1580156136a957600080fd5b505af11580156136bd573d6000803e3d6000fd5b505050506040513d601f19601f820116820180604052508101906136e1919061410f565b91935090915050915091565b6000806000613718846000015185602001518660400151876060015188608001518960a00151613817565b91509150600061269a8383612f6b565b8060600151156137a15761373a613b9b565b6040518060a0016040528083600001516001600160a01b0316815260200183602001516001600160a01b0316815260200183608001516001600160a01b031681526020018360c0015181526020018360e00151815250905061379b81613170565b506137bd565b6137bd8160000151826020015183608001518460c001516129cd565b8060400151156137de576137d981600001518260a001516130f4565b610989565b8051608082015160a0830151604051630a569c3760e41b81526001600160a01b039093169263a569c3709261320e9290916004016142f2565b600080878786613836576138318a8963ffffffff61284516565b613846565b6138468a8963ffffffff6126d616565b9150846138625761385d898763ffffffff61284516565b613872565b613872898763ffffffff6126d616565b919a91995090975050505050505050565b60008261389257506000610ae1565b8282028284828161389f57fe5b0414610c135760405162461bcd60e51b815260040161050a906146e0565b6000610c1383836040518060400160405280601a815260200179536166654d6174683a206469766973696f6e206279207a65726f60301b8152506139ca565b600081848411156139205760405162461bcd60e51b815260040161050a91906143f0565b505050900390565b600080613933610d9a565b9050600061393f610c46565b90506126ce828286612f39565b600061396a836126c286670de0b6b3a764000063ffffffff61388316565b905081811115610c015760405162461bcd60e51b815260040161050a90614b3f565b80156109895760405162461bcd60e51b815260040161050a90614801565b80821015611cd85760405162461bcd60e51b815260040161050a90614ae2565b600081836139eb5760405162461bcd60e51b815260040161050a91906143f0565b5060008385816139f757fe5b0495945050505050565b6040518060c00160405280600081526020016000815260200160001515815260200160006001600160a01b0316815260200160006001600160a01b03168152602001600081525090565b6040518060e0016040528060008152602001600081526020016000815260200160001515815260200160008152602001600015158152602001600081525090565b604080518082019091526000808252602082015290565b6040518060800160405280600081526020016000801916815260200160008152602001600081525090565b604080516060810182526000808252602082018190529181019190915290565b60405180610100016040528060008152602001600081526020016000815260200160008152602001600081526020016000815260200160008152602001600081525090565b6040518060a0016040528060006001600160a01b0316815260200160006001600160a01b031681526020016000815260200160008152602001600081525090565b60408051608081018252600080825260208201819052918101829052606081019190915290565b6040805160a08101825260008082526020820181905291810182905260608101829052608081019190915290565b604051806101a001604052806000815260200160008152602001600081526020016000151581526020016000815260200160008152602001600081526020016000815260200160008152602001600081526020016000815260200160008152602001600081525090565b6040805160c081018252600080825260208201819052918101829052606081018290526080810182905260a081019190915290565b6040518060c00160405280600081526020016000815260200160008152602001600015158152602001600081526020016000151581525090565b6040805161010081018252600080825260208201819052918101829052606081018290526080810182905260a0810182905260c0810182905260e081019190915290565b80356001600160a01b0381168114610ae157600080fd5b60008083601f840112613d0e578182fd5b5081356001600160401b03811115613d24578182fd5b60208301915083602080830285010111156132ce57600080fd5b80358015158114610ae157600080fd5b600080600080600060808688031215613d65578081fd5b613d6f8787613ce6565b9450613d7e8760208801613ce6565b9350613d8d8760408801613ce6565b925060608601356001600160401b03811115613da7578182fd5b613db388828901613cfd565b969995985093965092949392505050565b60008060008060608587031215613dd9578384fd5b613de38686613ce6565b9350613df28660208701613ce6565b925060408501356001600160401b03811115613e0c578283fd5b613e1887828801613cfd565b95989497509550505050565b60008060008060008060008060e0898b031215613e3f578283fd5b613e498a8a613ce6565b975060208901359650604089013595506060890135613e6781614c01565b9450613e768a60808b01613ce6565b9350613e858a60a08b01613ce6565b925060c08901356001600160401b03811115613e9f578283fd5b613eab8b828c01613cfd565b999c989b5096995094979396929594505050565b60008060208385031215613ed1578182fd5b82356001600160401b03811115613ee6578283fd5b613ef285828601613cfd565b90969095509350505050565b600080600083850360e0811215613f13578384fd5b60c0811215613f20578384fd5b50613f2b60c0614bc6565b8435815260208501356020820152613f468660408701613d3e565b6040820152613f588660608701613ce6565b6060820152613f6a8660808701613ce6565b608082015260a08581013590820152925060c08401356001600160401b03811115613f93578283fd5b613f9f86828701613cfd565b9497909650939450505050565b6000610180808385031215613fbf578182fd5b613fc881614bc6565b613fd28585613ce6565b8152613fe18560208601613ce6565b6020820152613ff38560408601613ce6565b60408201526140058560608601613ce6565b60608201526140178560808601613ce6565b60808201526140298560a08601613ce6565b60a082015261403b8560c08601613ce6565b60c082015261404d8560e08601613ce6565b60e0820152610100915061406385838601613ce6565b82820152610120915061407885838601613ce6565b82820152610140915061408d85838601613ce6565b8282015261016091506140a285838601613ce6565b918101919091529392505050565b6000608082840312156140c1578081fd5b6140cb6080614bc6565b825181526020830151602082015260408301516040820152606083015160608201528091505092915050565b600060208284031215614108578081fd5b5035919050565b600060208284031215614120578081fd5b5051919050565b60008060008060006080868803121561413e578283fd5b85359450602086013561415081614bec565b93506040860135613d8d81614bec565b600080600080600060a08688031215614177578283fd5b85359450602086013561418981614c01565b93506040860135925060608601356141a081614c01565b949793965091946080013592915050565b600080604083850312156141c3578182fd5b50508035926020909101359150565b60008060008060008060a087890312156141ea578384fd5b86359550602087013594506142028860408901613ce6565b93506142118860608901613ce6565b925060808701356001600160401b0381111561422b578283fd5b61423789828a01613cfd565b979a9699509497509295939492505050565b600080600080600080600060e0888a031215614263578081fd5b873596506020880135955060408801359450606088013561428381614c01565b93506080880135925060a088013561429a81614c01565b8092505060c0880135905092959891949750929550565b60008284528282602086013780602084860101526020601f19601f85011685010190509392505050565b90565b6001600160a01b0391909116815260200190565b6001600160a01b03929092168252602082015260400190565b602080825281810183905260009060408482028401810190840186845b8781101561439457868403603f190183528135368a9003601e1901811261434d578687fd5b89018035906001600160401b03821115614365578788fd5b8136038b1315614373578788fd5b61438086838984016142b1565b955050509184019190840190600101614328565b5091979650505050505050565b901515815260200190565b9283526020830191909152604082015260600190565b848152602081018490526040810183905260808101600383106143e157fe5b82606083015295945050505050565b6000602080835283518082850152825b8181101561441c57858101830151858201604001528201614400565b8181111561442d5783604083870101525b50601f01601f1916929092016040019392505050565b6020808252601b908201527a536166654d6174683a206164646974696f6e206f766572666c6f7760281b604082015260600190565b60208082526030908201527f426f72726f7765724f7065726174696f6e733a2043616e6e6f7420776974686460408201526f1c985dc8185b99081859190818dbdb1b60821b606082015260800190565b60208082526039908201527f426f72726f7765724f70733a204f7065726174696f6e206e6f74207065726d696040820152787474656420647572696e67205265636f76657279204d6f646560381b606082015260800190565b60208082526037908201527f426f72726f7765724f70733a204f7065726174696f6e206d757374206c65617660408201527632903a3937bb32903bb4ba341024a1a9101f1e9021a1a960491b606082015260800190565b6020808252603d908201527f426f72726f7765724f70733a2043616c6c657220646f65736e7420686176652060408201527f656e6f756768205553445320746f206d616b652072657061796d656e74000000606082015260800190565b60208082526032908201527f4d6178206665652070657263656e74616765206d757374206c657373207468616040820152716e206f7220657175616c20746f203130302560701b606082015260800190565b60208082526046908201527f426f72726f7765724f70733a205468657265206d75737420626520656974686560408201527f72206120636f6c6c61746572616c206368616e6765206f7220612064656274206060820152656368616e676560d01b608082015260a00190565b6020808252602d908201527f426f72726f7765724f70733a2053656e64696e6720424e4220746f204163746960408201526c1d99541bdbdb0819985a5b1959609a1b606082015260800190565b60208082526021908201527f536166654d6174683a206d756c7469706c69636174696f6e206f766572666c6f6040820152607760f81b606082015260800190565b6020808252604990820152600080516020614c5083398151915260408201527f6f756c6420726573756c7420696e20544352203c20434352206973206e6f74206060820152681c195c9b5a5d1d195960ba1b608082015260a00190565b6020808252818101527f4f776e61626c653a2063616c6c6572206973206e6f7420746865206f776e6572604082015260600190565b6020808252602e908201527f426f72726f7765724f70733a2054726f766520646f6573206e6f74206578697360408201526d1d081bdc881a5cc818db1bdcd95960921b606082015260800190565b6020808252603e908201527f426f72726f7765724f70733a20436f6c6c61746572616c20776974686472617760408201527f616c206e6f74207065726d6974746564205265636f76657279204d6f64650000606082015260800190565b6020808252600590820152641830b2323960d91b604082015260600190565b6020808252604990820152600080516020614c5083398151915260408201527f6f756c6420726573756c7420696e20494352203c204d4352206973206e6f74206060820152681c195c9b5a5d1d195960ba1b608082015260a00190565b6020808252603a908201527f426f72726f7765724f70733a2054726f76652773206e65742064656274206d7560408201527973742062652067726561746572207468616e206d696e696d756d60301b606082015260800190565b60208082526043908201527f426f72726f7765724f70733a20416d6f756e7420726570616964206d7573742060408201527f6e6f74206265206c6172676572207468616e207468652054726f76652773206460608201526219589d60ea1b608082015260a00190565b60208082526029908201527f426f72726f7765724f70733a2043616c6c6572206973206e6f742053746162696040820152681b1a5d1e48141bdbdb60ba1b606082015260800190565b60208082526005908201526430636f646560d81b604082015260600190565b60208082526030908201527f4d6178206665652070657263656e74616765206d75737420626520626574776560408201526f656e20302e352520616e64203130302560801b606082015260800190565b6020808252601c908201527b426f72726f7765724f70733a2054726f76652069732061637469766560201b604082015260600190565b60208082526037908201527f426f72726f7765724f70733a204465627420696e637265617365207265717569604082015276726573206e6f6e2d7a65726f20646562744368616e676560481b606082015260800190565b6020808252603e908201527f426f72726f7765724f70733a2043616e6e6f7420646563726561736520796f7560408201527f722054726f766527732049435220696e205265636f76657279204d6f64650000606082015260800190565b6020808252601d908201527f4665652065786365656465642070726f7669646564206d6178696d756d000000604082015260600190565b81516001600160a01b03908116825260208084015190830152604080840151821690830152606092830151169181019190915260800190565b90815260200190565b918252602082015260400190565b6040518181016001600160401b0381118282101715614be457600080fd5b604052919050565b6001600160a01b038116811461098957600080fd5b801515811461098957600080fdfe40c9936a18b4ba2155a308a1c8f38c423194b223dba9a70e61b37463fecfabf4c3770d654ed33aeea6bf11ac8ef05d02a6a04ed4686dd2f624d853bbec43cc8b426f72726f7765724f70733a20416e206f7065726174696f6e20746861742077a164736f6c634300060b000a","linkReferences":{}},"methodIdentifiers":{"DECIMAL_PRECISION()":"a20baee6","NAME()":"a3f4df7e","PERCENT_DIVISOR()":"4870dd9a","_100pct()":"72fe25aa","activePool()":"7f7dde4a","addColl(address,address,bytes[])":"1e503ead","adjustTrove((uint256,uint256,bool,address,address,uint256),bytes[])":"739987d7","callInternalAdjustLoan(address,uint256,uint256,bool,address,address,bytes[])":"516f507e","claimCollateral()":"6f0b0c1c","closeTrove(bytes[])":"df9bf27a","defaultPool()":"3cc74225","getCompositeDebt(uint256)":"4ff81443","getEntireSystemColl()":"887105d3","getEntireSystemDebt()":"795d26c3","getNewICRFromTroveChange(uint256,uint256,uint256,bool,uint256,bool,uint256)":"51584ca4","getNewTCRFromTroveChange(uint256,bool,uint256,bool,uint256)":"87eb305d","getUSDValue(uint256,uint256)":"6f30d212","isOwner()":"8f32d59b","moveBNBGainToTrove(address,address,address,bytes[])":"37ddc0af","openTrove(uint256,uint256,address,address,bytes[])":"e129d8e0","oracleRateCalc()":"ddc7aed4","owner()":"8da5cb5b","priceFeed()":"741bef1a","repayUSDS(uint256,address,address,bytes[])":"2322cd68","sableStaking()":"f80911de","sableStakingAddress()":"8d0a3b08","setAddresses((address,address,address,address,address,address,address,address,address,address,address,address))":"1453558b","sortedTroves()":"ae918754","systemState()":"991292e3","timeLock()":"d085835a","troveManager()":"3d83908a","usdsToken()":"f8f8d174","withdrawColl(uint256,address,address,bytes[])":"f1f30974","withdrawUSDS(uint256,uint256,address,address,bytes[])":"b120dbd4"},"id":78}