{"abi":[{"type":"function","name":"DECIMAL_PRECISION","inputs":[],"outputs":[{"name":"","type":"uint256","internalType":"uint256"}],"stateMutability":"view"},{"type":"function","name":"NAME","inputs":[],"outputs":[{"name":"","type":"string","internalType":"string"}],"stateMutability":"view"},{"type":"function","name":"balanceSABLE","inputs":[],"outputs":[{"name":"","type":"uint256","internalType":"uint256"}],"stateMutability":"nonpayable"},{"type":"function","name":"deploymentTime","inputs":[],"outputs":[{"name":"","type":"uint256","internalType":"uint256"}],"stateMutability":"view"},{"type":"function","name":"getCumulativeIssuanceFraction","inputs":[],"outputs":[{"name":"","type":"uint256","internalType":"uint256"}],"stateMutability":"pure"},{"type":"function","name":"isOwner","inputs":[],"outputs":[{"name":"","type":"bool","internalType":"bool"}],"stateMutability":"view"},{"type":"function","name":"issueSABLE","inputs":[],"outputs":[{"name":"","type":"uint256","internalType":"uint256"}],"stateMutability":"nonpayable"},{"type":"function","name":"lastIssuanceTime","inputs":[],"outputs":[{"name":"","type":"uint256","internalType":"uint256"}],"stateMutability":"view"},{"type":"function","name":"latestRewardPerSec","inputs":[],"outputs":[{"name":"","type":"uint256","internalType":"uint256"}],"stateMutability":"view"},{"type":"function","name":"obtainSABLE","inputs":[{"name":"_amount","type":"uint256","internalType":"uint256"}],"outputs":[],"stateMutability":"nonpayable"},{"type":"function","name":"owner","inputs":[],"outputs":[{"name":"","type":"address","internalType":"address"}],"stateMutability":"view"},{"type":"function","name":"sableToken","inputs":[],"outputs":[{"name":"","type":"address","internalType":"contract ISABLEToken"}],"stateMutability":"view"},{"type":"function","name":"sendSABLE","inputs":[{"name":"_account","type":"address","internalType":"address"},{"name":"_SABLEamount","type":"uint256","internalType":"uint256"}],"outputs":[],"stateMutability":"nonpayable"},{"type":"function","name":"setParams","inputs":[{"name":"_sableTokenAddress","type":"address","internalType":"address"},{"name":"_stabilityPoolAddress","type":"address","internalType":"address"},{"name":"_latestRewardPerSec","type":"uint256","internalType":"uint256"}],"outputs":[],"stateMutability":"nonpayable"},{"type":"function","name":"stabilityPool","inputs":[],"outputs":[{"name":"","type":"address","internalType":"contract IStabilityPool"}],"stateMutability":"view"},{"type":"function","name":"totalSABLEIssued","inputs":[],"outputs":[{"name":"","type":"uint256","internalType":"uint256"}],"stateMutability":"view"},{"type":"function","name":"transferOwnership","inputs":[{"name":"_newOwner","type":"address","internalType":"address"}],"outputs":[],"stateMutability":"nonpayable"},{"type":"function","name":"unprotectedIssueSABLE","inputs":[],"outputs":[{"name":"","type":"uint256","internalType":"uint256"}],"stateMutability":"pure"},{"type":"function","name":"updateRewardPerSec","inputs":[{"name":"newRewardPerSec","type":"uint256","internalType":"uint256"}],"outputs":[],"stateMutability":"nonpayable"},{"type":"event","name":"OwnershipTransferred","inputs":[{"name":"previousOwner","type":"address","indexed":true,"internalType":"address"},{"name":"newOwner","type":"address","indexed":true,"internalType":"address"}],"anonymous":false},{"type":"event","name":"RewardPerSecUpdated","inputs":[{"name":"_newRewardPerSec","type":"uint256","indexed":false,"internalType":"uint256"}],"anonymous":false},{"type":"event","name":"SABLETokenAddressSet","inputs":[{"name":"_sableTokenAddress","type":"address","indexed":false,"internalType":"address"}],"anonymous":false},{"type":"event","name":"StabilityPoolAddressSet","inputs":[{"name":"_stabilityPoolAddress","type":"address","indexed":false,"internalType":"address"}],"anonymous":false},{"type":"event","name":"TotalSABLEIssuedUpdated","inputs":[{"name":"_totalSABLEIssued","type":"uint256","indexed":false,"internalType":"uint256"}],"anonymous":false}],"bytecode":{"object":"0x60a060405234801561001057600080fd5b50600080546001600160a01b0319163390811782556040519091907f8be0079c531659141344cd1fd0a4f28419497f9722a3daafe3b4186f6b6457e0908290a3426080819052600455608051610bc1610073600039806107605250610bc16000f3fe608060405234801561001057600080fd5b50600436106100f15760003560e01c8063048c661d146100f6578063284f997e1461011a5780633a38233f146101345780633b2f0e4e1461013c5780634f0ee66214610144578063509db2f614610172578063521b40fb146101a857806360bf03ff146101c55780638d3aa8bc146101cd5780638da5cb5b146101ea5780638f32d59b146101f25780639ca669631461020e5780639d5b044d14610134578063a20baee614610216578063a3f4df7e1461021e578063a41604371461029b578063ecda10f5146102a3578063ed3ce20e146102ab578063f2fde38b146102b3575b600080fd5b6100fe6102d9565b604080516001600160a01b039092168252519081900360200190f35b6101226102e8565b60408051918252519081900360200190f35b610122610379565b6100fe61037e565b6101706004803603604081101561015a57600080fd5b506001600160a01b03813516906020013561038d565b005b6101706004803603606081101561018857600080fd5b506001600160a01b0381358116916020810135909116906040013561041b565b610170600480360360208110156101be57600080fd5b503561058a565b61012261060d565b610170600480360360208110156101e357600080fd5b5035610613565b6100fe6106f9565b6101fa610708565b604080519115158252519081900360200190f35b610122610719565b61012261071f565b61022661072b565b6040805160208082528351818301528351919283929083019185019080838360005b83811015610260578181015183820152602001610248565b50505050905090810190601f16801561028d5780820380516001836020036101000a031916815260200191505b509250505060405180910390f35b610122610758565b61012261075e565b610122610782565b610170600480360360208110156102c957600080fd5b50356001600160a01b03166107fe565b6002546001600160a01b031681565b60006102f2610851565b60006103096004544261089c90919063ffffffff16565b90506000610322826005546108e790919063ffffffff16565b600354909150610338908263ffffffff61094016565b60038190554260045560408051918252517fa4df6a230946da91c36563b5da0c04bc59d09d9f8f8685f767b0abc5e2afc4569181900360200190a191505090565b600090565b6001546001600160a01b031681565b610395610851565b6001546040805163a9059cbb60e01b81526001600160a01b038581166004830152602482018590529151919092169163a9059cbb9160448083019260209291908290030181600087803b1580156103eb57600080fd5b505af11580156103ff573d6000803e3d6000fd5b505050506040513d602081101561041557600080fd5b50505050565b610423610708565b610462576040805162461bcd60e51b81526020600482018190526024820152600080516020610b72833981519152604482015290519081900360640190fd5b60065460ff16156104a45760405162461bcd60e51b8152600401808060200182810382526023815260200180610b0e6023913960400191505060405180910390fd5b6104ad83610998565b6104b682610998565b6005819055600180546001600160a01b038086166001600160a01b03199283168117909355600280549186169190921617905560408051918252517f7700f0eb06f19e6adeeb6c3b2d98cca07b6d2c9a3b95f49808f71e205d24e74c9181900360200190a1604080516001600160a01b038416815290517f45c53611bc8ba9e11f4f8173bda9e3faf89c395ddb83f9a55230b156828db3159181900360200190a1604080518281529051600080516020610b318339815191529181900360200190a150506006805460ff1916600117905550565b6001546040805163a9059cbb60e01b81523360048201526024810184905290516001600160a01b039092169163a9059cbb916044808201926020929091908290030181600087803b1580156105de57600080fd5b505af11580156105f2573d6000803e3d6000fd5b505050506040513d602081101561060857600080fd5b505050565b60045481565b61061b610708565b61065a576040805162461bcd60e51b81526020600482018190526024820152600080516020610b72833981519152604482015290519081900360640190fd5b600260009054906101000a90046001600160a01b03166001600160a01b031663848bb7c66040518163ffffffff1660e01b8152600401600060405180830381600087803b1580156106aa57600080fd5b505af11580156106be573d6000803e3d6000fd5b5050505042600454146106d057600080fd5b6005819055604080518281529051600080516020610b318339815191529181900360200190a150565b6000546001600160a01b031690565b6000546001600160a01b0316331490565b60055481565b670de0b6b3a764000081565b60405180604001604052806011815260200170436f6d6d756e69747949737375616e636560781b81525081565b60035481565b7f000000000000000000000000000000000000000000000000000000000000000081565b600154604080516370a0823160e01b815230600482015290516000926001600160a01b0316916370a08231916024808301926020929190829003018186803b1580156107cd57600080fd5b505afa1580156107e1573d6000803e3d6000fd5b505050506040513d60208110156107f757600080fd5b5051905090565b610806610708565b610845576040805162461bcd60e51b81526020600482018190526024820152600080516020610b72833981519152604482015290519081900360640190fd5b61084e81610a1b565b50565b6002546001600160a01b0316331461089a5760405162461bcd60e51b8152600401808060200182810382526023815260200180610b926023913960400191505060405180910390fd5b565b60006108de83836040518060400160405280601e81526020017f536166654d6174683a207375627472616374696f6e206f766572666c6f770000815250610a76565b90505b92915050565b6000826108f6575060006108e1565b8282028284828161090357fe5b04146108de5760405162461bcd60e51b8152600401808060200182810382526021815260200180610b516021913960400191505060405180910390fd5b6000828201838110156108de576040805162461bcd60e51b815260206004820152601b60248201527a536166654d6174683a206164646974696f6e206f766572666c6f7760281b604482015290519081900360640190fd5b6001600160a01b0381166109db576040805162461bcd60e51b81526020600482015260056024820152641830b2323960d91b604482015290519081900360640190fd5b803b80610a17576040805162461bcd60e51b815260206004820152600560248201526430636f646560d81b604482015290519081900360640190fd5b5050565b600080546040516001600160a01b03808516939216917f8be0079c531659141344cd1fd0a4f28419497f9722a3daafe3b4186f6b6457e091a3600080546001600160a01b0319166001600160a01b0392909216919091179055565b60008184841115610b055760405162461bcd60e51b81526004018080602001828103825283818151815260200191508051906020019080838360005b83811015610aca578181015183820152602001610ab2565b50505050905090810190601f168015610af75780820380516001836020036101000a031916815260200191505b509250505060405180910390fd5b50505090039056fe436f6e747261637420696e7374616e636520616c72656164792073657420706172616daf3a50bee1480ebf8501115f1bd714a3d8d8642a2c8c1ae2085fb9af7680ba0c536166654d6174683a206d756c7469706c69636174696f6e206f766572666c6f774f776e61626c653a2063616c6c6572206973206e6f7420746865206f776e6572436f6d6d756e69747949737375616e63653a2063616c6c6572206973206e6f74205350a164736f6c634300060b000a","linkReferences":{}},"methodIdentifiers":{"DECIMAL_PRECISION()":"a20baee6","NAME()":"a3f4df7e","balanceSABLE()":"ed3ce20e","deploymentTime()":"ecda10f5","getCumulativeIssuanceFraction()":"9d5b044d","isOwner()":"8f32d59b","issueSABLE()":"284f997e","lastIssuanceTime()":"60bf03ff","latestRewardPerSec()":"9ca66963","obtainSABLE(uint256)":"521b40fb","owner()":"8da5cb5b","sableToken()":"3b2f0e4e","sendSABLE(address,uint256)":"4f0ee662","setParams(address,address,uint256)":"509db2f6","stabilityPool()":"048c661d","totalSABLEIssued()":"a4160437","transferOwnership(address)":"f2fde38b","unprotectedIssueSABLE()":"3a38233f","updateRewardPerSec(uint256)":"8d3aa8bc"},"id":80}