{"abi":[{"type":"constructor","inputs":[{"name":"_troveManager","type":"address","internalType":"contract TroveManager"},{"name":"_sortedTroves","type":"address","internalType":"contract ISortedTroves"}],"stateMutability":"nonpayable"},{"type":"function","name":"getMultipleSortedTroves","inputs":[{"name":"_startIdx","type":"int256","internalType":"int256"},{"name":"_count","type":"uint256","internalType":"uint256"}],"outputs":[{"name":"_troves","type":"tuple[]","internalType":"struct MultiTroveGetter.CombinedTroveData[]","components":[{"name":"owner","type":"address","internalType":"address"},{"name":"debt","type":"uint256","internalType":"uint256"},{"name":"coll","type":"uint256","internalType":"uint256"},{"name":"stake","type":"uint256","internalType":"uint256"},{"name":"snapshotBNB","type":"uint256","internalType":"uint256"},{"name":"snapshotUSDSDebt","type":"uint256","internalType":"uint256"}]}],"stateMutability":"view"},{"type":"function","name":"sortedTroves","inputs":[],"outputs":[{"name":"","type":"address","internalType":"contract ISortedTroves"}],"stateMutability":"view"},{"type":"function","name":"troveManager","inputs":[],"outputs":[{"name":"","type":"address","internalType":"contract TroveManager"}],"stateMutability":"view"}],"bytecode":{"object":"0x608060405234801561001057600080fd5b50604051610bc0380380610bc083398101604081905261002f91610060565b600080546001600160a01b039384166001600160a01b031991821617909155600180549290931691161790556100b1565b60008060408385031215610072578182fd5b825161007d81610099565b602084015190925061008e81610099565b809150509250929050565b6001600160a01b03811681146100ae57600080fd5b50565b610b00806100c06000396000f3fe608060405234801561001057600080fd5b50600436106100415760003560e01c80633d83908a14610046578063ae91875414610064578063b90bce451461006c575b600080fd5b61004e61008c565b60405161005b9190610a5e565b60405180910390f35b61004e61009b565b61007f61007a36600461099e565b6100aa565b60405161005b9190610a72565b6000546001600160a01b031681565b6001546001600160a01b031681565b6060600080600085126100c2575083905060016100d0565b846001016000039150600090505b6001546040805163de8fa43160e01b815290516000926001600160a01b03169163de8fa431916004808301926020929190829003018186803b15801561011557600080fd5b505afa158015610129573d6000803e3d6000fd5b505050506040513d601f19601f8201168201806040525081019061014d91906109bf565b905080831061018f576040805160008082526020820190925290610187565b610174610931565b81526020019060019003908161016c5790505b5093506101c4565b8281038086111561019e578095505b82156101b5576101ae84876101cd565b94506101c2565b6101bf8487610583565b94505b505b50505092915050565b60606000600160009054906101000a90046001600160a01b03166001600160a01b0316631e2231436040518163ffffffff1660e01b815260040160206040518083038186803b15801561021f57600080fd5b505afa158015610233573d6000803e3d6000fd5b505050506040513d601f19601f820116820180604052508101906102579190610970565b905060005b848110156102ee5760015460405163765e015960e01b81526001600160a01b039091169063765e015990610294908590600401610a5e565b60206040518083038186803b1580156102ac57600080fd5b505afa1580156102c0573d6000803e3d6000fd5b505050506040513d601f19601f820116820180604052508101906102e49190610970565b915060010161025c565b50826001600160401b038111801561030557600080fd5b5060405190808252806020026020018201604052801561033f57816020015b61032c610931565b8152602001906001900390816103245790505b50915060005b8381101561057b578183828151811061035a57fe5b60209081029190910101516001600160a01b039182169052600054604051630ddec86760e31b8152911690636ef6433890610399908590600401610a5e565b60a06040518083038186803b1580156103b157600080fd5b505afa1580156103c5573d6000803e3d6000fd5b505050506040513d601f19601f820116820180604052508101906103e991906109fa565b9050508584815181106103f857fe5b602002602001015160200186858151811061040f57fe5b602002602001015160400187868151811061042657fe5b60209081029190910101516060019290925291905252600054604051630b39e3cd60e11b81526001600160a01b0390911690631673c79a9061046c908590600401610a5e565b604080518083038186803b15801561048357600080fd5b505afa158015610497573d6000803e3d6000fd5b505050506040513d601f19601f820116820180604052508101906104bb91906109d7565b8483815181106104c757fe5b60200260200101516080018584815181106104de57fe5b602090810291909101015160a001919091525260015460405163765e015960e01b81526001600160a01b039091169063765e015990610521908590600401610a5e565b60206040518083038186803b15801561053957600080fd5b505afa15801561054d573d6000803e3d6000fd5b505050506040513d601f19601f820116820180604052508101906105719190610970565b9150600101610345565b505092915050565b60606000600160009054906101000a90046001600160a01b03166001600160a01b0316634d6228316040518163ffffffff1660e01b815260040160206040518083038186803b1580156105d557600080fd5b505afa1580156105e9573d6000803e3d6000fd5b505050506040513d601f19601f8201168201806040525081019061060d9190610970565b905060005b848110156106a457600154604051632dc9c0eb60e21b81526001600160a01b039091169063b72703ac9061064a908590600401610a5e565b60206040518083038186803b15801561066257600080fd5b505afa158015610676573d6000803e3d6000fd5b505050506040513d601f19601f8201168201806040525081019061069a9190610970565b9150600101610612565b50826001600160401b03811180156106bb57600080fd5b506040519080825280602002602001820160405280156106f557816020015b6106e2610931565b8152602001906001900390816106da5790505b50915060005b8381101561057b578183828151811061071057fe5b60209081029190910101516001600160a01b039182169052600054604051630ddec86760e31b8152911690636ef643389061074f908590600401610a5e565b60a06040518083038186803b15801561076757600080fd5b505afa15801561077b573d6000803e3d6000fd5b505050506040513d601f19601f8201168201806040525081019061079f91906109fa565b9050508584815181106107ae57fe5b60200260200101516020018685815181106107c557fe5b60200260200101516040018786815181106107dc57fe5b60209081029190910101516060019290925291905252600054604051630b39e3cd60e11b81526001600160a01b0390911690631673c79a90610822908590600401610a5e565b604080518083038186803b15801561083957600080fd5b505afa15801561084d573d6000803e3d6000fd5b505050506040513d601f19601f8201168201806040525081019061087191906109d7565b84838151811061087d57fe5b602002602001015160800185848151811061089457fe5b602090810291909101015160a0019190915252600154604051632dc9c0eb60e21b81526001600160a01b039091169063b72703ac906108d7908590600401610a5e565b60206040518083038186803b1580156108ef57600080fd5b505afa158015610903573d6000803e3d6000fd5b505050506040513d601f19601f820116820180604052508101906109279190610970565b91506001016106fb565b6040518060c0016040528060006001600160a01b0316815260200160008152602001600081526020016000815260200160008152602001600081525090565b600060208284031215610981578081fd5b81516001600160a01b0381168114610997578182fd5b9392505050565b600080604083850312156109b0578081fd5b50508035926020909101359150565b6000602082840312156109d0578081fd5b5051919050565b600080604083850312156109e9578182fd5b505080516020909101519092909150565b600080600080600060a08688031215610a11578081fd5b855194506020860151935060408601519250606086015160058110610a34578182fd5b60808701519092506001600160801b0381168114610a50578182fd5b809150509295509295909350565b6001600160a01b0391909116815260200190565b602080825282518282018190526000919060409081850190868401855b82811015610ae657815180516001600160a01b0316855286810151878601528581015186860152606080820151908601526080808201519086015260a0908101519085015260c09093019290850190600101610a8f565b509197965050505050505056fea164736f6c634300060b000a","linkReferences":{}},"methodIdentifiers":{"getMultipleSortedTroves(int256,uint256)":"b90bce45","sortedTroves()":"ae918754","troveManager()":"3d83908a"},"id":59}