{"abi":[{"type":"function","name":"BETA","inputs":[],"outputs":[{"name":"","type":"uint256","internalType":"uint256"}],"stateMutability":"view"},{"type":"function","name":"BOOTSTRAP_PERIOD","inputs":[],"outputs":[{"name":"","type":"uint256","internalType":"uint256"}],"stateMutability":"view"},{"type":"function","name":"DECIMAL_PRECISION","inputs":[],"outputs":[{"name":"","type":"uint256","internalType":"uint256"}],"stateMutability":"view"},{"type":"function","name":"L_BNB","inputs":[],"outputs":[{"name":"","type":"uint256","internalType":"uint256"}],"stateMutability":"view"},{"type":"function","name":"L_USDSDebt","inputs":[],"outputs":[{"name":"","type":"uint256","internalType":"uint256"}],"stateMutability":"view"},{"type":"function","name":"MAX_BORROWING_FEE","inputs":[],"outputs":[{"name":"","type":"uint256","internalType":"uint256"}],"stateMutability":"view"},{"type":"function","name":"MINUTE_DECAY_FACTOR","inputs":[],"outputs":[{"name":"","type":"uint256","internalType":"uint256"}],"stateMutability":"view"},{"type":"function","name":"PERCENT_DIVISOR","inputs":[],"outputs":[{"name":"","type":"uint256","internalType":"uint256"}],"stateMutability":"view"},{"type":"function","name":"SECONDS_IN_ONE_MINUTE","inputs":[],"outputs":[{"name":"","type":"uint256","internalType":"uint256"}],"stateMutability":"view"},{"type":"function","name":"TroveOwners","inputs":[{"name":"","type":"uint256","internalType":"uint256"}],"outputs":[{"name":"","type":"address","internalType":"address"}],"stateMutability":"view"},{"type":"function","name":"Troves","inputs":[{"name":"","type":"address","internalType":"address"}],"outputs":[{"name":"debt","type":"uint256","internalType":"uint256"},{"name":"coll","type":"uint256","internalType":"uint256"},{"name":"stake","type":"uint256","internalType":"uint256"},{"name":"status","type":"uint8","internalType":"enum ITroveManager.Status"},{"name":"arrayIndex","type":"uint128","internalType":"uint128"}],"stateMutability":"view"},{"type":"function","name":"_100pct","inputs":[],"outputs":[{"name":"","type":"uint256","internalType":"uint256"}],"stateMutability":"view"},{"type":"function","name":"activePool","inputs":[],"outputs":[{"name":"","type":"address","internalType":"contract IActivePool"}],"stateMutability":"view"},{"type":"function","name":"addTroveOwnerToArray","inputs":[{"name":"_borrower","type":"address","internalType":"address"}],"outputs":[{"name":"index","type":"uint256","internalType":"uint256"}],"stateMutability":"nonpayable"},{"type":"function","name":"applyPendingRewards","inputs":[{"name":"_borrower","type":"address","internalType":"address"}],"outputs":[],"stateMutability":"nonpayable"},{"type":"function","name":"baseRate","inputs":[],"outputs":[{"name":"","type":"uint256","internalType":"uint256"}],"stateMutability":"view"},{"type":"function","name":"batchLiquidateTroves","inputs":[{"name":"_troveArray","type":"address[]","internalType":"address[]"},{"name":"priceFeedUpdateData","type":"bytes[]","internalType":"bytes[]"}],"outputs":[],"stateMutability":"nonpayable"},{"type":"function","name":"borrowerOperationsAddress","inputs":[],"outputs":[{"name":"","type":"address","internalType":"address"}],"stateMutability":"view"},{"type":"function","name":"checkRecoveryMode","inputs":[{"name":"_price","type":"uint256","internalType":"uint256"}],"outputs":[{"name":"","type":"bool","internalType":"bool"}],"stateMutability":"view"},{"type":"function","name":"closeTrove","inputs":[{"name":"_borrower","type":"address","internalType":"address"}],"outputs":[],"stateMutability":"nonpayable"},{"type":"function","name":"decayBaseRateFromBorrowing","inputs":[],"outputs":[],"stateMutability":"nonpayable"},{"type":"function","name":"decreaseTroveColl","inputs":[{"name":"_borrower","type":"address","internalType":"address"},{"name":"_collDecrease","type":"uint256","internalType":"uint256"}],"outputs":[{"name":"","type":"uint256","internalType":"uint256"}],"stateMutability":"nonpayable"},{"type":"function","name":"decreaseTroveDebt","inputs":[{"name":"_borrower","type":"address","internalType":"address"},{"name":"_debtDecrease","type":"uint256","internalType":"uint256"}],"outputs":[{"name":"","type":"uint256","internalType":"uint256"}],"stateMutability":"nonpayable"},{"type":"function","name":"defaultPool","inputs":[],"outputs":[{"name":"","type":"address","internalType":"contract IDefaultPool"}],"stateMutability":"view"},{"type":"function","name":"getBorrowingFee","inputs":[{"name":"_USDSDebt","type":"uint256","internalType":"uint256"},{"name":"_oracleRate","type":"uint256","internalType":"uint256"}],"outputs":[{"name":"","type":"uint256","internalType":"uint256"}],"stateMutability":"view"},{"type":"function","name":"getBorrowingFeeWithDecay","inputs":[{"name":"_USDSDebt","type":"uint256","internalType":"uint256"},{"name":"_oracleRate","type":"uint256","internalType":"uint256"}],"outputs":[{"name":"","type":"uint256","internalType":"uint256"}],"stateMutability":"view"},{"type":"function","name":"getBorrowingRate","inputs":[{"name":"_oracleRate","type":"uint256","internalType":"uint256"}],"outputs":[{"name":"","type":"uint256","internalType":"uint256"}],"stateMutability":"view"},{"type":"function","name":"getBorrowingRateWithDecay","inputs":[{"name":"_oracleRate","type":"uint256","internalType":"uint256"}],"outputs":[{"name":"","type":"uint256","internalType":"uint256"}],"stateMutability":"view"},{"type":"function","name":"getCurrentICR","inputs":[{"name":"_borrower","type":"address","internalType":"address"},{"name":"_price","type":"uint256","internalType":"uint256"}],"outputs":[{"name":"","type":"uint256","internalType":"uint256"}],"stateMutability":"view"},{"type":"function","name":"getEntireDebtAndColl","inputs":[{"name":"_borrower","type":"address","internalType":"address"}],"outputs":[{"name":"debt","type":"uint256","internalType":"uint256"},{"name":"coll","type":"uint256","internalType":"uint256"},{"name":"pendingUSDSDebtReward","type":"uint256","internalType":"uint256"},{"name":"pendingBNBReward","type":"uint256","internalType":"uint256"}],"stateMutability":"view"},{"type":"function","name":"getEntireSystemColl","inputs":[],"outputs":[{"name":"entireSystemColl","type":"uint256","internalType":"uint256"}],"stateMutability":"view"},{"type":"function","name":"getEntireSystemDebt","inputs":[],"outputs":[{"name":"entireSystemDebt","type":"uint256","internalType":"uint256"}],"stateMutability":"view"},{"type":"function","name":"getNominalICR","inputs":[{"name":"_borrower","type":"address","internalType":"address"}],"outputs":[{"name":"","type":"uint256","internalType":"uint256"}],"stateMutability":"view"},{"type":"function","name":"getPendingBNBReward","inputs":[{"name":"_borrower","type":"address","internalType":"address"}],"outputs":[{"name":"","type":"uint256","internalType":"uint256"}],"stateMutability":"view"},{"type":"function","name":"getPendingUSDSDebtReward","inputs":[{"name":"_borrower","type":"address","internalType":"address"}],"outputs":[{"name":"","type":"uint256","internalType":"uint256"}],"stateMutability":"view"},{"type":"function","name":"getRedemptionFeeWithDecay","inputs":[{"name":"_BNBDrawn","type":"uint256","internalType":"uint256"},{"name":"_oracleRate","type":"uint256","internalType":"uint256"}],"outputs":[{"name":"","type":"uint256","internalType":"uint256"}],"stateMutability":"view"},{"type":"function","name":"getRedemptionRate","inputs":[{"name":"_oracleRate","type":"uint256","internalType":"uint256"}],"outputs":[{"name":"","type":"uint256","internalType":"uint256"}],"stateMutability":"view"},{"type":"function","name":"getRedemptionRateWithDecay","inputs":[{"name":"_oracleRate","type":"uint256","internalType":"uint256"}],"outputs":[{"name":"","type":"uint256","internalType":"uint256"}],"stateMutability":"view"},{"type":"function","name":"getTCR","inputs":[{"name":"_price","type":"uint256","internalType":"uint256"}],"outputs":[{"name":"","type":"uint256","internalType":"uint256"}],"stateMutability":"view"},{"type":"function","name":"getTroveColl","inputs":[{"name":"_borrower","type":"address","internalType":"address"}],"outputs":[{"name":"","type":"uint256","internalType":"uint256"}],"stateMutability":"view"},{"type":"function","name":"getTroveDebt","inputs":[{"name":"_borrower","type":"address","internalType":"address"}],"outputs":[{"name":"","type":"uint256","internalType":"uint256"}],"stateMutability":"view"},{"type":"function","name":"getTroveFromTroveOwnersArray","inputs":[{"name":"_index","type":"uint256","internalType":"uint256"}],"outputs":[{"name":"","type":"address","internalType":"address"}],"stateMutability":"view"},{"type":"function","name":"getTroveOwnersCount","inputs":[],"outputs":[{"name":"","type":"uint256","internalType":"uint256"}],"stateMutability":"view"},{"type":"function","name":"getTroveStake","inputs":[{"name":"_borrower","type":"address","internalType":"address"}],"outputs":[{"name":"","type":"uint256","internalType":"uint256"}],"stateMutability":"view"},{"type":"function","name":"getTroveStatus","inputs":[{"name":"_borrower","type":"address","internalType":"address"}],"outputs":[{"name":"","type":"uint256","internalType":"uint256"}],"stateMutability":"view"},{"type":"function","name":"hasPendingRewards","inputs":[{"name":"_borrower","type":"address","internalType":"address"}],"outputs":[{"name":"","type":"bool","internalType":"bool"}],"stateMutability":"view"},{"type":"function","name":"increaseTroveColl","inputs":[{"name":"_borrower","type":"address","internalType":"address"},{"name":"_collIncrease","type":"uint256","internalType":"uint256"}],"outputs":[{"name":"","type":"uint256","internalType":"uint256"}],"stateMutability":"nonpayable"},{"type":"function","name":"increaseTroveDebt","inputs":[{"name":"_borrower","type":"address","internalType":"address"},{"name":"_debtIncrease","type":"uint256","internalType":"uint256"}],"outputs":[{"name":"","type":"uint256","internalType":"uint256"}],"stateMutability":"nonpayable"},{"type":"function","name":"isOwner","inputs":[],"outputs":[{"name":"","type":"bool","internalType":"bool"}],"stateMutability":"view"},{"type":"function","name":"lastBNBError_Redistribution","inputs":[],"outputs":[{"name":"","type":"uint256","internalType":"uint256"}],"stateMutability":"view"},{"type":"function","name":"lastFeeOperationTime","inputs":[],"outputs":[{"name":"","type":"uint256","internalType":"uint256"}],"stateMutability":"view"},{"type":"function","name":"lastUSDSDebtError_Redistribution","inputs":[],"outputs":[{"name":"","type":"uint256","internalType":"uint256"}],"stateMutability":"view"},{"type":"function","name":"liquidate","inputs":[{"name":"_borrower","type":"address","internalType":"address"},{"name":"priceFeedUpdateData","type":"bytes[]","internalType":"bytes[]"}],"outputs":[],"stateMutability":"nonpayable"},{"type":"function","name":"liquidateTroves","inputs":[{"name":"_n","type":"uint256","internalType":"uint256"},{"name":"priceFeedUpdateData","type":"bytes[]","internalType":"bytes[]"}],"outputs":[],"stateMutability":"nonpayable"},{"type":"function","name":"oracleRateCalc","inputs":[],"outputs":[{"name":"","type":"address","internalType":"contract IOracleRateCalculation"}],"stateMutability":"view"},{"type":"function","name":"owner","inputs":[],"outputs":[{"name":"","type":"address","internalType":"address"}],"stateMutability":"view"},{"type":"function","name":"priceFeed","inputs":[],"outputs":[{"name":"","type":"address","internalType":"contract IPriceFeed"}],"stateMutability":"view"},{"type":"function","name":"redeemCollateral","inputs":[{"name":"_USDSamount","type":"uint256","internalType":"uint256"},{"name":"_firstRedemptionHint","type":"address","internalType":"address"},{"name":"_upperPartialRedemptionHint","type":"address","internalType":"address"},{"name":"_lowerPartialRedemptionHint","type":"address","internalType":"address"},{"name":"_partialRedemptionHintNICR","type":"uint256","internalType":"uint256"},{"name":"_maxIterations","type":"uint256","internalType":"uint256"},{"name":"_maxFeePercentage","type":"uint256","internalType":"uint256"},{"name":"priceFeedUpdateData","type":"bytes[]","internalType":"bytes[]"}],"outputs":[],"stateMutability":"nonpayable"},{"type":"function","name":"removeStake","inputs":[{"name":"_borrower","type":"address","internalType":"address"}],"outputs":[],"stateMutability":"nonpayable"},{"type":"function","name":"rewardSnapshots","inputs":[{"name":"","type":"address","internalType":"address"}],"outputs":[{"name":"BNB","type":"uint256","internalType":"uint256"},{"name":"USDSDebt","type":"uint256","internalType":"uint256"}],"stateMutability":"view"},{"type":"function","name":"sableStaking","inputs":[],"outputs":[{"name":"","type":"address","internalType":"contract ISableStakingV2"}],"stateMutability":"view"},{"type":"function","name":"sableToken","inputs":[],"outputs":[{"name":"","type":"address","internalType":"contract ISABLEToken"}],"stateMutability":"view"},{"type":"function","name":"setAddresses","inputs":[{"name":"param","type":"tuple","internalType":"struct ITroveManager.DependencyAddressParam","components":[{"name":"borrowerOperationsAddress","type":"address","internalType":"address"},{"name":"activePoolAddress","type":"address","internalType":"address"},{"name":"defaultPoolAddress","type":"address","internalType":"address"},{"name":"stabilityPoolAddress","type":"address","internalType":"address"},{"name":"gasPoolAddress","type":"address","internalType":"address"},{"name":"collSurplusPoolAddress","type":"address","internalType":"address"},{"name":"priceFeedAddress","type":"address","internalType":"address"},{"name":"usdsTokenAddress","type":"address","internalType":"address"},{"name":"sortedTrovesAddress","type":"address","internalType":"address"},{"name":"sableTokenAddress","type":"address","internalType":"address"},{"name":"sableStakingAddress","type":"address","internalType":"address"},{"name":"systemStateAddress","type":"address","internalType":"address"},{"name":"oracleRateCalcAddress","type":"address","internalType":"address"},{"name":"troveHelperAddress","type":"address","internalType":"address"}]}],"outputs":[],"stateMutability":"nonpayable"},{"type":"function","name":"setTroveStatus","inputs":[{"name":"_borrower","type":"address","internalType":"address"},{"name":"_num","type":"uint256","internalType":"uint256"}],"outputs":[],"stateMutability":"nonpayable"},{"type":"function","name":"sortedTroves","inputs":[],"outputs":[{"name":"","type":"address","internalType":"contract ISortedTroves"}],"stateMutability":"view"},{"type":"function","name":"stabilityPool","inputs":[],"outputs":[{"name":"","type":"address","internalType":"contract IStabilityPool"}],"stateMutability":"view"},{"type":"function","name":"systemState","inputs":[],"outputs":[{"name":"","type":"address","internalType":"contract ISystemState"}],"stateMutability":"view"},{"type":"function","name":"timeLock","inputs":[],"outputs":[{"name":"","type":"address","internalType":"address"}],"stateMutability":"view"},{"type":"function","name":"totalCollateralSnapshot","inputs":[],"outputs":[{"name":"","type":"uint256","internalType":"uint256"}],"stateMutability":"view"},{"type":"function","name":"totalStakes","inputs":[],"outputs":[{"name":"","type":"uint256","internalType":"uint256"}],"stateMutability":"view"},{"type":"function","name":"totalStakesSnapshot","inputs":[],"outputs":[{"name":"","type":"uint256","internalType":"uint256"}],"stateMutability":"view"},{"type":"function","name":"troveHelper","inputs":[],"outputs":[{"name":"","type":"address","internalType":"contract ITroveHelper"}],"stateMutability":"view"},{"type":"function","name":"updateStakeAndTotalStakes","inputs":[{"name":"_borrower","type":"address","internalType":"address"}],"outputs":[{"name":"","type":"uint256","internalType":"uint256"}],"stateMutability":"nonpayable"},{"type":"function","name":"updateTroveRewardSnapshots","inputs":[{"name":"_borrower","type":"address","internalType":"address"}],"outputs":[],"stateMutability":"nonpayable"},{"type":"function","name":"usdsToken","inputs":[],"outputs":[{"name":"","type":"address","internalType":"contract IUSDSToken"}],"stateMutability":"view"},{"type":"event","name":"AddressesChanged","inputs":[{"name":"param","type":"tuple","indexed":false,"internalType":"struct ITroveManager.DependencyAddressParam","components":[{"name":"borrowerOperationsAddress","type":"address","internalType":"address"},{"name":"activePoolAddress","type":"address","internalType":"address"},{"name":"defaultPoolAddress","type":"address","internalType":"address"},{"name":"stabilityPoolAddress","type":"address","internalType":"address"},{"name":"gasPoolAddress","type":"address","internalType":"address"},{"name":"collSurplusPoolAddress","type":"address","internalType":"address"},{"name":"priceFeedAddress","type":"address","internalType":"address"},{"name":"usdsTokenAddress","type":"address","internalType":"address"},{"name":"sortedTrovesAddress","type":"address","internalType":"address"},{"name":"sableTokenAddress","type":"address","internalType":"address"},{"name":"sableStakingAddress","type":"address","internalType":"address"},{"name":"systemStateAddress","type":"address","internalType":"address"},{"name":"oracleRateCalcAddress","type":"address","internalType":"address"},{"name":"troveHelperAddress","type":"address","internalType":"address"}]}],"anonymous":false},{"type":"event","name":"BaseRateUpdated","inputs":[{"name":"_baseRate","type":"uint256","indexed":false,"internalType":"uint256"}],"anonymous":false},{"type":"event","name":"LTermsUpdated","inputs":[{"name":"_L_BNB","type":"uint256","indexed":false,"internalType":"uint256"},{"name":"_L_USDSDebt","type":"uint256","indexed":false,"internalType":"uint256"}],"anonymous":false},{"type":"event","name":"LastFeeOpTimeUpdated","inputs":[{"name":"_lastFeeOpTime","type":"uint256","indexed":false,"internalType":"uint256"}],"anonymous":false},{"type":"event","name":"Liquidation","inputs":[{"name":"_liquidatedDebt","type":"uint256","indexed":false,"internalType":"uint256"},{"name":"_liquidatedColl","type":"uint256","indexed":false,"internalType":"uint256"},{"name":"_collGasCompensation","type":"uint256","indexed":false,"internalType":"uint256"},{"name":"_USDSGasCompensation","type":"uint256","indexed":false,"internalType":"uint256"}],"anonymous":false},{"type":"event","name":"OwnershipTransferred","inputs":[{"name":"previousOwner","type":"address","indexed":true,"internalType":"address"},{"name":"newOwner","type":"address","indexed":true,"internalType":"address"}],"anonymous":false},{"type":"event","name":"Redemption","inputs":[{"name":"_attemptedUSDSAmount","type":"uint256","indexed":false,"internalType":"uint256"},{"name":"_actualUSDSAmount","type":"uint256","indexed":false,"internalType":"uint256"},{"name":"_BNBSent","type":"uint256","indexed":false,"internalType":"uint256"},{"name":"_BNBFee","type":"uint256","indexed":false,"internalType":"uint256"}],"anonymous":false},{"type":"event","name":"SystemSnapshotsUpdated","inputs":[{"name":"_totalStakesSnapshot","type":"uint256","indexed":false,"internalType":"uint256"},{"name":"_totalCollateralSnapshot","type":"uint256","indexed":false,"internalType":"uint256"}],"anonymous":false},{"type":"event","name":"TotalStakesUpdated","inputs":[{"name":"_newTotalStakes","type":"uint256","indexed":false,"internalType":"uint256"}],"anonymous":false},{"type":"event","name":"TroveIndexUpdated","inputs":[{"name":"_borrower","type":"address","indexed":false,"internalType":"address"},{"name":"_newIndex","type":"uint256","indexed":false,"internalType":"uint256"}],"anonymous":false},{"type":"event","name":"TroveLiquidated","inputs":[{"name":"_borrower","type":"address","indexed":true,"internalType":"address"},{"name":"_debt","type":"uint256","indexed":false,"internalType":"uint256"},{"name":"_coll","type":"uint256","indexed":false,"internalType":"uint256"},{"name":"_operation","type":"uint8","indexed":false,"internalType":"enum ITroveManager.TroveManagerOperation"}],"anonymous":false},{"type":"event","name":"TroveSnapshotsUpdated","inputs":[{"name":"_L_BNB","type":"uint256","indexed":false,"internalType":"uint256"},{"name":"_L_USDSDebt","type":"uint256","indexed":false,"internalType":"uint256"}],"anonymous":false},{"type":"event","name":"TroveUpdated","inputs":[{"name":"_borrower","type":"address","indexed":true,"internalType":"address"},{"name":"_debt","type":"uint256","indexed":false,"internalType":"uint256"},{"name":"_coll","type":"uint256","indexed":false,"internalType":"uint256"},{"name":"_stake","type":"uint256","indexed":false,"internalType":"uint256"},{"name":"_operation","type":"uint8","indexed":false,"internalType":"enum ITroveManager.TroveManagerOperation"}],"anonymous":false}],"bytecode":{"object":"0x608060405234801561001057600080fd5b50600580546001600160a01b031916339081179091556040516000907f8be0079c531659141344cd1fd0a4f28419497f9722a3daafe3b4186f6b6457e0908290a3615eff80620000616000396000f3fe608060405234801561001057600080fd5b50600436106103595760003560e01c806301f16e181461035e578063048c661d14610373578063071a7541146103915780630b076557146103a657806312610e92146103b957806315d549f1146103cc5780631673c79a146103df57806318f2817a146104005780631f68f20a1461041357806321e378011461041b57806323487d201461042e57806324092669146104365780633b2f0e4e1461043e5780633cbaec20146104465780633cc742251461044e578063472b286f14610456578063480cd578146104695780634870dd9a1461047c57806349eefeee146104845780634e443d9e1461048c57806358b8a5d6146104ac5780635d6b480f146104bf5780635dba4c4a146104d25780635f94c327146104da57806360ac128f146104ed57806361ec893d1461050057806364cee260146105085780636bf96eda1461051b5780636ef643381461052e57806372423c171461055257806372fe25aa14610565578063741bef1a1461056d578063756b253e14610575578063795d26c3146105885780637f7dde4a14610590578063807d138d1461059857806382fe3eb9146105a0578063887105d3146105b35780638da5cb5b146105bb5780638f32d59b146105c357806391571384146105cb578063948ba6d2146105de57806395f122ce146105f157806396d711ff14610604578063991292e31461060c5780639976cf4514610614578063a20baee614610565578063a22b7d6814610627578063ad1c3e621461063a578063ae9187541461064d578063b0d8e18114610655578063b36cd07f14610668578063b4b0954d1461067b578063b7f8cf9b14610683578063b82f263d1461068b578063b91af97c1461069e578063bf9befb1146106c1578063c35bc550146106c9578063c7b55481146106d1578063c9fccede146106d9578063cbd138ae146106ec578063cd54a5e9146106ff578063d085835a14610707578063d293c7101461070f578063d380a37c14610722578063d3d6f8431461072a578063d66a25531461073d578063d9a7244414610750578063ddc7aed414610763578063e2ac77b01461076b578063e5cedb571461077e578063f09c5c8f14610786578063f80911de14610799578063f8f8d174146107a1578063fe2ba848146107a9575b600080fd5b61037161036c36600461555b565b6107bc565b005b61037b610a10565b60405161038891906158a7565b60405180910390f35b610399610a1f565b6040516103889190615d6a565b6103716103b43660046153c3565b610a24565b6103996103c736600461544d565b610a49565b6103996103da3660046153c3565b610aa1565b6103f26103ed3660046153c3565b610b4c565b604051610388929190615d73565b61039961040e3660046153c3565b610b65565b610399610b78565b6103996104293660046153c3565b610b7e565b61037b610ba8565b610399610bb7565b61037b610bc2565b610399610bd1565b61037b610bd7565b61037161046436600461577e565b610be6565b6103996104773660046153c3565b6116f9565b610399611717565b61039961171c565b61049f61049a36600461574e565b611722565b60405161038891906159b0565b6103996104ba36600461574e565b61172d565b6103716104cd36600461544d565b61173b565b610371611787565b6103996104e836600461584f565b6117e0565b6103716104fb36600461581f565b6117fb565b610399611b7b565b6103996105163660046153c3565b611b80565b610371610529366004615478565b611b9e565b61054161053c3660046153c3565b611eef565b604051610388959493929190615da5565b61039961056036600461544d565b611f29565b610399611f86565b61037b611f92565b61037b61058336600461574e565b611fa1565b610399611fc8565b61037b6120f4565b610399612103565b6103716105ae3660046153c3565b612109565b61039961211a565b61037b6121f5565b61049f612204565b6103996105d936600461584f565b612215565b6103996105ec36600461574e565b612223565b6103996105ff3660046153c3565b612236565b6103996122fc565b61037b612302565b61039961062236600461544d565b612311565b61039961063536600461574e565b612344565b6103716106483660046153fb565b612357565b61037b6123c1565b6103996106633660046153c3565b6123d0565b61039961067636600461574e565b6123f4565b610399612402565b61037b612408565b61039961069936600461574e565b612417565b6106b16106ac3660046153c3565b612422565b6040516103889493929190615e11565b610399612486565b61039961248c565b610399612491565b6103996106e736600461584f565b61249d565b6103716106fa3660046153c3565b6124b1565b6103996124c4565b61037b6124ca565b61039961071d36600461544d565b6124d9565b6103996124f8565b61039961073836600461544d565b6124fe565b61039961074b3660046153c3565b612534565b61037b61075e36600461574e565b61254f565b61037b612579565b61049f6107793660046153c3565b612588565b6103996125e6565b6103996107943660046153c3565b6125ec565b61037b61261d565b61037b61262c565b6103716107b73660046153c3565b61263b565b6107c4612204565b6107e95760405162461bcd60e51b81526004016107e090615b19565b60405180910390fd5b80516107f49061264c565b610801816020015161264c565b61080e816040015161264c565b61081b816060015161264c565b610828816080015161264c565b6108358160a0015161264c565b6108428160c0015161264c565b61084f8160e0015161264c565b61085d81610100015161264c565b61086b81610120015161264c565b61087981610140015161264c565b61088781610160015161264c565b61089581610180015161264c565b6108a3816101a0015161264c565b8051600680546001600160a01b03199081166001600160a01b039384161790915560208301516001805483169184169190911790556040808401516002805484169185169190911790556060840151600780548416918516919091179055608084015160088054841691851691909117905560a084015160098054841691851691909117905560c084015160038054841691851691909117905560e0840151600a80548416918516919091179055610100840151600d80548416918516919091179055610120840151600b80548416918516919091179055610140840151600c80548416918516919091179055610160840151600480548416918516919091179055610180840151600e805484169185169190911790556101a0840151600f80549093169316929092179055517f9ba6e846e6c99c2990e180615ff084cd7dc0b8478058e7d26faf69f9f21891ca906109fd908390615c14565b60405180910390a1610a0d612695565b50565b6007546001600160a01b031681565b600281565b610a2c6126df565b600154600254610a0d916001600160a01b0390811691168361270b565b6000610a536126df565b6001600160a01b038316600090815260126020526040812054610a7c908463ffffffff61281d16565b6001600160a01b03851660009081526012602052604090208190559150505b92915050565b6000610aab6126df565b601980546001808201835560008381527f944998273e477b495144fb8794c914197f3ccb46be2900f4698fd0ef743c969590920180546001600160a01b0319166001600160a01b03871617905591549091610b06919061281d565b6001600160a01b03841660009081526012602052604090206003018054610100600160881b0319166101006001600160801b03939093169283021790559150505b919050565b6018602052600090815260409020805460019091015482565b6000610b6f6126df565b610a9b8261285f565b60105481565b6001600160a01b03811660009081526012602052604081206003015460ff166004811115610a9b57fe5b600f546001600160a01b031681565b66b1a2bc2ec5000081565b600b546001600160a01b031681565b601b5481565b6002546001600160a01b031681565b610bee615111565b506040805160e0810182526001546001600160a01b03908116825260025481166020830152600a54811692820192909252600c5482166060820152600d5482166080820152600954821660a082015260085490911660c0820152610c5061514d565b600f5460405163ddd88be560e01b81526000916001600160a01b03169063ddd88be590610c81908990600401615d6a565b60006040518083038186803b158015610c9957600080fd5b505afa158015610cad573d6000803e3d6000fd5b50505050600f60009054906101000a90046001600160a01b03166001600160a01b031663c640c3766040518163ffffffff1660e01b815260040160006040518083038186803b158015610cff57600080fd5b505afa158015610d13573d6000803e3d6000fd5b50505050610d1f615192565b600354604051634e15f2a560e01b81526001600160a01b0390911690634e15f2a590610d51908990899060040161591a565b608060405180830381600087803b158015610d6b57600080fd5b505af1158015610d7f573d6000803e3d6000fd5b505050506040513d601f19601f82011682018060405250810190610da39190615689565b805160c0850152600e54602082015160408084015160608501519151631ba21c6b60e11b81529495506001600160a01b039093169363374438d693610ded939290916004016159bb565b60206040518083038186803b158015610e0557600080fd5b505afa158015610e19573d6000803e3d6000fd5b505050506040513d601f19601f82011682018060405250810190610e3d9190615766565b600f5460c085015160405163febf7cc760e01b81529294506001600160a01b03909116925063febf7cc791610e759190600401615d6a565b60006040518083038186803b158015610e8d57600080fd5b505afa158015610ea1573d6000803e3d6000fd5b5050600f54604051632b60a45160e11b81526001600160a01b0390911692506356c148a29150610ed5908f90600401615d6a565b60006040518083038186803b158015610eed57600080fd5b505afa158015610f01573d6000803e3d6000fd5b50505050600f60009054906101000a90046001600160a01b03166001600160a01b0316638cf306448460400151338f6040518463ffffffff1660e01b8152600401610f4e939291906158d4565b60006040518083038186803b158015610f6657600080fd5b505afa158015610f7a573d6000803e3d6000fd5b50505050610f86611fc8565b60e0830181905260408085015190516370a0823160e01b81526001600160a01b03909116906370a0823190610fbf9033906004016158a7565b60206040518083038186803b158015610fd757600080fd5b505afa158015610feb573d6000803e3d6000fd5b505050506040513d601f19601f8201168201806040525081019061100f9190615766565b111561101757fe5b8b8260000181815250506000600f60009054906101000a90046001600160a01b03166001600160a01b03166352576cdf85608001518e8660c001516040518463ffffffff1660e01b8152600401611070939291906158d4565b60206040518083038186803b15801561108857600080fd5b505afa15801561109c573d6000803e3d6000fd5b505050506040513d601f19601f820116820180604052508101906110c0919061553b565b156110cc57508a61126d565b83608001516001600160a01b0316634d6228316040518163ffffffff1660e01b815260040160206040518083038186803b15801561110957600080fd5b505afa15801561111d573d6000803e3d6000fd5b505050506040513d601f19601f8201168201806040525081019061114191906153df565b90505b6001600160a01b038116158015906111e15750600480546040805163044936b160e41b815290516001600160a01b03909216926344936b10928282019260209290829003018186803b15801561119957600080fd5b505afa1580156111ad573d6000803e3d6000fd5b505050506040513d601f19601f820116820180604052508101906111d19190615766565b6111df828560c001516124d9565b105b1561126d5783608001516001600160a01b031663b72703ac826040518263ffffffff1660e01b815260040161121691906158a7565b60206040518083038186803b15801561122e57600080fd5b505afa158015611242573d6000803e3d6000fd5b505050506040513d601f19601f8201168201806040525081019061126691906153df565b9050611144565b876112785760001997505b6001600160a01b038116158015906112905750825115155b801561129c5750600088115b15611420576080840151604051632dc9c0eb60e21b8152600019909901986000916001600160a01b03169063b72703ac906112db9085906004016158a7565b60206040518083038186803b1580156112f357600080fd5b505afa158015611307573d6000803e3d6000fd5b505050506040513d601f19601f8201168201806040525081019061132b91906153df565b9050611340856000015186602001518461270b565b6113486151bd565b6040518060e00160405280878152602001846001600160a01b03168152602001866000015181526020018660c0015181526020018e6001600160a01b031681526020018d6001600160a01b031681526020018c81525090506113a8615200565b6113b182612912565b90508060400151156113c557505050611420565b805160208701516113db9163ffffffff612d2a16565b60208088019190915281015160408701516113fb9163ffffffff612d2a16565b6040870152805186516114139163ffffffff61281d16565b8652509091506112789050565b60008360400151116114445760405162461bcd60e51b81526004016107e090615a52565b61145b83604001518460c001518560e00151612d4f565b5061146a836040015183612ddf565b606084018190526040840151611481919089612ded565b835160608086015190850151604051630a569c3760e41b81526001600160a01b039093169263a569c370926114ba9290916004016158bb565b600060405180830381600087803b1580156114d457600080fd5b505af11580156114e8573d6000803e3d6000fd5b5050505083606001516001600160a01b03166301c5acfa84606001516040518263ffffffff1660e01b81526004016115209190615d6a565b600060405180830381600087803b15801561153a57600080fd5b505af115801561154e573d6000803e3d6000fd5b50505050606083015160408401516115659161281d565b8360800181815250507f43a3f4082a4dbc33d78e317d2497d3a730bc7fc3574159dcea1056e62e5d9ad88d8460200151856040015186606001516040516115af9493929190615e11565b60405180910390a183604001516001600160a01b0316639dc29fac3385602001516040518363ffffffff1660e01b81526004016115ed9291906158bb565b600060405180830381600087803b15801561160757600080fd5b505af115801561161b573d6000803e3d6000fd5b505085516020860151604051637d9ee87160e11b81526001600160a01b03909216935063fb3dd0e2925061165191600401615d6a565b600060405180830381600087803b15801561166b57600080fd5b505af115801561167f573d6000803e3d6000fd5b505085516080860151604051630a569c3760e41b81526001600160a01b03909216935063a569c37092506116b8913391906004016158bb565b600060405180830381600087803b1580156116d257600080fd5b505af11580156116e6573d6000803e3d6000fd5b5050505050505050505050505050505050565b6001600160a01b031660009081526012602052604090206001015490565b60c881565b60195490565b6000610a9b82612e2d565b6000610a9b60105483612ecd565b6117436126df565b80600481111561174f57fe5b6001600160a01b0383166000908152601260205260409020600301805460ff1916600183600481111561177e57fe5b02179055505050565b61178f6126df565b6000611799612f60565b9050670de0b6b3a76400008111156117ad57fe5b6010819055604051600080516020615ed3833981519152906117d0908390615d6a565b60405180910390a1610a0d612fb6565b60006117f46117ee83612223565b84613016565b9392505050565b611803615111565b506040805160e0810182526001546001600160a01b03908116825260025481166020830152600092820183905260608201839052600d548116608083015260a0820183905260c082019290925260075490911661185e615223565b611866615254565b61186e615192565b600354604051634e15f2a560e01b81526001600160a01b0390911690634e15f2a5906118a0908a908a9060040161591a565b608060405180830381600087803b1580156118ba57600080fd5b505af11580156118ce573d6000803e3d6000fd5b505050506040513d601f19601f820116820180604052508101906118f29190615689565b90508060000151836000018181525050836001600160a01b0316633927e0066040518163ffffffff1660e01b815260040160206040518083038186803b15801561193b57600080fd5b505afa15801561194f573d6000803e3d6000fd5b505050506040513d601f19601f820116820180604052508101906119739190615766565b6020840152825161198390612e2d565b15801560408501526119aa576119a385846000015185602001518b613034565b91506119ca565b6119c785600001518660200151856000015186602001518c61346a565b91505b60008260200151116119d857fe5b608082015160a083015160405163335525ad60e01b81526001600160a01b0387169263335525ad92611a0c92600401615d73565b600060405180830381600087803b158015611a2657600080fd5b505af1158015611a3a573d6000803e3d6000fd5b50505050611a5a856000015186602001518460c001518560e0015161361b565b61010082015115611ad1578451600954610100840151604051630a569c3760e41b81526001600160a01b039384169363a569c37093611a9e939116916004016158bb565b600060405180830381600087803b158015611ab857600080fd5b505af1158015611acc573d6000803e3d6000fd5b505050505b611ae38560000151836040015161387e565b6020820151606084015261010082015160408301518351611b1b9291611b0f919063ffffffff61281d16565b9063ffffffff61281d16565b60808401819052606080850151604080860151928601519051600080516020615e9383398151915294611b519490929091615e11565b60405180910390a1611b71856000015133846060015185604001516139ba565b5050505050505050565b603c81565b6001600160a01b031660009081526012602052604090206002015490565b8251611bbc5760405162461bcd60e51b81526004016107e090615b4e565b6001546002546007546001600160a01b03928316929182169116611bde615223565b611be6615254565b611bee615192565b600354604051634e15f2a560e01b81526001600160a01b0390911690634e15f2a590611c20908b908b9060040161591a565b608060405180830381600087803b158015611c3a57600080fd5b505af1158015611c4e573d6000803e3d6000fd5b505050506040513d601f19601f82011682018060405250810190611c729190615689565b90508060000151836000018181525050836001600160a01b0316633927e0066040518163ffffffff1660e01b815260040160206040518083038186803b158015611cbb57600080fd5b505afa158015611ccf573d6000803e3d6000fd5b505050506040513d601f19601f82011682018060405250810190611cf39190615766565b60208401528251611d0390612e2d565b1580156040850152611d2b57611d248686856000015186602001518d613a8d565b9150611d43565b611d408686856000015186602001518d613d2b565b91505b6000826020015111611d675760405162461bcd60e51b81526004016107e090615a6d565b608082015160a083015160405163335525ad60e01b81526001600160a01b0387169263335525ad92611d9b92600401615d73565b600060405180830381600087803b158015611db557600080fd5b505af1158015611dc9573d6000803e3d6000fd5b50505050611de186868460c001518560e0015161361b565b61010082015115611e5857600954610100830151604051630a569c3760e41b81526001600160a01b038981169363a569c37093611e259392909116916004016158bb565b600060405180830381600087803b158015611e3f57600080fd5b505af1158015611e53573d6000803e3d6000fd5b505050505b611e6686836040015161387e565b6020820151606084015261010082015160408301518351611e929291611b0f919063ffffffff61281d16565b60808401819052606080850151604080860151928601519051600080516020615e9383398151915294611ec89490929091615e11565b60405180910390a1611ee48633846060015185604001516139ba565b505050505050505050565b60126020526000908152604090208054600182015460028301546003909301549192909160ff81169061010090046001600160801b031685565b6000611f336126df565b6001600160a01b038316600090815260126020526040812060010154611f5f908463ffffffff612d2a16565b6001600160a01b038516600090815260126020526040902060010181905591505092915050565b670de0b6b3a764000081565b6003546001600160a01b031681565b60198181548110611fae57fe5b6000918252602090912001546001600160a01b0316905081565b600080600160009054906101000a90046001600160a01b03166001600160a01b0316635227d6a86040518163ffffffff1660e01b815260040160206040518083038186803b15801561201957600080fd5b505afa15801561202d573d6000803e3d6000fd5b505050506040513d601f19601f820116820180604052508101906120519190615766565b90506000600260009054906101000a90046001600160a01b03166001600160a01b0316635227d6a86040518163ffffffff1660e01b815260040160206040518083038186803b1580156120a357600080fd5b505afa1580156120b7573d6000803e3d6000fd5b505050506040513d601f19601f820116820180604052508101906120db9190615766565b90506120ed828263ffffffff612d2a16565b9250505090565b6001546001600160a01b031681565b60145481565b6121116126df565b610a0d81613e6b565b600080600160009054906101000a90046001600160a01b03166001600160a01b03166378a619de6040518163ffffffff1660e01b815260040160206040518083038186803b15801561216b57600080fd5b505afa15801561217f573d6000803e3d6000fd5b505050506040513d601f19601f820116820180604052508101906121a39190615766565b90506000600260009054906101000a90046001600160a01b03166001600160a01b03166378a619de6040518163ffffffff1660e01b815260040160206040518083038186803b1580156120a357600080fd5b6005546001600160a01b031690565b6005546001600160a01b0316331490565b60006117f46117ee836123f4565b6000610a9b612230612f60565b83613ec8565b6001600160a01b0381166000908152601860205260408120546016548290612264908363ffffffff61281d16565b905080158061229d575060016001600160a01b03851660009081526012602052604090206003015460ff16600481111561229a57fe5b14155b156122ad57600092505050610b47565b6001600160a01b038416600090815260126020526040812060020154906122f2670de0b6b3a76400006122e6848663ffffffff613f3016565b9063ffffffff613f6a16565b9695505050505050565b60155481565b6004546001600160a01b031681565b600061231b6126df565b6001600160a01b038316600090815260126020526040812054610a7c908463ffffffff612d2a16565b6000610a9b612351612f60565b83612ecd565b61236083613fa9565b60408051600180825281830190925260609160208083019080368337019050509050838160008151811061239057fe5b60200260200101906001600160a01b031690816001600160a01b0316815250506123bb818484611b9e565b50505050565b600d546001600160a01b031681565b60008060006123de84613ff2565b915091506123ec8282614070565b949350505050565b6000610a9b60105483613ec8565b60175481565b6006546001600160a01b031681565b6000610a9b826140a5565b6001600160a01b0381166000908152601260205260408120805460019091015490918061244e856125ec565b915061245985612236565b905061246b848363ffffffff612d2a16565b935061247d838263ffffffff612d2a16565b92509193509193565b60135481565b600081565b670ddd4b8c6c7d70d881565b60006117f46124ab83612344565b846140c9565b6124b96126df565b610a0d816002614109565b60165481565b6000546001600160a01b031681565b60008060006124e785613ff2565b9150915060006122f2838387614274565b60115481565b60006125086126df565b6001600160a01b038316600090815260126020526040812060010154611f5f908463ffffffff61281d16565b6001600160a01b031660009081526012602052604090205490565b60006019828154811061255e57fe5b6000918252602090912001546001600160a01b031692915050565b600e546001600160a01b031681565b600060016001600160a01b03831660009081526012602052604090206003015460ff1660048111156125b657fe5b146125c357506000610b47565b506016546001600160a01b03821660009081526018602052604090205410919050565b601a5481565b6001600160a01b0381166000908152601860205260408120600101546017548290612264908363ffffffff61281d16565b600c546001600160a01b031681565b600a546001600160a01b031681565b6126436126df565b610a0d816142a4565b6001600160a01b0381166126725760405162461bcd60e51b81526004016107e090615b84565b803b806126915760405162461bcd60e51b81526004016107e090615bbe565b5050565b6005546040516000916001600160a01b0316907f8be0079c531659141344cd1fd0a4f28419497f9722a3daafe3b4186f6b6457e0908390a3600580546001600160a01b0319169055565b6006546001600160a01b031633146127095760405162461bcd60e51b81526004016107e090615ba3565b565b61271481612588565b156128185761272281613fa9565b600061272d82612236565b9050600061273a836125ec565b6001600160a01b038416600090815260126020526040902060010154909150612769908363ffffffff612d2a16565b6001600160a01b038416600090815260126020526040902060018101919091555461279a908263ffffffff612d2a16565b6001600160a01b0384166000908152601260205260409020556127bc83613e6b565b6127c8858583856142f2565b6001600160a01b038316600081815260126020526040808220805460018201546002909201549251600080516020615eb38339815191529461280d9492939291615de5565b60405180910390a250505b505050565b60006117f483836040518060400160405280601e81526020017f536166654d6174683a207375627472616374696f6e206f766572666c6f7700008152506143da565b6001600160a01b038116600090815260126020526040812060010154819061288690614406565b6001600160a01b0384166000908152601260205260409020600201805490829055601354919250906128d09083906128c4908463ffffffff61281d16565b9063ffffffff612d2a16565b60138190556040517f6bac5e0eb3c44eb03a60ab11ec3a2c051771616aecadbcfff2630aabae5203829161290391615d6a565b60405180910390a15092915050565b61291a615200565b6129226152a0565b6004805460408051631549b76d60e01b815290516001600160a01b0390921692631549b76d928282019260209290829003018186803b15801561296457600080fd5b505afa158015612978573d6000803e3d6000fd5b505050506040513d601f19601f8201168201806040525081019061299c9190615766565b8152600480546040805163c4dc70d360e01b815290516001600160a01b039092169263c4dc70d3928282019260209290829003018186803b1580156129e057600080fd5b505afa1580156129f4573d6000803e3d6000fd5b505050506040513d601f19601f82011682018060405250810190612a189190615766565b6020808301919091526040808501518351868401516001600160a01b0316600090815260129094529190922054612a5f9291612a5a919063ffffffff61281d16565b614442565b8083526060840151612a83916122e690670de0b6b3a764000063ffffffff613f3016565b6020808401919091528251848201516001600160a01b031660009081526012909252604090912054612aba9163ffffffff61281d16565b604080830191909152602080840151858201516001600160a01b03166000908152601290925291902060010154612af69163ffffffff61281d16565b6060820152805160408201511415612b8157612b1583602001516142a4565b612b2483602001516004614109565b612b408360000151846020015183600001518460600151614458565b82602001516001600160a01b0316600080516020615eb383398151915260008060006003604051612b7494939291906159d1565b60405180910390a2612d24565b6000612b9582606001518360400151614070565b90508360c0015181141580612bb957508160200151612bb783604001516145bb565b105b15612bcc57505060016040820152610b47565b612bd46152c8565b604051806080016040528086602001516001600160a01b0316815260200183815260200186608001516001600160a01b031681526020018660a001516001600160a01b031681525090508460000151608001516001600160a01b031663806093b8826040518263ffffffff1660e01b8152600401612c529190615d31565b600060405180830381600087803b158015612c6c57600080fd5b505af1158015612c80573d6000803e3d6000fd5b505050604080850151602080890180516001600160a01b0390811660009081526012909352848320939093556060880151815190931682529290206001015551612cca915061285f565b5060208086015160408086015160608701516001600160a01b039093166000818152601290955293829020600201549151600080516020615eb383398151915293612d19939091600390615de5565b60405180910390a250505b50919050565b6000828201838110156117f45760405162461bcd60e51b81526004016107e090615a88565b600080612d66836122e6878763ffffffff613f3016565b90506000612d97612d89612d8184600263ffffffff613f6a16565b6128c4612f60565b670de0b6b3a7640000614442565b905060008111612da357fe5b6010819055604051600080516020615ed383398151915290612dc6908390615d6a565b60405180910390a1612dd6612fb6565b95945050505050565b60006117f46124ab8361172d565b6000612e0b836122e686670de0b6b3a764000063ffffffff613f3016565b9050818111156123bb5760405162461bcd60e51b81526004016107e090615bdd565b600080612e39836140a5565b90506000600460009054906101000a90046001600160a01b03166001600160a01b031663bb4095226040518163ffffffff1660e01b815260040160206040518083038186803b158015612e8b57600080fd5b505afa158015612e9f573d6000803e3d6000fd5b505050506040513d601f19601f82011682018060405250810190612ec39190615766565b9091109392505050565b60006117f4612d89836128c486600460009054906101000a90046001600160a01b03166001600160a01b0316638abf30b36040518163ffffffff1660e01b815260040160206040518083038186803b158015612f2857600080fd5b505afa158015612f3c573d6000803e3d6000fd5b505050506040513d601f19601f820116820180604052508101906128c49190615766565b600080612f7d603c6122e66011544261281d90919063ffffffff16565b90506000612f93670ddd4b8c6c7d70d883614649565b90506120ed670de0b6b3a76400006122e683601054613f3090919063ffffffff16565b6000612fcd6011544261281d90919063ffffffff16565b9050603c8110610a0d574260118190556040517f860f8d2f0c74dd487e89e2883e3b25b8159ce1e1b3433a291cba7b82c508f3bc9161300b91615d6a565b60405180910390a150565b60006117f4670de0b6b3a76400006122e6858563ffffffff613f3016565b61303c615254565b6130446152ef565b61304c615254565b848252600060a083015261305e611fc8565b60c083015261306b61211a565b8260e001818152505086608001516001600160a01b0316634d6228316040518163ffffffff1660e01b815260040160206040518083038186803b1580156130b157600080fd5b505afa1580156130c5573d6000803e3d6000fd5b505050506040513d601f19601f820116820180604052508101906130e991906153df565b82606001906001600160a01b031690816001600160a01b03168152505086608001516001600160a01b0316631e2231436040518163ffffffff1660e01b815260040160206040518083038186803b15801561314357600080fd5b505afa158015613157573d6000803e3d6000fd5b505050506040513d601f19601f8201168201806040525081019061317b91906153df565b6001600160a01b039081166080840152600480546040805163044936b160e41b8152905191909316926344936b109281810192602092909190829003018186803b1580156131c857600080fd5b505afa1580156131dc573d6000803e3d6000fd5b505050506040513d601f19601f820116820180604052508101906132009190615766565b610100830152600060208301525b83826020015110801561323b575081608001516001600160a01b031682606001516001600160a01b031614155b156134605760808701516060830151604051632dc9c0eb60e21b81526000926001600160a01b03169163b72703ac9161327791906004016158a7565b60206040518083038186803b15801561328f57600080fd5b505afa1580156132a3573d6000803e3d6000fd5b505050506040513d601f19601f820116820180604052508101906132c791906153df565b90506132d78360600151886124d9565b604084015260a08301516133d5578261010001518360400151101580156132fd57508251155b156133085750613460565b600061331d8460e001518560c001518a614274565b895160208b015160608701516040880151885194955061333e94868e6146f4565b60808101518551919450613358919063ffffffff61281d16565b8452608083015160c08501516133739163ffffffff61281d16565b60c0850152610100830151604084015160a085015160e08701516133a59392611b0f929091839163ffffffff61281d16565b60e08501526133b48584614b3a565b94506133c98460e001518560c001518a614c51565b1560a085015250613442565b8260a0015180156133ee57508261010001518360400151105b1561343c5761340f8860000151896020015185606001518660000151614ced565b60808101518451919350613429919063ffffffff61281d16565b83526134358483614b3a565b9350613442565b50613460565b6001600160a01b03166060830152602082018051600101905261320e565b5050949350505050565b613472615254565b61347a6152ef565b613482615254565b600d54858352600480546040805163044936b160e41b815290516001600160a01b03948516946000949316926344936b1092808201926020929091829003018186803b1580156134d157600080fd5b505afa1580156134e5573d6000803e3d6000fd5b505050506040513d601f19601f820116820180604052508101906135099190615766565b6000602086015290505b858460200151101561360e57816001600160a01b0316634d6228316040518163ffffffff1660e01b815260040160206040518083038186803b15801561355857600080fd5b505afa15801561356c573d6000803e3d6000fd5b505050506040513d601f19601f8201168201806040525081019061359091906153df565b6001600160a01b0316606085018190526135aa90896124d9565b604085018190528111156135f9576135cc8a8a86606001518760000151614ced565b608081015185519194506135e6919063ffffffff61281d16565b84526135f28584614b3a565b94506135fe565b61360e565b6020840180516001019052613513565b5050505095945050505050565b81613625576123bb565b601a54600090613647906128c484670de0b6b3a764000063ffffffff613f3016565b9050600061366c601b546128c4670de0b6b3a764000087613f3090919063ffffffff16565b9050600061368560135484613f6a90919063ffffffff16565b9050600061369e60135484613f6a90919063ffffffff16565b90506136c56136b860135484613f3090919063ffffffff16565b859063ffffffff61281d16565b601a556013546136ed906136e090839063ffffffff613f3016565b849063ffffffff61281d16565b601b55601654613703908363ffffffff612d2a16565b601655601754613719908263ffffffff612d2a16565b60178190556016546040517f9f8bc8ab0daf5bceef75ecfd2085d1fcc6548c657ea970d9a23a60610d0737e3926137509291615d73565b60405180910390a1604051637d9ee87160e11b81526001600160a01b0389169063fb3dd0e290613784908990600401615d6a565b600060405180830381600087803b15801561379e57600080fd5b505af11580156137b2573d6000803e3d6000fd5b50506040516333681ca560e21b81526001600160a01b038a16925063cda0729491506137e2908990600401615d6a565b600060405180830381600087803b1580156137fc57600080fd5b505af1158015613810573d6000803e3d6000fd5b5050604051630a569c3760e41b81526001600160a01b038b16925063a569c3709150613842908a9089906004016158bb565b600060405180830381600087803b15801561385c57600080fd5b505af1158015613870573d6000803e3d6000fd5b505050505050505050505050565b60135460145560025460408051633c530cef60e11b81529051613977926001600160a01b0316916378a619de916004808301926020929190829003018186803b1580156138ca57600080fd5b505afa1580156138de573d6000803e3d6000fd5b505050506040513d601f19601f820116820180604052508101906139029190615766565b6128c483856001600160a01b03166378a619de6040518163ffffffff1660e01b815260040160206040518083038186803b15801561393f57600080fd5b505afa158015613953573d6000803e3d6000fd5b505050506040513d601f19601f82011682018060405250810190611b0f9190615766565b60158190556014546040517f51bf4c63ec3cba9d03d43238abbdd979dd91bd16d9895c74ceea9118c7baaf60926139ae9291615d73565b60405180910390a15050565b8115613a2b57600a54600854604051631062c15f60e11b81526001600160a01b03928316926320c582be926139f892911690879087906004016158d4565b600060405180830381600087803b158015613a1257600080fd5b505af1158015613a26573d6000803e3d6000fd5b505050505b80156123bb57604051630a569c3760e41b81526001600160a01b0385169063a569c37090613a5f90869085906004016158bb565b600060405180830381600087803b158015613a7957600080fd5b505af1158015611b71573d6000803e3d6000fd5b613a95615254565b613a9d6152ef565b613aa5615254565b848252600060a0830152613ab7611fc8565b60c0830152613ac461211a565b60e0830152600480546040805163044936b160e41b815290516000936001600160a01b03909316926344936b1092808201926020929091829003018186803b158015613b0f57600080fd5b505afa158015613b23573d6000803e3d6000fd5b505050506040513d601f19601f82011682018060405250810190613b479190615766565b6000602085015290505b845183602001511015613d1f5784836020015181518110613b6e57fe5b6020908102919091018101516001600160a01b03166060850181905260009081526012909152604090206003015460019060ff166004811115613bad57fe5b14613bb757613d0f565b613bc58360600151886124d9565b604084015260a0830151613cb95780836040015110158015613be657508251155b15613bf057613d0f565b6000613c058460e001518560c001518a614274565b9050613c228a8a866060015187604001518860000151868e6146f4565b60808101518551919450613c3c919063ffffffff61281d16565b8452608083015160c0850151613c579163ffffffff61281d16565b60c0850152610100830151604084015160a085015160e0870151613c899392611b0f929091839163ffffffff61281d16565b60e0850152613c988584614b3a565b9450613cad8460e001518560c001518a614c51565b1560a085015250613d0f565b8260a001518015613ccd5750808360400151105b15613d0f57613ce6898985606001518660000151614ced565b60808101518451919350613d00919063ffffffff61281d16565b8352613d0c8483614b3a565b93505b6020830180516001019052613b51565b50505095945050505050565b613d33615254565b613d3b6152ef565b613d43615254565b848252600480546040805163044936b160e41b815290516000936001600160a01b03909316926344936b1092808201926020929091829003018186803b158015613d8c57600080fd5b505afa158015613da0573d6000803e3d6000fd5b505050506040513d601f19601f82011682018060405250810190613dc49190615766565b6000602085015290505b845183602001511015613d1f5784836020015181518110613deb57fe5b60209081029190910101516001600160a01b031660608401819052613e1090886124d9565b60408401819052811115613e5b57613e32898985606001518660000151614ced565b60808101518451919350613e4c919063ffffffff61281d16565b8352613e588483614b3a565b93505b6020830180516001019052613dce565b601680546001600160a01b038316600090815260186020526040908190209182556017546001909201829055915491517fc437f324d85e369394148dd9d62f98f534b382e01ed3dd2eb98138fb6d3ab49a9261300b929091615d73565b60006117f4613f23836128c486600460009054906101000a90046001600160a01b03166001600160a01b0316635e9e32126040518163ffffffff1660e01b815260040160206040518083038186803b158015612f2857600080fd5b66b1a2bc2ec50000614442565b600082613f3f57506000610a9b565b82820282848281613f4c57fe5b04146117f45760405162461bcd60e51b81526004016107e090615ad8565b60006117f483836040518060400160405280601a815260200179536166654d6174683a206469766973696f6e206279207a65726f60301b815250614e96565b60016001600160a01b03821660009081526012602052604090206003015460ff166004811115613fd557fe5b14610a0d5760405162461bcd60e51b81526004016107e090615abd565b600080600061400084612236565b9050600061400d856125ec565b6001600160a01b03861660009081526012602052604090206001015490915061403c908363ffffffff612d2a16565b6001600160a01b038616600090815260126020526040902054614065908363ffffffff612d2a16565b935093505050915091565b6000811561409c57614095826122e68568056bc75e2d6310000063ffffffff613f3016565b9050610a9b565b50600019610a9b565b6000806140b061211a565b905060006140bc611fc8565b90506123ec828286614274565b6000806140e8670de0b6b3a76400006122e6868663ffffffff613f3016565b90508281106117f45760405162461bcd60e51b81526004016107e090615b69565b600081600481111561411757fe5b141580156141315750600181600481111561412e57fe5b14155b61413757fe5b601954600f546040516301ff3f2760e01b81526001600160a01b03909116906301ff3f279061416a908490600401615d6a565b60006040518083038186803b15801561418257600080fd5b505afa158015614196573d6000803e3d6000fd5b5050506001600160a01b0384166000908152601260205260409020600301805484925060ff191660018360048111156141cb57fe5b02179055506001600160a01b038316600090815260126020908152604080832060018082018590559084905560189092528220828155015561420d8382614ecd565b600d54604051631484968760e11b81526001600160a01b03909116906329092d0e9061423d9086906004016158a7565b600060405180830381600087803b15801561425757600080fd5b505af115801561426b573d6000803e3d6000fd5b50505050505050565b6000821561429b576000614292846122e6878663ffffffff613f3016565b91506117f49050565b506000196117f4565b6001600160a01b0381166000908152601260205260409020600201546013546142d29163ffffffff61281d16565b6013556001600160a01b0316600090815260126020526040812060020155565b604051637d9ee87160e11b81526001600160a01b0384169063fb3dd0e29061431e908590600401615d6a565b600060405180830381600087803b15801561433857600080fd5b505af115801561434c573d6000803e3d6000fd5b50506040516333681ca560e21b81526001600160a01b038716925063cda07294915061437c908590600401615d6a565b600060405180830381600087803b15801561439657600080fd5b505af11580156143aa573d6000803e3d6000fd5b50506040516306fc5daf60e01b81526001600160a01b03861692506306fc5daf9150613a5f908490600401615d6a565b600081848411156143fe5760405162461bcd60e51b81526004016107e091906159ff565b505050900390565b6000806015546000141561441b575081610a9b565b60006014541161442757fe5b6117f46015546122e660145486613f3090919063ffffffff16565b600081831061445157816117f4565b5090919050565b6040808501516008549151632770a7eb60e21b81526001600160a01b0391821692639dc29fac926144909291169086906004016158bb565b600060405180830381600087803b1580156144aa57600080fd5b505af11580156144be573d6000803e3d6000fd5b50508551604051637d9ee87160e11b81526001600160a01b03909116925063fb3dd0e291506144f1908590600401615d6a565b600060405180830381600087803b15801561450b57600080fd5b505af115801561451f573d6000803e3d6000fd5b505050508360a001516001600160a01b0316633f10abab84836040518363ffffffff1660e01b81526004016145559291906158bb565b600060405180830381600087803b15801561456f57600080fd5b505af1158015614583573d6000803e3d6000fd5b5050855160a0870151604051630a569c3760e41b81526001600160a01b03909216935063a569c3709250613a5f9185906004016158bb565b6004805460408051631549b76d60e01b8152905160009384936001600160a01b031692631549b76d9281830192602092829003018186803b1580156145ff57600080fd5b505afa158015614613573d6000803e3d6000fd5b505050506040513d601f19601f820116820180604052508101906146379190615766565b90506117f4838263ffffffff61281d16565b6000631f54050082111561465f57631f54050091505b816146735750670de0b6b3a7640000610a9b565b670de0b6b3a764000083835b60018111156146ea57600281066146b45761469a828361506b565b91506146ad81600263ffffffff613f6a16565b90506146e5565b6146be828461506b565b92506146ca828361506b565b91506146e260026122e683600163ffffffff61281d16565b90505b61467f565b6122f2828461506b565b6146fc615254565b61470461534f565b6019546001106147145750614b2f565b61471d87612422565b6040850152602084810191909152840181905290835261473c9061509e565b60408084019190915260048054825163044936b160e41b815292516000936001600160a01b03909216926344936b1092808201926020929091829003018186803b15801561478957600080fd5b505afa15801561479d573d6000803e3d6000fd5b505050506040513d601f19601f820116820180604052508101906147c19190615766565b9050600460009054906101000a90046001600160a01b03166001600160a01b0316631549b76d6040518163ffffffff1660e01b815260040160206040518083038186803b15801561481157600080fd5b505afa158015614825573d6000803e3d6000fd5b505050506040513d601f19601f820116820180604052508101906148499190615766565b6060840152604083015160208401516148679163ffffffff61281d16565b8252670de0b6b3a764000087116149325761488c8a8a846020015185604001516142f2565b614895886142a4565b60006080840181905260a0840152825160c0840152815160e08401526148bc886003614109565b825160208401516040516001600160a01b038b1692600080516020615e73833981519152926148ed92600290615d81565b60405180910390a2876001600160a01b0316600080516020615eb38339815191526000806000600260405161492594939291906159d1565b60405180910390a2614b2c565b670de0b6b3a76400008711801561494857508087105b15614998576149618a8a846020015185604001516142f2565b61496a886142a4565b825182516149799190886150a5565b60e087015260c086015260a085015260808401526148bc886003614109565b8087101580156149a757508487105b80156149b4575082518610155b15614b1a576149cd8a8a846020015185604001516142f2565b856149d457fe5b6149dd886142a4565b600f548351602085015160405163372bed0560e21b81526001600160a01b039093169263dcafb41492614a1692909189906004016159bb565b6101206040518083038186803b158015614a2f57600080fd5b505afa158015614a43573d6000803e3d6000fd5b505050506040513d601f19601f82011682018060405250810190614a6791906156d0565b9250614a74886003614109565b61010083015115614ae957600954610100840151604051633f10abab60e01b81526001600160a01b0390921691633f10abab91614ab6918c91906004016158bb565b600060405180830381600087803b158015614ad057600080fd5b505af1158015614ae4573d6000803e3d6000fd5b505050505b825160a08401516040516001600160a01b038b1692600080516020615e73833981519152926148ed92600290615d81565b614b22615254565b9250614b2f915050565b50505b979650505050505050565b614b42615254565b60408083015190840151614b5b9163ffffffff612d2a16565b604082015260608083015190840151614b799163ffffffff612d2a16565b606082015281516020840151614b949163ffffffff612d2a16565b6020808301919091528201518351614bb19163ffffffff612d2a16565b815260808083015190840151614bcc9163ffffffff612d2a16565b608082015260a08083015190840151614bea9163ffffffff612d2a16565b60a082015260c08083015190840151614c089163ffffffff612d2a16565b60c082015260e08083015190840151614c269163ffffffff612d2a16565b60e08201526101008083015190840151614c459163ffffffff612d2a16565b61010082015292915050565b6000600460009054906101000a90046001600160a01b03166001600160a01b031663bb4095226040518163ffffffff1660e01b815260040160206040518083038186803b158015614ca157600080fd5b505afa158015614cb5573d6000803e3d6000fd5b505050506040513d601f19601f82011682018060405250810190614cd99190615766565b614ce4858585614274565b10949350505050565b614cf5615254565b614cfd61534f565b614d0684612422565b60408501908152602085810192835286019290925291845290519051614d309188918891906142f2565b614d39846142a4565b614d46826020015161509e565b604080840191909152600480548251631549b76d60e01b815292516001600160a01b0390911692631549b76d9281810192602092909190829003018186803b158015614d9157600080fd5b505afa158015614da5573d6000803e3d6000fd5b505050506040513d601f19601f82011682018060405250810190614dc99190615766565b606083015260408201516020830151600091614deb919063ffffffff61281d16565b9050614dfc836000015182866150a5565b60e087015260c086015260a08501526080840152614e1b856003614109565b825160208401516040516001600160a01b03881692600080516020615e7383398151915292614e4c92600190615d81565b60405180910390a2846001600160a01b0316600080516020615eb383398151915260008060006001604051614e8494939291906159d1565b60405180910390a25050949350505050565b60008183614eb75760405162461bcd60e51b81526004016107e091906159ff565b506000838581614ec357fe5b0495945050505050565b6001600160a01b03821660009081526012602052604081206003015460ff1690816004811115614ef957fe5b14158015614f1357506001816004811115614f1057fe5b14155b614f1957fe5b6001600160a01b03831660009081526012602052604081206003015461010090046001600160801b031690614f4f84600161281d565b905080826001600160801b03161115614f6457fe5b600060198281548110614f7357fe5b600091825260209091200154601980546001600160a01b03909216925082916001600160801b038616908110614fa557fe5b600091825260208083209190910180546001600160a01b0319166001600160a01b03948516179055918316815260129091526040908190206003018054610100600160881b0319166101006001600160801b03871602179055517f02b04ae5f7be9ca7c103293a2aa15f3c339d15d6eda53b721fef7b0e609c831a9061502e90839086906158f8565b60405180910390a1601980548061504157fe5b600082815260209020810160001990810180546001600160a01b0319169055019055505050505050565b60008061507e848463ffffffff613f3016565b90506123ec670de0b6b3a76400006122e6836706f05b59d3b20000612d2a565b60c8900490565b600080808084156150fb576150ba8786614442565b93506150d0876122e6888763ffffffff613f3016565b92506150e2878563ffffffff61281d16565b91506150f4868463ffffffff61281d16565b9050615108565b5060009250829150859050845b93509350935093565b6040805160e081018252600080825260208201819052918101829052606081018290526080810182905260a0810182905260c081019190915290565b60405180610100016040528060008152602001600081526020016000815260200160008152602001600081526020016000815260200160008152602001600081525090565b6040518060800160405280600081526020016000801916815260200160008152602001600081525090565b6040518060e001604052806151d0615111565b815260006020820181905260408201819052606082018190526080820181905260a0820181905260c09091015290565b604051806060016040528060008152602001600081526020016000151581525090565b6040518060a00160405280600081526020016000815260200160001515815260200160008152602001600081525090565b6040518061012001604052806000815260200160008152602001600081526020016000815260200160008152602001600081526020016000815260200160008152602001600081525090565b6040518060800160405280600081526020016000815260200160008152602001600081525090565b60408051608081018252600080825260208201819052918101829052606081019190915290565b60405180610120016040528060008152602001600081526020016000815260200160006001600160a01b0316815260200160006001600160a01b031681526020016000151581526020016000815260200160008152602001600081525090565b60405180606001604052806000815260200160008152602001600081525090565b8035610a9b81615e5d565b60008083601f84011261538c578081fd5b5081356001600160401b038111156153a2578182fd5b60208301915083602080830285010111156153bc57600080fd5b9250929050565b6000602082840312156153d4578081fd5b81356117f481615e5d565b6000602082840312156153f0578081fd5b81516117f481615e5d565b60008060006040848603121561540f578182fd5b833561541a81615e5d565b925060208401356001600160401b03811115615434578283fd5b6154408682870161537b565b9497909650939450505050565b6000806040838503121561545f578182fd5b823561546a81615e5d565b946020939093013593505050565b60008060006040848603121561548c578283fd5b83356001600160401b03808211156154a2578485fd5b81860187601f8201126154b3578586fd5b80359250818311156154c3578586fd5b60208084026154d3828201615e2c565b8581528281019084840183860185018d10156154ed578a8bfd5b8a95505b87861015615517576155038d82615370565b8352600195909501949184019184016154f1565b50985050508701359250508082111561552e578384fd5b506154408682870161537b565b60006020828403121561554c578081fd5b815180151581146117f4578182fd5b60006101c080838503121561556e578182fd5b61557781615e2c565b6155818585615370565b81526155908560208601615370565b60208201526155a28560408601615370565b60408201526155b48560608601615370565b60608201526155c68560808601615370565b60808201526155d88560a08601615370565b60a08201526155ea8560c08601615370565b60c08201526155fc8560e08601615370565b60e0820152610100915061561285838601615370565b82820152610120915061562785838601615370565b82820152610140915061563c85838601615370565b82820152610160915061565185838601615370565b82820152610180915061566685838601615370565b828201526101a0915061567b85838601615370565b918101919091529392505050565b60006080828403121561569a578081fd5b6156a46080615e2c565b825181526020830151602082015260408301516040820152606083015160608201528091505092915050565b60006101208083850312156156e3578182fd5b6156ec81615e2c565b835181526020840151602082015260408401516040820152606084015160608201526080840151608082015260a084015160a082015260c084015160c082015260e084015160e082015261010091508184015182820152809250505092915050565b60006020828403121561575f578081fd5b5035919050565b600060208284031215615777578081fd5b5051919050565b60008060008060008060008060006101008a8c03121561579c578687fd5b8935985060208a01356157ae81615e5d565b975060408a01356157be81615e5d565b965060608a01356157ce81615e5d565b955060808a0135945060a08a0135935060c08a0135925060e08a01356001600160401b038111156157fd578283fd5b6158098c828d0161537b565b8194508093505050509295985092959850929598565b600080600060408486031215615833578081fd5b8335925060208401356001600160401b03811115615434578182fd5b60008060408385031215615861578182fd5b50508035926020909101359150565b6001600160a01b03169052565b60008284528282602086013780602084860101526020601f19601f85011685010190509392505050565b6001600160a01b0391909116815260200190565b6001600160a01b03929092168252602082015260400190565b6001600160a01b039384168152919092166020820152604081019190915260600190565b6001600160a01b039290921682526001600160801b0316602082015260400190565b602080825281810183905260009060408482028401810190840186845b878110156159a357868403603f190183528135368a9003601e1901811261595c578687fd5b89018035906001600160401b03821115615974578788fd5b8136038b1315615982578788fd5b61598f868389840161587d565b955050509184019190840190600101615937565b5091979650505050505050565b901515815260200190565b9283526020830191909152604082015260600190565b848152602081018490526040810183905260808101600483106159f057fe5b82606083015295945050505050565b6000602080835283518082850152825b81811015615a2b57858101830151858201604001528201615a0f565b81811115615a3c5783604083870101525b50601f01601f1916929092016040019392505050565b6020808252600190820152600d60fa1b604082015260600190565b6020808252600190820152603360f81b604082015260600190565b6020808252601b908201527a536166654d6174683a206164646974696f6e206f766572666c6f7760281b604082015260600190565b6020808252600190820152603760f81b604082015260600190565b60208082526021908201527f536166654d6174683a206d756c7469706c69636174696f6e206f766572666c6f6040820152607760f81b606082015260800190565b6020808252818101527f4f776e61626c653a2063616c6c6572206973206e6f7420746865206f776e6572604082015260600190565b6020808252600190820152601960f91b604082015260600190565b6020808252600190820152603560f81b604082015260600190565b6020808252600590820152641830b2323960d91b604082015260600190565b6020808252600190820152601b60f91b604082015260600190565b60208082526005908201526430636f646560d81b604082015260600190565b6020808252601d908201527f4665652065786365656465642070726f7669646564206d6178696d756d000000604082015260600190565b60006101c082019050615c28828451615870565b6020830151615c3a6020840182615870565b506040830151615c4d6040840182615870565b506060830151615c606060840182615870565b506080830151615c736080840182615870565b5060a0830151615c8660a0840182615870565b5060c0830151615c9960c0840182615870565b5060e0830151615cac60e0840182615870565b5061010080840151615cc082850182615870565b505061012080840151615cd582850182615870565b505061014080840151615cea82850182615870565b505061016080840151615cff82850182615870565b505061018080840151615d1482850182615870565b50506101a080840151615d2982850182615870565b505092915050565b81516001600160a01b03908116825260208084015190830152604080840151821690830152606092830151169181019190915260800190565b90815260200190565b918252602082015260400190565b8381526020810183905260608101615d9883615e52565b6040830152949350505050565b858152602081018590526040810184905260a0810160058410615dc457fe5b60608201939093526001600160801b03919091166080909101529392505050565b848152602081018490526040810183905260808101615e0383615e52565b606083015295945050505050565b93845260208401929092526040830152606082015260800190565b6040518181016001600160401b0381118282101715615e4a57600080fd5b604052919050565b8060048110610b4757fe5b6001600160a01b0381168114610a0d57600080fdfeea67486ed7ebe3eea8ab3390efd4a3c8aae48be5bea27df104a8af786c4084344152c73dd2614c4f9fc35e8c9cf16013cd588c75b49a4c1673ecffdcbcda9403c3770d654ed33aeea6bf11ac8ef05d02a6a04ed4686dd2f624d853bbec43cc8bc454ee9b76c52f782a256af821b857ca6e125d1e3333bcede402fec2bed9600ca164736f6c634300060b000a","linkReferences":{}},"methodIdentifiers":{"BETA()":"071a7541","BOOTSTRAP_PERIOD()":"c35bc550","DECIMAL_PRECISION()":"a20baee6","L_BNB()":"cd54a5e9","L_USDSDebt()":"b4b0954d","MAX_BORROWING_FEE()":"24092669","MINUTE_DECAY_FACTOR()":"c7b55481","PERCENT_DIVISOR()":"4870dd9a","SECONDS_IN_ONE_MINUTE()":"61ec893d","TroveOwners(uint256)":"756b253e","Troves(address)":"6ef64338","_100pct()":"72fe25aa","activePool()":"7f7dde4a","addTroveOwnerToArray(address)":"15d549f1","applyPendingRewards(address)":"0b076557","baseRate()":"1f68f20a","batchLiquidateTroves(address[],bytes[])":"6bf96eda","borrowerOperationsAddress()":"b7f8cf9b","checkRecoveryMode(uint256)":"4e443d9e","closeTrove(address)":"cbd138ae","decayBaseRateFromBorrowing()":"5dba4c4a","decreaseTroveColl(address,uint256)":"d3d6f843","decreaseTroveDebt(address,uint256)":"12610e92","defaultPool()":"3cc74225","getBorrowingFee(uint256,uint256)":"91571384","getBorrowingFeeWithDecay(uint256,uint256)":"5f94c327","getBorrowingRate(uint256)":"b36cd07f","getBorrowingRateWithDecay(uint256)":"948ba6d2","getCurrentICR(address,uint256)":"d293c710","getEntireDebtAndColl(address)":"b91af97c","getEntireSystemColl()":"887105d3","getEntireSystemDebt()":"795d26c3","getNominalICR(address)":"b0d8e181","getPendingBNBReward(address)":"95f122ce","getPendingUSDSDebtReward(address)":"f09c5c8f","getRedemptionFeeWithDecay(uint256,uint256)":"c9fccede","getRedemptionRate(uint256)":"58b8a5d6","getRedemptionRateWithDecay(uint256)":"a22b7d68","getTCR(uint256)":"b82f263d","getTroveColl(address)":"480cd578","getTroveDebt(address)":"d66a2553","getTroveFromTroveOwnersArray(uint256)":"d9a72444","getTroveOwnersCount()":"49eefeee","getTroveStake(address)":"64cee260","getTroveStatus(address)":"21e37801","hasPendingRewards(address)":"e2ac77b0","increaseTroveColl(address,uint256)":"72423c17","increaseTroveDebt(address,uint256)":"9976cf45","isOwner()":"8f32d59b","lastBNBError_Redistribution()":"e5cedb57","lastFeeOperationTime()":"d380a37c","lastUSDSDebtError_Redistribution()":"3cbaec20","liquidate(address,bytes[])":"ad1c3e62","liquidateTroves(uint256,bytes[])":"60ac128f","oracleRateCalc()":"ddc7aed4","owner()":"8da5cb5b","priceFeed()":"741bef1a","redeemCollateral(uint256,address,address,address,uint256,uint256,uint256,bytes[])":"472b286f","removeStake(address)":"fe2ba848","rewardSnapshots(address)":"1673c79a","sableStaking()":"f80911de","sableToken()":"3b2f0e4e","setAddresses((address,address,address,address,address,address,address,address,address,address,address,address,address,address))":"01f16e18","setTroveStatus(address,uint256)":"5d6b480f","sortedTroves()":"ae918754","stabilityPool()":"048c661d","systemState()":"991292e3","timeLock()":"d085835a","totalCollateralSnapshot()":"96d711ff","totalStakes()":"bf9befb1","totalStakesSnapshot()":"807d138d","troveHelper()":"23487d20","updateStakeAndTotalStakes(address)":"18f2817a","updateTroveRewardSnapshots(address)":"82fe3eb9","usdsToken()":"f8f8d174"},"storageLayout":{"storage":[{"astId":216,"contract":"src/TroveManager.sol:TroveManager","label":"timeLock","offset":0,"slot":"0","type":"t_address"},{"astId":218,"contract":"src/TroveManager.sol:TroveManager","label":"activePool","offset":0,"slot":"1","type":"t_contract(IActivePool)10936"},{"astId":220,"contract":"src/TroveManager.sol:TroveManager","label":"defaultPool","offset":0,"slot":"2","type":"t_contract(IDefaultPool)11019"},{"astId":223,"contract":"src/TroveManager.sol:TroveManager","label":"priceFeed","offset":0,"slot":"3","type":"t_contract(IPriceFeed)11122"},{"astId":225,"contract":"src/TroveManager.sol:TroveManager","label":"systemState","offset":0,"slot":"4","type":"t_contract(ISystemState)11899"},{"astId":671,"contract":"src/TroveManager.sol:TroveManager","label":"_owner","offset":0,"slot":"5","type":"t_address"},{"astId":12695,"contract":"src/TroveManager.sol:TroveManager","label":"borrowerOperationsAddress","offset":0,"slot":"6","type":"t_address"},{"astId":12698,"contract":"src/TroveManager.sol:TroveManager","label":"stabilityPool","offset":0,"slot":"7","type":"t_contract(IStabilityPool)11800"},{"astId":12700,"contract":"src/TroveManager.sol:TroveManager","label":"gasPoolAddress","offset":0,"slot":"8","type":"t_address"},{"astId":12702,"contract":"src/TroveManager.sol:TroveManager","label":"collSurplusPool","offset":0,"slot":"9","type":"t_contract(ICollSurplusPool)10996"},{"astId":12705,"contract":"src/TroveManager.sol:TroveManager","label":"usdsToken","offset":0,"slot":"10","type":"t_contract(IUSDSToken)12662"},{"astId":12708,"contract":"src/TroveManager.sol:TroveManager","label":"sableToken","offset":0,"slot":"11","type":"t_contract(ISABLEToken)11279"},{"astId":12711,"contract":"src/TroveManager.sol:TroveManager","label":"sableStaking","offset":0,"slot":"12","type":"t_contract(ISableStakingV2)11424"},{"astId":12713,"contract":"src/TroveManager.sol:TroveManager","label":"sortedTroves","offset":0,"slot":"13","type":"t_contract(ISortedTroves)11554"},{"astId":12716,"contract":"src/TroveManager.sol:TroveManager","label":"oracleRateCalc","offset":0,"slot":"14","type":"t_contract(IOracleRateCalculation)11042"},{"astId":12718,"contract":"src/TroveManager.sol:TroveManager","label":"troveHelper","offset":0,"slot":"15","type":"t_contract(ITroveHelper)11995"},{"astId":12740,"contract":"src/TroveManager.sol:TroveManager","label":"baseRate","offset":0,"slot":"16","type":"t_uint256"},{"astId":12742,"contract":"src/TroveManager.sol:TroveManager","label":"lastFeeOperationTime","offset":0,"slot":"17","type":"t_uint256"},{"astId":12746,"contract":"src/TroveManager.sol:TroveManager","label":"Troves","offset":0,"slot":"18","type":"t_mapping(t_address,t_struct(Trove)12116_storage)"},{"astId":12748,"contract":"src/TroveManager.sol:TroveManager","label":"totalStakes","offset":0,"slot":"19","type":"t_uint256"},{"astId":12750,"contract":"src/TroveManager.sol:TroveManager","label":"totalStakesSnapshot","offset":0,"slot":"20","type":"t_uint256"},{"astId":12752,"contract":"src/TroveManager.sol:TroveManager","label":"totalCollateralSnapshot","offset":0,"slot":"21","type":"t_uint256"},{"astId":12754,"contract":"src/TroveManager.sol:TroveManager","label":"L_BNB","offset":0,"slot":"22","type":"t_uint256"},{"astId":12756,"contract":"src/TroveManager.sol:TroveManager","label":"L_USDSDebt","offset":0,"slot":"23","type":"t_uint256"},{"astId":12760,"contract":"src/TroveManager.sol:TroveManager","label":"rewardSnapshots","offset":0,"slot":"24","type":"t_mapping(t_address,t_struct(RewardSnapshot)12121_storage)"},{"astId":12763,"contract":"src/TroveManager.sol:TroveManager","label":"TroveOwners","offset":0,"slot":"25","type":"t_array(t_address)dyn_storage"},{"astId":12765,"contract":"src/TroveManager.sol:TroveManager","label":"lastBNBError_Redistribution","offset":0,"slot":"26","type":"t_uint256"},{"astId":12767,"contract":"src/TroveManager.sol:TroveManager","label":"lastUSDSDebtError_Redistribution","offset":0,"slot":"27","type":"t_uint256"}],"types":{"t_address":{"encoding":"inplace","label":"address","numberOfBytes":"20"},"t_array(t_address)dyn_storage":{"encoding":"dynamic_array","label":"address[]","numberOfBytes":"32","base":"t_address"},"t_contract(IActivePool)10936":{"encoding":"inplace","label":"contract IActivePool","numberOfBytes":"20"},"t_contract(ICollSurplusPool)10996":{"encoding":"inplace","label":"contract ICollSurplusPool","numberOfBytes":"20"},"t_contract(IDefaultPool)11019":{"encoding":"inplace","label":"contract IDefaultPool","numberOfBytes":"20"},"t_contract(IOracleRateCalculation)11042":{"encoding":"inplace","label":"contract IOracleRateCalculation","numberOfBytes":"20"},"t_contract(IPriceFeed)11122":{"encoding":"inplace","label":"contract IPriceFeed","numberOfBytes":"20"},"t_contract(ISABLEToken)11279":{"encoding":"inplace","label":"contract ISABLEToken","numberOfBytes":"20"},"t_contract(ISableStakingV2)11424":{"encoding":"inplace","label":"contract ISableStakingV2","numberOfBytes":"20"},"t_contract(ISortedTroves)11554":{"encoding":"inplace","label":"contract ISortedTroves","numberOfBytes":"20"},"t_contract(IStabilityPool)11800":{"encoding":"inplace","label":"contract IStabilityPool","numberOfBytes":"20"},"t_contract(ISystemState)11899":{"encoding":"inplace","label":"contract ISystemState","numberOfBytes":"20"},"t_contract(ITroveHelper)11995":{"encoding":"inplace","label":"contract ITroveHelper","numberOfBytes":"20"},"t_contract(IUSDSToken)12662":{"encoding":"inplace","label":"contract IUSDSToken","numberOfBytes":"20"},"t_enum(Status)12105":{"encoding":"inplace","label":"enum ITroveManager.Status","numberOfBytes":"1"},"t_mapping(t_address,t_struct(RewardSnapshot)12121_storage)":{"encoding":"mapping","key":"t_address","label":"mapping(address => struct ITroveManager.RewardSnapshot)","numberOfBytes":"32","value":"t_struct(RewardSnapshot)12121_storage"},"t_mapping(t_address,t_struct(Trove)12116_storage)":{"encoding":"mapping","key":"t_address","label":"mapping(address => struct ITroveManager.Trove)","numberOfBytes":"32","value":"t_struct(Trove)12116_storage"},"t_struct(RewardSnapshot)12121_storage":{"encoding":"inplace","label":"struct ITroveManager.RewardSnapshot","numberOfBytes":"64","members":[{"astId":12118,"contract":"src/TroveManager.sol:TroveManager","label":"BNB","offset":0,"slot":"0","type":"t_uint256"},{"astId":12120,"contract":"src/TroveManager.sol:TroveManager","label":"USDSDebt","offset":0,"slot":"1","type":"t_uint256"}]},"t_struct(Trove)12116_storage":{"encoding":"inplace","label":"struct ITroveManager.Trove","numberOfBytes":"128","members":[{"astId":12107,"contract":"src/TroveManager.sol:TroveManager","label":"debt","offset":0,"slot":"0","type":"t_uint256"},{"astId":12109,"contract":"src/TroveManager.sol:TroveManager","label":"coll","offset":0,"slot":"1","type":"t_uint256"},{"astId":12111,"contract":"src/TroveManager.sol:TroveManager","label":"stake","offset":0,"slot":"2","type":"t_uint256"},{"astId":12113,"contract":"src/TroveManager.sol:TroveManager","label":"status","offset":0,"slot":"3","type":"t_enum(Status)12105"},{"astId":12115,"contract":"src/TroveManager.sol:TroveManager","label":"arrayIndex","offset":1,"slot":"3","type":"t_uint128"}]},"t_uint128":{"encoding":"inplace","label":"uint128","numberOfBytes":"16"},"t_uint256":{"encoding":"inplace","label":"uint256","numberOfBytes":"32"}}},"id":27}