{"abi":[{"type":"constructor","inputs":[{"name":"_troveManager","type":"address","internalType":"contract TroveManager"},{"name":"_borrowerOperations","type":"address","internalType":"contract BorrowerOperations"},{"name":"_stabilityPool","type":"address","internalType":"contract StabilityPool"},{"name":"_usdsToken","type":"address","internalType":"contract USDSToken"}],"stateMutability":"nonpayable"},{"type":"receive","stateMutability":"payable"},{"type":"function","name":"addCollPrx","inputs":[{"name":"_BNB","type":"uint256","internalType":"uint256"},{"name":"_upperHint","type":"address","internalType":"address"},{"name":"_lowerHint","type":"address","internalType":"address"},{"name":"priceFeedUpdateData","type":"bytes[]","internalType":"bytes[]"}],"outputs":[],"stateMutability":"payable"},{"type":"function","name":"adjustTrovePrx","inputs":[{"name":"_BNB","type":"uint256","internalType":"uint256"},{"name":"adjustParam","type":"tuple","internalType":"struct IBorrowerOperations.AdjustTroveParam","components":[{"name":"collWithdrawal","type":"uint256","internalType":"uint256"},{"name":"USDSChange","type":"uint256","internalType":"uint256"},{"name":"isDebtIncrease","type":"bool","internalType":"bool"},{"name":"upperHint","type":"address","internalType":"address"},{"name":"lowerHint","type":"address","internalType":"address"},{"name":"maxFeePercentage","type":"uint256","internalType":"uint256"}]},{"name":"priceFeedUpdateData","type":"bytes[]","internalType":"bytes[]"}],"outputs":[],"stateMutability":"payable"},{"type":"function","name":"approvePrx","inputs":[{"name":"spender","type":"address","internalType":"address"},{"name":"amount","type":"uint256","internalType":"uint256"}],"outputs":[{"name":"","type":"bool","internalType":"bool"}],"stateMutability":"nonpayable"},{"type":"function","name":"batchLiquidateTrovesPrx","inputs":[{"name":"_troveArray","type":"address[]","internalType":"address[]"},{"name":"priceFeedUpdateData","type":"bytes[]","internalType":"bytes[]"}],"outputs":[],"stateMutability":"nonpayable"},{"type":"function","name":"closeTrovePrx","inputs":[{"name":"priceFeedUpdateData","type":"bytes[]","internalType":"bytes[]"}],"outputs":[],"stateMutability":"nonpayable"},{"type":"function","name":"decreaseAllowancePrx","inputs":[{"name":"spender","type":"address","internalType":"address"},{"name":"subtractedValue","type":"uint256","internalType":"uint256"}],"outputs":[{"name":"","type":"bool","internalType":"bool"}],"stateMutability":"nonpayable"},{"type":"function","name":"increaseAllowancePrx","inputs":[{"name":"spender","type":"address","internalType":"address"},{"name":"addedValue","type":"uint256","internalType":"uint256"}],"outputs":[{"name":"","type":"bool","internalType":"bool"}],"stateMutability":"nonpayable"},{"type":"function","name":"liquidatePrx","inputs":[{"name":"_user","type":"address","internalType":"address"},{"name":"priceFeedUpdateData","type":"bytes[]","internalType":"bytes[]"}],"outputs":[],"stateMutability":"nonpayable"},{"type":"function","name":"liquidateTrovesPrx","inputs":[{"name":"_n","type":"uint256","internalType":"uint256"},{"name":"priceFeedUpdateData","type":"bytes[]","internalType":"bytes[]"}],"outputs":[],"stateMutability":"nonpayable"},{"type":"function","name":"openTrovePrx","inputs":[{"name":"_BNB","type":"uint256","internalType":"uint256"},{"name":"_USDSAmount","type":"uint256","internalType":"uint256"},{"name":"_upperHint","type":"address","internalType":"address"},{"name":"_lowerHint","type":"address","internalType":"address"},{"name":"_maxFee","type":"uint256","internalType":"uint256"},{"name":"priceFeedUpdateData","type":"bytes[]","internalType":"bytes[]"}],"outputs":[],"stateMutability":"payable"},{"type":"function","name":"provideToSPPrx","inputs":[{"name":"_amount","type":"uint256","internalType":"uint256"},{"name":"_frontEndTag","type":"address","internalType":"address"}],"outputs":[],"stateMutability":"nonpayable"},{"type":"function","name":"redeemCollateralPrx","inputs":[{"name":"_USDSAmount","type":"uint256","internalType":"uint256"},{"name":"_firstRedemptionHint","type":"address","internalType":"address"},{"name":"_upperPartialRedemptionHint","type":"address","internalType":"address"},{"name":"_lowerPartialRedemptionHint","type":"address","internalType":"address"},{"name":"_partialRedemptionHintNICR","type":"uint256","internalType":"uint256"},{"name":"_maxIterations","type":"uint256","internalType":"uint256"},{"name":"_maxFee","type":"uint256","internalType":"uint256"},{"name":"priceFeedUpdateData","type":"bytes[]","internalType":"bytes[]"}],"outputs":[],"stateMutability":"nonpayable"},{"type":"function","name":"repayUSDSPrx","inputs":[{"name":"_amount","type":"uint256","internalType":"uint256"},{"name":"_upperHint","type":"address","internalType":"address"},{"name":"_lowerHint","type":"address","internalType":"address"},{"name":"priceFeedUpdateData","type":"bytes[]","internalType":"bytes[]"}],"outputs":[],"stateMutability":"nonpayable"},{"type":"function","name":"transferFromPrx","inputs":[{"name":"sender","type":"address","internalType":"address"},{"name":"recipient","type":"address","internalType":"address"},{"name":"amount","type":"uint256","internalType":"uint256"}],"outputs":[{"name":"","type":"bool","internalType":"bool"}],"stateMutability":"nonpayable"},{"type":"function","name":"transferPrx","inputs":[{"name":"recipient","type":"address","internalType":"address"},{"name":"amount","type":"uint256","internalType":"uint256"}],"outputs":[{"name":"","type":"bool","internalType":"bool"}],"stateMutability":"nonpayable"},{"type":"function","name":"withdrawCollPrx","inputs":[{"name":"_amount","type":"uint256","internalType":"uint256"},{"name":"_upperHint","type":"address","internalType":"address"},{"name":"_lowerHint","type":"address","internalType":"address"},{"name":"priceFeedUpdateData","type":"bytes[]","internalType":"bytes[]"}],"outputs":[],"stateMutability":"nonpayable"},{"type":"function","name":"withdrawFromSPPrx","inputs":[{"name":"_amount","type":"uint256","internalType":"uint256"},{"name":"priceFeedUpdateData","type":"bytes[]","internalType":"bytes[]"}],"outputs":[],"stateMutability":"nonpayable"},{"type":"function","name":"withdrawUSDSPrx","inputs":[{"name":"_amount","type":"uint256","internalType":"uint256"},{"name":"_upperHint","type":"address","internalType":"address"},{"name":"_lowerHint","type":"address","internalType":"address"},{"name":"_maxFee","type":"uint256","internalType":"uint256"},{"name":"priceFeedUpdateData","type":"bytes[]","internalType":"bytes[]"}],"outputs":[],"stateMutability":"nonpayable"}],"bytecode":{"object":"0x60806040523480156200001157600080fd5b50604051620012f7380380620012f7833981016040819052620000349162000088565b600080546001600160a01b039586166001600160a01b031991821617909155600180549486169482169490941790935560028054928516928416929092179091556003805491909316911617905562000108565b600080600080608085870312156200009e578384fd5b8451620000ab81620000ef565b6020860151909450620000be81620000ef565b6040860151909350620000d181620000ef565b6060860151909250620000e481620000ef565b939692955090935050565b6001600160a01b03811681146200010557600080fd5b50565b6111df80620001186000396000f3fe6080604052600436106100dd5760003560e01c80630aa535df146100e95780632bd363121461010b578063386680ae1461011e578063390b5f27146101315780634c36240b14610167578063a038584614610187578063a1cb9dcb146101a7578063cc51a6c2146101c7578063cf83544f146101e7578063d190982514610207578063d466e4eb14610227578063d94bcec214610247578063dda1d3ac14610267578063eabb924d14610287578063ec40167b146102a7578063f701754f146102c7578063f7a3ec72146102da578063ffb85f60146102fa576100e4565b366100e457005b600080fd5b3480156100f557600080fd5b50610109610104366004610d01565b61031a565b005b610109610119366004610ddf565b610385565b61010961012c366004610d31565b6103fc565b34801561013d57600080fd5b5061015161014c366004610a57565b61046a565b60405161015e9190611014565b60405180910390f35b34801561017357600080fd5b50610109610182366004610b4b565b6104f8565b34801561019357600080fd5b506101096101a2366004610a06565b610560565b3480156101b357600080fd5b506101096101c2366004610ae9565b610594565b3480156101d357600080fd5b506101516101e2366004610a57565b6105c6565b3480156101f357600080fd5b50610151610202366004610a57565b6105f9565b34801561021357600080fd5b50610109610222366004610d01565b61062c565b34801561023357600080fd5b50610151610242366004610a57565b610660565b34801561025357600080fd5b506101516102623660046109c6565b610693565b34801561027357600080fd5b50610109610282366004610b77565b610722565b34801561029357600080fd5b506101096102a2366004610c18565b61079f565b3480156102b357600080fd5b506101096102c2366004610a81565b6107f1565b6101096102d5366004610c18565b61085f565b3480156102e657600080fd5b506101096102f5366004610c18565b6108d0565b34801561030657600080fd5b50610109610315366004610c88565b610908565b6000546040516360ac128f60e01b81526001600160a01b03909116906360ac128f9061034e90869086908690600401611132565b600060405180830381600087803b15801561036857600080fd5b505af115801561037c573d6000803e3d6000fd5b50505050505050565b6001546040516307094ec760e51b81526001600160a01b039091169063e129d8e09089906103c19087908b908b908b908a908a9060040161114c565b6000604051808303818588803b1580156103da57600080fd5b505af11580156103ee573d6000803e3d6000fd5b505050505050505050505050565b60015460405163739987d760e01b81526001600160a01b039091169063739987d79086906104329087908790879060040161101f565b6000604051808303818588803b15801561044b57600080fd5b505af115801561045f573d6000803e3d6000fd5b505050505050505050565b60035460405163a9059cbb60e01b81526000916001600160a01b03169063a9059cbb9061049d9086908690600401610f84565b602060405180830381600087803b1580156104b757600080fd5b505af11580156104cb573d6000803e3d6000fd5b505050506040513d601f19601f820116820180604052508101906104ef9190610b28565b90505b92915050565b600254604051635f788d6560e01b81526001600160a01b0390911690635f788d659061052a908590859060040161107c565b600060405180830381600087803b15801561054457600080fd5b505af1158015610558573d6000803e3d6000fd5b505050505050565b60005460405163568e1f3160e11b81526001600160a01b039091169063ad1c3e629061034e90869086908690600401610f56565b600154604051636fcdf93d60e11b81526001600160a01b039091169063df9bf27a9061052a9085908590600401611000565b600354604051633950935160e01b81526000916001600160a01b03169063395093519061049d9086908690600401610f84565b60035460405163095ea7b360e01b81526000916001600160a01b03169063095ea7b39061049d9086908690600401610f84565b600254604051630943fefb60e21b81526001600160a01b039091169063250ffbec9061034e90869086908690600401611132565b60035460405163a457c2d760e01b81526000916001600160a01b03169063a457c2d79061049d9086908690600401610f84565b6003546040516323b872dd60e01b81526000916001600160a01b0316906323b872dd906106c890879087908790600401610f32565b602060405180830381600087803b1580156106e257600080fd5b505af11580156106f6573d6000803e3d6000fd5b505050506040513d601f19601f8201168201806040525081019061071a9190610b28565b949350505050565b60005460405163472b286f60e01b81526001600160a01b039091169063472b286f90610762908c908c908c908c908c908c908c908c908c90600401611093565b600060405180830381600087803b15801561077c57600080fd5b505af1158015610790573d6000803e3d6000fd5b50505050505050505050505050565b600154604051633c7cc25d60e21b81526001600160a01b039091169063f1f30974906107d790889088908890889088906004016110f4565b600060405180830381600087803b15801561044b57600080fd5b6000546040516335fcb76d60e11b81526001600160a01b0390911690636bf96eda90610827908790879087908790600401610f9d565b600060405180830381600087803b15801561084157600080fd5b505af1158015610855573d6000803e3d6000fd5b5050505050505050565b600154604051631e503ead60e01b81526001600160a01b0390911690631e503ead908790610897908890889088908890600401610efb565b6000604051808303818588803b1580156108b057600080fd5b505af11580156108c4573d6000803e3d6000fd5b50505050505050505050565b60015460405163046459ad60e31b81526001600160a01b0390911690632322cd68906107d790889088908890889088906004016110f4565b600154604051632c4836f560e21b81526001600160a01b039091169063b120dbd4906109429086908a908a908a908990899060040161114c565b600060405180830381600087803b1580156108b057600080fd5b80356001600160a01b03811681146104f257600080fd5b60008083601f840112610984578182fd5b5081356001600160401b0381111561099a578182fd5b60208301915083602080830285010111156109b457600080fd5b9250929050565b80356104f2816111c4565b6000806000606084860312156109da578283fd5b83356109e5816111ac565b925060208401356109f5816111ac565b929592945050506040919091013590565b600080600060408486031215610a1a578283fd5b610a24858561095c565b925060208401356001600160401b03811115610a3e578283fd5b610a4a86828701610973565b9497909650939450505050565b60008060408385031215610a69578182fd5b610a73848461095c565b946020939093013593505050565b60008060008060408587031215610a96578081fd5b84356001600160401b0380821115610aac578283fd5b610ab888838901610973565b90965094506020870135915080821115610ad0578283fd5b50610add87828801610973565b95989497509550505050565b60008060208385031215610afb578182fd5b82356001600160401b03811115610b10578283fd5b610b1c85828601610973565b90969095509350505050565b600060208284031215610b39578081fd5b8151610b44816111c4565b9392505050565b60008060408385031215610b5d578182fd5b82359150610b6e846020850161095c565b90509250929050565b60008060008060008060008060006101008a8c031215610b95578485fd5b8935985060208a0135610ba7816111ac565b975060408a0135610bb7816111ac565b965060608a0135610bc7816111ac565b955060808a0135945060a08a0135935060c08a0135925060e08a01356001600160401b03811115610bf6578283fd5b610c028c828d01610973565b8194508093505050509295985092959850929598565b600080600080600060808688031215610c2f578081fd5b853594506020860135610c41816111ac565b93506040860135610c51816111ac565b925060608601356001600160401b03811115610c6b578182fd5b610c7788828901610973565b969995985093965092949392505050565b60008060008060008060a08789031215610ca0578182fd5b863595506020870135610cb2816111ac565b94506040870135610cc2816111ac565b93506060870135925060808701356001600160401b03811115610ce3578283fd5b610cef89828a01610973565b979a9699509497509295939492505050565b600080600060408486031215610d15578081fd5b8335925060208401356001600160401b03811115610a3e578182fd5b600080600080848603610100811215610d48578283fd5b8535945060c0601f1982011215610d5d578283fd5b50610d6860c0611186565b6020860135815260408601356020820152610d8687606088016109bb565b6040820152610d98876080880161095c565b6060820152610daa8760a0880161095c565b608082015260c086013560a0820152925060e08501356001600160401b03811115610dd3578283fd5b610add87828801610973565b600080600080600080600060c0888a031215610df9578081fd5b8735965060208801359550610e118960408a0161095c565b9450610e208960608a0161095c565b93506080880135925060a08801356001600160401b03811115610e41578182fd5b610e4d8a828b01610973565b989b979a50959850939692959293505050565b818352602080840193600091908185020181018584845b87811015610eee5782840389528135601e19883603018112610e97578687fd5b87018035906001600160401b03821115610eaf578788fd5b813603891315610ebd578788fd5b818652818782018888013750848101860187905298850198601f01601f191690930184019290840190600101610e77565b5091979650505050505050565b6001600160a01b03858116825284166020820152606060408201819052600090610f289083018486610e60565b9695505050505050565b6001600160a01b039384168152919092166020820152604081019190915260600190565b6001600160a01b0384168152604060208201819052600090610f7b9083018486610e60565b95945050505050565b6001600160a01b03929092168252602082015260400190565b6040808252810184905260008560608301825b87811015610fe05760208381016001600160a01b03610fcf828761095c565b168452935090910190600101610fb0565b508381036020850152610ff4818688610e60565b98975050505050505050565b60006020825261071a602083018486610e60565b901515815260200190565b60008451825260208501516020830152604085015115156040830152606085015160018060a01b038082166060850152806080880151166080850152505060a085015160a083015260e060c0830152610f7b60e083018486610e60565b9182526001600160a01b0316602082015260400190565b8981526001600160a01b0389811660208301528881166040830152871660608201526080810186905260a0810185905260c0810184905261010060e082018190526000906110e48382018587610e60565b9c9b505050505050505050505050565b8581526001600160a01b038581166020830152841660408201526080606082018190526000906111279083018486610e60565b979650505050505050565b600084825260406020830152610f7b604083018486610e60565b868152602081018690526001600160a01b0385811660408301528416606082015260a060808201819052600090610ff49083018486610e60565b6040518181016001600160401b03811182821017156111a457600080fd5b604052919050565b6001600160a01b03811681146111c157600080fd5b50565b80151581146111c157600080fdfea164736f6c634300060b000a","linkReferences":{}},"methodIdentifiers":{"addCollPrx(uint256,address,address,bytes[])":"f701754f","adjustTrovePrx(uint256,(uint256,uint256,bool,address,address,uint256),bytes[])":"386680ae","approvePrx(address,uint256)":"cf83544f","batchLiquidateTrovesPrx(address[],bytes[])":"ec40167b","closeTrovePrx(bytes[])":"a1cb9dcb","decreaseAllowancePrx(address,uint256)":"d466e4eb","increaseAllowancePrx(address,uint256)":"cc51a6c2","liquidatePrx(address,bytes[])":"a0385846","liquidateTrovesPrx(uint256,bytes[])":"0aa535df","openTrovePrx(uint256,uint256,address,address,uint256,bytes[])":"2bd36312","provideToSPPrx(uint256,address)":"4c36240b","redeemCollateralPrx(uint256,address,address,address,uint256,uint256,uint256,bytes[])":"dda1d3ac","repayUSDSPrx(uint256,address,address,bytes[])":"f7a3ec72","transferFromPrx(address,address,uint256)":"d94bcec2","transferPrx(address,uint256)":"390b5f27","withdrawCollPrx(uint256,address,address,bytes[])":"eabb924d","withdrawFromSPPrx(uint256,bytes[])":"d1909825","withdrawUSDSPrx(uint256,address,address,uint256,bytes[])":"ffb85f60"},"id":82}