{"abi":[{"type":"function","name":"transferBNB","inputs":[{"name":"_recipient","type":"address","internalType":"address"},{"name":"_amount","type":"uint256","internalType":"uint256"}],"outputs":[{"name":"","type":"bool","internalType":"bool"}],"stateMutability":"nonpayable"}],"bytecode":{"object":"0x608060405234801561001057600080fd5b5060d28061001f6000396000f3fe6080604052348015600f57600080fd5b506004361060285760003560e01c8063eb17fba314602d575b600080fd5b605660048036036040811015604157600080fd5b506001600160a01b038135169060200135606a565b604080519115158252519081900360200190f35b60405160009081906001600160a01b0385169084908381818185875af1925050503d806000811460b5576040519150601f19603f3d011682016040523d82523d6000602084013e60ba565b606091505b50909594505050505056fea164736f6c634300060b000a","linkReferences":{}},"methodIdentifiers":{"transferBNB(address,uint256)":"eb17fba3"},"id":62}