{"abi":[{"type":"receive","stateMutability":"payable"},{"type":"function","name":"BNBFeed","inputs":[],"outputs":[{"name":"","type":"bytes32","internalType":"bytes32"}],"stateMutability":"view"},{"type":"function","name":"DECIMAL_PRECISION","inputs":[],"outputs":[{"name":"","type":"uint256","internalType":"uint256"}],"stateMutability":"view"},{"type":"function","name":"MAX_PRICE_DEVIATION_FROM_PREVIOUS_ROUND","inputs":[],"outputs":[{"name":"","type":"uint256","internalType":"uint256"}],"stateMutability":"view"},{"type":"function","name":"MAX_PRICE_DIFFERENCE_BETWEEN_ORACLES","inputs":[],"outputs":[{"name":"","type":"uint256","internalType":"uint256"}],"stateMutability":"view"},{"type":"function","name":"MAX_SCALED_DEVIATION_PYTH","inputs":[],"outputs":[{"name":"","type":"uint256","internalType":"uint256"}],"stateMutability":"view"},{"type":"function","name":"NAME","inputs":[],"outputs":[{"name":"","type":"string","internalType":"string"}],"stateMutability":"view"},{"type":"function","name":"PYTH_DIGITS","inputs":[],"outputs":[{"name":"","type":"uint256","internalType":"uint256"}],"stateMutability":"view"},{"type":"function","name":"TARGET_DIGITS","inputs":[],"outputs":[{"name":"","type":"uint256","internalType":"uint256"}],"stateMutability":"view"},{"type":"function","name":"TIMEOUT","inputs":[],"outputs":[{"name":"","type":"uint256","internalType":"uint256"}],"stateMutability":"view"},{"type":"function","name":"age","inputs":[],"outputs":[{"name":"","type":"uint256","internalType":"uint256"}],"stateMutability":"view"},{"type":"function","name":"fetchPrice","inputs":[{"name":"priceFeedUpdateData","type":"bytes[]","internalType":"bytes[]"}],"outputs":[{"name":"result","type":"tuple","internalType":"struct IPriceFeed.FetchPriceResult","components":[{"name":"price","type":"uint256","internalType":"uint256"},{"name":"oracleKey","type":"bytes32","internalType":"bytes32"},{"name":"deviationPyth","type":"uint256","internalType":"uint256"},{"name":"publishTimePyth","type":"uint256","internalType":"uint256"}]}],"stateMutability":"nonpayable"},{"type":"function","name":"isOwner","inputs":[],"outputs":[{"name":"","type":"bool","internalType":"bool"}],"stateMutability":"view"},{"type":"function","name":"lastGoodPrice","inputs":[],"outputs":[{"name":"","type":"uint256","internalType":"uint256"}],"stateMutability":"view"},{"type":"function","name":"owner","inputs":[],"outputs":[{"name":"","type":"address","internalType":"address"}],"stateMutability":"view"},{"type":"function","name":"priceAggregator","inputs":[],"outputs":[{"name":"","type":"address","internalType":"contract AggregatorV3Interface"}],"stateMutability":"view"},{"type":"function","name":"pyth","inputs":[],"outputs":[{"name":"","type":"address","internalType":"contract IPyth"}],"stateMutability":"view"},{"type":"function","name":"setAddresses","inputs":[{"name":"_priceAggregatorAddress","type":"address","internalType":"address"},{"name":"_pythAddress","type":"address","internalType":"address"},{"name":"_troveManagerAddress","type":"address","internalType":"address"},{"name":"_borrowerOperationsAddress","type":"address","internalType":"address"},{"name":"_stabilityPoolAddress","type":"address","internalType":"address"},{"name":"_bnbFeedPyth","type":"bytes32","internalType":"bytes32"},{"name":"priceFeedUpdateData","type":"bytes[]","internalType":"bytes[]"}],"outputs":[],"stateMutability":"payable"},{"type":"function","name":"status","inputs":[],"outputs":[{"name":"","type":"uint8","internalType":"enum PriceFeed.Status"}],"stateMutability":"view"},{"type":"event","name":"BNBFeedPythChanged","inputs":[{"name":"_bnbFeedPyth","type":"bytes32","indexed":false,"internalType":"bytes32"}],"anonymous":false},{"type":"event","name":"BorrowerOperationAddressChanged","inputs":[{"name":"_borrowerOperationsAddress","type":"address","indexed":false,"internalType":"address"}],"anonymous":false},{"type":"event","name":"LastGoodPriceUpdated","inputs":[{"name":"_lastGoodPrice","type":"uint256","indexed":false,"internalType":"uint256"}],"anonymous":false},{"type":"event","name":"OwnershipTransferred","inputs":[{"name":"previousOwner","type":"address","indexed":true,"internalType":"address"},{"name":"newOwner","type":"address","indexed":true,"internalType":"address"}],"anonymous":false},{"type":"event","name":"PriceAggregatorAddressChanged","inputs":[{"name":"_priceAggregatorAddress","type":"address","indexed":false,"internalType":"address"}],"anonymous":false},{"type":"event","name":"PriceFeedStatusChanged","inputs":[{"name":"newStatus","type":"uint8","indexed":false,"internalType":"enum PriceFeed.Status"}],"anonymous":false},{"type":"event","name":"PythAddressChanged","inputs":[{"name":"_pythAddress","type":"address","indexed":false,"internalType":"address"}],"anonymous":false},{"type":"event","name":"StabilityPoolAddressChanged","inputs":[{"name":"_stabilityPoolAddress","type":"address","indexed":false,"internalType":"address"}],"anonymous":false},{"type":"event","name":"TroveManagerAddressChanged","inputs":[{"name":"_troveManagerAddress","type":"address","indexed":false,"internalType":"address"}],"anonymous":false}],"bytecode":{"object":"0x6080604052607860075534801561001557600080fd5b50600080546001600160a01b0319163390811782556040519091907f8be0079c531659141344cd1fd0a4f28419497f9722a3daafe3b4186f6b6457e0908290a3611bd4806100646000396000f3fe6080604052600436106100dd5760003560e01c80630490be83146100e95780631be5c92f14610114578063200d2ed214610129578063262a9dff1461014b5780632caa8f11146101605780633078fff51461017557806345079cb4146101975780634e15f2a5146101ac57806358a6aa88146101d957806377c3357c146101ee5780638da5cb5b146102035780638f32d59b146102185780639cb8c4f31461023a578063a20baee61461024f578063a3f4df7e14610264578063c2da429914610286578063f56f48f21461029b578063f98d06f0146102b0576100e4565b366100e457005b600080fd5b3480156100f557600080fd5b506100fe6102c5565b60405161010b919061199c565b60405180910390f35b34801561012057600080fd5b506100fe6102cb565b34801561013557600080fd5b5061013e6102d0565b60405161010b91906119b3565b34801561015757600080fd5b506100fe6102d9565b34801561016c57600080fd5b506100fe6102df565b34801561018157600080fd5b5061018a6102e4565b60405161010b91906118e7565b3480156101a357600080fd5b506100fe6102f3565b3480156101b857600080fd5b506101cc6101c736600461176c565b6102fe565b60405161010b9190611b70565b3480156101e557600080fd5b506100fe6107fb565b3480156101fa57600080fd5b506100fe610807565b34801561020f57600080fd5b5061018a610812565b34801561022457600080fd5b5061022d610822565b60405161010b9190611991565b61024d6102483660046116c5565b610833565b005b34801561025b57600080fd5b506100fe610aa9565b34801561027057600080fd5b50610279610ab5565b60405161010b91906119c7565b34801561029257600080fd5b506100fe610ada565b3480156102a757600080fd5b506100fe610ae0565b3480156102bc57600080fd5b5061018a610ae6565b60085481565b601281565b60095460ff1681565b60075481565b600881565b6001546001600160a01b031681565b66b1a2bc2ec5000081565b6103066115d1565b61030e610af5565b6103166115fc565b61031e610b55565b90506103286115fc565b61033a82600001518360800151610c98565b905061034461162a565b61034e8686610d53565b60008086526040860181905260608601819052630a0b2a8960e31b602087015290915060095460ff16600481111561038257fe5b14156104b85761039181610f77565b15610410576103a08383611003565b156103b9576103af6002611024565b600854845261040b565b6103c28361107c565b156103e8576103d16001611024565b6008548452634c494e4b60e01b602085015261040b565b6103f26001611024565b6103fb8361109f565b8452634c494e4b60e01b60208501525b6104af565b610419816110c2565b15610476576104288383611003565b15610437576103af6004611024565b6104416003611024565b634c494e4b60e01b60208501526104578361107c565b1561046657600854845261040b565b61046f8361109f565b84526104af565b6104808383611003565b1561048f5761048f6004611024565b610498816110f1565b845260408082015190850152606080820151908501525b506107f5915050565b600160095460ff1660048111156104cb57fe5b1415610590576104dc838383611108565b1561051c576104eb6000611024565b6104f4816110f1565b8452630a0b2a8960e31b602085015260408082015190850152606080820151908501526104af565b6105268383611003565b1561053f576105356002611024565b60085484526104af565b6105488361107c565b156105575760085484526104af565b6105618383611160565b15610570576105356002611024565b6105798361109f565b84525050634c494e4b60e01b6020830152506107f5565b600260095460ff1660048111156105a357fe5b1415610601576105b4838383611108565b156105f4576105c36000611024565b630a0b2a8960e31b60208501526105d9816110f1565b845260408082015190850152606080820151908501526104af565b50506008548252506107f5565b600360095460ff16600481111561061457fe5b14156107855761062381610f77565b15610689576106328383611003565b15610641576103af6002611024565b61064b6001611024565b634c494e4b60e01b60208501526106618361107c565b1561067057600854845261040b565b61067a8383611160565b15610466576103af6002611024565b610692816110c2565b156106f8576106a18383611003565b156106c7576106b06004611024565b630a0b2a8960e31b6020850152600854845261040b565b6106d08361107c565b156106df57600854845261040b565b6106e98383611160565b156103f2576103af6002611024565b6107028383611003565b15610711576105c36004611024565b61071a8361107c565b156107295760085484526104af565b61073383826111f3565b15610742576105c36000611024565b61074c8383611160565b1561075b576105356002611024565b6107648361109f565b84526107706001611024565b5050634c494e4b60e01b6020830152506107f5565b600460095460ff16600481111561079857fe5b14156107f1576107a781610f77565b156107b6576105356002611024565b6107bf816110c2565b156107ce5760085484526104af565b6107d9838383611108565b1561048f576107e86000611024565b6105d9816110f1565b5050505b92915050565b6706f05b59d3b2000081565b6608e1bc9bf0400081565b6000546001600160a01b03165b90565b6000546001600160a01b0316331490565b61083b610822565b6108605760405162461bcd60e51b815260040161085790611afd565b60405180910390fd5b61086988611267565b61087287611267565b61087b86611267565b61088485611267565b61088d84611267565b600480546001600160a01b03199081166001600160a01b03898116919091179092556003805482168884161790556005805482168784161790556001805482168b8416179055600280549091169189169190911790556009805460ff191690556108f6836112b0565b6108fe61162a565b6109088383610d53565b9050610913816112b5565b1580156109265750610924816110c2565b155b6109425760405162461bcd60e51b815260040161085790611ab2565b61094b816110f1565b507fdb1a32d3af6c09c0dc928386f3a979ebef1c0c514be0d3379a34e8beac47ac4c8960405161097b91906118e7565b60405180910390a17fa5b9d42b6449a4cbc3936ec94cbed2dbb80d283190074ae10b68b7956a063726886040516109b291906118e7565b60405180910390a17f143219c9e69b09e07e095fcc889b43d8f46ca892bba65f08dc3a0050869a5678876040516109e991906118e7565b60405180910390a17f57b6fedb5334102e897c98740e61298b40e4f2eadf19f7f18ced35bdd210fb9286604051610a2091906118e7565b60405180910390a17f82966d27eea39b038ee0fa30cd16532bb24f6e65d31cb58fb227aa5766cdcc7f85604051610a5791906118e7565b60405180910390a17f5f5ee1f0da4fff3282fbadb43af373221e09c79af1ffbd69f8d33b0d65a7593e84604051610a8e919061199c565b60405180910390a1610a9e6112eb565b505050505050505050565b670de0b6b3a764000081565b60405180604001604052806009815260200168141c9a58d95199595960ba1b81525081565b60065481565b61384081565b6002546001600160a01b031681565b33301480610b0d57506004546001600160a01b031633145b80610b2257506003546001600160a01b031633145b80610b3757506005546001600160a01b031633145b610b535760405162461bcd60e51b815260040161085790611a1a565b565b610b5d6115fc565b600160009054906101000a90046001600160a01b03166001600160a01b031663313ce5676040518163ffffffff1660e01b815260040160206040518083038186803b158015610bab57600080fd5b505afa925050508015610bdb575060408051601f3d908101601f19168201909252610bd89181019061189c565b60015b610be45761081f565b60ff166080820152600160009054906101000a90046001600160a01b03166001600160a01b031663feaf968c6040518163ffffffff1660e01b815260040160a06040518083038186803b158015610c3a57600080fd5b505afa925050508015610c6a575060408051601f3d908101601f19168201909252610c679181019061184b565b60015b610c735761081f565b506001600160501b03909316845250602083015260408201526001606082015261081f565b610ca06115fc565b600154604051639a6fc8f560e01b81526001600160a01b0390911690639a6fc8f590610cd490600019870190600401611b9b565b60a06040518083038186803b158015610cec57600080fd5b505afa925050508015610d1c575060408051601f3d908101601f19168201909252610d199181019061184b565b60015b610d25576107f5565b506001600160501b039093168452506020830152604082015260ff82166080820152600160608201526107f5565b610d5b61162a565b60025460405163d47eed4560e01b81526000916001600160a01b03169063d47eed4590610d8e90879087906004016118fb565b60206040518083038186803b158015610da657600080fd5b505afa158015610dba573d6000803e3d6000fd5b505050506040513d601f19601f82011682018060405250810190610dde9190611833565b600254604051631df3cbc560e31b81529192506001600160a01b03169063ef9e5e28908390610e1390889088906004016118fb565b6000604051808303818588803b158015610e2c57600080fd5b505af1158015610e40573d6000803e3d6000fd5b505060025460065460075460405163052571af60e51b81526001600160a01b03909316955063a4ae35e09450610e7b935090916004016119a5565b60806040518083038186803b158015610e9357600080fd5b505afa925050508015610ec3575060408051601f3d908101601f19168201909252610ec0918101906117ab565b60015b610ecd57506107f5565b610ed8816012611335565b602080850191909152810151600090610f08906001600160401b0316670de0b6b3a764000063ffffffff6113b016565b90508360200151600014610f45578151610f3f90606490610f3390849060070b63ffffffff6113ea16565b9063ffffffff6113ea16565b60408501525b60608083015190850152602084015115801590610f655750606084015115155b156107f1576001845250505092915050565b8051600090610f8857506001610ffe565b6060820151610f9957506001610ffe565b4282606001511115610fcb576060820151600590610fbd904263ffffffff61142916565b1115610fcb57506001610ffe565b6000826020015111610fdf57506001610ffe565b60408201516608e1bc9bf040001015610ffa57506001610ffe565b5060005b919050565b600061100e8361146b565b8061101d575061101d8261146b565b9392505050565b6009805482919060ff1916600183600481111561103d57fe5b02179055507f5c57579a8214fe4f710c1c56fa829f045b9fa6d225a744225a30c32188064d4e8160405161107191906119b3565b60405180910390a150565b600061384061109883604001514261142990919063ffffffff16565b1192915050565b6000806110b78360200151846080015160ff166114ca565b90506107f581611513565b60008160600151421115610ffa57601e6110e983606001514261142990919063ffffffff16565b119050610ffe565b60006111008260200151611513565b506020015190565b600061111382610f77565b806111225750611122826110c2565b8061113257506111328484611003565b8061114157506111418461107c565b1561114e5750600061101d565b61115884836111f3565b949350505050565b6000806111788460200151856080015160ff166114ca565b905060006111918460200151856080015160ff166114ca565b9050600061119f8383611548565b905060006111ad848461155e565b905060006111dd82610f33670de0b6b3a76400006111d1838863ffffffff61142916565b9063ffffffff6113b016565b6706f05b59d3b200001098975050505050505050565b60008061120b8460200151856080015160ff166114ca565b6020840151909150600061121f8284611548565b9050600061122d838561155e565b9050600061125183610f33670de0b6b3a76400006111d1868463ffffffff61142916565b66b1a2bc2ec50000101598975050505050505050565b6001600160a01b03811661128d5760405162461bcd60e51b815260040161085790611b32565b803b806112ac5760405162461bcd60e51b815260040161085790611b51565b5050565b600655565b80516000906112c657506001610ffe565b60608201516112d757506001610ffe565b6000826020015111610ffa57506001610ffe565b600080546040516001600160a01b03909116907f8be0079c531659141344cd1fd0a4f28419497f9722a3daafe3b4186f6b6457e0908390a3600080546001600160a01b0319169055565b600080836000015160070b128061135357506000836040015160030b135b80611366575060fe19836040015160030b125b15611373575060006107f5565b60408301516000036113a861139460ff85811690841663ffffffff61142916565b855160070b90600a0a63ffffffff6113b016565b9150506107f5565b6000826113bf575060006107f5565b828202828482816113cc57fe5b041461101d5760405162461bcd60e51b815260040161085790611a71565b600061101d83836040518060400160405280601a815260200179536166654d6174683a206469766973696f6e206279207a65726f60301b81525061156e565b600061101d83836040518060400160405280601e81526020017f536166654d6174683a207375627472616374696f6e206f766572666c6f7700008152506115a5565b6000816060015161147e57506001610ffe565b81516001600160501b031661149557506001610ffe565b604082015115806114a95750428260400151115b156114b657506001610ffe565b6000826020015113610ffa57506001610ffe565b600080601283106114f3576114ec846011198501600a0a63ffffffff6113ea16565b905061101d565b601283101561101d57611158846012859003600a0a63ffffffff6113b016565b60088190556040517f4d29de21de555af78a62fc82dd4bc05e9ae5b0660a37f04729527e0f22780cd39061107190839061199c565b6000818310611557578161101d565b5090919050565b600081831015611557578161101d565b6000818361158f5760405162461bcd60e51b815260040161085791906119c7565b50600083858161159b57fe5b0495945050505050565b600081848411156115c95760405162461bcd60e51b815260040161085791906119c7565b505050900390565b6040518060800160405280600081526020016000801916815260200160008152602001600081525090565b6040805160a08101825260008082526020820181905291810182905260608101829052608081019190915290565b60405180608001604052806000151581526020016000815260200160008152602001600081525090565b60008083601f840112611665578182fd5b5081356001600160401b0381111561167b578182fd5b602083019150836020808302850101111561169557600080fd5b9250929050565b8051600381900b81146107f557600080fd5b80516001600160501b03811681146107f557600080fd5b60008060008060008060008060e0898b0312156116e0578384fd5b88356116eb81611baf565b975060208901356116fb81611baf565b9650604089013561170b81611baf565b9550606089013561171b81611baf565b9450608089013561172b81611baf565b935060a0890135925060c08901356001600160401b0381111561174c578283fd5b6117588b828c01611654565b999c989b5096995094979396929594505050565b6000806020838503121561177e578182fd5b82356001600160401b03811115611793578283fd5b61179f85828601611654565b90969095509350505050565b6000608082840312156117bc578081fd5b604051608081016001600160401b0380821183831017156117db578384fd5b81604052845191508160070b82146117f1578384fd5b9082526020840151908082168214611807578384fd5b50602082015261181a846040850161169c565b6040820152606083015160608201528091505092915050565b600060208284031215611844578081fd5b5051919050565b600080600080600060a08688031215611862578081fd5b61186c87876116ae565b945060208601519350604086015192506060860151915061189087608088016116ae565b90509295509295909350565b6000602082840312156118ad578081fd5b815160ff8116811461101d578182fd5b60008284528282602086013780602084860101526020601f19601f85011685010190509392505050565b6001600160a01b0391909116815260200190565b602080825281810183905260009060408482028401810190840186845b8781101561198457868403603f190183528135368a9003601e1901811261193d578687fd5b89018035906001600160401b03821115611955578788fd5b8136038b1315611963578788fd5b61197086838984016118bd565b955050509184019190840190600101611918565b5091979650505050505050565b901515815260200190565b90815260200190565b918252602082015260400190565b60208101600583106119c157fe5b91905290565b6000602080835283518082850152825b818110156119f3578581018301518582016040015282016119d7565b81811115611a045783604083870101525b50601f01601f1916929092016040019392505050565b60208082526037908201527f5072696365466565643a204f6e6c79207265737472696374656420636f6e74726040820152766163742063616e2063616c6c206665746368507269636560481b606082015260800190565b60208082526021908201527f536166654d6174683a206d756c7469706c69636174696f6e206f766572666c6f6040820152607760f81b606082015260800190565b6020808252602b908201527f5072696365466565643a2050797468206d75737420626520776f726b696e672060408201526a185b990818dd5c9c995b9d60aa1b606082015260800190565b6020808252818101527f4f776e61626c653a2063616c6c6572206973206e6f7420746865206f776e6572604082015260600190565b6020808252600590820152641830b2323960d91b604082015260600190565b60208082526005908201526430636f646560d81b604082015260600190565b8151815260208083015190820152604080830151908201526060918201519181019190915260800190565b6001600160501b0391909116815260200190565b6001600160a01b0381168114611bc457600080fd5b5056fea164736f6c634300060b000a","linkReferences":{}},"methodIdentifiers":{"BNBFeed()":"c2da4299","DECIMAL_PRECISION()":"a20baee6","MAX_PRICE_DEVIATION_FROM_PREVIOUS_ROUND()":"58a6aa88","MAX_PRICE_DIFFERENCE_BETWEEN_ORACLES()":"45079cb4","MAX_SCALED_DEVIATION_PYTH()":"77c3357c","NAME()":"a3f4df7e","PYTH_DIGITS()":"2caa8f11","TARGET_DIGITS()":"1be5c92f","TIMEOUT()":"f56f48f2","age()":"262a9dff","fetchPrice(bytes[])":"4e15f2a5","isOwner()":"8f32d59b","lastGoodPrice()":"0490be83","owner()":"8da5cb5b","priceAggregator()":"3078fff5","pyth()":"f98d06f0","setAddresses(address,address,address,address,address,bytes32,bytes[])":"9cb8c4f3","status()":"200d2ed2"},"id":61}