{"abi":[{"type":"receive","stateMutability":"payable"},{"type":"function","name":"NAME","inputs":[],"outputs":[{"name":"","type":"string","internalType":"string"}],"stateMutability":"view"},{"type":"function","name":"accountSurplus","inputs":[{"name":"_account","type":"address","internalType":"address"},{"name":"_amount","type":"uint256","internalType":"uint256"}],"outputs":[],"stateMutability":"nonpayable"},{"type":"function","name":"activePoolAddress","inputs":[],"outputs":[{"name":"","type":"address","internalType":"address"}],"stateMutability":"view"},{"type":"function","name":"borrowerOperationsAddress","inputs":[],"outputs":[{"name":"","type":"address","internalType":"address"}],"stateMutability":"view"},{"type":"function","name":"claimColl","inputs":[{"name":"_account","type":"address","internalType":"address"}],"outputs":[],"stateMutability":"nonpayable"},{"type":"function","name":"getBNB","inputs":[],"outputs":[{"name":"","type":"uint256","internalType":"uint256"}],"stateMutability":"view"},{"type":"function","name":"getCollateral","inputs":[{"name":"_account","type":"address","internalType":"address"}],"outputs":[{"name":"","type":"uint256","internalType":"uint256"}],"stateMutability":"view"},{"type":"function","name":"isOwner","inputs":[],"outputs":[{"name":"","type":"bool","internalType":"bool"}],"stateMutability":"view"},{"type":"function","name":"owner","inputs":[],"outputs":[{"name":"","type":"address","internalType":"address"}],"stateMutability":"view"},{"type":"function","name":"setAddresses","inputs":[{"name":"_borrowerOperationsAddress","type":"address","internalType":"address"},{"name":"_troveManagerAddress","type":"address","internalType":"address"},{"name":"_activePoolAddress","type":"address","internalType":"address"}],"outputs":[],"stateMutability":"nonpayable"},{"type":"function","name":"troveManagerAddress","inputs":[],"outputs":[{"name":"","type":"address","internalType":"address"}],"stateMutability":"view"},{"type":"event","name":"ActivePoolAddressChanged","inputs":[{"name":"_newActivePoolAddress","type":"address","indexed":false,"internalType":"address"}],"anonymous":false},{"type":"event","name":"BorrowerOperationsAddressChanged","inputs":[{"name":"_newBorrowerOperationsAddress","type":"address","indexed":false,"internalType":"address"}],"anonymous":false},{"type":"event","name":"CollBalanceUpdated","inputs":[{"name":"_account","type":"address","indexed":true,"internalType":"address"},{"name":"_newBalance","type":"uint256","indexed":false,"internalType":"uint256"}],"anonymous":false},{"type":"event","name":"EtherSent","inputs":[{"name":"_to","type":"address","indexed":false,"internalType":"address"},{"name":"_amount","type":"uint256","indexed":false,"internalType":"uint256"}],"anonymous":false},{"type":"event","name":"OwnershipTransferred","inputs":[{"name":"previousOwner","type":"address","indexed":true,"internalType":"address"},{"name":"newOwner","type":"address","indexed":true,"internalType":"address"}],"anonymous":false},{"type":"event","name":"TroveManagerAddressChanged","inputs":[{"name":"_newTroveManagerAddress","type":"address","indexed":false,"internalType":"address"}],"anonymous":false}],"bytecode":{"object":"0x608060405234801561001057600080fd5b50600080546001600160a01b0319163390811782556040519091907f8be0079c531659141344cd1fd0a4f28419497f9722a3daafe3b4186f6b6457e0908290a3610acb8061005f6000396000f3fe6080604052600436106100905760003560e01c8063363bf964146100ba5780633f10abab146101015780635a4d28bb1461013a57806378a619de1461016b5780638da5cb5b146101925780638f32d59b146101a75780639b56d6c9146101d0578063a3f4df7e14610203578063b08bc7221461028d578063b32beb5b146102a2578063b7f8cf9b146102d5576100b5565b366100b55761009d6102ea565b6004546100b0903463ffffffff61033516565b600455005b600080fd5b3480156100c657600080fd5b506100ff600480360360608110156100dd57600080fd5b506001600160a01b038135811691602081013582169160409091013516610394565b005b34801561010d57600080fd5b506100ff6004803603604081101561012457600080fd5b506001600160a01b0381351690602001356104fa565b34801561014657600080fd5b5061014f610574565b604080516001600160a01b039092168252519081900360200190f35b34801561017757600080fd5b50610180610583565b60408051918252519081900360200190f35b34801561019e57600080fd5b5061014f610589565b3480156101b357600080fd5b506101bc610598565b604080519115158252519081900360200190f35b3480156101dc57600080fd5b50610180600480360360208110156101f357600080fd5b50356001600160a01b03166105a9565b34801561020f57600080fd5b506102186105c4565b6040805160208082528351818301528351919283929083019185019080838360005b8381101561025257818101518382015260200161023a565b50505050905090810190601f16801561027f5780820380516001836020036101000a031916815260200191505b509250505060405180910390f35b34801561029957600080fd5b5061014f6105ef565b3480156102ae57600080fd5b506100ff600480360360208110156102c557600080fd5b50356001600160a01b03166105fe565b3480156102e157600080fd5b5061014f610781565b6003546001600160a01b031633146103335760405162461bcd60e51b815260040180806020018281038252602a815260200180610a18602a913960400191505060405180910390fd5b565b60008282018381101561038d576040805162461bcd60e51b815260206004820152601b60248201527a536166654d6174683a206164646974696f6e206f766572666c6f7760281b604482015290519081900360640190fd5b9392505050565b61039c610598565b6103ed576040805162461bcd60e51b815260206004820181905260248201527f4f776e61626c653a2063616c6c6572206973206e6f7420746865206f776e6572604482015290519081900360640190fd5b6103f683610790565b6103ff82610790565b61040881610790565b600180546001600160a01b038086166001600160a01b0319928316811790935560028054868316908416179055600380549185169190921617905560408051918252517f3ca631ffcd2a9b5d9ae18543fc82f58eb4ca33af9e6ab01b7a8e95331e6ed9859181900360200190a1604080516001600160a01b038416815290517f143219c9e69b09e07e095fcc889b43d8f46ca892bba65f08dc3a0050869a56789181900360200190a1604080516001600160a01b038316815290517f78f058b189175430c48dc02699e3a0031ea4ff781536dc2fab847de4babdd8829181900360200190a16104f5610813565b505050565b61050261085d565b6001600160a01b03821660009081526005602052604081205461052b908363ffffffff61033516565b6001600160a01b038416600081815260056020908152604091829020849055815184815291519394509192600080516020610a42833981519152929181900390910190a2505050565b6002546001600160a01b031681565b60045490565b6000546001600160a01b031690565b6000546001600160a01b0316331490565b6001600160a01b031660009081526005602052604090205490565b6040518060400160405280600f81526020016e10dbdb1b14dd5c9c1b1d5cd41bdbdb608a1b81525081565b6003546001600160a01b031681565b6106066108a6565b6001600160a01b0381166000908152600560205260409020548061065b5760405162461bcd60e51b81526004018080602001828103825260318152602001806109c46031913960400191505060405180910390fd5b6001600160a01b0382166000818152600560209081526040808320839055805192835251600080516020610a428339815191529281900390910190a26004546106aa908263ffffffff6108ef16565b600455604080516001600160a01b03841681526020810183905281517f6109e2559dfa766aaec7118351d48a523f0a4157f49c8d68749c8ac41318ad12929181900390910190a16040516000906001600160a01b0384169083908381818185875af1925050503d806000811461073c576040519150601f19603f3d011682016040523d82523d6000602084013e610741565b606091505b50509050806104f55760405162461bcd60e51b81526004018080602001828103825260238152602001806109f56023913960400191505060405180910390fd5b6001546001600160a01b031681565b6001600160a01b0381166107d3576040805162461bcd60e51b81526020600482015260056024820152641830b2323960d91b604482015290519081900360640190fd5b803b8061080f576040805162461bcd60e51b815260206004820152600560248201526430636f646560d81b604482015290519081900360640190fd5b5050565b600080546040516001600160a01b03909116907f8be0079c531659141344cd1fd0a4f28419497f9722a3daafe3b4186f6b6457e0908390a3600080546001600160a01b0319169055565b6002546001600160a01b031633146103335760405162461bcd60e51b815260040180806020018281038252602b815260200180610a94602b913960400191505060405180910390fd5b6001546001600160a01b031633146103335760405162461bcd60e51b8152600401808060200182810382526032815260200180610a626032913960400191505060405180910390fd5b600061038d83836040518060400160405280601e81526020017f536166654d6174683a207375627472616374696f6e206f766572666c6f770000815250600081848411156109bb5760405162461bcd60e51b81526004018080602001828103825283818151815260200191508051906020019080838360005b83811015610980578181015183820152602001610968565b50505050905090810190601f1680156109ad5780820380516001836020036101000a031916815260200191505b509250505060405180910390fd5b50505090039056fe436f6c6c537572706c7573506f6f6c3a204e6f20636f6c6c61746572616c20617661696c61626c6520746f20636c61696d436f6c6c537572706c7573506f6f6c3a2073656e64696e6720424e42206661696c6564436f6c6c537572706c7573506f6f6c3a2043616c6c6572206973206e6f742041637469766520506f6f6cf0393a34d05e6567686ad4e097f9d9d2781565957394f1f0d984e5d8e6378f20436f6c6c537572706c7573506f6f6c3a2043616c6c6572206973206e6f7420426f72726f776572204f7065726174696f6e73436f6c6c537572706c7573506f6f6c3a2043616c6c6572206973206e6f742054726f76654d616e61676572a164736f6c634300060b000a","linkReferences":{}},"methodIdentifiers":{"NAME()":"a3f4df7e","accountSurplus(address,uint256)":"3f10abab","activePoolAddress()":"b08bc722","borrowerOperationsAddress()":"b7f8cf9b","claimColl(address)":"b32beb5b","getBNB()":"78a619de","getCollateral(address)":"9b56d6c9","isOwner()":"8f32d59b","owner()":"8da5cb5b","setAddresses(address,address,address)":"363bf964","troveManagerAddress()":"5a4d28bb"},"storageLayout":{"storage":[{"astId":308,"contract":"src/CollSurplusPool.sol:CollSurplusPool","label":"_owner","offset":0,"slot":"0","type":"t_address"},{"astId":20,"contract":"src/CollSurplusPool.sol:CollSurplusPool","label":"borrowerOperationsAddress","offset":0,"slot":"1","type":"t_address"},{"astId":22,"contract":"src/CollSurplusPool.sol:CollSurplusPool","label":"troveManagerAddress","offset":0,"slot":"2","type":"t_address"},{"astId":24,"contract":"src/CollSurplusPool.sol:CollSurplusPool","label":"activePoolAddress","offset":0,"slot":"3","type":"t_address"},{"astId":26,"contract":"src/CollSurplusPool.sol:CollSurplusPool","label":"BNB","offset":0,"slot":"4","type":"t_uint256"},{"astId":30,"contract":"src/CollSurplusPool.sol:CollSurplusPool","label":"balances","offset":0,"slot":"5","type":"t_mapping(t_address,t_uint256)"}],"types":{"t_address":{"encoding":"inplace","label":"address","numberOfBytes":"20"},"t_mapping(t_address,t_uint256)":{"encoding":"mapping","key":"t_address","label":"mapping(address => uint256)","numberOfBytes":"32","value":"t_uint256"},"t_uint256":{"encoding":"inplace","label":"uint256","numberOfBytes":"32"}}},"id":0}