{"abi":[{"type":"constructor","inputs":[{"name":"_troveManagerAddress","type":"address","internalType":"address"},{"name":"_stabilityPoolAddress","type":"address","internalType":"address"},{"name":"_borrowerOperationsAddress","type":"address","internalType":"address"}],"stateMutability":"nonpayable"},{"type":"function","name":"allowance","inputs":[{"name":"owner","type":"address","internalType":"address"},{"name":"spender","type":"address","internalType":"address"}],"outputs":[{"name":"","type":"uint256","internalType":"uint256"}],"stateMutability":"view"},{"type":"function","name":"approve","inputs":[{"name":"spender","type":"address","internalType":"address"},{"name":"amount","type":"uint256","internalType":"uint256"}],"outputs":[{"name":"","type":"bool","internalType":"bool"}],"stateMutability":"nonpayable"},{"type":"function","name":"balanceOf","inputs":[{"name":"account","type":"address","internalType":"address"}],"outputs":[{"name":"","type":"uint256","internalType":"uint256"}],"stateMutability":"view"},{"type":"function","name":"borrowerOperationsAddress","inputs":[],"outputs":[{"name":"","type":"address","internalType":"address"}],"stateMutability":"view"},{"type":"function","name":"burn","inputs":[{"name":"_account","type":"address","internalType":"address"},{"name":"_amount","type":"uint256","internalType":"uint256"}],"outputs":[],"stateMutability":"nonpayable"},{"type":"function","name":"decimals","inputs":[],"outputs":[{"name":"","type":"uint8","internalType":"uint8"}],"stateMutability":"view"},{"type":"function","name":"decreaseAllowance","inputs":[{"name":"spender","type":"address","internalType":"address"},{"name":"subtractedValue","type":"uint256","internalType":"uint256"}],"outputs":[{"name":"","type":"bool","internalType":"bool"}],"stateMutability":"nonpayable"},{"type":"function","name":"domainSeparator","inputs":[],"outputs":[{"name":"","type":"bytes32","internalType":"bytes32"}],"stateMutability":"view"},{"type":"function","name":"increaseAllowance","inputs":[{"name":"spender","type":"address","internalType":"address"},{"name":"addedValue","type":"uint256","internalType":"uint256"}],"outputs":[{"name":"","type":"bool","internalType":"bool"}],"stateMutability":"nonpayable"},{"type":"function","name":"mint","inputs":[{"name":"_account","type":"address","internalType":"address"},{"name":"_amount","type":"uint256","internalType":"uint256"}],"outputs":[],"stateMutability":"nonpayable"},{"type":"function","name":"name","inputs":[],"outputs":[{"name":"","type":"string","internalType":"string"}],"stateMutability":"view"},{"type":"function","name":"nonces","inputs":[{"name":"owner","type":"address","internalType":"address"}],"outputs":[{"name":"","type":"uint256","internalType":"uint256"}],"stateMutability":"view"},{"type":"function","name":"permit","inputs":[{"name":"owner","type":"address","internalType":"address"},{"name":"spender","type":"address","internalType":"address"},{"name":"amount","type":"uint256","internalType":"uint256"},{"name":"deadline","type":"uint256","internalType":"uint256"},{"name":"v","type":"uint8","internalType":"uint8"},{"name":"r","type":"bytes32","internalType":"bytes32"},{"name":"s","type":"bytes32","internalType":"bytes32"}],"outputs":[],"stateMutability":"nonpayable"},{"type":"function","name":"permitTypeHash","inputs":[],"outputs":[{"name":"","type":"bytes32","internalType":"bytes32"}],"stateMutability":"view"},{"type":"function","name":"returnFromPool","inputs":[{"name":"_poolAddress","type":"address","internalType":"address"},{"name":"_receiver","type":"address","internalType":"address"},{"name":"_amount","type":"uint256","internalType":"uint256"}],"outputs":[],"stateMutability":"nonpayable"},{"type":"function","name":"sendToPool","inputs":[{"name":"_sender","type":"address","internalType":"address"},{"name":"_poolAddress","type":"address","internalType":"address"},{"name":"_amount","type":"uint256","internalType":"uint256"}],"outputs":[],"stateMutability":"nonpayable"},{"type":"function","name":"stabilityPoolAddress","inputs":[],"outputs":[{"name":"","type":"address","internalType":"address"}],"stateMutability":"view"},{"type":"function","name":"symbol","inputs":[],"outputs":[{"name":"","type":"string","internalType":"string"}],"stateMutability":"view"},{"type":"function","name":"totalSupply","inputs":[],"outputs":[{"name":"","type":"uint256","internalType":"uint256"}],"stateMutability":"view"},{"type":"function","name":"transfer","inputs":[{"name":"recipient","type":"address","internalType":"address"},{"name":"amount","type":"uint256","internalType":"uint256"}],"outputs":[{"name":"","type":"bool","internalType":"bool"}],"stateMutability":"nonpayable"},{"type":"function","name":"transferFrom","inputs":[{"name":"sender","type":"address","internalType":"address"},{"name":"recipient","type":"address","internalType":"address"},{"name":"amount","type":"uint256","internalType":"uint256"}],"outputs":[{"name":"","type":"bool","internalType":"bool"}],"stateMutability":"nonpayable"},{"type":"function","name":"troveManagerAddress","inputs":[],"outputs":[{"name":"","type":"address","internalType":"address"}],"stateMutability":"view"},{"type":"function","name":"version","inputs":[],"outputs":[{"name":"","type":"string","internalType":"string"}],"stateMutability":"view"},{"type":"event","name":"Approval","inputs":[{"name":"owner","type":"address","indexed":true,"internalType":"address"},{"name":"spender","type":"address","indexed":true,"internalType":"address"},{"name":"value","type":"uint256","indexed":false,"internalType":"uint256"}],"anonymous":false},{"type":"event","name":"BorrowerOperationsAddressChanged","inputs":[{"name":"_newBorrowerOperationsAddress","type":"address","indexed":false,"internalType":"address"}],"anonymous":false},{"type":"event","name":"StabilityPoolAddressChanged","inputs":[{"name":"_newStabilityPoolAddress","type":"address","indexed":false,"internalType":"address"}],"anonymous":false},{"type":"event","name":"Transfer","inputs":[{"name":"from","type":"address","indexed":true,"internalType":"address"},{"name":"to","type":"address","indexed":true,"internalType":"address"},{"name":"value","type":"uint256","indexed":false,"internalType":"uint256"}],"anonymous":false},{"type":"event","name":"TroveManagerAddressChanged","inputs":[{"name":"_troveManagerAddress","type":"address","indexed":false,"internalType":"address"}],"anonymous":false},{"type":"event","name":"USDSTokenBalanceUpdated","inputs":[{"name":"_user","type":"address","indexed":false,"internalType":"address"},{"name":"_amount","type":"uint256","indexed":false,"internalType":"uint256"}],"anonymous":false}],"bytecode":{"object":"0x6101606040523480156200001257600080fd5b506040516200181e3803806200181e833981810160405260608110156200003857600080fd5b50805160208201516040909201519091906200005d836001600160e01b036200025316565b62000071826001600160e01b036200025316565b62000085816001600160e01b036200025316565b6001600160601b0319606084901b1661010052604080516001600160a01b038516815290517f143219c9e69b09e07e095fcc889b43d8f46ca892bba65f08dc3a0050869a56789181900360200190a16001600160601b0319606083901b1661012052604080516001600160a01b038416815290517f82966d27eea39b038ee0fa30cd16532bb24f6e65d31cb58fb227aa5766cdcc7f9181900360200190a16001600160601b0319606082901b1661014052604080516001600160a01b038316815290517f3ca631ffcd2a9b5d9ae18543fc82f58eb4ca33af9e6ab01b7a8e95331e6ed9859181900360200190a1604080518082018252600f81526e2aa9a2299029ba30b13632b1b7b4b760891b602091820152815180830190925260018252603160f81b9101527f2a23c41011e8e539e4f4084ffc24b3915572c705b02e784a519051e327b59f8060c08190527fc89efdaa54c0f20c7adf612882df0950f5a951637e0307cdcb4c672f298b8bc660e08190526200020b6001600160e01b03620002d816565b60a052620002447f8b73c3c69bb8fe3d512ecc4cf759cc79239f7b179b0ffacaa9a75d522b39400f83836001600160e01b03620002dc16565b608052506200033d9350505050565b6001600160a01b03811662000297576040805162461bcd60e51b81526020600482015260056024820152641830b2323960d91b604482015290519081900360640190fd5b803b80620002d4576040805162461bcd60e51b815260206004820152600560248201526430636f646560d81b604482015290519081900360640190fd5b5050565b4690565b6000838383620002f46001600160e01b03620002d816565b6040805160208082019690965280820194909452606084019290925260808301523060a0808401919091528151808403909101815260c090920190528051910120949350505050565b60805160a05160c05160e0516101005160601c6101205160601c6101405160601c611452620003cc6000398061072b5280610d085280610e7c5280610f775250806104f85280610aee5280610c8d5280610fdc52806110fa5250806106365280610abc5280610cca5280610fa9525080610a045250806109e352508061096952508061099952506114526000f3fe608060405234801561001057600080fd5b506004361061011d5760003560e01c806306fdde0314610122578063095ea7b31461019f5780630b622ab2146101df57806310ce43bd1461020357806318160ddd1461021d57806320c582be1461022557806323b872dd1461025d578063313ce5671461029357806339509351146102b157806340c10f19146102dd57806354fd4d50146103095780635a4d28bb1461031157806370a08231146103195780637ecebe001461033f57806395d89b41146103655780639dc29fac1461036d578063a457c2d714610399578063a9059cbb146103c5578063b7f8cf9b146103f1578063bb997bac146103f9578063d505accf1461042f578063dd62ed3e14610480578063f698da25146104ae575b600080fd5b61012a6104b6565b6040805160208082528351818301528351919283929083019185019080838360005b8381101561016457818101518382015260200161014c565b50505050905090810190601f1680156101915780820380516001836020036101000a031916815260200191505b509250505060405180910390f35b6101cb600480360360408110156101b557600080fd5b506001600160a01b0381351690602001356104e0565b604080519115158252519081900360200190f35b6101e76104f6565b604080516001600160a01b039092168252519081900360200190f35b61020b61051a565b60408051918252519081900360200190f35b61020b61052c565b61025b6004803603606081101561023b57600080fd5b506001600160a01b03813581169160208101359091169060400135610532565b005b6101cb6004803603606081101561027357600080fd5b506001600160a01b0381358116916020810135909116906040013561054a565b61029b6105c2565b6040805160ff9092168252519081900360200190f35b6101cb600480360360408110156102c757600080fd5b506001600160a01b0381351690602001356105c7565b61025b600480360360408110156102f357600080fd5b506001600160a01b038135169060200135610603565b61012a610619565b6101e7610634565b61020b6004803603602081101561032f57600080fd5b50356001600160a01b0316610658565b61020b6004803603602081101561035557600080fd5b50356001600160a01b0316610673565b61012a61068e565b61025b6004803603604081101561038357600080fd5b506001600160a01b0381351690602001356106ac565b6101cb600480360360408110156103af57600080fd5b506001600160a01b0381351690602001356106be565b6101cb600480360360408110156103db57600080fd5b506001600160a01b038135169060200135610713565b6101e7610729565b61025b6004803603606081101561040f57600080fd5b506001600160a01b0381358116916020810135909116906040013561074d565b61025b600480360360e081101561044557600080fd5b506001600160a01b03813581169160208101359091169060408101359060608101359060ff6080820135169060a08101359060c00135610755565b61020b6004803603604081101561049657600080fd5b506001600160a01b038135811691602001351661093a565b61020b610965565b60408051808201909152600f81526e2aa9a2299029ba30b13632b1b7b4b760891b60208201525b90565b60006104ed338484610a2f565b50600192915050565b7f000000000000000000000000000000000000000000000000000000000000000081565b6000805160206113cb83398151915290565b60005490565b61053a610ab1565b610545838383610b4d565b505050565b600061055583610c2f565b610560848484610b4d565b6105b884336105b385604051806060016040528060288152602001611358602891396001600160a01b038a166000908152600360209081526040808320338452909152902054919063ffffffff610d7b16565b610a2f565b5060019392505050565b601290565b3360008181526003602090815260408083206001600160a01b038716845290915281205490916104ed9185906105b3908663ffffffff610e1216565b61060b610e71565b6106158282610ed8565b5050565b6040805180820190915260018152603160f81b602082015290565b7f000000000000000000000000000000000000000000000000000000000000000081565b6001600160a01b031660009081526002602052604090205490565b6001600160a01b031660009081526001602052604090205490565b6040805180820190915260048152635553445360e01b602082015290565b6106b4610f6c565b6106158282611039565b60006104ed33846105b385604051806060016040528060258152602001611421602591393360009081526003602090815260408083206001600160a01b038d168452909152902054919063ffffffff610d7b16565b600061071e83610c2f565b6104ed338484610b4d565b7f000000000000000000000000000000000000000000000000000000000000000081565b61053a6110ef565b428410156107a3576040805162461bcd60e51b8152602060048201526016602482015275555344533a206578706972656420646561646c696e6560501b604482015290519081900360640190fd5b60006107ad610965565b6001600160a01b03808a166000818152600160208181526040808420805480850190915581516000805160206113cb8339815191528185015280830196909652958e166060860152608085018d905260a085019590955260c08085018c90528551808603909101815260e08501865280519082012061190160f01b6101008601526101028501969096526101228085019690965284518085039096018652610142840180865286519682019690962095839052610162840180865286905260ff8a166101828501526101a284018990526101c284018890529351949550909390926101e2808401939192601f1981019281900390910190855afa1580156108b8573d6000803e3d6000fd5b505050602060405103519050886001600160a01b0316816001600160a01b031614610924576040805162461bcd60e51b8152602060048201526017602482015276555344533a20696e76616c6964207369676e617475726560481b604482015290519081900360640190fd5b61092f898989610a2f565b505050505050505050565b6001600160a01b03918216600090815260036020908152604080832093909416825291909152205490565b60007f0000000000000000000000000000000000000000000000000000000000000000610990611156565b14156109bd57507f00000000000000000000000000000000000000000000000000000000000000006104dd565b610a287f8b73c3c69bb8fe3d512ecc4cf759cc79239f7b179b0ffacaa9a75d522b39400f7f00000000000000000000000000000000000000000000000000000000000000007f000000000000000000000000000000000000000000000000000000000000000061115a565b90506104dd565b6001600160a01b038316610a3f57fe5b6001600160a01b038216610a4f57fe5b6001600160a01b03808416600081815260036020908152604080832094871680845294825291829020859055815185815291517f8c5be1e5ebec7d5bd14f71427d1e84f3dd0314c0f7b2291e5b200ac8c7c3b9259281900390910190a3505050565b336001600160a01b037f0000000000000000000000000000000000000000000000000000000000000000161480610b105750336001600160a01b037f000000000000000000000000000000000000000000000000000000000000000016145b610b4b5760405162461bcd60e51b81526004018080602001828103825260368152602001806113eb6036913960400191505060405180910390fd5b565b6001600160a01b038316610b5d57fe5b6001600160a01b038216610b6d57fe5b610bb0816040518060600160405280602681526020016112b6602691396001600160a01b038616600090815260026020526040902054919063ffffffff610d7b16565b6001600160a01b038085166000908152600260205260408082209390935590841681522054610be5908263ffffffff610e1216565b6001600160a01b0380841660008181526002602090815260409182902094909455805185815290519193928716926000805160206113ab83398151915292918290030190a3505050565b6001600160a01b03811615801590610c5057506001600160a01b0381163014155b610c8b5760405162461bcd60e51b81526004018080602001828103825260548152602001806111f36054913960600191505060405180910390fd5b7f00000000000000000000000000000000000000000000000000000000000000006001600160a01b0316816001600160a01b031614158015610cff57507f00000000000000000000000000000000000000000000000000000000000000006001600160a01b0316816001600160a01b031614155b8015610d3d57507f00000000000000000000000000000000000000000000000000000000000000006001600160a01b0316816001600160a01b031614155b610d785760405162461bcd60e51b81526004018080602001828103825260578152602001806113016057913960600191505060405180910390fd5b50565b60008184841115610e0a5760405162461bcd60e51b81526004018080602001828103825283818151815260200191508051906020019080838360005b83811015610dcf578181015183820152602001610db7565b50505050905090810190601f168015610dfc5780820380516001836020036101000a031916815260200191505b509250505060405180910390fd5b505050900390565b600082820183811015610e6a576040805162461bcd60e51b815260206004820152601b60248201527a536166654d6174683a206164646974696f6e206f766572666c6f7760281b604482015290519081900360640190fd5b9392505050565b336001600160a01b037f00000000000000000000000000000000000000000000000000000000000000001614610b4b5760405162461bcd60e51b815260040180806020018281038252602b815260200180611380602b913960400191505060405180910390fd5b6001600160a01b038216610ee857fe5b600054610efb908263ffffffff610e1216565b60009081556001600160a01b038316815260026020526040902054610f26908263ffffffff610e1216565b6001600160a01b03831660008181526002602090815260408083209490945583518581529351929391926000805160206113ab8339815191529281900390910190a35050565b336001600160a01b037f0000000000000000000000000000000000000000000000000000000000000000161480610fcb5750336001600160a01b037f000000000000000000000000000000000000000000000000000000000000000016145b80610ffe5750336001600160a01b037f000000000000000000000000000000000000000000000000000000000000000016145b610b4b5760405162461bcd60e51b815260040180806020018281038252604d815260200180611247604d913960600191505060405180910390fd5b6001600160a01b03821661104957fe5b61108c81604051806060016040528060228152602001611294602291396001600160a01b038516600090815260026020526040902054919063ffffffff610d7b16565b6001600160a01b038316600090815260026020526040812091909155546110b9908263ffffffff6111b016565b60009081556040805183815290516001600160a01b038516916000805160206113ab833981519152919081900360200190a35050565b336001600160a01b037f00000000000000000000000000000000000000000000000000000000000000001614610b4b5760405162461bcd60e51b81526004018080602001828103825260258152602001806112dc6025913960400191505060405180910390fd5b4690565b6000838383611167611156565b6040805160208082019690965280820194909452606084019290925260808301523060a0808401919091528151808403909101815260c090920190528051910120949350505050565b6000610e6a83836040518060400160405280601e81526020017f536166654d6174683a207375627472616374696f6e206f766572666c6f770000815250610d7b56fe555344533a2043616e6e6f74207472616e7366657220746f6b656e73206469726563746c7920746f20746865205553445320746f6b656e20636f6e7472616374206f7220746865207a65726f2061646472657373555344533a2043616c6c6572206973206e65697468657220426f72726f7765724f7065726174696f6e73206e6f722054726f76654d616e61676572206e6f722053746162696c697479506f6f6c45524332303a206275726e20616d6f756e7420657863656564732062616c616e636545524332303a207472616e7366657220616d6f756e7420657863656564732062616c616e6365555344533a2043616c6c6572206973206e6f74207468652053746162696c697479506f6f6c555344533a2043616e6e6f74207472616e7366657220746f6b656e73206469726563746c7920746f207468652053746162696c697479506f6f6c2c2054726f76654d616e61676572206f7220426f72726f7765724f707345524332303a207472616e7366657220616d6f756e74206578636565647320616c6c6f77616e636555534453546f6b656e3a2043616c6c6572206973206e6f7420426f72726f7765724f7065726174696f6e73ddf252ad1be2c89b69c2b068fc378daa952ba7f163c4a11628f55a4df523b3ef6e71edae12b1b97f4d1f60370fef10105fa2faae0126114a169c64845d6126c9555344533a2043616c6c6572206973206e6569746865722054726f76654d616e61676572206e6f722053746162696c697479506f6f6c45524332303a2064656372656173656420616c6c6f77616e63652062656c6f77207a65726fa164736f6c634300060b000a","linkReferences":{}},"methodIdentifiers":{"allowance(address,address)":"dd62ed3e","approve(address,uint256)":"095ea7b3","balanceOf(address)":"70a08231","borrowerOperationsAddress()":"b7f8cf9b","burn(address,uint256)":"9dc29fac","decimals()":"313ce567","decreaseAllowance(address,uint256)":"a457c2d7","domainSeparator()":"f698da25","increaseAllowance(address,uint256)":"39509351","mint(address,uint256)":"40c10f19","name()":"06fdde03","nonces(address)":"7ecebe00","permit(address,address,uint256,uint256,uint8,bytes32,bytes32)":"d505accf","permitTypeHash()":"10ce43bd","returnFromPool(address,address,uint256)":"20c582be","sendToPool(address,address,uint256)":"bb997bac","stabilityPoolAddress()":"0b622ab2","symbol()":"95d89b41","totalSupply()":"18160ddd","transfer(address,uint256)":"a9059cbb","transferFrom(address,address,uint256)":"23b872dd","troveManagerAddress()":"5a4d28bb","version()":"54fd4d50"},"id":101}