{"abi":[{"type":"constructor","inputs":[{"name":"_sableStakingAddress","type":"address","internalType":"address"}],"stateMutability":"nonpayable"},{"type":"function","name":"stake","inputs":[{"name":"_SABLEamount","type":"uint256","internalType":"uint256"}],"outputs":[],"stateMutability":"nonpayable"}],"bytecode":{"object":"0x60a060405234801561001057600080fd5b506040516101ce3803806101ce8339818101604052602081101561003357600080fd5b5051610047816001600160e01b0361005c16565b60601b6001600160601b0319166080526100df565b6001600160a01b03811661009f576040805162461bcd60e51b81526020600482015260056024820152641830b2323960d91b604482015290519081900360640190fd5b803b806100db576040805162461bcd60e51b815260206004820152600560248201526430636f646560d81b604482015290519081900360640190fd5b5050565b60805160601c60d56100f960003980604b525060d56000f3fe6080604052348015600f57600080fd5b506004361060285760003560e01c8063a694fc3a14602d575b600080fd5b604760048036036020811015604157600080fd5b50356049565b005b7f00000000000000000000000000000000000000000000000000000000000000006001600160a01b031663a694fc3a826040518263ffffffff1660e01b815260040180828152602001915050600060405180830381600087803b15801560ae57600080fd5b505af115801560c1573d6000803e3d6000fd5b505050505056fea164736f6c634300060b000a","linkReferences":{}},"methodIdentifiers":{"stake(uint256)":"a694fc3a"},"id":65}