{"abi":[{"type":"function","name":"getCurrentICR","inputs":[{"name":"","type":"address","internalType":"address"},{"name":"","type":"uint256","internalType":"uint256"}],"outputs":[{"name":"","type":"uint256","internalType":"uint256"}],"stateMutability":"pure"},{"type":"function","name":"getNominalICR","inputs":[{"name":"","type":"address","internalType":"address"}],"outputs":[{"name":"","type":"uint256","internalType":"uint256"}],"stateMutability":"pure"},{"type":"function","name":"insert","inputs":[{"name":"param","type":"tuple","internalType":"struct ISortedTroves.SortedTrovesInsertParam","components":[{"name":"id","type":"address","internalType":"address"},{"name":"newNICR","type":"uint256","internalType":"uint256"},{"name":"prevId","type":"address","internalType":"address"},{"name":"nextId","type":"address","internalType":"address"}]}],"outputs":[],"stateMutability":"nonpayable"},{"type":"function","name":"reInsert","inputs":[{"name":"param","type":"tuple","internalType":"struct ISortedTroves.SortedTrovesInsertParam","components":[{"name":"id","type":"address","internalType":"address"},{"name":"newNICR","type":"uint256","internalType":"uint256"},{"name":"prevId","type":"address","internalType":"address"},{"name":"nextId","type":"address","internalType":"address"}]}],"outputs":[],"stateMutability":"nonpayable"},{"type":"function","name":"remove","inputs":[{"name":"_id","type":"address","internalType":"address"}],"outputs":[],"stateMutability":"nonpayable"},{"type":"function","name":"setSortedTroves","inputs":[{"name":"_sortedTrovesAddress","type":"address","internalType":"address"}],"outputs":[],"stateMutability":"nonpayable"}],"bytecode":{"object":"0x608060405234801561001057600080fd5b5061033b806100206000396000f3fe608060405234801561001057600080fd5b50600436106100625760003560e01c806329092d0e14610067578063806093b81461007c5780638c2d33eb1461008f578063b0d8e181146100a2578063d293c710146100cb578063e24b40d2146100de575b600080fd5b61007a6100753660046101fe565b6100f1565b005b61007a61008a36600461024a565b610156565b61007a61009d36600461024a565b610186565b6100b56100b03660046101fe565b6101b6565b6040516100c2919061030d565b60405180910390f35b6100b56100d9366004610220565b6101bc565b61007a6100ec3660046101fe565b6101c5565b600054604051631484968760e11b81526001600160a01b03909116906329092d0e906101219084906004016102c0565b600060405180830381600087803b15801561013b57600080fd5b505af115801561014f573d6000803e3d6000fd5b5050505050565b60005460405163100c127760e31b81526001600160a01b039091169063806093b8906101219084906004016102d4565b600054604051638c2d33eb60e01b81526001600160a01b0390911690638c2d33eb906101219084906004016102d4565b50600190565b60015b92915050565b600080546001600160a01b0319166001600160a01b0392909216919091179055565b80356001600160a01b03811681146101bf57600080fd5b60006020828403121561020f578081fd5b61021983836101e7565b9392505050565b60008060408385031215610232578081fd5b61023c84846101e7565b946020939093013593505050565b60006080828403121561025b578081fd5b604051608081016001600160401b0381118282101715610279578283fd5b604052823561028781610316565b81526020838101359082015260408301356102a181610316565b604082015260608301356102b481610316565b60608201529392505050565b6001600160a01b0391909116815260200190565b81516001600160a01b03908116825260208084015190830152604080840151821690830152606092830151169181019190915260800190565b90815260200190565b6001600160a01b038116811461032b57600080fd5b5056fea164736f6c634300060b000a","linkReferences":{}},"methodIdentifiers":{"getCurrentICR(address,uint256)":"d293c710","getNominalICR(address)":"b0d8e181","insert((address,uint256,address,address))":"8c2d33eb","reInsert((address,uint256,address,address))":"806093b8","remove(address)":"29092d0e","setSortedTroves(address)":"e24b40d2"},"id":94}