{"abi":[{"type":"function","name":"setUSDS","inputs":[{"name":"_USDS","type":"address","internalType":"contract IUSDSToken"}],"outputs":[],"stateMutability":"nonpayable"},{"type":"function","name":"usdsBurn","inputs":[{"name":"_account","type":"address","internalType":"address"},{"name":"_amount","type":"uint256","internalType":"uint256"}],"outputs":[],"stateMutability":"nonpayable"},{"type":"function","name":"usdsMint","inputs":[{"name":"_account","type":"address","internalType":"address"},{"name":"_amount","type":"uint256","internalType":"uint256"}],"outputs":[],"stateMutability":"nonpayable"},{"type":"function","name":"usdsReturnFromPool","inputs":[{"name":"_poolAddress","type":"address","internalType":"address"},{"name":"_receiver","type":"address","internalType":"address"},{"name":"_amount","type":"uint256","internalType":"uint256"}],"outputs":[],"stateMutability":"nonpayable"},{"type":"function","name":"usdsSendToPool","inputs":[{"name":"_sender","type":"address","internalType":"address"},{"name":"_poolAddress","type":"address","internalType":"address"},{"name":"_amount","type":"uint256","internalType":"uint256"}],"outputs":[],"stateMutability":"nonpayable"}],"bytecode":{"object":"0x608060405234801561001057600080fd5b50610308806100206000396000f3fe608060405234801561001057600080fd5b50600436106100575760003560e01c8063188382651461005c57806360af60c31461009457806387888b07146100ba578063d945a2d7146100e6578063f24553181461011c575b600080fd5b6100926004803603606081101561007257600080fd5b506001600160a01b03813581169160208101359091169060400135610148565b005b610092600480360360208110156100aa57600080fd5b50356001600160a01b03166101bf565b610092600480360360408110156100d057600080fd5b506001600160a01b0381351690602001356101e1565b610092600480360360608110156100fc57600080fd5b506001600160a01b0381358116916020810135909116906040013561024f565b6100926004803603604081101561013257600080fd5b506001600160a01b0381351690602001356102a9565b6000805460408051631062c15f60e11b81526001600160a01b038781166004830152868116602483015260448201869052915191909216926320c582be926064808201939182900301818387803b1580156101a257600080fd5b505af11580156101b6573d6000803e3d6000fd5b50505050505050565b600080546001600160a01b0319166001600160a01b0392909216919091179055565b6000805460408051632770a7eb60e21b81526001600160a01b0386811660048301526024820186905291519190921692639dc29fac926044808201939182900301818387803b15801561023357600080fd5b505af1158015610247573d6000803e3d6000fd5b505050505050565b6000805460408051632ee65eeb60e21b81526001600160a01b0387811660048301528681166024830152604482018690529151919092169263bb997bac926064808201939182900301818387803b1580156101a257600080fd5b60008054604080516340c10f1960e01b81526001600160a01b03868116600483015260248201869052915191909216926340c10f19926044808201939182900301818387803b15801561023357600080fdfea164736f6c634300060b000a","linkReferences":{}},"methodIdentifiers":{"setUSDS(address)":"60af60c3","usdsBurn(address,uint256)":"87888b07","usdsMint(address,uint256)":"f2455318","usdsReturnFromPool(address,address,uint256)":"18838265","usdsSendToPool(address,address,uint256)":"d945a2d7"},"id":96}